{
	"compilerInput": "{\"language\":\"Solidity\",\"sources\":{\"CivicIssueTracker.sol\":{\"content\":\"// SPDX-License-Identifier: MIT\\r\\npragma solidity ^0.8.0;\\r\\n\\r\\n/**\\r\\n * @title CivicIssueTracker\\r\\n * @dev Smart contract for transparent civic issue tracking and voting\\r\\n */\\r\\ncontract CivicIssueTracker {\\r\\n    \\r\\n    // Structure to store issue details\\r\\n    struct Issue {\\r\\n        string issueId;        // MongoDB ObjectId\\r\\n        string title;          // Issue title (truncated to 100 chars)\\r\\n        address reportedBy;    // Wallet address of reporter\\r\\n        uint256 timestamp;     // Block timestamp when recorded\\r\\n        uint256 voteCount;     // Total votes received\\r\\n        bool exists;           // Check if issue exists\\r\\n    }\\r\\n    \\r\\n    // Structure to store vote details\\r\\n    struct Vote {\\r\\n        address voter;         // Wallet address of voter\\r\\n        string issueId;        // Issue being voted on\\r\\n        uint256 timestamp;     // When vote was cast\\r\\n        bool support;          // true = upvote, false = downvote\\r\\n    }\\r\\n    \\r\\n    // Mappings\\r\\n    mapping(string => Issue) public issues;\\r\\n    mapping(string => Vote[]) public issueVotes;\\r\\n    mapping(address => string[]) public userIssues;\\r\\n    mapping(address => mapping(string => bool)) public hasVoted;\\r\\n    \\r\\n    // Arrays to track all issues\\r\\n    string[] public allIssueIds;\\r\\n    \\r\\n    // Events\\r\\n    event IssueRecorded(\\r\\n        string indexed issueId,\\r\\n        string title,\\r\\n        address indexed reportedBy,\\r\\n        uint256 timestamp\\r\\n    );\\r\\n    \\r\\n    event VoteRecorded(\\r\\n        string indexed issueId,\\r\\n        address indexed voter,\\r\\n        bool support,\\r\\n        uint256 timestamp\\r\\n    );\\r\\n    \\r\\n    event IssueStatusUpdated(\\r\\n        string indexed issueId,\\r\\n        string newStatus,\\r\\n        uint256 timestamp\\r\\n    );\\r\\n    \\r\\n    /**\\r\\n     * @dev Record a new civic issue on the blockchain\\r\\n     * @param _issueId MongoDB ObjectId of the issue\\r\\n     * @param _title Title of the issue (max 100 chars)\\r\\n     */\\r\\n    function recordIssue(\\r\\n        string memory _issueId,\\r\\n        string memory _title\\r\\n    ) public {\\r\\n        require(bytes(_issueId).length > 0, \\\"Issue ID cannot be empty\\\");\\r\\n        require(bytes(_title).length > 0, \\\"Title cannot be empty\\\");\\r\\n        require(!issues[_issueId].exists, \\\"Issue already recorded\\\");\\r\\n        \\r\\n        issues[_issueId] = Issue({\\r\\n            issueId: _issueId,\\r\\n            title: _title,\\r\\n            reportedBy: msg.sender,\\r\\n            timestamp: block.timestamp,\\r\\n            voteCount: 0,\\r\\n            exists: true\\r\\n        });\\r\\n        \\r\\n        allIssueIds.push(_issueId);\\r\\n        userIssues[msg.sender].push(_issueId);\\r\\n        \\r\\n        emit IssueRecorded(_issueId, _title, msg.sender, block.timestamp);\\r\\n    }\\r\\n    \\r\\n    /**\\r\\n     * @dev Record a vote on an issue\\r\\n     * @param _issueId Issue to vote on\\r\\n     * @param _support True for upvote, false for downvote\\r\\n     */\\r\\n    function recordVote(\\r\\n        string memory _issueId,\\r\\n        bool _support\\r\\n    ) public {\\r\\n        require(issues[_issueId].exists, \\\"Issue does not exist\\\");\\r\\n        require(!hasVoted[msg.sender][_issueId], \\\"Already voted on this issue\\\");\\r\\n        \\r\\n        Vote memory newVote = Vote({\\r\\n            voter: msg.sender,\\r\\n            issueId: _issueId,\\r\\n            timestamp: block.timestamp,\\r\\n            support: _support\\r\\n        });\\r\\n        \\r\\n        issueVotes[_issueId].push(newVote);\\r\\n        hasVoted[msg.sender][_issueId] = true;\\r\\n        \\r\\n        if (_support) {\\r\\n            issues[_issueId].voteCount++;\\r\\n        }\\r\\n        \\r\\n        emit VoteRecorded(_issueId, msg.sender, _support, block.timestamp);\\r\\n    }\\r\\n    \\r\\n    /**\\r\\n     * @dev Get issue details\\r\\n     * @param _issueId Issue ID to query\\r\\n     */\\r\\n    function getIssue(string memory _issueId) public view returns (\\r\\n        string memory issueId,\\r\\n        string memory title,\\r\\n        address reportedBy,\\r\\n        uint256 timestamp,\\r\\n        uint256 voteCount,\\r\\n        bool exists\\r\\n    ) {\\r\\n        Issue memory issue = issues[_issueId];\\r\\n        return (\\r\\n            issue.issueId,\\r\\n            issue.title,\\r\\n            issue.reportedBy,\\r\\n            issue.timestamp,\\r\\n            issue.voteCount,\\r\\n            issue.exists\\r\\n        );\\r\\n    }\\r\\n    \\r\\n    /**\\r\\n     * @dev Get vote count for an issue\\r\\n     * @param _issueId Issue ID to query\\r\\n     */\\r\\n    function getVoteCount(string memory _issueId) public view returns (uint256) {\\r\\n        require(issues[_issueId].exists, \\\"Issue does not exist\\\");\\r\\n        return issues[_issueId].voteCount;\\r\\n    }\\r\\n    \\r\\n    /**\\r\\n     * @dev Get all votes for an issue\\r\\n     * @param _issueId Issue ID to query\\r\\n     */\\r\\n    function getIssueVotes(string memory _issueId) public view returns (Vote[] memory) {\\r\\n        require(issues[_issueId].exists, \\\"Issue does not exist\\\");\\r\\n        return issueVotes[_issueId];\\r\\n    }\\r\\n    \\r\\n    /**\\r\\n     * @dev Get all issues reported by a user\\r\\n     * @param _user User address to query\\r\\n     */\\r\\n    function getUserIssues(address _user) public view returns (string[] memory) {\\r\\n        return userIssues[_user];\\r\\n    }\\r\\n    \\r\\n    /**\\r\\n     * @dev Check if user has voted on an issue\\r\\n     * @param _user User address\\r\\n     * @param _issueId Issue ID\\r\\n     */\\r\\n    function checkIfVoted(address _user, string memory _issueId) public view returns (bool) {\\r\\n        return hasVoted[_user][_issueId];\\r\\n    }\\r\\n    \\r\\n    /**\\r\\n     * @dev Get total number of issues recorded\\r\\n     */\\r\\n    function getTotalIssues() public view returns (uint256) {\\r\\n        return allIssueIds.length;\\r\\n    }\\r\\n    \\r\\n    /**\\r\\n     * @dev Get all issue IDs (paginated)\\r\\n     * @param _offset Starting index\\r\\n     * @param _limit Number of records to return\\r\\n     */\\r\\n    function getAllIssues(uint256 _offset, uint256 _limit) public view returns (string[] memory) {\\r\\n        require(_offset < allIssueIds.length, \\\"Offset out of bounds\\\");\\r\\n        \\r\\n        uint256 end = _offset + _limit;\\r\\n        if (end > allIssueIds.length) {\\r\\n            end = allIssueIds.length;\\r\\n        }\\r\\n        \\r\\n        string[] memory result = new string[](end - _offset);\\r\\n        for (uint256 i = _offset; i < end; i++) {\\r\\n            result[i - _offset] = allIssueIds[i];\\r\\n        }\\r\\n        \\r\\n        return result;\\r\\n    }\\r\\n}\\r\\n\"}},\"settings\":{\"optimizer\":{\"enabled\":false,\"runs\":200},\"outputSelection\":{\"*\":{\"\":[\"ast\"],\"*\":[\"abi\",\"metadata\",\"devdoc\",\"userdoc\",\"storageLayout\",\"evm.legacyAssembly\",\"evm.bytecode\",\"evm.deployedBytecode\",\"evm.methodIdentifiers\",\"evm.gasEstimates\",\"evm.assembly\"]}},\"remappings\":[]}}",
	"name": "CivicIssueTracker",
	"bytecode": {
		"linkReferences": {},
		"object": "608060405234801561001057600080fd5b5061248c806100206000396000f3fe608060405234801561001057600080fd5b50600436106100e95760003560e01c8063893768691161008c578063c684706011610066578063c6847060146102ae578063e38ba436146102de578063f62ef4b614610313578063f81e08c614610331576100e9565b8063893768691461022f5780639c667c7d146102625780639ebd26771461027e576100e9565b806331f4fff0116100c857806331f4fff01461016a5780633535ca9a1461019a5780634b098976146101ca578063814a1096146101fa576100e9565b8062f2eac2146100ee578063069953a71461010a578063287de3621461013a575b600080fd5b610108600480360381019061010391906118e7565b610361565b005b610124600480360381019061011f91906118a6565b6106aa565b60405161013191906120be565b60405180910390f35b610154600480360381019061014f919061186a565b610742565b6040516101619190611f3d565b60405180910390f35b610184600480360381019061017f91906119fb565b6107fb565b6040516101919190611f3d565b60405180910390f35b6101b460048036038101906101af91906117ed565b6108a7565b6040516101c19190611eb5565b60405180910390f35b6101e460048036038101906101df9190611816565b6109bf565b6040516101f19190611ef9565b60405180910390f35b610214600480360381019061020f91906118a6565b610a32565b60405161022696959493929190611f5f565b60405180910390f35b610249600480360381019061024491906119a7565b610c44565b6040516102599493929190611e69565b60405180910390f35b61027c6004803603810190610277919061193b565b610d5c565b005b61029860048036038101906102939190611a24565b61108f565b6040516102a59190611eb5565b60405180910390f35b6102c860048036038101906102c39190611816565b6112ca565b6040516102d59190611ef9565b60405180910390f35b6102f860048036038101906102f391906118a6565b61130f565b60405161030a96959493929190611f5f565b60405180910390f35b61031b61149e565b60405161032891906120be565b60405180910390f35b61034b600480360381019061034691906118a6565b6114ab565b6040516103589190611ed7565b60405180910390f35b6000826040516103719190611e52565b908152602001604051809103902060050160009054906101000a900460ff166103cf576040517f08c379a00000000000000000000000000000000000000000000000000000000081526004016103c69061201e565b60405180910390fd5b600360003373ffffffffffffffffffffffffffffffffffffffff1673ffffffffffffffffffffffffffffffffffffffff1681526020019081526020016000208260405161041c9190611e52565b908152602001604051809103902060009054906101000a900460ff1615610478576040517f08c379a000000000000000000000000000000000000000000000000000000000815260040161046f90611ffe565b60405180910390fd5b600060405180608001604052803373ffffffffffffffffffffffffffffffffffffffff16815260200184815260200142815260200183151581525090506001836040516104c59190611e52565b908152602001604051809103902081908060018154018082558091505060019003906000526020600020906004020160009091909190915060008201518160000160006101000a81548173ffffffffffffffffffffffffffffffffffffffff021916908373ffffffffffffffffffffffffffffffffffffffff16021790555060208201518160010190805190602001906105609291906116a3565b506040820151816002015560608201518160030160006101000a81548160ff02191690831515021790555050506001600360003373ffffffffffffffffffffffffffffffffffffffff1673ffffffffffffffffffffffffffffffffffffffff168152602001908152602001600020846040516105dc9190611e52565b908152602001604051809103902060006101000a81548160ff021916908315150217905550811561063f576000836040516106179190611e52565b908152602001604051809103902060040160008154809291906106399061232a565b91905055505b3373ffffffffffffffffffffffffffffffffffffffff16836040516106649190611e52565b60405180910390207f198e3ed8d34bb0748a994aa3dec83be23391b16a3539119f912746564bd35533844260405161069d929190611f14565b60405180910390a3505050565b600080826040516106bb9190611e52565b908152602001604051809103902060050160009054906101000a900460ff16610719576040517f08c379a00000000000000000000000000000000000000000000000000000000081526004016107109061201e565b60405180910390fd5b6000826040516107299190611e52565b9081526020016040518091039020600401549050919050565b6002602052816000526040600020818154811061075e57600080fd5b9060005260206000200160009150915050805461077a906122f8565b80601f01602080910402602001604051908101604052809291908181526020018280546107a6906122f8565b80156107f35780601f106107c8576101008083540402835291602001916107f3565b820191906000526020600020905b8154815290600101906020018083116107d657829003601f168201915b505050505081565b6004818154811061080b57600080fd5b906000526020600020016000915090508054610826906122f8565b80601f0160208091040260200160405190810160405280929190818152602001828054610852906122f8565b801561089f5780601f106108745761010080835404028352916020019161089f565b820191906000526020600020905b81548152906001019060200180831161088257829003601f168201915b505050505081565b6060600260008373ffffffffffffffffffffffffffffffffffffffff1673ffffffffffffffffffffffffffffffffffffffff168152602001908152602001600020805480602002602001604051908101604052809291908181526020016000905b828210156109b4578382906000526020600020018054610927906122f8565b80601f0160208091040260200160405190810160405280929190818152602001828054610953906122f8565b80156109a05780601f10610975576101008083540402835291602001916109a0565b820191906000526020600020905b81548152906001019060200180831161098357829003601f168201915b505050505081526020019060010190610908565b505050509050919050565b6000600360008473ffffffffffffffffffffffffffffffffffffffff1673ffffffffffffffffffffffffffffffffffffffff16815260200190815260200160002082604051610a0e9190611e52565b908152602001604051809103902060009054906101000a900460ff16905092915050565b60608060008060008060008088604051610a4c9190611e52565b90815260200160405180910390206040518060c0016040529081600082018054610a75906122f8565b80601f0160208091040260200160405190810160405280929190818152602001828054610aa1906122f8565b8015610aee5780601f10610ac357610100808354040283529160200191610aee565b820191906000526020600020905b815481529060010190602001808311610ad157829003601f168201915b50505050508152602001600182018054610b07906122f8565b80601f0160208091040260200160405190810160405280929190818152602001828054610b33906122f8565b8015610b805780601f10610b5557610100808354040283529160200191610b80565b820191906000526020600020905b815481529060010190602001808311610b6357829003601f168201915b505050505081526020016002820160009054906101000a900473ffffffffffffffffffffffffffffffffffffffff1673ffffffffffffffffffffffffffffffffffffffff1673ffffffffffffffffffffffffffffffffffffffff16815260200160038201548152602001600482015481526020016005820160009054906101000a900460ff1615151515815250509050806000015181602001518260400151836060015184608001518560a001519650965096509650965096505091939550919395565b6001828051602081018201805184825260208301602085012081835280955050505050508181548110610c7657600080fd5b9060005260206000209060040201600091509150508060000160009054906101000a900473ffffffffffffffffffffffffffffffffffffffff1690806001018054610cc0906122f8565b80601f0160208091040260200160405190810160405280929190818152602001828054610cec906122f8565b8015610d395780601f10610d0e57610100808354040283529160200191610d39565b820191906000526020600020905b815481529060010190602001808311610d1c57829003601f168201915b5050505050908060020154908060030160009054906101000a900460ff16905084565b6000825111610da0576040517f08c379a0000000000000000000000000000000000000000000000000000000008152600401610d979061209e565b60405180910390fd5b6000815111610de4576040517f08c379a0000000000000000000000000000000000000000000000000000000008152600401610ddb9061203e565b60405180910390fd5b600082604051610df49190611e52565b908152602001604051809103902060050160009054906101000a900460ff1615610e53576040517f08c379a0000000000000000000000000000000000000000000000000000000008152600401610e4a9061205e565b60405180910390fd5b6040518060c001604052808381526020018281526020013373ffffffffffffffffffffffffffffffffffffffff1681526020014281526020016000815260200160011515815250600083604051610eaa9190611e52565b90815260200160405180910390206000820151816000019080519060200190610ed49291906116a3565b506020820151816001019080519060200190610ef19291906116a3565b5060408201518160020160006101000a81548173ffffffffffffffffffffffffffffffffffffffff021916908373ffffffffffffffffffffffffffffffffffffffff160217905550606082015181600301556080820151816004015560a08201518160050160006101000a81548160ff021916908315150217905550905050600482908060018154018082558091505060019003906000526020600020016000909190919091509080519060200190610fab9291906116a3565b50600260003373ffffffffffffffffffffffffffffffffffffffff1673ffffffffffffffffffffffffffffffffffffffff168152602001908152602001600020829080600181540180825580915050600190039060005260206000200160009091909190915090805190602001906110249291906116a3565b503373ffffffffffffffffffffffffffffffffffffffff168260405161104a9190611e52565b60405180910390207f8d9e646b7be50523dbf45d232dea79bf57ed2ea290147f46d64d74918bcce7428342604051611083929190611fce565b60405180910390a35050565b606060048054905083106110d8576040517f08c379a00000000000000000000000000000000000000000000000000000000081526004016110cf9061207e565b60405180910390fd5b600082846110e691906121e4565b90506004805490508111156110fe5760048054905090505b6000848261110c919061223a565b67ffffffffffffffff81111561114b577f4e487b7100000000000000000000000000000000000000000000000000000000600052604160045260246000fd5b60405190808252806020026020018201604052801561117e57816020015b60608152602001906001900390816111695790505b50905060008590505b828110156112be57600481815481106111c9577f4e487b7100000000000000000000000000000000000000000000000000000000600052603260045260246000fd5b9060005260206000200180546111de906122f8565b80601f016020809104026020016040519081016040528092919081815260200182805461120a906122f8565b80156112575780601f1061122c57610100808354040283529160200191611257565b820191906000526020600020905b81548152906001019060200180831161123a57829003601f168201915b5050505050828783611269919061223a565b815181106112a0577f4e487b7100000000000000000000000000000000000000000000000000000000600052603260045260246000fd5b602002602001018190525080806112b69061232a565b915050611187565b50809250505092915050565b6003602052816000526040600020818051602081018201805184825260208301602085012081835280955050505050506000915091509054906101000a900460ff1681565b600081805160208101820180518482526020830160208501208183528095505050505050600091509050806000018054611348906122f8565b80601f0160208091040260200160405190810160405280929190818152602001828054611374906122f8565b80156113c15780601f10611396576101008083540402835291602001916113c1565b820191906000526020600020905b8154815290600101906020018083116113a457829003601f168201915b5050505050908060010180546113d6906122f8565b80601f0160208091040260200160405190810160405280929190818152602001828054611402906122f8565b801561144f5780601f106114245761010080835404028352916020019161144f565b820191906000526020600020905b81548152906001019060200180831161143257829003601f168201915b5050505050908060020160009054906101000a900473ffffffffffffffffffffffffffffffffffffffff16908060030154908060040154908060050160009054906101000a900460ff16905086565b6000600480549050905090565b60606000826040516114bd9190611e52565b908152602001604051809103902060050160009054906101000a900460ff1661151b576040517f08c379a00000000000000000000000000000000000000000000000000000000081526004016115129061201e565b60405180910390fd5b60018260405161152b9190611e52565b9081526020016040518091039020805480602002602001604051908101604052809291908181526020016000905b8282101561169857838290600052602060002090600402016040518060800160405290816000820160009054906101000a900473ffffffffffffffffffffffffffffffffffffffff1673ffffffffffffffffffffffffffffffffffffffff1673ffffffffffffffffffffffffffffffffffffffff1681526020016001820180546115e2906122f8565b80601f016020809104026020016040519081016040528092919081815260200182805461160e906122f8565b801561165b5780601f106116305761010080835404028352916020019161165b565b820191906000526020600020905b81548152906001019060200180831161163e57829003601f168201915b50505050508152602001600282015481526020016003820160009054906101000a900460ff16151515158152505081526020019060010190611559565b505050509050919050565b8280546116af906122f8565b90600052602060002090601f0160209004810192826116d15760008555611718565b82601f106116ea57805160ff1916838001178555611718565b82800160010185558215611718579182015b828111156117175782518255916020019190600101906116fc565b5b5090506117259190611729565b5090565b5b8082111561174257600081600090555060010161172a565b5090565b60006117596117548461210a565b6120d9565b90508281526020810184848401111561177157600080fd5b61177c8482856122b6565b509392505050565b60008135905061179381612411565b92915050565b6000813590506117a881612428565b92915050565b600082601f8301126117bf57600080fd5b81356117cf848260208601611746565b91505092915050565b6000813590506117e78161243f565b92915050565b6000602082840312156117ff57600080fd5b600061180d84828501611784565b91505092915050565b6000806040838503121561182957600080fd5b600061183785828601611784565b925050602083013567ffffffffffffffff81111561185457600080fd5b611860858286016117ae565b9150509250929050565b6000806040838503121561187d57600080fd5b600061188b85828601611784565b925050602061189c858286016117d8565b9150509250929050565b6000602082840312156118b857600080fd5b600082013567ffffffffffffffff8111156118d257600080fd5b6118de848285016117ae565b91505092915050565b600080604083850312156118fa57600080fd5b600083013567ffffffffffffffff81111561191457600080fd5b611920858286016117ae565b925050602061193185828601611799565b9150509250929050565b6000806040838503121561194e57600080fd5b600083013567ffffffffffffffff81111561196857600080fd5b611974858286016117ae565b925050602083013567ffffffffffffffff81111561199157600080fd5b61199d858286016117ae565b9150509250929050565b600080604083850312156119ba57600080fd5b600083013567ffffffffffffffff8111156119d457600080fd5b6119e0858286016117ae565b92505060206119f1858286016117d8565b9150509250929050565b600060208284031215611a0d57600080fd5b6000611a1b848285016117d8565b91505092915050565b60008060408385031215611a3757600080fd5b6000611a45858286016117d8565b9250506020611a56858286016117d8565b9150509250929050565b6000611a6c8383611bae565b905092915050565b6000611a808383611dd1565b905092915050565b611a918161226e565b82525050565b611aa08161226e565b82525050565b6000611ab18261215a565b611abb8185612195565b935083602082028501611acd8561213a565b8060005b85811015611b095784840389528151611aea8582611a60565b9450611af58361217b565b925060208a01995050600181019050611ad1565b50829750879550505050505092915050565b6000611b2682612165565b611b3081856121a6565b935083602082028501611b428561214a565b8060005b85811015611b7e5784840389528151611b5f8582611a74565b9450611b6a83612188565b925060208a01995050600181019050611b46565b50829750879550505050505092915050565b611b9981612280565b82525050565b611ba881612280565b82525050565b6000611bb982612170565b611bc381856121b7565b9350611bd38185602086016122c5565b611bdc81612400565b840191505092915050565b6000611bf282612170565b611bfc81856121c8565b9350611c0c8185602086016122c5565b611c1581612400565b840191505092915050565b6000611c2b82612170565b611c3581856121d9565b9350611c458185602086016122c5565b80840191505092915050565b6000611c5e601b836121c8565b91507f416c726561647920766f746564206f6e207468697320697373756500000000006000830152602082019050919050565b6000611c9e6014836121c8565b91507f497373756520646f6573206e6f742065786973740000000000000000000000006000830152602082019050919050565b6000611cde6015836121c8565b91507f5469746c652063616e6e6f7420626520656d70747900000000000000000000006000830152602082019050919050565b6000611d1e6016836121c8565b91507f497373756520616c7265616479207265636f72646564000000000000000000006000830152602082019050919050565b6000611d5e6014836121c8565b91507f4f6666736574206f7574206f6620626f756e64730000000000000000000000006000830152602082019050919050565b6000611d9e6018836121c8565b91507f49737375652049442063616e6e6f7420626520656d70747900000000000000006000830152602082019050919050565b6000608083016000830151611de96000860182611a88565b5060208301518482036020860152611e018282611bae565b9150506040830151611e166040860182611e34565b506060830151611e296060860182611b90565b508091505092915050565b611e3d816122ac565b82525050565b611e4c816122ac565b82525050565b6000611e5e8284611c20565b915081905092915050565b6000608082019050611e7e6000830187611a97565b8181036020830152611e908186611be7565b9050611e9f6040830185611e43565b611eac6060830184611b9f565b95945050505050565b60006020820190508181036000830152611ecf8184611aa6565b905092915050565b60006020820190508181036000830152611ef18184611b1b565b905092915050565b6000602082019050611f0e6000830184611b9f565b92915050565b6000604082019050611f296000830185611b9f565b611f366020830184611e43565b9392505050565b60006020820190508181036000830152611f578184611be7565b905092915050565b600060c0820190508181036000830152611f798189611be7565b90508181036020830152611f8d8188611be7565b9050611f9c6040830187611a97565b611fa96060830186611e43565b611fb66080830185611e43565b611fc360a0830184611b9f565b979650505050505050565b60006040820190508181036000830152611fe88185611be7565b9050611ff76020830184611e43565b9392505050565b6000602082019050818103600083015261201781611c51565b9050919050565b6000602082019050818103600083015261203781611c91565b9050919050565b6000602082019050818103600083015261205781611cd1565b9050919050565b6000602082019050818103600083015261207781611d11565b9050919050565b6000602082019050818103600083015261209781611d51565b9050919050565b600060208201905081810360008301526120b781611d91565b9050919050565b60006020820190506120d36000830184611e43565b92915050565b6000604051905081810181811067ffffffffffffffff82111715612100576120ff6123d1565b5b8060405250919050565b600067ffffffffffffffff821115612125576121246123d1565b5b601f19601f8301169050602081019050919050565b6000819050602082019050919050565b6000819050602082019050919050565b600081519050919050565b600081519050919050565b600081519050919050565b6000602082019050919050565b6000602082019050919050565b600082825260208201905092915050565b600082825260208201905092915050565b600082825260208201905092915050565b600082825260208201905092915050565b600081905092915050565b60006121ef826122ac565b91506121fa836122ac565b9250827fffffffffffffffffffffffffffffffffffffffffffffffffffffffffffffffff0382111561222f5761222e612373565b5b828201905092915050565b6000612245826122ac565b9150612250836122ac565b92508282101561226357612262612373565b5b828203905092915050565b60006122798261228c565b9050919050565b60008115159050919050565b600073ffffffffffffffffffffffffffffffffffffffff82169050919050565b6000819050919050565b82818337600083830152505050565b60005b838110156122e35780820151818401526020810190506122c8565b838111156122f2576000848401525b50505050565b6000600282049050600182168061231057607f821691505b60208210811415612324576123236123a2565b5b50919050565b6000612335826122ac565b91507fffffffffffffffffffffffffffffffffffffffffffffffffffffffffffffffff82141561236857612367612373565b5b600182019050919050565b7f4e487b7100000000000000000000000000000000000000000000000000000000600052601160045260246000fd5b7f4e487b7100000000000000000000000000000000000000000000000000000000600052602260045260246000fd5b7f4e487b7100000000000000000000000000000000000000000000000000000000600052604160045260246000fd5b6000601f19601f8301169050919050565b61241a8161226e565b811461242557600080fd5b50565b61243181612280565b811461243c57600080fd5b50565b612448816122ac565b811461245357600080fd5b5056fea2646970667358221220f3a9922b9519ae6be95caa773d5d2be09dade3f09c63b8b25f77703f533d8b6a64736f6c63430008000033",
		"opcodes": "PUSH1 0x80 PUSH1 0x40 MSTORE CALLVALUE DUP1 ISZERO PUSH2 0x10 JUMPI PUSH1 0x0 DUP1 REVERT JUMPDEST POP PUSH2 0x248C DUP1 PUSH2 0x20 PUSH1 0x0 CODECOPY PUSH1 0x0 RETURN INVALID PUSH1 0x80 PUSH1 0x40 MSTORE CALLVALUE DUP1 ISZERO PUSH2 0x10 JUMPI PUSH1 0x0 DUP1 REVERT JUMPDEST POP PUSH1 0x4 CALLDATASIZE LT PUSH2 0xE9 JUMPI PUSH1 0x0 CALLDATALOAD PUSH1 0xE0 SHR DUP1 PUSH4 0x89376869 GT PUSH2 0x8C JUMPI DUP1 PUSH4 0xC6847060 GT PUSH2 0x66 JUMPI DUP1 PUSH4 0xC6847060 EQ PUSH2 0x2AE JUMPI DUP1 PUSH4 0xE38BA436 EQ PUSH2 0x2DE JUMPI DUP1 PUSH4 0xF62EF4B6 EQ PUSH2 0x313 JUMPI DUP1 PUSH4 0xF81E08C6 EQ PUSH2 0x331 JUMPI PUSH2 0xE9 JUMP JUMPDEST DUP1 PUSH4 0x89376869 EQ PUSH2 0x22F JUMPI DUP1 PUSH4 0x9C667C7D EQ PUSH2 0x262 JUMPI DUP1 PUSH4 0x9EBD2677 EQ PUSH2 0x27E JUMPI PUSH2 0xE9 JUMP JUMPDEST DUP1 PUSH4 0x31F4FFF0 GT PUSH2 0xC8 JUMPI DUP1 PUSH4 0x31F4FFF0 EQ PUSH2 0x16A JUMPI DUP1 PUSH4 0x3535CA9A EQ PUSH2 0x19A JUMPI DUP1 PUSH4 0x4B098976 EQ PUSH2 0x1CA JUMPI DUP1 PUSH4 0x814A1096 EQ PUSH2 0x1FA JUMPI PUSH2 0xE9 JUMP JUMPDEST DUP1 PUSH3 0xF2EAC2 EQ PUSH2 0xEE JUMPI DUP1 PUSH4 0x69953A7 EQ PUSH2 0x10A JUMPI DUP1 PUSH4 0x287DE362 EQ PUSH2 0x13A JUMPI JUMPDEST PUSH1 0x0 DUP1 REVERT JUMPDEST PUSH2 0x108 PUSH1 0x4 DUP1 CALLDATASIZE SUB DUP2 ADD SWAP1 PUSH2 0x103 SWAP2 SWAP1 PUSH2 0x18E7 JUMP JUMPDEST PUSH2 0x361 JUMP JUMPDEST STOP JUMPDEST PUSH2 0x124 PUSH1 0x4 DUP1 CALLDATASIZE SUB DUP2 ADD SWAP1 PUSH2 0x11F SWAP2 SWAP1 PUSH2 0x18A6 JUMP JUMPDEST PUSH2 0x6AA JUMP JUMPDEST PUSH1 0x40 MLOAD PUSH2 0x131 SWAP2 SWAP1 PUSH2 0x20BE JUMP JUMPDEST PUSH1 0x40 MLOAD DUP1 SWAP2 SUB SWAP1 RETURN JUMPDEST PUSH2 0x154 PUSH1 0x4 DUP1 CALLDATASIZE SUB DUP2 ADD SWAP1 PUSH2 0x14F SWAP2 SWAP1 PUSH2 0x186A JUMP JUMPDEST PUSH2 0x742 JUMP JUMPDEST PUSH1 0x40 MLOAD PUSH2 0x161 SWAP2 SWAP1 PUSH2 0x1F3D JUMP JUMPDEST PUSH1 0x40 MLOAD DUP1 SWAP2 SUB SWAP1 RETURN JUMPDEST PUSH2 0x184 PUSH1 0x4 DUP1 CALLDATASIZE SUB DUP2 ADD SWAP1 PUSH2 0x17F SWAP2 SWAP1 PUSH2 0x19FB JUMP JUMPDEST PUSH2 0x7FB JUMP JUMPDEST PUSH1 0x40 MLOAD PUSH2 0x191 SWAP2 SWAP1 PUSH2 0x1F3D JUMP JUMPDEST PUSH1 0x40 MLOAD DUP1 SWAP2 SUB SWAP1 RETURN JUMPDEST PUSH2 0x1B4 PUSH1 0x4 DUP1 CALLDATASIZE SUB DUP2 ADD SWAP1 PUSH2 0x1AF SWAP2 SWAP1 PUSH2 0x17ED JUMP JUMPDEST PUSH2 0x8A7 JUMP JUMPDEST PUSH1 0x40 MLOAD PUSH2 0x1C1 SWAP2 SWAP1 PUSH2 0x1EB5 JUMP JUMPDEST PUSH1 0x40 MLOAD DUP1 SWAP2 SUB SWAP1 RETURN JUMPDEST PUSH2 0x1E4 PUSH1 0x4 DUP1 CALLDATASIZE SUB DUP2 ADD SWAP1 PUSH2 0x1DF SWAP2 SWAP1 PUSH2 0x1816 JUMP JUMPDEST PUSH2 0x9BF JUMP JUMPDEST PUSH1 0x40 MLOAD PUSH2 0x1F1 SWAP2 SWAP1 PUSH2 0x1EF9 JUMP JUMPDEST PUSH1 0x40 MLOAD DUP1 SWAP2 SUB SWAP1 RETURN JUMPDEST PUSH2 0x214 PUSH1 0x4 DUP1 CALLDATASIZE SUB DUP2 ADD SWAP1 PUSH2 0x20F SWAP2 SWAP1 PUSH2 0x18A6 JUMP JUMPDEST PUSH2 0xA32 JUMP JUMPDEST PUSH1 0x40 MLOAD PUSH2 0x226 SWAP7 SWAP6 SWAP5 SWAP4 SWAP3 SWAP2 SWAP1 PUSH2 0x1F5F JUMP JUMPDEST PUSH1 0x40 MLOAD DUP1 SWAP2 SUB SWAP1 RETURN JUMPDEST PUSH2 0x249 PUSH1 0x4 DUP1 CALLDATASIZE SUB DUP2 ADD SWAP1 PUSH2 0x244 SWAP2 SWAP1 PUSH2 0x19A7 JUMP JUMPDEST PUSH2 0xC44 JUMP JUMPDEST PUSH1 0x40 MLOAD PUSH2 0x259 SWAP5 SWAP4 SWAP3 SWAP2 SWAP1 PUSH2 0x1E69 JUMP JUMPDEST PUSH1 0x40 MLOAD DUP1 SWAP2 SUB SWAP1 RETURN JUMPDEST PUSH2 0x27C PUSH1 0x4 DUP1 CALLDATASIZE SUB DUP2 ADD SWAP1 PUSH2 0x277 SWAP2 SWAP1 PUSH2 0x193B JUMP JUMPDEST PUSH2 0xD5C JUMP JUMPDEST STOP JUMPDEST PUSH2 0x298 PUSH1 0x4 DUP1 CALLDATASIZE SUB DUP2 ADD SWAP1 PUSH2 0x293 SWAP2 SWAP1 PUSH2 0x1A24 JUMP JUMPDEST PUSH2 0x108F JUMP JUMPDEST PUSH1 0x40 MLOAD PUSH2 0x2A5 SWAP2 SWAP1 PUSH2 0x1EB5 JUMP JUMPDEST PUSH1 0x40 MLOAD DUP1 SWAP2 SUB SWAP1 RETURN JUMPDEST PUSH2 0x2C8 PUSH1 0x4 DUP1 CALLDATASIZE SUB DUP2 ADD SWAP1 PUSH2 0x2C3 SWAP2 SWAP1 PUSH2 0x1816 JUMP JUMPDEST PUSH2 0x12CA JUMP JUMPDEST PUSH1 0x40 MLOAD PUSH2 0x2D5 SWAP2 SWAP1 PUSH2 0x1EF9 JUMP JUMPDEST PUSH1 0x40 MLOAD DUP1 SWAP2 SUB SWAP1 RETURN JUMPDEST PUSH2 0x2F8 PUSH1 0x4 DUP1 CALLDATASIZE SUB DUP2 ADD SWAP1 PUSH2 0x2F3 SWAP2 SWAP1 PUSH2 0x18A6 JUMP JUMPDEST PUSH2 0x130F JUMP JUMPDEST PUSH1 0x40 MLOAD PUSH2 0x30A SWAP7 SWAP6 SWAP5 SWAP4 SWAP3 SWAP2 SWAP1 PUSH2 0x1F5F JUMP JUMPDEST PUSH1 0x40 MLOAD DUP1 SWAP2 SUB SWAP1 RETURN JUMPDEST PUSH2 0x31B PUSH2 0x149E JUMP JUMPDEST PUSH1 0x40 MLOAD PUSH2 0x328 SWAP2 SWAP1 PUSH2 0x20BE JUMP JUMPDEST PUSH1 0x40 MLOAD DUP1 SWAP2 SUB SWAP1 RETURN JUMPDEST PUSH2 0x34B PUSH1 0x4 DUP1 CALLDATASIZE SUB DUP2 ADD SWAP1 PUSH2 0x346 SWAP2 SWAP1 PUSH2 0x18A6 JUMP JUMPDEST PUSH2 0x14AB JUMP JUMPDEST PUSH1 0x40 MLOAD PUSH2 0x358 SWAP2 SWAP1 PUSH2 0x1ED7 JUMP JUMPDEST PUSH1 0x40 MLOAD DUP1 SWAP2 SUB SWAP1 RETURN JUMPDEST PUSH1 0x0 DUP3 PUSH1 0x40 MLOAD PUSH2 0x371 SWAP2 SWAP1 PUSH2 0x1E52 JUMP JUMPDEST SWAP1 DUP2 MSTORE PUSH1 0x20 ADD PUSH1 0x40 MLOAD DUP1 SWAP2 SUB SWAP1 KECCAK256 PUSH1 0x5 ADD PUSH1 0x0 SWAP1 SLOAD SWAP1 PUSH2 0x100 EXP SWAP1 DIV PUSH1 0xFF AND PUSH2 0x3CF JUMPI PUSH1 0x40 MLOAD PUSH32 0x8C379A000000000000000000000000000000000000000000000000000000000 DUP2 MSTORE PUSH1 0x4 ADD PUSH2 0x3C6 SWAP1 PUSH2 0x201E JUMP JUMPDEST PUSH1 0x40 MLOAD DUP1 SWAP2 SUB SWAP1 REVERT JUMPDEST PUSH1 0x3 PUSH1 0x0 CALLER PUSH20 0xFFFFFFFFFFFFFFFFFFFFFFFFFFFFFFFFFFFFFFFF AND PUSH20 0xFFFFFFFFFFFFFFFFFFFFFFFFFFFFFFFFFFFFFFFF AND DUP2 MSTORE PUSH1 0x20 ADD SWAP1 DUP2 MSTORE PUSH1 0x20 ADD PUSH1 0x0 KECCAK256 DUP3 PUSH1 0x40 MLOAD PUSH2 0x41C SWAP2 SWAP1 PUSH2 0x1E52 JUMP JUMPDEST SWAP1 DUP2 MSTORE PUSH1 0x20 ADD PUSH1 0x40 MLOAD DUP1 SWAP2 SUB SWAP1 KECCAK256 PUSH1 0x0 SWAP1 SLOAD SWAP1 PUSH2 0x100 EXP SWAP1 DIV PUSH1 0xFF AND ISZERO PUSH2 0x478 JUMPI PUSH1 0x40 MLOAD PUSH32 0x8C379A000000000000000000000000000000000000000000000000000000000 DUP2 MSTORE PUSH1 0x4 ADD PUSH2 0x46F SWAP1 PUSH2 0x1FFE JUMP JUMPDEST PUSH1 0x40 MLOAD DUP1 SWAP2 SUB SWAP1 REVERT JUMPDEST PUSH1 0x0 PUSH1 0x40 MLOAD DUP1 PUSH1 0x80 ADD PUSH1 0x40 MSTORE DUP1 CALLER PUSH20 0xFFFFFFFFFFFFFFFFFFFFFFFFFFFFFFFFFFFFFFFF AND DUP2 MSTORE PUSH1 0x20 ADD DUP5 DUP2 MSTORE PUSH1 0x20 ADD TIMESTAMP DUP2 MSTORE PUSH1 0x20 ADD DUP4 ISZERO ISZERO DUP2 MSTORE POP SWAP1 POP PUSH1 0x1 DUP4 PUSH1 0x40 MLOAD PUSH2 0x4C5 SWAP2 SWAP1 PUSH2 0x1E52 JUMP JUMPDEST SWAP1 DUP2 MSTORE PUSH1 0x20 ADD PUSH1 0x40 MLOAD DUP1 SWAP2 SUB SWAP1 KECCAK256 DUP2 SWAP1 DUP1 PUSH1 0x1 DUP2 SLOAD ADD DUP1 DUP3 SSTORE DUP1 SWAP2 POP POP PUSH1 0x1 SWAP1 SUB SWAP1 PUSH1 0x0 MSTORE PUSH1 0x20 PUSH1 0x0 KECCAK256 SWAP1 PUSH1 0x4 MUL ADD PUSH1 0x0 SWAP1 SWAP2 SWAP1 SWAP2 SWAP1 SWAP2 POP PUSH1 0x0 DUP3 ADD MLOAD DUP2 PUSH1 0x0 ADD PUSH1 0x0 PUSH2 0x100 EXP DUP2 SLOAD DUP2 PUSH20 0xFFFFFFFFFFFFFFFFFFFFFFFFFFFFFFFFFFFFFFFF MUL NOT AND SWAP1 DUP4 PUSH20 0xFFFFFFFFFFFFFFFFFFFFFFFFFFFFFFFFFFFFFFFF AND MUL OR SWAP1 SSTORE POP PUSH1 0x20 DUP3 ADD MLOAD DUP2 PUSH1 0x1 ADD SWAP1 DUP1 MLOAD SWAP1 PUSH1 0x20 ADD SWAP1 PUSH2 0x560 SWAP3 SWAP2 SWAP1 PUSH2 0x16A3 JUMP JUMPDEST POP PUSH1 0x40 DUP3 ADD MLOAD DUP2 PUSH1 0x2 ADD SSTORE PUSH1 0x60 DUP3 ADD MLOAD DUP2 PUSH1 0x3 ADD PUSH1 0x0 PUSH2 0x100 EXP DUP2 SLOAD DUP2 PUSH1 0xFF MUL NOT AND SWAP1 DUP4 ISZERO ISZERO MUL OR SWAP1 SSTORE POP POP POP PUSH1 0x1 PUSH1 0x3 PUSH1 0x0 CALLER PUSH20 0xFFFFFFFFFFFFFFFFFFFFFFFFFFFFFFFFFFFFFFFF AND PUSH20 0xFFFFFFFFFFFFFFFFFFFFFFFFFFFFFFFFFFFFFFFF AND DUP2 MSTORE PUSH1 0x20 ADD SWAP1 DUP2 MSTORE PUSH1 0x20 ADD PUSH1 0x0 KECCAK256 DUP5 PUSH1 0x40 MLOAD PUSH2 0x5DC SWAP2 SWAP1 PUSH2 0x1E52 JUMP JUMPDEST SWAP1 DUP2 MSTORE PUSH1 0x20 ADD PUSH1 0x40 MLOAD DUP1 SWAP2 SUB SWAP1 KECCAK256 PUSH1 0x0 PUSH2 0x100 EXP DUP2 SLOAD DUP2 PUSH1 0xFF MUL NOT AND SWAP1 DUP4 ISZERO ISZERO MUL OR SWAP1 SSTORE POP DUP2 ISZERO PUSH2 0x63F JUMPI PUSH1 0x0 DUP4 PUSH1 0x40 MLOAD PUSH2 0x617 SWAP2 SWAP1 PUSH2 0x1E52 JUMP JUMPDEST SWAP1 DUP2 MSTORE PUSH1 0x20 ADD PUSH1 0x40 MLOAD DUP1 SWAP2 SUB SWAP1 KECCAK256 PUSH1 0x4 ADD PUSH1 0x0 DUP2 SLOAD DUP1 SWAP3 SWAP2 SWAP1 PUSH2 0x639 SWAP1 PUSH2 0x232A JUMP JUMPDEST SWAP2 SWAP1 POP SSTORE POP JUMPDEST CALLER PUSH20 0xFFFFFFFFFFFFFFFFFFFFFFFFFFFFFFFFFFFFFFFF AND DUP4 PUSH1 0x40 MLOAD PUSH2 0x664 SWAP2 SWAP1 PUSH2 0x1E52 JUMP JUMPDEST PUSH1 0x40 MLOAD DUP1 SWAP2 SUB SWAP1 KECCAK256 PUSH32 0x198E3ED8D34BB0748A994AA3DEC83BE23391B16A3539119F912746564BD35533 DUP5 TIMESTAMP PUSH1 0x40 MLOAD PUSH2 0x69D SWAP3 SWAP2 SWAP1 PUSH2 0x1F14 JUMP JUMPDEST PUSH1 0x40 MLOAD DUP1 SWAP2 SUB SWAP1 LOG3 POP POP POP JUMP JUMPDEST PUSH1 0x0 DUP1 DUP3 PUSH1 0x40 MLOAD PUSH2 0x6BB SWAP2 SWAP1 PUSH2 0x1E52 JUMP JUMPDEST SWAP1 DUP2 MSTORE PUSH1 0x20 ADD PUSH1 0x40 MLOAD DUP1 SWAP2 SUB SWAP1 KECCAK256 PUSH1 0x5 ADD PUSH1 0x0 SWAP1 SLOAD SWAP1 PUSH2 0x100 EXP SWAP1 DIV PUSH1 0xFF AND PUSH2 0x719 JUMPI PUSH1 0x40 MLOAD PUSH32 0x8C379A000000000000000000000000000000000000000000000000000000000 DUP2 MSTORE PUSH1 0x4 ADD PUSH2 0x710 SWAP1 PUSH2 0x201E JUMP JUMPDEST PUSH1 0x40 MLOAD DUP1 SWAP2 SUB SWAP1 REVERT JUMPDEST PUSH1 0x0 DUP3 PUSH1 0x40 MLOAD PUSH2 0x729 SWAP2 SWAP1 PUSH2 0x1E52 JUMP JUMPDEST SWAP1 DUP2 MSTORE PUSH1 0x20 ADD PUSH1 0x40 MLOAD DUP1 SWAP2 SUB SWAP1 KECCAK256 PUSH1 0x4 ADD SLOAD SWAP1 POP SWAP2 SWAP1 POP JUMP JUMPDEST PUSH1 0x2 PUSH1 0x20 MSTORE DUP2 PUSH1 0x0 MSTORE PUSH1 0x40 PUSH1 0x0 KECCAK256 DUP2 DUP2 SLOAD DUP2 LT PUSH2 0x75E JUMPI PUSH1 0x0 DUP1 REVERT JUMPDEST SWAP1 PUSH1 0x0 MSTORE PUSH1 0x20 PUSH1 0x0 KECCAK256 ADD PUSH1 0x0 SWAP2 POP SWAP2 POP POP DUP1 SLOAD PUSH2 0x77A SWAP1 PUSH2 0x22F8 JUMP JUMPDEST DUP1 PUSH1 0x1F ADD PUSH1 0x20 DUP1 SWAP2 DIV MUL PUSH1 0x20 ADD PUSH1 0x40 MLOAD SWAP1 DUP2 ADD PUSH1 0x40 MSTORE DUP1 SWAP3 SWAP2 SWAP1 DUP2 DUP2 MSTORE PUSH1 0x20 ADD DUP3 DUP1 SLOAD PUSH2 0x7A6 SWAP1 PUSH2 0x22F8 JUMP JUMPDEST DUP1 ISZERO PUSH2 0x7F3 JUMPI DUP1 PUSH1 0x1F LT PUSH2 0x7C8 JUMPI PUSH2 0x100 DUP1 DUP4 SLOAD DIV MUL DUP4 MSTORE SWAP2 PUSH1 0x20 ADD SWAP2 PUSH2 0x7F3 JUMP JUMPDEST DUP3 ADD SWAP2 SWAP1 PUSH1 0x0 MSTORE PUSH1 0x20 PUSH1 0x0 KECCAK256 SWAP1 JUMPDEST DUP2 SLOAD DUP2 MSTORE SWAP1 PUSH1 0x1 ADD SWAP1 PUSH1 0x20 ADD DUP1 DUP4 GT PUSH2 0x7D6 JUMPI DUP3 SWAP1 SUB PUSH1 0x1F AND DUP3 ADD SWAP2 JUMPDEST POP POP POP POP POP DUP2 JUMP JUMPDEST PUSH1 0x4 DUP2 DUP2 SLOAD DUP2 LT PUSH2 0x80B JUMPI PUSH1 0x0 DUP1 REVERT JUMPDEST SWAP1 PUSH1 0x0 MSTORE PUSH1 0x20 PUSH1 0x0 KECCAK256 ADD PUSH1 0x0 SWAP2 POP SWAP1 POP DUP1 SLOAD PUSH2 0x826 SWAP1 PUSH2 0x22F8 JUMP JUMPDEST DUP1 PUSH1 0x1F ADD PUSH1 0x20 DUP1 SWAP2 DIV MUL PUSH1 0x20 ADD PUSH1 0x40 MLOAD SWAP1 DUP2 ADD PUSH1 0x40 MSTORE DUP1 SWAP3 SWAP2 SWAP1 DUP2 DUP2 MSTORE PUSH1 0x20 ADD DUP3 DUP1 SLOAD PUSH2 0x852 SWAP1 PUSH2 0x22F8 JUMP JUMPDEST DUP1 ISZERO PUSH2 0x89F JUMPI DUP1 PUSH1 0x1F LT PUSH2 0x874 JUMPI PUSH2 0x100 DUP1 DUP4 SLOAD DIV MUL DUP4 MSTORE SWAP2 PUSH1 0x20 ADD SWAP2 PUSH2 0x89F JUMP JUMPDEST DUP3 ADD SWAP2 SWAP1 PUSH1 0x0 MSTORE PUSH1 0x20 PUSH1 0x0 KECCAK256 SWAP1 JUMPDEST DUP2 SLOAD DUP2 MSTORE SWAP1 PUSH1 0x1 ADD SWAP1 PUSH1 0x20 ADD DUP1 DUP4 GT PUSH2 0x882 JUMPI DUP3 SWAP1 SUB PUSH1 0x1F AND DUP3 ADD SWAP2 JUMPDEST POP POP POP POP POP DUP2 JUMP JUMPDEST PUSH1 0x60 PUSH1 0x2 PUSH1 0x0 DUP4 PUSH20 0xFFFFFFFFFFFFFFFFFFFFFFFFFFFFFFFFFFFFFFFF AND PUSH20 0xFFFFFFFFFFFFFFFFFFFFFFFFFFFFFFFFFFFFFFFF AND DUP2 MSTORE PUSH1 0x20 ADD SWAP1 DUP2 MSTORE PUSH1 0x20 ADD PUSH1 0x0 KECCAK256 DUP1 SLOAD DUP1 PUSH1 0x20 MUL PUSH1 0x20 ADD PUSH1 0x40 MLOAD SWAP1 DUP2 ADD PUSH1 0x40 MSTORE DUP1 SWAP3 SWAP2 SWAP1 DUP2 DUP2 MSTORE PUSH1 0x20 ADD PUSH1 0x0 SWAP1 JUMPDEST DUP3 DUP3 LT ISZERO PUSH2 0x9B4 JUMPI DUP4 DUP3 SWAP1 PUSH1 0x0 MSTORE PUSH1 0x20 PUSH1 0x0 KECCAK256 ADD DUP1 SLOAD PUSH2 0x927 SWAP1 PUSH2 0x22F8 JUMP JUMPDEST DUP1 PUSH1 0x1F ADD PUSH1 0x20 DUP1 SWAP2 DIV MUL PUSH1 0x20 ADD PUSH1 0x40 MLOAD SWAP1 DUP2 ADD PUSH1 0x40 MSTORE DUP1 SWAP3 SWAP2 SWAP1 DUP2 DUP2 MSTORE PUSH1 0x20 ADD DUP3 DUP1 SLOAD PUSH2 0x953 SWAP1 PUSH2 0x22F8 JUMP JUMPDEST DUP1 ISZERO PUSH2 0x9A0 JUMPI DUP1 PUSH1 0x1F LT PUSH2 0x975 JUMPI PUSH2 0x100 DUP1 DUP4 SLOAD DIV MUL DUP4 MSTORE SWAP2 PUSH1 0x20 ADD SWAP2 PUSH2 0x9A0 JUMP JUMPDEST DUP3 ADD SWAP2 SWAP1 PUSH1 0x0 MSTORE PUSH1 0x20 PUSH1 0x0 KECCAK256 SWAP1 JUMPDEST DUP2 SLOAD DUP2 MSTORE SWAP1 PUSH1 0x1 ADD SWAP1 PUSH1 0x20 ADD DUP1 DUP4 GT PUSH2 0x983 JUMPI DUP3 SWAP1 SUB PUSH1 0x1F AND DUP3 ADD SWAP2 JUMPDEST POP POP POP POP POP DUP2 MSTORE PUSH1 0x20 ADD SWAP1 PUSH1 0x1 ADD SWAP1 PUSH2 0x908 JUMP JUMPDEST POP POP POP POP SWAP1 POP SWAP2 SWAP1 POP JUMP JUMPDEST PUSH1 0x0 PUSH1 0x3 PUSH1 0x0 DUP5 PUSH20 0xFFFFFFFFFFFFFFFFFFFFFFFFFFFFFFFFFFFFFFFF AND PUSH20 0xFFFFFFFFFFFFFFFFFFFFFFFFFFFFFFFFFFFFFFFF AND DUP2 MSTORE PUSH1 0x20 ADD SWAP1 DUP2 MSTORE PUSH1 0x20 ADD PUSH1 0x0 KECCAK256 DUP3 PUSH1 0x40 MLOAD PUSH2 0xA0E SWAP2 SWAP1 PUSH2 0x1E52 JUMP JUMPDEST SWAP1 DUP2 MSTORE PUSH1 0x20 ADD PUSH1 0x40 MLOAD DUP1 SWAP2 SUB SWAP1 KECCAK256 PUSH1 0x0 SWAP1 SLOAD SWAP1 PUSH2 0x100 EXP SWAP1 DIV PUSH1 0xFF AND SWAP1 POP SWAP3 SWAP2 POP POP JUMP JUMPDEST PUSH1 0x60 DUP1 PUSH1 0x0 DUP1 PUSH1 0x0 DUP1 PUSH1 0x0 DUP1 DUP9 PUSH1 0x40 MLOAD PUSH2 0xA4C SWAP2 SWAP1 PUSH2 0x1E52 JUMP JUMPDEST SWAP1 DUP2 MSTORE PUSH1 0x20 ADD PUSH1 0x40 MLOAD DUP1 SWAP2 SUB SWAP1 KECCAK256 PUSH1 0x40 MLOAD DUP1 PUSH1 0xC0 ADD PUSH1 0x40 MSTORE SWAP1 DUP2 PUSH1 0x0 DUP3 ADD DUP1 SLOAD PUSH2 0xA75 SWAP1 PUSH2 0x22F8 JUMP JUMPDEST DUP1 PUSH1 0x1F ADD PUSH1 0x20 DUP1 SWAP2 DIV MUL PUSH1 0x20 ADD PUSH1 0x40 MLOAD SWAP1 DUP2 ADD PUSH1 0x40 MSTORE DUP1 SWAP3 SWAP2 SWAP1 DUP2 DUP2 MSTORE PUSH1 0x20 ADD DUP3 DUP1 SLOAD PUSH2 0xAA1 SWAP1 PUSH2 0x22F8 JUMP JUMPDEST DUP1 ISZERO PUSH2 0xAEE JUMPI DUP1 PUSH1 0x1F LT PUSH2 0xAC3 JUMPI PUSH2 0x100 DUP1 DUP4 SLOAD DIV MUL DUP4 MSTORE SWAP2 PUSH1 0x20 ADD SWAP2 PUSH2 0xAEE JUMP JUMPDEST DUP3 ADD SWAP2 SWAP1 PUSH1 0x0 MSTORE PUSH1 0x20 PUSH1 0x0 KECCAK256 SWAP1 JUMPDEST DUP2 SLOAD DUP2 MSTORE SWAP1 PUSH1 0x1 ADD SWAP1 PUSH1 0x20 ADD DUP1 DUP4 GT PUSH2 0xAD1 JUMPI DUP3 SWAP1 SUB PUSH1 0x1F AND DUP3 ADD SWAP2 JUMPDEST POP POP POP POP POP DUP2 MSTORE PUSH1 0x20 ADD PUSH1 0x1 DUP3 ADD DUP1 SLOAD PUSH2 0xB07 SWAP1 PUSH2 0x22F8 JUMP JUMPDEST DUP1 PUSH1 0x1F ADD PUSH1 0x20 DUP1 SWAP2 DIV MUL PUSH1 0x20 ADD PUSH1 0x40 MLOAD SWAP1 DUP2 ADD PUSH1 0x40 MSTORE DUP1 SWAP3 SWAP2 SWAP1 DUP2 DUP2 MSTORE PUSH1 0x20 ADD DUP3 DUP1 SLOAD PUSH2 0xB33 SWAP1 PUSH2 0x22F8 JUMP JUMPDEST DUP1 ISZERO PUSH2 0xB80 JUMPI DUP1 PUSH1 0x1F LT PUSH2 0xB55 JUMPI PUSH2 0x100 DUP1 DUP4 SLOAD DIV MUL DUP4 MSTORE SWAP2 PUSH1 0x20 ADD SWAP2 PUSH2 0xB80 JUMP JUMPDEST DUP3 ADD SWAP2 SWAP1 PUSH1 0x0 MSTORE PUSH1 0x20 PUSH1 0x0 KECCAK256 SWAP1 JUMPDEST DUP2 SLOAD DUP2 MSTORE SWAP1 PUSH1 0x1 ADD SWAP1 PUSH1 0x20 ADD DUP1 DUP4 GT PUSH2 0xB63 JUMPI DUP3 SWAP1 SUB PUSH1 0x1F AND DUP3 ADD SWAP2 JUMPDEST POP POP POP POP POP DUP2 MSTORE PUSH1 0x20 ADD PUSH1 0x2 DUP3 ADD PUSH1 0x0 SWAP1 SLOAD SWAP1 PUSH2 0x100 EXP SWAP1 DIV PUSH20 0xFFFFFFFFFFFFFFFFFFFFFFFFFFFFFFFFFFFFFFFF AND PUSH20 0xFFFFFFFFFFFFFFFFFFFFFFFFFFFFFFFFFFFFFFFF AND PUSH20 0xFFFFFFFFFFFFFFFFFFFFFFFFFFFFFFFFFFFFFFFF AND DUP2 MSTORE PUSH1 0x20 ADD PUSH1 0x3 DUP3 ADD SLOAD DUP2 MSTORE PUSH1 0x20 ADD PUSH1 0x4 DUP3 ADD SLOAD DUP2 MSTORE PUSH1 0x20 ADD PUSH1 0x5 DUP3 ADD PUSH1 0x0 SWAP1 SLOAD SWAP1 PUSH2 0x100 EXP SWAP1 DIV PUSH1 0xFF AND ISZERO ISZERO ISZERO ISZERO DUP2 MSTORE POP POP SWAP1 POP DUP1 PUSH1 0x0 ADD MLOAD DUP2 PUSH1 0x20 ADD MLOAD DUP3 PUSH1 0x40 ADD MLOAD DUP4 PUSH1 0x60 ADD MLOAD DUP5 PUSH1 0x80 ADD MLOAD DUP6 PUSH1 0xA0 ADD MLOAD SWAP7 POP SWAP7 POP SWAP7 POP SWAP7 POP SWAP7 POP SWAP7 POP POP SWAP2 SWAP4 SWAP6 POP SWAP2 SWAP4 SWAP6 JUMP JUMPDEST PUSH1 0x1 DUP3 DUP1 MLOAD PUSH1 0x20 DUP2 ADD DUP3 ADD DUP1 MLOAD DUP5 DUP3 MSTORE PUSH1 0x20 DUP4 ADD PUSH1 0x20 DUP6 ADD KECCAK256 DUP2 DUP4 MSTORE DUP1 SWAP6 POP POP POP POP POP POP DUP2 DUP2 SLOAD DUP2 LT PUSH2 0xC76 JUMPI PUSH1 0x0 DUP1 REVERT JUMPDEST SWAP1 PUSH1 0x0 MSTORE PUSH1 0x20 PUSH1 0x0 KECCAK256 SWAP1 PUSH1 0x4 MUL ADD PUSH1 0x0 SWAP2 POP SWAP2 POP POP DUP1 PUSH1 0x0 ADD PUSH1 0x0 SWAP1 SLOAD SWAP1 PUSH2 0x100 EXP SWAP1 DIV PUSH20 0xFFFFFFFFFFFFFFFFFFFFFFFFFFFFFFFFFFFFFFFF AND SWAP1 DUP1 PUSH1 0x1 ADD DUP1 SLOAD PUSH2 0xCC0 SWAP1 PUSH2 0x22F8 JUMP JUMPDEST DUP1 PUSH1 0x1F ADD PUSH1 0x20 DUP1 SWAP2 DIV MUL PUSH1 0x20 ADD PUSH1 0x40 MLOAD SWAP1 DUP2 ADD PUSH1 0x40 MSTORE DUP1 SWAP3 SWAP2 SWAP1 DUP2 DUP2 MSTORE PUSH1 0x20 ADD DUP3 DUP1 SLOAD PUSH2 0xCEC SWAP1 PUSH2 0x22F8 JUMP JUMPDEST DUP1 ISZERO PUSH2 0xD39 JUMPI DUP1 PUSH1 0x1F LT PUSH2 0xD0E JUMPI PUSH2 0x100 DUP1 DUP4 SLOAD DIV MUL DUP4 MSTORE SWAP2 PUSH1 0x20 ADD SWAP2 PUSH2 0xD39 JUMP JUMPDEST DUP3 ADD SWAP2 SWAP1 PUSH1 0x0 MSTORE PUSH1 0x20 PUSH1 0x0 KECCAK256 SWAP1 JUMPDEST DUP2 SLOAD DUP2 MSTORE SWAP1 PUSH1 0x1 ADD SWAP1 PUSH1 0x20 ADD DUP1 DUP4 GT PUSH2 0xD1C JUMPI DUP3 SWAP1 SUB PUSH1 0x1F AND DUP3 ADD SWAP2 JUMPDEST POP POP POP POP POP SWAP1 DUP1 PUSH1 0x2 ADD SLOAD SWAP1 DUP1 PUSH1 0x3 ADD PUSH1 0x0 SWAP1 SLOAD SWAP1 PUSH2 0x100 EXP SWAP1 DIV PUSH1 0xFF AND SWAP1 POP DUP5 JUMP JUMPDEST PUSH1 0x0 DUP3 MLOAD GT PUSH2 0xDA0 JUMPI PUSH1 0x40 MLOAD PUSH32 0x8C379A000000000000000000000000000000000000000000000000000000000 DUP2 MSTORE PUSH1 0x4 ADD PUSH2 0xD97 SWAP1 PUSH2 0x209E JUMP JUMPDEST PUSH1 0x40 MLOAD DUP1 SWAP2 SUB SWAP1 REVERT JUMPDEST PUSH1 0x0 DUP2 MLOAD GT PUSH2 0xDE4 JUMPI PUSH1 0x40 MLOAD PUSH32 0x8C379A000000000000000000000000000000000000000000000000000000000 DUP2 MSTORE PUSH1 0x4 ADD PUSH2 0xDDB SWAP1 PUSH2 0x203E JUMP JUMPDEST PUSH1 0x40 MLOAD DUP1 SWAP2 SUB SWAP1 REVERT JUMPDEST PUSH1 0x0 DUP3 PUSH1 0x40 MLOAD PUSH2 0xDF4 SWAP2 SWAP1 PUSH2 0x1E52 JUMP JUMPDEST SWAP1 DUP2 MSTORE PUSH1 0x20 ADD PUSH1 0x40 MLOAD DUP1 SWAP2 SUB SWAP1 KECCAK256 PUSH1 0x5 ADD PUSH1 0x0 SWAP1 SLOAD SWAP1 PUSH2 0x100 EXP SWAP1 DIV PUSH1 0xFF AND ISZERO PUSH2 0xE53 JUMPI PUSH1 0x40 MLOAD PUSH32 0x8C379A000000000000000000000000000000000000000000000000000000000 DUP2 MSTORE PUSH1 0x4 ADD PUSH2 0xE4A SWAP1 PUSH2 0x205E JUMP JUMPDEST PUSH1 0x40 MLOAD DUP1 SWAP2 SUB SWAP1 REVERT JUMPDEST PUSH1 0x40 MLOAD DUP1 PUSH1 0xC0 ADD PUSH1 0x40 MSTORE DUP1 DUP4 DUP2 MSTORE PUSH1 0x20 ADD DUP3 DUP2 MSTORE PUSH1 0x20 ADD CALLER PUSH20 0xFFFFFFFFFFFFFFFFFFFFFFFFFFFFFFFFFFFFFFFF AND DUP2 MSTORE PUSH1 0x20 ADD TIMESTAMP DUP2 MSTORE PUSH1 0x20 ADD PUSH1 0x0 DUP2 MSTORE PUSH1 0x20 ADD PUSH1 0x1 ISZERO ISZERO DUP2 MSTORE POP PUSH1 0x0 DUP4 PUSH1 0x40 MLOAD PUSH2 0xEAA SWAP2 SWAP1 PUSH2 0x1E52 JUMP JUMPDEST SWAP1 DUP2 MSTORE PUSH1 0x20 ADD PUSH1 0x40 MLOAD DUP1 SWAP2 SUB SWAP1 KECCAK256 PUSH1 0x0 DUP3 ADD MLOAD DUP2 PUSH1 0x0 ADD SWAP1 DUP1 MLOAD SWAP1 PUSH1 0x20 ADD SWAP1 PUSH2 0xED4 SWAP3 SWAP2 SWAP1 PUSH2 0x16A3 JUMP JUMPDEST POP PUSH1 0x20 DUP3 ADD MLOAD DUP2 PUSH1 0x1 ADD SWAP1 DUP1 MLOAD SWAP1 PUSH1 0x20 ADD SWAP1 PUSH2 0xEF1 SWAP3 SWAP2 SWAP1 PUSH2 0x16A3 JUMP JUMPDEST POP PUSH1 0x40 DUP3 ADD MLOAD DUP2 PUSH1 0x2 ADD PUSH1 0x0 PUSH2 0x100 EXP DUP2 SLOAD DUP2 PUSH20 0xFFFFFFFFFFFFFFFFFFFFFFFFFFFFFFFFFFFFFFFF MUL NOT AND SWAP1 DUP4 PUSH20 0xFFFFFFFFFFFFFFFFFFFFFFFFFFFFFFFFFFFFFFFF AND MUL OR SWAP1 SSTORE POP PUSH1 0x60 DUP3 ADD MLOAD DUP2 PUSH1 0x3 ADD SSTORE PUSH1 0x80 DUP3 ADD MLOAD DUP2 PUSH1 0x4 ADD SSTORE PUSH1 0xA0 DUP3 ADD MLOAD DUP2 PUSH1 0x5 ADD PUSH1 0x0 PUSH2 0x100 EXP DUP2 SLOAD DUP2 PUSH1 0xFF MUL NOT AND SWAP1 DUP4 ISZERO ISZERO MUL OR SWAP1 SSTORE POP SWAP1 POP POP PUSH1 0x4 DUP3 SWAP1 DUP1 PUSH1 0x1 DUP2 SLOAD ADD DUP1 DUP3 SSTORE DUP1 SWAP2 POP POP PUSH1 0x1 SWAP1 SUB SWAP1 PUSH1 0x0 MSTORE PUSH1 0x20 PUSH1 0x0 KECCAK256 ADD PUSH1 0x0 SWAP1 SWAP2 SWAP1 SWAP2 SWAP1 SWAP2 POP SWAP1 DUP1 MLOAD SWAP1 PUSH1 0x20 ADD SWAP1 PUSH2 0xFAB SWAP3 SWAP2 SWAP1 PUSH2 0x16A3 JUMP JUMPDEST POP PUSH1 0x2 PUSH1 0x0 CALLER PUSH20 0xFFFFFFFFFFFFFFFFFFFFFFFFFFFFFFFFFFFFFFFF AND PUSH20 0xFFFFFFFFFFFFFFFFFFFFFFFFFFFFFFFFFFFFFFFF AND DUP2 MSTORE PUSH1 0x20 ADD SWAP1 DUP2 MSTORE PUSH1 0x20 ADD PUSH1 0x0 KECCAK256 DUP3 SWAP1 DUP1 PUSH1 0x1 DUP2 SLOAD ADD DUP1 DUP3 SSTORE DUP1 SWAP2 POP POP PUSH1 0x1 SWAP1 SUB SWAP1 PUSH1 0x0 MSTORE PUSH1 0x20 PUSH1 0x0 KECCAK256 ADD PUSH1 0x0 SWAP1 SWAP2 SWAP1 SWAP2 SWAP1 SWAP2 POP SWAP1 DUP1 MLOAD SWAP1 PUSH1 0x20 ADD SWAP1 PUSH2 0x1024 SWAP3 SWAP2 SWAP1 PUSH2 0x16A3 JUMP JUMPDEST POP CALLER PUSH20 0xFFFFFFFFFFFFFFFFFFFFFFFFFFFFFFFFFFFFFFFF AND DUP3 PUSH1 0x40 MLOAD PUSH2 0x104A SWAP2 SWAP1 PUSH2 0x1E52 JUMP JUMPDEST PUSH1 0x40 MLOAD DUP1 SWAP2 SUB SWAP1 KECCAK256 PUSH32 0x8D9E646B7BE50523DBF45D232DEA79BF57ED2EA290147F46D64D74918BCCE742 DUP4 TIMESTAMP PUSH1 0x40 MLOAD PUSH2 0x1083 SWAP3 SWAP2 SWAP1 PUSH2 0x1FCE JUMP JUMPDEST PUSH1 0x40 MLOAD DUP1 SWAP2 SUB SWAP1 LOG3 POP POP JUMP JUMPDEST PUSH1 0x60 PUSH1 0x4 DUP1 SLOAD SWAP1 POP DUP4 LT PUSH2 0x10D8 JUMPI PUSH1 0x40 MLOAD PUSH32 0x8C379A000000000000000000000000000000000000000000000000000000000 DUP2 MSTORE PUSH1 0x4 ADD PUSH2 0x10CF SWAP1 PUSH2 0x207E JUMP JUMPDEST PUSH1 0x40 MLOAD DUP1 SWAP2 SUB SWAP1 REVERT JUMPDEST PUSH1 0x0 DUP3 DUP5 PUSH2 0x10E6 SWAP2 SWAP1 PUSH2 0x21E4 JUMP JUMPDEST SWAP1 POP PUSH1 0x4 DUP1 SLOAD SWAP1 POP DUP2 GT ISZERO PUSH2 0x10FE JUMPI PUSH1 0x4 DUP1 SLOAD SWAP1 POP SWAP1 POP JUMPDEST PUSH1 0x0 DUP5 DUP3 PUSH2 0x110C SWAP2 SWAP1 PUSH2 0x223A JUMP JUMPDEST PUSH8 0xFFFFFFFFFFFFFFFF DUP2 GT ISZERO PUSH2 0x114B JUMPI PUSH32 0x4E487B7100000000000000000000000000000000000000000000000000000000 PUSH1 0x0 MSTORE PUSH1 0x41 PUSH1 0x4 MSTORE PUSH1 0x24 PUSH1 0x0 REVERT JUMPDEST PUSH1 0x40 MLOAD SWAP1 DUP1 DUP3 MSTORE DUP1 PUSH1 0x20 MUL PUSH1 0x20 ADD DUP3 ADD PUSH1 0x40 MSTORE DUP1 ISZERO PUSH2 0x117E JUMPI DUP2 PUSH1 0x20 ADD JUMPDEST PUSH1 0x60 DUP2 MSTORE PUSH1 0x20 ADD SWAP1 PUSH1 0x1 SWAP1 SUB SWAP1 DUP2 PUSH2 0x1169 JUMPI SWAP1 POP JUMPDEST POP SWAP1 POP PUSH1 0x0 DUP6 SWAP1 POP JUMPDEST DUP3 DUP2 LT ISZERO PUSH2 0x12BE JUMPI PUSH1 0x4 DUP2 DUP2 SLOAD DUP2 LT PUSH2 0x11C9 JUMPI PUSH32 0x4E487B7100000000000000000000000000000000000000000000000000000000 PUSH1 0x0 MSTORE PUSH1 0x32 PUSH1 0x4 MSTORE PUSH1 0x24 PUSH1 0x0 REVERT JUMPDEST SWAP1 PUSH1 0x0 MSTORE PUSH1 0x20 PUSH1 0x0 KECCAK256 ADD DUP1 SLOAD PUSH2 0x11DE SWAP1 PUSH2 0x22F8 JUMP JUMPDEST DUP1 PUSH1 0x1F ADD PUSH1 0x20 DUP1 SWAP2 DIV MUL PUSH1 0x20 ADD PUSH1 0x40 MLOAD SWAP1 DUP2 ADD PUSH1 0x40 MSTORE DUP1 SWAP3 SWAP2 SWAP1 DUP2 DUP2 MSTORE PUSH1 0x20 ADD DUP3 DUP1 SLOAD PUSH2 0x120A SWAP1 PUSH2 0x22F8 JUMP JUMPDEST DUP1 ISZERO PUSH2 0x1257 JUMPI DUP1 PUSH1 0x1F LT PUSH2 0x122C JUMPI PUSH2 0x100 DUP1 DUP4 SLOAD DIV MUL DUP4 MSTORE SWAP2 PUSH1 0x20 ADD SWAP2 PUSH2 0x1257 JUMP JUMPDEST DUP3 ADD SWAP2 SWAP1 PUSH1 0x0 MSTORE PUSH1 0x20 PUSH1 0x0 KECCAK256 SWAP1 JUMPDEST DUP2 SLOAD DUP2 MSTORE SWAP1 PUSH1 0x1 ADD SWAP1 PUSH1 0x20 ADD DUP1 DUP4 GT PUSH2 0x123A JUMPI DUP3 SWAP1 SUB PUSH1 0x1F AND DUP3 ADD SWAP2 JUMPDEST POP POP POP POP POP DUP3 DUP8 DUP4 PUSH2 0x1269 SWAP2 SWAP1 PUSH2 0x223A JUMP JUMPDEST DUP2 MLOAD DUP2 LT PUSH2 0x12A0 JUMPI PUSH32 0x4E487B7100000000000000000000000000000000000000000000000000000000 PUSH1 0x0 MSTORE PUSH1 0x32 PUSH1 0x4 MSTORE PUSH1 0x24 PUSH1 0x0 REVERT JUMPDEST PUSH1 0x20 MUL PUSH1 0x20 ADD ADD DUP2 SWAP1 MSTORE POP DUP1 DUP1 PUSH2 0x12B6 SWAP1 PUSH2 0x232A JUMP JUMPDEST SWAP2 POP POP PUSH2 0x1187 JUMP JUMPDEST POP DUP1 SWAP3 POP POP POP SWAP3 SWAP2 POP POP JUMP JUMPDEST PUSH1 0x3 PUSH1 0x20 MSTORE DUP2 PUSH1 0x0 MSTORE PUSH1 0x40 PUSH1 0x0 KECCAK256 DUP2 DUP1 MLOAD PUSH1 0x20 DUP2 ADD DUP3 ADD DUP1 MLOAD DUP5 DUP3 MSTORE PUSH1 0x20 DUP4 ADD PUSH1 0x20 DUP6 ADD KECCAK256 DUP2 DUP4 MSTORE DUP1 SWAP6 POP POP POP POP POP POP PUSH1 0x0 SWAP2 POP SWAP2 POP SWAP1 SLOAD SWAP1 PUSH2 0x100 EXP SWAP1 DIV PUSH1 0xFF AND DUP2 JUMP JUMPDEST PUSH1 0x0 DUP2 DUP1 MLOAD PUSH1 0x20 DUP2 ADD DUP3 ADD DUP1 MLOAD DUP5 DUP3 MSTORE PUSH1 0x20 DUP4 ADD PUSH1 0x20 DUP6 ADD KECCAK256 DUP2 DUP4 MSTORE DUP1 SWAP6 POP POP POP POP POP POP PUSH1 0x0 SWAP2 POP SWAP1 POP DUP1 PUSH1 0x0 ADD DUP1 SLOAD PUSH2 0x1348 SWAP1 PUSH2 0x22F8 JUMP JUMPDEST DUP1 PUSH1 0x1F ADD PUSH1 0x20 DUP1 SWAP2 DIV MUL PUSH1 0x20 ADD PUSH1 0x40 MLOAD SWAP1 DUP2 ADD PUSH1 0x40 MSTORE DUP1 SWAP3 SWAP2 SWAP1 DUP2 DUP2 MSTORE PUSH1 0x20 ADD DUP3 DUP1 SLOAD PUSH2 0x1374 SWAP1 PUSH2 0x22F8 JUMP JUMPDEST DUP1 ISZERO PUSH2 0x13C1 JUMPI DUP1 PUSH1 0x1F LT PUSH2 0x1396 JUMPI PUSH2 0x100 DUP1 DUP4 SLOAD DIV MUL DUP4 MSTORE SWAP2 PUSH1 0x20 ADD SWAP2 PUSH2 0x13C1 JUMP JUMPDEST DUP3 ADD SWAP2 SWAP1 PUSH1 0x0 MSTORE PUSH1 0x20 PUSH1 0x0 KECCAK256 SWAP1 JUMPDEST DUP2 SLOAD DUP2 MSTORE SWAP1 PUSH1 0x1 ADD SWAP1 PUSH1 0x20 ADD DUP1 DUP4 GT PUSH2 0x13A4 JUMPI DUP3 SWAP1 SUB PUSH1 0x1F AND DUP3 ADD SWAP2 JUMPDEST POP POP POP POP POP SWAP1 DUP1 PUSH1 0x1 ADD DUP1 SLOAD PUSH2 0x13D6 SWAP1 PUSH2 0x22F8 JUMP JUMPDEST DUP1 PUSH1 0x1F ADD PUSH1 0x20 DUP1 SWAP2 DIV MUL PUSH1 0x20 ADD PUSH1 0x40 MLOAD SWAP1 DUP2 ADD PUSH1 0x40 MSTORE DUP1 SWAP3 SWAP2 SWAP1 DUP2 DUP2 MSTORE PUSH1 0x20 ADD DUP3 DUP1 SLOAD PUSH2 0x1402 SWAP1 PUSH2 0x22F8 JUMP JUMPDEST DUP1 ISZERO PUSH2 0x144F JUMPI DUP1 PUSH1 0x1F LT PUSH2 0x1424 JUMPI PUSH2 0x100 DUP1 DUP4 SLOAD DIV MUL DUP4 MSTORE SWAP2 PUSH1 0x20 ADD SWAP2 PUSH2 0x144F JUMP JUMPDEST DUP3 ADD SWAP2 SWAP1 PUSH1 0x0 MSTORE PUSH1 0x20 PUSH1 0x0 KECCAK256 SWAP1 JUMPDEST DUP2 SLOAD DUP2 MSTORE SWAP1 PUSH1 0x1 ADD SWAP1 PUSH1 0x20 ADD DUP1 DUP4 GT PUSH2 0x1432 JUMPI DUP3 SWAP1 SUB PUSH1 0x1F AND DUP3 ADD SWAP2 JUMPDEST POP POP POP POP POP SWAP1 DUP1 PUSH1 0x2 ADD PUSH1 0x0 SWAP1 SLOAD SWAP1 PUSH2 0x100 EXP SWAP1 DIV PUSH20 0xFFFFFFFFFFFFFFFFFFFFFFFFFFFFFFFFFFFFFFFF AND SWAP1 DUP1 PUSH1 0x3 ADD SLOAD SWAP1 DUP1 PUSH1 0x4 ADD SLOAD SWAP1 DUP1 PUSH1 0x5 ADD PUSH1 0x0 SWAP1 SLOAD SWAP1 PUSH2 0x100 EXP SWAP1 DIV PUSH1 0xFF AND SWAP1 POP DUP7 JUMP JUMPDEST PUSH1 0x0 PUSH1 0x4 DUP1 SLOAD SWAP1 POP SWAP1 POP SWAP1 JUMP JUMPDEST PUSH1 0x60 PUSH1 0x0 DUP3 PUSH1 0x40 MLOAD PUSH2 0x14BD SWAP2 SWAP1 PUSH2 0x1E52 JUMP JUMPDEST SWAP1 DUP2 MSTORE PUSH1 0x20 ADD PUSH1 0x40 MLOAD DUP1 SWAP2 SUB SWAP1 KECCAK256 PUSH1 0x5 ADD PUSH1 0x0 SWAP1 SLOAD SWAP1 PUSH2 0x100 EXP SWAP1 DIV PUSH1 0xFF AND PUSH2 0x151B JUMPI PUSH1 0x40 MLOAD PUSH32 0x8C379A000000000000000000000000000000000000000000000000000000000 DUP2 MSTORE PUSH1 0x4 ADD PUSH2 0x1512 SWAP1 PUSH2 0x201E JUMP JUMPDEST PUSH1 0x40 MLOAD DUP1 SWAP2 SUB SWAP1 REVERT JUMPDEST PUSH1 0x1 DUP3 PUSH1 0x40 MLOAD PUSH2 0x152B SWAP2 SWAP1 PUSH2 0x1E52 JUMP JUMPDEST SWAP1 DUP2 MSTORE PUSH1 0x20 ADD PUSH1 0x40 MLOAD DUP1 SWAP2 SUB SWAP1 KECCAK256 DUP1 SLOAD DUP1 PUSH1 0x20 MUL PUSH1 0x20 ADD PUSH1 0x40 MLOAD SWAP1 DUP2 ADD PUSH1 0x40 MSTORE DUP1 SWAP3 SWAP2 SWAP1 DUP2 DUP2 MSTORE PUSH1 0x20 ADD PUSH1 0x0 SWAP1 JUMPDEST DUP3 DUP3 LT ISZERO PUSH2 0x1698 JUMPI DUP4 DUP3 SWAP1 PUSH1 0x0 MSTORE PUSH1 0x20 PUSH1 0x0 KECCAK256 SWAP1 PUSH1 0x4 MUL ADD PUSH1 0x40 MLOAD DUP1 PUSH1 0x80 ADD PUSH1 0x40 MSTORE SWAP1 DUP2 PUSH1 0x0 DUP3 ADD PUSH1 0x0 SWAP1 SLOAD SWAP1 PUSH2 0x100 EXP SWAP1 DIV PUSH20 0xFFFFFFFFFFFFFFFFFFFFFFFFFFFFFFFFFFFFFFFF AND PUSH20 0xFFFFFFFFFFFFFFFFFFFFFFFFFFFFFFFFFFFFFFFF AND PUSH20 0xFFFFFFFFFFFFFFFFFFFFFFFFFFFFFFFFFFFFFFFF AND DUP2 MSTORE PUSH1 0x20 ADD PUSH1 0x1 DUP3 ADD DUP1 SLOAD PUSH2 0x15E2 SWAP1 PUSH2 0x22F8 JUMP JUMPDEST DUP1 PUSH1 0x1F ADD PUSH1 0x20 DUP1 SWAP2 DIV MUL PUSH1 0x20 ADD PUSH1 0x40 MLOAD SWAP1 DUP2 ADD PUSH1 0x40 MSTORE DUP1 SWAP3 SWAP2 SWAP1 DUP2 DUP2 MSTORE PUSH1 0x20 ADD DUP3 DUP1 SLOAD PUSH2 0x160E SWAP1 PUSH2 0x22F8 JUMP JUMPDEST DUP1 ISZERO PUSH2 0x165B JUMPI DUP1 PUSH1 0x1F LT PUSH2 0x1630 JUMPI PUSH2 0x100 DUP1 DUP4 SLOAD DIV MUL DUP4 MSTORE SWAP2 PUSH1 0x20 ADD SWAP2 PUSH2 0x165B JUMP JUMPDEST DUP3 ADD SWAP2 SWAP1 PUSH1 0x0 MSTORE PUSH1 0x20 PUSH1 0x0 KECCAK256 SWAP1 JUMPDEST DUP2 SLOAD DUP2 MSTORE SWAP1 PUSH1 0x1 ADD SWAP1 PUSH1 0x20 ADD DUP1 DUP4 GT PUSH2 0x163E JUMPI DUP3 SWAP1 SUB PUSH1 0x1F AND DUP3 ADD SWAP2 JUMPDEST POP POP POP POP POP DUP2 MSTORE PUSH1 0x20 ADD PUSH1 0x2 DUP3 ADD SLOAD DUP2 MSTORE PUSH1 0x20 ADD PUSH1 0x3 DUP3 ADD PUSH1 0x0 SWAP1 SLOAD SWAP1 PUSH2 0x100 EXP SWAP1 DIV PUSH1 0xFF AND ISZERO ISZERO ISZERO ISZERO DUP2 MSTORE POP POP DUP2 MSTORE PUSH1 0x20 ADD SWAP1 PUSH1 0x1 ADD SWAP1 PUSH2 0x1559 JUMP JUMPDEST POP POP POP POP SWAP1 POP SWAP2 SWAP1 POP JUMP JUMPDEST DUP3 DUP1 SLOAD PUSH2 0x16AF SWAP1 PUSH2 0x22F8 JUMP JUMPDEST SWAP1 PUSH1 0x0 MSTORE PUSH1 0x20 PUSH1 0x0 KECCAK256 SWAP1 PUSH1 0x1F ADD PUSH1 0x20 SWAP1 DIV DUP2 ADD SWAP3 DUP3 PUSH2 0x16D1 JUMPI PUSH1 0x0 DUP6 SSTORE PUSH2 0x1718 JUMP JUMPDEST DUP3 PUSH1 0x1F LT PUSH2 0x16EA JUMPI DUP1 MLOAD PUSH1 0xFF NOT AND DUP4 DUP1 ADD OR DUP6 SSTORE PUSH2 0x1718 JUMP JUMPDEST DUP3 DUP1 ADD PUSH1 0x1 ADD DUP6 SSTORE DUP3 ISZERO PUSH2 0x1718 JUMPI SWAP2 DUP3 ADD JUMPDEST DUP3 DUP2 GT ISZERO PUSH2 0x1717 JUMPI DUP3 MLOAD DUP3 SSTORE SWAP2 PUSH1 0x20 ADD SWAP2 SWAP1 PUSH1 0x1 ADD SWAP1 PUSH2 0x16FC JUMP JUMPDEST JUMPDEST POP SWAP1 POP PUSH2 0x1725 SWAP2 SWAP1 PUSH2 0x1729 JUMP JUMPDEST POP SWAP1 JUMP JUMPDEST JUMPDEST DUP1 DUP3 GT ISZERO PUSH2 0x1742 JUMPI PUSH1 0x0 DUP2 PUSH1 0x0 SWAP1 SSTORE POP PUSH1 0x1 ADD PUSH2 0x172A JUMP JUMPDEST POP SWAP1 JUMP JUMPDEST PUSH1 0x0 PUSH2 0x1759 PUSH2 0x1754 DUP5 PUSH2 0x210A JUMP JUMPDEST PUSH2 0x20D9 JUMP JUMPDEST SWAP1 POP DUP3 DUP2 MSTORE PUSH1 0x20 DUP2 ADD DUP5 DUP5 DUP5 ADD GT ISZERO PUSH2 0x1771 JUMPI PUSH1 0x0 DUP1 REVERT JUMPDEST PUSH2 0x177C DUP5 DUP3 DUP6 PUSH2 0x22B6 JUMP JUMPDEST POP SWAP4 SWAP3 POP POP POP JUMP JUMPDEST PUSH1 0x0 DUP2 CALLDATALOAD SWAP1 POP PUSH2 0x1793 DUP2 PUSH2 0x2411 JUMP JUMPDEST SWAP3 SWAP2 POP POP JUMP JUMPDEST PUSH1 0x0 DUP2 CALLDATALOAD SWAP1 POP PUSH2 0x17A8 DUP2 PUSH2 0x2428 JUMP JUMPDEST SWAP3 SWAP2 POP POP JUMP JUMPDEST PUSH1 0x0 DUP3 PUSH1 0x1F DUP4 ADD SLT PUSH2 0x17BF JUMPI PUSH1 0x0 DUP1 REVERT JUMPDEST DUP2 CALLDATALOAD PUSH2 0x17CF DUP5 DUP3 PUSH1 0x20 DUP7 ADD PUSH2 0x1746 JUMP JUMPDEST SWAP2 POP POP SWAP3 SWAP2 POP POP JUMP JUMPDEST PUSH1 0x0 DUP2 CALLDATALOAD SWAP1 POP PUSH2 0x17E7 DUP2 PUSH2 0x243F JUMP JUMPDEST SWAP3 SWAP2 POP POP JUMP JUMPDEST PUSH1 0x0 PUSH1 0x20 DUP3 DUP5 SUB SLT ISZERO PUSH2 0x17FF JUMPI PUSH1 0x0 DUP1 REVERT JUMPDEST PUSH1 0x0 PUSH2 0x180D DUP5 DUP3 DUP6 ADD PUSH2 0x1784 JUMP JUMPDEST SWAP2 POP POP SWAP3 SWAP2 POP POP JUMP JUMPDEST PUSH1 0x0 DUP1 PUSH1 0x40 DUP4 DUP6 SUB SLT ISZERO PUSH2 0x1829 JUMPI PUSH1 0x0 DUP1 REVERT JUMPDEST PUSH1 0x0 PUSH2 0x1837 DUP6 DUP3 DUP7 ADD PUSH2 0x1784 JUMP JUMPDEST SWAP3 POP POP PUSH1 0x20 DUP4 ADD CALLDATALOAD PUSH8 0xFFFFFFFFFFFFFFFF DUP2 GT ISZERO PUSH2 0x1854 JUMPI PUSH1 0x0 DUP1 REVERT JUMPDEST PUSH2 0x1860 DUP6 DUP3 DUP7 ADD PUSH2 0x17AE JUMP JUMPDEST SWAP2 POP POP SWAP3 POP SWAP3 SWAP1 POP JUMP JUMPDEST PUSH1 0x0 DUP1 PUSH1 0x40 DUP4 DUP6 SUB SLT ISZERO PUSH2 0x187D JUMPI PUSH1 0x0 DUP1 REVERT JUMPDEST PUSH1 0x0 PUSH2 0x188B DUP6 DUP3 DUP7 ADD PUSH2 0x1784 JUMP JUMPDEST SWAP3 POP POP PUSH1 0x20 PUSH2 0x189C DUP6 DUP3 DUP7 ADD PUSH2 0x17D8 JUMP JUMPDEST SWAP2 POP POP SWAP3 POP SWAP3 SWAP1 POP JUMP JUMPDEST PUSH1 0x0 PUSH1 0x20 DUP3 DUP5 SUB SLT ISZERO PUSH2 0x18B8 JUMPI PUSH1 0x0 DUP1 REVERT JUMPDEST PUSH1 0x0 DUP3 ADD CALLDATALOAD PUSH8 0xFFFFFFFFFFFFFFFF DUP2 GT ISZERO PUSH2 0x18D2 JUMPI PUSH1 0x0 DUP1 REVERT JUMPDEST PUSH2 0x18DE DUP5 DUP3 DUP6 ADD PUSH2 0x17AE JUMP JUMPDEST SWAP2 POP POP SWAP3 SWAP2 POP POP JUMP JUMPDEST PUSH1 0x0 DUP1 PUSH1 0x40 DUP4 DUP6 SUB SLT ISZERO PUSH2 0x18FA JUMPI PUSH1 0x0 DUP1 REVERT JUMPDEST PUSH1 0x0 DUP4 ADD CALLDATALOAD PUSH8 0xFFFFFFFFFFFFFFFF DUP2 GT ISZERO PUSH2 0x1914 JUMPI PUSH1 0x0 DUP1 REVERT JUMPDEST PUSH2 0x1920 DUP6 DUP3 DUP7 ADD PUSH2 0x17AE JUMP JUMPDEST SWAP3 POP POP PUSH1 0x20 PUSH2 0x1931 DUP6 DUP3 DUP7 ADD PUSH2 0x1799 JUMP JUMPDEST SWAP2 POP POP SWAP3 POP SWAP3 SWAP1 POP JUMP JUMPDEST PUSH1 0x0 DUP1 PUSH1 0x40 DUP4 DUP6 SUB SLT ISZERO PUSH2 0x194E JUMPI PUSH1 0x0 DUP1 REVERT JUMPDEST PUSH1 0x0 DUP4 ADD CALLDATALOAD PUSH8 0xFFFFFFFFFFFFFFFF DUP2 GT ISZERO PUSH2 0x1968 JUMPI PUSH1 0x0 DUP1 REVERT JUMPDEST PUSH2 0x1974 DUP6 DUP3 DUP7 ADD PUSH2 0x17AE JUMP JUMPDEST SWAP3 POP POP PUSH1 0x20 DUP4 ADD CALLDATALOAD PUSH8 0xFFFFFFFFFFFFFFFF DUP2 GT ISZERO PUSH2 0x1991 JUMPI PUSH1 0x0 DUP1 REVERT JUMPDEST PUSH2 0x199D DUP6 DUP3 DUP7 ADD PUSH2 0x17AE JUMP JUMPDEST SWAP2 POP POP SWAP3 POP SWAP3 SWAP1 POP JUMP JUMPDEST PUSH1 0x0 DUP1 PUSH1 0x40 DUP4 DUP6 SUB SLT ISZERO PUSH2 0x19BA JUMPI PUSH1 0x0 DUP1 REVERT JUMPDEST PUSH1 0x0 DUP4 ADD CALLDATALOAD PUSH8 0xFFFFFFFFFFFFFFFF DUP2 GT ISZERO PUSH2 0x19D4 JUMPI PUSH1 0x0 DUP1 REVERT JUMPDEST PUSH2 0x19E0 DUP6 DUP3 DUP7 ADD PUSH2 0x17AE JUMP JUMPDEST SWAP3 POP POP PUSH1 0x20 PUSH2 0x19F1 DUP6 DUP3 DUP7 ADD PUSH2 0x17D8 JUMP JUMPDEST SWAP2 POP POP SWAP3 POP SWAP3 SWAP1 POP JUMP JUMPDEST PUSH1 0x0 PUSH1 0x20 DUP3 DUP5 SUB SLT ISZERO PUSH2 0x1A0D JUMPI PUSH1 0x0 DUP1 REVERT JUMPDEST PUSH1 0x0 PUSH2 0x1A1B DUP5 DUP3 DUP6 ADD PUSH2 0x17D8 JUMP JUMPDEST SWAP2 POP POP SWAP3 SWAP2 POP POP JUMP JUMPDEST PUSH1 0x0 DUP1 PUSH1 0x40 DUP4 DUP6 SUB SLT ISZERO PUSH2 0x1A37 JUMPI PUSH1 0x0 DUP1 REVERT JUMPDEST PUSH1 0x0 PUSH2 0x1A45 DUP6 DUP3 DUP7 ADD PUSH2 0x17D8 JUMP JUMPDEST SWAP3 POP POP PUSH1 0x20 PUSH2 0x1A56 DUP6 DUP3 DUP7 ADD PUSH2 0x17D8 JUMP JUMPDEST SWAP2 POP POP SWAP3 POP SWAP3 SWAP1 POP JUMP JUMPDEST PUSH1 0x0 PUSH2 0x1A6C DUP4 DUP4 PUSH2 0x1BAE JUMP JUMPDEST SWAP1 POP SWAP3 SWAP2 POP POP JUMP JUMPDEST PUSH1 0x0 PUSH2 0x1A80 DUP4 DUP4 PUSH2 0x1DD1 JUMP JUMPDEST SWAP1 POP SWAP3 SWAP2 POP POP JUMP JUMPDEST PUSH2 0x1A91 DUP2 PUSH2 0x226E JUMP JUMPDEST DUP3 MSTORE POP POP JUMP JUMPDEST PUSH2 0x1AA0 DUP2 PUSH2 0x226E JUMP JUMPDEST DUP3 MSTORE POP POP JUMP JUMPDEST PUSH1 0x0 PUSH2 0x1AB1 DUP3 PUSH2 0x215A JUMP JUMPDEST PUSH2 0x1ABB DUP2 DUP6 PUSH2 0x2195 JUMP JUMPDEST SWAP4 POP DUP4 PUSH1 0x20 DUP3 MUL DUP6 ADD PUSH2 0x1ACD DUP6 PUSH2 0x213A JUMP JUMPDEST DUP1 PUSH1 0x0 JUMPDEST DUP6 DUP2 LT ISZERO PUSH2 0x1B09 JUMPI DUP5 DUP5 SUB DUP10 MSTORE DUP2 MLOAD PUSH2 0x1AEA DUP6 DUP3 PUSH2 0x1A60 JUMP JUMPDEST SWAP5 POP PUSH2 0x1AF5 DUP4 PUSH2 0x217B JUMP JUMPDEST SWAP3 POP PUSH1 0x20 DUP11 ADD SWAP10 POP POP PUSH1 0x1 DUP2 ADD SWAP1 POP PUSH2 0x1AD1 JUMP JUMPDEST POP DUP3 SWAP8 POP DUP8 SWAP6 POP POP POP POP POP POP SWAP3 SWAP2 POP POP JUMP JUMPDEST PUSH1 0x0 PUSH2 0x1B26 DUP3 PUSH2 0x2165 JUMP JUMPDEST PUSH2 0x1B30 DUP2 DUP6 PUSH2 0x21A6 JUMP JUMPDEST SWAP4 POP DUP4 PUSH1 0x20 DUP3 MUL DUP6 ADD PUSH2 0x1B42 DUP6 PUSH2 0x214A JUMP JUMPDEST DUP1 PUSH1 0x0 JUMPDEST DUP6 DUP2 LT ISZERO PUSH2 0x1B7E JUMPI DUP5 DUP5 SUB DUP10 MSTORE DUP2 MLOAD PUSH2 0x1B5F DUP6 DUP3 PUSH2 0x1A74 JUMP JUMPDEST SWAP5 POP PUSH2 0x1B6A DUP4 PUSH2 0x2188 JUMP JUMPDEST SWAP3 POP PUSH1 0x20 DUP11 ADD SWAP10 POP POP PUSH1 0x1 DUP2 ADD SWAP1 POP PUSH2 0x1B46 JUMP JUMPDEST POP DUP3 SWAP8 POP DUP8 SWAP6 POP POP POP POP POP POP SWAP3 SWAP2 POP POP JUMP JUMPDEST PUSH2 0x1B99 DUP2 PUSH2 0x2280 JUMP JUMPDEST DUP3 MSTORE POP POP JUMP JUMPDEST PUSH2 0x1BA8 DUP2 PUSH2 0x2280 JUMP JUMPDEST DUP3 MSTORE POP POP JUMP JUMPDEST PUSH1 0x0 PUSH2 0x1BB9 DUP3 PUSH2 0x2170 JUMP JUMPDEST PUSH2 0x1BC3 DUP2 DUP6 PUSH2 0x21B7 JUMP JUMPDEST SWAP4 POP PUSH2 0x1BD3 DUP2 DUP6 PUSH1 0x20 DUP7 ADD PUSH2 0x22C5 JUMP JUMPDEST PUSH2 0x1BDC DUP2 PUSH2 0x2400 JUMP JUMPDEST DUP5 ADD SWAP2 POP POP SWAP3 SWAP2 POP POP JUMP JUMPDEST PUSH1 0x0 PUSH2 0x1BF2 DUP3 PUSH2 0x2170 JUMP JUMPDEST PUSH2 0x1BFC DUP2 DUP6 PUSH2 0x21C8 JUMP JUMPDEST SWAP4 POP PUSH2 0x1C0C DUP2 DUP6 PUSH1 0x20 DUP7 ADD PUSH2 0x22C5 JUMP JUMPDEST PUSH2 0x1C15 DUP2 PUSH2 0x2400 JUMP JUMPDEST DUP5 ADD SWAP2 POP POP SWAP3 SWAP2 POP POP JUMP JUMPDEST PUSH1 0x0 PUSH2 0x1C2B DUP3 PUSH2 0x2170 JUMP JUMPDEST PUSH2 0x1C35 DUP2 DUP6 PUSH2 0x21D9 JUMP JUMPDEST SWAP4 POP PUSH2 0x1C45 DUP2 DUP6 PUSH1 0x20 DUP7 ADD PUSH2 0x22C5 JUMP JUMPDEST DUP1 DUP5 ADD SWAP2 POP POP SWAP3 SWAP2 POP POP JUMP JUMPDEST PUSH1 0x0 PUSH2 0x1C5E PUSH1 0x1B DUP4 PUSH2 0x21C8 JUMP JUMPDEST SWAP2 POP PUSH32 0x416C726561647920766F746564206F6E20746869732069737375650000000000 PUSH1 0x0 DUP4 ADD MSTORE PUSH1 0x20 DUP3 ADD SWAP1 POP SWAP2 SWAP1 POP JUMP JUMPDEST PUSH1 0x0 PUSH2 0x1C9E PUSH1 0x14 DUP4 PUSH2 0x21C8 JUMP JUMPDEST SWAP2 POP PUSH32 0x497373756520646F6573206E6F74206578697374000000000000000000000000 PUSH1 0x0 DUP4 ADD MSTORE PUSH1 0x20 DUP3 ADD SWAP1 POP SWAP2 SWAP1 POP JUMP JUMPDEST PUSH1 0x0 PUSH2 0x1CDE PUSH1 0x15 DUP4 PUSH2 0x21C8 JUMP JUMPDEST SWAP2 POP PUSH32 0x5469746C652063616E6E6F7420626520656D7074790000000000000000000000 PUSH1 0x0 DUP4 ADD MSTORE PUSH1 0x20 DUP3 ADD SWAP1 POP SWAP2 SWAP1 POP JUMP JUMPDEST PUSH1 0x0 PUSH2 0x1D1E PUSH1 0x16 DUP4 PUSH2 0x21C8 JUMP JUMPDEST SWAP2 POP PUSH32 0x497373756520616C7265616479207265636F7264656400000000000000000000 PUSH1 0x0 DUP4 ADD MSTORE PUSH1 0x20 DUP3 ADD SWAP1 POP SWAP2 SWAP1 POP JUMP JUMPDEST PUSH1 0x0 PUSH2 0x1D5E PUSH1 0x14 DUP4 PUSH2 0x21C8 JUMP JUMPDEST SWAP2 POP PUSH32 0x4F6666736574206F7574206F6620626F756E6473000000000000000000000000 PUSH1 0x0 DUP4 ADD MSTORE PUSH1 0x20 DUP3 ADD SWAP1 POP SWAP2 SWAP1 POP JUMP JUMPDEST PUSH1 0x0 PUSH2 0x1D9E PUSH1 0x18 DUP4 PUSH2 0x21C8 JUMP JUMPDEST SWAP2 POP PUSH32 0x49737375652049442063616E6E6F7420626520656D7074790000000000000000 PUSH1 0x0 DUP4 ADD MSTORE PUSH1 0x20 DUP3 ADD SWAP1 POP SWAP2 SWAP1 POP JUMP JUMPDEST PUSH1 0x0 PUSH1 0x80 DUP4 ADD PUSH1 0x0 DUP4 ADD MLOAD PUSH2 0x1DE9 PUSH1 0x0 DUP7 ADD DUP3 PUSH2 0x1A88 JUMP JUMPDEST POP PUSH1 0x20 DUP4 ADD MLOAD DUP5 DUP3 SUB PUSH1 0x20 DUP7 ADD MSTORE PUSH2 0x1E01 DUP3 DUP3 PUSH2 0x1BAE JUMP JUMPDEST SWAP2 POP POP PUSH1 0x40 DUP4 ADD MLOAD PUSH2 0x1E16 PUSH1 0x40 DUP7 ADD DUP3 PUSH2 0x1E34 JUMP JUMPDEST POP PUSH1 0x60 DUP4 ADD MLOAD PUSH2 0x1E29 PUSH1 0x60 DUP7 ADD DUP3 PUSH2 0x1B90 JUMP JUMPDEST POP DUP1 SWAP2 POP POP SWAP3 SWAP2 POP POP JUMP JUMPDEST PUSH2 0x1E3D DUP2 PUSH2 0x22AC JUMP JUMPDEST DUP3 MSTORE POP POP JUMP JUMPDEST PUSH2 0x1E4C DUP2 PUSH2 0x22AC JUMP JUMPDEST DUP3 MSTORE POP POP JUMP JUMPDEST PUSH1 0x0 PUSH2 0x1E5E DUP3 DUP5 PUSH2 0x1C20 JUMP JUMPDEST SWAP2 POP DUP2 SWAP1 POP SWAP3 SWAP2 POP POP JUMP JUMPDEST PUSH1 0x0 PUSH1 0x80 DUP3 ADD SWAP1 POP PUSH2 0x1E7E PUSH1 0x0 DUP4 ADD DUP8 PUSH2 0x1A97 JUMP JUMPDEST DUP2 DUP2 SUB PUSH1 0x20 DUP4 ADD MSTORE PUSH2 0x1E90 DUP2 DUP7 PUSH2 0x1BE7 JUMP JUMPDEST SWAP1 POP PUSH2 0x1E9F PUSH1 0x40 DUP4 ADD DUP6 PUSH2 0x1E43 JUMP JUMPDEST PUSH2 0x1EAC PUSH1 0x60 DUP4 ADD DUP5 PUSH2 0x1B9F JUMP JUMPDEST SWAP6 SWAP5 POP POP POP POP POP JUMP JUMPDEST PUSH1 0x0 PUSH1 0x20 DUP3 ADD SWAP1 POP DUP2 DUP2 SUB PUSH1 0x0 DUP4 ADD MSTORE PUSH2 0x1ECF DUP2 DUP5 PUSH2 0x1AA6 JUMP JUMPDEST SWAP1 POP SWAP3 SWAP2 POP POP JUMP JUMPDEST PUSH1 0x0 PUSH1 0x20 DUP3 ADD SWAP1 POP DUP2 DUP2 SUB PUSH1 0x0 DUP4 ADD MSTORE PUSH2 0x1EF1 DUP2 DUP5 PUSH2 0x1B1B JUMP JUMPDEST SWAP1 POP SWAP3 SWAP2 POP POP JUMP JUMPDEST PUSH1 0x0 PUSH1 0x20 DUP3 ADD SWAP1 POP PUSH2 0x1F0E PUSH1 0x0 DUP4 ADD DUP5 PUSH2 0x1B9F JUMP JUMPDEST SWAP3 SWAP2 POP POP JUMP JUMPDEST PUSH1 0x0 PUSH1 0x40 DUP3 ADD SWAP1 POP PUSH2 0x1F29 PUSH1 0x0 DUP4 ADD DUP6 PUSH2 0x1B9F JUMP JUMPDEST PUSH2 0x1F36 PUSH1 0x20 DUP4 ADD DUP5 PUSH2 0x1E43 JUMP JUMPDEST SWAP4 SWAP3 POP POP POP JUMP JUMPDEST PUSH1 0x0 PUSH1 0x20 DUP3 ADD SWAP1 POP DUP2 DUP2 SUB PUSH1 0x0 DUP4 ADD MSTORE PUSH2 0x1F57 DUP2 DUP5 PUSH2 0x1BE7 JUMP JUMPDEST SWAP1 POP SWAP3 SWAP2 POP POP JUMP JUMPDEST PUSH1 0x0 PUSH1 0xC0 DUP3 ADD SWAP1 POP DUP2 DUP2 SUB PUSH1 0x0 DUP4 ADD MSTORE PUSH2 0x1F79 DUP2 DUP10 PUSH2 0x1BE7 JUMP JUMPDEST SWAP1 POP DUP2 DUP2 SUB PUSH1 0x20 DUP4 ADD MSTORE PUSH2 0x1F8D DUP2 DUP9 PUSH2 0x1BE7 JUMP JUMPDEST SWAP1 POP PUSH2 0x1F9C PUSH1 0x40 DUP4 ADD DUP8 PUSH2 0x1A97 JUMP JUMPDEST PUSH2 0x1FA9 PUSH1 0x60 DUP4 ADD DUP7 PUSH2 0x1E43 JUMP JUMPDEST PUSH2 0x1FB6 PUSH1 0x80 DUP4 ADD DUP6 PUSH2 0x1E43 JUMP JUMPDEST PUSH2 0x1FC3 PUSH1 0xA0 DUP4 ADD DUP5 PUSH2 0x1B9F JUMP JUMPDEST SWAP8 SWAP7 POP POP POP POP POP POP POP JUMP JUMPDEST PUSH1 0x0 PUSH1 0x40 DUP3 ADD SWAP1 POP DUP2 DUP2 SUB PUSH1 0x0 DUP4 ADD MSTORE PUSH2 0x1FE8 DUP2 DUP6 PUSH2 0x1BE7 JUMP JUMPDEST SWAP1 POP PUSH2 0x1FF7 PUSH1 0x20 DUP4 ADD DUP5 PUSH2 0x1E43 JUMP JUMPDEST SWAP4 SWAP3 POP POP POP JUMP JUMPDEST PUSH1 0x0 PUSH1 0x20 DUP3 ADD SWAP1 POP DUP2 DUP2 SUB PUSH1 0x0 DUP4 ADD MSTORE PUSH2 0x2017 DUP2 PUSH2 0x1C51 JUMP JUMPDEST SWAP1 POP SWAP2 SWAP1 POP JUMP JUMPDEST PUSH1 0x0 PUSH1 0x20 DUP3 ADD SWAP1 POP DUP2 DUP2 SUB PUSH1 0x0 DUP4 ADD MSTORE PUSH2 0x2037 DUP2 PUSH2 0x1C91 JUMP JUMPDEST SWAP1 POP SWAP2 SWAP1 POP JUMP JUMPDEST PUSH1 0x0 PUSH1 0x20 DUP3 ADD SWAP1 POP DUP2 DUP2 SUB PUSH1 0x0 DUP4 ADD MSTORE PUSH2 0x2057 DUP2 PUSH2 0x1CD1 JUMP JUMPDEST SWAP1 POP SWAP2 SWAP1 POP JUMP JUMPDEST PUSH1 0x0 PUSH1 0x20 DUP3 ADD SWAP1 POP DUP2 DUP2 SUB PUSH1 0x0 DUP4 ADD MSTORE PUSH2 0x2077 DUP2 PUSH2 0x1D11 JUMP JUMPDEST SWAP1 POP SWAP2 SWAP1 POP JUMP JUMPDEST PUSH1 0x0 PUSH1 0x20 DUP3 ADD SWAP1 POP DUP2 DUP2 SUB PUSH1 0x0 DUP4 ADD MSTORE PUSH2 0x2097 DUP2 PUSH2 0x1D51 JUMP JUMPDEST SWAP1 POP SWAP2 SWAP1 POP JUMP JUMPDEST PUSH1 0x0 PUSH1 0x20 DUP3 ADD SWAP1 POP DUP2 DUP2 SUB PUSH1 0x0 DUP4 ADD MSTORE PUSH2 0x20B7 DUP2 PUSH2 0x1D91 JUMP JUMPDEST SWAP1 POP SWAP2 SWAP1 POP JUMP JUMPDEST PUSH1 0x0 PUSH1 0x20 DUP3 ADD SWAP1 POP PUSH2 0x20D3 PUSH1 0x0 DUP4 ADD DUP5 PUSH2 0x1E43 JUMP JUMPDEST SWAP3 SWAP2 POP POP JUMP JUMPDEST PUSH1 0x0 PUSH1 0x40 MLOAD SWAP1 POP DUP2 DUP2 ADD DUP2 DUP2 LT PUSH8 0xFFFFFFFFFFFFFFFF DUP3 GT OR ISZERO PUSH2 0x2100 JUMPI PUSH2 0x20FF PUSH2 0x23D1 JUMP JUMPDEST JUMPDEST DUP1 PUSH1 0x40 MSTORE POP SWAP2 SWAP1 POP JUMP JUMPDEST PUSH1 0x0 PUSH8 0xFFFFFFFFFFFFFFFF DUP3 GT ISZERO PUSH2 0x2125 JUMPI PUSH2 0x2124 PUSH2 0x23D1 JUMP JUMPDEST JUMPDEST PUSH1 0x1F NOT PUSH1 0x1F DUP4 ADD AND SWAP1 POP PUSH1 0x20 DUP2 ADD SWAP1 POP SWAP2 SWAP1 POP JUMP JUMPDEST PUSH1 0x0 DUP2 SWAP1 POP PUSH1 0x20 DUP3 ADD SWAP1 POP SWAP2 SWAP1 POP JUMP JUMPDEST PUSH1 0x0 DUP2 SWAP1 POP PUSH1 0x20 DUP3 ADD SWAP1 POP SWAP2 SWAP1 POP JUMP JUMPDEST PUSH1 0x0 DUP2 MLOAD SWAP1 POP SWAP2 SWAP1 POP JUMP JUMPDEST PUSH1 0x0 DUP2 MLOAD SWAP1 POP SWAP2 SWAP1 POP JUMP JUMPDEST PUSH1 0x0 DUP2 MLOAD SWAP1 POP SWAP2 SWAP1 POP JUMP JUMPDEST PUSH1 0x0 PUSH1 0x20 DUP3 ADD SWAP1 POP SWAP2 SWAP1 POP JUMP JUMPDEST PUSH1 0x0 PUSH1 0x20 DUP3 ADD SWAP1 POP SWAP2 SWAP1 POP JUMP JUMPDEST PUSH1 0x0 DUP3 DUP3 MSTORE PUSH1 0x20 DUP3 ADD SWAP1 POP SWAP3 SWAP2 POP POP JUMP JUMPDEST PUSH1 0x0 DUP3 DUP3 MSTORE PUSH1 0x20 DUP3 ADD SWAP1 POP SWAP3 SWAP2 POP POP JUMP JUMPDEST PUSH1 0x0 DUP3 DUP3 MSTORE PUSH1 0x20 DUP3 ADD SWAP1 POP SWAP3 SWAP2 POP POP JUMP JUMPDEST PUSH1 0x0 DUP3 DUP3 MSTORE PUSH1 0x20 DUP3 ADD SWAP1 POP SWAP3 SWAP2 POP POP JUMP JUMPDEST PUSH1 0x0 DUP2 SWAP1 POP SWAP3 SWAP2 POP POP JUMP JUMPDEST PUSH1 0x0 PUSH2 0x21EF DUP3 PUSH2 0x22AC JUMP JUMPDEST SWAP2 POP PUSH2 0x21FA DUP4 PUSH2 0x22AC JUMP JUMPDEST SWAP3 POP DUP3 PUSH32 0xFFFFFFFFFFFFFFFFFFFFFFFFFFFFFFFFFFFFFFFFFFFFFFFFFFFFFFFFFFFFFFFF SUB DUP3 GT ISZERO PUSH2 0x222F JUMPI PUSH2 0x222E PUSH2 0x2373 JUMP JUMPDEST JUMPDEST DUP3 DUP3 ADD SWAP1 POP SWAP3 SWAP2 POP POP JUMP JUMPDEST PUSH1 0x0 PUSH2 0x2245 DUP3 PUSH2 0x22AC JUMP JUMPDEST SWAP2 POP PUSH2 0x2250 DUP4 PUSH2 0x22AC JUMP JUMPDEST SWAP3 POP DUP3 DUP3 LT ISZERO PUSH2 0x2263 JUMPI PUSH2 0x2262 PUSH2 0x2373 JUMP JUMPDEST JUMPDEST DUP3 DUP3 SUB SWAP1 POP SWAP3 SWAP2 POP POP JUMP JUMPDEST PUSH1 0x0 PUSH2 0x2279 DUP3 PUSH2 0x228C JUMP JUMPDEST SWAP1 POP SWAP2 SWAP1 POP JUMP JUMPDEST PUSH1 0x0 DUP2 ISZERO ISZERO SWAP1 POP SWAP2 SWAP1 POP JUMP JUMPDEST PUSH1 0x0 PUSH20 0xFFFFFFFFFFFFFFFFFFFFFFFFFFFFFFFFFFFFFFFF DUP3 AND SWAP1 POP SWAP2 SWAP1 POP JUMP JUMPDEST PUSH1 0x0 DUP2 SWAP1 POP SWAP2 SWAP1 POP JUMP JUMPDEST DUP3 DUP2 DUP4 CALLDATACOPY PUSH1 0x0 DUP4 DUP4 ADD MSTORE POP POP POP JUMP JUMPDEST PUSH1 0x0 JUMPDEST DUP4 DUP2 LT ISZERO PUSH2 0x22E3 JUMPI DUP1 DUP3 ADD MLOAD DUP2 DUP5 ADD MSTORE PUSH1 0x20 DUP2 ADD SWAP1 POP PUSH2 0x22C8 JUMP JUMPDEST DUP4 DUP2 GT ISZERO PUSH2 0x22F2 JUMPI PUSH1 0x0 DUP5 DUP5 ADD MSTORE JUMPDEST POP POP POP POP JUMP JUMPDEST PUSH1 0x0 PUSH1 0x2 DUP3 DIV SWAP1 POP PUSH1 0x1 DUP3 AND DUP1 PUSH2 0x2310 JUMPI PUSH1 0x7F DUP3 AND SWAP2 POP JUMPDEST PUSH1 0x20 DUP3 LT DUP2 EQ ISZERO PUSH2 0x2324 JUMPI PUSH2 0x2323 PUSH2 0x23A2 JUMP JUMPDEST JUMPDEST POP SWAP2 SWAP1 POP JUMP JUMPDEST PUSH1 0x0 PUSH2 0x2335 DUP3 PUSH2 0x22AC JUMP JUMPDEST SWAP2 POP PUSH32 0xFFFFFFFFFFFFFFFFFFFFFFFFFFFFFFFFFFFFFFFFFFFFFFFFFFFFFFFFFFFFFFFF DUP3 EQ ISZERO PUSH2 0x2368 JUMPI PUSH2 0x2367 PUSH2 0x2373 JUMP JUMPDEST JUMPDEST PUSH1 0x1 DUP3 ADD SWAP1 POP SWAP2 SWAP1 POP JUMP JUMPDEST PUSH32 0x4E487B7100000000000000000000000000000000000000000000000000000000 PUSH1 0x0 MSTORE PUSH1 0x11 PUSH1 0x4 MSTORE PUSH1 0x24 PUSH1 0x0 REVERT JUMPDEST PUSH32 0x4E487B7100000000000000000000000000000000000000000000000000000000 PUSH1 0x0 MSTORE PUSH1 0x22 PUSH1 0x4 MSTORE PUSH1 0x24 PUSH1 0x0 REVERT JUMPDEST PUSH32 0x4E487B7100000000000000000000000000000000000000000000000000000000 PUSH1 0x0 MSTORE PUSH1 0x41 PUSH1 0x4 MSTORE PUSH1 0x24 PUSH1 0x0 REVERT JUMPDEST PUSH1 0x0 PUSH1 0x1F NOT PUSH1 0x1F DUP4 ADD AND SWAP1 POP SWAP2 SWAP1 POP JUMP JUMPDEST PUSH2 0x241A DUP2 PUSH2 0x226E JUMP JUMPDEST DUP2 EQ PUSH2 0x2425 JUMPI PUSH1 0x0 DUP1 REVERT JUMPDEST POP JUMP JUMPDEST PUSH2 0x2431 DUP2 PUSH2 0x2280 JUMP JUMPDEST DUP2 EQ PUSH2 0x243C JUMPI PUSH1 0x0 DUP1 REVERT JUMPDEST POP JUMP JUMPDEST PUSH2 0x2448 DUP2 PUSH2 0x22AC JUMP JUMPDEST DUP2 EQ PUSH2 0x2453 JUMPI PUSH1 0x0 DUP1 REVERT JUMPDEST POP JUMP INVALID LOG2 PUSH5 0x6970667358 0x22 SLT KECCAK256 RETURN 0xA9 SWAP3 0x2B SWAP6 NOT 0xAE PUSH12 0xE95CAA773D5D2BE09DADE3F0 SWAP13 PUSH4 0xB8B25F77 PUSH17 0x3F533D8B6A64736F6C6343000800003300 "
	},
	"abi": [
		{
			"anonymous": false,
			"inputs": [
				{
					"indexed": true,
					"internalType": "string",
					"name": "issueId",
					"type": "string"
				},
				{
					"indexed": false,
					"internalType": "string",
					"name": "title",
					"type": "string"
				},
				{
					"indexed": true,
					"internalType": "address",
					"name": "reportedBy",
					"type": "address"
				},
				{
					"indexed": false,
					"internalType": "uint256",
					"name": "timestamp",
					"type": "uint256"
				}
			],
			"name": "IssueRecorded",
			"type": "event"
		},
		{
			"anonymous": false,
			"inputs": [
				{
					"indexed": true,
					"internalType": "string",
					"name": "issueId",
					"type": "string"
				},
				{
					"indexed": false,
					"internalType": "string",
					"name": "newStatus",
					"type": "string"
				},
				{
					"indexed": false,
					"internalType": "uint256",
					"name": "timestamp",
					"type": "uint256"
				}
			],
			"name": "IssueStatusUpdated",
			"type": "event"
		},
		{
			"anonymous": false,
			"inputs": [
				{
					"indexed": true,
					"internalType": "string",
					"name": "issueId",
					"type": "string"
				},
				{
					"indexed": true,
					"internalType": "address",
					"name": "voter",
					"type": "address"
				},
				{
					"indexed": false,
					"internalType": "bool",
					"name": "support",
					"type": "bool"
				},
				{
					"indexed": false,
					"internalType": "uint256",
					"name": "timestamp",
					"type": "uint256"
				}
			],
			"name": "VoteRecorded",
			"type": "event"
		},
		{
			"inputs": [
				{
					"internalType": "uint256",
					"name": "",
					"type": "uint256"
				}
			],
			"name": "allIssueIds",
			"outputs": [
				{
					"internalType": "string",
					"name": "",
					"type": "string"
				}
			],
			"stateMutability": "view",
			"type": "function"
		},
		{
			"inputs": [
				{
					"internalType": "address",
					"name": "_user",
					"type": "address"
				},
				{
					"internalType": "string",
					"name": "_issueId",
					"type": "string"
				}
			],
			"name": "checkIfVoted",
			"outputs": [
				{
					"internalType": "bool",
					"name": "",
					"type": "bool"
				}
			],
			"stateMutability": "view",
			"type": "function"
		},
		{
			"inputs": [
				{
					"internalType": "uint256",
					"name": "_offset",
					"type": "uint256"
				},
				{
					"internalType": "uint256",
					"name": "_limit",
					"type": "uint256"
				}
			],
			"name": "getAllIssues",
			"outputs": [
				{
					"internalType": "string[]",
					"name": "",
					"type": "string[]"
				}
			],
			"stateMutability": "view",
			"type": "function"
		},
		{
			"inputs": [
				{
					"internalType": "string",
					"name": "_issueId",
					"type": "string"
				}
			],
			"name": "getIssue",
			"outputs": [
				{
					"internalType": "string",
					"name": "issueId",
					"type": "string"
				},
				{
					"internalType": "string",
					"name": "title",
					"type": "string"
				},
				{
					"internalType": "address",
					"name": "reportedBy",
					"type": "address"
				},
				{
					"internalType": "uint256",
					"name": "timestamp",
					"type": "uint256"
				},
				{
					"internalType": "uint256",
					"name": "voteCount",
					"type": "uint256"
				},
				{
					"internalType": "bool",
					"name": "exists",
					"type": "bool"
				}
			],
			"stateMutability": "view",
			"type": "function"
		},
		{
			"inputs": [
				{
					"internalType": "string",
					"name": "_issueId",
					"type": "string"
				}
			],
			"name": "getIssueVotes",
			"outputs": [
				{
					"components": [
						{
							"internalType": "address",
							"name": "voter",
							"type": "address"
						},
						{
							"internalType": "string",
							"name": "issueId",
							"type": "string"
						},
						{
							"internalType": "uint256",
							"name": "timestamp",
							"type": "uint256"
						},
						{
							"internalType": "bool",
							"name": "support",
							"type": "bool"
						}
					],
					"internalType": "struct CivicIssueTracker.Vote[]",
					"name": "",
					"type": "tuple[]"
				}
			],
			"stateMutability": "view",
			"type": "function"
		},
		{
			"inputs": [],
			"name": "getTotalIssues",
			"outputs": [
				{
					"internalType": "uint256",
					"name": "",
					"type": "uint256"
				}
			],
			"stateMutability": "view",
			"type": "function"
		},
		{
			"inputs": [
				{
					"internalType": "address",
					"name": "_user",
					"type": "address"
				}
			],
			"name": "getUserIssues",
			"outputs": [
				{
					"internalType": "string[]",
					"name": "",
					"type": "string[]"
				}
			],
			"stateMutability": "view",
			"type": "function"
		},
		{
			"inputs": [
				{
					"internalType": "string",
					"name": "_issueId",
					"type": "string"
				}
			],
			"name": "getVoteCount",
			"outputs": [
				{
					"internalType": "uint256",
					"name": "",
					"type": "uint256"
				}
			],
			"stateMutability": "view",
			"type": "function"
		},
		{
			"inputs": [
				{
					"internalType": "address",
					"name": "",
					"type": "address"
				},
				{
					"internalType": "string",
					"name": "",
					"type": "string"
				}
			],
			"name": "hasVoted",
			"outputs": [
				{
					"internalType": "bool",
					"name": "",
					"type": "bool"
				}
			],
			"stateMutability": "view",
			"type": "function"
		},
		{
			"inputs": [
				{
					"internalType": "string",
					"name": "",
					"type": "string"
				},
				{
					"internalType": "uint256",
					"name": "",
					"type": "uint256"
				}
			],
			"name": "issueVotes",
			"outputs": [
				{
					"internalType": "address",
					"name": "voter",
					"type": "address"
				},
				{
					"internalType": "string",
					"name": "issueId",
					"type": "string"
				},
				{
					"internalType": "uint256",
					"name": "timestamp",
					"type": "uint256"
				},
				{
					"internalType": "bool",
					"name": "support",
					"type": "bool"
				}
			],
			"stateMutability": "view",
			"type": "function"
		},
		{
			"inputs": [
				{
					"internalType": "string",
					"name": "",
					"type": "string"
				}
			],
			"name": "issues",
			"outputs": [
				{
					"internalType": "string",
					"name": "issueId",
					"type": "string"
				},
				{
					"internalType": "string",
					"name": "title",
					"type": "string"
				},
				{
					"internalType": "address",
					"name": "reportedBy",
					"type": "address"
				},
				{
					"internalType": "uint256",
					"name": "timestamp",
					"type": "uint256"
				},
				{
					"internalType": "uint256",
					"name": "voteCount",
					"type": "uint256"
				},
				{
					"internalType": "bool",
					"name": "exists",
					"type": "bool"
				}
			],
			"stateMutability": "view",
			"type": "function"
		},
		{
			"inputs": [
				{
					"internalType": "string",
					"name": "_issueId",
					"type": "string"
				},
				{
					"internalType": "string",
					"name": "_title",
					"type": "string"
				}
			],
			"name": "recordIssue",
			"outputs": [],
			"stateMutability": "nonpayable",
			"type": "function"
		},
		{
			"inputs": [
				{
					"internalType": "string",
					"name": "_issueId",
					"type": "string"
				},
				{
					"internalType": "bool",
					"name": "_support",
					"type": "bool"
				}
			],
			"name": "recordVote",
			"outputs": [],
			"stateMutability": "nonpayable",
			"type": "function"
		},
		{
			"inputs": [
				{
					"internalType": "address",
					"name": "",
					"type": "address"
				},
				{
					"internalType": "uint256",
					"name": "",
					"type": "uint256"
				}
			],
			"name": "userIssues",
			"outputs": [
				{
					"internalType": "string",
					"name": "",
					"type": "string"
				}
			],
			"stateMutability": "view",
			"type": "function"
		}
	],
	"storageLayout": {
		"storage": [
			{
				"astId": 29,
				"contract": "CivicIssueTracker.sol:CivicIssueTracker",
				"label": "issues",
				"offset": 0,
				"slot": "0",
				"type": "t_mapping(t_string_memory_ptr,t_struct(Issue)15_storage)"
			},
			{
				"astId": 35,
				"contract": "CivicIssueTracker.sol:CivicIssueTracker",
				"label": "issueVotes",
				"offset": 0,
				"slot": "1",
				"type": "t_mapping(t_string_memory_ptr,t_array(t_struct(Vote)24_storage)dyn_storage)"
			},
			{
				"astId": 40,
				"contract": "CivicIssueTracker.sol:CivicIssueTracker",
				"label": "userIssues",
				"offset": 0,
				"slot": "2",
				"type": "t_mapping(t_address,t_array(t_string_storage)dyn_storage)"
			},
			{
				"astId": 46,
				"contract": "CivicIssueTracker.sol:CivicIssueTracker",
				"label": "hasVoted",
				"offset": 0,
				"slot": "3",
				"type": "t_mapping(t_address,t_mapping(t_string_memory_ptr,t_bool))"
			},
			{
				"astId": 49,
				"contract": "CivicIssueTracker.sol:CivicIssueTracker",
				"label": "allIssueIds",
				"offset": 0,
				"slot": "4",
				"type": "t_array(t_string_storage)dyn_storage"
			}
		],
		"types": {
			"t_address": {
				"encoding": "inplace",
				"label": "address",
				"numberOfBytes": "20"
			},
			"t_array(t_string_storage)dyn_storage": {
				"base": "t_string_storage",
				"encoding": "dynamic_array",
				"label": "string[]",
				"numberOfBytes": "32"
			},
			"t_array(t_struct(Vote)24_storage)dyn_storage": {
				"base": "t_struct(Vote)24_storage",
				"encoding": "dynamic_array",
				"label": "struct CivicIssueTracker.Vote[]",
				"numberOfBytes": "32"
			},
			"t_bool": {
				"encoding": "inplace",
				"label": "bool",
				"numberOfBytes": "1"
			},
			"t_mapping(t_address,t_array(t_string_storage)dyn_storage)": {
				"encoding": "mapping",
				"key": "t_address",
				"label": "mapping(address => string[])",
				"numberOfBytes": "32",
				"value": "t_array(t_string_storage)dyn_storage"
			},
			"t_mapping(t_address,t_mapping(t_string_memory_ptr,t_bool))": {
				"encoding": "mapping",
				"key": "t_address",
				"label": "mapping(address => mapping(string => bool))",
				"numberOfBytes": "32",
				"value": "t_mapping(t_string_memory_ptr,t_bool)"
			},
			"t_mapping(t_string_memory_ptr,t_array(t_struct(Vote)24_storage)dyn_storage)": {
				"encoding": "mapping",
				"key": "t_string_memory_ptr",
				"label": "mapping(string => struct CivicIssueTracker.Vote[])",
				"numberOfBytes": "32",
				"value": "t_array(t_struct(Vote)24_storage)dyn_storage"
			},
			"t_mapping(t_string_memory_ptr,t_bool)": {
				"encoding": "mapping",
				"key": "t_string_memory_ptr",
				"label": "mapping(string => bool)",
				"numberOfBytes": "32",
				"value": "t_bool"
			},
			"t_mapping(t_string_memory_ptr,t_struct(Issue)15_storage)": {
				"encoding": "mapping",
				"key": "t_string_memory_ptr",
				"label": "mapping(string => struct CivicIssueTracker.Issue)",
				"numberOfBytes": "32",
				"value": "t_struct(Issue)15_storage"
			},
			"t_string_memory_ptr": {
				"encoding": "bytes",
				"label": "string",
				"numberOfBytes": "32"
			},
			"t_string_storage": {
				"encoding": "bytes",
				"label": "string",
				"numberOfBytes": "32"
			},
			"t_struct(Issue)15_storage": {
				"encoding": "inplace",
				"label": "struct CivicIssueTracker.Issue",
				"members": [
					{
						"astId": 4,
						"contract": "CivicIssueTracker.sol:CivicIssueTracker",
						"label": "issueId",
						"offset": 0,
						"slot": "0",
						"type": "t_string_storage"
					},
					{
						"astId": 6,
						"contract": "CivicIssueTracker.sol:CivicIssueTracker",
						"label": "title",
						"offset": 0,
						"slot": "1",
						"type": "t_string_storage"
					},
					{
						"astId": 8,
						"contract": "CivicIssueTracker.sol:CivicIssueTracker",
						"label": "reportedBy",
						"offset": 0,
						"slot": "2",
						"type": "t_address"
					},
					{
						"astId": 10,
						"contract": "CivicIssueTracker.sol:CivicIssueTracker",
						"label": "timestamp",
						"offset": 0,
						"slot": "3",
						"type": "t_uint256"
					},
					{
						"astId": 12,
						"contract": "CivicIssueTracker.sol:CivicIssueTracker",
						"label": "voteCount",
						"offset": 0,
						"slot": "4",
						"type": "t_uint256"
					},
					{
						"astId": 14,
						"contract": "CivicIssueTracker.sol:CivicIssueTracker",
						"label": "exists",
						"offset": 0,
						"slot": "5",
						"type": "t_bool"
					}
				],
				"numberOfBytes": "192"
			},
			"t_struct(Vote)24_storage": {
				"encoding": "inplace",
				"label": "struct CivicIssueTracker.Vote",
				"members": [
					{
						"astId": 17,
						"contract": "CivicIssueTracker.sol:CivicIssueTracker",
						"label": "voter",
						"offset": 0,
						"slot": "0",
						"type": "t_address"
					},
					{
						"astId": 19,
						"contract": "CivicIssueTracker.sol:CivicIssueTracker",
						"label": "issueId",
						"offset": 0,
						"slot": "1",
						"type": "t_string_storage"
					},
					{
						"astId": 21,
						"contract": "CivicIssueTracker.sol:CivicIssueTracker",
						"label": "timestamp",
						"offset": 0,
						"slot": "2",
						"type": "t_uint256"
					},
					{
						"astId": 23,
						"contract": "CivicIssueTracker.sol:CivicIssueTracker",
						"label": "support",
						"offset": 0,
						"slot": "3",
						"type": "t_bool"
					}
				],
				"numberOfBytes": "128"
			},
			"t_uint256": {
				"encoding": "inplace",
				"label": "uint256",
				"numberOfBytes": "32"
			}
		}
	},
	"web3Deploy": "var civicissuetrackerContract = new web3.eth.Contract([{\"anonymous\":false,\"inputs\":[{\"indexed\":true,\"internalType\":\"string\",\"name\":\"issueId\",\"type\":\"string\"},{\"indexed\":false,\"internalType\":\"string\",\"name\":\"title\",\"type\":\"string\"},{\"indexed\":true,\"internalType\":\"address\",\"name\":\"reportedBy\",\"type\":\"address\"},{\"indexed\":false,\"internalType\":\"uint256\",\"name\":\"timestamp\",\"type\":\"uint256\"}],\"name\":\"IssueRecorded\",\"type\":\"event\"},{\"anonymous\":false,\"inputs\":[{\"indexed\":true,\"internalType\":\"string\",\"name\":\"issueId\",\"type\":\"string\"},{\"indexed\":false,\"internalType\":\"string\",\"name\":\"newStatus\",\"type\":\"string\"},{\"indexed\":false,\"internalType\":\"uint256\",\"name\":\"timestamp\",\"type\":\"uint256\"}],\"name\":\"IssueStatusUpdated\",\"type\":\"event\"},{\"anonymous\":false,\"inputs\":[{\"indexed\":true,\"internalType\":\"string\",\"name\":\"issueId\",\"type\":\"string\"},{\"indexed\":true,\"internalType\":\"address\",\"name\":\"voter\",\"type\":\"address\"},{\"indexed\":false,\"internalType\":\"bool\",\"name\":\"support\",\"type\":\"bool\"},{\"indexed\":false,\"internalType\":\"uint256\",\"name\":\"timestamp\",\"type\":\"uint256\"}],\"name\":\"VoteRecorded\",\"type\":\"event\"},{\"inputs\":[{\"internalType\":\"uint256\",\"name\":\"\",\"type\":\"uint256\"}],\"name\":\"allIssueIds\",\"outputs\":[{\"internalType\":\"string\",\"name\":\"\",\"type\":\"string\"}],\"stateMutability\":\"view\",\"type\":\"function\"},{\"inputs\":[{\"internalType\":\"address\",\"name\":\"_user\",\"type\":\"address\"},{\"internalType\":\"string\",\"name\":\"_issueId\",\"type\":\"string\"}],\"name\":\"checkIfVoted\",\"outputs\":[{\"internalType\":\"bool\",\"name\":\"\",\"type\":\"bool\"}],\"stateMutability\":\"view\",\"type\":\"function\"},{\"inputs\":[{\"internalType\":\"uint256\",\"name\":\"_offset\",\"type\":\"uint256\"},{\"internalType\":\"uint256\",\"name\":\"_limit\",\"type\":\"uint256\"}],\"name\":\"getAllIssues\",\"outputs\":[{\"internalType\":\"string[]\",\"name\":\"\",\"type\":\"string[]\"}],\"stateMutability\":\"view\",\"type\":\"function\"},{\"inputs\":[{\"internalType\":\"string\",\"name\":\"_issueId\",\"type\":\"string\"}],\"name\":\"getIssue\",\"outputs\":[{\"internalType\":\"string\",\"name\":\"issueId\",\"type\":\"string\"},{\"internalType\":\"string\",\"name\":\"title\",\"type\":\"string\"},{\"internalType\":\"address\",\"name\":\"reportedBy\",\"type\":\"address\"},{\"internalType\":\"uint256\",\"name\":\"timestamp\",\"type\":\"uint256\"},{\"internalType\":\"uint256\",\"name\":\"voteCount\",\"type\":\"uint256\"},{\"internalType\":\"bool\",\"name\":\"exists\",\"type\":\"bool\"}],\"stateMutability\":\"view\",\"type\":\"function\"},{\"inputs\":[{\"internalType\":\"string\",\"name\":\"_issueId\",\"type\":\"string\"}],\"name\":\"getIssueVotes\",\"outputs\":[{\"components\":[{\"internalType\":\"address\",\"name\":\"voter\",\"type\":\"address\"},{\"internalType\":\"string\",\"name\":\"issueId\",\"type\":\"string\"},{\"internalType\":\"uint256\",\"name\":\"timestamp\",\"type\":\"uint256\"},{\"internalType\":\"bool\",\"name\":\"support\",\"type\":\"bool\"}],\"internalType\":\"struct CivicIssueTracker.Vote[]\",\"name\":\"\",\"type\":\"tuple[]\"}],\"stateMutability\":\"view\",\"type\":\"function\"},{\"inputs\":[],\"name\":\"getTotalIssues\",\"outputs\":[{\"internalType\":\"uint256\",\"name\":\"\",\"type\":\"uint256\"}],\"stateMutability\":\"view\",\"type\":\"function\"},{\"inputs\":[{\"internalType\":\"address\",\"name\":\"_user\",\"type\":\"address\"}],\"name\":\"getUserIssues\",\"outputs\":[{\"internalType\":\"string[]\",\"name\":\"\",\"type\":\"string[]\"}],\"stateMutability\":\"view\",\"type\":\"function\"},{\"inputs\":[{\"internalType\":\"string\",\"name\":\"_issueId\",\"type\":\"string\"}],\"name\":\"getVoteCount\",\"outputs\":[{\"internalType\":\"uint256\",\"name\":\"\",\"type\":\"uint256\"}],\"stateMutability\":\"view\",\"type\":\"function\"},{\"inputs\":[{\"internalType\":\"address\",\"name\":\"\",\"type\":\"address\"},{\"internalType\":\"string\",\"name\":\"\",\"type\":\"string\"}],\"name\":\"hasVoted\",\"outputs\":[{\"internalType\":\"bool\",\"name\":\"\",\"type\":\"bool\"}],\"stateMutability\":\"view\",\"type\":\"function\"},{\"inputs\":[{\"internalType\":\"string\",\"name\":\"\",\"type\":\"string\"},{\"internalType\":\"uint256\",\"name\":\"\",\"type\":\"uint256\"}],\"name\":\"issueVotes\",\"outputs\":[{\"internalType\":\"address\",\"name\":\"voter\",\"type\":\"address\"},{\"internalType\":\"string\",\"name\":\"issueId\",\"type\":\"string\"},{\"internalType\":\"uint256\",\"name\":\"timestamp\",\"type\":\"uint256\"},{\"internalType\":\"bool\",\"name\":\"support\",\"type\":\"bool\"}],\"stateMutability\":\"view\",\"type\":\"function\"},{\"inputs\":[{\"internalType\":\"string\",\"name\":\"\",\"type\":\"string\"}],\"name\":\"issues\",\"outputs\":[{\"internalType\":\"string\",\"name\":\"issueId\",\"type\":\"string\"},{\"internalType\":\"string\",\"name\":\"title\",\"type\":\"string\"},{\"internalType\":\"address\",\"name\":\"reportedBy\",\"type\":\"address\"},{\"internalType\":\"uint256\",\"name\":\"timestamp\",\"type\":\"uint256\"},{\"internalType\":\"uint256\",\"name\":\"voteCount\",\"type\":\"uint256\"},{\"internalType\":\"bool\",\"name\":\"exists\",\"type\":\"bool\"}],\"stateMutability\":\"view\",\"type\":\"function\"},{\"inputs\":[{\"internalType\":\"string\",\"name\":\"_issueId\",\"type\":\"string\"},{\"internalType\":\"string\",\"name\":\"_title\",\"type\":\"string\"}],\"name\":\"recordIssue\",\"outputs\":[],\"stateMutability\":\"nonpayable\",\"type\":\"function\"},{\"inputs\":[{\"internalType\":\"string\",\"name\":\"_issueId\",\"type\":\"string\"},{\"internalType\":\"bool\",\"name\":\"_support\",\"type\":\"bool\"}],\"name\":\"recordVote\",\"outputs\":[],\"stateMutability\":\"nonpayable\",\"type\":\"function\"},{\"inputs\":[{\"internalType\":\"address\",\"name\":\"\",\"type\":\"address\"},{\"internalType\":\"uint256\",\"name\":\"\",\"type\":\"uint256\"}],\"name\":\"userIssues\",\"outputs\":[{\"internalType\":\"string\",\"name\":\"\",\"type\":\"string\"}],\"stateMutability\":\"view\",\"type\":\"function\"}]);\nvar civicissuetracker = civicissuetrackerContract.deploy({\n     data: '0x608060405234801561001057600080fd5b5061248c806100206000396000f3fe608060405234801561001057600080fd5b50600436106100e95760003560e01c8063893768691161008c578063c684706011610066578063c6847060146102ae578063e38ba436146102de578063f62ef4b614610313578063f81e08c614610331576100e9565b8063893768691461022f5780639c667c7d146102625780639ebd26771461027e576100e9565b806331f4fff0116100c857806331f4fff01461016a5780633535ca9a1461019a5780634b098976146101ca578063814a1096146101fa576100e9565b8062f2eac2146100ee578063069953a71461010a578063287de3621461013a575b600080fd5b610108600480360381019061010391906118e7565b610361565b005b610124600480360381019061011f91906118a6565b6106aa565b60405161013191906120be565b60405180910390f35b610154600480360381019061014f919061186a565b610742565b6040516101619190611f3d565b60405180910390f35b610184600480360381019061017f91906119fb565b6107fb565b6040516101919190611f3d565b60405180910390f35b6101b460048036038101906101af91906117ed565b6108a7565b6040516101c19190611eb5565b60405180910390f35b6101e460048036038101906101df9190611816565b6109bf565b6040516101f19190611ef9565b60405180910390f35b610214600480360381019061020f91906118a6565b610a32565b60405161022696959493929190611f5f565b60405180910390f35b610249600480360381019061024491906119a7565b610c44565b6040516102599493929190611e69565b60405180910390f35b61027c6004803603810190610277919061193b565b610d5c565b005b61029860048036038101906102939190611a24565b61108f565b6040516102a59190611eb5565b60405180910390f35b6102c860048036038101906102c39190611816565b6112ca565b6040516102d59190611ef9565b60405180910390f35b6102f860048036038101906102f391906118a6565b61130f565b60405161030a96959493929190611f5f565b60405180910390f35b61031b61149e565b60405161032891906120be565b60405180910390f35b61034b600480360381019061034691906118a6565b6114ab565b6040516103589190611ed7565b60405180910390f35b6000826040516103719190611e52565b908152602001604051809103902060050160009054906101000a900460ff166103cf576040517f08c379a00000000000000000000000000000000000000000000000000000000081526004016103c69061201e565b60405180910390fd5b600360003373ffffffffffffffffffffffffffffffffffffffff1673ffffffffffffffffffffffffffffffffffffffff1681526020019081526020016000208260405161041c9190611e52565b908152602001604051809103902060009054906101000a900460ff1615610478576040517f08c379a000000000000000000000000000000000000000000000000000000000815260040161046f90611ffe565b60405180910390fd5b600060405180608001604052803373ffffffffffffffffffffffffffffffffffffffff16815260200184815260200142815260200183151581525090506001836040516104c59190611e52565b908152602001604051809103902081908060018154018082558091505060019003906000526020600020906004020160009091909190915060008201518160000160006101000a81548173ffffffffffffffffffffffffffffffffffffffff021916908373ffffffffffffffffffffffffffffffffffffffff16021790555060208201518160010190805190602001906105609291906116a3565b506040820151816002015560608201518160030160006101000a81548160ff02191690831515021790555050506001600360003373ffffffffffffffffffffffffffffffffffffffff1673ffffffffffffffffffffffffffffffffffffffff168152602001908152602001600020846040516105dc9190611e52565b908152602001604051809103902060006101000a81548160ff021916908315150217905550811561063f576000836040516106179190611e52565b908152602001604051809103902060040160008154809291906106399061232a565b91905055505b3373ffffffffffffffffffffffffffffffffffffffff16836040516106649190611e52565b60405180910390207f198e3ed8d34bb0748a994aa3dec83be23391b16a3539119f912746564bd35533844260405161069d929190611f14565b60405180910390a3505050565b600080826040516106bb9190611e52565b908152602001604051809103902060050160009054906101000a900460ff16610719576040517f08c379a00000000000000000000000000000000000000000000000000000000081526004016107109061201e565b60405180910390fd5b6000826040516107299190611e52565b9081526020016040518091039020600401549050919050565b6002602052816000526040600020818154811061075e57600080fd5b9060005260206000200160009150915050805461077a906122f8565b80601f01602080910402602001604051908101604052809291908181526020018280546107a6906122f8565b80156107f35780601f106107c8576101008083540402835291602001916107f3565b820191906000526020600020905b8154815290600101906020018083116107d657829003601f168201915b505050505081565b6004818154811061080b57600080fd5b906000526020600020016000915090508054610826906122f8565b80601f0160208091040260200160405190810160405280929190818152602001828054610852906122f8565b801561089f5780601f106108745761010080835404028352916020019161089f565b820191906000526020600020905b81548152906001019060200180831161088257829003601f168201915b505050505081565b6060600260008373ffffffffffffffffffffffffffffffffffffffff1673ffffffffffffffffffffffffffffffffffffffff168152602001908152602001600020805480602002602001604051908101604052809291908181526020016000905b828210156109b4578382906000526020600020018054610927906122f8565b80601f0160208091040260200160405190810160405280929190818152602001828054610953906122f8565b80156109a05780601f10610975576101008083540402835291602001916109a0565b820191906000526020600020905b81548152906001019060200180831161098357829003601f168201915b505050505081526020019060010190610908565b505050509050919050565b6000600360008473ffffffffffffffffffffffffffffffffffffffff1673ffffffffffffffffffffffffffffffffffffffff16815260200190815260200160002082604051610a0e9190611e52565b908152602001604051809103902060009054906101000a900460ff16905092915050565b60608060008060008060008088604051610a4c9190611e52565b90815260200160405180910390206040518060c0016040529081600082018054610a75906122f8565b80601f0160208091040260200160405190810160405280929190818152602001828054610aa1906122f8565b8015610aee5780601f10610ac357610100808354040283529160200191610aee565b820191906000526020600020905b815481529060010190602001808311610ad157829003601f168201915b50505050508152602001600182018054610b07906122f8565b80601f0160208091040260200160405190810160405280929190818152602001828054610b33906122f8565b8015610b805780601f10610b5557610100808354040283529160200191610b80565b820191906000526020600020905b815481529060010190602001808311610b6357829003601f168201915b505050505081526020016002820160009054906101000a900473ffffffffffffffffffffffffffffffffffffffff1673ffffffffffffffffffffffffffffffffffffffff1673ffffffffffffffffffffffffffffffffffffffff16815260200160038201548152602001600482015481526020016005820160009054906101000a900460ff1615151515815250509050806000015181602001518260400151836060015184608001518560a001519650965096509650965096505091939550919395565b6001828051602081018201805184825260208301602085012081835280955050505050508181548110610c7657600080fd5b9060005260206000209060040201600091509150508060000160009054906101000a900473ffffffffffffffffffffffffffffffffffffffff1690806001018054610cc0906122f8565b80601f0160208091040260200160405190810160405280929190818152602001828054610cec906122f8565b8015610d395780601f10610d0e57610100808354040283529160200191610d39565b820191906000526020600020905b815481529060010190602001808311610d1c57829003601f168201915b5050505050908060020154908060030160009054906101000a900460ff16905084565b6000825111610da0576040517f08c379a0000000000000000000000000000000000000000000000000000000008152600401610d979061209e565b60405180910390fd5b6000815111610de4576040517f08c379a0000000000000000000000000000000000000000000000000000000008152600401610ddb9061203e565b60405180910390fd5b600082604051610df49190611e52565b908152602001604051809103902060050160009054906101000a900460ff1615610e53576040517f08c379a0000000000000000000000000000000000000000000000000000000008152600401610e4a9061205e565b60405180910390fd5b6040518060c001604052808381526020018281526020013373ffffffffffffffffffffffffffffffffffffffff1681526020014281526020016000815260200160011515815250600083604051610eaa9190611e52565b90815260200160405180910390206000820151816000019080519060200190610ed49291906116a3565b506020820151816001019080519060200190610ef19291906116a3565b5060408201518160020160006101000a81548173ffffffffffffffffffffffffffffffffffffffff021916908373ffffffffffffffffffffffffffffffffffffffff160217905550606082015181600301556080820151816004015560a08201518160050160006101000a81548160ff021916908315150217905550905050600482908060018154018082558091505060019003906000526020600020016000909190919091509080519060200190610fab9291906116a3565b50600260003373ffffffffffffffffffffffffffffffffffffffff1673ffffffffffffffffffffffffffffffffffffffff168152602001908152602001600020829080600181540180825580915050600190039060005260206000200160009091909190915090805190602001906110249291906116a3565b503373ffffffffffffffffffffffffffffffffffffffff168260405161104a9190611e52565b60405180910390207f8d9e646b7be50523dbf45d232dea79bf57ed2ea290147f46d64d74918bcce7428342604051611083929190611fce565b60405180910390a35050565b606060048054905083106110d8576040517f08c379a00000000000000000000000000000000000000000000000000000000081526004016110cf9061207e565b60405180910390fd5b600082846110e691906121e4565b90506004805490508111156110fe5760048054905090505b6000848261110c919061223a565b67ffffffffffffffff81111561114b577f4e487b7100000000000000000000000000000000000000000000000000000000600052604160045260246000fd5b60405190808252806020026020018201604052801561117e57816020015b60608152602001906001900390816111695790505b50905060008590505b828110156112be57600481815481106111c9577f4e487b7100000000000000000000000000000000000000000000000000000000600052603260045260246000fd5b9060005260206000200180546111de906122f8565b80601f016020809104026020016040519081016040528092919081815260200182805461120a906122f8565b80156112575780601f1061122c57610100808354040283529160200191611257565b820191906000526020600020905b81548152906001019060200180831161123a57829003601f168201915b5050505050828783611269919061223a565b815181106112a0577f4e487b7100000000000000000000000000000000000000000000000000000000600052603260045260246000fd5b602002602001018190525080806112b69061232a565b915050611187565b50809250505092915050565b6003602052816000526040600020818051602081018201805184825260208301602085012081835280955050505050506000915091509054906101000a900460ff1681565b600081805160208101820180518482526020830160208501208183528095505050505050600091509050806000018054611348906122f8565b80601f0160208091040260200160405190810160405280929190818152602001828054611374906122f8565b80156113c15780601f10611396576101008083540402835291602001916113c1565b820191906000526020600020905b8154815290600101906020018083116113a457829003601f168201915b5050505050908060010180546113d6906122f8565b80601f0160208091040260200160405190810160405280929190818152602001828054611402906122f8565b801561144f5780601f106114245761010080835404028352916020019161144f565b820191906000526020600020905b81548152906001019060200180831161143257829003601f168201915b5050505050908060020160009054906101000a900473ffffffffffffffffffffffffffffffffffffffff16908060030154908060040154908060050160009054906101000a900460ff16905086565b6000600480549050905090565b60606000826040516114bd9190611e52565b908152602001604051809103902060050160009054906101000a900460ff1661151b576040517f08c379a00000000000000000000000000000000000000000000000000000000081526004016115129061201e565b60405180910390fd5b60018260405161152b9190611e52565b9081526020016040518091039020805480602002602001604051908101604052809291908181526020016000905b8282101561169857838290600052602060002090600402016040518060800160405290816000820160009054906101000a900473ffffffffffffffffffffffffffffffffffffffff1673ffffffffffffffffffffffffffffffffffffffff1673ffffffffffffffffffffffffffffffffffffffff1681526020016001820180546115e2906122f8565b80601f016020809104026020016040519081016040528092919081815260200182805461160e906122f8565b801561165b5780601f106116305761010080835404028352916020019161165b565b820191906000526020600020905b81548152906001019060200180831161163e57829003601f168201915b50505050508152602001600282015481526020016003820160009054906101000a900460ff16151515158152505081526020019060010190611559565b505050509050919050565b8280546116af906122f8565b90600052602060002090601f0160209004810192826116d15760008555611718565b82601f106116ea57805160ff1916838001178555611718565b82800160010185558215611718579182015b828111156117175782518255916020019190600101906116fc565b5b5090506117259190611729565b5090565b5b8082111561174257600081600090555060010161172a565b5090565b60006117596117548461210a565b6120d9565b90508281526020810184848401111561177157600080fd5b61177c8482856122b6565b509392505050565b60008135905061179381612411565b92915050565b6000813590506117a881612428565b92915050565b600082601f8301126117bf57600080fd5b81356117cf848260208601611746565b91505092915050565b6000813590506117e78161243f565b92915050565b6000602082840312156117ff57600080fd5b600061180d84828501611784565b91505092915050565b6000806040838503121561182957600080fd5b600061183785828601611784565b925050602083013567ffffffffffffffff81111561185457600080fd5b611860858286016117ae565b9150509250929050565b6000806040838503121561187d57600080fd5b600061188b85828601611784565b925050602061189c858286016117d8565b9150509250929050565b6000602082840312156118b857600080fd5b600082013567ffffffffffffffff8111156118d257600080fd5b6118de848285016117ae565b91505092915050565b600080604083850312156118fa57600080fd5b600083013567ffffffffffffffff81111561191457600080fd5b611920858286016117ae565b925050602061193185828601611799565b9150509250929050565b6000806040838503121561194e57600080fd5b600083013567ffffffffffffffff81111561196857600080fd5b611974858286016117ae565b925050602083013567ffffffffffffffff81111561199157600080fd5b61199d858286016117ae565b9150509250929050565b600080604083850312156119ba57600080fd5b600083013567ffffffffffffffff8111156119d457600080fd5b6119e0858286016117ae565b92505060206119f1858286016117d8565b9150509250929050565b600060208284031215611a0d57600080fd5b6000611a1b848285016117d8565b91505092915050565b60008060408385031215611a3757600080fd5b6000611a45858286016117d8565b9250506020611a56858286016117d8565b9150509250929050565b6000611a6c8383611bae565b905092915050565b6000611a808383611dd1565b905092915050565b611a918161226e565b82525050565b611aa08161226e565b82525050565b6000611ab18261215a565b611abb8185612195565b935083602082028501611acd8561213a565b8060005b85811015611b095784840389528151611aea8582611a60565b9450611af58361217b565b925060208a01995050600181019050611ad1565b50829750879550505050505092915050565b6000611b2682612165565b611b3081856121a6565b935083602082028501611b428561214a565b8060005b85811015611b7e5784840389528151611b5f8582611a74565b9450611b6a83612188565b925060208a01995050600181019050611b46565b50829750879550505050505092915050565b611b9981612280565b82525050565b611ba881612280565b82525050565b6000611bb982612170565b611bc381856121b7565b9350611bd38185602086016122c5565b611bdc81612400565b840191505092915050565b6000611bf282612170565b611bfc81856121c8565b9350611c0c8185602086016122c5565b611c1581612400565b840191505092915050565b6000611c2b82612170565b611c3581856121d9565b9350611c458185602086016122c5565b80840191505092915050565b6000611c5e601b836121c8565b91507f416c726561647920766f746564206f6e207468697320697373756500000000006000830152602082019050919050565b6000611c9e6014836121c8565b91507f497373756520646f6573206e6f742065786973740000000000000000000000006000830152602082019050919050565b6000611cde6015836121c8565b91507f5469746c652063616e6e6f7420626520656d70747900000000000000000000006000830152602082019050919050565b6000611d1e6016836121c8565b91507f497373756520616c7265616479207265636f72646564000000000000000000006000830152602082019050919050565b6000611d5e6014836121c8565b91507f4f6666736574206f7574206f6620626f756e64730000000000000000000000006000830152602082019050919050565b6000611d9e6018836121c8565b91507f49737375652049442063616e6e6f7420626520656d70747900000000000000006000830152602082019050919050565b6000608083016000830151611de96000860182611a88565b5060208301518482036020860152611e018282611bae565b9150506040830151611e166040860182611e34565b506060830151611e296060860182611b90565b508091505092915050565b611e3d816122ac565b82525050565b611e4c816122ac565b82525050565b6000611e5e8284611c20565b915081905092915050565b6000608082019050611e7e6000830187611a97565b8181036020830152611e908186611be7565b9050611e9f6040830185611e43565b611eac6060830184611b9f565b95945050505050565b60006020820190508181036000830152611ecf8184611aa6565b905092915050565b60006020820190508181036000830152611ef18184611b1b565b905092915050565b6000602082019050611f0e6000830184611b9f565b92915050565b6000604082019050611f296000830185611b9f565b611f366020830184611e43565b9392505050565b60006020820190508181036000830152611f578184611be7565b905092915050565b600060c0820190508181036000830152611f798189611be7565b90508181036020830152611f8d8188611be7565b9050611f9c6040830187611a97565b611fa96060830186611e43565b611fb66080830185611e43565b611fc360a0830184611b9f565b979650505050505050565b60006040820190508181036000830152611fe88185611be7565b9050611ff76020830184611e43565b9392505050565b6000602082019050818103600083015261201781611c51565b9050919050565b6000602082019050818103600083015261203781611c91565b9050919050565b6000602082019050818103600083015261205781611cd1565b9050919050565b6000602082019050818103600083015261207781611d11565b9050919050565b6000602082019050818103600083015261209781611d51565b9050919050565b600060208201905081810360008301526120b781611d91565b9050919050565b60006020820190506120d36000830184611e43565b92915050565b6000604051905081810181811067ffffffffffffffff82111715612100576120ff6123d1565b5b8060405250919050565b600067ffffffffffffffff821115612125576121246123d1565b5b601f19601f8301169050602081019050919050565b6000819050602082019050919050565b6000819050602082019050919050565b600081519050919050565b600081519050919050565b600081519050919050565b6000602082019050919050565b6000602082019050919050565b600082825260208201905092915050565b600082825260208201905092915050565b600082825260208201905092915050565b600082825260208201905092915050565b600081905092915050565b60006121ef826122ac565b91506121fa836122ac565b9250827fffffffffffffffffffffffffffffffffffffffffffffffffffffffffffffffff0382111561222f5761222e612373565b5b828201905092915050565b6000612245826122ac565b9150612250836122ac565b92508282101561226357612262612373565b5b828203905092915050565b60006122798261228c565b9050919050565b60008115159050919050565b600073ffffffffffffffffffffffffffffffffffffffff82169050919050565b6000819050919050565b82818337600083830152505050565b60005b838110156122e35780820151818401526020810190506122c8565b838111156122f2576000848401525b50505050565b6000600282049050600182168061231057607f821691505b60208210811415612324576123236123a2565b5b50919050565b6000612335826122ac565b91507fffffffffffffffffffffffffffffffffffffffffffffffffffffffffffffffff82141561236857612367612373565b5b600182019050919050565b7f4e487b7100000000000000000000000000000000000000000000000000000000600052601160045260246000fd5b7f4e487b7100000000000000000000000000000000000000000000000000000000600052602260045260246000fd5b7f4e487b7100000000000000000000000000000000000000000000000000000000600052604160045260246000fd5b6000601f19601f8301169050919050565b61241a8161226e565b811461242557600080fd5b50565b61243181612280565b811461243c57600080fd5b50565b612448816122ac565b811461245357600080fd5b5056fea2646970667358221220f3a9922b9519ae6be95caa773d5d2be09dade3f09c63b8b25f77703f533d8b6a64736f6c63430008000033', \n     arguments: [\n     ]\n}).send({\n     from: web3.eth.accounts[0], \n     gas: '4700000'\n   }, function (e, contract){\n    console.log(e, contract);\n    if (typeof contract.address !== 'undefined') {\n         console.log('Contract mined! address: ' + contract.address + ' transactionHash: ' + contract.transactionHash);\n    }\n })",
	"functionHashes": {
		"89376869": "issueVotes(string,uint256)",
		"31f4fff0": "allIssueIds(uint256)",
		"4b098976": "checkIfVoted(address,string)",
		"9ebd2677": "getAllIssues(uint256,uint256)",
		"814a1096": "getIssue(string)",
		"f81e08c6": "getIssueVotes(string)",
		"f62ef4b6": "getTotalIssues()",
		"3535ca9a": "getUserIssues(address)",
		"069953a7": "getVoteCount(string)",
		"c6847060": "hasVoted(address,string)",
		"e38ba436": "issues(string)",
		"9c667c7d": "recordIssue(string,string)",
		"00f2eac2": "recordVote(string,bool)",
		"287de362": "userIssues(address,uint256)"
	},
	"gasEstimates": {
		"Creation": {
			"codeDepositCost": "1871200",
			"executionCost": "1976",
			"totalCost": "1873176"
		},
		"External": {
			"allIssueIds(uint256)": "infinite",
			"checkIfVoted(address,string)": "infinite",
			"getAllIssues(uint256,uint256)": "infinite",
			"getIssue(string)": "infinite",
			"getIssueVotes(string)": "infinite",
			"getTotalIssues()": "1211",
			"getUserIssues(address)": "infinite",
			"getVoteCount(string)": "infinite",
			"hasVoted(address,string)": "infinite",
			"issueVotes(string,uint256)": "infinite",
			"issues(string)": "infinite",
			"recordIssue(string,string)": "infinite",
			"recordVote(string,bool)": "infinite",
			"userIssues(address,uint256)": "infinite"
		}
	},
	"devdoc": {
		"details": "Smart contract for transparent civic issue tracking and voting",
		"kind": "dev",
		"methods": {
			"checkIfVoted(address,string)": {
				"details": "Check if user has voted on an issue",
				"params": {
					"_issueId": "Issue ID",
					"_user": "User address"
				}
			},
			"getAllIssues(uint256,uint256)": {
				"details": "Get all issue IDs (paginated)",
				"params": {
					"_limit": "Number of records to return",
					"_offset": "Starting index"
				}
			},
			"getIssue(string)": {
				"details": "Get issue details",
				"params": {
					"_issueId": "Issue ID to query"
				}
			},
			"getIssueVotes(string)": {
				"details": "Get all votes for an issue",
				"params": {
					"_issueId": "Issue ID to query"
				}
			},
			"getTotalIssues()": {
				"details": "Get total number of issues recorded"
			},
			"getUserIssues(address)": {
				"details": "Get all issues reported by a user",
				"params": {
					"_user": "User address to query"
				}
			},
			"getVoteCount(string)": {
				"details": "Get vote count for an issue",
				"params": {
					"_issueId": "Issue ID to query"
				}
			},
			"recordIssue(string,string)": {
				"details": "Record a new civic issue on the blockchain",
				"params": {
					"_issueId": "MongoDB ObjectId of the issue",
					"_title": "Title of the issue (max 100 chars)"
				}
			},
			"recordVote(string,bool)": {
				"details": "Record a vote on an issue",
				"params": {
					"_issueId": "Issue to vote on",
					"_support": "True for upvote, false for downvote"
				}
			}
		},
		"title": "CivicIssueTracker",
		"version": 1
	},
	"userdoc": {
		"kind": "user",
		"methods": {},
		"version": 1
	},
	"Runtime Bytecode": {
		"immutableReferences": {},
		"linkReferences": {},
		"object": "608060405234801561001057600080fd5b50600436106100e95760003560e01c8063893768691161008c578063c684706011610066578063c6847060146102ae578063e38ba436146102de578063f62ef4b614610313578063f81e08c614610331576100e9565b8063893768691461022f5780639c667c7d146102625780639ebd26771461027e576100e9565b806331f4fff0116100c857806331f4fff01461016a5780633535ca9a1461019a5780634b098976146101ca578063814a1096146101fa576100e9565b8062f2eac2146100ee578063069953a71461010a578063287de3621461013a575b600080fd5b610108600480360381019061010391906118e7565b610361565b005b610124600480360381019061011f91906118a6565b6106aa565b60405161013191906120be565b60405180910390f35b610154600480360381019061014f919061186a565b610742565b6040516101619190611f3d565b60405180910390f35b610184600480360381019061017f91906119fb565b6107fb565b6040516101919190611f3d565b60405180910390f35b6101b460048036038101906101af91906117ed565b6108a7565b6040516101c19190611eb5565b60405180910390f35b6101e460048036038101906101df9190611816565b6109bf565b6040516101f19190611ef9565b60405180910390f35b610214600480360381019061020f91906118a6565b610a32565b60405161022696959493929190611f5f565b60405180910390f35b610249600480360381019061024491906119a7565b610c44565b6040516102599493929190611e69565b60405180910390f35b61027c6004803603810190610277919061193b565b610d5c565b005b61029860048036038101906102939190611a24565b61108f565b6040516102a59190611eb5565b60405180910390f35b6102c860048036038101906102c39190611816565b6112ca565b6040516102d59190611ef9565b60405180910390f35b6102f860048036038101906102f391906118a6565b61130f565b60405161030a96959493929190611f5f565b60405180910390f35b61031b61149e565b60405161032891906120be565b60405180910390f35b61034b600480360381019061034691906118a6565b6114ab565b6040516103589190611ed7565b60405180910390f35b6000826040516103719190611e52565b908152602001604051809103902060050160009054906101000a900460ff166103cf576040517f08c379a00000000000000000000000000000000000000000000000000000000081526004016103c69061201e565b60405180910390fd5b600360003373ffffffffffffffffffffffffffffffffffffffff1673ffffffffffffffffffffffffffffffffffffffff1681526020019081526020016000208260405161041c9190611e52565b908152602001604051809103902060009054906101000a900460ff1615610478576040517f08c379a000000000000000000000000000000000000000000000000000000000815260040161046f90611ffe565b60405180910390fd5b600060405180608001604052803373ffffffffffffffffffffffffffffffffffffffff16815260200184815260200142815260200183151581525090506001836040516104c59190611e52565b908152602001604051809103902081908060018154018082558091505060019003906000526020600020906004020160009091909190915060008201518160000160006101000a81548173ffffffffffffffffffffffffffffffffffffffff021916908373ffffffffffffffffffffffffffffffffffffffff16021790555060208201518160010190805190602001906105609291906116a3565b506040820151816002015560608201518160030160006101000a81548160ff02191690831515021790555050506001600360003373ffffffffffffffffffffffffffffffffffffffff1673ffffffffffffffffffffffffffffffffffffffff168152602001908152602001600020846040516105dc9190611e52565b908152602001604051809103902060006101000a81548160ff021916908315150217905550811561063f576000836040516106179190611e52565b908152602001604051809103902060040160008154809291906106399061232a565b91905055505b3373ffffffffffffffffffffffffffffffffffffffff16836040516106649190611e52565b60405180910390207f198e3ed8d34bb0748a994aa3dec83be23391b16a3539119f912746564bd35533844260405161069d929190611f14565b60405180910390a3505050565b600080826040516106bb9190611e52565b908152602001604051809103902060050160009054906101000a900460ff16610719576040517f08c379a00000000000000000000000000000000000000000000000000000000081526004016107109061201e565b60405180910390fd5b6000826040516107299190611e52565b9081526020016040518091039020600401549050919050565b6002602052816000526040600020818154811061075e57600080fd5b9060005260206000200160009150915050805461077a906122f8565b80601f01602080910402602001604051908101604052809291908181526020018280546107a6906122f8565b80156107f35780601f106107c8576101008083540402835291602001916107f3565b820191906000526020600020905b8154815290600101906020018083116107d657829003601f168201915b505050505081565b6004818154811061080b57600080fd5b906000526020600020016000915090508054610826906122f8565b80601f0160208091040260200160405190810160405280929190818152602001828054610852906122f8565b801561089f5780601f106108745761010080835404028352916020019161089f565b820191906000526020600020905b81548152906001019060200180831161088257829003601f168201915b505050505081565b6060600260008373ffffffffffffffffffffffffffffffffffffffff1673ffffffffffffffffffffffffffffffffffffffff168152602001908152602001600020805480602002602001604051908101604052809291908181526020016000905b828210156109b4578382906000526020600020018054610927906122f8565b80601f0160208091040260200160405190810160405280929190818152602001828054610953906122f8565b80156109a05780601f10610975576101008083540402835291602001916109a0565b820191906000526020600020905b81548152906001019060200180831161098357829003601f168201915b505050505081526020019060010190610908565b505050509050919050565b6000600360008473ffffffffffffffffffffffffffffffffffffffff1673ffffffffffffffffffffffffffffffffffffffff16815260200190815260200160002082604051610a0e9190611e52565b908152602001604051809103902060009054906101000a900460ff16905092915050565b60608060008060008060008088604051610a4c9190611e52565b90815260200160405180910390206040518060c0016040529081600082018054610a75906122f8565b80601f0160208091040260200160405190810160405280929190818152602001828054610aa1906122f8565b8015610aee5780601f10610ac357610100808354040283529160200191610aee565b820191906000526020600020905b815481529060010190602001808311610ad157829003601f168201915b50505050508152602001600182018054610b07906122f8565b80601f0160208091040260200160405190810160405280929190818152602001828054610b33906122f8565b8015610b805780601f10610b5557610100808354040283529160200191610b80565b820191906000526020600020905b815481529060010190602001808311610b6357829003601f168201915b505050505081526020016002820160009054906101000a900473ffffffffffffffffffffffffffffffffffffffff1673ffffffffffffffffffffffffffffffffffffffff1673ffffffffffffffffffffffffffffffffffffffff16815260200160038201548152602001600482015481526020016005820160009054906101000a900460ff1615151515815250509050806000015181602001518260400151836060015184608001518560a001519650965096509650965096505091939550919395565b6001828051602081018201805184825260208301602085012081835280955050505050508181548110610c7657600080fd5b9060005260206000209060040201600091509150508060000160009054906101000a900473ffffffffffffffffffffffffffffffffffffffff1690806001018054610cc0906122f8565b80601f0160208091040260200160405190810160405280929190818152602001828054610cec906122f8565b8015610d395780601f10610d0e57610100808354040283529160200191610d39565b820191906000526020600020905b815481529060010190602001808311610d1c57829003601f168201915b5050505050908060020154908060030160009054906101000a900460ff16905084565b6000825111610da0576040517f08c379a0000000000000000000000000000000000000000000000000000000008152600401610d979061209e565b60405180910390fd5b6000815111610de4576040517f08c379a0000000000000000000000000000000000000000000000000000000008152600401610ddb9061203e565b60405180910390fd5b600082604051610df49190611e52565b908152602001604051809103902060050160009054906101000a900460ff1615610e53576040517f08c379a0000000000000000000000000000000000000000000000000000000008152600401610e4a9061205e565b60405180910390fd5b6040518060c001604052808381526020018281526020013373ffffffffffffffffffffffffffffffffffffffff1681526020014281526020016000815260200160011515815250600083604051610eaa9190611e52565b90815260200160405180910390206000820151816000019080519060200190610ed49291906116a3565b506020820151816001019080519060200190610ef19291906116a3565b5060408201518160020160006101000a81548173ffffffffffffffffffffffffffffffffffffffff021916908373ffffffffffffffffffffffffffffffffffffffff160217905550606082015181600301556080820151816004015560a08201518160050160006101000a81548160ff021916908315150217905550905050600482908060018154018082558091505060019003906000526020600020016000909190919091509080519060200190610fab9291906116a3565b50600260003373ffffffffffffffffffffffffffffffffffffffff1673ffffffffffffffffffffffffffffffffffffffff168152602001908152602001600020829080600181540180825580915050600190039060005260206000200160009091909190915090805190602001906110249291906116a3565b503373ffffffffffffffffffffffffffffffffffffffff168260405161104a9190611e52565b60405180910390207f8d9e646b7be50523dbf45d232dea79bf57ed2ea290147f46d64d74918bcce7428342604051611083929190611fce565b60405180910390a35050565b606060048054905083106110d8576040517f08c379a00000000000000000000000000000000000000000000000000000000081526004016110cf9061207e565b60405180910390fd5b600082846110e691906121e4565b90506004805490508111156110fe5760048054905090505b6000848261110c919061223a565b67ffffffffffffffff81111561114b577f4e487b7100000000000000000000000000000000000000000000000000000000600052604160045260246000fd5b60405190808252806020026020018201604052801561117e57816020015b60608152602001906001900390816111695790505b50905060008590505b828110156112be57600481815481106111c9577f4e487b7100000000000000000000000000000000000000000000000000000000600052603260045260246000fd5b9060005260206000200180546111de906122f8565b80601f016020809104026020016040519081016040528092919081815260200182805461120a906122f8565b80156112575780601f1061122c57610100808354040283529160200191611257565b820191906000526020600020905b81548152906001019060200180831161123a57829003601f168201915b5050505050828783611269919061223a565b815181106112a0577f4e487b7100000000000000000000000000000000000000000000000000000000600052603260045260246000fd5b602002602001018190525080806112b69061232a565b915050611187565b50809250505092915050565b6003602052816000526040600020818051602081018201805184825260208301602085012081835280955050505050506000915091509054906101000a900460ff1681565b600081805160208101820180518482526020830160208501208183528095505050505050600091509050806000018054611348906122f8565b80601f0160208091040260200160405190810160405280929190818152602001828054611374906122f8565b80156113c15780601f10611396576101008083540402835291602001916113c1565b820191906000526020600020905b8154815290600101906020018083116113a457829003601f168201915b5050505050908060010180546113d6906122f8565b80601f0160208091040260200160405190810160405280929190818152602001828054611402906122f8565b801561144f5780601f106114245761010080835404028352916020019161144f565b820191906000526020600020905b81548152906001019060200180831161143257829003601f168201915b5050505050908060020160009054906101000a900473ffffffffffffffffffffffffffffffffffffffff16908060030154908060040154908060050160009054906101000a900460ff16905086565b6000600480549050905090565b60606000826040516114bd9190611e52565b908152602001604051809103902060050160009054906101000a900460ff1661151b576040517f08c379a00000000000000000000000000000000000000000000000000000000081526004016115129061201e565b60405180910390fd5b60018260405161152b9190611e52565b9081526020016040518091039020805480602002602001604051908101604052809291908181526020016000905b8282101561169857838290600052602060002090600402016040518060800160405290816000820160009054906101000a900473ffffffffffffffffffffffffffffffffffffffff1673ffffffffffffffffffffffffffffffffffffffff1673ffffffffffffffffffffffffffffffffffffffff1681526020016001820180546115e2906122f8565b80601f016020809104026020016040519081016040528092919081815260200182805461160e906122f8565b801561165b5780601f106116305761010080835404028352916020019161165b565b820191906000526020600020905b81548152906001019060200180831161163e57829003601f168201915b50505050508152602001600282015481526020016003820160009054906101000a900460ff16151515158152505081526020019060010190611559565b505050509050919050565b8280546116af906122f8565b90600052602060002090601f0160209004810192826116d15760008555611718565b82601f106116ea57805160ff1916838001178555611718565b82800160010185558215611718579182015b828111156117175782518255916020019190600101906116fc565b5b5090506117259190611729565b5090565b5b8082111561174257600081600090555060010161172a565b5090565b60006117596117548461210a565b6120d9565b90508281526020810184848401111561177157600080fd5b61177c8482856122b6565b509392505050565b60008135905061179381612411565b92915050565b6000813590506117a881612428565b92915050565b600082601f8301126117bf57600080fd5b81356117cf848260208601611746565b91505092915050565b6000813590506117e78161243f565b92915050565b6000602082840312156117ff57600080fd5b600061180d84828501611784565b91505092915050565b6000806040838503121561182957600080fd5b600061183785828601611784565b925050602083013567ffffffffffffffff81111561185457600080fd5b611860858286016117ae565b9150509250929050565b6000806040838503121561187d57600080fd5b600061188b85828601611784565b925050602061189c858286016117d8565b9150509250929050565b6000602082840312156118b857600080fd5b600082013567ffffffffffffffff8111156118d257600080fd5b6118de848285016117ae565b91505092915050565b600080604083850312156118fa57600080fd5b600083013567ffffffffffffffff81111561191457600080fd5b611920858286016117ae565b925050602061193185828601611799565b9150509250929050565b6000806040838503121561194e57600080fd5b600083013567ffffffffffffffff81111561196857600080fd5b611974858286016117ae565b925050602083013567ffffffffffffffff81111561199157600080fd5b61199d858286016117ae565b9150509250929050565b600080604083850312156119ba57600080fd5b600083013567ffffffffffffffff8111156119d457600080fd5b6119e0858286016117ae565b92505060206119f1858286016117d8565b9150509250929050565b600060208284031215611a0d57600080fd5b6000611a1b848285016117d8565b91505092915050565b60008060408385031215611a3757600080fd5b6000611a45858286016117d8565b9250506020611a56858286016117d8565b9150509250929050565b6000611a6c8383611bae565b905092915050565b6000611a808383611dd1565b905092915050565b611a918161226e565b82525050565b611aa08161226e565b82525050565b6000611ab18261215a565b611abb8185612195565b935083602082028501611acd8561213a565b8060005b85811015611b095784840389528151611aea8582611a60565b9450611af58361217b565b925060208a01995050600181019050611ad1565b50829750879550505050505092915050565b6000611b2682612165565b611b3081856121a6565b935083602082028501611b428561214a565b8060005b85811015611b7e5784840389528151611b5f8582611a74565b9450611b6a83612188565b925060208a01995050600181019050611b46565b50829750879550505050505092915050565b611b9981612280565b82525050565b611ba881612280565b82525050565b6000611bb982612170565b611bc381856121b7565b9350611bd38185602086016122c5565b611bdc81612400565b840191505092915050565b6000611bf282612170565b611bfc81856121c8565b9350611c0c8185602086016122c5565b611c1581612400565b840191505092915050565b6000611c2b82612170565b611c3581856121d9565b9350611c458185602086016122c5565b80840191505092915050565b6000611c5e601b836121c8565b91507f416c726561647920766f746564206f6e207468697320697373756500000000006000830152602082019050919050565b6000611c9e6014836121c8565b91507f497373756520646f6573206e6f742065786973740000000000000000000000006000830152602082019050919050565b6000611cde6015836121c8565b91507f5469746c652063616e6e6f7420626520656d70747900000000000000000000006000830152602082019050919050565b6000611d1e6016836121c8565b91507f497373756520616c7265616479207265636f72646564000000000000000000006000830152602082019050919050565b6000611d5e6014836121c8565b91507f4f6666736574206f7574206f6620626f756e64730000000000000000000000006000830152602082019050919050565b6000611d9e6018836121c8565b91507f49737375652049442063616e6e6f7420626520656d70747900000000000000006000830152602082019050919050565b6000608083016000830151611de96000860182611a88565b5060208301518482036020860152611e018282611bae565b9150506040830151611e166040860182611e34565b506060830151611e296060860182611b90565b508091505092915050565b611e3d816122ac565b82525050565b611e4c816122ac565b82525050565b6000611e5e8284611c20565b915081905092915050565b6000608082019050611e7e6000830187611a97565b8181036020830152611e908186611be7565b9050611e9f6040830185611e43565b611eac6060830184611b9f565b95945050505050565b60006020820190508181036000830152611ecf8184611aa6565b905092915050565b60006020820190508181036000830152611ef18184611b1b565b905092915050565b6000602082019050611f0e6000830184611b9f565b92915050565b6000604082019050611f296000830185611b9f565b611f366020830184611e43565b9392505050565b60006020820190508181036000830152611f578184611be7565b905092915050565b600060c0820190508181036000830152611f798189611be7565b90508181036020830152611f8d8188611be7565b9050611f9c6040830187611a97565b611fa96060830186611e43565b611fb66080830185611e43565b611fc360a0830184611b9f565b979650505050505050565b60006040820190508181036000830152611fe88185611be7565b9050611ff76020830184611e43565b9392505050565b6000602082019050818103600083015261201781611c51565b9050919050565b6000602082019050818103600083015261203781611c91565b9050919050565b6000602082019050818103600083015261205781611cd1565b9050919050565b6000602082019050818103600083015261207781611d11565b9050919050565b6000602082019050818103600083015261209781611d51565b9050919050565b600060208201905081810360008301526120b781611d91565b9050919050565b60006020820190506120d36000830184611e43565b92915050565b6000604051905081810181811067ffffffffffffffff82111715612100576120ff6123d1565b5b8060405250919050565b600067ffffffffffffffff821115612125576121246123d1565b5b601f19601f8301169050602081019050919050565b6000819050602082019050919050565b6000819050602082019050919050565b600081519050919050565b600081519050919050565b600081519050919050565b6000602082019050919050565b6000602082019050919050565b600082825260208201905092915050565b600082825260208201905092915050565b600082825260208201905092915050565b600082825260208201905092915050565b600081905092915050565b60006121ef826122ac565b91506121fa836122ac565b9250827fffffffffffffffffffffffffffffffffffffffffffffffffffffffffffffffff0382111561222f5761222e612373565b5b828201905092915050565b6000612245826122ac565b9150612250836122ac565b92508282101561226357612262612373565b5b828203905092915050565b60006122798261228c565b9050919050565b60008115159050919050565b600073ffffffffffffffffffffffffffffffffffffffff82169050919050565b6000819050919050565b82818337600083830152505050565b60005b838110156122e35780820151818401526020810190506122c8565b838111156122f2576000848401525b50505050565b6000600282049050600182168061231057607f821691505b60208210811415612324576123236123a2565b5b50919050565b6000612335826122ac565b91507fffffffffffffffffffffffffffffffffffffffffffffffffffffffffffffffff82141561236857612367612373565b5b600182019050919050565b7f4e487b7100000000000000000000000000000000000000000000000000000000600052601160045260246000fd5b7f4e487b7100000000000000000000000000000000000000000000000000000000600052602260045260246000fd5b7f4e487b7100000000000000000000000000000000000000000000000000000000600052604160045260246000fd5b6000601f19601f8301169050919050565b61241a8161226e565b811461242557600080fd5b50565b61243181612280565b811461243c57600080fd5b50565b612448816122ac565b811461245357600080fd5b5056fea2646970667358221220f3a9922b9519ae6be95caa773d5d2be09dade3f09c63b8b25f77703f533d8b6a64736f6c63430008000033",
		"opcodes": "PUSH1 0x80 PUSH1 0x40 MSTORE CALLVALUE DUP1 ISZERO PUSH2 0x10 JUMPI PUSH1 0x0 DUP1 REVERT JUMPDEST POP PUSH1 0x4 CALLDATASIZE LT PUSH2 0xE9 JUMPI PUSH1 0x0 CALLDATALOAD PUSH1 0xE0 SHR DUP1 PUSH4 0x89376869 GT PUSH2 0x8C JUMPI DUP1 PUSH4 0xC6847060 GT PUSH2 0x66 JUMPI DUP1 PUSH4 0xC6847060 EQ PUSH2 0x2AE JUMPI DUP1 PUSH4 0xE38BA436 EQ PUSH2 0x2DE JUMPI DUP1 PUSH4 0xF62EF4B6 EQ PUSH2 0x313 JUMPI DUP1 PUSH4 0xF81E08C6 EQ PUSH2 0x331 JUMPI PUSH2 0xE9 JUMP JUMPDEST DUP1 PUSH4 0x89376869 EQ PUSH2 0x22F JUMPI DUP1 PUSH4 0x9C667C7D EQ PUSH2 0x262 JUMPI DUP1 PUSH4 0x9EBD2677 EQ PUSH2 0x27E JUMPI PUSH2 0xE9 JUMP JUMPDEST DUP1 PUSH4 0x31F4FFF0 GT PUSH2 0xC8 JUMPI DUP1 PUSH4 0x31F4FFF0 EQ PUSH2 0x16A JUMPI DUP1 PUSH4 0x3535CA9A EQ PUSH2 0x19A JUMPI DUP1 PUSH4 0x4B098976 EQ PUSH2 0x1CA JUMPI DUP1 PUSH4 0x814A1096 EQ PUSH2 0x1FA JUMPI PUSH2 0xE9 JUMP JUMPDEST DUP1 PUSH3 0xF2EAC2 EQ PUSH2 0xEE JUMPI DUP1 PUSH4 0x69953A7 EQ PUSH2 0x10A JUMPI DUP1 PUSH4 0x287DE362 EQ PUSH2 0x13A JUMPI JUMPDEST PUSH1 0x0 DUP1 REVERT JUMPDEST PUSH2 0x108 PUSH1 0x4 DUP1 CALLDATASIZE SUB DUP2 ADD SWAP1 PUSH2 0x103 SWAP2 SWAP1 PUSH2 0x18E7 JUMP JUMPDEST PUSH2 0x361 JUMP JUMPDEST STOP JUMPDEST PUSH2 0x124 PUSH1 0x4 DUP1 CALLDATASIZE SUB DUP2 ADD SWAP1 PUSH2 0x11F SWAP2 SWAP1 PUSH2 0x18A6 JUMP JUMPDEST PUSH2 0x6AA JUMP JUMPDEST PUSH1 0x40 MLOAD PUSH2 0x131 SWAP2 SWAP1 PUSH2 0x20BE JUMP JUMPDEST PUSH1 0x40 MLOAD DUP1 SWAP2 SUB SWAP1 RETURN JUMPDEST PUSH2 0x154 PUSH1 0x4 DUP1 CALLDATASIZE SUB DUP2 ADD SWAP1 PUSH2 0x14F SWAP2 SWAP1 PUSH2 0x186A JUMP JUMPDEST PUSH2 0x742 JUMP JUMPDEST PUSH1 0x40 MLOAD PUSH2 0x161 SWAP2 SWAP1 PUSH2 0x1F3D JUMP JUMPDEST PUSH1 0x40 MLOAD DUP1 SWAP2 SUB SWAP1 RETURN JUMPDEST PUSH2 0x184 PUSH1 0x4 DUP1 CALLDATASIZE SUB DUP2 ADD SWAP1 PUSH2 0x17F SWAP2 SWAP1 PUSH2 0x19FB JUMP JUMPDEST PUSH2 0x7FB JUMP JUMPDEST PUSH1 0x40 MLOAD PUSH2 0x191 SWAP2 SWAP1 PUSH2 0x1F3D JUMP JUMPDEST PUSH1 0x40 MLOAD DUP1 SWAP2 SUB SWAP1 RETURN JUMPDEST PUSH2 0x1B4 PUSH1 0x4 DUP1 CALLDATASIZE SUB DUP2 ADD SWAP1 PUSH2 0x1AF SWAP2 SWAP1 PUSH2 0x17ED JUMP JUMPDEST PUSH2 0x8A7 JUMP JUMPDEST PUSH1 0x40 MLOAD PUSH2 0x1C1 SWAP2 SWAP1 PUSH2 0x1EB5 JUMP JUMPDEST PUSH1 0x40 MLOAD DUP1 SWAP2 SUB SWAP1 RETURN JUMPDEST PUSH2 0x1E4 PUSH1 0x4 DUP1 CALLDATASIZE SUB DUP2 ADD SWAP1 PUSH2 0x1DF SWAP2 SWAP1 PUSH2 0x1816 JUMP JUMPDEST PUSH2 0x9BF JUMP JUMPDEST PUSH1 0x40 MLOAD PUSH2 0x1F1 SWAP2 SWAP1 PUSH2 0x1EF9 JUMP JUMPDEST PUSH1 0x40 MLOAD DUP1 SWAP2 SUB SWAP1 RETURN JUMPDEST PUSH2 0x214 PUSH1 0x4 DUP1 CALLDATASIZE SUB DUP2 ADD SWAP1 PUSH2 0x20F SWAP2 SWAP1 PUSH2 0x18A6 JUMP JUMPDEST PUSH2 0xA32 JUMP JUMPDEST PUSH1 0x40 MLOAD PUSH2 0x226 SWAP7 SWAP6 SWAP5 SWAP4 SWAP3 SWAP2 SWAP1 PUSH2 0x1F5F JUMP JUMPDEST PUSH1 0x40 MLOAD DUP1 SWAP2 SUB SWAP1 RETURN JUMPDEST PUSH2 0x249 PUSH1 0x4 DUP1 CALLDATASIZE SUB DUP2 ADD SWAP1 PUSH2 0x244 SWAP2 SWAP1 PUSH2 0x19A7 JUMP JUMPDEST PUSH2 0xC44 JUMP JUMPDEST PUSH1 0x40 MLOAD PUSH2 0x259 SWAP5 SWAP4 SWAP3 SWAP2 SWAP1 PUSH2 0x1E69 JUMP JUMPDEST PUSH1 0x40 MLOAD DUP1 SWAP2 SUB SWAP1 RETURN JUMPDEST PUSH2 0x27C PUSH1 0x4 DUP1 CALLDATASIZE SUB DUP2 ADD SWAP1 PUSH2 0x277 SWAP2 SWAP1 PUSH2 0x193B JUMP JUMPDEST PUSH2 0xD5C JUMP JUMPDEST STOP JUMPDEST PUSH2 0x298 PUSH1 0x4 DUP1 CALLDATASIZE SUB DUP2 ADD SWAP1 PUSH2 0x293 SWAP2 SWAP1 PUSH2 0x1A24 JUMP JUMPDEST PUSH2 0x108F JUMP JUMPDEST PUSH1 0x40 MLOAD PUSH2 0x2A5 SWAP2 SWAP1 PUSH2 0x1EB5 JUMP JUMPDEST PUSH1 0x40 MLOAD DUP1 SWAP2 SUB SWAP1 RETURN JUMPDEST PUSH2 0x2C8 PUSH1 0x4 DUP1 CALLDATASIZE SUB DUP2 ADD SWAP1 PUSH2 0x2C3 SWAP2 SWAP1 PUSH2 0x1816 JUMP JUMPDEST PUSH2 0x12CA JUMP JUMPDEST PUSH1 0x40 MLOAD PUSH2 0x2D5 SWAP2 SWAP1 PUSH2 0x1EF9 JUMP JUMPDEST PUSH1 0x40 MLOAD DUP1 SWAP2 SUB SWAP1 RETURN JUMPDEST PUSH2 0x2F8 PUSH1 0x4 DUP1 CALLDATASIZE SUB DUP2 ADD SWAP1 PUSH2 0x2F3 SWAP2 SWAP1 PUSH2 0x18A6 JUMP JUMPDEST PUSH2 0x130F JUMP JUMPDEST PUSH1 0x40 MLOAD PUSH2 0x30A SWAP7 SWAP6 SWAP5 SWAP4 SWAP3 SWAP2 SWAP1 PUSH2 0x1F5F JUMP JUMPDEST PUSH1 0x40 MLOAD DUP1 SWAP2 SUB SWAP1 RETURN JUMPDEST PUSH2 0x31B PUSH2 0x149E JUMP JUMPDEST PUSH1 0x40 MLOAD PUSH2 0x328 SWAP2 SWAP1 PUSH2 0x20BE JUMP JUMPDEST PUSH1 0x40 MLOAD DUP1 SWAP2 SUB SWAP1 RETURN JUMPDEST PUSH2 0x34B PUSH1 0x4 DUP1 CALLDATASIZE SUB DUP2 ADD SWAP1 PUSH2 0x346 SWAP2 SWAP1 PUSH2 0x18A6 JUMP JUMPDEST PUSH2 0x14AB JUMP JUMPDEST PUSH1 0x40 MLOAD PUSH2 0x358 SWAP2 SWAP1 PUSH2 0x1ED7 JUMP JUMPDEST PUSH1 0x40 MLOAD DUP1 SWAP2 SUB SWAP1 RETURN JUMPDEST PUSH1 0x0 DUP3 PUSH1 0x40 MLOAD PUSH2 0x371 SWAP2 SWAP1 PUSH2 0x1E52 JUMP JUMPDEST SWAP1 DUP2 MSTORE PUSH1 0x20 ADD PUSH1 0x40 MLOAD DUP1 SWAP2 SUB SWAP1 KECCAK256 PUSH1 0x5 ADD PUSH1 0x0 SWAP1 SLOAD SWAP1 PUSH2 0x100 EXP SWAP1 DIV PUSH1 0xFF AND PUSH2 0x3CF JUMPI PUSH1 0x40 MLOAD PUSH32 0x8C379A000000000000000000000000000000000000000000000000000000000 DUP2 MSTORE PUSH1 0x4 ADD PUSH2 0x3C6 SWAP1 PUSH2 0x201E JUMP JUMPDEST PUSH1 0x40 MLOAD DUP1 SWAP2 SUB SWAP1 REVERT JUMPDEST PUSH1 0x3 PUSH1 0x0 CALLER PUSH20 0xFFFFFFFFFFFFFFFFFFFFFFFFFFFFFFFFFFFFFFFF AND PUSH20 0xFFFFFFFFFFFFFFFFFFFFFFFFFFFFFFFFFFFFFFFF AND DUP2 MSTORE PUSH1 0x20 ADD SWAP1 DUP2 MSTORE PUSH1 0x20 ADD PUSH1 0x0 KECCAK256 DUP3 PUSH1 0x40 MLOAD PUSH2 0x41C SWAP2 SWAP1 PUSH2 0x1E52 JUMP JUMPDEST SWAP1 DUP2 MSTORE PUSH1 0x20 ADD PUSH1 0x40 MLOAD DUP1 SWAP2 SUB SWAP1 KECCAK256 PUSH1 0x0 SWAP1 SLOAD SWAP1 PUSH2 0x100 EXP SWAP1 DIV PUSH1 0xFF AND ISZERO PUSH2 0x478 JUMPI PUSH1 0x40 MLOAD PUSH32 0x8C379A000000000000000000000000000000000000000000000000000000000 DUP2 MSTORE PUSH1 0x4 ADD PUSH2 0x46F SWAP1 PUSH2 0x1FFE JUMP JUMPDEST PUSH1 0x40 MLOAD DUP1 SWAP2 SUB SWAP1 REVERT JUMPDEST PUSH1 0x0 PUSH1 0x40 MLOAD DUP1 PUSH1 0x80 ADD PUSH1 0x40 MSTORE DUP1 CALLER PUSH20 0xFFFFFFFFFFFFFFFFFFFFFFFFFFFFFFFFFFFFFFFF AND DUP2 MSTORE PUSH1 0x20 ADD DUP5 DUP2 MSTORE PUSH1 0x20 ADD TIMESTAMP DUP2 MSTORE PUSH1 0x20 ADD DUP4 ISZERO ISZERO DUP2 MSTORE POP SWAP1 POP PUSH1 0x1 DUP4 PUSH1 0x40 MLOAD PUSH2 0x4C5 SWAP2 SWAP1 PUSH2 0x1E52 JUMP JUMPDEST SWAP1 DUP2 MSTORE PUSH1 0x20 ADD PUSH1 0x40 MLOAD DUP1 SWAP2 SUB SWAP1 KECCAK256 DUP2 SWAP1 DUP1 PUSH1 0x1 DUP2 SLOAD ADD DUP1 DUP3 SSTORE DUP1 SWAP2 POP POP PUSH1 0x1 SWAP1 SUB SWAP1 PUSH1 0x0 MSTORE PUSH1 0x20 PUSH1 0x0 KECCAK256 SWAP1 PUSH1 0x4 MUL ADD PUSH1 0x0 SWAP1 SWAP2 SWAP1 SWAP2 SWAP1 SWAP2 POP PUSH1 0x0 DUP3 ADD MLOAD DUP2 PUSH1 0x0 ADD PUSH1 0x0 PUSH2 0x100 EXP DUP2 SLOAD DUP2 PUSH20 0xFFFFFFFFFFFFFFFFFFFFFFFFFFFFFFFFFFFFFFFF MUL NOT AND SWAP1 DUP4 PUSH20 0xFFFFFFFFFFFFFFFFFFFFFFFFFFFFFFFFFFFFFFFF AND MUL OR SWAP1 SSTORE POP PUSH1 0x20 DUP3 ADD MLOAD DUP2 PUSH1 0x1 ADD SWAP1 DUP1 MLOAD SWAP1 PUSH1 0x20 ADD SWAP1 PUSH2 0x560 SWAP3 SWAP2 SWAP1 PUSH2 0x16A3 JUMP JUMPDEST POP PUSH1 0x40 DUP3 ADD MLOAD DUP2 PUSH1 0x2 ADD SSTORE PUSH1 0x60 DUP3 ADD MLOAD DUP2 PUSH1 0x3 ADD PUSH1 0x0 PUSH2 0x100 EXP DUP2 SLOAD DUP2 PUSH1 0xFF MUL NOT AND SWAP1 DUP4 ISZERO ISZERO MUL OR SWAP1 SSTORE POP POP POP PUSH1 0x1 PUSH1 0x3 PUSH1 0x0 CALLER PUSH20 0xFFFFFFFFFFFFFFFFFFFFFFFFFFFFFFFFFFFFFFFF AND PUSH20 0xFFFFFFFFFFFFFFFFFFFFFFFFFFFFFFFFFFFFFFFF AND DUP2 MSTORE PUSH1 0x20 ADD SWAP1 DUP2 MSTORE PUSH1 0x20 ADD PUSH1 0x0 KECCAK256 DUP5 PUSH1 0x40 MLOAD PUSH2 0x5DC SWAP2 SWAP1 PUSH2 0x1E52 JUMP JUMPDEST SWAP1 DUP2 MSTORE PUSH1 0x20 ADD PUSH1 0x40 MLOAD DUP1 SWAP2 SUB SWAP1 KECCAK256 PUSH1 0x0 PUSH2 0x100 EXP DUP2 SLOAD DUP2 PUSH1 0xFF MUL NOT AND SWAP1 DUP4 ISZERO ISZERO MUL OR SWAP1 SSTORE POP DUP2 ISZERO PUSH2 0x63F JUMPI PUSH1 0x0 DUP4 PUSH1 0x40 MLOAD PUSH2 0x617 SWAP2 SWAP1 PUSH2 0x1E52 JUMP JUMPDEST SWAP1 DUP2 MSTORE PUSH1 0x20 ADD PUSH1 0x40 MLOAD DUP1 SWAP2 SUB SWAP1 KECCAK256 PUSH1 0x4 ADD PUSH1 0x0 DUP2 SLOAD DUP1 SWAP3 SWAP2 SWAP1 PUSH2 0x639 SWAP1 PUSH2 0x232A JUMP JUMPDEST SWAP2 SWAP1 POP SSTORE POP JUMPDEST CALLER PUSH20 0xFFFFFFFFFFFFFFFFFFFFFFFFFFFFFFFFFFFFFFFF AND DUP4 PUSH1 0x40 MLOAD PUSH2 0x664 SWAP2 SWAP1 PUSH2 0x1E52 JUMP JUMPDEST PUSH1 0x40 MLOAD DUP1 SWAP2 SUB SWAP1 KECCAK256 PUSH32 0x198E3ED8D34BB0748A994AA3DEC83BE23391B16A3539119F912746564BD35533 DUP5 TIMESTAMP PUSH1 0x40 MLOAD PUSH2 0x69D SWAP3 SWAP2 SWAP1 PUSH2 0x1F14 JUMP JUMPDEST PUSH1 0x40 MLOAD DUP1 SWAP2 SUB SWAP1 LOG3 POP POP POP JUMP JUMPDEST PUSH1 0x0 DUP1 DUP3 PUSH1 0x40 MLOAD PUSH2 0x6BB SWAP2 SWAP1 PUSH2 0x1E52 JUMP JUMPDEST SWAP1 DUP2 MSTORE PUSH1 0x20 ADD PUSH1 0x40 MLOAD DUP1 SWAP2 SUB SWAP1 KECCAK256 PUSH1 0x5 ADD PUSH1 0x0 SWAP1 SLOAD SWAP1 PUSH2 0x100 EXP SWAP1 DIV PUSH1 0xFF AND PUSH2 0x719 JUMPI PUSH1 0x40 MLOAD PUSH32 0x8C379A000000000000000000000000000000000000000000000000000000000 DUP2 MSTORE PUSH1 0x4 ADD PUSH2 0x710 SWAP1 PUSH2 0x201E JUMP JUMPDEST PUSH1 0x40 MLOAD DUP1 SWAP2 SUB SWAP1 REVERT JUMPDEST PUSH1 0x0 DUP3 PUSH1 0x40 MLOAD PUSH2 0x729 SWAP2 SWAP1 PUSH2 0x1E52 JUMP JUMPDEST SWAP1 DUP2 MSTORE PUSH1 0x20 ADD PUSH1 0x40 MLOAD DUP1 SWAP2 SUB SWAP1 KECCAK256 PUSH1 0x4 ADD SLOAD SWAP1 POP SWAP2 SWAP1 POP JUMP JUMPDEST PUSH1 0x2 PUSH1 0x20 MSTORE DUP2 PUSH1 0x0 MSTORE PUSH1 0x40 PUSH1 0x0 KECCAK256 DUP2 DUP2 SLOAD DUP2 LT PUSH2 0x75E JUMPI PUSH1 0x0 DUP1 REVERT JUMPDEST SWAP1 PUSH1 0x0 MSTORE PUSH1 0x20 PUSH1 0x0 KECCAK256 ADD PUSH1 0x0 SWAP2 POP SWAP2 POP POP DUP1 SLOAD PUSH2 0x77A SWAP1 PUSH2 0x22F8 JUMP JUMPDEST DUP1 PUSH1 0x1F ADD PUSH1 0x20 DUP1 SWAP2 DIV MUL PUSH1 0x20 ADD PUSH1 0x40 MLOAD SWAP1 DUP2 ADD PUSH1 0x40 MSTORE DUP1 SWAP3 SWAP2 SWAP1 DUP2 DUP2 MSTORE PUSH1 0x20 ADD DUP3 DUP1 SLOAD PUSH2 0x7A6 SWAP1 PUSH2 0x22F8 JUMP JUMPDEST DUP1 ISZERO PUSH2 0x7F3 JUMPI DUP1 PUSH1 0x1F LT PUSH2 0x7C8 JUMPI PUSH2 0x100 DUP1 DUP4 SLOAD DIV MUL DUP4 MSTORE SWAP2 PUSH1 0x20 ADD SWAP2 PUSH2 0x7F3 JUMP JUMPDEST DUP3 ADD SWAP2 SWAP1 PUSH1 0x0 MSTORE PUSH1 0x20 PUSH1 0x0 KECCAK256 SWAP1 JUMPDEST DUP2 SLOAD DUP2 MSTORE SWAP1 PUSH1 0x1 ADD SWAP1 PUSH1 0x20 ADD DUP1 DUP4 GT PUSH2 0x7D6 JUMPI DUP3 SWAP1 SUB PUSH1 0x1F AND DUP3 ADD SWAP2 JUMPDEST POP POP POP POP POP DUP2 JUMP JUMPDEST PUSH1 0x4 DUP2 DUP2 SLOAD DUP2 LT PUSH2 0x80B JUMPI PUSH1 0x0 DUP1 REVERT JUMPDEST SWAP1 PUSH1 0x0 MSTORE PUSH1 0x20 PUSH1 0x0 KECCAK256 ADD PUSH1 0x0 SWAP2 POP SWAP1 POP DUP1 SLOAD PUSH2 0x826 SWAP1 PUSH2 0x22F8 JUMP JUMPDEST DUP1 PUSH1 0x1F ADD PUSH1 0x20 DUP1 SWAP2 DIV MUL PUSH1 0x20 ADD PUSH1 0x40 MLOAD SWAP1 DUP2 ADD PUSH1 0x40 MSTORE DUP1 SWAP3 SWAP2 SWAP1 DUP2 DUP2 MSTORE PUSH1 0x20 ADD DUP3 DUP1 SLOAD PUSH2 0x852 SWAP1 PUSH2 0x22F8 JUMP JUMPDEST DUP1 ISZERO PUSH2 0x89F JUMPI DUP1 PUSH1 0x1F LT PUSH2 0x874 JUMPI PUSH2 0x100 DUP1 DUP4 SLOAD DIV MUL DUP4 MSTORE SWAP2 PUSH1 0x20 ADD SWAP2 PUSH2 0x89F JUMP JUMPDEST DUP3 ADD SWAP2 SWAP1 PUSH1 0x0 MSTORE PUSH1 0x20 PUSH1 0x0 KECCAK256 SWAP1 JUMPDEST DUP2 SLOAD DUP2 MSTORE SWAP1 PUSH1 0x1 ADD SWAP1 PUSH1 0x20 ADD DUP1 DUP4 GT PUSH2 0x882 JUMPI DUP3 SWAP1 SUB PUSH1 0x1F AND DUP3 ADD SWAP2 JUMPDEST POP POP POP POP POP DUP2 JUMP JUMPDEST PUSH1 0x60 PUSH1 0x2 PUSH1 0x0 DUP4 PUSH20 0xFFFFFFFFFFFFFFFFFFFFFFFFFFFFFFFFFFFFFFFF AND PUSH20 0xFFFFFFFFFFFFFFFFFFFFFFFFFFFFFFFFFFFFFFFF AND DUP2 MSTORE PUSH1 0x20 ADD SWAP1 DUP2 MSTORE PUSH1 0x20 ADD PUSH1 0x0 KECCAK256 DUP1 SLOAD DUP1 PUSH1 0x20 MUL PUSH1 0x20 ADD PUSH1 0x40 MLOAD SWAP1 DUP2 ADD PUSH1 0x40 MSTORE DUP1 SWAP3 SWAP2 SWAP1 DUP2 DUP2 MSTORE PUSH1 0x20 ADD PUSH1 0x0 SWAP1 JUMPDEST DUP3 DUP3 LT ISZERO PUSH2 0x9B4 JUMPI DUP4 DUP3 SWAP1 PUSH1 0x0 MSTORE PUSH1 0x20 PUSH1 0x0 KECCAK256 ADD DUP1 SLOAD PUSH2 0x927 SWAP1 PUSH2 0x22F8 JUMP JUMPDEST DUP1 PUSH1 0x1F ADD PUSH1 0x20 DUP1 SWAP2 DIV MUL PUSH1 0x20 ADD PUSH1 0x40 MLOAD SWAP1 DUP2 ADD PUSH1 0x40 MSTORE DUP1 SWAP3 SWAP2 SWAP1 DUP2 DUP2 MSTORE PUSH1 0x20 ADD DUP3 DUP1 SLOAD PUSH2 0x953 SWAP1 PUSH2 0x22F8 JUMP JUMPDEST DUP1 ISZERO PUSH2 0x9A0 JUMPI DUP1 PUSH1 0x1F LT PUSH2 0x975 JUMPI PUSH2 0x100 DUP1 DUP4 SLOAD DIV MUL DUP4 MSTORE SWAP2 PUSH1 0x20 ADD SWAP2 PUSH2 0x9A0 JUMP JUMPDEST DUP3 ADD SWAP2 SWAP1 PUSH1 0x0 MSTORE PUSH1 0x20 PUSH1 0x0 KECCAK256 SWAP1 JUMPDEST DUP2 SLOAD DUP2 MSTORE SWAP1 PUSH1 0x1 ADD SWAP1 PUSH1 0x20 ADD DUP1 DUP4 GT PUSH2 0x983 JUMPI DUP3 SWAP1 SUB PUSH1 0x1F AND DUP3 ADD SWAP2 JUMPDEST POP POP POP POP POP DUP2 MSTORE PUSH1 0x20 ADD SWAP1 PUSH1 0x1 ADD SWAP1 PUSH2 0x908 JUMP JUMPDEST POP POP POP POP SWAP1 POP SWAP2 SWAP1 POP JUMP JUMPDEST PUSH1 0x0 PUSH1 0x3 PUSH1 0x0 DUP5 PUSH20 0xFFFFFFFFFFFFFFFFFFFFFFFFFFFFFFFFFFFFFFFF AND PUSH20 0xFFFFFFFFFFFFFFFFFFFFFFFFFFFFFFFFFFFFFFFF AND DUP2 MSTORE PUSH1 0x20 ADD SWAP1 DUP2 MSTORE PUSH1 0x20 ADD PUSH1 0x0 KECCAK256 DUP3 PUSH1 0x40 MLOAD PUSH2 0xA0E SWAP2 SWAP1 PUSH2 0x1E52 JUMP JUMPDEST SWAP1 DUP2 MSTORE PUSH1 0x20 ADD PUSH1 0x40 MLOAD DUP1 SWAP2 SUB SWAP1 KECCAK256 PUSH1 0x0 SWAP1 SLOAD SWAP1 PUSH2 0x100 EXP SWAP1 DIV PUSH1 0xFF AND SWAP1 POP SWAP3 SWAP2 POP POP JUMP JUMPDEST PUSH1 0x60 DUP1 PUSH1 0x0 DUP1 PUSH1 0x0 DUP1 PUSH1 0x0 DUP1 DUP9 PUSH1 0x40 MLOAD PUSH2 0xA4C SWAP2 SWAP1 PUSH2 0x1E52 JUMP JUMPDEST SWAP1 DUP2 MSTORE PUSH1 0x20 ADD PUSH1 0x40 MLOAD DUP1 SWAP2 SUB SWAP1 KECCAK256 PUSH1 0x40 MLOAD DUP1 PUSH1 0xC0 ADD PUSH1 0x40 MSTORE SWAP1 DUP2 PUSH1 0x0 DUP3 ADD DUP1 SLOAD PUSH2 0xA75 SWAP1 PUSH2 0x22F8 JUMP JUMPDEST DUP1 PUSH1 0x1F ADD PUSH1 0x20 DUP1 SWAP2 DIV MUL PUSH1 0x20 ADD PUSH1 0x40 MLOAD SWAP1 DUP2 ADD PUSH1 0x40 MSTORE DUP1 SWAP3 SWAP2 SWAP1 DUP2 DUP2 MSTORE PUSH1 0x20 ADD DUP3 DUP1 SLOAD PUSH2 0xAA1 SWAP1 PUSH2 0x22F8 JUMP JUMPDEST DUP1 ISZERO PUSH2 0xAEE JUMPI DUP1 PUSH1 0x1F LT PUSH2 0xAC3 JUMPI PUSH2 0x100 DUP1 DUP4 SLOAD DIV MUL DUP4 MSTORE SWAP2 PUSH1 0x20 ADD SWAP2 PUSH2 0xAEE JUMP JUMPDEST DUP3 ADD SWAP2 SWAP1 PUSH1 0x0 MSTORE PUSH1 0x20 PUSH1 0x0 KECCAK256 SWAP1 JUMPDEST DUP2 SLOAD DUP2 MSTORE SWAP1 PUSH1 0x1 ADD SWAP1 PUSH1 0x20 ADD DUP1 DUP4 GT PUSH2 0xAD1 JUMPI DUP3 SWAP1 SUB PUSH1 0x1F AND DUP3 ADD SWAP2 JUMPDEST POP POP POP POP POP DUP2 MSTORE PUSH1 0x20 ADD PUSH1 0x1 DUP3 ADD DUP1 SLOAD PUSH2 0xB07 SWAP1 PUSH2 0x22F8 JUMP JUMPDEST DUP1 PUSH1 0x1F ADD PUSH1 0x20 DUP1 SWAP2 DIV MUL PUSH1 0x20 ADD PUSH1 0x40 MLOAD SWAP1 DUP2 ADD PUSH1 0x40 MSTORE DUP1 SWAP3 SWAP2 SWAP1 DUP2 DUP2 MSTORE PUSH1 0x20 ADD DUP3 DUP1 SLOAD PUSH2 0xB33 SWAP1 PUSH2 0x22F8 JUMP JUMPDEST DUP1 ISZERO PUSH2 0xB80 JUMPI DUP1 PUSH1 0x1F LT PUSH2 0xB55 JUMPI PUSH2 0x100 DUP1 DUP4 SLOAD DIV MUL DUP4 MSTORE SWAP2 PUSH1 0x20 ADD SWAP2 PUSH2 0xB80 JUMP JUMPDEST DUP3 ADD SWAP2 SWAP1 PUSH1 0x0 MSTORE PUSH1 0x20 PUSH1 0x0 KECCAK256 SWAP1 JUMPDEST DUP2 SLOAD DUP2 MSTORE SWAP1 PUSH1 0x1 ADD SWAP1 PUSH1 0x20 ADD DUP1 DUP4 GT PUSH2 0xB63 JUMPI DUP3 SWAP1 SUB PUSH1 0x1F AND DUP3 ADD SWAP2 JUMPDEST POP POP POP POP POP DUP2 MSTORE PUSH1 0x20 ADD PUSH1 0x2 DUP3 ADD PUSH1 0x0 SWAP1 SLOAD SWAP1 PUSH2 0x100 EXP SWAP1 DIV PUSH20 0xFFFFFFFFFFFFFFFFFFFFFFFFFFFFFFFFFFFFFFFF AND PUSH20 0xFFFFFFFFFFFFFFFFFFFFFFFFFFFFFFFFFFFFFFFF AND PUSH20 0xFFFFFFFFFFFFFFFFFFFFFFFFFFFFFFFFFFFFFFFF AND DUP2 MSTORE PUSH1 0x20 ADD PUSH1 0x3 DUP3 ADD SLOAD DUP2 MSTORE PUSH1 0x20 ADD PUSH1 0x4 DUP3 ADD SLOAD DUP2 MSTORE PUSH1 0x20 ADD PUSH1 0x5 DUP3 ADD PUSH1 0x0 SWAP1 SLOAD SWAP1 PUSH2 0x100 EXP SWAP1 DIV PUSH1 0xFF AND ISZERO ISZERO ISZERO ISZERO DUP2 MSTORE POP POP SWAP1 POP DUP1 PUSH1 0x0 ADD MLOAD DUP2 PUSH1 0x20 ADD MLOAD DUP3 PUSH1 0x40 ADD MLOAD DUP4 PUSH1 0x60 ADD MLOAD DUP5 PUSH1 0x80 ADD MLOAD DUP6 PUSH1 0xA0 ADD MLOAD SWAP7 POP SWAP7 POP SWAP7 POP SWAP7 POP SWAP7 POP SWAP7 POP POP SWAP2 SWAP4 SWAP6 POP SWAP2 SWAP4 SWAP6 JUMP JUMPDEST PUSH1 0x1 DUP3 DUP1 MLOAD PUSH1 0x20 DUP2 ADD DUP3 ADD DUP1 MLOAD DUP5 DUP3 MSTORE PUSH1 0x20 DUP4 ADD PUSH1 0x20 DUP6 ADD KECCAK256 DUP2 DUP4 MSTORE DUP1 SWAP6 POP POP POP POP POP POP DUP2 DUP2 SLOAD DUP2 LT PUSH2 0xC76 JUMPI PUSH1 0x0 DUP1 REVERT JUMPDEST SWAP1 PUSH1 0x0 MSTORE PUSH1 0x20 PUSH1 0x0 KECCAK256 SWAP1 PUSH1 0x4 MUL ADD PUSH1 0x0 SWAP2 POP SWAP2 POP POP DUP1 PUSH1 0x0 ADD PUSH1 0x0 SWAP1 SLOAD SWAP1 PUSH2 0x100 EXP SWAP1 DIV PUSH20 0xFFFFFFFFFFFFFFFFFFFFFFFFFFFFFFFFFFFFFFFF AND SWAP1 DUP1 PUSH1 0x1 ADD DUP1 SLOAD PUSH2 0xCC0 SWAP1 PUSH2 0x22F8 JUMP JUMPDEST DUP1 PUSH1 0x1F ADD PUSH1 0x20 DUP1 SWAP2 DIV MUL PUSH1 0x20 ADD PUSH1 0x40 MLOAD SWAP1 DUP2 ADD PUSH1 0x40 MSTORE DUP1 SWAP3 SWAP2 SWAP1 DUP2 DUP2 MSTORE PUSH1 0x20 ADD DUP3 DUP1 SLOAD PUSH2 0xCEC SWAP1 PUSH2 0x22F8 JUMP JUMPDEST DUP1 ISZERO PUSH2 0xD39 JUMPI DUP1 PUSH1 0x1F LT PUSH2 0xD0E JUMPI PUSH2 0x100 DUP1 DUP4 SLOAD DIV MUL DUP4 MSTORE SWAP2 PUSH1 0x20 ADD SWAP2 PUSH2 0xD39 JUMP JUMPDEST DUP3 ADD SWAP2 SWAP1 PUSH1 0x0 MSTORE PUSH1 0x20 PUSH1 0x0 KECCAK256 SWAP1 JUMPDEST DUP2 SLOAD DUP2 MSTORE SWAP1 PUSH1 0x1 ADD SWAP1 PUSH1 0x20 ADD DUP1 DUP4 GT PUSH2 0xD1C JUMPI DUP3 SWAP1 SUB PUSH1 0x1F AND DUP3 ADD SWAP2 JUMPDEST POP POP POP POP POP SWAP1 DUP1 PUSH1 0x2 ADD SLOAD SWAP1 DUP1 PUSH1 0x3 ADD PUSH1 0x0 SWAP1 SLOAD SWAP1 PUSH2 0x100 EXP SWAP1 DIV PUSH1 0xFF AND SWAP1 POP DUP5 JUMP JUMPDEST PUSH1 0x0 DUP3 MLOAD GT PUSH2 0xDA0 JUMPI PUSH1 0x40 MLOAD PUSH32 0x8C379A000000000000000000000000000000000000000000000000000000000 DUP2 MSTORE PUSH1 0x4 ADD PUSH2 0xD97 SWAP1 PUSH2 0x209E JUMP JUMPDEST PUSH1 0x40 MLOAD DUP1 SWAP2 SUB SWAP1 REVERT JUMPDEST PUSH1 0x0 DUP2 MLOAD GT PUSH2 0xDE4 JUMPI PUSH1 0x40 MLOAD PUSH32 0x8C379A000000000000000000000000000000000000000000000000000000000 DUP2 MSTORE PUSH1 0x4 ADD PUSH2 0xDDB SWAP1 PUSH2 0x203E JUMP JUMPDEST PUSH1 0x40 MLOAD DUP1 SWAP2 SUB SWAP1 REVERT JUMPDEST PUSH1 0x0 DUP3 PUSH1 0x40 MLOAD PUSH2 0xDF4 SWAP2 SWAP1 PUSH2 0x1E52 JUMP JUMPDEST SWAP1 DUP2 MSTORE PUSH1 0x20 ADD PUSH1 0x40 MLOAD DUP1 SWAP2 SUB SWAP1 KECCAK256 PUSH1 0x5 ADD PUSH1 0x0 SWAP1 SLOAD SWAP1 PUSH2 0x100 EXP SWAP1 DIV PUSH1 0xFF AND ISZERO PUSH2 0xE53 JUMPI PUSH1 0x40 MLOAD PUSH32 0x8C379A000000000000000000000000000000000000000000000000000000000 DUP2 MSTORE PUSH1 0x4 ADD PUSH2 0xE4A SWAP1 PUSH2 0x205E JUMP JUMPDEST PUSH1 0x40 MLOAD DUP1 SWAP2 SUB SWAP1 REVERT JUMPDEST PUSH1 0x40 MLOAD DUP1 PUSH1 0xC0 ADD PUSH1 0x40 MSTORE DUP1 DUP4 DUP2 MSTORE PUSH1 0x20 ADD DUP3 DUP2 MSTORE PUSH1 0x20 ADD CALLER PUSH20 0xFFFFFFFFFFFFFFFFFFFFFFFFFFFFFFFFFFFFFFFF AND DUP2 MSTORE PUSH1 0x20 ADD TIMESTAMP DUP2 MSTORE PUSH1 0x20 ADD PUSH1 0x0 DUP2 MSTORE PUSH1 0x20 ADD PUSH1 0x1 ISZERO ISZERO DUP2 MSTORE POP PUSH1 0x0 DUP4 PUSH1 0x40 MLOAD PUSH2 0xEAA SWAP2 SWAP1 PUSH2 0x1E52 JUMP JUMPDEST SWAP1 DUP2 MSTORE PUSH1 0x20 ADD PUSH1 0x40 MLOAD DUP1 SWAP2 SUB SWAP1 KECCAK256 PUSH1 0x0 DUP3 ADD MLOAD DUP2 PUSH1 0x0 ADD SWAP1 DUP1 MLOAD SWAP1 PUSH1 0x20 ADD SWAP1 PUSH2 0xED4 SWAP3 SWAP2 SWAP1 PUSH2 0x16A3 JUMP JUMPDEST POP PUSH1 0x20 DUP3 ADD MLOAD DUP2 PUSH1 0x1 ADD SWAP1 DUP1 MLOAD SWAP1 PUSH1 0x20 ADD SWAP1 PUSH2 0xEF1 SWAP3 SWAP2 SWAP1 PUSH2 0x16A3 JUMP JUMPDEST POP PUSH1 0x40 DUP3 ADD MLOAD DUP2 PUSH1 0x2 ADD PUSH1 0x0 PUSH2 0x100 EXP DUP2 SLOAD DUP2 PUSH20 0xFFFFFFFFFFFFFFFFFFFFFFFFFFFFFFFFFFFFFFFF MUL NOT AND SWAP1 DUP4 PUSH20 0xFFFFFFFFFFFFFFFFFFFFFFFFFFFFFFFFFFFFFFFF AND MUL OR SWAP1 SSTORE POP PUSH1 0x60 DUP3 ADD MLOAD DUP2 PUSH1 0x3 ADD SSTORE PUSH1 0x80 DUP3 ADD MLOAD DUP2 PUSH1 0x4 ADD SSTORE PUSH1 0xA0 DUP3 ADD MLOAD DUP2 PUSH1 0x5 ADD PUSH1 0x0 PUSH2 0x100 EXP DUP2 SLOAD DUP2 PUSH1 0xFF MUL NOT AND SWAP1 DUP4 ISZERO ISZERO MUL OR SWAP1 SSTORE POP SWAP1 POP POP PUSH1 0x4 DUP3 SWAP1 DUP1 PUSH1 0x1 DUP2 SLOAD ADD DUP1 DUP3 SSTORE DUP1 SWAP2 POP POP PUSH1 0x1 SWAP1 SUB SWAP1 PUSH1 0x0 MSTORE PUSH1 0x20 PUSH1 0x0 KECCAK256 ADD PUSH1 0x0 SWAP1 SWAP2 SWAP1 SWAP2 SWAP1 SWAP2 POP SWAP1 DUP1 MLOAD SWAP1 PUSH1 0x20 ADD SWAP1 PUSH2 0xFAB SWAP3 SWAP2 SWAP1 PUSH2 0x16A3 JUMP JUMPDEST POP PUSH1 0x2 PUSH1 0x0 CALLER PUSH20 0xFFFFFFFFFFFFFFFFFFFFFFFFFFFFFFFFFFFFFFFF AND PUSH20 0xFFFFFFFFFFFFFFFFFFFFFFFFFFFFFFFFFFFFFFFF AND DUP2 MSTORE PUSH1 0x20 ADD SWAP1 DUP2 MSTORE PUSH1 0x20 ADD PUSH1 0x0 KECCAK256 DUP3 SWAP1 DUP1 PUSH1 0x1 DUP2 SLOAD ADD DUP1 DUP3 SSTORE DUP1 SWAP2 POP POP PUSH1 0x1 SWAP1 SUB SWAP1 PUSH1 0x0 MSTORE PUSH1 0x20 PUSH1 0x0 KECCAK256 ADD PUSH1 0x0 SWAP1 SWAP2 SWAP1 SWAP2 SWAP1 SWAP2 POP SWAP1 DUP1 MLOAD SWAP1 PUSH1 0x20 ADD SWAP1 PUSH2 0x1024 SWAP3 SWAP2 SWAP1 PUSH2 0x16A3 JUMP JUMPDEST POP CALLER PUSH20 0xFFFFFFFFFFFFFFFFFFFFFFFFFFFFFFFFFFFFFFFF AND DUP3 PUSH1 0x40 MLOAD PUSH2 0x104A SWAP2 SWAP1 PUSH2 0x1E52 JUMP JUMPDEST PUSH1 0x40 MLOAD DUP1 SWAP2 SUB SWAP1 KECCAK256 PUSH32 0x8D9E646B7BE50523DBF45D232DEA79BF57ED2EA290147F46D64D74918BCCE742 DUP4 TIMESTAMP PUSH1 0x40 MLOAD PUSH2 0x1083 SWAP3 SWAP2 SWAP1 PUSH2 0x1FCE JUMP JUMPDEST PUSH1 0x40 MLOAD DUP1 SWAP2 SUB SWAP1 LOG3 POP POP JUMP JUMPDEST PUSH1 0x60 PUSH1 0x4 DUP1 SLOAD SWAP1 POP DUP4 LT PUSH2 0x10D8 JUMPI PUSH1 0x40 MLOAD PUSH32 0x8C379A000000000000000000000000000000000000000000000000000000000 DUP2 MSTORE PUSH1 0x4 ADD PUSH2 0x10CF SWAP1 PUSH2 0x207E JUMP JUMPDEST PUSH1 0x40 MLOAD DUP1 SWAP2 SUB SWAP1 REVERT JUMPDEST PUSH1 0x0 DUP3 DUP5 PUSH2 0x10E6 SWAP2 SWAP1 PUSH2 0x21E4 JUMP JUMPDEST SWAP1 POP PUSH1 0x4 DUP1 SLOAD SWAP1 POP DUP2 GT ISZERO PUSH2 0x10FE JUMPI PUSH1 0x4 DUP1 SLOAD SWAP1 POP SWAP1 POP JUMPDEST PUSH1 0x0 DUP5 DUP3 PUSH2 0x110C SWAP2 SWAP1 PUSH2 0x223A JUMP JUMPDEST PUSH8 0xFFFFFFFFFFFFFFFF DUP2 GT ISZERO PUSH2 0x114B JUMPI PUSH32 0x4E487B7100000000000000000000000000000000000000000000000000000000 PUSH1 0x0 MSTORE PUSH1 0x41 PUSH1 0x4 MSTORE PUSH1 0x24 PUSH1 0x0 REVERT JUMPDEST PUSH1 0x40 MLOAD SWAP1 DUP1 DUP3 MSTORE DUP1 PUSH1 0x20 MUL PUSH1 0x20 ADD DUP3 ADD PUSH1 0x40 MSTORE DUP1 ISZERO PUSH2 0x117E JUMPI DUP2 PUSH1 0x20 ADD JUMPDEST PUSH1 0x60 DUP2 MSTORE PUSH1 0x20 ADD SWAP1 PUSH1 0x1 SWAP1 SUB SWAP1 DUP2 PUSH2 0x1169 JUMPI SWAP1 POP JUMPDEST POP SWAP1 POP PUSH1 0x0 DUP6 SWAP1 POP JUMPDEST DUP3 DUP2 LT ISZERO PUSH2 0x12BE JUMPI PUSH1 0x4 DUP2 DUP2 SLOAD DUP2 LT PUSH2 0x11C9 JUMPI PUSH32 0x4E487B7100000000000000000000000000000000000000000000000000000000 PUSH1 0x0 MSTORE PUSH1 0x32 PUSH1 0x4 MSTORE PUSH1 0x24 PUSH1 0x0 REVERT JUMPDEST SWAP1 PUSH1 0x0 MSTORE PUSH1 0x20 PUSH1 0x0 KECCAK256 ADD DUP1 SLOAD PUSH2 0x11DE SWAP1 PUSH2 0x22F8 JUMP JUMPDEST DUP1 PUSH1 0x1F ADD PUSH1 0x20 DUP1 SWAP2 DIV MUL PUSH1 0x20 ADD PUSH1 0x40 MLOAD SWAP1 DUP2 ADD PUSH1 0x40 MSTORE DUP1 SWAP3 SWAP2 SWAP1 DUP2 DUP2 MSTORE PUSH1 0x20 ADD DUP3 DUP1 SLOAD PUSH2 0x120A SWAP1 PUSH2 0x22F8 JUMP JUMPDEST DUP1 ISZERO PUSH2 0x1257 JUMPI DUP1 PUSH1 0x1F LT PUSH2 0x122C JUMPI PUSH2 0x100 DUP1 DUP4 SLOAD DIV MUL DUP4 MSTORE SWAP2 PUSH1 0x20 ADD SWAP2 PUSH2 0x1257 JUMP JUMPDEST DUP3 ADD SWAP2 SWAP1 PUSH1 0x0 MSTORE PUSH1 0x20 PUSH1 0x0 KECCAK256 SWAP1 JUMPDEST DUP2 SLOAD DUP2 MSTORE SWAP1 PUSH1 0x1 ADD SWAP1 PUSH1 0x20 ADD DUP1 DUP4 GT PUSH2 0x123A JUMPI DUP3 SWAP1 SUB PUSH1 0x1F AND DUP3 ADD SWAP2 JUMPDEST POP POP POP POP POP DUP3 DUP8 DUP4 PUSH2 0x1269 SWAP2 SWAP1 PUSH2 0x223A JUMP JUMPDEST DUP2 MLOAD DUP2 LT PUSH2 0x12A0 JUMPI PUSH32 0x4E487B7100000000000000000000000000000000000000000000000000000000 PUSH1 0x0 MSTORE PUSH1 0x32 PUSH1 0x4 MSTORE PUSH1 0x24 PUSH1 0x0 REVERT JUMPDEST PUSH1 0x20 MUL PUSH1 0x20 ADD ADD DUP2 SWAP1 MSTORE POP DUP1 DUP1 PUSH2 0x12B6 SWAP1 PUSH2 0x232A JUMP JUMPDEST SWAP2 POP POP PUSH2 0x1187 JUMP JUMPDEST POP DUP1 SWAP3 POP POP POP SWAP3 SWAP2 POP POP JUMP JUMPDEST PUSH1 0x3 PUSH1 0x20 MSTORE DUP2 PUSH1 0x0 MSTORE PUSH1 0x40 PUSH1 0x0 KECCAK256 DUP2 DUP1 MLOAD PUSH1 0x20 DUP2 ADD DUP3 ADD DUP1 MLOAD DUP5 DUP3 MSTORE PUSH1 0x20 DUP4 ADD PUSH1 0x20 DUP6 ADD KECCAK256 DUP2 DUP4 MSTORE DUP1 SWAP6 POP POP POP POP POP POP PUSH1 0x0 SWAP2 POP SWAP2 POP SWAP1 SLOAD SWAP1 PUSH2 0x100 EXP SWAP1 DIV PUSH1 0xFF AND DUP2 JUMP JUMPDEST PUSH1 0x0 DUP2 DUP1 MLOAD PUSH1 0x20 DUP2 ADD DUP3 ADD DUP1 MLOAD DUP5 DUP3 MSTORE PUSH1 0x20 DUP4 ADD PUSH1 0x20 DUP6 ADD KECCAK256 DUP2 DUP4 MSTORE DUP1 SWAP6 POP POP POP POP POP POP PUSH1 0x0 SWAP2 POP SWAP1 POP DUP1 PUSH1 0x0 ADD DUP1 SLOAD PUSH2 0x1348 SWAP1 PUSH2 0x22F8 JUMP JUMPDEST DUP1 PUSH1 0x1F ADD PUSH1 0x20 DUP1 SWAP2 DIV MUL PUSH1 0x20 ADD PUSH1 0x40 MLOAD SWAP1 DUP2 ADD PUSH1 0x40 MSTORE DUP1 SWAP3 SWAP2 SWAP1 DUP2 DUP2 MSTORE PUSH1 0x20 ADD DUP3 DUP1 SLOAD PUSH2 0x1374 SWAP1 PUSH2 0x22F8 JUMP JUMPDEST DUP1 ISZERO PUSH2 0x13C1 JUMPI DUP1 PUSH1 0x1F LT PUSH2 0x1396 JUMPI PUSH2 0x100 DUP1 DUP4 SLOAD DIV MUL DUP4 MSTORE SWAP2 PUSH1 0x20 ADD SWAP2 PUSH2 0x13C1 JUMP JUMPDEST DUP3 ADD SWAP2 SWAP1 PUSH1 0x0 MSTORE PUSH1 0x20 PUSH1 0x0 KECCAK256 SWAP1 JUMPDEST DUP2 SLOAD DUP2 MSTORE SWAP1 PUSH1 0x1 ADD SWAP1 PUSH1 0x20 ADD DUP1 DUP4 GT PUSH2 0x13A4 JUMPI DUP3 SWAP1 SUB PUSH1 0x1F AND DUP3 ADD SWAP2 JUMPDEST POP POP POP POP POP SWAP1 DUP1 PUSH1 0x1 ADD DUP1 SLOAD PUSH2 0x13D6 SWAP1 PUSH2 0x22F8 JUMP JUMPDEST DUP1 PUSH1 0x1F ADD PUSH1 0x20 DUP1 SWAP2 DIV MUL PUSH1 0x20 ADD PUSH1 0x40 MLOAD SWAP1 DUP2 ADD PUSH1 0x40 MSTORE DUP1 SWAP3 SWAP2 SWAP1 DUP2 DUP2 MSTORE PUSH1 0x20 ADD DUP3 DUP1 SLOAD PUSH2 0x1402 SWAP1 PUSH2 0x22F8 JUMP JUMPDEST DUP1 ISZERO PUSH2 0x144F JUMPI DUP1 PUSH1 0x1F LT PUSH2 0x1424 JUMPI PUSH2 0x100 DUP1 DUP4 SLOAD DIV MUL DUP4 MSTORE SWAP2 PUSH1 0x20 ADD SWAP2 PUSH2 0x144F JUMP JUMPDEST DUP3 ADD SWAP2 SWAP1 PUSH1 0x0 MSTORE PUSH1 0x20 PUSH1 0x0 KECCAK256 SWAP1 JUMPDEST DUP2 SLOAD DUP2 MSTORE SWAP1 PUSH1 0x1 ADD SWAP1 PUSH1 0x20 ADD DUP1 DUP4 GT PUSH2 0x1432 JUMPI DUP3 SWAP1 SUB PUSH1 0x1F AND DUP3 ADD SWAP2 JUMPDEST POP POP POP POP POP SWAP1 DUP1 PUSH1 0x2 ADD PUSH1 0x0 SWAP1 SLOAD SWAP1 PUSH2 0x100 EXP SWAP1 DIV PUSH20 0xFFFFFFFFFFFFFFFFFFFFFFFFFFFFFFFFFFFFFFFF AND SWAP1 DUP1 PUSH1 0x3 ADD SLOAD SWAP1 DUP1 PUSH1 0x4 ADD SLOAD SWAP1 DUP1 PUSH1 0x5 ADD PUSH1 0x0 SWAP1 SLOAD SWAP1 PUSH2 0x100 EXP SWAP1 DIV PUSH1 0xFF AND SWAP1 POP DUP7 JUMP JUMPDEST PUSH1 0x0 PUSH1 0x4 DUP1 SLOAD SWAP1 POP SWAP1 POP SWAP1 JUMP JUMPDEST PUSH1 0x60 PUSH1 0x0 DUP3 PUSH1 0x40 MLOAD PUSH2 0x14BD SWAP2 SWAP1 PUSH2 0x1E52 JUMP JUMPDEST SWAP1 DUP2 MSTORE PUSH1 0x20 ADD PUSH1 0x40 MLOAD DUP1 SWAP2 SUB SWAP1 KECCAK256 PUSH1 0x5 ADD PUSH1 0x0 SWAP1 SLOAD SWAP1 PUSH2 0x100 EXP SWAP1 DIV PUSH1 0xFF AND PUSH2 0x151B JUMPI PUSH1 0x40 MLOAD PUSH32 0x8C379A000000000000000000000000000000000000000000000000000000000 DUP2 MSTORE PUSH1 0x4 ADD PUSH2 0x1512 SWAP1 PUSH2 0x201E JUMP JUMPDEST PUSH1 0x40 MLOAD DUP1 SWAP2 SUB SWAP1 REVERT JUMPDEST PUSH1 0x1 DUP3 PUSH1 0x40 MLOAD PUSH2 0x152B SWAP2 SWAP1 PUSH2 0x1E52 JUMP JUMPDEST SWAP1 DUP2 MSTORE PUSH1 0x20 ADD PUSH1 0x40 MLOAD DUP1 SWAP2 SUB SWAP1 KECCAK256 DUP1 SLOAD DUP1 PUSH1 0x20 MUL PUSH1 0x20 ADD PUSH1 0x40 MLOAD SWAP1 DUP2 ADD PUSH1 0x40 MSTORE DUP1 SWAP3 SWAP2 SWAP1 DUP2 DUP2 MSTORE PUSH1 0x20 ADD PUSH1 0x0 SWAP1 JUMPDEST DUP3 DUP3 LT ISZERO PUSH2 0x1698 JUMPI DUP4 DUP3 SWAP1 PUSH1 0x0 MSTORE PUSH1 0x20 PUSH1 0x0 KECCAK256 SWAP1 PUSH1 0x4 MUL ADD PUSH1 0x40 MLOAD DUP1 PUSH1 0x80 ADD PUSH1 0x40 MSTORE SWAP1 DUP2 PUSH1 0x0 DUP3 ADD PUSH1 0x0 SWAP1 SLOAD SWAP1 PUSH2 0x100 EXP SWAP1 DIV PUSH20 0xFFFFFFFFFFFFFFFFFFFFFFFFFFFFFFFFFFFFFFFF AND PUSH20 0xFFFFFFFFFFFFFFFFFFFFFFFFFFFFFFFFFFFFFFFF AND PUSH20 0xFFFFFFFFFFFFFFFFFFFFFFFFFFFFFFFFFFFFFFFF AND DUP2 MSTORE PUSH1 0x20 ADD PUSH1 0x1 DUP3 ADD DUP1 SLOAD PUSH2 0x15E2 SWAP1 PUSH2 0x22F8 JUMP JUMPDEST DUP1 PUSH1 0x1F ADD PUSH1 0x20 DUP1 SWAP2 DIV MUL PUSH1 0x20 ADD PUSH1 0x40 MLOAD SWAP1 DUP2 ADD PUSH1 0x40 MSTORE DUP1 SWAP3 SWAP2 SWAP1 DUP2 DUP2 MSTORE PUSH1 0x20 ADD DUP3 DUP1 SLOAD PUSH2 0x160E SWAP1 PUSH2 0x22F8 JUMP JUMPDEST DUP1 ISZERO PUSH2 0x165B JUMPI DUP1 PUSH1 0x1F LT PUSH2 0x1630 JUMPI PUSH2 0x100 DUP1 DUP4 SLOAD DIV MUL DUP4 MSTORE SWAP2 PUSH1 0x20 ADD SWAP2 PUSH2 0x165B JUMP JUMPDEST DUP3 ADD SWAP2 SWAP1 PUSH1 0x0 MSTORE PUSH1 0x20 PUSH1 0x0 KECCAK256 SWAP1 JUMPDEST DUP2 SLOAD DUP2 MSTORE SWAP1 PUSH1 0x1 ADD SWAP1 PUSH1 0x20 ADD DUP1 DUP4 GT PUSH2 0x163E JUMPI DUP3 SWAP1 SUB PUSH1 0x1F AND DUP3 ADD SWAP2 JUMPDEST POP POP POP POP POP DUP2 MSTORE PUSH1 0x20 ADD PUSH1 0x2 DUP3 ADD SLOAD DUP2 MSTORE PUSH1 0x20 ADD PUSH1 0x3 DUP3 ADD PUSH1 0x0 SWAP1 SLOAD SWAP1 PUSH2 0x100 EXP SWAP1 DIV PUSH1 0xFF AND ISZERO ISZERO ISZERO ISZERO DUP2 MSTORE POP POP DUP2 MSTORE PUSH1 0x20 ADD SWAP1 PUSH1 0x1 ADD SWAP1 PUSH2 0x1559 JUMP JUMPDEST POP POP POP POP SWAP1 POP SWAP2 SWAP1 POP JUMP JUMPDEST DUP3 DUP1 SLOAD PUSH2 0x16AF SWAP1 PUSH2 0x22F8 JUMP JUMPDEST SWAP1 PUSH1 0x0 MSTORE PUSH1 0x20 PUSH1 0x0 KECCAK256 SWAP1 PUSH1 0x1F ADD PUSH1 0x20 SWAP1 DIV DUP2 ADD SWAP3 DUP3 PUSH2 0x16D1 JUMPI PUSH1 0x0 DUP6 SSTORE PUSH2 0x1718 JUMP JUMPDEST DUP3 PUSH1 0x1F LT PUSH2 0x16EA JUMPI DUP1 MLOAD PUSH1 0xFF NOT AND DUP4 DUP1 ADD OR DUP6 SSTORE PUSH2 0x1718 JUMP JUMPDEST DUP3 DUP1 ADD PUSH1 0x1 ADD DUP6 SSTORE DUP3 ISZERO PUSH2 0x1718 JUMPI SWAP2 DUP3 ADD JUMPDEST DUP3 DUP2 GT ISZERO PUSH2 0x1717 JUMPI DUP3 MLOAD DUP3 SSTORE SWAP2 PUSH1 0x20 ADD SWAP2 SWAP1 PUSH1 0x1 ADD SWAP1 PUSH2 0x16FC JUMP JUMPDEST JUMPDEST POP SWAP1 POP PUSH2 0x1725 SWAP2 SWAP1 PUSH2 0x1729 JUMP JUMPDEST POP SWAP1 JUMP JUMPDEST JUMPDEST DUP1 DUP3 GT ISZERO PUSH2 0x1742 JUMPI PUSH1 0x0 DUP2 PUSH1 0x0 SWAP1 SSTORE POP PUSH1 0x1 ADD PUSH2 0x172A JUMP JUMPDEST POP SWAP1 JUMP JUMPDEST PUSH1 0x0 PUSH2 0x1759 PUSH2 0x1754 DUP5 PUSH2 0x210A JUMP JUMPDEST PUSH2 0x20D9 JUMP JUMPDEST SWAP1 POP DUP3 DUP2 MSTORE PUSH1 0x20 DUP2 ADD DUP5 DUP5 DUP5 ADD GT ISZERO PUSH2 0x1771 JUMPI PUSH1 0x0 DUP1 REVERT JUMPDEST PUSH2 0x177C DUP5 DUP3 DUP6 PUSH2 0x22B6 JUMP JUMPDEST POP SWAP4 SWAP3 POP POP POP JUMP JUMPDEST PUSH1 0x0 DUP2 CALLDATALOAD SWAP1 POP PUSH2 0x1793 DUP2 PUSH2 0x2411 JUMP JUMPDEST SWAP3 SWAP2 POP POP JUMP JUMPDEST PUSH1 0x0 DUP2 CALLDATALOAD SWAP1 POP PUSH2 0x17A8 DUP2 PUSH2 0x2428 JUMP JUMPDEST SWAP3 SWAP2 POP POP JUMP JUMPDEST PUSH1 0x0 DUP3 PUSH1 0x1F DUP4 ADD SLT PUSH2 0x17BF JUMPI PUSH1 0x0 DUP1 REVERT JUMPDEST DUP2 CALLDATALOAD PUSH2 0x17CF DUP5 DUP3 PUSH1 0x20 DUP7 ADD PUSH2 0x1746 JUMP JUMPDEST SWAP2 POP POP SWAP3 SWAP2 POP POP JUMP JUMPDEST PUSH1 0x0 DUP2 CALLDATALOAD SWAP1 POP PUSH2 0x17E7 DUP2 PUSH2 0x243F JUMP JUMPDEST SWAP3 SWAP2 POP POP JUMP JUMPDEST PUSH1 0x0 PUSH1 0x20 DUP3 DUP5 SUB SLT ISZERO PUSH2 0x17FF JUMPI PUSH1 0x0 DUP1 REVERT JUMPDEST PUSH1 0x0 PUSH2 0x180D DUP5 DUP3 DUP6 ADD PUSH2 0x1784 JUMP JUMPDEST SWAP2 POP POP SWAP3 SWAP2 POP POP JUMP JUMPDEST PUSH1 0x0 DUP1 PUSH1 0x40 DUP4 DUP6 SUB SLT ISZERO PUSH2 0x1829 JUMPI PUSH1 0x0 DUP1 REVERT JUMPDEST PUSH1 0x0 PUSH2 0x1837 DUP6 DUP3 DUP7 ADD PUSH2 0x1784 JUMP JUMPDEST SWAP3 POP POP PUSH1 0x20 DUP4 ADD CALLDATALOAD PUSH8 0xFFFFFFFFFFFFFFFF DUP2 GT ISZERO PUSH2 0x1854 JUMPI PUSH1 0x0 DUP1 REVERT JUMPDEST PUSH2 0x1860 DUP6 DUP3 DUP7 ADD PUSH2 0x17AE JUMP JUMPDEST SWAP2 POP POP SWAP3 POP SWAP3 SWAP1 POP JUMP JUMPDEST PUSH1 0x0 DUP1 PUSH1 0x40 DUP4 DUP6 SUB SLT ISZERO PUSH2 0x187D JUMPI PUSH1 0x0 DUP1 REVERT JUMPDEST PUSH1 0x0 PUSH2 0x188B DUP6 DUP3 DUP7 ADD PUSH2 0x1784 JUMP JUMPDEST SWAP3 POP POP PUSH1 0x20 PUSH2 0x189C DUP6 DUP3 DUP7 ADD PUSH2 0x17D8 JUMP JUMPDEST SWAP2 POP POP SWAP3 POP SWAP3 SWAP1 POP JUMP JUMPDEST PUSH1 0x0 PUSH1 0x20 DUP3 DUP5 SUB SLT ISZERO PUSH2 0x18B8 JUMPI PUSH1 0x0 DUP1 REVERT JUMPDEST PUSH1 0x0 DUP3 ADD CALLDATALOAD PUSH8 0xFFFFFFFFFFFFFFFF DUP2 GT ISZERO PUSH2 0x18D2 JUMPI PUSH1 0x0 DUP1 REVERT JUMPDEST PUSH2 0x18DE DUP5 DUP3 DUP6 ADD PUSH2 0x17AE JUMP JUMPDEST SWAP2 POP POP SWAP3 SWAP2 POP POP JUMP JUMPDEST PUSH1 0x0 DUP1 PUSH1 0x40 DUP4 DUP6 SUB SLT ISZERO PUSH2 0x18FA JUMPI PUSH1 0x0 DUP1 REVERT JUMPDEST PUSH1 0x0 DUP4 ADD CALLDATALOAD PUSH8 0xFFFFFFFFFFFFFFFF DUP2 GT ISZERO PUSH2 0x1914 JUMPI PUSH1 0x0 DUP1 REVERT JUMPDEST PUSH2 0x1920 DUP6 DUP3 DUP7 ADD PUSH2 0x17AE JUMP JUMPDEST SWAP3 POP POP PUSH1 0x20 PUSH2 0x1931 DUP6 DUP3 DUP7 ADD PUSH2 0x1799 JUMP JUMPDEST SWAP2 POP POP SWAP3 POP SWAP3 SWAP1 POP JUMP JUMPDEST PUSH1 0x0 DUP1 PUSH1 0x40 DUP4 DUP6 SUB SLT ISZERO PUSH2 0x194E JUMPI PUSH1 0x0 DUP1 REVERT JUMPDEST PUSH1 0x0 DUP4 ADD CALLDATALOAD PUSH8 0xFFFFFFFFFFFFFFFF DUP2 GT ISZERO PUSH2 0x1968 JUMPI PUSH1 0x0 DUP1 REVERT JUMPDEST PUSH2 0x1974 DUP6 DUP3 DUP7 ADD PUSH2 0x17AE JUMP JUMPDEST SWAP3 POP POP PUSH1 0x20 DUP4 ADD CALLDATALOAD PUSH8 0xFFFFFFFFFFFFFFFF DUP2 GT ISZERO PUSH2 0x1991 JUMPI PUSH1 0x0 DUP1 REVERT JUMPDEST PUSH2 0x199D DUP6 DUP3 DUP7 ADD PUSH2 0x17AE JUMP JUMPDEST SWAP2 POP POP SWAP3 POP SWAP3 SWAP1 POP JUMP JUMPDEST PUSH1 0x0 DUP1 PUSH1 0x40 DUP4 DUP6 SUB SLT ISZERO PUSH2 0x19BA JUMPI PUSH1 0x0 DUP1 REVERT JUMPDEST PUSH1 0x0 DUP4 ADD CALLDATALOAD PUSH8 0xFFFFFFFFFFFFFFFF DUP2 GT ISZERO PUSH2 0x19D4 JUMPI PUSH1 0x0 DUP1 REVERT JUMPDEST PUSH2 0x19E0 DUP6 DUP3 DUP7 ADD PUSH2 0x17AE JUMP JUMPDEST SWAP3 POP POP PUSH1 0x20 PUSH2 0x19F1 DUP6 DUP3 DUP7 ADD PUSH2 0x17D8 JUMP JUMPDEST SWAP2 POP POP SWAP3 POP SWAP3 SWAP1 POP JUMP JUMPDEST PUSH1 0x0 PUSH1 0x20 DUP3 DUP5 SUB SLT ISZERO PUSH2 0x1A0D JUMPI PUSH1 0x0 DUP1 REVERT JUMPDEST PUSH1 0x0 PUSH2 0x1A1B DUP5 DUP3 DUP6 ADD PUSH2 0x17D8 JUMP JUMPDEST SWAP2 POP POP SWAP3 SWAP2 POP POP JUMP JUMPDEST PUSH1 0x0 DUP1 PUSH1 0x40 DUP4 DUP6 SUB SLT ISZERO PUSH2 0x1A37 JUMPI PUSH1 0x0 DUP1 REVERT JUMPDEST PUSH1 0x0 PUSH2 0x1A45 DUP6 DUP3 DUP7 ADD PUSH2 0x17D8 JUMP JUMPDEST SWAP3 POP POP PUSH1 0x20 PUSH2 0x1A56 DUP6 DUP3 DUP7 ADD PUSH2 0x17D8 JUMP JUMPDEST SWAP2 POP POP SWAP3 POP SWAP3 SWAP1 POP JUMP JUMPDEST PUSH1 0x0 PUSH2 0x1A6C DUP4 DUP4 PUSH2 0x1BAE JUMP JUMPDEST SWAP1 POP SWAP3 SWAP2 POP POP JUMP JUMPDEST PUSH1 0x0 PUSH2 0x1A80 DUP4 DUP4 PUSH2 0x1DD1 JUMP JUMPDEST SWAP1 POP SWAP3 SWAP2 POP POP JUMP JUMPDEST PUSH2 0x1A91 DUP2 PUSH2 0x226E JUMP JUMPDEST DUP3 MSTORE POP POP JUMP JUMPDEST PUSH2 0x1AA0 DUP2 PUSH2 0x226E JUMP JUMPDEST DUP3 MSTORE POP POP JUMP JUMPDEST PUSH1 0x0 PUSH2 0x1AB1 DUP3 PUSH2 0x215A JUMP JUMPDEST PUSH2 0x1ABB DUP2 DUP6 PUSH2 0x2195 JUMP JUMPDEST SWAP4 POP DUP4 PUSH1 0x20 DUP3 MUL DUP6 ADD PUSH2 0x1ACD DUP6 PUSH2 0x213A JUMP JUMPDEST DUP1 PUSH1 0x0 JUMPDEST DUP6 DUP2 LT ISZERO PUSH2 0x1B09 JUMPI DUP5 DUP5 SUB DUP10 MSTORE DUP2 MLOAD PUSH2 0x1AEA DUP6 DUP3 PUSH2 0x1A60 JUMP JUMPDEST SWAP5 POP PUSH2 0x1AF5 DUP4 PUSH2 0x217B JUMP JUMPDEST SWAP3 POP PUSH1 0x20 DUP11 ADD SWAP10 POP POP PUSH1 0x1 DUP2 ADD SWAP1 POP PUSH2 0x1AD1 JUMP JUMPDEST POP DUP3 SWAP8 POP DUP8 SWAP6 POP POP POP POP POP POP SWAP3 SWAP2 POP POP JUMP JUMPDEST PUSH1 0x0 PUSH2 0x1B26 DUP3 PUSH2 0x2165 JUMP JUMPDEST PUSH2 0x1B30 DUP2 DUP6 PUSH2 0x21A6 JUMP JUMPDEST SWAP4 POP DUP4 PUSH1 0x20 DUP3 MUL DUP6 ADD PUSH2 0x1B42 DUP6 PUSH2 0x214A JUMP JUMPDEST DUP1 PUSH1 0x0 JUMPDEST DUP6 DUP2 LT ISZERO PUSH2 0x1B7E JUMPI DUP5 DUP5 SUB DUP10 MSTORE DUP2 MLOAD PUSH2 0x1B5F DUP6 DUP3 PUSH2 0x1A74 JUMP JUMPDEST SWAP5 POP PUSH2 0x1B6A DUP4 PUSH2 0x2188 JUMP JUMPDEST SWAP3 POP PUSH1 0x20 DUP11 ADD SWAP10 POP POP PUSH1 0x1 DUP2 ADD SWAP1 POP PUSH2 0x1B46 JUMP JUMPDEST POP DUP3 SWAP8 POP DUP8 SWAP6 POP POP POP POP POP POP SWAP3 SWAP2 POP POP JUMP JUMPDEST PUSH2 0x1B99 DUP2 PUSH2 0x2280 JUMP JUMPDEST DUP3 MSTORE POP POP JUMP JUMPDEST PUSH2 0x1BA8 DUP2 PUSH2 0x2280 JUMP JUMPDEST DUP3 MSTORE POP POP JUMP JUMPDEST PUSH1 0x0 PUSH2 0x1BB9 DUP3 PUSH2 0x2170 JUMP JUMPDEST PUSH2 0x1BC3 DUP2 DUP6 PUSH2 0x21B7 JUMP JUMPDEST SWAP4 POP PUSH2 0x1BD3 DUP2 DUP6 PUSH1 0x20 DUP7 ADD PUSH2 0x22C5 JUMP JUMPDEST PUSH2 0x1BDC DUP2 PUSH2 0x2400 JUMP JUMPDEST DUP5 ADD SWAP2 POP POP SWAP3 SWAP2 POP POP JUMP JUMPDEST PUSH1 0x0 PUSH2 0x1BF2 DUP3 PUSH2 0x2170 JUMP JUMPDEST PUSH2 0x1BFC DUP2 DUP6 PUSH2 0x21C8 JUMP JUMPDEST SWAP4 POP PUSH2 0x1C0C DUP2 DUP6 PUSH1 0x20 DUP7 ADD PUSH2 0x22C5 JUMP JUMPDEST PUSH2 0x1C15 DUP2 PUSH2 0x2400 JUMP JUMPDEST DUP5 ADD SWAP2 POP POP SWAP3 SWAP2 POP POP JUMP JUMPDEST PUSH1 0x0 PUSH2 0x1C2B DUP3 PUSH2 0x2170 JUMP JUMPDEST PUSH2 0x1C35 DUP2 DUP6 PUSH2 0x21D9 JUMP JUMPDEST SWAP4 POP PUSH2 0x1C45 DUP2 DUP6 PUSH1 0x20 DUP7 ADD PUSH2 0x22C5 JUMP JUMPDEST DUP1 DUP5 ADD SWAP2 POP POP SWAP3 SWAP2 POP POP JUMP JUMPDEST PUSH1 0x0 PUSH2 0x1C5E PUSH1 0x1B DUP4 PUSH2 0x21C8 JUMP JUMPDEST SWAP2 POP PUSH32 0x416C726561647920766F746564206F6E20746869732069737375650000000000 PUSH1 0x0 DUP4 ADD MSTORE PUSH1 0x20 DUP3 ADD SWAP1 POP SWAP2 SWAP1 POP JUMP JUMPDEST PUSH1 0x0 PUSH2 0x1C9E PUSH1 0x14 DUP4 PUSH2 0x21C8 JUMP JUMPDEST SWAP2 POP PUSH32 0x497373756520646F6573206E6F74206578697374000000000000000000000000 PUSH1 0x0 DUP4 ADD MSTORE PUSH1 0x20 DUP3 ADD SWAP1 POP SWAP2 SWAP1 POP JUMP JUMPDEST PUSH1 0x0 PUSH2 0x1CDE PUSH1 0x15 DUP4 PUSH2 0x21C8 JUMP JUMPDEST SWAP2 POP PUSH32 0x5469746C652063616E6E6F7420626520656D7074790000000000000000000000 PUSH1 0x0 DUP4 ADD MSTORE PUSH1 0x20 DUP3 ADD SWAP1 POP SWAP2 SWAP1 POP JUMP JUMPDEST PUSH1 0x0 PUSH2 0x1D1E PUSH1 0x16 DUP4 PUSH2 0x21C8 JUMP JUMPDEST SWAP2 POP PUSH32 0x497373756520616C7265616479207265636F7264656400000000000000000000 PUSH1 0x0 DUP4 ADD MSTORE PUSH1 0x20 DUP3 ADD SWAP1 POP SWAP2 SWAP1 POP JUMP JUMPDEST PUSH1 0x0 PUSH2 0x1D5E PUSH1 0x14 DUP4 PUSH2 0x21C8 JUMP JUMPDEST SWAP2 POP PUSH32 0x4F6666736574206F7574206F6620626F756E6473000000000000000000000000 PUSH1 0x0 DUP4 ADD MSTORE PUSH1 0x20 DUP3 ADD SWAP1 POP SWAP2 SWAP1 POP JUMP JUMPDEST PUSH1 0x0 PUSH2 0x1D9E PUSH1 0x18 DUP4 PUSH2 0x21C8 JUMP JUMPDEST SWAP2 POP PUSH32 0x49737375652049442063616E6E6F7420626520656D7074790000000000000000 PUSH1 0x0 DUP4 ADD MSTORE PUSH1 0x20 DUP3 ADD SWAP1 POP SWAP2 SWAP1 POP JUMP JUMPDEST PUSH1 0x0 PUSH1 0x80 DUP4 ADD PUSH1 0x0 DUP4 ADD MLOAD PUSH2 0x1DE9 PUSH1 0x0 DUP7 ADD DUP3 PUSH2 0x1A88 JUMP JUMPDEST POP PUSH1 0x20 DUP4 ADD MLOAD DUP5 DUP3 SUB PUSH1 0x20 DUP7 ADD MSTORE PUSH2 0x1E01 DUP3 DUP3 PUSH2 0x1BAE JUMP JUMPDEST SWAP2 POP POP PUSH1 0x40 DUP4 ADD MLOAD PUSH2 0x1E16 PUSH1 0x40 DUP7 ADD DUP3 PUSH2 0x1E34 JUMP JUMPDEST POP PUSH1 0x60 DUP4 ADD MLOAD PUSH2 0x1E29 PUSH1 0x60 DUP7 ADD DUP3 PUSH2 0x1B90 JUMP JUMPDEST POP DUP1 SWAP2 POP POP SWAP3 SWAP2 POP POP JUMP JUMPDEST PUSH2 0x1E3D DUP2 PUSH2 0x22AC JUMP JUMPDEST DUP3 MSTORE POP POP JUMP JUMPDEST PUSH2 0x1E4C DUP2 PUSH2 0x22AC JUMP JUMPDEST DUP3 MSTORE POP POP JUMP JUMPDEST PUSH1 0x0 PUSH2 0x1E5E DUP3 DUP5 PUSH2 0x1C20 JUMP JUMPDEST SWAP2 POP DUP2 SWAP1 POP SWAP3 SWAP2 POP POP JUMP JUMPDEST PUSH1 0x0 PUSH1 0x80 DUP3 ADD SWAP1 POP PUSH2 0x1E7E PUSH1 0x0 DUP4 ADD DUP8 PUSH2 0x1A97 JUMP JUMPDEST DUP2 DUP2 SUB PUSH1 0x20 DUP4 ADD MSTORE PUSH2 0x1E90 DUP2 DUP7 PUSH2 0x1BE7 JUMP JUMPDEST SWAP1 POP PUSH2 0x1E9F PUSH1 0x40 DUP4 ADD DUP6 PUSH2 0x1E43 JUMP JUMPDEST PUSH2 0x1EAC PUSH1 0x60 DUP4 ADD DUP5 PUSH2 0x1B9F JUMP JUMPDEST SWAP6 SWAP5 POP POP POP POP POP JUMP JUMPDEST PUSH1 0x0 PUSH1 0x20 DUP3 ADD SWAP1 POP DUP2 DUP2 SUB PUSH1 0x0 DUP4 ADD MSTORE PUSH2 0x1ECF DUP2 DUP5 PUSH2 0x1AA6 JUMP JUMPDEST SWAP1 POP SWAP3 SWAP2 POP POP JUMP JUMPDEST PUSH1 0x0 PUSH1 0x20 DUP3 ADD SWAP1 POP DUP2 DUP2 SUB PUSH1 0x0 DUP4 ADD MSTORE PUSH2 0x1EF1 DUP2 DUP5 PUSH2 0x1B1B JUMP JUMPDEST SWAP1 POP SWAP3 SWAP2 POP POP JUMP JUMPDEST PUSH1 0x0 PUSH1 0x20 DUP3 ADD SWAP1 POP PUSH2 0x1F0E PUSH1 0x0 DUP4 ADD DUP5 PUSH2 0x1B9F JUMP JUMPDEST SWAP3 SWAP2 POP POP JUMP JUMPDEST PUSH1 0x0 PUSH1 0x40 DUP3 ADD SWAP1 POP PUSH2 0x1F29 PUSH1 0x0 DUP4 ADD DUP6 PUSH2 0x1B9F JUMP JUMPDEST PUSH2 0x1F36 PUSH1 0x20 DUP4 ADD DUP5 PUSH2 0x1E43 JUMP JUMPDEST SWAP4 SWAP3 POP POP POP JUMP JUMPDEST PUSH1 0x0 PUSH1 0x20 DUP3 ADD SWAP1 POP DUP2 DUP2 SUB PUSH1 0x0 DUP4 ADD MSTORE PUSH2 0x1F57 DUP2 DUP5 PUSH2 0x1BE7 JUMP JUMPDEST SWAP1 POP SWAP3 SWAP2 POP POP JUMP JUMPDEST PUSH1 0x0 PUSH1 0xC0 DUP3 ADD SWAP1 POP DUP2 DUP2 SUB PUSH1 0x0 DUP4 ADD MSTORE PUSH2 0x1F79 DUP2 DUP10 PUSH2 0x1BE7 JUMP JUMPDEST SWAP1 POP DUP2 DUP2 SUB PUSH1 0x20 DUP4 ADD MSTORE PUSH2 0x1F8D DUP2 DUP9 PUSH2 0x1BE7 JUMP JUMPDEST SWAP1 POP PUSH2 0x1F9C PUSH1 0x40 DUP4 ADD DUP8 PUSH2 0x1A97 JUMP JUMPDEST PUSH2 0x1FA9 PUSH1 0x60 DUP4 ADD DUP7 PUSH2 0x1E43 JUMP JUMPDEST PUSH2 0x1FB6 PUSH1 0x80 DUP4 ADD DUP6 PUSH2 0x1E43 JUMP JUMPDEST PUSH2 0x1FC3 PUSH1 0xA0 DUP4 ADD DUP5 PUSH2 0x1B9F JUMP JUMPDEST SWAP8 SWAP7 POP POP POP POP POP POP POP JUMP JUMPDEST PUSH1 0x0 PUSH1 0x40 DUP3 ADD SWAP1 POP DUP2 DUP2 SUB PUSH1 0x0 DUP4 ADD MSTORE PUSH2 0x1FE8 DUP2 DUP6 PUSH2 0x1BE7 JUMP JUMPDEST SWAP1 POP PUSH2 0x1FF7 PUSH1 0x20 DUP4 ADD DUP5 PUSH2 0x1E43 JUMP JUMPDEST SWAP4 SWAP3 POP POP POP JUMP JUMPDEST PUSH1 0x0 PUSH1 0x20 DUP3 ADD SWAP1 POP DUP2 DUP2 SUB PUSH1 0x0 DUP4 ADD MSTORE PUSH2 0x2017 DUP2 PUSH2 0x1C51 JUMP JUMPDEST SWAP1 POP SWAP2 SWAP1 POP JUMP JUMPDEST PUSH1 0x0 PUSH1 0x20 DUP3 ADD SWAP1 POP DUP2 DUP2 SUB PUSH1 0x0 DUP4 ADD MSTORE PUSH2 0x2037 DUP2 PUSH2 0x1C91 JUMP JUMPDEST SWAP1 POP SWAP2 SWAP1 POP JUMP JUMPDEST PUSH1 0x0 PUSH1 0x20 DUP3 ADD SWAP1 POP DUP2 DUP2 SUB PUSH1 0x0 DUP4 ADD MSTORE PUSH2 0x2057 DUP2 PUSH2 0x1CD1 JUMP JUMPDEST SWAP1 POP SWAP2 SWAP1 POP JUMP JUMPDEST PUSH1 0x0 PUSH1 0x20 DUP3 ADD SWAP1 POP DUP2 DUP2 SUB PUSH1 0x0 DUP4 ADD MSTORE PUSH2 0x2077 DUP2 PUSH2 0x1D11 JUMP JUMPDEST SWAP1 POP SWAP2 SWAP1 POP JUMP JUMPDEST PUSH1 0x0 PUSH1 0x20 DUP3 ADD SWAP1 POP DUP2 DUP2 SUB PUSH1 0x0 DUP4 ADD MSTORE PUSH2 0x2097 DUP2 PUSH2 0x1D51 JUMP JUMPDEST SWAP1 POP SWAP2 SWAP1 POP JUMP JUMPDEST PUSH1 0x0 PUSH1 0x20 DUP3 ADD SWAP1 POP DUP2 DUP2 SUB PUSH1 0x0 DUP4 ADD MSTORE PUSH2 0x20B7 DUP2 PUSH2 0x1D91 JUMP JUMPDEST SWAP1 POP SWAP2 SWAP1 POP JUMP JUMPDEST PUSH1 0x0 PUSH1 0x20 DUP3 ADD SWAP1 POP PUSH2 0x20D3 PUSH1 0x0 DUP4 ADD DUP5 PUSH2 0x1E43 JUMP JUMPDEST SWAP3 SWAP2 POP POP JUMP JUMPDEST PUSH1 0x0 PUSH1 0x40 MLOAD SWAP1 POP DUP2 DUP2 ADD DUP2 DUP2 LT PUSH8 0xFFFFFFFFFFFFFFFF DUP3 GT OR ISZERO PUSH2 0x2100 JUMPI PUSH2 0x20FF PUSH2 0x23D1 JUMP JUMPDEST JUMPDEST DUP1 PUSH1 0x40 MSTORE POP SWAP2 SWAP1 POP JUMP JUMPDEST PUSH1 0x0 PUSH8 0xFFFFFFFFFFFFFFFF DUP3 GT ISZERO PUSH2 0x2125 JUMPI PUSH2 0x2124 PUSH2 0x23D1 JUMP JUMPDEST JUMPDEST PUSH1 0x1F NOT PUSH1 0x1F DUP4 ADD AND SWAP1 POP PUSH1 0x20 DUP2 ADD SWAP1 POP SWAP2 SWAP1 POP JUMP JUMPDEST PUSH1 0x0 DUP2 SWAP1 POP PUSH1 0x20 DUP3 ADD SWAP1 POP SWAP2 SWAP1 POP JUMP JUMPDEST PUSH1 0x0 DUP2 SWAP1 POP PUSH1 0x20 DUP3 ADD SWAP1 POP SWAP2 SWAP1 POP JUMP JUMPDEST PUSH1 0x0 DUP2 MLOAD SWAP1 POP SWAP2 SWAP1 POP JUMP JUMPDEST PUSH1 0x0 DUP2 MLOAD SWAP1 POP SWAP2 SWAP1 POP JUMP JUMPDEST PUSH1 0x0 DUP2 MLOAD SWAP1 POP SWAP2 SWAP1 POP JUMP JUMPDEST PUSH1 0x0 PUSH1 0x20 DUP3 ADD SWAP1 POP SWAP2 SWAP1 POP JUMP JUMPDEST PUSH1 0x0 PUSH1 0x20 DUP3 ADD SWAP1 POP SWAP2 SWAP1 POP JUMP JUMPDEST PUSH1 0x0 DUP3 DUP3 MSTORE PUSH1 0x20 DUP3 ADD SWAP1 POP SWAP3 SWAP2 POP POP JUMP JUMPDEST PUSH1 0x0 DUP3 DUP3 MSTORE PUSH1 0x20 DUP3 ADD SWAP1 POP SWAP3 SWAP2 POP POP JUMP JUMPDEST PUSH1 0x0 DUP3 DUP3 MSTORE PUSH1 0x20 DUP3 ADD SWAP1 POP SWAP3 SWAP2 POP POP JUMP JUMPDEST PUSH1 0x0 DUP3 DUP3 MSTORE PUSH1 0x20 DUP3 ADD SWAP1 POP SWAP3 SWAP2 POP POP JUMP JUMPDEST PUSH1 0x0 DUP2 SWAP1 POP SWAP3 SWAP2 POP POP JUMP JUMPDEST PUSH1 0x0 PUSH2 0x21EF DUP3 PUSH2 0x22AC JUMP JUMPDEST SWAP2 POP PUSH2 0x21FA DUP4 PUSH2 0x22AC JUMP JUMPDEST SWAP3 POP DUP3 PUSH32 0xFFFFFFFFFFFFFFFFFFFFFFFFFFFFFFFFFFFFFFFFFFFFFFFFFFFFFFFFFFFFFFFF SUB DUP3 GT ISZERO PUSH2 0x222F JUMPI PUSH2 0x222E PUSH2 0x2373 JUMP JUMPDEST JUMPDEST DUP3 DUP3 ADD SWAP1 POP SWAP3 SWAP2 POP POP JUMP JUMPDEST PUSH1 0x0 PUSH2 0x2245 DUP3 PUSH2 0x22AC JUMP JUMPDEST SWAP2 POP PUSH2 0x2250 DUP4 PUSH2 0x22AC JUMP JUMPDEST SWAP3 POP DUP3 DUP3 LT ISZERO PUSH2 0x2263 JUMPI PUSH2 0x2262 PUSH2 0x2373 JUMP JUMPDEST JUMPDEST DUP3 DUP3 SUB SWAP1 POP SWAP3 SWAP2 POP POP JUMP JUMPDEST PUSH1 0x0 PUSH2 0x2279 DUP3 PUSH2 0x228C JUMP JUMPDEST SWAP1 POP SWAP2 SWAP1 POP JUMP JUMPDEST PUSH1 0x0 DUP2 ISZERO ISZERO SWAP1 POP SWAP2 SWAP1 POP JUMP JUMPDEST PUSH1 0x0 PUSH20 0xFFFFFFFFFFFFFFFFFFFFFFFFFFFFFFFFFFFFFFFF DUP3 AND SWAP1 POP SWAP2 SWAP1 POP JUMP JUMPDEST PUSH1 0x0 DUP2 SWAP1 POP SWAP2 SWAP1 POP JUMP JUMPDEST DUP3 DUP2 DUP4 CALLDATACOPY PUSH1 0x0 DUP4 DUP4 ADD MSTORE POP POP POP JUMP JUMPDEST PUSH1 0x0 JUMPDEST DUP4 DUP2 LT ISZERO PUSH2 0x22E3 JUMPI DUP1 DUP3 ADD MLOAD DUP2 DUP5 ADD MSTORE PUSH1 0x20 DUP2 ADD SWAP1 POP PUSH2 0x22C8 JUMP JUMPDEST DUP4 DUP2 GT ISZERO PUSH2 0x22F2 JUMPI PUSH1 0x0 DUP5 DUP5 ADD MSTORE JUMPDEST POP POP POP POP JUMP JUMPDEST PUSH1 0x0 PUSH1 0x2 DUP3 DIV SWAP1 POP PUSH1 0x1 DUP3 AND DUP1 PUSH2 0x2310 JUMPI PUSH1 0x7F DUP3 AND SWAP2 POP JUMPDEST PUSH1 0x20 DUP3 LT DUP2 EQ ISZERO PUSH2 0x2324 JUMPI PUSH2 0x2323 PUSH2 0x23A2 JUMP JUMPDEST JUMPDEST POP SWAP2 SWAP1 POP JUMP JUMPDEST PUSH1 0x0 PUSH2 0x2335 DUP3 PUSH2 0x22AC JUMP JUMPDEST SWAP2 POP PUSH32 0xFFFFFFFFFFFFFFFFFFFFFFFFFFFFFFFFFFFFFFFFFFFFFFFFFFFFFFFFFFFFFFFF DUP3 EQ ISZERO PUSH2 0x2368 JUMPI PUSH2 0x2367 PUSH2 0x2373 JUMP JUMPDEST JUMPDEST PUSH1 0x1 DUP3 ADD SWAP1 POP SWAP2 SWAP1 POP JUMP JUMPDEST PUSH32 0x4E487B7100000000000000000000000000000000000000000000000000000000 PUSH1 0x0 MSTORE PUSH1 0x11 PUSH1 0x4 MSTORE PUSH1 0x24 PUSH1 0x0 REVERT JUMPDEST PUSH32 0x4E487B7100000000000000000000000000000000000000000000000000000000 PUSH1 0x0 MSTORE PUSH1 0x22 PUSH1 0x4 MSTORE PUSH1 0x24 PUSH1 0x0 REVERT JUMPDEST PUSH32 0x4E487B7100000000000000000000000000000000000000000000000000000000 PUSH1 0x0 MSTORE PUSH1 0x41 PUSH1 0x4 MSTORE PUSH1 0x24 PUSH1 0x0 REVERT JUMPDEST PUSH1 0x0 PUSH1 0x1F NOT PUSH1 0x1F DUP4 ADD AND SWAP1 POP SWAP2 SWAP1 POP JUMP JUMPDEST PUSH2 0x241A DUP2 PUSH2 0x226E JUMP JUMPDEST DUP2 EQ PUSH2 0x2425 JUMPI PUSH1 0x0 DUP1 REVERT JUMPDEST POP JUMP JUMPDEST PUSH2 0x2431 DUP2 PUSH2 0x2280 JUMP JUMPDEST DUP2 EQ PUSH2 0x243C JUMPI PUSH1 0x0 DUP1 REVERT JUMPDEST POP JUMP JUMPDEST PUSH2 0x2448 DUP2 PUSH2 0x22AC JUMP JUMPDEST DUP2 EQ PUSH2 0x2453 JUMPI PUSH1 0x0 DUP1 REVERT JUMPDEST POP JUMP INVALID LOG2 PUSH5 0x6970667358 0x22 SLT KECCAK256 RETURN 0xA9 SWAP3 0x2B SWAP6 NOT 0xAE PUSH12 0xE95CAA773D5D2BE09DADE3F0 SWAP13 PUSH4 0xB8B25F77 PUSH17 0x3F533D8B6A64736F6C6343000800003300 "
	},
	"Assembly": ".code\n  PUSH 80\t\t\tcontract CivicIssueTracker {\\r...\n  PUSH 40\t\t\tcontract CivicIssueTracker {\\r...\n  MSTORE \t\t\tcontract CivicIssueTracker {\\r...\n  CALLVALUE \t\t\tcontract CivicIssueTracker {\\r...\n  DUP1 \t\t\tcontract CivicIssueTracker {\\r...\n  ISZERO \t\t\tcontract CivicIssueTracker {\\r...\n  PUSH [tag] 1\t\t\tcontract CivicIssueTracker {\\r...\n  JUMPI \t\t\tcontract CivicIssueTracker {\\r...\n  PUSH 0\t\t\tcontract CivicIssueTracker {\\r...\n  DUP1 \t\t\tcontract CivicIssueTracker {\\r...\n  REVERT \t\t\tcontract CivicIssueTracker {\\r...\ntag 1\t\t\tcontract CivicIssueTracker {\\r...\n  JUMPDEST \t\t\tcontract CivicIssueTracker {\\r...\n  POP \t\t\tcontract CivicIssueTracker {\\r...\n  PUSH #[$] 0000000000000000000000000000000000000000000000000000000000000000\t\t\tcontract CivicIssueTracker {\\r...\n  DUP1 \t\t\tcontract CivicIssueTracker {\\r...\n  PUSH [$] 0000000000000000000000000000000000000000000000000000000000000000\t\t\tcontract CivicIssueTracker {\\r...\n  PUSH 0\t\t\tcontract CivicIssueTracker {\\r...\n  CODECOPY \t\t\tcontract CivicIssueTracker {\\r...\n  PUSH 0\t\t\tcontract CivicIssueTracker {\\r...\n  RETURN \t\t\tcontract CivicIssueTracker {\\r...\n.data\n  0:\n    .code\n      PUSH 80\t\t\tcontract CivicIssueTracker {\\r...\n      PUSH 40\t\t\tcontract CivicIssueTracker {\\r...\n      MSTORE \t\t\tcontract CivicIssueTracker {\\r...\n      CALLVALUE \t\t\tcontract CivicIssueTracker {\\r...\n      DUP1 \t\t\tcontract CivicIssueTracker {\\r...\n      ISZERO \t\t\tcontract CivicIssueTracker {\\r...\n      PUSH [tag] 1\t\t\tcontract CivicIssueTracker {\\r...\n      JUMPI \t\t\tcontract CivicIssueTracker {\\r...\n      PUSH 0\t\t\tcontract CivicIssueTracker {\\r...\n      DUP1 \t\t\tcontract CivicIssueTracker {\\r...\n      REVERT \t\t\tcontract CivicIssueTracker {\\r...\n    tag 1\t\t\tcontract CivicIssueTracker {\\r...\n      JUMPDEST \t\t\tcontract CivicIssueTracker {\\r...\n      POP \t\t\tcontract CivicIssueTracker {\\r...\n      PUSH 4\t\t\tcontract CivicIssueTracker {\\r...\n      CALLDATASIZE \t\t\tcontract CivicIssueTracker {\\r...\n      LT \t\t\tcontract CivicIssueTracker {\\r...\n      PUSH [tag] 2\t\t\tcontract CivicIssueTracker {\\r...\n      JUMPI \t\t\tcontract CivicIssueTracker {\\r...\n      PUSH 0\t\t\tcontract CivicIssueTracker {\\r...\n      CALLDATALOAD \t\t\tcontract CivicIssueTracker {\\r...\n      PUSH E0\t\t\tcontract CivicIssueTracker {\\r...\n      SHR \t\t\tcontract CivicIssueTracker {\\r...\n      DUP1 \t\t\tcontract CivicIssueTracker {\\r...\n      PUSH 89376869\t\t\tcontract CivicIssueTracker {\\r...\n      GT \t\t\tcontract CivicIssueTracker {\\r...\n      PUSH [tag] 17\t\t\tcontract CivicIssueTracker {\\r...\n      JUMPI \t\t\tcontract CivicIssueTracker {\\r...\n      DUP1 \t\t\tcontract CivicIssueTracker {\\r...\n      PUSH C6847060\t\t\tcontract CivicIssueTracker {\\r...\n      GT \t\t\tcontract CivicIssueTracker {\\r...\n      PUSH [tag] 18\t\t\tcontract CivicIssueTracker {\\r...\n      JUMPI \t\t\tcontract CivicIssueTracker {\\r...\n      DUP1 \t\t\tcontract CivicIssueTracker {\\r...\n      PUSH C6847060\t\t\tcontract CivicIssueTracker {\\r...\n      EQ \t\t\tcontract CivicIssueTracker {\\r...\n      PUSH [tag] 13\t\t\tcontract CivicIssueTracker {\\r...\n      JUMPI \t\t\tcontract CivicIssueTracker {\\r...\n      DUP1 \t\t\tcontract CivicIssueTracker {\\r...\n      PUSH E38BA436\t\t\tcontract CivicIssueTracker {\\r...\n      EQ \t\t\tcontract CivicIssueTracker {\\r...\n      PUSH [tag] 14\t\t\tcontract CivicIssueTracker {\\r...\n      JUMPI \t\t\tcontract CivicIssueTracker {\\r...\n      DUP1 \t\t\tcontract CivicIssueTracker {\\r...\n      PUSH F62EF4B6\t\t\tcontract CivicIssueTracker {\\r...\n      EQ \t\t\tcontract CivicIssueTracker {\\r...\n      PUSH [tag] 15\t\t\tcontract CivicIssueTracker {\\r...\n      JUMPI \t\t\tcontract CivicIssueTracker {\\r...\n      DUP1 \t\t\tcontract CivicIssueTracker {\\r...\n      PUSH F81E08C6\t\t\tcontract CivicIssueTracker {\\r...\n      EQ \t\t\tcontract CivicIssueTracker {\\r...\n      PUSH [tag] 16\t\t\tcontract CivicIssueTracker {\\r...\n      JUMPI \t\t\tcontract CivicIssueTracker {\\r...\n      PUSH [tag] 2\t\t\tcontract CivicIssueTracker {\\r...\n      JUMP \t\t\tcontract CivicIssueTracker {\\r...\n    tag 18\t\t\tcontract CivicIssueTracker {\\r...\n      JUMPDEST \t\t\tcontract CivicIssueTracker {\\r...\n      DUP1 \t\t\tcontract CivicIssueTracker {\\r...\n      PUSH 89376869\t\t\tcontract CivicIssueTracker {\\r...\n      EQ \t\t\tcontract CivicIssueTracker {\\r...\n      PUSH [tag] 10\t\t\tcontract CivicIssueTracker {\\r...\n      JUMPI \t\t\tcontract CivicIssueTracker {\\r...\n      DUP1 \t\t\tcontract CivicIssueTracker {\\r...\n      PUSH 9C667C7D\t\t\tcontract CivicIssueTracker {\\r...\n      EQ \t\t\tcontract CivicIssueTracker {\\r...\n      PUSH [tag] 11\t\t\tcontract CivicIssueTracker {\\r...\n      JUMPI \t\t\tcontract CivicIssueTracker {\\r...\n      DUP1 \t\t\tcontract CivicIssueTracker {\\r...\n      PUSH 9EBD2677\t\t\tcontract CivicIssueTracker {\\r...\n      EQ \t\t\tcontract CivicIssueTracker {\\r...\n      PUSH [tag] 12\t\t\tcontract CivicIssueTracker {\\r...\n      JUMPI \t\t\tcontract CivicIssueTracker {\\r...\n      PUSH [tag] 2\t\t\tcontract CivicIssueTracker {\\r...\n      JUMP \t\t\tcontract CivicIssueTracker {\\r...\n    tag 17\t\t\tcontract CivicIssueTracker {\\r...\n      JUMPDEST \t\t\tcontract CivicIssueTracker {\\r...\n      DUP1 \t\t\tcontract CivicIssueTracker {\\r...\n      PUSH 31F4FFF0\t\t\tcontract CivicIssueTracker {\\r...\n      GT \t\t\tcontract CivicIssueTracker {\\r...\n      PUSH [tag] 19\t\t\tcontract CivicIssueTracker {\\r...\n      JUMPI \t\t\tcontract CivicIssueTracker {\\r...\n      DUP1 \t\t\tcontract CivicIssueTracker {\\r...\n      PUSH 31F4FFF0\t\t\tcontract CivicIssueTracker {\\r...\n      EQ \t\t\tcontract CivicIssueTracker {\\r...\n      PUSH [tag] 6\t\t\tcontract CivicIssueTracker {\\r...\n      JUMPI \t\t\tcontract CivicIssueTracker {\\r...\n      DUP1 \t\t\tcontract CivicIssueTracker {\\r...\n      PUSH 3535CA9A\t\t\tcontract CivicIssueTracker {\\r...\n      EQ \t\t\tcontract CivicIssueTracker {\\r...\n      PUSH [tag] 7\t\t\tcontract CivicIssueTracker {\\r...\n      JUMPI \t\t\tcontract CivicIssueTracker {\\r...\n      DUP1 \t\t\tcontract CivicIssueTracker {\\r...\n      PUSH 4B098976\t\t\tcontract CivicIssueTracker {\\r...\n      EQ \t\t\tcontract CivicIssueTracker {\\r...\n      PUSH [tag] 8\t\t\tcontract CivicIssueTracker {\\r...\n      JUMPI \t\t\tcontract CivicIssueTracker {\\r...\n      DUP1 \t\t\tcontract CivicIssueTracker {\\r...\n      PUSH 814A1096\t\t\tcontract CivicIssueTracker {\\r...\n      EQ \t\t\tcontract CivicIssueTracker {\\r...\n      PUSH [tag] 9\t\t\tcontract CivicIssueTracker {\\r...\n      JUMPI \t\t\tcontract CivicIssueTracker {\\r...\n      PUSH [tag] 2\t\t\tcontract CivicIssueTracker {\\r...\n      JUMP \t\t\tcontract CivicIssueTracker {\\r...\n    tag 19\t\t\tcontract CivicIssueTracker {\\r...\n      JUMPDEST \t\t\tcontract CivicIssueTracker {\\r...\n      DUP1 \t\t\tcontract CivicIssueTracker {\\r...\n      PUSH F2EAC2\t\t\tcontract CivicIssueTracker {\\r...\n      EQ \t\t\tcontract CivicIssueTracker {\\r...\n      PUSH [tag] 3\t\t\tcontract CivicIssueTracker {\\r...\n      JUMPI \t\t\tcontract CivicIssueTracker {\\r...\n      DUP1 \t\t\tcontract CivicIssueTracker {\\r...\n      PUSH 69953A7\t\t\tcontract CivicIssueTracker {\\r...\n      EQ \t\t\tcontract CivicIssueTracker {\\r...\n      PUSH [tag] 4\t\t\tcontract CivicIssueTracker {\\r...\n      JUMPI \t\t\tcontract CivicIssueTracker {\\r...\n      DUP1 \t\t\tcontract CivicIssueTracker {\\r...\n      PUSH 287DE362\t\t\tcontract CivicIssueTracker {\\r...\n      EQ \t\t\tcontract CivicIssueTracker {\\r...\n      PUSH [tag] 5\t\t\tcontract CivicIssueTracker {\\r...\n      JUMPI \t\t\tcontract CivicIssueTracker {\\r...\n    tag 2\t\t\tcontract CivicIssueTracker {\\r...\n      JUMPDEST \t\t\tcontract CivicIssueTracker {\\r...\n      PUSH 0\t\t\tcontract CivicIssueTracker {\\r...\n      DUP1 \t\t\tcontract CivicIssueTracker {\\r...\n      REVERT \t\t\tcontract CivicIssueTracker {\\r...\n    tag 3\t\t\tfunction recordVote(\\r\\n      ...\n      JUMPDEST \t\t\tfunction recordVote(\\r\\n      ...\n      PUSH [tag] 20\t\t\tfunction recordVote(\\r\\n      ...\n      PUSH 4\t\t\tfunction recordVote(\\r\\n      ...\n      DUP1 \t\t\tfunction recordVote(\\r\\n      ...\n      CALLDATASIZE \t\t\tfunction recordVote(\\r\\n      ...\n      SUB \t\t\tfunction recordVote(\\r\\n      ...\n      DUP2 \t\t\tfunction recordVote(\\r\\n      ...\n      ADD \t\t\tfunction recordVote(\\r\\n      ...\n      SWAP1 \t\t\tfunction recordVote(\\r\\n      ...\n      PUSH [tag] 21\t\t\tfunction recordVote(\\r\\n      ...\n      SWAP2 \t\t\tfunction recordVote(\\r\\n      ...\n      SWAP1 \t\t\tfunction recordVote(\\r\\n      ...\n      PUSH [tag] 22\t\t\tfunction recordVote(\\r\\n      ...\n      JUMP [in]\t\t\tfunction recordVote(\\r\\n      ...\n    tag 21\t\t\tfunction recordVote(\\r\\n      ...\n      JUMPDEST \t\t\tfunction recordVote(\\r\\n      ...\n      PUSH [tag] 23\t\t\tfunction recordVote(\\r\\n      ...\n      JUMP [in]\t\t\tfunction recordVote(\\r\\n      ...\n    tag 20\t\t\tfunction recordVote(\\r\\n      ...\n      JUMPDEST \t\t\tfunction recordVote(\\r\\n      ...\n      STOP \t\t\tfunction recordVote(\\r\\n      ...\n    tag 4\t\t\tfunction getVoteCount(string m...\n      JUMPDEST \t\t\tfunction getVoteCount(string m...\n      PUSH [tag] 24\t\t\tfunction getVoteCount(string m...\n      PUSH 4\t\t\tfunction getVoteCount(string m...\n      DUP1 \t\t\tfunction getVoteCount(string m...\n      CALLDATASIZE \t\t\tfunction getVoteCount(string m...\n      SUB \t\t\tfunction getVoteCount(string m...\n      DUP2 \t\t\tfunction getVoteCount(string m...\n      ADD \t\t\tfunction getVoteCount(string m...\n      SWAP1 \t\t\tfunction getVoteCount(string m...\n      PUSH [tag] 25\t\t\tfunction getVoteCount(string m...\n      SWAP2 \t\t\tfunction getVoteCount(string m...\n      SWAP1 \t\t\tfunction getVoteCount(string m...\n      PUSH [tag] 26\t\t\tfunction getVoteCount(string m...\n      JUMP [in]\t\t\tfunction getVoteCount(string m...\n    tag 25\t\t\tfunction getVoteCount(string m...\n      JUMPDEST \t\t\tfunction getVoteCount(string m...\n      PUSH [tag] 27\t\t\tfunction getVoteCount(string m...\n      JUMP [in]\t\t\tfunction getVoteCount(string m...\n    tag 24\t\t\tfunction getVoteCount(string m...\n      JUMPDEST \t\t\tfunction getVoteCount(string m...\n      PUSH 40\t\t\tfunction getVoteCount(string m...\n      MLOAD \t\t\tfunction getVoteCount(string m...\n      PUSH [tag] 28\t\t\tfunction getVoteCount(string m...\n      SWAP2 \t\t\tfunction getVoteCount(string m...\n      SWAP1 \t\t\tfunction getVoteCount(string m...\n      PUSH [tag] 29\t\t\tfunction getVoteCount(string m...\n      JUMP [in]\t\t\tfunction getVoteCount(string m...\n    tag 28\t\t\tfunction getVoteCount(string m...\n      JUMPDEST \t\t\tfunction getVoteCount(string m...\n      PUSH 40\t\t\tfunction getVoteCount(string m...\n      MLOAD \t\t\tfunction getVoteCount(string m...\n      DUP1 \t\t\tfunction getVoteCount(string m...\n      SWAP2 \t\t\tfunction getVoteCount(string m...\n      SUB \t\t\tfunction getVoteCount(string m...\n      SWAP1 \t\t\tfunction getVoteCount(string m...\n      RETURN \t\t\tfunction getVoteCount(string m...\n    tag 5\t\t\tmapping(address => string[]) p...\n      JUMPDEST \t\t\tmapping(address => string[]) p...\n      PUSH [tag] 30\t\t\tmapping(address => string[]) p...\n      PUSH 4\t\t\tmapping(address => string[]) p...\n      DUP1 \t\t\tmapping(address => string[]) p...\n      CALLDATASIZE \t\t\tmapping(address => string[]) p...\n      SUB \t\t\tmapping(address => string[]) p...\n      DUP2 \t\t\tmapping(address => string[]) p...\n      ADD \t\t\tmapping(address => string[]) p...\n      SWAP1 \t\t\tmapping(address => string[]) p...\n      PUSH [tag] 31\t\t\tmapping(address => string[]) p...\n      SWAP2 \t\t\tmapping(address => string[]) p...\n      SWAP1 \t\t\tmapping(address => string[]) p...\n      PUSH [tag] 32\t\t\tmapping(address => string[]) p...\n      JUMP [in]\t\t\tmapping(address => string[]) p...\n    tag 31\t\t\tmapping(address => string[]) p...\n      JUMPDEST \t\t\tmapping(address => string[]) p...\n      PUSH [tag] 33\t\t\tmapping(address => string[]) p...\n      JUMP [in]\t\t\tmapping(address => string[]) p...\n    tag 30\t\t\tmapping(address => string[]) p...\n      JUMPDEST \t\t\tmapping(address => string[]) p...\n      PUSH 40\t\t\tmapping(address => string[]) p...\n      MLOAD \t\t\tmapping(address => string[]) p...\n      PUSH [tag] 34\t\t\tmapping(address => string[]) p...\n      SWAP2 \t\t\tmapping(address => string[]) p...\n      SWAP1 \t\t\tmapping(address => string[]) p...\n      PUSH [tag] 35\t\t\tmapping(address => string[]) p...\n      JUMP [in]\t\t\tmapping(address => string[]) p...\n    tag 34\t\t\tmapping(address => string[]) p...\n      JUMPDEST \t\t\tmapping(address => string[]) p...\n      PUSH 40\t\t\tmapping(address => string[]) p...\n      MLOAD \t\t\tmapping(address => string[]) p...\n      DUP1 \t\t\tmapping(address => string[]) p...\n      SWAP2 \t\t\tmapping(address => string[]) p...\n      SUB \t\t\tmapping(address => string[]) p...\n      SWAP1 \t\t\tmapping(address => string[]) p...\n      RETURN \t\t\tmapping(address => string[]) p...\n    tag 6\t\t\tstring[] public allIssueIds\n      JUMPDEST \t\t\tstring[] public allIssueIds\n      PUSH [tag] 36\t\t\tstring[] public allIssueIds\n      PUSH 4\t\t\tstring[] public allIssueIds\n      DUP1 \t\t\tstring[] public allIssueIds\n      CALLDATASIZE \t\t\tstring[] public allIssueIds\n      SUB \t\t\tstring[] public allIssueIds\n      DUP2 \t\t\tstring[] public allIssueIds\n      ADD \t\t\tstring[] public allIssueIds\n      SWAP1 \t\t\tstring[] public allIssueIds\n      PUSH [tag] 37\t\t\tstring[] public allIssueIds\n      SWAP2 \t\t\tstring[] public allIssueIds\n      SWAP1 \t\t\tstring[] public allIssueIds\n      PUSH [tag] 38\t\t\tstring[] public allIssueIds\n      JUMP [in]\t\t\tstring[] public allIssueIds\n    tag 37\t\t\tstring[] public allIssueIds\n      JUMPDEST \t\t\tstring[] public allIssueIds\n      PUSH [tag] 39\t\t\tstring[] public allIssueIds\n      JUMP [in]\t\t\tstring[] public allIssueIds\n    tag 36\t\t\tstring[] public allIssueIds\n      JUMPDEST \t\t\tstring[] public allIssueIds\n      PUSH 40\t\t\tstring[] public allIssueIds\n      MLOAD \t\t\tstring[] public allIssueIds\n      PUSH [tag] 40\t\t\tstring[] public allIssueIds\n      SWAP2 \t\t\tstring[] public allIssueIds\n      SWAP1 \t\t\tstring[] public allIssueIds\n      PUSH [tag] 35\t\t\tstring[] public allIssueIds\n      JUMP [in]\t\t\tstring[] public allIssueIds\n    tag 40\t\t\tstring[] public allIssueIds\n      JUMPDEST \t\t\tstring[] public allIssueIds\n      PUSH 40\t\t\tstring[] public allIssueIds\n      MLOAD \t\t\tstring[] public allIssueIds\n      DUP1 \t\t\tstring[] public allIssueIds\n      SWAP2 \t\t\tstring[] public allIssueIds\n      SUB \t\t\tstring[] public allIssueIds\n      SWAP1 \t\t\tstring[] public allIssueIds\n      RETURN \t\t\tstring[] public allIssueIds\n    tag 7\t\t\tfunction getUserIssues(address...\n      JUMPDEST \t\t\tfunction getUserIssues(address...\n      PUSH [tag] 41\t\t\tfunction getUserIssues(address...\n      PUSH 4\t\t\tfunction getUserIssues(address...\n      DUP1 \t\t\tfunction getUserIssues(address...\n      CALLDATASIZE \t\t\tfunction getUserIssues(address...\n      SUB \t\t\tfunction getUserIssues(address...\n      DUP2 \t\t\tfunction getUserIssues(address...\n      ADD \t\t\tfunction getUserIssues(address...\n      SWAP1 \t\t\tfunction getUserIssues(address...\n      PUSH [tag] 42\t\t\tfunction getUserIssues(address...\n      SWAP2 \t\t\tfunction getUserIssues(address...\n      SWAP1 \t\t\tfunction getUserIssues(address...\n      PUSH [tag] 43\t\t\tfunction getUserIssues(address...\n      JUMP [in]\t\t\tfunction getUserIssues(address...\n    tag 42\t\t\tfunction getUserIssues(address...\n      JUMPDEST \t\t\tfunction getUserIssues(address...\n      PUSH [tag] 44\t\t\tfunction getUserIssues(address...\n      JUMP [in]\t\t\tfunction getUserIssues(address...\n    tag 41\t\t\tfunction getUserIssues(address...\n      JUMPDEST \t\t\tfunction getUserIssues(address...\n      PUSH 40\t\t\tfunction getUserIssues(address...\n      MLOAD \t\t\tfunction getUserIssues(address...\n      PUSH [tag] 45\t\t\tfunction getUserIssues(address...\n      SWAP2 \t\t\tfunction getUserIssues(address...\n      SWAP1 \t\t\tfunction getUserIssues(address...\n      PUSH [tag] 46\t\t\tfunction getUserIssues(address...\n      JUMP [in]\t\t\tfunction getUserIssues(address...\n    tag 45\t\t\tfunction getUserIssues(address...\n      JUMPDEST \t\t\tfunction getUserIssues(address...\n      PUSH 40\t\t\tfunction getUserIssues(address...\n      MLOAD \t\t\tfunction getUserIssues(address...\n      DUP1 \t\t\tfunction getUserIssues(address...\n      SWAP2 \t\t\tfunction getUserIssues(address...\n      SUB \t\t\tfunction getUserIssues(address...\n      SWAP1 \t\t\tfunction getUserIssues(address...\n      RETURN \t\t\tfunction getUserIssues(address...\n    tag 8\t\t\tfunction checkIfVoted(address ...\n      JUMPDEST \t\t\tfunction checkIfVoted(address ...\n      PUSH [tag] 47\t\t\tfunction checkIfVoted(address ...\n      PUSH 4\t\t\tfunction checkIfVoted(address ...\n      DUP1 \t\t\tfunction checkIfVoted(address ...\n      CALLDATASIZE \t\t\tfunction checkIfVoted(address ...\n      SUB \t\t\tfunction checkIfVoted(address ...\n      DUP2 \t\t\tfunction checkIfVoted(address ...\n      ADD \t\t\tfunction checkIfVoted(address ...\n      SWAP1 \t\t\tfunction checkIfVoted(address ...\n      PUSH [tag] 48\t\t\tfunction checkIfVoted(address ...\n      SWAP2 \t\t\tfunction checkIfVoted(address ...\n      SWAP1 \t\t\tfunction checkIfVoted(address ...\n      PUSH [tag] 49\t\t\tfunction checkIfVoted(address ...\n      JUMP [in]\t\t\tfunction checkIfVoted(address ...\n    tag 48\t\t\tfunction checkIfVoted(address ...\n      JUMPDEST \t\t\tfunction checkIfVoted(address ...\n      PUSH [tag] 50\t\t\tfunction checkIfVoted(address ...\n      JUMP [in]\t\t\tfunction checkIfVoted(address ...\n    tag 47\t\t\tfunction checkIfVoted(address ...\n      JUMPDEST \t\t\tfunction checkIfVoted(address ...\n      PUSH 40\t\t\tfunction checkIfVoted(address ...\n      MLOAD \t\t\tfunction checkIfVoted(address ...\n      PUSH [tag] 51\t\t\tfunction checkIfVoted(address ...\n      SWAP2 \t\t\tfunction checkIfVoted(address ...\n      SWAP1 \t\t\tfunction checkIfVoted(address ...\n      PUSH [tag] 52\t\t\tfunction checkIfVoted(address ...\n      JUMP [in]\t\t\tfunction checkIfVoted(address ...\n    tag 51\t\t\tfunction checkIfVoted(address ...\n      JUMPDEST \t\t\tfunction checkIfVoted(address ...\n      PUSH 40\t\t\tfunction checkIfVoted(address ...\n      MLOAD \t\t\tfunction checkIfVoted(address ...\n      DUP1 \t\t\tfunction checkIfVoted(address ...\n      SWAP2 \t\t\tfunction checkIfVoted(address ...\n      SUB \t\t\tfunction checkIfVoted(address ...\n      SWAP1 \t\t\tfunction checkIfVoted(address ...\n      RETURN \t\t\tfunction checkIfVoted(address ...\n    tag 9\t\t\tfunction getIssue(string memor...\n      JUMPDEST \t\t\tfunction getIssue(string memor...\n      PUSH [tag] 53\t\t\tfunction getIssue(string memor...\n      PUSH 4\t\t\tfunction getIssue(string memor...\n      DUP1 \t\t\tfunction getIssue(string memor...\n      CALLDATASIZE \t\t\tfunction getIssue(string memor...\n      SUB \t\t\tfunction getIssue(string memor...\n      DUP2 \t\t\tfunction getIssue(string memor...\n      ADD \t\t\tfunction getIssue(string memor...\n      SWAP1 \t\t\tfunction getIssue(string memor...\n      PUSH [tag] 54\t\t\tfunction getIssue(string memor...\n      SWAP2 \t\t\tfunction getIssue(string memor...\n      SWAP1 \t\t\tfunction getIssue(string memor...\n      PUSH [tag] 26\t\t\tfunction getIssue(string memor...\n      JUMP [in]\t\t\tfunction getIssue(string memor...\n    tag 54\t\t\tfunction getIssue(string memor...\n      JUMPDEST \t\t\tfunction getIssue(string memor...\n      PUSH [tag] 55\t\t\tfunction getIssue(string memor...\n      JUMP [in]\t\t\tfunction getIssue(string memor...\n    tag 53\t\t\tfunction getIssue(string memor...\n      JUMPDEST \t\t\tfunction getIssue(string memor...\n      PUSH 40\t\t\tfunction getIssue(string memor...\n      MLOAD \t\t\tfunction getIssue(string memor...\n      PUSH [tag] 56\t\t\tfunction getIssue(string memor...\n      SWAP7 \t\t\tfunction getIssue(string memor...\n      SWAP6 \t\t\tfunction getIssue(string memor...\n      SWAP5 \t\t\tfunction getIssue(string memor...\n      SWAP4 \t\t\tfunction getIssue(string memor...\n      SWAP3 \t\t\tfunction getIssue(string memor...\n      SWAP2 \t\t\tfunction getIssue(string memor...\n      SWAP1 \t\t\tfunction getIssue(string memor...\n      PUSH [tag] 57\t\t\tfunction getIssue(string memor...\n      JUMP [in]\t\t\tfunction getIssue(string memor...\n    tag 56\t\t\tfunction getIssue(string memor...\n      JUMPDEST \t\t\tfunction getIssue(string memor...\n      PUSH 40\t\t\tfunction getIssue(string memor...\n      MLOAD \t\t\tfunction getIssue(string memor...\n      DUP1 \t\t\tfunction getIssue(string memor...\n      SWAP2 \t\t\tfunction getIssue(string memor...\n      SUB \t\t\tfunction getIssue(string memor...\n      SWAP1 \t\t\tfunction getIssue(string memor...\n      RETURN \t\t\tfunction getIssue(string memor...\n    tag 10\t\t\tmapping(string => Vote[]) publ...\n      JUMPDEST \t\t\tmapping(string => Vote[]) publ...\n      PUSH [tag] 58\t\t\tmapping(string => Vote[]) publ...\n      PUSH 4\t\t\tmapping(string => Vote[]) publ...\n      DUP1 \t\t\tmapping(string => Vote[]) publ...\n      CALLDATASIZE \t\t\tmapping(string => Vote[]) publ...\n      SUB \t\t\tmapping(string => Vote[]) publ...\n      DUP2 \t\t\tmapping(string => Vote[]) publ...\n      ADD \t\t\tmapping(string => Vote[]) publ...\n      SWAP1 \t\t\tmapping(string => Vote[]) publ...\n      PUSH [tag] 59\t\t\tmapping(string => Vote[]) publ...\n      SWAP2 \t\t\tmapping(string => Vote[]) publ...\n      SWAP1 \t\t\tmapping(string => Vote[]) publ...\n      PUSH [tag] 60\t\t\tmapping(string => Vote[]) publ...\n      JUMP [in]\t\t\tmapping(string => Vote[]) publ...\n    tag 59\t\t\tmapping(string => Vote[]) publ...\n      JUMPDEST \t\t\tmapping(string => Vote[]) publ...\n      PUSH [tag] 61\t\t\tmapping(string => Vote[]) publ...\n      JUMP [in]\t\t\tmapping(string => Vote[]) publ...\n    tag 58\t\t\tmapping(string => Vote[]) publ...\n      JUMPDEST \t\t\tmapping(string => Vote[]) publ...\n      PUSH 40\t\t\tmapping(string => Vote[]) publ...\n      MLOAD \t\t\tmapping(string => Vote[]) publ...\n      PUSH [tag] 62\t\t\tmapping(string => Vote[]) publ...\n      SWAP5 \t\t\tmapping(string => Vote[]) publ...\n      SWAP4 \t\t\tmapping(string => Vote[]) publ...\n      SWAP3 \t\t\tmapping(string => Vote[]) publ...\n      SWAP2 \t\t\tmapping(string => Vote[]) publ...\n      SWAP1 \t\t\tmapping(string => Vote[]) publ...\n      PUSH [tag] 63\t\t\tmapping(string => Vote[]) publ...\n      JUMP [in]\t\t\tmapping(string => Vote[]) publ...\n    tag 62\t\t\tmapping(string => Vote[]) publ...\n      JUMPDEST \t\t\tmapping(string => Vote[]) publ...\n      PUSH 40\t\t\tmapping(string => Vote[]) publ...\n      MLOAD \t\t\tmapping(string => Vote[]) publ...\n      DUP1 \t\t\tmapping(string => Vote[]) publ...\n      SWAP2 \t\t\tmapping(string => Vote[]) publ...\n      SUB \t\t\tmapping(string => Vote[]) publ...\n      SWAP1 \t\t\tmapping(string => Vote[]) publ...\n      RETURN \t\t\tmapping(string => Vote[]) publ...\n    tag 11\t\t\tfunction recordIssue(\\r\\n     ...\n      JUMPDEST \t\t\tfunction recordIssue(\\r\\n     ...\n      PUSH [tag] 64\t\t\tfunction recordIssue(\\r\\n     ...\n      PUSH 4\t\t\tfunction recordIssue(\\r\\n     ...\n      DUP1 \t\t\tfunction recordIssue(\\r\\n     ...\n      CALLDATASIZE \t\t\tfunction recordIssue(\\r\\n     ...\n      SUB \t\t\tfunction recordIssue(\\r\\n     ...\n      DUP2 \t\t\tfunction recordIssue(\\r\\n     ...\n      ADD \t\t\tfunction recordIssue(\\r\\n     ...\n      SWAP1 \t\t\tfunction recordIssue(\\r\\n     ...\n      PUSH [tag] 65\t\t\tfunction recordIssue(\\r\\n     ...\n      SWAP2 \t\t\tfunction recordIssue(\\r\\n     ...\n      SWAP1 \t\t\tfunction recordIssue(\\r\\n     ...\n      PUSH [tag] 66\t\t\tfunction recordIssue(\\r\\n     ...\n      JUMP [in]\t\t\tfunction recordIssue(\\r\\n     ...\n    tag 65\t\t\tfunction recordIssue(\\r\\n     ...\n      JUMPDEST \t\t\tfunction recordIssue(\\r\\n     ...\n      PUSH [tag] 67\t\t\tfunction recordIssue(\\r\\n     ...\n      JUMP [in]\t\t\tfunction recordIssue(\\r\\n     ...\n    tag 64\t\t\tfunction recordIssue(\\r\\n     ...\n      JUMPDEST \t\t\tfunction recordIssue(\\r\\n     ...\n      STOP \t\t\tfunction recordIssue(\\r\\n     ...\n    tag 12\t\t\tfunction getAllIssues(uint256 ...\n      JUMPDEST \t\t\tfunction getAllIssues(uint256 ...\n      PUSH [tag] 68\t\t\tfunction getAllIssues(uint256 ...\n      PUSH 4\t\t\tfunction getAllIssues(uint256 ...\n      DUP1 \t\t\tfunction getAllIssues(uint256 ...\n      CALLDATASIZE \t\t\tfunction getAllIssues(uint256 ...\n      SUB \t\t\tfunction getAllIssues(uint256 ...\n      DUP2 \t\t\tfunction getAllIssues(uint256 ...\n      ADD \t\t\tfunction getAllIssues(uint256 ...\n      SWAP1 \t\t\tfunction getAllIssues(uint256 ...\n      PUSH [tag] 69\t\t\tfunction getAllIssues(uint256 ...\n      SWAP2 \t\t\tfunction getAllIssues(uint256 ...\n      SWAP1 \t\t\tfunction getAllIssues(uint256 ...\n      PUSH [tag] 70\t\t\tfunction getAllIssues(uint256 ...\n      JUMP [in]\t\t\tfunction getAllIssues(uint256 ...\n    tag 69\t\t\tfunction getAllIssues(uint256 ...\n      JUMPDEST \t\t\tfunction getAllIssues(uint256 ...\n      PUSH [tag] 71\t\t\tfunction getAllIssues(uint256 ...\n      JUMP [in]\t\t\tfunction getAllIssues(uint256 ...\n    tag 68\t\t\tfunction getAllIssues(uint256 ...\n      JUMPDEST \t\t\tfunction getAllIssues(uint256 ...\n      PUSH 40\t\t\tfunction getAllIssues(uint256 ...\n      MLOAD \t\t\tfunction getAllIssues(uint256 ...\n      PUSH [tag] 72\t\t\tfunction getAllIssues(uint256 ...\n      SWAP2 \t\t\tfunction getAllIssues(uint256 ...\n      SWAP1 \t\t\tfunction getAllIssues(uint256 ...\n      PUSH [tag] 46\t\t\tfunction getAllIssues(uint256 ...\n      JUMP [in]\t\t\tfunction getAllIssues(uint256 ...\n    tag 72\t\t\tfunction getAllIssues(uint256 ...\n      JUMPDEST \t\t\tfunction getAllIssues(uint256 ...\n      PUSH 40\t\t\tfunction getAllIssues(uint256 ...\n      MLOAD \t\t\tfunction getAllIssues(uint256 ...\n      DUP1 \t\t\tfunction getAllIssues(uint256 ...\n      SWAP2 \t\t\tfunction getAllIssues(uint256 ...\n      SUB \t\t\tfunction getAllIssues(uint256 ...\n      SWAP1 \t\t\tfunction getAllIssues(uint256 ...\n      RETURN \t\t\tfunction getAllIssues(uint256 ...\n    tag 13\t\t\tmapping(address => mapping(str...\n      JUMPDEST \t\t\tmapping(address => mapping(str...\n      PUSH [tag] 73\t\t\tmapping(address => mapping(str...\n      PUSH 4\t\t\tmapping(address => mapping(str...\n      DUP1 \t\t\tmapping(address => mapping(str...\n      CALLDATASIZE \t\t\tmapping(address => mapping(str...\n      SUB \t\t\tmapping(address => mapping(str...\n      DUP2 \t\t\tmapping(address => mapping(str...\n      ADD \t\t\tmapping(address => mapping(str...\n      SWAP1 \t\t\tmapping(address => mapping(str...\n      PUSH [tag] 74\t\t\tmapping(address => mapping(str...\n      SWAP2 \t\t\tmapping(address => mapping(str...\n      SWAP1 \t\t\tmapping(address => mapping(str...\n      PUSH [tag] 49\t\t\tmapping(address => mapping(str...\n      JUMP [in]\t\t\tmapping(address => mapping(str...\n    tag 74\t\t\tmapping(address => mapping(str...\n      JUMPDEST \t\t\tmapping(address => mapping(str...\n      PUSH [tag] 75\t\t\tmapping(address => mapping(str...\n      JUMP [in]\t\t\tmapping(address => mapping(str...\n    tag 73\t\t\tmapping(address => mapping(str...\n      JUMPDEST \t\t\tmapping(address => mapping(str...\n      PUSH 40\t\t\tmapping(address => mapping(str...\n      MLOAD \t\t\tmapping(address => mapping(str...\n      PUSH [tag] 76\t\t\tmapping(address => mapping(str...\n      SWAP2 \t\t\tmapping(address => mapping(str...\n      SWAP1 \t\t\tmapping(address => mapping(str...\n      PUSH [tag] 52\t\t\tmapping(address => mapping(str...\n      JUMP [in]\t\t\tmapping(address => mapping(str...\n    tag 76\t\t\tmapping(address => mapping(str...\n      JUMPDEST \t\t\tmapping(address => mapping(str...\n      PUSH 40\t\t\tmapping(address => mapping(str...\n      MLOAD \t\t\tmapping(address => mapping(str...\n      DUP1 \t\t\tmapping(address => mapping(str...\n      SWAP2 \t\t\tmapping(address => mapping(str...\n      SUB \t\t\tmapping(address => mapping(str...\n      SWAP1 \t\t\tmapping(address => mapping(str...\n      RETURN \t\t\tmapping(address => mapping(str...\n    tag 14\t\t\tmapping(string => Issue) publi...\n      JUMPDEST \t\t\tmapping(string => Issue) publi...\n      PUSH [tag] 77\t\t\tmapping(string => Issue) publi...\n      PUSH 4\t\t\tmapping(string => Issue) publi...\n      DUP1 \t\t\tmapping(string => Issue) publi...\n      CALLDATASIZE \t\t\tmapping(string => Issue) publi...\n      SUB \t\t\tmapping(string => Issue) publi...\n      DUP2 \t\t\tmapping(string => Issue) publi...\n      ADD \t\t\tmapping(string => Issue) publi...\n      SWAP1 \t\t\tmapping(string => Issue) publi...\n      PUSH [tag] 78\t\t\tmapping(string => Issue) publi...\n      SWAP2 \t\t\tmapping(string => Issue) publi...\n      SWAP1 \t\t\tmapping(string => Issue) publi...\n      PUSH [tag] 26\t\t\tmapping(string => Issue) publi...\n      JUMP [in]\t\t\tmapping(string => Issue) publi...\n    tag 78\t\t\tmapping(string => Issue) publi...\n      JUMPDEST \t\t\tmapping(string => Issue) publi...\n      PUSH [tag] 79\t\t\tmapping(string => Issue) publi...\n      JUMP [in]\t\t\tmapping(string => Issue) publi...\n    tag 77\t\t\tmapping(string => Issue) publi...\n      JUMPDEST \t\t\tmapping(string => Issue) publi...\n      PUSH 40\t\t\tmapping(string => Issue) publi...\n      MLOAD \t\t\tmapping(string => Issue) publi...\n      PUSH [tag] 80\t\t\tmapping(string => Issue) publi...\n      SWAP7 \t\t\tmapping(string => Issue) publi...\n      SWAP6 \t\t\tmapping(string => Issue) publi...\n      SWAP5 \t\t\tmapping(string => Issue) publi...\n      SWAP4 \t\t\tmapping(string => Issue) publi...\n      SWAP3 \t\t\tmapping(string => Issue) publi...\n      SWAP2 \t\t\tmapping(string => Issue) publi...\n      SWAP1 \t\t\tmapping(string => Issue) publi...\n      PUSH [tag] 57\t\t\tmapping(string => Issue) publi...\n      JUMP [in]\t\t\tmapping(string => Issue) publi...\n    tag 80\t\t\tmapping(string => Issue) publi...\n      JUMPDEST \t\t\tmapping(string => Issue) publi...\n      PUSH 40\t\t\tmapping(string => Issue) publi...\n      MLOAD \t\t\tmapping(string => Issue) publi...\n      DUP1 \t\t\tmapping(string => Issue) publi...\n      SWAP2 \t\t\tmapping(string => Issue) publi...\n      SUB \t\t\tmapping(string => Issue) publi...\n      SWAP1 \t\t\tmapping(string => Issue) publi...\n      RETURN \t\t\tmapping(string => Issue) publi...\n    tag 15\t\t\tfunction getTotalIssues() publ...\n      JUMPDEST \t\t\tfunction getTotalIssues() publ...\n      PUSH [tag] 81\t\t\tfunction getTotalIssues() publ...\n      PUSH [tag] 82\t\t\tfunction getTotalIssues() publ...\n      JUMP [in]\t\t\tfunction getTotalIssues() publ...\n    tag 81\t\t\tfunction getTotalIssues() publ...\n      JUMPDEST \t\t\tfunction getTotalIssues() publ...\n      PUSH 40\t\t\tfunction getTotalIssues() publ...\n      MLOAD \t\t\tfunction getTotalIssues() publ...\n      PUSH [tag] 83\t\t\tfunction getTotalIssues() publ...\n      SWAP2 \t\t\tfunction getTotalIssues() publ...\n      SWAP1 \t\t\tfunction getTotalIssues() publ...\n      PUSH [tag] 29\t\t\tfunction getTotalIssues() publ...\n      JUMP [in]\t\t\tfunction getTotalIssues() publ...\n    tag 83\t\t\tfunction getTotalIssues() publ...\n      JUMPDEST \t\t\tfunction getTotalIssues() publ...\n      PUSH 40\t\t\tfunction getTotalIssues() publ...\n      MLOAD \t\t\tfunction getTotalIssues() publ...\n      DUP1 \t\t\tfunction getTotalIssues() publ...\n      SWAP2 \t\t\tfunction getTotalIssues() publ...\n      SUB \t\t\tfunction getTotalIssues() publ...\n      SWAP1 \t\t\tfunction getTotalIssues() publ...\n      RETURN \t\t\tfunction getTotalIssues() publ...\n    tag 16\t\t\tfunction getIssueVotes(string ...\n      JUMPDEST \t\t\tfunction getIssueVotes(string ...\n      PUSH [tag] 84\t\t\tfunction getIssueVotes(string ...\n      PUSH 4\t\t\tfunction getIssueVotes(string ...\n      DUP1 \t\t\tfunction getIssueVotes(string ...\n      CALLDATASIZE \t\t\tfunction getIssueVotes(string ...\n      SUB \t\t\tfunction getIssueVotes(string ...\n      DUP2 \t\t\tfunction getIssueVotes(string ...\n      ADD \t\t\tfunction getIssueVotes(string ...\n      SWAP1 \t\t\tfunction getIssueVotes(string ...\n      PUSH [tag] 85\t\t\tfunction getIssueVotes(string ...\n      SWAP2 \t\t\tfunction getIssueVotes(string ...\n      SWAP1 \t\t\tfunction getIssueVotes(string ...\n      PUSH [tag] 26\t\t\tfunction getIssueVotes(string ...\n      JUMP [in]\t\t\tfunction getIssueVotes(string ...\n    tag 85\t\t\tfunction getIssueVotes(string ...\n      JUMPDEST \t\t\tfunction getIssueVotes(string ...\n      PUSH [tag] 86\t\t\tfunction getIssueVotes(string ...\n      JUMP [in]\t\t\tfunction getIssueVotes(string ...\n    tag 84\t\t\tfunction getIssueVotes(string ...\n      JUMPDEST \t\t\tfunction getIssueVotes(string ...\n      PUSH 40\t\t\tfunction getIssueVotes(string ...\n      MLOAD \t\t\tfunction getIssueVotes(string ...\n      PUSH [tag] 87\t\t\tfunction getIssueVotes(string ...\n      SWAP2 \t\t\tfunction getIssueVotes(string ...\n      SWAP1 \t\t\tfunction getIssueVotes(string ...\n      PUSH [tag] 88\t\t\tfunction getIssueVotes(string ...\n      JUMP [in]\t\t\tfunction getIssueVotes(string ...\n    tag 87\t\t\tfunction getIssueVotes(string ...\n      JUMPDEST \t\t\tfunction getIssueVotes(string ...\n      PUSH 40\t\t\tfunction getIssueVotes(string ...\n      MLOAD \t\t\tfunction getIssueVotes(string ...\n      DUP1 \t\t\tfunction getIssueVotes(string ...\n      SWAP2 \t\t\tfunction getIssueVotes(string ...\n      SUB \t\t\tfunction getIssueVotes(string ...\n      SWAP1 \t\t\tfunction getIssueVotes(string ...\n      RETURN \t\t\tfunction getIssueVotes(string ...\n    tag 23\t\t\tfunction recordVote(\\r\\n      ...\n      JUMPDEST \t\t\tfunction recordVote(\\r\\n      ...\n      PUSH 0\t\t\tissues\n      DUP3 \t\t\t_issueId\n      PUSH 40\t\t\tissues[_issueId]\n      MLOAD \t\t\tissues[_issueId]\n      PUSH [tag] 90\t\t\tissues[_issueId]\n      SWAP2 \t\t\tissues[_issueId]\n      SWAP1 \t\t\tissues[_issueId]\n      PUSH [tag] 91\t\t\tissues[_issueId]\n      JUMP [in]\t\t\tissues[_issueId]\n    tag 90\t\t\tissues[_issueId]\n      JUMPDEST \t\t\tissues[_issueId]\n      SWAP1 \t\t\tissues[_issueId]\n      DUP2 \t\t\tissues[_issueId]\n      MSTORE \t\t\tissues[_issueId]\n      PUSH 20\t\t\tissues[_issueId]\n      ADD \t\t\tissues[_issueId]\n      PUSH 40\t\t\tissues[_issueId]\n      MLOAD \t\t\tissues[_issueId]\n      DUP1 \t\t\tissues[_issueId]\n      SWAP2 \t\t\tissues[_issueId]\n      SUB \t\t\tissues[_issueId]\n      SWAP1 \t\t\tissues[_issueId]\n      KECCAK256 \t\t\tissues[_issueId]\n      PUSH 5\t\t\tissues[_issueId].exists\n      ADD \t\t\tissues[_issueId].exists\n      PUSH 0\t\t\tissues[_issueId].exists\n      SWAP1 \t\t\tissues[_issueId].exists\n      SLOAD \t\t\tissues[_issueId].exists\n      SWAP1 \t\t\tissues[_issueId].exists\n      PUSH 100\t\t\tissues[_issueId].exists\n      EXP \t\t\tissues[_issueId].exists\n      SWAP1 \t\t\tissues[_issueId].exists\n      DIV \t\t\tissues[_issueId].exists\n      PUSH FF\t\t\tissues[_issueId].exists\n      AND \t\t\tissues[_issueId].exists\n      PUSH [tag] 92\t\t\trequire(issues[_issueId].exist...\n      JUMPI \t\t\trequire(issues[_issueId].exist...\n      PUSH 40\t\t\trequire(issues[_issueId].exist...\n      MLOAD \t\t\trequire(issues[_issueId].exist...\n      PUSH 8C379A000000000000000000000000000000000000000000000000000000000\t\t\trequire(issues[_issueId].exist...\n      DUP2 \t\t\trequire(issues[_issueId].exist...\n      MSTORE \t\t\trequire(issues[_issueId].exist...\n      PUSH 4\t\t\trequire(issues[_issueId].exist...\n      ADD \t\t\trequire(issues[_issueId].exist...\n      PUSH [tag] 93\t\t\trequire(issues[_issueId].exist...\n      SWAP1 \t\t\trequire(issues[_issueId].exist...\n      PUSH [tag] 94\t\t\trequire(issues[_issueId].exist...\n      JUMP [in]\t\t\trequire(issues[_issueId].exist...\n    tag 93\t\t\trequire(issues[_issueId].exist...\n      JUMPDEST \t\t\trequire(issues[_issueId].exist...\n      PUSH 40\t\t\trequire(issues[_issueId].exist...\n      MLOAD \t\t\trequire(issues[_issueId].exist...\n      DUP1 \t\t\trequire(issues[_issueId].exist...\n      SWAP2 \t\t\trequire(issues[_issueId].exist...\n      SUB \t\t\trequire(issues[_issueId].exist...\n      SWAP1 \t\t\trequire(issues[_issueId].exist...\n      REVERT \t\t\trequire(issues[_issueId].exist...\n    tag 92\t\t\trequire(issues[_issueId].exist...\n      JUMPDEST \t\t\trequire(issues[_issueId].exist...\n      PUSH 3\t\t\thasVoted\n      PUSH 0\t\t\thasVoted[msg.sender]\n      CALLER \t\t\tmsg.sender\n      PUSH FFFFFFFFFFFFFFFFFFFFFFFFFFFFFFFFFFFFFFFF\t\t\thasVoted[msg.sender]\n      AND \t\t\thasVoted[msg.sender]\n      PUSH FFFFFFFFFFFFFFFFFFFFFFFFFFFFFFFFFFFFFFFF\t\t\thasVoted[msg.sender]\n      AND \t\t\thasVoted[msg.sender]\n      DUP2 \t\t\thasVoted[msg.sender]\n      MSTORE \t\t\thasVoted[msg.sender]\n      PUSH 20\t\t\thasVoted[msg.sender]\n      ADD \t\t\thasVoted[msg.sender]\n      SWAP1 \t\t\thasVoted[msg.sender]\n      DUP2 \t\t\thasVoted[msg.sender]\n      MSTORE \t\t\thasVoted[msg.sender]\n      PUSH 20\t\t\thasVoted[msg.sender]\n      ADD \t\t\thasVoted[msg.sender]\n      PUSH 0\t\t\thasVoted[msg.sender]\n      KECCAK256 \t\t\thasVoted[msg.sender]\n      DUP3 \t\t\t_issueId\n      PUSH 40\t\t\thasVoted[msg.sender][_issueId]\n      MLOAD \t\t\thasVoted[msg.sender][_issueId]\n      PUSH [tag] 95\t\t\thasVoted[msg.sender][_issueId]\n      SWAP2 \t\t\thasVoted[msg.sender][_issueId]\n      SWAP1 \t\t\thasVoted[msg.sender][_issueId]\n      PUSH [tag] 91\t\t\thasVoted[msg.sender][_issueId]\n      JUMP [in]\t\t\thasVoted[msg.sender][_issueId]\n    tag 95\t\t\thasVoted[msg.sender][_issueId]\n      JUMPDEST \t\t\thasVoted[msg.sender][_issueId]\n      SWAP1 \t\t\thasVoted[msg.sender][_issueId]\n      DUP2 \t\t\thasVoted[msg.sender][_issueId]\n      MSTORE \t\t\thasVoted[msg.sender][_issueId]\n      PUSH 20\t\t\thasVoted[msg.sender][_issueId]\n      ADD \t\t\thasVoted[msg.sender][_issueId]\n      PUSH 40\t\t\thasVoted[msg.sender][_issueId]\n      MLOAD \t\t\thasVoted[msg.sender][_issueId]\n      DUP1 \t\t\thasVoted[msg.sender][_issueId]\n      SWAP2 \t\t\thasVoted[msg.sender][_issueId]\n      SUB \t\t\thasVoted[msg.sender][_issueId]\n      SWAP1 \t\t\thasVoted[msg.sender][_issueId]\n      KECCAK256 \t\t\thasVoted[msg.sender][_issueId]\n      PUSH 0\t\t\thasVoted[msg.sender][_issueId]\n      SWAP1 \t\t\thasVoted[msg.sender][_issueId]\n      SLOAD \t\t\thasVoted[msg.sender][_issueId]\n      SWAP1 \t\t\thasVoted[msg.sender][_issueId]\n      PUSH 100\t\t\thasVoted[msg.sender][_issueId]\n      EXP \t\t\thasVoted[msg.sender][_issueId]\n      SWAP1 \t\t\thasVoted[msg.sender][_issueId]\n      DIV \t\t\thasVoted[msg.sender][_issueId]\n      PUSH FF\t\t\thasVoted[msg.sender][_issueId]\n      AND \t\t\thasVoted[msg.sender][_issueId]\n      ISZERO \t\t\t!hasVoted[msg.sender][_issueId...\n      PUSH [tag] 96\t\t\trequire(!hasVoted[msg.sender][...\n      JUMPI \t\t\trequire(!hasVoted[msg.sender][...\n      PUSH 40\t\t\trequire(!hasVoted[msg.sender][...\n      MLOAD \t\t\trequire(!hasVoted[msg.sender][...\n      PUSH 8C379A000000000000000000000000000000000000000000000000000000000\t\t\trequire(!hasVoted[msg.sender][...\n      DUP2 \t\t\trequire(!hasVoted[msg.sender][...\n      MSTORE \t\t\trequire(!hasVoted[msg.sender][...\n      PUSH 4\t\t\trequire(!hasVoted[msg.sender][...\n      ADD \t\t\trequire(!hasVoted[msg.sender][...\n      PUSH [tag] 97\t\t\trequire(!hasVoted[msg.sender][...\n      SWAP1 \t\t\trequire(!hasVoted[msg.sender][...\n      PUSH [tag] 98\t\t\trequire(!hasVoted[msg.sender][...\n      JUMP [in]\t\t\trequire(!hasVoted[msg.sender][...\n    tag 97\t\t\trequire(!hasVoted[msg.sender][...\n      JUMPDEST \t\t\trequire(!hasVoted[msg.sender][...\n      PUSH 40\t\t\trequire(!hasVoted[msg.sender][...\n      MLOAD \t\t\trequire(!hasVoted[msg.sender][...\n      DUP1 \t\t\trequire(!hasVoted[msg.sender][...\n      SWAP2 \t\t\trequire(!hasVoted[msg.sender][...\n      SUB \t\t\trequire(!hasVoted[msg.sender][...\n      SWAP1 \t\t\trequire(!hasVoted[msg.sender][...\n      REVERT \t\t\trequire(!hasVoted[msg.sender][...\n    tag 96\t\t\trequire(!hasVoted[msg.sender][...\n      JUMPDEST \t\t\trequire(!hasVoted[msg.sender][...\n      PUSH 0\t\t\tVote memory newVote\n      PUSH 40\t\t\tVote({\\r\\n            voter: m...\n      MLOAD \t\t\tVote({\\r\\n            voter: m...\n      DUP1 \t\t\tVote({\\r\\n            voter: m...\n      PUSH 80\t\t\tVote({\\r\\n            voter: m...\n      ADD \t\t\tVote({\\r\\n            voter: m...\n      PUSH 40\t\t\tVote({\\r\\n            voter: m...\n      MSTORE \t\t\tVote({\\r\\n            voter: m...\n      DUP1 \t\t\tVote({\\r\\n            voter: m...\n      CALLER \t\t\tmsg.sender\n      PUSH FFFFFFFFFFFFFFFFFFFFFFFFFFFFFFFFFFFFFFFF\t\t\tVote({\\r\\n            voter: m...\n      AND \t\t\tVote({\\r\\n            voter: m...\n      DUP2 \t\t\tVote({\\r\\n            voter: m...\n      MSTORE \t\t\tVote({\\r\\n            voter: m...\n      PUSH 20\t\t\tVote({\\r\\n            voter: m...\n      ADD \t\t\tVote({\\r\\n            voter: m...\n      DUP5 \t\t\t_issueId\n      DUP2 \t\t\tVote({\\r\\n            voter: m...\n      MSTORE \t\t\tVote({\\r\\n            voter: m...\n      PUSH 20\t\t\tVote({\\r\\n            voter: m...\n      ADD \t\t\tVote({\\r\\n            voter: m...\n      TIMESTAMP \t\t\tblock.timestamp\n      DUP2 \t\t\tVote({\\r\\n            voter: m...\n      MSTORE \t\t\tVote({\\r\\n            voter: m...\n      PUSH 20\t\t\tVote({\\r\\n            voter: m...\n      ADD \t\t\tVote({\\r\\n            voter: m...\n      DUP4 \t\t\t_support\n      ISZERO \t\t\tVote({\\r\\n            voter: m...\n      ISZERO \t\t\tVote({\\r\\n            voter: m...\n      DUP2 \t\t\tVote({\\r\\n            voter: m...\n      MSTORE \t\t\tVote({\\r\\n            voter: m...\n      POP \t\t\tVote({\\r\\n            voter: m...\n      SWAP1 \t\t\tVote memory newVote = Vote({\\r...\n      POP \t\t\tVote memory newVote = Vote({\\r...\n      PUSH 1\t\t\tissueVotes\n      DUP4 \t\t\t_issueId\n      PUSH 40\t\t\tissueVotes[_issueId]\n      MLOAD \t\t\tissueVotes[_issueId]\n      PUSH [tag] 99\t\t\tissueVotes[_issueId]\n      SWAP2 \t\t\tissueVotes[_issueId]\n      SWAP1 \t\t\tissueVotes[_issueId]\n      PUSH [tag] 91\t\t\tissueVotes[_issueId]\n      JUMP [in]\t\t\tissueVotes[_issueId]\n    tag 99\t\t\tissueVotes[_issueId]\n      JUMPDEST \t\t\tissueVotes[_issueId]\n      SWAP1 \t\t\tissueVotes[_issueId]\n      DUP2 \t\t\tissueVotes[_issueId]\n      MSTORE \t\t\tissueVotes[_issueId]\n      PUSH 20\t\t\tissueVotes[_issueId]\n      ADD \t\t\tissueVotes[_issueId]\n      PUSH 40\t\t\tissueVotes[_issueId]\n      MLOAD \t\t\tissueVotes[_issueId]\n      DUP1 \t\t\tissueVotes[_issueId]\n      SWAP2 \t\t\tissueVotes[_issueId]\n      SUB \t\t\tissueVotes[_issueId]\n      SWAP1 \t\t\tissueVotes[_issueId]\n      KECCAK256 \t\t\tissueVotes[_issueId]\n      DUP2 \t\t\tnewVote\n      SWAP1 \t\t\tissueVotes[_issueId].push(newV...\n      DUP1 \t\t\tissueVotes[_issueId].push(newV...\n      PUSH 1\t\t\tissueVotes[_issueId].push(newV...\n      DUP2 \t\t\tissueVotes[_issueId].push(newV...\n      SLOAD \t\t\tissueVotes[_issueId].push(newV...\n      ADD \t\t\tissueVotes[_issueId].push(newV...\n      DUP1 \t\t\tissueVotes[_issueId].push(newV...\n      DUP3 \t\t\tissueVotes[_issueId].push(newV...\n      SSTORE \t\t\tissueVotes[_issueId].push(newV...\n      DUP1 \t\t\tissueVotes[_issueId].push(newV...\n      SWAP2 \t\t\tissueVotes[_issueId].push(newV...\n      POP \t\t\tissueVotes[_issueId].push(newV...\n      POP \t\t\tissueVotes[_issueId].push(newV...\n      PUSH 1\t\t\tissueVotes[_issueId].push(newV...\n      SWAP1 \t\t\tissueVotes[_issueId].push(newV...\n      SUB \t\t\tissueVotes[_issueId].push(newV...\n      SWAP1 \t\t\tissueVotes[_issueId].push(newV...\n      PUSH 0\t\t\tissueVotes[_issueId].push(newV...\n      MSTORE \t\t\tissueVotes[_issueId].push(newV...\n      PUSH 20\t\t\tissueVotes[_issueId].push(newV...\n      PUSH 0\t\t\tissueVotes[_issueId].push(newV...\n      KECCAK256 \t\t\tissueVotes[_issueId].push(newV...\n      SWAP1 \t\t\tissueVotes[_issueId].push(newV...\n      PUSH 4\t\t\tissueVotes[_issueId].push(newV...\n      MUL \t\t\tissueVotes[_issueId].push(newV...\n      ADD \t\t\tissueVotes[_issueId].push(newV...\n      PUSH 0\t\t\tissueVotes[_issueId].push(newV...\n      SWAP1 \t\t\tissueVotes[_issueId].push(newV...\n      SWAP2 \t\t\tissueVotes[_issueId].push(newV...\n      SWAP1 \t\t\tissueVotes[_issueId].push(newV...\n      SWAP2 \t\t\tissueVotes[_issueId].push(newV...\n      SWAP1 \t\t\tissueVotes[_issueId].push(newV...\n      SWAP2 \t\t\tissueVotes[_issueId].push(newV...\n      POP \t\t\tissueVotes[_issueId].push(newV...\n      PUSH 0\t\t\tissueVotes[_issueId].push(newV...\n      DUP3 \t\t\tissueVotes[_issueId].push(newV...\n      ADD \t\t\tissueVotes[_issueId].push(newV...\n      MLOAD \t\t\tissueVotes[_issueId].push(newV...\n      DUP2 \t\t\tissueVotes[_issueId].push(newV...\n      PUSH 0\t\t\tissueVotes[_issueId].push(newV...\n      ADD \t\t\tissueVotes[_issueId].push(newV...\n      PUSH 0\t\t\tissueVotes[_issueId].push(newV...\n      PUSH 100\t\t\tissueVotes[_issueId].push(newV...\n      EXP \t\t\tissueVotes[_issueId].push(newV...\n      DUP2 \t\t\tissueVotes[_issueId].push(newV...\n      SLOAD \t\t\tissueVotes[_issueId].push(newV...\n      DUP2 \t\t\tissueVotes[_issueId].push(newV...\n      PUSH FFFFFFFFFFFFFFFFFFFFFFFFFFFFFFFFFFFFFFFF\t\t\tissueVotes[_issueId].push(newV...\n      MUL \t\t\tissueVotes[_issueId].push(newV...\n      NOT \t\t\tissueVotes[_issueId].push(newV...\n      AND \t\t\tissueVotes[_issueId].push(newV...\n      SWAP1 \t\t\tissueVotes[_issueId].push(newV...\n      DUP4 \t\t\tissueVotes[_issueId].push(newV...\n      PUSH FFFFFFFFFFFFFFFFFFFFFFFFFFFFFFFFFFFFFFFF\t\t\tissueVotes[_issueId].push(newV...\n      AND \t\t\tissueVotes[_issueId].push(newV...\n      MUL \t\t\tissueVotes[_issueId].push(newV...\n      OR \t\t\tissueVotes[_issueId].push(newV...\n      SWAP1 \t\t\tissueVotes[_issueId].push(newV...\n      SSTORE \t\t\tissueVotes[_issueId].push(newV...\n      POP \t\t\tissueVotes[_issueId].push(newV...\n      PUSH 20\t\t\tissueVotes[_issueId].push(newV...\n      DUP3 \t\t\tissueVotes[_issueId].push(newV...\n      ADD \t\t\tissueVotes[_issueId].push(newV...\n      MLOAD \t\t\tissueVotes[_issueId].push(newV...\n      DUP2 \t\t\tissueVotes[_issueId].push(newV...\n      PUSH 1\t\t\tissueVotes[_issueId].push(newV...\n      ADD \t\t\tissueVotes[_issueId].push(newV...\n      SWAP1 \t\t\tissueVotes[_issueId].push(newV...\n      DUP1 \t\t\tissueVotes[_issueId].push(newV...\n      MLOAD \t\t\tissueVotes[_issueId].push(newV...\n      SWAP1 \t\t\tissueVotes[_issueId].push(newV...\n      PUSH 20\t\t\tissueVotes[_issueId].push(newV...\n      ADD \t\t\tissueVotes[_issueId].push(newV...\n      SWAP1 \t\t\tissueVotes[_issueId].push(newV...\n      PUSH [tag] 101\t\t\tissueVotes[_issueId].push(newV...\n      SWAP3 \t\t\tissueVotes[_issueId].push(newV...\n      SWAP2 \t\t\tissueVotes[_issueId].push(newV...\n      SWAP1 \t\t\tissueVotes[_issueId].push(newV...\n      PUSH [tag] 102\t\t\tissueVotes[_issueId].push(newV...\n      JUMP [in]\t\t\tissueVotes[_issueId].push(newV...\n    tag 101\t\t\tissueVotes[_issueId].push(newV...\n      JUMPDEST \t\t\tissueVotes[_issueId].push(newV...\n      POP \t\t\tissueVotes[_issueId].push(newV...\n      PUSH 40\t\t\tissueVotes[_issueId].push(newV...\n      DUP3 \t\t\tissueVotes[_issueId].push(newV...\n      ADD \t\t\tissueVotes[_issueId].push(newV...\n      MLOAD \t\t\tissueVotes[_issueId].push(newV...\n      DUP2 \t\t\tissueVotes[_issueId].push(newV...\n      PUSH 2\t\t\tissueVotes[_issueId].push(newV...\n      ADD \t\t\tissueVotes[_issueId].push(newV...\n      SSTORE \t\t\tissueVotes[_issueId].push(newV...\n      PUSH 60\t\t\tissueVotes[_issueId].push(newV...\n      DUP3 \t\t\tissueVotes[_issueId].push(newV...\n      ADD \t\t\tissueVotes[_issueId].push(newV...\n      MLOAD \t\t\tissueVotes[_issueId].push(newV...\n      DUP2 \t\t\tissueVotes[_issueId].push(newV...\n      PUSH 3\t\t\tissueVotes[_issueId].push(newV...\n      ADD \t\t\tissueVotes[_issueId].push(newV...\n      PUSH 0\t\t\tissueVotes[_issueId].push(newV...\n      PUSH 100\t\t\tissueVotes[_issueId].push(newV...\n      EXP \t\t\tissueVotes[_issueId].push(newV...\n      DUP2 \t\t\tissueVotes[_issueId].push(newV...\n      SLOAD \t\t\tissueVotes[_issueId].push(newV...\n      DUP2 \t\t\tissueVotes[_issueId].push(newV...\n      PUSH FF\t\t\tissueVotes[_issueId].push(newV...\n      MUL \t\t\tissueVotes[_issueId].push(newV...\n      NOT \t\t\tissueVotes[_issueId].push(newV...\n      AND \t\t\tissueVotes[_issueId].push(newV...\n      SWAP1 \t\t\tissueVotes[_issueId].push(newV...\n      DUP4 \t\t\tissueVotes[_issueId].push(newV...\n      ISZERO \t\t\tissueVotes[_issueId].push(newV...\n      ISZERO \t\t\tissueVotes[_issueId].push(newV...\n      MUL \t\t\tissueVotes[_issueId].push(newV...\n      OR \t\t\tissueVotes[_issueId].push(newV...\n      SWAP1 \t\t\tissueVotes[_issueId].push(newV...\n      SSTORE \t\t\tissueVotes[_issueId].push(newV...\n      POP \t\t\tissueVotes[_issueId].push(newV...\n      POP \t\t\tissueVotes[_issueId].push(newV...\n      POP \t\t\tissueVotes[_issueId].push(newV...\n      PUSH 1\t\t\ttrue\n      PUSH 3\t\t\thasVoted\n      PUSH 0\t\t\thasVoted[msg.sender]\n      CALLER \t\t\tmsg.sender\n      PUSH FFFFFFFFFFFFFFFFFFFFFFFFFFFFFFFFFFFFFFFF\t\t\thasVoted[msg.sender]\n      AND \t\t\thasVoted[msg.sender]\n      PUSH FFFFFFFFFFFFFFFFFFFFFFFFFFFFFFFFFFFFFFFF\t\t\thasVoted[msg.sender]\n      AND \t\t\thasVoted[msg.sender]\n      DUP2 \t\t\thasVoted[msg.sender]\n      MSTORE \t\t\thasVoted[msg.sender]\n      PUSH 20\t\t\thasVoted[msg.sender]\n      ADD \t\t\thasVoted[msg.sender]\n      SWAP1 \t\t\thasVoted[msg.sender]\n      DUP2 \t\t\thasVoted[msg.sender]\n      MSTORE \t\t\thasVoted[msg.sender]\n      PUSH 20\t\t\thasVoted[msg.sender]\n      ADD \t\t\thasVoted[msg.sender]\n      PUSH 0\t\t\thasVoted[msg.sender]\n      KECCAK256 \t\t\thasVoted[msg.sender]\n      DUP5 \t\t\t_issueId\n      PUSH 40\t\t\thasVoted[msg.sender][_issueId]\n      MLOAD \t\t\thasVoted[msg.sender][_issueId]\n      PUSH [tag] 103\t\t\thasVoted[msg.sender][_issueId]\n      SWAP2 \t\t\thasVoted[msg.sender][_issueId]\n      SWAP1 \t\t\thasVoted[msg.sender][_issueId]\n      PUSH [tag] 91\t\t\thasVoted[msg.sender][_issueId]\n      JUMP [in]\t\t\thasVoted[msg.sender][_issueId]\n    tag 103\t\t\thasVoted[msg.sender][_issueId]\n      JUMPDEST \t\t\thasVoted[msg.sender][_issueId]\n      SWAP1 \t\t\thasVoted[msg.sender][_issueId]\n      DUP2 \t\t\thasVoted[msg.sender][_issueId]\n      MSTORE \t\t\thasVoted[msg.sender][_issueId]\n      PUSH 20\t\t\thasVoted[msg.sender][_issueId]\n      ADD \t\t\thasVoted[msg.sender][_issueId]\n      PUSH 40\t\t\thasVoted[msg.sender][_issueId]\n      MLOAD \t\t\thasVoted[msg.sender][_issueId]\n      DUP1 \t\t\thasVoted[msg.sender][_issueId]\n      SWAP2 \t\t\thasVoted[msg.sender][_issueId]\n      SUB \t\t\thasVoted[msg.sender][_issueId]\n      SWAP1 \t\t\thasVoted[msg.sender][_issueId]\n      KECCAK256 \t\t\thasVoted[msg.sender][_issueId]\n      PUSH 0\t\t\thasVoted[msg.sender][_issueId]\n      PUSH 100\t\t\thasVoted[msg.sender][_issueId]...\n      EXP \t\t\thasVoted[msg.sender][_issueId]...\n      DUP2 \t\t\thasVoted[msg.sender][_issueId]...\n      SLOAD \t\t\thasVoted[msg.sender][_issueId]...\n      DUP2 \t\t\thasVoted[msg.sender][_issueId]...\n      PUSH FF\t\t\thasVoted[msg.sender][_issueId]...\n      MUL \t\t\thasVoted[msg.sender][_issueId]...\n      NOT \t\t\thasVoted[msg.sender][_issueId]...\n      AND \t\t\thasVoted[msg.sender][_issueId]...\n      SWAP1 \t\t\thasVoted[msg.sender][_issueId]...\n      DUP4 \t\t\thasVoted[msg.sender][_issueId]...\n      ISZERO \t\t\thasVoted[msg.sender][_issueId]...\n      ISZERO \t\t\thasVoted[msg.sender][_issueId]...\n      MUL \t\t\thasVoted[msg.sender][_issueId]...\n      OR \t\t\thasVoted[msg.sender][_issueId]...\n      SWAP1 \t\t\thasVoted[msg.sender][_issueId]...\n      SSTORE \t\t\thasVoted[msg.sender][_issueId]...\n      POP \t\t\thasVoted[msg.sender][_issueId]...\n      DUP2 \t\t\t_support\n      ISZERO \t\t\tif (_support) {\\r\\n           ...\n      PUSH [tag] 104\t\t\tif (_support) {\\r\\n           ...\n      JUMPI \t\t\tif (_support) {\\r\\n           ...\n      PUSH 0\t\t\tissues\n      DUP4 \t\t\t_issueId\n      PUSH 40\t\t\tissues[_issueId]\n      MLOAD \t\t\tissues[_issueId]\n      PUSH [tag] 105\t\t\tissues[_issueId]\n      SWAP2 \t\t\tissues[_issueId]\n      SWAP1 \t\t\tissues[_issueId]\n      PUSH [tag] 91\t\t\tissues[_issueId]\n      JUMP [in]\t\t\tissues[_issueId]\n    tag 105\t\t\tissues[_issueId]\n      JUMPDEST \t\t\tissues[_issueId]\n      SWAP1 \t\t\tissues[_issueId]\n      DUP2 \t\t\tissues[_issueId]\n      MSTORE \t\t\tissues[_issueId]\n      PUSH 20\t\t\tissues[_issueId]\n      ADD \t\t\tissues[_issueId]\n      PUSH 40\t\t\tissues[_issueId]\n      MLOAD \t\t\tissues[_issueId]\n      DUP1 \t\t\tissues[_issueId]\n      SWAP2 \t\t\tissues[_issueId]\n      SUB \t\t\tissues[_issueId]\n      SWAP1 \t\t\tissues[_issueId]\n      KECCAK256 \t\t\tissues[_issueId]\n      PUSH 4\t\t\tissues[_issueId].voteCount\n      ADD \t\t\tissues[_issueId].voteCount\n      PUSH 0\t\t\tissues[_issueId].voteCount\n      DUP2 \t\t\tissues[_issueId].voteCount++\n      SLOAD \t\t\tissues[_issueId].voteCount++\n      DUP1 \t\t\tissues[_issueId].voteCount++\n      SWAP3 \t\t\tissues[_issueId].voteCount++\n      SWAP2 \t\t\tissues[_issueId].voteCount++\n      SWAP1 \t\t\tissues[_issueId].voteCount++\n      PUSH [tag] 106\t\t\tissues[_issueId].voteCount++\n      SWAP1 \t\t\tissues[_issueId].voteCount++\n      PUSH [tag] 107\t\t\tissues[_issueId].voteCount++\n      JUMP [in]\t\t\tissues[_issueId].voteCount++\n    tag 106\t\t\tissues[_issueId].voteCount++\n      JUMPDEST \t\t\tissues[_issueId].voteCount++\n      SWAP2 \t\t\tissues[_issueId].voteCount++\n      SWAP1 \t\t\tissues[_issueId].voteCount++\n      POP \t\t\tissues[_issueId].voteCount++\n      SSTORE \t\t\tissues[_issueId].voteCount++\n      POP \t\t\tissues[_issueId].voteCount++\n    tag 104\t\t\tif (_support) {\\r\\n           ...\n      JUMPDEST \t\t\tif (_support) {\\r\\n           ...\n      CALLER \t\t\tmsg.sender\n      PUSH FFFFFFFFFFFFFFFFFFFFFFFFFFFFFFFFFFFFFFFF\t\t\tVoteRecorded(_issueId, msg.sen...\n      AND \t\t\tVoteRecorded(_issueId, msg.sen...\n      DUP4 \t\t\t_issueId\n      PUSH 40\t\t\tVoteRecorded(_issueId, msg.sen...\n      MLOAD \t\t\tVoteRecorded(_issueId, msg.sen...\n      PUSH [tag] 108\t\t\tVoteRecorded(_issueId, msg.sen...\n      SWAP2 \t\t\tVoteRecorded(_issueId, msg.sen...\n      SWAP1 \t\t\tVoteRecorded(_issueId, msg.sen...\n      PUSH [tag] 91\t\t\tVoteRecorded(_issueId, msg.sen...\n      JUMP [in]\t\t\tVoteRecorded(_issueId, msg.sen...\n    tag 108\t\t\tVoteRecorded(_issueId, msg.sen...\n      JUMPDEST \t\t\tVoteRecorded(_issueId, msg.sen...\n      PUSH 40\t\t\tVoteRecorded(_issueId, msg.sen...\n      MLOAD \t\t\tVoteRecorded(_issueId, msg.sen...\n      DUP1 \t\t\tVoteRecorded(_issueId, msg.sen...\n      SWAP2 \t\t\tVoteRecorded(_issueId, msg.sen...\n      SUB \t\t\tVoteRecorded(_issueId, msg.sen...\n      SWAP1 \t\t\tVoteRecorded(_issueId, msg.sen...\n      KECCAK256 \t\t\tVoteRecorded(_issueId, msg.sen...\n      PUSH 198E3ED8D34BB0748A994AA3DEC83BE23391B16A3539119F912746564BD35533\t\t\tVoteRecorded(_issueId, msg.sen...\n      DUP5 \t\t\t_support\n      TIMESTAMP \t\t\tblock.timestamp\n      PUSH 40\t\t\tVoteRecorded(_issueId, msg.sen...\n      MLOAD \t\t\tVoteRecorded(_issueId, msg.sen...\n      PUSH [tag] 109\t\t\tVoteRecorded(_issueId, msg.sen...\n      SWAP3 \t\t\tVoteRecorded(_issueId, msg.sen...\n      SWAP2 \t\t\tVoteRecorded(_issueId, msg.sen...\n      SWAP1 \t\t\tVoteRecorded(_issueId, msg.sen...\n      PUSH [tag] 110\t\t\tVoteRecorded(_issueId, msg.sen...\n      JUMP [in]\t\t\tVoteRecorded(_issueId, msg.sen...\n    tag 109\t\t\tVoteRecorded(_issueId, msg.sen...\n      JUMPDEST \t\t\tVoteRecorded(_issueId, msg.sen...\n      PUSH 40\t\t\tVoteRecorded(_issueId, msg.sen...\n      MLOAD \t\t\tVoteRecorded(_issueId, msg.sen...\n      DUP1 \t\t\tVoteRecorded(_issueId, msg.sen...\n      SWAP2 \t\t\tVoteRecorded(_issueId, msg.sen...\n      SUB \t\t\tVoteRecorded(_issueId, msg.sen...\n      SWAP1 \t\t\tVoteRecorded(_issueId, msg.sen...\n      LOG3 \t\t\tVoteRecorded(_issueId, msg.sen...\n      POP \t\t\tfunction recordVote(\\r\\n      ...\n      POP \t\t\tfunction recordVote(\\r\\n      ...\n      POP \t\t\tfunction recordVote(\\r\\n      ...\n      JUMP [out]\t\t\tfunction recordVote(\\r\\n      ...\n    tag 27\t\t\tfunction getVoteCount(string m...\n      JUMPDEST \t\t\tfunction getVoteCount(string m...\n      PUSH 0\t\t\tuint256\n      DUP1 \t\t\tissues\n      DUP3 \t\t\t_issueId\n      PUSH 40\t\t\tissues[_issueId]\n      MLOAD \t\t\tissues[_issueId]\n      PUSH [tag] 112\t\t\tissues[_issueId]\n      SWAP2 \t\t\tissues[_issueId]\n      SWAP1 \t\t\tissues[_issueId]\n      PUSH [tag] 91\t\t\tissues[_issueId]\n      JUMP [in]\t\t\tissues[_issueId]\n    tag 112\t\t\tissues[_issueId]\n      JUMPDEST \t\t\tissues[_issueId]\n      SWAP1 \t\t\tissues[_issueId]\n      DUP2 \t\t\tissues[_issueId]\n      MSTORE \t\t\tissues[_issueId]\n      PUSH 20\t\t\tissues[_issueId]\n      ADD \t\t\tissues[_issueId]\n      PUSH 40\t\t\tissues[_issueId]\n      MLOAD \t\t\tissues[_issueId]\n      DUP1 \t\t\tissues[_issueId]\n      SWAP2 \t\t\tissues[_issueId]\n      SUB \t\t\tissues[_issueId]\n      SWAP1 \t\t\tissues[_issueId]\n      KECCAK256 \t\t\tissues[_issueId]\n      PUSH 5\t\t\tissues[_issueId].exists\n      ADD \t\t\tissues[_issueId].exists\n      PUSH 0\t\t\tissues[_issueId].exists\n      SWAP1 \t\t\tissues[_issueId].exists\n      SLOAD \t\t\tissues[_issueId].exists\n      SWAP1 \t\t\tissues[_issueId].exists\n      PUSH 100\t\t\tissues[_issueId].exists\n      EXP \t\t\tissues[_issueId].exists\n      SWAP1 \t\t\tissues[_issueId].exists\n      DIV \t\t\tissues[_issueId].exists\n      PUSH FF\t\t\tissues[_issueId].exists\n      AND \t\t\tissues[_issueId].exists\n      PUSH [tag] 113\t\t\trequire(issues[_issueId].exist...\n      JUMPI \t\t\trequire(issues[_issueId].exist...\n      PUSH 40\t\t\trequire(issues[_issueId].exist...\n      MLOAD \t\t\trequire(issues[_issueId].exist...\n      PUSH 8C379A000000000000000000000000000000000000000000000000000000000\t\t\trequire(issues[_issueId].exist...\n      DUP2 \t\t\trequire(issues[_issueId].exist...\n      MSTORE \t\t\trequire(issues[_issueId].exist...\n      PUSH 4\t\t\trequire(issues[_issueId].exist...\n      ADD \t\t\trequire(issues[_issueId].exist...\n      PUSH [tag] 114\t\t\trequire(issues[_issueId].exist...\n      SWAP1 \t\t\trequire(issues[_issueId].exist...\n      PUSH [tag] 94\t\t\trequire(issues[_issueId].exist...\n      JUMP [in]\t\t\trequire(issues[_issueId].exist...\n    tag 114\t\t\trequire(issues[_issueId].exist...\n      JUMPDEST \t\t\trequire(issues[_issueId].exist...\n      PUSH 40\t\t\trequire(issues[_issueId].exist...\n      MLOAD \t\t\trequire(issues[_issueId].exist...\n      DUP1 \t\t\trequire(issues[_issueId].exist...\n      SWAP2 \t\t\trequire(issues[_issueId].exist...\n      SUB \t\t\trequire(issues[_issueId].exist...\n      SWAP1 \t\t\trequire(issues[_issueId].exist...\n      REVERT \t\t\trequire(issues[_issueId].exist...\n    tag 113\t\t\trequire(issues[_issueId].exist...\n      JUMPDEST \t\t\trequire(issues[_issueId].exist...\n      PUSH 0\t\t\tissues\n      DUP3 \t\t\t_issueId\n      PUSH 40\t\t\tissues[_issueId]\n      MLOAD \t\t\tissues[_issueId]\n      PUSH [tag] 115\t\t\tissues[_issueId]\n      SWAP2 \t\t\tissues[_issueId]\n      SWAP1 \t\t\tissues[_issueId]\n      PUSH [tag] 91\t\t\tissues[_issueId]\n      JUMP [in]\t\t\tissues[_issueId]\n    tag 115\t\t\tissues[_issueId]\n      JUMPDEST \t\t\tissues[_issueId]\n      SWAP1 \t\t\tissues[_issueId]\n      DUP2 \t\t\tissues[_issueId]\n      MSTORE \t\t\tissues[_issueId]\n      PUSH 20\t\t\tissues[_issueId]\n      ADD \t\t\tissues[_issueId]\n      PUSH 40\t\t\tissues[_issueId]\n      MLOAD \t\t\tissues[_issueId]\n      DUP1 \t\t\tissues[_issueId]\n      SWAP2 \t\t\tissues[_issueId]\n      SUB \t\t\tissues[_issueId]\n      SWAP1 \t\t\tissues[_issueId]\n      KECCAK256 \t\t\tissues[_issueId]\n      PUSH 4\t\t\tissues[_issueId].voteCount\n      ADD \t\t\tissues[_issueId].voteCount\n      SLOAD \t\t\tissues[_issueId].voteCount\n      SWAP1 \t\t\treturn issues[_issueId].voteCo...\n      POP \t\t\treturn issues[_issueId].voteCo...\n      SWAP2 \t\t\tfunction getVoteCount(string m...\n      SWAP1 \t\t\tfunction getVoteCount(string m...\n      POP \t\t\tfunction getVoteCount(string m...\n      JUMP [out]\t\t\tfunction getVoteCount(string m...\n    tag 33\t\t\tmapping(address => string[]) p...\n      JUMPDEST \t\t\tmapping(address => string[]) p...\n      PUSH 2\t\t\tmapping(address => string[]) p...\n      PUSH 20\t\t\tmapping(address => string[]) p...\n      MSTORE \t\t\tmapping(address => string[]) p...\n      DUP2 \t\t\tmapping(address => string[]) p...\n      PUSH 0\t\t\tmapping(address => string[]) p...\n      MSTORE \t\t\tmapping(address => string[]) p...\n      PUSH 40\t\t\tmapping(address => string[]) p...\n      PUSH 0\t\t\tmapping(address => string[]) p...\n      KECCAK256 \t\t\tmapping(address => string[]) p...\n      DUP2 \t\t\tmapping(address => string[]) p...\n      DUP2 \t\t\tmapping(address => string[]) p...\n      SLOAD \t\t\tmapping(address => string[]) p...\n      DUP2 \t\t\tmapping(address => string[]) p...\n      LT \t\t\tmapping(address => string[]) p...\n      PUSH [tag] 116\t\t\tmapping(address => string[]) p...\n      JUMPI \t\t\tmapping(address => string[]) p...\n      PUSH 0\t\t\tmapping(address => string[]) p...\n      DUP1 \t\t\tmapping(address => string[]) p...\n      REVERT \t\t\tmapping(address => string[]) p...\n    tag 116\t\t\tmapping(address => string[]) p...\n      JUMPDEST \t\t\tmapping(address => string[]) p...\n      SWAP1 \t\t\tmapping(address => string[]) p...\n      PUSH 0\t\t\tmapping(address => string[]) p...\n      MSTORE \t\t\tmapping(address => string[]) p...\n      PUSH 20\t\t\tmapping(address => string[]) p...\n      PUSH 0\t\t\tmapping(address => string[]) p...\n      KECCAK256 \t\t\tmapping(address => string[]) p...\n      ADD \t\t\tmapping(address => string[]) p...\n      PUSH 0\t\t\tmapping(address => string[]) p...\n      SWAP2 \t\t\tmapping(address => string[]) p...\n      POP \t\t\tmapping(address => string[]) p...\n      SWAP2 \t\t\tmapping(address => string[]) p...\n      POP \t\t\tmapping(address => string[]) p...\n      POP \t\t\tmapping(address => string[]) p...\n      DUP1 \t\t\tmapping(address => string[]) p...\n      SLOAD \t\t\tmapping(address => string[]) p...\n      PUSH [tag] 118\t\t\tmapping(address => string[]) p...\n      SWAP1 \t\t\tmapping(address => string[]) p...\n      PUSH [tag] 119\t\t\tmapping(address => string[]) p...\n      JUMP [in]\t\t\tmapping(address => string[]) p...\n    tag 118\t\t\tmapping(address => string[]) p...\n      JUMPDEST \t\t\tmapping(address => string[]) p...\n      DUP1 \t\t\tmapping(address => string[]) p...\n      PUSH 1F\t\t\tmapping(address => string[]) p...\n      ADD \t\t\tmapping(address => string[]) p...\n      PUSH 20\t\t\tmapping(address => string[]) p...\n      DUP1 \t\t\tmapping(address => string[]) p...\n      SWAP2 \t\t\tmapping(address => string[]) p...\n      DIV \t\t\tmapping(address => string[]) p...\n      MUL \t\t\tmapping(address => string[]) p...\n      PUSH 20\t\t\tmapping(address => string[]) p...\n      ADD \t\t\tmapping(address => string[]) p...\n      PUSH 40\t\t\tmapping(address => string[]) p...\n      MLOAD \t\t\tmapping(address => string[]) p...\n      SWAP1 \t\t\tmapping(address => string[]) p...\n      DUP2 \t\t\tmapping(address => string[]) p...\n      ADD \t\t\tmapping(address => string[]) p...\n      PUSH 40\t\t\tmapping(address => string[]) p...\n      MSTORE \t\t\tmapping(address => string[]) p...\n      DUP1 \t\t\tmapping(address => string[]) p...\n      SWAP3 \t\t\tmapping(address => string[]) p...\n      SWAP2 \t\t\tmapping(address => string[]) p...\n      SWAP1 \t\t\tmapping(address => string[]) p...\n      DUP2 \t\t\tmapping(address => string[]) p...\n      DUP2 \t\t\tmapping(address => string[]) p...\n      MSTORE \t\t\tmapping(address => string[]) p...\n      PUSH 20\t\t\tmapping(address => string[]) p...\n      ADD \t\t\tmapping(address => string[]) p...\n      DUP3 \t\t\tmapping(address => string[]) p...\n      DUP1 \t\t\tmapping(address => string[]) p...\n      SLOAD \t\t\tmapping(address => string[]) p...\n      PUSH [tag] 120\t\t\tmapping(address => string[]) p...\n      SWAP1 \t\t\tmapping(address => string[]) p...\n      PUSH [tag] 119\t\t\tmapping(address => string[]) p...\n      JUMP [in]\t\t\tmapping(address => string[]) p...\n    tag 120\t\t\tmapping(address => string[]) p...\n      JUMPDEST \t\t\tmapping(address => string[]) p...\n      DUP1 \t\t\tmapping(address => string[]) p...\n      ISZERO \t\t\tmapping(address => string[]) p...\n      PUSH [tag] 121\t\t\tmapping(address => string[]) p...\n      JUMPI \t\t\tmapping(address => string[]) p...\n      DUP1 \t\t\tmapping(address => string[]) p...\n      PUSH 1F\t\t\tmapping(address => string[]) p...\n      LT \t\t\tmapping(address => string[]) p...\n      PUSH [tag] 122\t\t\tmapping(address => string[]) p...\n      JUMPI \t\t\tmapping(address => string[]) p...\n      PUSH 100\t\t\tmapping(address => string[]) p...\n      DUP1 \t\t\tmapping(address => string[]) p...\n      DUP4 \t\t\tmapping(address => string[]) p...\n      SLOAD \t\t\tmapping(address => string[]) p...\n      DIV \t\t\tmapping(address => string[]) p...\n      MUL \t\t\tmapping(address => string[]) p...\n      DUP4 \t\t\tmapping(address => string[]) p...\n      MSTORE \t\t\tmapping(address => string[]) p...\n      SWAP2 \t\t\tmapping(address => string[]) p...\n      PUSH 20\t\t\tmapping(address => string[]) p...\n      ADD \t\t\tmapping(address => string[]) p...\n      SWAP2 \t\t\tmapping(address => string[]) p...\n      PUSH [tag] 121\t\t\tmapping(address => string[]) p...\n      JUMP \t\t\tmapping(address => string[]) p...\n    tag 122\t\t\tmapping(address => string[]) p...\n      JUMPDEST \t\t\tmapping(address => string[]) p...\n      DUP3 \t\t\tmapping(address => string[]) p...\n      ADD \t\t\tmapping(address => string[]) p...\n      SWAP2 \t\t\tmapping(address => string[]) p...\n      SWAP1 \t\t\tmapping(address => string[]) p...\n      PUSH 0\t\t\tmapping(address => string[]) p...\n      MSTORE \t\t\tmapping(address => string[]) p...\n      PUSH 20\t\t\tmapping(address => string[]) p...\n      PUSH 0\t\t\tmapping(address => string[]) p...\n      KECCAK256 \t\t\tmapping(address => string[]) p...\n      SWAP1 \t\t\tmapping(address => string[]) p...\n    tag 123\t\t\tmapping(address => string[]) p...\n      JUMPDEST \t\t\tmapping(address => string[]) p...\n      DUP2 \t\t\tmapping(address => string[]) p...\n      SLOAD \t\t\tmapping(address => string[]) p...\n      DUP2 \t\t\tmapping(address => string[]) p...\n      MSTORE \t\t\tmapping(address => string[]) p...\n      SWAP1 \t\t\tmapping(address => string[]) p...\n      PUSH 1\t\t\tmapping(address => string[]) p...\n      ADD \t\t\tmapping(address => string[]) p...\n      SWAP1 \t\t\tmapping(address => string[]) p...\n      PUSH 20\t\t\tmapping(address => string[]) p...\n      ADD \t\t\tmapping(address => string[]) p...\n      DUP1 \t\t\tmapping(address => string[]) p...\n      DUP4 \t\t\tmapping(address => string[]) p...\n      GT \t\t\tmapping(address => string[]) p...\n      PUSH [tag] 123\t\t\tmapping(address => string[]) p...\n      JUMPI \t\t\tmapping(address => string[]) p...\n      DUP3 \t\t\tmapping(address => string[]) p...\n      SWAP1 \t\t\tmapping(address => string[]) p...\n      SUB \t\t\tmapping(address => string[]) p...\n      PUSH 1F\t\t\tmapping(address => string[]) p...\n      AND \t\t\tmapping(address => string[]) p...\n      DUP3 \t\t\tmapping(address => string[]) p...\n      ADD \t\t\tmapping(address => string[]) p...\n      SWAP2 \t\t\tmapping(address => string[]) p...\n    tag 121\t\t\tmapping(address => string[]) p...\n      JUMPDEST \t\t\tmapping(address => string[]) p...\n      POP \t\t\tmapping(address => string[]) p...\n      POP \t\t\tmapping(address => string[]) p...\n      POP \t\t\tmapping(address => string[]) p...\n      POP \t\t\tmapping(address => string[]) p...\n      POP \t\t\tmapping(address => string[]) p...\n      DUP2 \t\t\tmapping(address => string[]) p...\n      JUMP [out]\t\t\tmapping(address => string[]) p...\n    tag 39\t\t\tstring[] public allIssueIds\n      JUMPDEST \t\t\tstring[] public allIssueIds\n      PUSH 4\t\t\tstring[] public allIssueIds\n      DUP2 \t\t\tstring[] public allIssueIds\n      DUP2 \t\t\tstring[] public allIssueIds\n      SLOAD \t\t\tstring[] public allIssueIds\n      DUP2 \t\t\tstring[] public allIssueIds\n      LT \t\t\tstring[] public allIssueIds\n      PUSH [tag] 124\t\t\tstring[] public allIssueIds\n      JUMPI \t\t\tstring[] public allIssueIds\n      PUSH 0\t\t\tstring[] public allIssueIds\n      DUP1 \t\t\tstring[] public allIssueIds\n      REVERT \t\t\tstring[] public allIssueIds\n    tag 124\t\t\tstring[] public allIssueIds\n      JUMPDEST \t\t\tstring[] public allIssueIds\n      SWAP1 \t\t\tstring[] public allIssueIds\n      PUSH 0\t\t\tstring[] public allIssueIds\n      MSTORE \t\t\tstring[] public allIssueIds\n      PUSH 20\t\t\tstring[] public allIssueIds\n      PUSH 0\t\t\tstring[] public allIssueIds\n      KECCAK256 \t\t\tstring[] public allIssueIds\n      ADD \t\t\tstring[] public allIssueIds\n      PUSH 0\t\t\tstring[] public allIssueIds\n      SWAP2 \t\t\tstring[] public allIssueIds\n      POP \t\t\tstring[] public allIssueIds\n      SWAP1 \t\t\tstring[] public allIssueIds\n      POP \t\t\tstring[] public allIssueIds\n      DUP1 \t\t\tstring[] public allIssueIds\n      SLOAD \t\t\tstring[] public allIssueIds\n      PUSH [tag] 126\t\t\tstring[] public allIssueIds\n      SWAP1 \t\t\tstring[] public allIssueIds\n      PUSH [tag] 119\t\t\tstring[] public allIssueIds\n      JUMP [in]\t\t\tstring[] public allIssueIds\n    tag 126\t\t\tstring[] public allIssueIds\n      JUMPDEST \t\t\tstring[] public allIssueIds\n      DUP1 \t\t\tstring[] public allIssueIds\n      PUSH 1F\t\t\tstring[] public allIssueIds\n      ADD \t\t\tstring[] public allIssueIds\n      PUSH 20\t\t\tstring[] public allIssueIds\n      DUP1 \t\t\tstring[] public allIssueIds\n      SWAP2 \t\t\tstring[] public allIssueIds\n      DIV \t\t\tstring[] public allIssueIds\n      MUL \t\t\tstring[] public allIssueIds\n      PUSH 20\t\t\tstring[] public allIssueIds\n      ADD \t\t\tstring[] public allIssueIds\n      PUSH 40\t\t\tstring[] public allIssueIds\n      MLOAD \t\t\tstring[] public allIssueIds\n      SWAP1 \t\t\tstring[] public allIssueIds\n      DUP2 \t\t\tstring[] public allIssueIds\n      ADD \t\t\tstring[] public allIssueIds\n      PUSH 40\t\t\tstring[] public allIssueIds\n      MSTORE \t\t\tstring[] public allIssueIds\n      DUP1 \t\t\tstring[] public allIssueIds\n      SWAP3 \t\t\tstring[] public allIssueIds\n      SWAP2 \t\t\tstring[] public allIssueIds\n      SWAP1 \t\t\tstring[] public allIssueIds\n      DUP2 \t\t\tstring[] public allIssueIds\n      DUP2 \t\t\tstring[] public allIssueIds\n      MSTORE \t\t\tstring[] public allIssueIds\n      PUSH 20\t\t\tstring[] public allIssueIds\n      ADD \t\t\tstring[] public allIssueIds\n      DUP3 \t\t\tstring[] public allIssueIds\n      DUP1 \t\t\tstring[] public allIssueIds\n      SLOAD \t\t\tstring[] public allIssueIds\n      PUSH [tag] 127\t\t\tstring[] public allIssueIds\n      SWAP1 \t\t\tstring[] public allIssueIds\n      PUSH [tag] 119\t\t\tstring[] public allIssueIds\n      JUMP [in]\t\t\tstring[] public allIssueIds\n    tag 127\t\t\tstring[] public allIssueIds\n      JUMPDEST \t\t\tstring[] public allIssueIds\n      DUP1 \t\t\tstring[] public allIssueIds\n      ISZERO \t\t\tstring[] public allIssueIds\n      PUSH [tag] 128\t\t\tstring[] public allIssueIds\n      JUMPI \t\t\tstring[] public allIssueIds\n      DUP1 \t\t\tstring[] public allIssueIds\n      PUSH 1F\t\t\tstring[] public allIssueIds\n      LT \t\t\tstring[] public allIssueIds\n      PUSH [tag] 129\t\t\tstring[] public allIssueIds\n      JUMPI \t\t\tstring[] public allIssueIds\n      PUSH 100\t\t\tstring[] public allIssueIds\n      DUP1 \t\t\tstring[] public allIssueIds\n      DUP4 \t\t\tstring[] public allIssueIds\n      SLOAD \t\t\tstring[] public allIssueIds\n      DIV \t\t\tstring[] public allIssueIds\n      MUL \t\t\tstring[] public allIssueIds\n      DUP4 \t\t\tstring[] public allIssueIds\n      MSTORE \t\t\tstring[] public allIssueIds\n      SWAP2 \t\t\tstring[] public allIssueIds\n      PUSH 20\t\t\tstring[] public allIssueIds\n      ADD \t\t\tstring[] public allIssueIds\n      SWAP2 \t\t\tstring[] public allIssueIds\n      PUSH [tag] 128\t\t\tstring[] public allIssueIds\n      JUMP \t\t\tstring[] public allIssueIds\n    tag 129\t\t\tstring[] public allIssueIds\n      JUMPDEST \t\t\tstring[] public allIssueIds\n      DUP3 \t\t\tstring[] public allIssueIds\n      ADD \t\t\tstring[] public allIssueIds\n      SWAP2 \t\t\tstring[] public allIssueIds\n      SWAP1 \t\t\tstring[] public allIssueIds\n      PUSH 0\t\t\tstring[] public allIssueIds\n      MSTORE \t\t\tstring[] public allIssueIds\n      PUSH 20\t\t\tstring[] public allIssueIds\n      PUSH 0\t\t\tstring[] public allIssueIds\n      KECCAK256 \t\t\tstring[] public allIssueIds\n      SWAP1 \t\t\tstring[] public allIssueIds\n    tag 130\t\t\tstring[] public allIssueIds\n      JUMPDEST \t\t\tstring[] public allIssueIds\n      DUP2 \t\t\tstring[] public allIssueIds\n      SLOAD \t\t\tstring[] public allIssueIds\n      DUP2 \t\t\tstring[] public allIssueIds\n      MSTORE \t\t\tstring[] public allIssueIds\n      SWAP1 \t\t\tstring[] public allIssueIds\n      PUSH 1\t\t\tstring[] public allIssueIds\n      ADD \t\t\tstring[] public allIssueIds\n      SWAP1 \t\t\tstring[] public allIssueIds\n      PUSH 20\t\t\tstring[] public allIssueIds\n      ADD \t\t\tstring[] public allIssueIds\n      DUP1 \t\t\tstring[] public allIssueIds\n      DUP4 \t\t\tstring[] public allIssueIds\n      GT \t\t\tstring[] public allIssueIds\n      PUSH [tag] 130\t\t\tstring[] public allIssueIds\n      JUMPI \t\t\tstring[] public allIssueIds\n      DUP3 \t\t\tstring[] public allIssueIds\n      SWAP1 \t\t\tstring[] public allIssueIds\n      SUB \t\t\tstring[] public allIssueIds\n      PUSH 1F\t\t\tstring[] public allIssueIds\n      AND \t\t\tstring[] public allIssueIds\n      DUP3 \t\t\tstring[] public allIssueIds\n      ADD \t\t\tstring[] public allIssueIds\n      SWAP2 \t\t\tstring[] public allIssueIds\n    tag 128\t\t\tstring[] public allIssueIds\n      JUMPDEST \t\t\tstring[] public allIssueIds\n      POP \t\t\tstring[] public allIssueIds\n      POP \t\t\tstring[] public allIssueIds\n      POP \t\t\tstring[] public allIssueIds\n      POP \t\t\tstring[] public allIssueIds\n      POP \t\t\tstring[] public allIssueIds\n      DUP2 \t\t\tstring[] public allIssueIds\n      JUMP [out]\t\t\tstring[] public allIssueIds\n    tag 44\t\t\tfunction getUserIssues(address...\n      JUMPDEST \t\t\tfunction getUserIssues(address...\n      PUSH 60\t\t\tstring[] memory\n      PUSH 2\t\t\tuserIssues\n      PUSH 0\t\t\tuserIssues[_user]\n      DUP4 \t\t\t_user\n      PUSH FFFFFFFFFFFFFFFFFFFFFFFFFFFFFFFFFFFFFFFF\t\t\tuserIssues[_user]\n      AND \t\t\tuserIssues[_user]\n      PUSH FFFFFFFFFFFFFFFFFFFFFFFFFFFFFFFFFFFFFFFF\t\t\tuserIssues[_user]\n      AND \t\t\tuserIssues[_user]\n      DUP2 \t\t\tuserIssues[_user]\n      MSTORE \t\t\tuserIssues[_user]\n      PUSH 20\t\t\tuserIssues[_user]\n      ADD \t\t\tuserIssues[_user]\n      SWAP1 \t\t\tuserIssues[_user]\n      DUP2 \t\t\tuserIssues[_user]\n      MSTORE \t\t\tuserIssues[_user]\n      PUSH 20\t\t\tuserIssues[_user]\n      ADD \t\t\tuserIssues[_user]\n      PUSH 0\t\t\tuserIssues[_user]\n      KECCAK256 \t\t\tuserIssues[_user]\n      DUP1 \t\t\treturn userIssues[_user]\n      SLOAD \t\t\treturn userIssues[_user]\n      DUP1 \t\t\treturn userIssues[_user]\n      PUSH 20\t\t\treturn userIssues[_user]\n      MUL \t\t\treturn userIssues[_user]\n      PUSH 20\t\t\treturn userIssues[_user]\n      ADD \t\t\treturn userIssues[_user]\n      PUSH 40\t\t\treturn userIssues[_user]\n      MLOAD \t\t\treturn userIssues[_user]\n      SWAP1 \t\t\treturn userIssues[_user]\n      DUP2 \t\t\treturn userIssues[_user]\n      ADD \t\t\treturn userIssues[_user]\n      PUSH 40\t\t\treturn userIssues[_user]\n      MSTORE \t\t\treturn userIssues[_user]\n      DUP1 \t\t\treturn userIssues[_user]\n      SWAP3 \t\t\treturn userIssues[_user]\n      SWAP2 \t\t\treturn userIssues[_user]\n      SWAP1 \t\t\treturn userIssues[_user]\n      DUP2 \t\t\treturn userIssues[_user]\n      DUP2 \t\t\treturn userIssues[_user]\n      MSTORE \t\t\treturn userIssues[_user]\n      PUSH 20\t\t\treturn userIssues[_user]\n      ADD \t\t\treturn userIssues[_user]\n      PUSH 0\t\t\treturn userIssues[_user]\n      SWAP1 \t\t\treturn userIssues[_user]\n    tag 132\t\t\treturn userIssues[_user]\n      JUMPDEST \t\t\treturn userIssues[_user]\n      DUP3 \t\t\treturn userIssues[_user]\n      DUP3 \t\t\treturn userIssues[_user]\n      LT \t\t\treturn userIssues[_user]\n      ISZERO \t\t\treturn userIssues[_user]\n      PUSH [tag] 133\t\t\treturn userIssues[_user]\n      JUMPI \t\t\treturn userIssues[_user]\n      DUP4 \t\t\treturn userIssues[_user]\n      DUP3 \t\t\treturn userIssues[_user]\n      SWAP1 \t\t\treturn userIssues[_user]\n      PUSH 0\t\t\treturn userIssues[_user]\n      MSTORE \t\t\treturn userIssues[_user]\n      PUSH 20\t\t\treturn userIssues[_user]\n      PUSH 0\t\t\treturn userIssues[_user]\n      KECCAK256 \t\t\treturn userIssues[_user]\n      ADD \t\t\treturn userIssues[_user]\n      DUP1 \t\t\treturn userIssues[_user]\n      SLOAD \t\t\treturn userIssues[_user]\n      PUSH [tag] 135\t\t\treturn userIssues[_user]\n      SWAP1 \t\t\treturn userIssues[_user]\n      PUSH [tag] 119\t\t\treturn userIssues[_user]\n      JUMP [in]\t\t\treturn userIssues[_user]\n    tag 135\t\t\treturn userIssues[_user]\n      JUMPDEST \t\t\treturn userIssues[_user]\n      DUP1 \t\t\treturn userIssues[_user]\n      PUSH 1F\t\t\treturn userIssues[_user]\n      ADD \t\t\treturn userIssues[_user]\n      PUSH 20\t\t\treturn userIssues[_user]\n      DUP1 \t\t\treturn userIssues[_user]\n      SWAP2 \t\t\treturn userIssues[_user]\n      DIV \t\t\treturn userIssues[_user]\n      MUL \t\t\treturn userIssues[_user]\n      PUSH 20\t\t\treturn userIssues[_user]\n      ADD \t\t\treturn userIssues[_user]\n      PUSH 40\t\t\treturn userIssues[_user]\n      MLOAD \t\t\treturn userIssues[_user]\n      SWAP1 \t\t\treturn userIssues[_user]\n      DUP2 \t\t\treturn userIssues[_user]\n      ADD \t\t\treturn userIssues[_user]\n      PUSH 40\t\t\treturn userIssues[_user]\n      MSTORE \t\t\treturn userIssues[_user]\n      DUP1 \t\t\treturn userIssues[_user]\n      SWAP3 \t\t\treturn userIssues[_user]\n      SWAP2 \t\t\treturn userIssues[_user]\n      SWAP1 \t\t\treturn userIssues[_user]\n      DUP2 \t\t\treturn userIssues[_user]\n      DUP2 \t\t\treturn userIssues[_user]\n      MSTORE \t\t\treturn userIssues[_user]\n      PUSH 20\t\t\treturn userIssues[_user]\n      ADD \t\t\treturn userIssues[_user]\n      DUP3 \t\t\treturn userIssues[_user]\n      DUP1 \t\t\treturn userIssues[_user]\n      SLOAD \t\t\treturn userIssues[_user]\n      PUSH [tag] 136\t\t\treturn userIssues[_user]\n      SWAP1 \t\t\treturn userIssues[_user]\n      PUSH [tag] 119\t\t\treturn userIssues[_user]\n      JUMP [in]\t\t\treturn userIssues[_user]\n    tag 136\t\t\treturn userIssues[_user]\n      JUMPDEST \t\t\treturn userIssues[_user]\n      DUP1 \t\t\treturn userIssues[_user]\n      ISZERO \t\t\treturn userIssues[_user]\n      PUSH [tag] 137\t\t\treturn userIssues[_user]\n      JUMPI \t\t\treturn userIssues[_user]\n      DUP1 \t\t\treturn userIssues[_user]\n      PUSH 1F\t\t\treturn userIssues[_user]\n      LT \t\t\treturn userIssues[_user]\n      PUSH [tag] 138\t\t\treturn userIssues[_user]\n      JUMPI \t\t\treturn userIssues[_user]\n      PUSH 100\t\t\treturn userIssues[_user]\n      DUP1 \t\t\treturn userIssues[_user]\n      DUP4 \t\t\treturn userIssues[_user]\n      SLOAD \t\t\treturn userIssues[_user]\n      DIV \t\t\treturn userIssues[_user]\n      MUL \t\t\treturn userIssues[_user]\n      DUP4 \t\t\treturn userIssues[_user]\n      MSTORE \t\t\treturn userIssues[_user]\n      SWAP2 \t\t\treturn userIssues[_user]\n      PUSH 20\t\t\treturn userIssues[_user]\n      ADD \t\t\treturn userIssues[_user]\n      SWAP2 \t\t\treturn userIssues[_user]\n      PUSH [tag] 137\t\t\treturn userIssues[_user]\n      JUMP \t\t\treturn userIssues[_user]\n    tag 138\t\t\treturn userIssues[_user]\n      JUMPDEST \t\t\treturn userIssues[_user]\n      DUP3 \t\t\treturn userIssues[_user]\n      ADD \t\t\treturn userIssues[_user]\n      SWAP2 \t\t\treturn userIssues[_user]\n      SWAP1 \t\t\treturn userIssues[_user]\n      PUSH 0\t\t\treturn userIssues[_user]\n      MSTORE \t\t\treturn userIssues[_user]\n      PUSH 20\t\t\treturn userIssues[_user]\n      PUSH 0\t\t\treturn userIssues[_user]\n      KECCAK256 \t\t\treturn userIssues[_user]\n      SWAP1 \t\t\treturn userIssues[_user]\n    tag 139\t\t\treturn userIssues[_user]\n      JUMPDEST \t\t\treturn userIssues[_user]\n      DUP2 \t\t\treturn userIssues[_user]\n      SLOAD \t\t\treturn userIssues[_user]\n      DUP2 \t\t\treturn userIssues[_user]\n      MSTORE \t\t\treturn userIssues[_user]\n      SWAP1 \t\t\treturn userIssues[_user]\n      PUSH 1\t\t\treturn userIssues[_user]\n      ADD \t\t\treturn userIssues[_user]\n      SWAP1 \t\t\treturn userIssues[_user]\n      PUSH 20\t\t\treturn userIssues[_user]\n      ADD \t\t\treturn userIssues[_user]\n      DUP1 \t\t\treturn userIssues[_user]\n      DUP4 \t\t\treturn userIssues[_user]\n      GT \t\t\treturn userIssues[_user]\n      PUSH [tag] 139\t\t\treturn userIssues[_user]\n      JUMPI \t\t\treturn userIssues[_user]\n      DUP3 \t\t\treturn userIssues[_user]\n      SWAP1 \t\t\treturn userIssues[_user]\n      SUB \t\t\treturn userIssues[_user]\n      PUSH 1F\t\t\treturn userIssues[_user]\n      AND \t\t\treturn userIssues[_user]\n      DUP3 \t\t\treturn userIssues[_user]\n      ADD \t\t\treturn userIssues[_user]\n      SWAP2 \t\t\treturn userIssues[_user]\n    tag 137\t\t\treturn userIssues[_user]\n      JUMPDEST \t\t\treturn userIssues[_user]\n      POP \t\t\treturn userIssues[_user]\n      POP \t\t\treturn userIssues[_user]\n      POP \t\t\treturn userIssues[_user]\n      POP \t\t\treturn userIssues[_user]\n      POP \t\t\treturn userIssues[_user]\n      DUP2 \t\t\treturn userIssues[_user]\n      MSTORE \t\t\treturn userIssues[_user]\n      PUSH 20\t\t\treturn userIssues[_user]\n      ADD \t\t\treturn userIssues[_user]\n      SWAP1 \t\t\treturn userIssues[_user]\n      PUSH 1\t\t\treturn userIssues[_user]\n      ADD \t\t\treturn userIssues[_user]\n      SWAP1 \t\t\treturn userIssues[_user]\n      PUSH [tag] 132\t\t\treturn userIssues[_user]\n      JUMP \t\t\treturn userIssues[_user]\n    tag 133\t\t\treturn userIssues[_user]\n      JUMPDEST \t\t\treturn userIssues[_user]\n      POP \t\t\treturn userIssues[_user]\n      POP \t\t\treturn userIssues[_user]\n      POP \t\t\treturn userIssues[_user]\n      POP \t\t\treturn userIssues[_user]\n      SWAP1 \t\t\treturn userIssues[_user]\n      POP \t\t\treturn userIssues[_user]\n      SWAP2 \t\t\tfunction getUserIssues(address...\n      SWAP1 \t\t\tfunction getUserIssues(address...\n      POP \t\t\tfunction getUserIssues(address...\n      JUMP [out]\t\t\tfunction getUserIssues(address...\n    tag 50\t\t\tfunction checkIfVoted(address ...\n      JUMPDEST \t\t\tfunction checkIfVoted(address ...\n      PUSH 0\t\t\tbool\n      PUSH 3\t\t\thasVoted\n      PUSH 0\t\t\thasVoted[_user]\n      DUP5 \t\t\t_user\n      PUSH FFFFFFFFFFFFFFFFFFFFFFFFFFFFFFFFFFFFFFFF\t\t\thasVoted[_user]\n      AND \t\t\thasVoted[_user]\n      PUSH FFFFFFFFFFFFFFFFFFFFFFFFFFFFFFFFFFFFFFFF\t\t\thasVoted[_user]\n      AND \t\t\thasVoted[_user]\n      DUP2 \t\t\thasVoted[_user]\n      MSTORE \t\t\thasVoted[_user]\n      PUSH 20\t\t\thasVoted[_user]\n      ADD \t\t\thasVoted[_user]\n      SWAP1 \t\t\thasVoted[_user]\n      DUP2 \t\t\thasVoted[_user]\n      MSTORE \t\t\thasVoted[_user]\n      PUSH 20\t\t\thasVoted[_user]\n      ADD \t\t\thasVoted[_user]\n      PUSH 0\t\t\thasVoted[_user]\n      KECCAK256 \t\t\thasVoted[_user]\n      DUP3 \t\t\t_issueId\n      PUSH 40\t\t\thasVoted[_user][_issueId]\n      MLOAD \t\t\thasVoted[_user][_issueId]\n      PUSH [tag] 141\t\t\thasVoted[_user][_issueId]\n      SWAP2 \t\t\thasVoted[_user][_issueId]\n      SWAP1 \t\t\thasVoted[_user][_issueId]\n      PUSH [tag] 91\t\t\thasVoted[_user][_issueId]\n      JUMP [in]\t\t\thasVoted[_user][_issueId]\n    tag 141\t\t\thasVoted[_user][_issueId]\n      JUMPDEST \t\t\thasVoted[_user][_issueId]\n      SWAP1 \t\t\thasVoted[_user][_issueId]\n      DUP2 \t\t\thasVoted[_user][_issueId]\n      MSTORE \t\t\thasVoted[_user][_issueId]\n      PUSH 20\t\t\thasVoted[_user][_issueId]\n      ADD \t\t\thasVoted[_user][_issueId]\n      PUSH 40\t\t\thasVoted[_user][_issueId]\n      MLOAD \t\t\thasVoted[_user][_issueId]\n      DUP1 \t\t\thasVoted[_user][_issueId]\n      SWAP2 \t\t\thasVoted[_user][_issueId]\n      SUB \t\t\thasVoted[_user][_issueId]\n      SWAP1 \t\t\thasVoted[_user][_issueId]\n      KECCAK256 \t\t\thasVoted[_user][_issueId]\n      PUSH 0\t\t\thasVoted[_user][_issueId]\n      SWAP1 \t\t\thasVoted[_user][_issueId]\n      SLOAD \t\t\thasVoted[_user][_issueId]\n      SWAP1 \t\t\thasVoted[_user][_issueId]\n      PUSH 100\t\t\thasVoted[_user][_issueId]\n      EXP \t\t\thasVoted[_user][_issueId]\n      SWAP1 \t\t\thasVoted[_user][_issueId]\n      DIV \t\t\thasVoted[_user][_issueId]\n      PUSH FF\t\t\thasVoted[_user][_issueId]\n      AND \t\t\thasVoted[_user][_issueId]\n      SWAP1 \t\t\treturn hasVoted[_user][_issueI...\n      POP \t\t\treturn hasVoted[_user][_issueI...\n      SWAP3 \t\t\tfunction checkIfVoted(address ...\n      SWAP2 \t\t\tfunction checkIfVoted(address ...\n      POP \t\t\tfunction checkIfVoted(address ...\n      POP \t\t\tfunction checkIfVoted(address ...\n      JUMP [out]\t\t\tfunction checkIfVoted(address ...\n    tag 55\t\t\tfunction getIssue(string memor...\n      JUMPDEST \t\t\tfunction getIssue(string memor...\n      PUSH 60\t\t\tstring memory issueId\n      DUP1 \t\t\tstring memory title\n      PUSH 0\t\t\taddress reportedBy\n      DUP1 \t\t\tuint256 timestamp\n      PUSH 0\t\t\tuint256 voteCount\n      DUP1 \t\t\tbool exists\n      PUSH 0\t\t\tIssue memory issue\n      DUP1 \t\t\tissues\n      DUP9 \t\t\t_issueId\n      PUSH 40\t\t\tissues[_issueId]\n      MLOAD \t\t\tissues[_issueId]\n      PUSH [tag] 143\t\t\tissues[_issueId]\n      SWAP2 \t\t\tissues[_issueId]\n      SWAP1 \t\t\tissues[_issueId]\n      PUSH [tag] 91\t\t\tissues[_issueId]\n      JUMP [in]\t\t\tissues[_issueId]\n    tag 143\t\t\tissues[_issueId]\n      JUMPDEST \t\t\tissues[_issueId]\n      SWAP1 \t\t\tissues[_issueId]\n      DUP2 \t\t\tissues[_issueId]\n      MSTORE \t\t\tissues[_issueId]\n      PUSH 20\t\t\tissues[_issueId]\n      ADD \t\t\tissues[_issueId]\n      PUSH 40\t\t\tissues[_issueId]\n      MLOAD \t\t\tissues[_issueId]\n      DUP1 \t\t\tissues[_issueId]\n      SWAP2 \t\t\tissues[_issueId]\n      SUB \t\t\tissues[_issueId]\n      SWAP1 \t\t\tissues[_issueId]\n      KECCAK256 \t\t\tissues[_issueId]\n      PUSH 40\t\t\tIssue memory issue = issues[_i...\n      MLOAD \t\t\tIssue memory issue = issues[_i...\n      DUP1 \t\t\tIssue memory issue = issues[_i...\n      PUSH C0\t\t\tIssue memory issue = issues[_i...\n      ADD \t\t\tIssue memory issue = issues[_i...\n      PUSH 40\t\t\tIssue memory issue = issues[_i...\n      MSTORE \t\t\tIssue memory issue = issues[_i...\n      SWAP1 \t\t\tIssue memory issue = issues[_i...\n      DUP2 \t\t\tIssue memory issue = issues[_i...\n      PUSH 0\t\t\tIssue memory issue = issues[_i...\n      DUP3 \t\t\tIssue memory issue = issues[_i...\n      ADD \t\t\tIssue memory issue = issues[_i...\n      DUP1 \t\t\tIssue memory issue = issues[_i...\n      SLOAD \t\t\tIssue memory issue = issues[_i...\n      PUSH [tag] 144\t\t\tIssue memory issue = issues[_i...\n      SWAP1 \t\t\tIssue memory issue = issues[_i...\n      PUSH [tag] 119\t\t\tIssue memory issue = issues[_i...\n      JUMP [in]\t\t\tIssue memory issue = issues[_i...\n    tag 144\t\t\tIssue memory issue = issues[_i...\n      JUMPDEST \t\t\tIssue memory issue = issues[_i...\n      DUP1 \t\t\tIssue memory issue = issues[_i...\n      PUSH 1F\t\t\tIssue memory issue = issues[_i...\n      ADD \t\t\tIssue memory issue = issues[_i...\n      PUSH 20\t\t\tIssue memory issue = issues[_i...\n      DUP1 \t\t\tIssue memory issue = issues[_i...\n      SWAP2 \t\t\tIssue memory issue = issues[_i...\n      DIV \t\t\tIssue memory issue = issues[_i...\n      MUL \t\t\tIssue memory issue = issues[_i...\n      PUSH 20\t\t\tIssue memory issue = issues[_i...\n      ADD \t\t\tIssue memory issue = issues[_i...\n      PUSH 40\t\t\tIssue memory issue = issues[_i...\n      MLOAD \t\t\tIssue memory issue = issues[_i...\n      SWAP1 \t\t\tIssue memory issue = issues[_i...\n      DUP2 \t\t\tIssue memory issue = issues[_i...\n      ADD \t\t\tIssue memory issue = issues[_i...\n      PUSH 40\t\t\tIssue memory issue = issues[_i...\n      MSTORE \t\t\tIssue memory issue = issues[_i...\n      DUP1 \t\t\tIssue memory issue = issues[_i...\n      SWAP3 \t\t\tIssue memory issue = issues[_i...\n      SWAP2 \t\t\tIssue memory issue = issues[_i...\n      SWAP1 \t\t\tIssue memory issue = issues[_i...\n      DUP2 \t\t\tIssue memory issue = issues[_i...\n      DUP2 \t\t\tIssue memory issue = issues[_i...\n      MSTORE \t\t\tIssue memory issue = issues[_i...\n      PUSH 20\t\t\tIssue memory issue = issues[_i...\n      ADD \t\t\tIssue memory issue = issues[_i...\n      DUP3 \t\t\tIssue memory issue = issues[_i...\n      DUP1 \t\t\tIssue memory issue = issues[_i...\n      SLOAD \t\t\tIssue memory issue = issues[_i...\n      PUSH [tag] 145\t\t\tIssue memory issue = issues[_i...\n      SWAP1 \t\t\tIssue memory issue = issues[_i...\n      PUSH [tag] 119\t\t\tIssue memory issue = issues[_i...\n      JUMP [in]\t\t\tIssue memory issue = issues[_i...\n    tag 145\t\t\tIssue memory issue = issues[_i...\n      JUMPDEST \t\t\tIssue memory issue = issues[_i...\n      DUP1 \t\t\tIssue memory issue = issues[_i...\n      ISZERO \t\t\tIssue memory issue = issues[_i...\n      PUSH [tag] 146\t\t\tIssue memory issue = issues[_i...\n      JUMPI \t\t\tIssue memory issue = issues[_i...\n      DUP1 \t\t\tIssue memory issue = issues[_i...\n      PUSH 1F\t\t\tIssue memory issue = issues[_i...\n      LT \t\t\tIssue memory issue = issues[_i...\n      PUSH [tag] 147\t\t\tIssue memory issue = issues[_i...\n      JUMPI \t\t\tIssue memory issue = issues[_i...\n      PUSH 100\t\t\tIssue memory issue = issues[_i...\n      DUP1 \t\t\tIssue memory issue = issues[_i...\n      DUP4 \t\t\tIssue memory issue = issues[_i...\n      SLOAD \t\t\tIssue memory issue = issues[_i...\n      DIV \t\t\tIssue memory issue = issues[_i...\n      MUL \t\t\tIssue memory issue = issues[_i...\n      DUP4 \t\t\tIssue memory issue = issues[_i...\n      MSTORE \t\t\tIssue memory issue = issues[_i...\n      SWAP2 \t\t\tIssue memory issue = issues[_i...\n      PUSH 20\t\t\tIssue memory issue = issues[_i...\n      ADD \t\t\tIssue memory issue = issues[_i...\n      SWAP2 \t\t\tIssue memory issue = issues[_i...\n      PUSH [tag] 146\t\t\tIssue memory issue = issues[_i...\n      JUMP \t\t\tIssue memory issue = issues[_i...\n    tag 147\t\t\tIssue memory issue = issues[_i...\n      JUMPDEST \t\t\tIssue memory issue = issues[_i...\n      DUP3 \t\t\tIssue memory issue = issues[_i...\n      ADD \t\t\tIssue memory issue = issues[_i...\n      SWAP2 \t\t\tIssue memory issue = issues[_i...\n      SWAP1 \t\t\tIssue memory issue = issues[_i...\n      PUSH 0\t\t\tIssue memory issue = issues[_i...\n      MSTORE \t\t\tIssue memory issue = issues[_i...\n      PUSH 20\t\t\tIssue memory issue = issues[_i...\n      PUSH 0\t\t\tIssue memory issue = issues[_i...\n      KECCAK256 \t\t\tIssue memory issue = issues[_i...\n      SWAP1 \t\t\tIssue memory issue = issues[_i...\n    tag 148\t\t\tIssue memory issue = issues[_i...\n      JUMPDEST \t\t\tIssue memory issue = issues[_i...\n      DUP2 \t\t\tIssue memory issue = issues[_i...\n      SLOAD \t\t\tIssue memory issue = issues[_i...\n      DUP2 \t\t\tIssue memory issue = issues[_i...\n      MSTORE \t\t\tIssue memory issue = issues[_i...\n      SWAP1 \t\t\tIssue memory issue = issues[_i...\n      PUSH 1\t\t\tIssue memory issue = issues[_i...\n      ADD \t\t\tIssue memory issue = issues[_i...\n      SWAP1 \t\t\tIssue memory issue = issues[_i...\n      PUSH 20\t\t\tIssue memory issue = issues[_i...\n      ADD \t\t\tIssue memory issue = issues[_i...\n      DUP1 \t\t\tIssue memory issue = issues[_i...\n      DUP4 \t\t\tIssue memory issue = issues[_i...\n      GT \t\t\tIssue memory issue = issues[_i...\n      PUSH [tag] 148\t\t\tIssue memory issue = issues[_i...\n      JUMPI \t\t\tIssue memory issue = issues[_i...\n      DUP3 \t\t\tIssue memory issue = issues[_i...\n      SWAP1 \t\t\tIssue memory issue = issues[_i...\n      SUB \t\t\tIssue memory issue = issues[_i...\n      PUSH 1F\t\t\tIssue memory issue = issues[_i...\n      AND \t\t\tIssue memory issue = issues[_i...\n      DUP3 \t\t\tIssue memory issue = issues[_i...\n      ADD \t\t\tIssue memory issue = issues[_i...\n      SWAP2 \t\t\tIssue memory issue = issues[_i...\n    tag 146\t\t\tIssue memory issue = issues[_i...\n      JUMPDEST \t\t\tIssue memory issue = issues[_i...\n      POP \t\t\tIssue memory issue = issues[_i...\n      POP \t\t\tIssue memory issue = issues[_i...\n      POP \t\t\tIssue memory issue = issues[_i...\n      POP \t\t\tIssue memory issue = issues[_i...\n      POP \t\t\tIssue memory issue = issues[_i...\n      DUP2 \t\t\tIssue memory issue = issues[_i...\n      MSTORE \t\t\tIssue memory issue = issues[_i...\n      PUSH 20\t\t\tIssue memory issue = issues[_i...\n      ADD \t\t\tIssue memory issue = issues[_i...\n      PUSH 1\t\t\tIssue memory issue = issues[_i...\n      DUP3 \t\t\tIssue memory issue = issues[_i...\n      ADD \t\t\tIssue memory issue = issues[_i...\n      DUP1 \t\t\tIssue memory issue = issues[_i...\n      SLOAD \t\t\tIssue memory issue = issues[_i...\n      PUSH [tag] 149\t\t\tIssue memory issue = issues[_i...\n      SWAP1 \t\t\tIssue memory issue = issues[_i...\n      PUSH [tag] 119\t\t\tIssue memory issue = issues[_i...\n      JUMP [in]\t\t\tIssue memory issue = issues[_i...\n    tag 149\t\t\tIssue memory issue = issues[_i...\n      JUMPDEST \t\t\tIssue memory issue = issues[_i...\n      DUP1 \t\t\tIssue memory issue = issues[_i...\n      PUSH 1F\t\t\tIssue memory issue = issues[_i...\n      ADD \t\t\tIssue memory issue = issues[_i...\n      PUSH 20\t\t\tIssue memory issue = issues[_i...\n      DUP1 \t\t\tIssue memory issue = issues[_i...\n      SWAP2 \t\t\tIssue memory issue = issues[_i...\n      DIV \t\t\tIssue memory issue = issues[_i...\n      MUL \t\t\tIssue memory issue = issues[_i...\n      PUSH 20\t\t\tIssue memory issue = issues[_i...\n      ADD \t\t\tIssue memory issue = issues[_i...\n      PUSH 40\t\t\tIssue memory issue = issues[_i...\n      MLOAD \t\t\tIssue memory issue = issues[_i...\n      SWAP1 \t\t\tIssue memory issue = issues[_i...\n      DUP2 \t\t\tIssue memory issue = issues[_i...\n      ADD \t\t\tIssue memory issue = issues[_i...\n      PUSH 40\t\t\tIssue memory issue = issues[_i...\n      MSTORE \t\t\tIssue memory issue = issues[_i...\n      DUP1 \t\t\tIssue memory issue = issues[_i...\n      SWAP3 \t\t\tIssue memory issue = issues[_i...\n      SWAP2 \t\t\tIssue memory issue = issues[_i...\n      SWAP1 \t\t\tIssue memory issue = issues[_i...\n      DUP2 \t\t\tIssue memory issue = issues[_i...\n      DUP2 \t\t\tIssue memory issue = issues[_i...\n      MSTORE \t\t\tIssue memory issue = issues[_i...\n      PUSH 20\t\t\tIssue memory issue = issues[_i...\n      ADD \t\t\tIssue memory issue = issues[_i...\n      DUP3 \t\t\tIssue memory issue = issues[_i...\n      DUP1 \t\t\tIssue memory issue = issues[_i...\n      SLOAD \t\t\tIssue memory issue = issues[_i...\n      PUSH [tag] 150\t\t\tIssue memory issue = issues[_i...\n      SWAP1 \t\t\tIssue memory issue = issues[_i...\n      PUSH [tag] 119\t\t\tIssue memory issue = issues[_i...\n      JUMP [in]\t\t\tIssue memory issue = issues[_i...\n    tag 150\t\t\tIssue memory issue = issues[_i...\n      JUMPDEST \t\t\tIssue memory issue = issues[_i...\n      DUP1 \t\t\tIssue memory issue = issues[_i...\n      ISZERO \t\t\tIssue memory issue = issues[_i...\n      PUSH [tag] 151\t\t\tIssue memory issue = issues[_i...\n      JUMPI \t\t\tIssue memory issue = issues[_i...\n      DUP1 \t\t\tIssue memory issue = issues[_i...\n      PUSH 1F\t\t\tIssue memory issue = issues[_i...\n      LT \t\t\tIssue memory issue = issues[_i...\n      PUSH [tag] 152\t\t\tIssue memory issue = issues[_i...\n      JUMPI \t\t\tIssue memory issue = issues[_i...\n      PUSH 100\t\t\tIssue memory issue = issues[_i...\n      DUP1 \t\t\tIssue memory issue = issues[_i...\n      DUP4 \t\t\tIssue memory issue = issues[_i...\n      SLOAD \t\t\tIssue memory issue = issues[_i...\n      DIV \t\t\tIssue memory issue = issues[_i...\n      MUL \t\t\tIssue memory issue = issues[_i...\n      DUP4 \t\t\tIssue memory issue = issues[_i...\n      MSTORE \t\t\tIssue memory issue = issues[_i...\n      SWAP2 \t\t\tIssue memory issue = issues[_i...\n      PUSH 20\t\t\tIssue memory issue = issues[_i...\n      ADD \t\t\tIssue memory issue = issues[_i...\n      SWAP2 \t\t\tIssue memory issue = issues[_i...\n      PUSH [tag] 151\t\t\tIssue memory issue = issues[_i...\n      JUMP \t\t\tIssue memory issue = issues[_i...\n    tag 152\t\t\tIssue memory issue = issues[_i...\n      JUMPDEST \t\t\tIssue memory issue = issues[_i...\n      DUP3 \t\t\tIssue memory issue = issues[_i...\n      ADD \t\t\tIssue memory issue = issues[_i...\n      SWAP2 \t\t\tIssue memory issue = issues[_i...\n      SWAP1 \t\t\tIssue memory issue = issues[_i...\n      PUSH 0\t\t\tIssue memory issue = issues[_i...\n      MSTORE \t\t\tIssue memory issue = issues[_i...\n      PUSH 20\t\t\tIssue memory issue = issues[_i...\n      PUSH 0\t\t\tIssue memory issue = issues[_i...\n      KECCAK256 \t\t\tIssue memory issue = issues[_i...\n      SWAP1 \t\t\tIssue memory issue = issues[_i...\n    tag 153\t\t\tIssue memory issue = issues[_i...\n      JUMPDEST \t\t\tIssue memory issue = issues[_i...\n      DUP2 \t\t\tIssue memory issue = issues[_i...\n      SLOAD \t\t\tIssue memory issue = issues[_i...\n      DUP2 \t\t\tIssue memory issue = issues[_i...\n      MSTORE \t\t\tIssue memory issue = issues[_i...\n      SWAP1 \t\t\tIssue memory issue = issues[_i...\n      PUSH 1\t\t\tIssue memory issue = issues[_i...\n      ADD \t\t\tIssue memory issue = issues[_i...\n      SWAP1 \t\t\tIssue memory issue = issues[_i...\n      PUSH 20\t\t\tIssue memory issue = issues[_i...\n      ADD \t\t\tIssue memory issue = issues[_i...\n      DUP1 \t\t\tIssue memory issue = issues[_i...\n      DUP4 \t\t\tIssue memory issue = issues[_i...\n      GT \t\t\tIssue memory issue = issues[_i...\n      PUSH [tag] 153\t\t\tIssue memory issue = issues[_i...\n      JUMPI \t\t\tIssue memory issue = issues[_i...\n      DUP3 \t\t\tIssue memory issue = issues[_i...\n      SWAP1 \t\t\tIssue memory issue = issues[_i...\n      SUB \t\t\tIssue memory issue = issues[_i...\n      PUSH 1F\t\t\tIssue memory issue = issues[_i...\n      AND \t\t\tIssue memory issue = issues[_i...\n      DUP3 \t\t\tIssue memory issue = issues[_i...\n      ADD \t\t\tIssue memory issue = issues[_i...\n      SWAP2 \t\t\tIssue memory issue = issues[_i...\n    tag 151\t\t\tIssue memory issue = issues[_i...\n      JUMPDEST \t\t\tIssue memory issue = issues[_i...\n      POP \t\t\tIssue memory issue = issues[_i...\n      POP \t\t\tIssue memory issue = issues[_i...\n      POP \t\t\tIssue memory issue = issues[_i...\n      POP \t\t\tIssue memory issue = issues[_i...\n      POP \t\t\tIssue memory issue = issues[_i...\n      DUP2 \t\t\tIssue memory issue = issues[_i...\n      MSTORE \t\t\tIssue memory issue = issues[_i...\n      PUSH 20\t\t\tIssue memory issue = issues[_i...\n      ADD \t\t\tIssue memory issue = issues[_i...\n      PUSH 2\t\t\tIssue memory issue = issues[_i...\n      DUP3 \t\t\tIssue memory issue = issues[_i...\n      ADD \t\t\tIssue memory issue = issues[_i...\n      PUSH 0\t\t\tIssue memory issue = issues[_i...\n      SWAP1 \t\t\tIssue memory issue = issues[_i...\n      SLOAD \t\t\tIssue memory issue = issues[_i...\n      SWAP1 \t\t\tIssue memory issue = issues[_i...\n      PUSH 100\t\t\tIssue memory issue = issues[_i...\n      EXP \t\t\tIssue memory issue = issues[_i...\n      SWAP1 \t\t\tIssue memory issue = issues[_i...\n      DIV \t\t\tIssue memory issue = issues[_i...\n      PUSH FFFFFFFFFFFFFFFFFFFFFFFFFFFFFFFFFFFFFFFF\t\t\tIssue memory issue = issues[_i...\n      AND \t\t\tIssue memory issue = issues[_i...\n      PUSH FFFFFFFFFFFFFFFFFFFFFFFFFFFFFFFFFFFFFFFF\t\t\tIssue memory issue = issues[_i...\n      AND \t\t\tIssue memory issue = issues[_i...\n      PUSH FFFFFFFFFFFFFFFFFFFFFFFFFFFFFFFFFFFFFFFF\t\t\tIssue memory issue = issues[_i...\n      AND \t\t\tIssue memory issue = issues[_i...\n      DUP2 \t\t\tIssue memory issue = issues[_i...\n      MSTORE \t\t\tIssue memory issue = issues[_i...\n      PUSH 20\t\t\tIssue memory issue = issues[_i...\n      ADD \t\t\tIssue memory issue = issues[_i...\n      PUSH 3\t\t\tIssue memory issue = issues[_i...\n      DUP3 \t\t\tIssue memory issue = issues[_i...\n      ADD \t\t\tIssue memory issue = issues[_i...\n      SLOAD \t\t\tIssue memory issue = issues[_i...\n      DUP2 \t\t\tIssue memory issue = issues[_i...\n      MSTORE \t\t\tIssue memory issue = issues[_i...\n      PUSH 20\t\t\tIssue memory issue = issues[_i...\n      ADD \t\t\tIssue memory issue = issues[_i...\n      PUSH 4\t\t\tIssue memory issue = issues[_i...\n      DUP3 \t\t\tIssue memory issue = issues[_i...\n      ADD \t\t\tIssue memory issue = issues[_i...\n      SLOAD \t\t\tIssue memory issue = issues[_i...\n      DUP2 \t\t\tIssue memory issue = issues[_i...\n      MSTORE \t\t\tIssue memory issue = issues[_i...\n      PUSH 20\t\t\tIssue memory issue = issues[_i...\n      ADD \t\t\tIssue memory issue = issues[_i...\n      PUSH 5\t\t\tIssue memory issue = issues[_i...\n      DUP3 \t\t\tIssue memory issue = issues[_i...\n      ADD \t\t\tIssue memory issue = issues[_i...\n      PUSH 0\t\t\tIssue memory issue = issues[_i...\n      SWAP1 \t\t\tIssue memory issue = issues[_i...\n      SLOAD \t\t\tIssue memory issue = issues[_i...\n      SWAP1 \t\t\tIssue memory issue = issues[_i...\n      PUSH 100\t\t\tIssue memory issue = issues[_i...\n      EXP \t\t\tIssue memory issue = issues[_i...\n      SWAP1 \t\t\tIssue memory issue = issues[_i...\n      DIV \t\t\tIssue memory issue = issues[_i...\n      PUSH FF\t\t\tIssue memory issue = issues[_i...\n      AND \t\t\tIssue memory issue = issues[_i...\n      ISZERO \t\t\tIssue memory issue = issues[_i...\n      ISZERO \t\t\tIssue memory issue = issues[_i...\n      ISZERO \t\t\tIssue memory issue = issues[_i...\n      ISZERO \t\t\tIssue memory issue = issues[_i...\n      DUP2 \t\t\tIssue memory issue = issues[_i...\n      MSTORE \t\t\tIssue memory issue = issues[_i...\n      POP \t\t\tIssue memory issue = issues[_i...\n      POP \t\t\tIssue memory issue = issues[_i...\n      SWAP1 \t\t\tIssue memory issue = issues[_i...\n      POP \t\t\tIssue memory issue = issues[_i...\n      DUP1 \t\t\tissue\n      PUSH 0\t\t\tissue.issueId\n      ADD \t\t\tissue.issueId\n      MLOAD \t\t\tissue.issueId\n      DUP2 \t\t\tissue\n      PUSH 20\t\t\tissue.title\n      ADD \t\t\tissue.title\n      MLOAD \t\t\tissue.title\n      DUP3 \t\t\tissue\n      PUSH 40\t\t\tissue.reportedBy\n      ADD \t\t\tissue.reportedBy\n      MLOAD \t\t\tissue.reportedBy\n      DUP4 \t\t\tissue\n      PUSH 60\t\t\tissue.timestamp\n      ADD \t\t\tissue.timestamp\n      MLOAD \t\t\tissue.timestamp\n      DUP5 \t\t\tissue\n      PUSH 80\t\t\tissue.voteCount\n      ADD \t\t\tissue.voteCount\n      MLOAD \t\t\tissue.voteCount\n      DUP6 \t\t\tissue\n      PUSH A0\t\t\tissue.exists\n      ADD \t\t\tissue.exists\n      MLOAD \t\t\tissue.exists\n      SWAP7 \t\t\treturn (\\r\\n            issue....\n      POP \t\t\treturn (\\r\\n            issue....\n      SWAP7 \t\t\treturn (\\r\\n            issue....\n      POP \t\t\treturn (\\r\\n            issue....\n      SWAP7 \t\t\treturn (\\r\\n            issue....\n      POP \t\t\treturn (\\r\\n            issue....\n      SWAP7 \t\t\treturn (\\r\\n            issue....\n      POP \t\t\treturn (\\r\\n            issue....\n      SWAP7 \t\t\treturn (\\r\\n            issue....\n      POP \t\t\treturn (\\r\\n            issue....\n      SWAP7 \t\t\treturn (\\r\\n            issue....\n      POP \t\t\treturn (\\r\\n            issue....\n      POP \t\t\treturn (\\r\\n            issue....\n      SWAP2 \t\t\tfunction getIssue(string memor...\n      SWAP4 \t\t\tfunction getIssue(string memor...\n      SWAP6 \t\t\tfunction getIssue(string memor...\n      POP \t\t\tfunction getIssue(string memor...\n      SWAP2 \t\t\tfunction getIssue(string memor...\n      SWAP4 \t\t\tfunction getIssue(string memor...\n      SWAP6 \t\t\tfunction getIssue(string memor...\n      JUMP [out]\t\t\tfunction getIssue(string memor...\n    tag 61\t\t\tmapping(string => Vote[]) publ...\n      JUMPDEST \t\t\tmapping(string => Vote[]) publ...\n      PUSH 1\t\t\tmapping(string => Vote[]) publ...\n      DUP3 \t\t\tmapping(string => Vote[]) publ...\n      DUP1 \t\t\tmapping(string => Vote[]) publ...\n      MLOAD \t\t\tmapping(string => Vote[]) publ...\n      PUSH 20\t\t\tmapping(string => Vote[]) publ...\n      DUP2 \t\t\tmapping(string => Vote[]) publ...\n      ADD \t\t\tmapping(string => Vote[]) publ...\n      DUP3 \t\t\tmapping(string => Vote[]) publ...\n      ADD \t\t\tmapping(string => Vote[]) publ...\n      DUP1 \t\t\tmapping(string => Vote[]) publ...\n      MLOAD \t\t\tmapping(string => Vote[]) publ...\n      DUP5 \t\t\tmapping(string => Vote[]) publ...\n      DUP3 \t\t\tmapping(string => Vote[]) publ...\n      MSTORE \t\t\tmapping(string => Vote[]) publ...\n      PUSH 20\t\t\tmapping(string => Vote[]) publ...\n      DUP4 \t\t\tmapping(string => Vote[]) publ...\n      ADD \t\t\tmapping(string => Vote[]) publ...\n      PUSH 20\t\t\tmapping(string => Vote[]) publ...\n      DUP6 \t\t\tmapping(string => Vote[]) publ...\n      ADD \t\t\tmapping(string => Vote[]) publ...\n      KECCAK256 \t\t\tmapping(string => Vote[]) publ...\n      DUP2 \t\t\tmapping(string => Vote[]) publ...\n      DUP4 \t\t\tmapping(string => Vote[]) publ...\n      MSTORE \t\t\tmapping(string => Vote[]) publ...\n      DUP1 \t\t\tmapping(string => Vote[]) publ...\n      SWAP6 \t\t\tmapping(string => Vote[]) publ...\n      POP \t\t\tmapping(string => Vote[]) publ...\n      POP \t\t\tmapping(string => Vote[]) publ...\n      POP \t\t\tmapping(string => Vote[]) publ...\n      POP \t\t\tmapping(string => Vote[]) publ...\n      POP \t\t\tmapping(string => Vote[]) publ...\n      POP \t\t\tmapping(string => Vote[]) publ...\n      DUP2 \t\t\tmapping(string => Vote[]) publ...\n      DUP2 \t\t\tmapping(string => Vote[]) publ...\n      SLOAD \t\t\tmapping(string => Vote[]) publ...\n      DUP2 \t\t\tmapping(string => Vote[]) publ...\n      LT \t\t\tmapping(string => Vote[]) publ...\n      PUSH [tag] 154\t\t\tmapping(string => Vote[]) publ...\n      JUMPI \t\t\tmapping(string => Vote[]) publ...\n      PUSH 0\t\t\tmapping(string => Vote[]) publ...\n      DUP1 \t\t\tmapping(string => Vote[]) publ...\n      REVERT \t\t\tmapping(string => Vote[]) publ...\n    tag 154\t\t\tmapping(string => Vote[]) publ...\n      JUMPDEST \t\t\tmapping(string => Vote[]) publ...\n      SWAP1 \t\t\tmapping(string => Vote[]) publ...\n      PUSH 0\t\t\tmapping(string => Vote[]) publ...\n      MSTORE \t\t\tmapping(string => Vote[]) publ...\n      PUSH 20\t\t\tmapping(string => Vote[]) publ...\n      PUSH 0\t\t\tmapping(string => Vote[]) publ...\n      KECCAK256 \t\t\tmapping(string => Vote[]) publ...\n      SWAP1 \t\t\tmapping(string => Vote[]) publ...\n      PUSH 4\t\t\tmapping(string => Vote[]) publ...\n      MUL \t\t\tmapping(string => Vote[]) publ...\n      ADD \t\t\tmapping(string => Vote[]) publ...\n      PUSH 0\t\t\tmapping(string => Vote[]) publ...\n      SWAP2 \t\t\tmapping(string => Vote[]) publ...\n      POP \t\t\tmapping(string => Vote[]) publ...\n      SWAP2 \t\t\tmapping(string => Vote[]) publ...\n      POP \t\t\tmapping(string => Vote[]) publ...\n      POP \t\t\tmapping(string => Vote[]) publ...\n      DUP1 \t\t\tmapping(string => Vote[]) publ...\n      PUSH 0\t\t\tmapping(string => Vote[]) publ...\n      ADD \t\t\tmapping(string => Vote[]) publ...\n      PUSH 0\t\t\tmapping(string => Vote[]) publ...\n      SWAP1 \t\t\tmapping(string => Vote[]) publ...\n      SLOAD \t\t\tmapping(string => Vote[]) publ...\n      SWAP1 \t\t\tmapping(string => Vote[]) publ...\n      PUSH 100\t\t\tmapping(string => Vote[]) publ...\n      EXP \t\t\tmapping(string => Vote[]) publ...\n      SWAP1 \t\t\tmapping(string => Vote[]) publ...\n      DIV \t\t\tmapping(string => Vote[]) publ...\n      PUSH FFFFFFFFFFFFFFFFFFFFFFFFFFFFFFFFFFFFFFFF\t\t\tmapping(string => Vote[]) publ...\n      AND \t\t\tmapping(string => Vote[]) publ...\n      SWAP1 \t\t\tmapping(string => Vote[]) publ...\n      DUP1 \t\t\tmapping(string => Vote[]) publ...\n      PUSH 1\t\t\tmapping(string => Vote[]) publ...\n      ADD \t\t\tmapping(string => Vote[]) publ...\n      DUP1 \t\t\tmapping(string => Vote[]) publ...\n      SLOAD \t\t\tmapping(string => Vote[]) publ...\n      PUSH [tag] 156\t\t\tmapping(string => Vote[]) publ...\n      SWAP1 \t\t\tmapping(string => Vote[]) publ...\n      PUSH [tag] 119\t\t\tmapping(string => Vote[]) publ...\n      JUMP [in]\t\t\tmapping(string => Vote[]) publ...\n    tag 156\t\t\tmapping(string => Vote[]) publ...\n      JUMPDEST \t\t\tmapping(string => Vote[]) publ...\n      DUP1 \t\t\tmapping(string => Vote[]) publ...\n      PUSH 1F\t\t\tmapping(string => Vote[]) publ...\n      ADD \t\t\tmapping(string => Vote[]) publ...\n      PUSH 20\t\t\tmapping(string => Vote[]) publ...\n      DUP1 \t\t\tmapping(string => Vote[]) publ...\n      SWAP2 \t\t\tmapping(string => Vote[]) publ...\n      DIV \t\t\tmapping(string => Vote[]) publ...\n      MUL \t\t\tmapping(string => Vote[]) publ...\n      PUSH 20\t\t\tmapping(string => Vote[]) publ...\n      ADD \t\t\tmapping(string => Vote[]) publ...\n      PUSH 40\t\t\tmapping(string => Vote[]) publ...\n      MLOAD \t\t\tmapping(string => Vote[]) publ...\n      SWAP1 \t\t\tmapping(string => Vote[]) publ...\n      DUP2 \t\t\tmapping(string => Vote[]) publ...\n      ADD \t\t\tmapping(string => Vote[]) publ...\n      PUSH 40\t\t\tmapping(string => Vote[]) publ...\n      MSTORE \t\t\tmapping(string => Vote[]) publ...\n      DUP1 \t\t\tmapping(string => Vote[]) publ...\n      SWAP3 \t\t\tmapping(string => Vote[]) publ...\n      SWAP2 \t\t\tmapping(string => Vote[]) publ...\n      SWAP1 \t\t\tmapping(string => Vote[]) publ...\n      DUP2 \t\t\tmapping(string => Vote[]) publ...\n      DUP2 \t\t\tmapping(string => Vote[]) publ...\n      MSTORE \t\t\tmapping(string => Vote[]) publ...\n      PUSH 20\t\t\tmapping(string => Vote[]) publ...\n      ADD \t\t\tmapping(string => Vote[]) publ...\n      DUP3 \t\t\tmapping(string => Vote[]) publ...\n      DUP1 \t\t\tmapping(string => Vote[]) publ...\n      SLOAD \t\t\tmapping(string => Vote[]) publ...\n      PUSH [tag] 157\t\t\tmapping(string => Vote[]) publ...\n      SWAP1 \t\t\tmapping(string => Vote[]) publ...\n      PUSH [tag] 119\t\t\tmapping(string => Vote[]) publ...\n      JUMP [in]\t\t\tmapping(string => Vote[]) publ...\n    tag 157\t\t\tmapping(string => Vote[]) publ...\n      JUMPDEST \t\t\tmapping(string => Vote[]) publ...\n      DUP1 \t\t\tmapping(string => Vote[]) publ...\n      ISZERO \t\t\tmapping(string => Vote[]) publ...\n      PUSH [tag] 158\t\t\tmapping(string => Vote[]) publ...\n      JUMPI \t\t\tmapping(string => Vote[]) publ...\n      DUP1 \t\t\tmapping(string => Vote[]) publ...\n      PUSH 1F\t\t\tmapping(string => Vote[]) publ...\n      LT \t\t\tmapping(string => Vote[]) publ...\n      PUSH [tag] 159\t\t\tmapping(string => Vote[]) publ...\n      JUMPI \t\t\tmapping(string => Vote[]) publ...\n      PUSH 100\t\t\tmapping(string => Vote[]) publ...\n      DUP1 \t\t\tmapping(string => Vote[]) publ...\n      DUP4 \t\t\tmapping(string => Vote[]) publ...\n      SLOAD \t\t\tmapping(string => Vote[]) publ...\n      DIV \t\t\tmapping(string => Vote[]) publ...\n      MUL \t\t\tmapping(string => Vote[]) publ...\n      DUP4 \t\t\tmapping(string => Vote[]) publ...\n      MSTORE \t\t\tmapping(string => Vote[]) publ...\n      SWAP2 \t\t\tmapping(string => Vote[]) publ...\n      PUSH 20\t\t\tmapping(string => Vote[]) publ...\n      ADD \t\t\tmapping(string => Vote[]) publ...\n      SWAP2 \t\t\tmapping(string => Vote[]) publ...\n      PUSH [tag] 158\t\t\tmapping(string => Vote[]) publ...\n      JUMP \t\t\tmapping(string => Vote[]) publ...\n    tag 159\t\t\tmapping(string => Vote[]) publ...\n      JUMPDEST \t\t\tmapping(string => Vote[]) publ...\n      DUP3 \t\t\tmapping(string => Vote[]) publ...\n      ADD \t\t\tmapping(string => Vote[]) publ...\n      SWAP2 \t\t\tmapping(string => Vote[]) publ...\n      SWAP1 \t\t\tmapping(string => Vote[]) publ...\n      PUSH 0\t\t\tmapping(string => Vote[]) publ...\n      MSTORE \t\t\tmapping(string => Vote[]) publ...\n      PUSH 20\t\t\tmapping(string => Vote[]) publ...\n      PUSH 0\t\t\tmapping(string => Vote[]) publ...\n      KECCAK256 \t\t\tmapping(string => Vote[]) publ...\n      SWAP1 \t\t\tmapping(string => Vote[]) publ...\n    tag 160\t\t\tmapping(string => Vote[]) publ...\n      JUMPDEST \t\t\tmapping(string => Vote[]) publ...\n      DUP2 \t\t\tmapping(string => Vote[]) publ...\n      SLOAD \t\t\tmapping(string => Vote[]) publ...\n      DUP2 \t\t\tmapping(string => Vote[]) publ...\n      MSTORE \t\t\tmapping(string => Vote[]) publ...\n      SWAP1 \t\t\tmapping(string => Vote[]) publ...\n      PUSH 1\t\t\tmapping(string => Vote[]) publ...\n      ADD \t\t\tmapping(string => Vote[]) publ...\n      SWAP1 \t\t\tmapping(string => Vote[]) publ...\n      PUSH 20\t\t\tmapping(string => Vote[]) publ...\n      ADD \t\t\tmapping(string => Vote[]) publ...\n      DUP1 \t\t\tmapping(string => Vote[]) publ...\n      DUP4 \t\t\tmapping(string => Vote[]) publ...\n      GT \t\t\tmapping(string => Vote[]) publ...\n      PUSH [tag] 160\t\t\tmapping(string => Vote[]) publ...\n      JUMPI \t\t\tmapping(string => Vote[]) publ...\n      DUP3 \t\t\tmapping(string => Vote[]) publ...\n      SWAP1 \t\t\tmapping(string => Vote[]) publ...\n      SUB \t\t\tmapping(string => Vote[]) publ...\n      PUSH 1F\t\t\tmapping(string => Vote[]) publ...\n      AND \t\t\tmapping(string => Vote[]) publ...\n      DUP3 \t\t\tmapping(string => Vote[]) publ...\n      ADD \t\t\tmapping(string => Vote[]) publ...\n      SWAP2 \t\t\tmapping(string => Vote[]) publ...\n    tag 158\t\t\tmapping(string => Vote[]) publ...\n      JUMPDEST \t\t\tmapping(string => Vote[]) publ...\n      POP \t\t\tmapping(string => Vote[]) publ...\n      POP \t\t\tmapping(string => Vote[]) publ...\n      POP \t\t\tmapping(string => Vote[]) publ...\n      POP \t\t\tmapping(string => Vote[]) publ...\n      POP \t\t\tmapping(string => Vote[]) publ...\n      SWAP1 \t\t\tmapping(string => Vote[]) publ...\n      DUP1 \t\t\tmapping(string => Vote[]) publ...\n      PUSH 2\t\t\tmapping(string => Vote[]) publ...\n      ADD \t\t\tmapping(string => Vote[]) publ...\n      SLOAD \t\t\tmapping(string => Vote[]) publ...\n      SWAP1 \t\t\tmapping(string => Vote[]) publ...\n      DUP1 \t\t\tmapping(string => Vote[]) publ...\n      PUSH 3\t\t\tmapping(string => Vote[]) publ...\n      ADD \t\t\tmapping(string => Vote[]) publ...\n      PUSH 0\t\t\tmapping(string => Vote[]) publ...\n      SWAP1 \t\t\tmapping(string => Vote[]) publ...\n      SLOAD \t\t\tmapping(string => Vote[]) publ...\n      SWAP1 \t\t\tmapping(string => Vote[]) publ...\n      PUSH 100\t\t\tmapping(string => Vote[]) publ...\n      EXP \t\t\tmapping(string => Vote[]) publ...\n      SWAP1 \t\t\tmapping(string => Vote[]) publ...\n      DIV \t\t\tmapping(string => Vote[]) publ...\n      PUSH FF\t\t\tmapping(string => Vote[]) publ...\n      AND \t\t\tmapping(string => Vote[]) publ...\n      SWAP1 \t\t\tmapping(string => Vote[]) publ...\n      POP \t\t\tmapping(string => Vote[]) publ...\n      DUP5 \t\t\tmapping(string => Vote[]) publ...\n      JUMP [out]\t\t\tmapping(string => Vote[]) publ...\n    tag 67\t\t\tfunction recordIssue(\\r\\n     ...\n      JUMPDEST \t\t\tfunction recordIssue(\\r\\n     ...\n      PUSH 0\t\t\t0\n      DUP3 \t\t\t_issueId\n      MLOAD \t\t\tbytes(_issueId).length\n      GT \t\t\tbytes(_issueId).length > 0\n      PUSH [tag] 162\t\t\trequire(bytes(_issueId).length...\n      JUMPI \t\t\trequire(bytes(_issueId).length...\n      PUSH 40\t\t\trequire(bytes(_issueId).length...\n      MLOAD \t\t\trequire(bytes(_issueId).length...\n      PUSH 8C379A000000000000000000000000000000000000000000000000000000000\t\t\trequire(bytes(_issueId).length...\n      DUP2 \t\t\trequire(bytes(_issueId).length...\n      MSTORE \t\t\trequire(bytes(_issueId).length...\n      PUSH 4\t\t\trequire(bytes(_issueId).length...\n      ADD \t\t\trequire(bytes(_issueId).length...\n      PUSH [tag] 163\t\t\trequire(bytes(_issueId).length...\n      SWAP1 \t\t\trequire(bytes(_issueId).length...\n      PUSH [tag] 164\t\t\trequire(bytes(_issueId).length...\n      JUMP [in]\t\t\trequire(bytes(_issueId).length...\n    tag 163\t\t\trequire(bytes(_issueId).length...\n      JUMPDEST \t\t\trequire(bytes(_issueId).length...\n      PUSH 40\t\t\trequire(bytes(_issueId).length...\n      MLOAD \t\t\trequire(bytes(_issueId).length...\n      DUP1 \t\t\trequire(bytes(_issueId).length...\n      SWAP2 \t\t\trequire(bytes(_issueId).length...\n      SUB \t\t\trequire(bytes(_issueId).length...\n      SWAP1 \t\t\trequire(bytes(_issueId).length...\n      REVERT \t\t\trequire(bytes(_issueId).length...\n    tag 162\t\t\trequire(bytes(_issueId).length...\n      JUMPDEST \t\t\trequire(bytes(_issueId).length...\n      PUSH 0\t\t\t0\n      DUP2 \t\t\t_title\n      MLOAD \t\t\tbytes(_title).length\n      GT \t\t\tbytes(_title).length > 0\n      PUSH [tag] 165\t\t\trequire(bytes(_title).length >...\n      JUMPI \t\t\trequire(bytes(_title).length >...\n      PUSH 40\t\t\trequire(bytes(_title).length >...\n      MLOAD \t\t\trequire(bytes(_title).length >...\n      PUSH 8C379A000000000000000000000000000000000000000000000000000000000\t\t\trequire(bytes(_title).length >...\n      DUP2 \t\t\trequire(bytes(_title).length >...\n      MSTORE \t\t\trequire(bytes(_title).length >...\n      PUSH 4\t\t\trequire(bytes(_title).length >...\n      ADD \t\t\trequire(bytes(_title).length >...\n      PUSH [tag] 166\t\t\trequire(bytes(_title).length >...\n      SWAP1 \t\t\trequire(bytes(_title).length >...\n      PUSH [tag] 167\t\t\trequire(bytes(_title).length >...\n      JUMP [in]\t\t\trequire(bytes(_title).length >...\n    tag 166\t\t\trequire(bytes(_title).length >...\n      JUMPDEST \t\t\trequire(bytes(_title).length >...\n      PUSH 40\t\t\trequire(bytes(_title).length >...\n      MLOAD \t\t\trequire(bytes(_title).length >...\n      DUP1 \t\t\trequire(bytes(_title).length >...\n      SWAP2 \t\t\trequire(bytes(_title).length >...\n      SUB \t\t\trequire(bytes(_title).length >...\n      SWAP1 \t\t\trequire(bytes(_title).length >...\n      REVERT \t\t\trequire(bytes(_title).length >...\n    tag 165\t\t\trequire(bytes(_title).length >...\n      JUMPDEST \t\t\trequire(bytes(_title).length >...\n      PUSH 0\t\t\tissues\n      DUP3 \t\t\t_issueId\n      PUSH 40\t\t\tissues[_issueId]\n      MLOAD \t\t\tissues[_issueId]\n      PUSH [tag] 168\t\t\tissues[_issueId]\n      SWAP2 \t\t\tissues[_issueId]\n      SWAP1 \t\t\tissues[_issueId]\n      PUSH [tag] 91\t\t\tissues[_issueId]\n      JUMP [in]\t\t\tissues[_issueId]\n    tag 168\t\t\tissues[_issueId]\n      JUMPDEST \t\t\tissues[_issueId]\n      SWAP1 \t\t\tissues[_issueId]\n      DUP2 \t\t\tissues[_issueId]\n      MSTORE \t\t\tissues[_issueId]\n      PUSH 20\t\t\tissues[_issueId]\n      ADD \t\t\tissues[_issueId]\n      PUSH 40\t\t\tissues[_issueId]\n      MLOAD \t\t\tissues[_issueId]\n      DUP1 \t\t\tissues[_issueId]\n      SWAP2 \t\t\tissues[_issueId]\n      SUB \t\t\tissues[_issueId]\n      SWAP1 \t\t\tissues[_issueId]\n      KECCAK256 \t\t\tissues[_issueId]\n      PUSH 5\t\t\tissues[_issueId].exists\n      ADD \t\t\tissues[_issueId].exists\n      PUSH 0\t\t\tissues[_issueId].exists\n      SWAP1 \t\t\tissues[_issueId].exists\n      SLOAD \t\t\tissues[_issueId].exists\n      SWAP1 \t\t\tissues[_issueId].exists\n      PUSH 100\t\t\tissues[_issueId].exists\n      EXP \t\t\tissues[_issueId].exists\n      SWAP1 \t\t\tissues[_issueId].exists\n      DIV \t\t\tissues[_issueId].exists\n      PUSH FF\t\t\tissues[_issueId].exists\n      AND \t\t\tissues[_issueId].exists\n      ISZERO \t\t\t!issues[_issueId].exists\n      PUSH [tag] 169\t\t\trequire(!issues[_issueId].exis...\n      JUMPI \t\t\trequire(!issues[_issueId].exis...\n      PUSH 40\t\t\trequire(!issues[_issueId].exis...\n      MLOAD \t\t\trequire(!issues[_issueId].exis...\n      PUSH 8C379A000000000000000000000000000000000000000000000000000000000\t\t\trequire(!issues[_issueId].exis...\n      DUP2 \t\t\trequire(!issues[_issueId].exis...\n      MSTORE \t\t\trequire(!issues[_issueId].exis...\n      PUSH 4\t\t\trequire(!issues[_issueId].exis...\n      ADD \t\t\trequire(!issues[_issueId].exis...\n      PUSH [tag] 170\t\t\trequire(!issues[_issueId].exis...\n      SWAP1 \t\t\trequire(!issues[_issueId].exis...\n      PUSH [tag] 171\t\t\trequire(!issues[_issueId].exis...\n      JUMP [in]\t\t\trequire(!issues[_issueId].exis...\n    tag 170\t\t\trequire(!issues[_issueId].exis...\n      JUMPDEST \t\t\trequire(!issues[_issueId].exis...\n      PUSH 40\t\t\trequire(!issues[_issueId].exis...\n      MLOAD \t\t\trequire(!issues[_issueId].exis...\n      DUP1 \t\t\trequire(!issues[_issueId].exis...\n      SWAP2 \t\t\trequire(!issues[_issueId].exis...\n      SUB \t\t\trequire(!issues[_issueId].exis...\n      SWAP1 \t\t\trequire(!issues[_issueId].exis...\n      REVERT \t\t\trequire(!issues[_issueId].exis...\n    tag 169\t\t\trequire(!issues[_issueId].exis...\n      JUMPDEST \t\t\trequire(!issues[_issueId].exis...\n      PUSH 40\t\t\tIssue({\\r\\n            issueId...\n      MLOAD \t\t\tIssue({\\r\\n            issueId...\n      DUP1 \t\t\tIssue({\\r\\n            issueId...\n      PUSH C0\t\t\tIssue({\\r\\n            issueId...\n      ADD \t\t\tIssue({\\r\\n            issueId...\n      PUSH 40\t\t\tIssue({\\r\\n            issueId...\n      MSTORE \t\t\tIssue({\\r\\n            issueId...\n      DUP1 \t\t\tIssue({\\r\\n            issueId...\n      DUP4 \t\t\t_issueId\n      DUP2 \t\t\tIssue({\\r\\n            issueId...\n      MSTORE \t\t\tIssue({\\r\\n            issueId...\n      PUSH 20\t\t\tIssue({\\r\\n            issueId...\n      ADD \t\t\tIssue({\\r\\n            issueId...\n      DUP3 \t\t\t_title\n      DUP2 \t\t\tIssue({\\r\\n            issueId...\n      MSTORE \t\t\tIssue({\\r\\n            issueId...\n      PUSH 20\t\t\tIssue({\\r\\n            issueId...\n      ADD \t\t\tIssue({\\r\\n            issueId...\n      CALLER \t\t\tmsg.sender\n      PUSH FFFFFFFFFFFFFFFFFFFFFFFFFFFFFFFFFFFFFFFF\t\t\tIssue({\\r\\n            issueId...\n      AND \t\t\tIssue({\\r\\n            issueId...\n      DUP2 \t\t\tIssue({\\r\\n            issueId...\n      MSTORE \t\t\tIssue({\\r\\n            issueId...\n      PUSH 20\t\t\tIssue({\\r\\n            issueId...\n      ADD \t\t\tIssue({\\r\\n            issueId...\n      TIMESTAMP \t\t\tblock.timestamp\n      DUP2 \t\t\tIssue({\\r\\n            issueId...\n      MSTORE \t\t\tIssue({\\r\\n            issueId...\n      PUSH 20\t\t\tIssue({\\r\\n            issueId...\n      ADD \t\t\tIssue({\\r\\n            issueId...\n      PUSH 0\t\t\t0\n      DUP2 \t\t\tIssue({\\r\\n            issueId...\n      MSTORE \t\t\tIssue({\\r\\n            issueId...\n      PUSH 20\t\t\tIssue({\\r\\n            issueId...\n      ADD \t\t\tIssue({\\r\\n            issueId...\n      PUSH 1\t\t\ttrue\n      ISZERO \t\t\tIssue({\\r\\n            issueId...\n      ISZERO \t\t\tIssue({\\r\\n            issueId...\n      DUP2 \t\t\tIssue({\\r\\n            issueId...\n      MSTORE \t\t\tIssue({\\r\\n            issueId...\n      POP \t\t\tIssue({\\r\\n            issueId...\n      PUSH 0\t\t\tissues\n      DUP4 \t\t\t_issueId\n      PUSH 40\t\t\tissues[_issueId]\n      MLOAD \t\t\tissues[_issueId]\n      PUSH [tag] 172\t\t\tissues[_issueId]\n      SWAP2 \t\t\tissues[_issueId]\n      SWAP1 \t\t\tissues[_issueId]\n      PUSH [tag] 91\t\t\tissues[_issueId]\n      JUMP [in]\t\t\tissues[_issueId]\n    tag 172\t\t\tissues[_issueId]\n      JUMPDEST \t\t\tissues[_issueId]\n      SWAP1 \t\t\tissues[_issueId]\n      DUP2 \t\t\tissues[_issueId]\n      MSTORE \t\t\tissues[_issueId]\n      PUSH 20\t\t\tissues[_issueId]\n      ADD \t\t\tissues[_issueId]\n      PUSH 40\t\t\tissues[_issueId]\n      MLOAD \t\t\tissues[_issueId]\n      DUP1 \t\t\tissues[_issueId]\n      SWAP2 \t\t\tissues[_issueId]\n      SUB \t\t\tissues[_issueId]\n      SWAP1 \t\t\tissues[_issueId]\n      KECCAK256 \t\t\tissues[_issueId]\n      PUSH 0\t\t\tissues[_issueId] = Issue({\\r\\n...\n      DUP3 \t\t\tissues[_issueId] = Issue({\\r\\n...\n      ADD \t\t\tissues[_issueId] = Issue({\\r\\n...\n      MLOAD \t\t\tissues[_issueId] = Issue({\\r\\n...\n      DUP2 \t\t\tissues[_issueId] = Issue({\\r\\n...\n      PUSH 0\t\t\tissues[_issueId] = Issue({\\r\\n...\n      ADD \t\t\tissues[_issueId] = Issue({\\r\\n...\n      SWAP1 \t\t\tissues[_issueId] = Issue({\\r\\n...\n      DUP1 \t\t\tissues[_issueId] = Issue({\\r\\n...\n      MLOAD \t\t\tissues[_issueId] = Issue({\\r\\n...\n      SWAP1 \t\t\tissues[_issueId] = Issue({\\r\\n...\n      PUSH 20\t\t\tissues[_issueId] = Issue({\\r\\n...\n      ADD \t\t\tissues[_issueId] = Issue({\\r\\n...\n      SWAP1 \t\t\tissues[_issueId] = Issue({\\r\\n...\n      PUSH [tag] 173\t\t\tissues[_issueId] = Issue({\\r\\n...\n      SWAP3 \t\t\tissues[_issueId] = Issue({\\r\\n...\n      SWAP2 \t\t\tissues[_issueId] = Issue({\\r\\n...\n      SWAP1 \t\t\tissues[_issueId] = Issue({\\r\\n...\n      PUSH [tag] 102\t\t\tissues[_issueId] = Issue({\\r\\n...\n      JUMP [in]\t\t\tissues[_issueId] = Issue({\\r\\n...\n    tag 173\t\t\tissues[_issueId] = Issue({\\r\\n...\n      JUMPDEST \t\t\tissues[_issueId] = Issue({\\r\\n...\n      POP \t\t\tissues[_issueId] = Issue({\\r\\n...\n      PUSH 20\t\t\tissues[_issueId] = Issue({\\r\\n...\n      DUP3 \t\t\tissues[_issueId] = Issue({\\r\\n...\n      ADD \t\t\tissues[_issueId] = Issue({\\r\\n...\n      MLOAD \t\t\tissues[_issueId] = Issue({\\r\\n...\n      DUP2 \t\t\tissues[_issueId] = Issue({\\r\\n...\n      PUSH 1\t\t\tissues[_issueId] = Issue({\\r\\n...\n      ADD \t\t\tissues[_issueId] = Issue({\\r\\n...\n      SWAP1 \t\t\tissues[_issueId] = Issue({\\r\\n...\n      DUP1 \t\t\tissues[_issueId] = Issue({\\r\\n...\n      MLOAD \t\t\tissues[_issueId] = Issue({\\r\\n...\n      SWAP1 \t\t\tissues[_issueId] = Issue({\\r\\n...\n      PUSH 20\t\t\tissues[_issueId] = Issue({\\r\\n...\n      ADD \t\t\tissues[_issueId] = Issue({\\r\\n...\n      SWAP1 \t\t\tissues[_issueId] = Issue({\\r\\n...\n      PUSH [tag] 174\t\t\tissues[_issueId] = Issue({\\r\\n...\n      SWAP3 \t\t\tissues[_issueId] = Issue({\\r\\n...\n      SWAP2 \t\t\tissues[_issueId] = Issue({\\r\\n...\n      SWAP1 \t\t\tissues[_issueId] = Issue({\\r\\n...\n      PUSH [tag] 102\t\t\tissues[_issueId] = Issue({\\r\\n...\n      JUMP [in]\t\t\tissues[_issueId] = Issue({\\r\\n...\n    tag 174\t\t\tissues[_issueId] = Issue({\\r\\n...\n      JUMPDEST \t\t\tissues[_issueId] = Issue({\\r\\n...\n      POP \t\t\tissues[_issueId] = Issue({\\r\\n...\n      PUSH 40\t\t\tissues[_issueId] = Issue({\\r\\n...\n      DUP3 \t\t\tissues[_issueId] = Issue({\\r\\n...\n      ADD \t\t\tissues[_issueId] = Issue({\\r\\n...\n      MLOAD \t\t\tissues[_issueId] = Issue({\\r\\n...\n      DUP2 \t\t\tissues[_issueId] = Issue({\\r\\n...\n      PUSH 2\t\t\tissues[_issueId] = Issue({\\r\\n...\n      ADD \t\t\tissues[_issueId] = Issue({\\r\\n...\n      PUSH 0\t\t\tissues[_issueId] = Issue({\\r\\n...\n      PUSH 100\t\t\tissues[_issueId] = Issue({\\r\\n...\n      EXP \t\t\tissues[_issueId] = Issue({\\r\\n...\n      DUP2 \t\t\tissues[_issueId] = Issue({\\r\\n...\n      SLOAD \t\t\tissues[_issueId] = Issue({\\r\\n...\n      DUP2 \t\t\tissues[_issueId] = Issue({\\r\\n...\n      PUSH FFFFFFFFFFFFFFFFFFFFFFFFFFFFFFFFFFFFFFFF\t\t\tissues[_issueId] = Issue({\\r\\n...\n      MUL \t\t\tissues[_issueId] = Issue({\\r\\n...\n      NOT \t\t\tissues[_issueId] = Issue({\\r\\n...\n      AND \t\t\tissues[_issueId] = Issue({\\r\\n...\n      SWAP1 \t\t\tissues[_issueId] = Issue({\\r\\n...\n      DUP4 \t\t\tissues[_issueId] = Issue({\\r\\n...\n      PUSH FFFFFFFFFFFFFFFFFFFFFFFFFFFFFFFFFFFFFFFF\t\t\tissues[_issueId] = Issue({\\r\\n...\n      AND \t\t\tissues[_issueId] = Issue({\\r\\n...\n      MUL \t\t\tissues[_issueId] = Issue({\\r\\n...\n      OR \t\t\tissues[_issueId] = Issue({\\r\\n...\n      SWAP1 \t\t\tissues[_issueId] = Issue({\\r\\n...\n      SSTORE \t\t\tissues[_issueId] = Issue({\\r\\n...\n      POP \t\t\tissues[_issueId] = Issue({\\r\\n...\n      PUSH 60\t\t\tissues[_issueId] = Issue({\\r\\n...\n      DUP3 \t\t\tissues[_issueId] = Issue({\\r\\n...\n      ADD \t\t\tissues[_issueId] = Issue({\\r\\n...\n      MLOAD \t\t\tissues[_issueId] = Issue({\\r\\n...\n      DUP2 \t\t\tissues[_issueId] = Issue({\\r\\n...\n      PUSH 3\t\t\tissues[_issueId] = Issue({\\r\\n...\n      ADD \t\t\tissues[_issueId] = Issue({\\r\\n...\n      SSTORE \t\t\tissues[_issueId] = Issue({\\r\\n...\n      PUSH 80\t\t\tissues[_issueId] = Issue({\\r\\n...\n      DUP3 \t\t\tissues[_issueId] = Issue({\\r\\n...\n      ADD \t\t\tissues[_issueId] = Issue({\\r\\n...\n      MLOAD \t\t\tissues[_issueId] = Issue({\\r\\n...\n      DUP2 \t\t\tissues[_issueId] = Issue({\\r\\n...\n      PUSH 4\t\t\tissues[_issueId] = Issue({\\r\\n...\n      ADD \t\t\tissues[_issueId] = Issue({\\r\\n...\n      SSTORE \t\t\tissues[_issueId] = Issue({\\r\\n...\n      PUSH A0\t\t\tissues[_issueId] = Issue({\\r\\n...\n      DUP3 \t\t\tissues[_issueId] = Issue({\\r\\n...\n      ADD \t\t\tissues[_issueId] = Issue({\\r\\n...\n      MLOAD \t\t\tissues[_issueId] = Issue({\\r\\n...\n      DUP2 \t\t\tissues[_issueId] = Issue({\\r\\n...\n      PUSH 5\t\t\tissues[_issueId] = Issue({\\r\\n...\n      ADD \t\t\tissues[_issueId] = Issue({\\r\\n...\n      PUSH 0\t\t\tissues[_issueId] = Issue({\\r\\n...\n      PUSH 100\t\t\tissues[_issueId] = Issue({\\r\\n...\n      EXP \t\t\tissues[_issueId] = Issue({\\r\\n...\n      DUP2 \t\t\tissues[_issueId] = Issue({\\r\\n...\n      SLOAD \t\t\tissues[_issueId] = Issue({\\r\\n...\n      DUP2 \t\t\tissues[_issueId] = Issue({\\r\\n...\n      PUSH FF\t\t\tissues[_issueId] = Issue({\\r\\n...\n      MUL \t\t\tissues[_issueId] = Issue({\\r\\n...\n      NOT \t\t\tissues[_issueId] = Issue({\\r\\n...\n      AND \t\t\tissues[_issueId] = Issue({\\r\\n...\n      SWAP1 \t\t\tissues[_issueId] = Issue({\\r\\n...\n      DUP4 \t\t\tissues[_issueId] = Issue({\\r\\n...\n      ISZERO \t\t\tissues[_issueId] = Issue({\\r\\n...\n      ISZERO \t\t\tissues[_issueId] = Issue({\\r\\n...\n      MUL \t\t\tissues[_issueId] = Issue({\\r\\n...\n      OR \t\t\tissues[_issueId] = Issue({\\r\\n...\n      SWAP1 \t\t\tissues[_issueId] = Issue({\\r\\n...\n      SSTORE \t\t\tissues[_issueId] = Issue({\\r\\n...\n      POP \t\t\tissues[_issueId] = Issue({\\r\\n...\n      SWAP1 \t\t\tissues[_issueId] = Issue({\\r\\n...\n      POP \t\t\tissues[_issueId] = Issue({\\r\\n...\n      POP \t\t\tissues[_issueId] = Issue({\\r\\n...\n      PUSH 4\t\t\tallIssueIds\n      DUP3 \t\t\t_issueId\n      SWAP1 \t\t\tallIssueIds.push(_issueId)\n      DUP1 \t\t\tallIssueIds.push(_issueId)\n      PUSH 1\t\t\tallIssueIds.push(_issueId)\n      DUP2 \t\t\tallIssueIds.push(_issueId)\n      SLOAD \t\t\tallIssueIds.push(_issueId)\n      ADD \t\t\tallIssueIds.push(_issueId)\n      DUP1 \t\t\tallIssueIds.push(_issueId)\n      DUP3 \t\t\tallIssueIds.push(_issueId)\n      SSTORE \t\t\tallIssueIds.push(_issueId)\n      DUP1 \t\t\tallIssueIds.push(_issueId)\n      SWAP2 \t\t\tallIssueIds.push(_issueId)\n      POP \t\t\tallIssueIds.push(_issueId)\n      POP \t\t\tallIssueIds.push(_issueId)\n      PUSH 1\t\t\tallIssueIds.push(_issueId)\n      SWAP1 \t\t\tallIssueIds.push(_issueId)\n      SUB \t\t\tallIssueIds.push(_issueId)\n      SWAP1 \t\t\tallIssueIds.push(_issueId)\n      PUSH 0\t\t\tallIssueIds.push(_issueId)\n      MSTORE \t\t\tallIssueIds.push(_issueId)\n      PUSH 20\t\t\tallIssueIds.push(_issueId)\n      PUSH 0\t\t\tallIssueIds.push(_issueId)\n      KECCAK256 \t\t\tallIssueIds.push(_issueId)\n      ADD \t\t\tallIssueIds.push(_issueId)\n      PUSH 0\t\t\tallIssueIds.push(_issueId)\n      SWAP1 \t\t\tallIssueIds.push(_issueId)\n      SWAP2 \t\t\tallIssueIds.push(_issueId)\n      SWAP1 \t\t\tallIssueIds.push(_issueId)\n      SWAP2 \t\t\tallIssueIds.push(_issueId)\n      SWAP1 \t\t\tallIssueIds.push(_issueId)\n      SWAP2 \t\t\tallIssueIds.push(_issueId)\n      POP \t\t\tallIssueIds.push(_issueId)\n      SWAP1 \t\t\tallIssueIds.push(_issueId)\n      DUP1 \t\t\tallIssueIds.push(_issueId)\n      MLOAD \t\t\tallIssueIds.push(_issueId)\n      SWAP1 \t\t\tallIssueIds.push(_issueId)\n      PUSH 20\t\t\tallIssueIds.push(_issueId)\n      ADD \t\t\tallIssueIds.push(_issueId)\n      SWAP1 \t\t\tallIssueIds.push(_issueId)\n      PUSH [tag] 176\t\t\tallIssueIds.push(_issueId)\n      SWAP3 \t\t\tallIssueIds.push(_issueId)\n      SWAP2 \t\t\tallIssueIds.push(_issueId)\n      SWAP1 \t\t\tallIssueIds.push(_issueId)\n      PUSH [tag] 102\t\t\tallIssueIds.push(_issueId)\n      JUMP [in]\t\t\tallIssueIds.push(_issueId)\n    tag 176\t\t\tallIssueIds.push(_issueId)\n      JUMPDEST \t\t\tallIssueIds.push(_issueId)\n      POP \t\t\tallIssueIds.push(_issueId)\n      PUSH 2\t\t\tuserIssues\n      PUSH 0\t\t\tuserIssues[msg.sender]\n      CALLER \t\t\tmsg.sender\n      PUSH FFFFFFFFFFFFFFFFFFFFFFFFFFFFFFFFFFFFFFFF\t\t\tuserIssues[msg.sender]\n      AND \t\t\tuserIssues[msg.sender]\n      PUSH FFFFFFFFFFFFFFFFFFFFFFFFFFFFFFFFFFFFFFFF\t\t\tuserIssues[msg.sender]\n      AND \t\t\tuserIssues[msg.sender]\n      DUP2 \t\t\tuserIssues[msg.sender]\n      MSTORE \t\t\tuserIssues[msg.sender]\n      PUSH 20\t\t\tuserIssues[msg.sender]\n      ADD \t\t\tuserIssues[msg.sender]\n      SWAP1 \t\t\tuserIssues[msg.sender]\n      DUP2 \t\t\tuserIssues[msg.sender]\n      MSTORE \t\t\tuserIssues[msg.sender]\n      PUSH 20\t\t\tuserIssues[msg.sender]\n      ADD \t\t\tuserIssues[msg.sender]\n      PUSH 0\t\t\tuserIssues[msg.sender]\n      KECCAK256 \t\t\tuserIssues[msg.sender]\n      DUP3 \t\t\t_issueId\n      SWAP1 \t\t\tuserIssues[msg.sender].push(_i...\n      DUP1 \t\t\tuserIssues[msg.sender].push(_i...\n      PUSH 1\t\t\tuserIssues[msg.sender].push(_i...\n      DUP2 \t\t\tuserIssues[msg.sender].push(_i...\n      SLOAD \t\t\tuserIssues[msg.sender].push(_i...\n      ADD \t\t\tuserIssues[msg.sender].push(_i...\n      DUP1 \t\t\tuserIssues[msg.sender].push(_i...\n      DUP3 \t\t\tuserIssues[msg.sender].push(_i...\n      SSTORE \t\t\tuserIssues[msg.sender].push(_i...\n      DUP1 \t\t\tuserIssues[msg.sender].push(_i...\n      SWAP2 \t\t\tuserIssues[msg.sender].push(_i...\n      POP \t\t\tuserIssues[msg.sender].push(_i...\n      POP \t\t\tuserIssues[msg.sender].push(_i...\n      PUSH 1\t\t\tuserIssues[msg.sender].push(_i...\n      SWAP1 \t\t\tuserIssues[msg.sender].push(_i...\n      SUB \t\t\tuserIssues[msg.sender].push(_i...\n      SWAP1 \t\t\tuserIssues[msg.sender].push(_i...\n      PUSH 0\t\t\tuserIssues[msg.sender].push(_i...\n      MSTORE \t\t\tuserIssues[msg.sender].push(_i...\n      PUSH 20\t\t\tuserIssues[msg.sender].push(_i...\n      PUSH 0\t\t\tuserIssues[msg.sender].push(_i...\n      KECCAK256 \t\t\tuserIssues[msg.sender].push(_i...\n      ADD \t\t\tuserIssues[msg.sender].push(_i...\n      PUSH 0\t\t\tuserIssues[msg.sender].push(_i...\n      SWAP1 \t\t\tuserIssues[msg.sender].push(_i...\n      SWAP2 \t\t\tuserIssues[msg.sender].push(_i...\n      SWAP1 \t\t\tuserIssues[msg.sender].push(_i...\n      SWAP2 \t\t\tuserIssues[msg.sender].push(_i...\n      SWAP1 \t\t\tuserIssues[msg.sender].push(_i...\n      SWAP2 \t\t\tuserIssues[msg.sender].push(_i...\n      POP \t\t\tuserIssues[msg.sender].push(_i...\n      SWAP1 \t\t\tuserIssues[msg.sender].push(_i...\n      DUP1 \t\t\tuserIssues[msg.sender].push(_i...\n      MLOAD \t\t\tuserIssues[msg.sender].push(_i...\n      SWAP1 \t\t\tuserIssues[msg.sender].push(_i...\n      PUSH 20\t\t\tuserIssues[msg.sender].push(_i...\n      ADD \t\t\tuserIssues[msg.sender].push(_i...\n      SWAP1 \t\t\tuserIssues[msg.sender].push(_i...\n      PUSH [tag] 178\t\t\tuserIssues[msg.sender].push(_i...\n      SWAP3 \t\t\tuserIssues[msg.sender].push(_i...\n      SWAP2 \t\t\tuserIssues[msg.sender].push(_i...\n      SWAP1 \t\t\tuserIssues[msg.sender].push(_i...\n      PUSH [tag] 102\t\t\tuserIssues[msg.sender].push(_i...\n      JUMP [in]\t\t\tuserIssues[msg.sender].push(_i...\n    tag 178\t\t\tuserIssues[msg.sender].push(_i...\n      JUMPDEST \t\t\tuserIssues[msg.sender].push(_i...\n      POP \t\t\tuserIssues[msg.sender].push(_i...\n      CALLER \t\t\tmsg.sender\n      PUSH FFFFFFFFFFFFFFFFFFFFFFFFFFFFFFFFFFFFFFFF\t\t\tIssueRecorded(_issueId, _title...\n      AND \t\t\tIssueRecorded(_issueId, _title...\n      DUP3 \t\t\t_issueId\n      PUSH 40\t\t\tIssueRecorded(_issueId, _title...\n      MLOAD \t\t\tIssueRecorded(_issueId, _title...\n      PUSH [tag] 179\t\t\tIssueRecorded(_issueId, _title...\n      SWAP2 \t\t\tIssueRecorded(_issueId, _title...\n      SWAP1 \t\t\tIssueRecorded(_issueId, _title...\n      PUSH [tag] 91\t\t\tIssueRecorded(_issueId, _title...\n      JUMP [in]\t\t\tIssueRecorded(_issueId, _title...\n    tag 179\t\t\tIssueRecorded(_issueId, _title...\n      JUMPDEST \t\t\tIssueRecorded(_issueId, _title...\n      PUSH 40\t\t\tIssueRecorded(_issueId, _title...\n      MLOAD \t\t\tIssueRecorded(_issueId, _title...\n      DUP1 \t\t\tIssueRecorded(_issueId, _title...\n      SWAP2 \t\t\tIssueRecorded(_issueId, _title...\n      SUB \t\t\tIssueRecorded(_issueId, _title...\n      SWAP1 \t\t\tIssueRecorded(_issueId, _title...\n      KECCAK256 \t\t\tIssueRecorded(_issueId, _title...\n      PUSH 8D9E646B7BE50523DBF45D232DEA79BF57ED2EA290147F46D64D74918BCCE742\t\t\tIssueRecorded(_issueId, _title...\n      DUP4 \t\t\t_title\n      TIMESTAMP \t\t\tblock.timestamp\n      PUSH 40\t\t\tIssueRecorded(_issueId, _title...\n      MLOAD \t\t\tIssueRecorded(_issueId, _title...\n      PUSH [tag] 180\t\t\tIssueRecorded(_issueId, _title...\n      SWAP3 \t\t\tIssueRecorded(_issueId, _title...\n      SWAP2 \t\t\tIssueRecorded(_issueId, _title...\n      SWAP1 \t\t\tIssueRecorded(_issueId, _title...\n      PUSH [tag] 181\t\t\tIssueRecorded(_issueId, _title...\n      JUMP [in]\t\t\tIssueRecorded(_issueId, _title...\n    tag 180\t\t\tIssueRecorded(_issueId, _title...\n      JUMPDEST \t\t\tIssueRecorded(_issueId, _title...\n      PUSH 40\t\t\tIssueRecorded(_issueId, _title...\n      MLOAD \t\t\tIssueRecorded(_issueId, _title...\n      DUP1 \t\t\tIssueRecorded(_issueId, _title...\n      SWAP2 \t\t\tIssueRecorded(_issueId, _title...\n      SUB \t\t\tIssueRecorded(_issueId, _title...\n      SWAP1 \t\t\tIssueRecorded(_issueId, _title...\n      LOG3 \t\t\tIssueRecorded(_issueId, _title...\n      POP \t\t\tfunction recordIssue(\\r\\n     ...\n      POP \t\t\tfunction recordIssue(\\r\\n     ...\n      JUMP [out]\t\t\tfunction recordIssue(\\r\\n     ...\n    tag 71\t\t\tfunction getAllIssues(uint256 ...\n      JUMPDEST \t\t\tfunction getAllIssues(uint256 ...\n      PUSH 60\t\t\tstring[] memory\n      PUSH 4\t\t\tallIssueIds\n      DUP1 \t\t\tallIssueIds.length\n      SLOAD \t\t\tallIssueIds.length\n      SWAP1 \t\t\tallIssueIds.length\n      POP \t\t\tallIssueIds.length\n      DUP4 \t\t\t_offset\n      LT \t\t\t_offset < allIssueIds.length\n      PUSH [tag] 183\t\t\trequire(_offset < allIssueIds....\n      JUMPI \t\t\trequire(_offset < allIssueIds....\n      PUSH 40\t\t\trequire(_offset < allIssueIds....\n      MLOAD \t\t\trequire(_offset < allIssueIds....\n      PUSH 8C379A000000000000000000000000000000000000000000000000000000000\t\t\trequire(_offset < allIssueIds....\n      DUP2 \t\t\trequire(_offset < allIssueIds....\n      MSTORE \t\t\trequire(_offset < allIssueIds....\n      PUSH 4\t\t\trequire(_offset < allIssueIds....\n      ADD \t\t\trequire(_offset < allIssueIds....\n      PUSH [tag] 184\t\t\trequire(_offset < allIssueIds....\n      SWAP1 \t\t\trequire(_offset < allIssueIds....\n      PUSH [tag] 185\t\t\trequire(_offset < allIssueIds....\n      JUMP [in]\t\t\trequire(_offset < allIssueIds....\n    tag 184\t\t\trequire(_offset < allIssueIds....\n      JUMPDEST \t\t\trequire(_offset < allIssueIds....\n      PUSH 40\t\t\trequire(_offset < allIssueIds....\n      MLOAD \t\t\trequire(_offset < allIssueIds....\n      DUP1 \t\t\trequire(_offset < allIssueIds....\n      SWAP2 \t\t\trequire(_offset < allIssueIds....\n      SUB \t\t\trequire(_offset < allIssueIds....\n      SWAP1 \t\t\trequire(_offset < allIssueIds....\n      REVERT \t\t\trequire(_offset < allIssueIds....\n    tag 183\t\t\trequire(_offset < allIssueIds....\n      JUMPDEST \t\t\trequire(_offset < allIssueIds....\n      PUSH 0\t\t\tuint256 end\n      DUP3 \t\t\t_limit\n      DUP5 \t\t\t_offset\n      PUSH [tag] 186\t\t\t_offset + _limit\n      SWAP2 \t\t\t_offset + _limit\n      SWAP1 \t\t\t_offset + _limit\n      PUSH [tag] 187\t\t\t_offset + _limit\n      JUMP [in]\t\t\t_offset + _limit\n    tag 186\t\t\t_offset + _limit\n      JUMPDEST \t\t\t_offset + _limit\n      SWAP1 \t\t\tuint256 end = _offset + _limit\n      POP \t\t\tuint256 end = _offset + _limit\n      PUSH 4\t\t\tallIssueIds\n      DUP1 \t\t\tallIssueIds.length\n      SLOAD \t\t\tallIssueIds.length\n      SWAP1 \t\t\tallIssueIds.length\n      POP \t\t\tallIssueIds.length\n      DUP2 \t\t\tend\n      GT \t\t\tend > allIssueIds.length\n      ISZERO \t\t\tif (end > allIssueIds.length) ...\n      PUSH [tag] 188\t\t\tif (end > allIssueIds.length) ...\n      JUMPI \t\t\tif (end > allIssueIds.length) ...\n      PUSH 4\t\t\tallIssueIds\n      DUP1 \t\t\tallIssueIds.length\n      SLOAD \t\t\tallIssueIds.length\n      SWAP1 \t\t\tallIssueIds.length\n      POP \t\t\tallIssueIds.length\n      SWAP1 \t\t\tend = allIssueIds.length\n      POP \t\t\tend = allIssueIds.length\n    tag 188\t\t\tif (end > allIssueIds.length) ...\n      JUMPDEST \t\t\tif (end > allIssueIds.length) ...\n      PUSH 0\t\t\tstring[] memory result\n      DUP5 \t\t\t_offset\n      DUP3 \t\t\tend\n      PUSH [tag] 189\t\t\tend - _offset\n      SWAP2 \t\t\tend - _offset\n      SWAP1 \t\t\tend - _offset\n      PUSH [tag] 190\t\t\tend - _offset\n      JUMP [in]\t\t\tend - _offset\n    tag 189\t\t\tend - _offset\n      JUMPDEST \t\t\tend - _offset\n      PUSH FFFFFFFFFFFFFFFF\t\t\tnew string[](end - _offset)\n      DUP2 \t\t\tnew string[](end - _offset)\n      GT \t\t\tnew string[](end - _offset)\n      ISZERO \t\t\tnew string[](end - _offset)\n      PUSH [tag] 191\t\t\tnew string[](end - _offset)\n      JUMPI \t\t\tnew string[](end - _offset)\n      PUSH 4E487B7100000000000000000000000000000000000000000000000000000000\t\t\tnew string[](end - _offset)\n      PUSH 0\t\t\tnew string[](end - _offset)\n      MSTORE \t\t\tnew string[](end - _offset)\n      PUSH 41\t\t\tnew string[](end - _offset)\n      PUSH 4\t\t\tnew string[](end - _offset)\n      MSTORE \t\t\tnew string[](end - _offset)\n      PUSH 24\t\t\tnew string[](end - _offset)\n      PUSH 0\t\t\tnew string[](end - _offset)\n      REVERT \t\t\tnew string[](end - _offset)\n    tag 191\t\t\tnew string[](end - _offset)\n      JUMPDEST \t\t\tnew string[](end - _offset)\n      PUSH 40\t\t\tnew string[](end - _offset)\n      MLOAD \t\t\tnew string[](end - _offset)\n      SWAP1 \t\t\tnew string[](end - _offset)\n      DUP1 \t\t\tnew string[](end - _offset)\n      DUP3 \t\t\tnew string[](end - _offset)\n      MSTORE \t\t\tnew string[](end - _offset)\n      DUP1 \t\t\tnew string[](end - _offset)\n      PUSH 20\t\t\tnew string[](end - _offset)\n      MUL \t\t\tnew string[](end - _offset)\n      PUSH 20\t\t\tnew string[](end - _offset)\n      ADD \t\t\tnew string[](end - _offset)\n      DUP3 \t\t\tnew string[](end - _offset)\n      ADD \t\t\tnew string[](end - _offset)\n      PUSH 40\t\t\tnew string[](end - _offset)\n      MSTORE \t\t\tnew string[](end - _offset)\n      DUP1 \t\t\tnew string[](end - _offset)\n      ISZERO \t\t\tnew string[](end - _offset)\n      PUSH [tag] 192\t\t\tnew string[](end - _offset)\n      JUMPI \t\t\tnew string[](end - _offset)\n      DUP2 \t\t\tnew string[](end - _offset)\n      PUSH 20\t\t\tnew string[](end - _offset)\n      ADD \t\t\tnew string[](end - _offset)\n    tag 193\t\t\tnew string[](end - _offset)\n      JUMPDEST \t\t\tnew string[](end - _offset)\n      PUSH 60\t\t\tnew string[](end - _offset)\n      DUP2 \t\t\tnew string[](end - _offset)\n      MSTORE \t\t\tnew string[](end - _offset)\n      PUSH 20\t\t\tnew string[](end - _offset)\n      ADD \t\t\tnew string[](end - _offset)\n      SWAP1 \t\t\tnew string[](end - _offset)\n      PUSH 1\t\t\tnew string[](end - _offset)\n      SWAP1 \t\t\tnew string[](end - _offset)\n      SUB \t\t\tnew string[](end - _offset)\n      SWAP1 \t\t\tnew string[](end - _offset)\n      DUP2 \t\t\tnew string[](end - _offset)\n      PUSH [tag] 193\t\t\tnew string[](end - _offset)\n      JUMPI \t\t\tnew string[](end - _offset)\n      SWAP1 \t\t\tnew string[](end - _offset)\n      POP \t\t\tnew string[](end - _offset)\n    tag 192\t\t\tnew string[](end - _offset)\n      JUMPDEST \t\t\tnew string[](end - _offset)\n      POP \t\t\tnew string[](end - _offset)\n      SWAP1 \t\t\tstring[] memory result = new s...\n      POP \t\t\tstring[] memory result = new s...\n      PUSH 0\t\t\tuint256 i\n      DUP6 \t\t\t_offset\n      SWAP1 \t\t\tuint256 i = _offset\n      POP \t\t\tuint256 i = _offset\n    tag 194\t\t\tfor (uint256 i = _offset; i < ...\n      JUMPDEST \t\t\tfor (uint256 i = _offset; i < ...\n      DUP3 \t\t\tend\n      DUP2 \t\t\ti\n      LT \t\t\ti < end\n      ISZERO \t\t\tfor (uint256 i = _offset; i < ...\n      PUSH [tag] 195\t\t\tfor (uint256 i = _offset; i < ...\n      JUMPI \t\t\tfor (uint256 i = _offset; i < ...\n      PUSH 4\t\t\tallIssueIds\n      DUP2 \t\t\ti\n      DUP2 \t\t\tallIssueIds[i]\n      SLOAD \t\t\tallIssueIds[i]\n      DUP2 \t\t\tallIssueIds[i]\n      LT \t\t\tallIssueIds[i]\n      PUSH [tag] 197\t\t\tallIssueIds[i]\n      JUMPI \t\t\tallIssueIds[i]\n      PUSH 4E487B7100000000000000000000000000000000000000000000000000000000\t\t\tallIssueIds[i]\n      PUSH 0\t\t\tallIssueIds[i]\n      MSTORE \t\t\tallIssueIds[i]\n      PUSH 32\t\t\tallIssueIds[i]\n      PUSH 4\t\t\tallIssueIds[i]\n      MSTORE \t\t\tallIssueIds[i]\n      PUSH 24\t\t\tallIssueIds[i]\n      PUSH 0\t\t\tallIssueIds[i]\n      REVERT \t\t\tallIssueIds[i]\n    tag 197\t\t\tallIssueIds[i]\n      JUMPDEST \t\t\tallIssueIds[i]\n      SWAP1 \t\t\tallIssueIds[i]\n      PUSH 0\t\t\tallIssueIds[i]\n      MSTORE \t\t\tallIssueIds[i]\n      PUSH 20\t\t\tallIssueIds[i]\n      PUSH 0\t\t\tallIssueIds[i]\n      KECCAK256 \t\t\tallIssueIds[i]\n      ADD \t\t\tallIssueIds[i]\n      DUP1 \t\t\tresult[i - _offset] = allIssue...\n      SLOAD \t\t\tresult[i - _offset] = allIssue...\n      PUSH [tag] 199\t\t\tresult[i - _offset] = allIssue...\n      SWAP1 \t\t\tresult[i - _offset] = allIssue...\n      PUSH [tag] 119\t\t\tresult[i - _offset] = allIssue...\n      JUMP [in]\t\t\tresult[i - _offset] = allIssue...\n    tag 199\t\t\tresult[i - _offset] = allIssue...\n      JUMPDEST \t\t\tresult[i - _offset] = allIssue...\n      DUP1 \t\t\tresult[i - _offset] = allIssue...\n      PUSH 1F\t\t\tresult[i - _offset] = allIssue...\n      ADD \t\t\tresult[i - _offset] = allIssue...\n      PUSH 20\t\t\tresult[i - _offset] = allIssue...\n      DUP1 \t\t\tresult[i - _offset] = allIssue...\n      SWAP2 \t\t\tresult[i - _offset] = allIssue...\n      DIV \t\t\tresult[i - _offset] = allIssue...\n      MUL \t\t\tresult[i - _offset] = allIssue...\n      PUSH 20\t\t\tresult[i - _offset] = allIssue...\n      ADD \t\t\tresult[i - _offset] = allIssue...\n      PUSH 40\t\t\tresult[i - _offset] = allIssue...\n      MLOAD \t\t\tresult[i - _offset] = allIssue...\n      SWAP1 \t\t\tresult[i - _offset] = allIssue...\n      DUP2 \t\t\tresult[i - _offset] = allIssue...\n      ADD \t\t\tresult[i - _offset] = allIssue...\n      PUSH 40\t\t\tresult[i - _offset] = allIssue...\n      MSTORE \t\t\tresult[i - _offset] = allIssue...\n      DUP1 \t\t\tresult[i - _offset] = allIssue...\n      SWAP3 \t\t\tresult[i - _offset] = allIssue...\n      SWAP2 \t\t\tresult[i - _offset] = allIssue...\n      SWAP1 \t\t\tresult[i - _offset] = allIssue...\n      DUP2 \t\t\tresult[i - _offset] = allIssue...\n      DUP2 \t\t\tresult[i - _offset] = allIssue...\n      MSTORE \t\t\tresult[i - _offset] = allIssue...\n      PUSH 20\t\t\tresult[i - _offset] = allIssue...\n      ADD \t\t\tresult[i - _offset] = allIssue...\n      DUP3 \t\t\tresult[i - _offset] = allIssue...\n      DUP1 \t\t\tresult[i - _offset] = allIssue...\n      SLOAD \t\t\tresult[i - _offset] = allIssue...\n      PUSH [tag] 200\t\t\tresult[i - _offset] = allIssue...\n      SWAP1 \t\t\tresult[i - _offset] = allIssue...\n      PUSH [tag] 119\t\t\tresult[i - _offset] = allIssue...\n      JUMP [in]\t\t\tresult[i - _offset] = allIssue...\n    tag 200\t\t\tresult[i - _offset] = allIssue...\n      JUMPDEST \t\t\tresult[i - _offset] = allIssue...\n      DUP1 \t\t\tresult[i - _offset] = allIssue...\n      ISZERO \t\t\tresult[i - _offset] = allIssue...\n      PUSH [tag] 201\t\t\tresult[i - _offset] = allIssue...\n      JUMPI \t\t\tresult[i - _offset] = allIssue...\n      DUP1 \t\t\tresult[i - _offset] = allIssue...\n      PUSH 1F\t\t\tresult[i - _offset] = allIssue...\n      LT \t\t\tresult[i - _offset] = allIssue...\n      PUSH [tag] 202\t\t\tresult[i - _offset] = allIssue...\n      JUMPI \t\t\tresult[i - _offset] = allIssue...\n      PUSH 100\t\t\tresult[i - _offset] = allIssue...\n      DUP1 \t\t\tresult[i - _offset] = allIssue...\n      DUP4 \t\t\tresult[i - _offset] = allIssue...\n      SLOAD \t\t\tresult[i - _offset] = allIssue...\n      DIV \t\t\tresult[i - _offset] = allIssue...\n      MUL \t\t\tresult[i - _offset] = allIssue...\n      DUP4 \t\t\tresult[i - _offset] = allIssue...\n      MSTORE \t\t\tresult[i - _offset] = allIssue...\n      SWAP2 \t\t\tresult[i - _offset] = allIssue...\n      PUSH 20\t\t\tresult[i - _offset] = allIssue...\n      ADD \t\t\tresult[i - _offset] = allIssue...\n      SWAP2 \t\t\tresult[i - _offset] = allIssue...\n      PUSH [tag] 201\t\t\tresult[i - _offset] = allIssue...\n      JUMP \t\t\tresult[i - _offset] = allIssue...\n    tag 202\t\t\tresult[i - _offset] = allIssue...\n      JUMPDEST \t\t\tresult[i - _offset] = allIssue...\n      DUP3 \t\t\tresult[i - _offset] = allIssue...\n      ADD \t\t\tresult[i - _offset] = allIssue...\n      SWAP2 \t\t\tresult[i - _offset] = allIssue...\n      SWAP1 \t\t\tresult[i - _offset] = allIssue...\n      PUSH 0\t\t\tresult[i - _offset] = allIssue...\n      MSTORE \t\t\tresult[i - _offset] = allIssue...\n      PUSH 20\t\t\tresult[i - _offset] = allIssue...\n      PUSH 0\t\t\tresult[i - _offset] = allIssue...\n      KECCAK256 \t\t\tresult[i - _offset] = allIssue...\n      SWAP1 \t\t\tresult[i - _offset] = allIssue...\n    tag 203\t\t\tresult[i - _offset] = allIssue...\n      JUMPDEST \t\t\tresult[i - _offset] = allIssue...\n      DUP2 \t\t\tresult[i - _offset] = allIssue...\n      SLOAD \t\t\tresult[i - _offset] = allIssue...\n      DUP2 \t\t\tresult[i - _offset] = allIssue...\n      MSTORE \t\t\tresult[i - _offset] = allIssue...\n      SWAP1 \t\t\tresult[i - _offset] = allIssue...\n      PUSH 1\t\t\tresult[i - _offset] = allIssue...\n      ADD \t\t\tresult[i - _offset] = allIssue...\n      SWAP1 \t\t\tresult[i - _offset] = allIssue...\n      PUSH 20\t\t\tresult[i - _offset] = allIssue...\n      ADD \t\t\tresult[i - _offset] = allIssue...\n      DUP1 \t\t\tresult[i - _offset] = allIssue...\n      DUP4 \t\t\tresult[i - _offset] = allIssue...\n      GT \t\t\tresult[i - _offset] = allIssue...\n      PUSH [tag] 203\t\t\tresult[i - _offset] = allIssue...\n      JUMPI \t\t\tresult[i - _offset] = allIssue...\n      DUP3 \t\t\tresult[i - _offset] = allIssue...\n      SWAP1 \t\t\tresult[i - _offset] = allIssue...\n      SUB \t\t\tresult[i - _offset] = allIssue...\n      PUSH 1F\t\t\tresult[i - _offset] = allIssue...\n      AND \t\t\tresult[i - _offset] = allIssue...\n      DUP3 \t\t\tresult[i - _offset] = allIssue...\n      ADD \t\t\tresult[i - _offset] = allIssue...\n      SWAP2 \t\t\tresult[i - _offset] = allIssue...\n    tag 201\t\t\tresult[i - _offset] = allIssue...\n      JUMPDEST \t\t\tresult[i - _offset] = allIssue...\n      POP \t\t\tresult[i - _offset] = allIssue...\n      POP \t\t\tresult[i - _offset] = allIssue...\n      POP \t\t\tresult[i - _offset] = allIssue...\n      POP \t\t\tresult[i - _offset] = allIssue...\n      POP \t\t\tresult[i - _offset] = allIssue...\n      DUP3 \t\t\tresult\n      DUP8 \t\t\t_offset\n      DUP4 \t\t\ti\n      PUSH [tag] 204\t\t\ti - _offset\n      SWAP2 \t\t\ti - _offset\n      SWAP1 \t\t\ti - _offset\n      PUSH [tag] 190\t\t\ti - _offset\n      JUMP [in]\t\t\ti - _offset\n    tag 204\t\t\ti - _offset\n      JUMPDEST \t\t\ti - _offset\n      DUP2 \t\t\tresult[i - _offset]\n      MLOAD \t\t\tresult[i - _offset]\n      DUP2 \t\t\tresult[i - _offset]\n      LT \t\t\tresult[i - _offset]\n      PUSH [tag] 205\t\t\tresult[i - _offset]\n      JUMPI \t\t\tresult[i - _offset]\n      PUSH 4E487B7100000000000000000000000000000000000000000000000000000000\t\t\tresult[i - _offset]\n      PUSH 0\t\t\tresult[i - _offset]\n      MSTORE \t\t\tresult[i - _offset]\n      PUSH 32\t\t\tresult[i - _offset]\n      PUSH 4\t\t\tresult[i - _offset]\n      MSTORE \t\t\tresult[i - _offset]\n      PUSH 24\t\t\tresult[i - _offset]\n      PUSH 0\t\t\tresult[i - _offset]\n      REVERT \t\t\tresult[i - _offset]\n    tag 205\t\t\tresult[i - _offset]\n      JUMPDEST \t\t\tresult[i - _offset]\n      PUSH 20\t\t\tresult[i - _offset]\n      MUL \t\t\tresult[i - _offset]\n      PUSH 20\t\t\tresult[i - _offset]\n      ADD \t\t\tresult[i - _offset]\n      ADD \t\t\tresult[i - _offset]\n      DUP2 \t\t\tresult[i - _offset] = allIssue...\n      SWAP1 \t\t\tresult[i - _offset] = allIssue...\n      MSTORE \t\t\tresult[i - _offset] = allIssue...\n      POP \t\t\tresult[i - _offset] = allIssue...\n      DUP1 \t\t\ti++\n      DUP1 \t\t\ti++\n      PUSH [tag] 206\t\t\ti++\n      SWAP1 \t\t\ti++\n      PUSH [tag] 107\t\t\ti++\n      JUMP [in]\t\t\ti++\n    tag 206\t\t\ti++\n      JUMPDEST \t\t\ti++\n      SWAP2 \t\t\ti++\n      POP \t\t\ti++\n      POP \t\t\ti++\n      PUSH [tag] 194\t\t\tfor (uint256 i = _offset; i < ...\n      JUMP \t\t\tfor (uint256 i = _offset; i < ...\n    tag 195\t\t\tfor (uint256 i = _offset; i < ...\n      JUMPDEST \t\t\tfor (uint256 i = _offset; i < ...\n      POP \t\t\tfor (uint256 i = _offset; i < ...\n      DUP1 \t\t\tresult\n      SWAP3 \t\t\treturn result\n      POP \t\t\treturn result\n      POP \t\t\treturn result\n      POP \t\t\treturn result\n      SWAP3 \t\t\tfunction getAllIssues(uint256 ...\n      SWAP2 \t\t\tfunction getAllIssues(uint256 ...\n      POP \t\t\tfunction getAllIssues(uint256 ...\n      POP \t\t\tfunction getAllIssues(uint256 ...\n      JUMP [out]\t\t\tfunction getAllIssues(uint256 ...\n    tag 75\t\t\tmapping(address => mapping(str...\n      JUMPDEST \t\t\tmapping(address => mapping(str...\n      PUSH 3\t\t\tmapping(address => mapping(str...\n      PUSH 20\t\t\tmapping(address => mapping(str...\n      MSTORE \t\t\tmapping(address => mapping(str...\n      DUP2 \t\t\tmapping(address => mapping(str...\n      PUSH 0\t\t\tmapping(address => mapping(str...\n      MSTORE \t\t\tmapping(address => mapping(str...\n      PUSH 40\t\t\tmapping(address => mapping(str...\n      PUSH 0\t\t\tmapping(address => mapping(str...\n      KECCAK256 \t\t\tmapping(address => mapping(str...\n      DUP2 \t\t\tmapping(address => mapping(str...\n      DUP1 \t\t\tmapping(address => mapping(str...\n      MLOAD \t\t\tmapping(address => mapping(str...\n      PUSH 20\t\t\tmapping(address => mapping(str...\n      DUP2 \t\t\tmapping(address => mapping(str...\n      ADD \t\t\tmapping(address => mapping(str...\n      DUP3 \t\t\tmapping(address => mapping(str...\n      ADD \t\t\tmapping(address => mapping(str...\n      DUP1 \t\t\tmapping(address => mapping(str...\n      MLOAD \t\t\tmapping(address => mapping(str...\n      DUP5 \t\t\tmapping(address => mapping(str...\n      DUP3 \t\t\tmapping(address => mapping(str...\n      MSTORE \t\t\tmapping(address => mapping(str...\n      PUSH 20\t\t\tmapping(address => mapping(str...\n      DUP4 \t\t\tmapping(address => mapping(str...\n      ADD \t\t\tmapping(address => mapping(str...\n      PUSH 20\t\t\tmapping(address => mapping(str...\n      DUP6 \t\t\tmapping(address => mapping(str...\n      ADD \t\t\tmapping(address => mapping(str...\n      KECCAK256 \t\t\tmapping(address => mapping(str...\n      DUP2 \t\t\tmapping(address => mapping(str...\n      DUP4 \t\t\tmapping(address => mapping(str...\n      MSTORE \t\t\tmapping(address => mapping(str...\n      DUP1 \t\t\tmapping(address => mapping(str...\n      SWAP6 \t\t\tmapping(address => mapping(str...\n      POP \t\t\tmapping(address => mapping(str...\n      POP \t\t\tmapping(address => mapping(str...\n      POP \t\t\tmapping(address => mapping(str...\n      POP \t\t\tmapping(address => mapping(str...\n      POP \t\t\tmapping(address => mapping(str...\n      POP \t\t\tmapping(address => mapping(str...\n      PUSH 0\t\t\tmapping(address => mapping(str...\n      SWAP2 \t\t\tmapping(address => mapping(str...\n      POP \t\t\tmapping(address => mapping(str...\n      SWAP2 \t\t\tmapping(address => mapping(str...\n      POP \t\t\tmapping(address => mapping(str...\n      SWAP1 \t\t\tmapping(address => mapping(str...\n      SLOAD \t\t\tmapping(address => mapping(str...\n      SWAP1 \t\t\tmapping(address => mapping(str...\n      PUSH 100\t\t\tmapping(address => mapping(str...\n      EXP \t\t\tmapping(address => mapping(str...\n      SWAP1 \t\t\tmapping(address => mapping(str...\n      DIV \t\t\tmapping(address => mapping(str...\n      PUSH FF\t\t\tmapping(address => mapping(str...\n      AND \t\t\tmapping(address => mapping(str...\n      DUP2 \t\t\tmapping(address => mapping(str...\n      JUMP [out]\t\t\tmapping(address => mapping(str...\n    tag 79\t\t\tmapping(string => Issue) publi...\n      JUMPDEST \t\t\tmapping(string => Issue) publi...\n      PUSH 0\t\t\tmapping(string => Issue) publi...\n      DUP2 \t\t\tmapping(string => Issue) publi...\n      DUP1 \t\t\tmapping(string => Issue) publi...\n      MLOAD \t\t\tmapping(string => Issue) publi...\n      PUSH 20\t\t\tmapping(string => Issue) publi...\n      DUP2 \t\t\tmapping(string => Issue) publi...\n      ADD \t\t\tmapping(string => Issue) publi...\n      DUP3 \t\t\tmapping(string => Issue) publi...\n      ADD \t\t\tmapping(string => Issue) publi...\n      DUP1 \t\t\tmapping(string => Issue) publi...\n      MLOAD \t\t\tmapping(string => Issue) publi...\n      DUP5 \t\t\tmapping(string => Issue) publi...\n      DUP3 \t\t\tmapping(string => Issue) publi...\n      MSTORE \t\t\tmapping(string => Issue) publi...\n      PUSH 20\t\t\tmapping(string => Issue) publi...\n      DUP4 \t\t\tmapping(string => Issue) publi...\n      ADD \t\t\tmapping(string => Issue) publi...\n      PUSH 20\t\t\tmapping(string => Issue) publi...\n      DUP6 \t\t\tmapping(string => Issue) publi...\n      ADD \t\t\tmapping(string => Issue) publi...\n      KECCAK256 \t\t\tmapping(string => Issue) publi...\n      DUP2 \t\t\tmapping(string => Issue) publi...\n      DUP4 \t\t\tmapping(string => Issue) publi...\n      MSTORE \t\t\tmapping(string => Issue) publi...\n      DUP1 \t\t\tmapping(string => Issue) publi...\n      SWAP6 \t\t\tmapping(string => Issue) publi...\n      POP \t\t\tmapping(string => Issue) publi...\n      POP \t\t\tmapping(string => Issue) publi...\n      POP \t\t\tmapping(string => Issue) publi...\n      POP \t\t\tmapping(string => Issue) publi...\n      POP \t\t\tmapping(string => Issue) publi...\n      POP \t\t\tmapping(string => Issue) publi...\n      PUSH 0\t\t\tmapping(string => Issue) publi...\n      SWAP2 \t\t\tmapping(string => Issue) publi...\n      POP \t\t\tmapping(string => Issue) publi...\n      SWAP1 \t\t\tmapping(string => Issue) publi...\n      POP \t\t\tmapping(string => Issue) publi...\n      DUP1 \t\t\tmapping(string => Issue) publi...\n      PUSH 0\t\t\tmapping(string => Issue) publi...\n      ADD \t\t\tmapping(string => Issue) publi...\n      DUP1 \t\t\tmapping(string => Issue) publi...\n      SLOAD \t\t\tmapping(string => Issue) publi...\n      PUSH [tag] 207\t\t\tmapping(string => Issue) publi...\n      SWAP1 \t\t\tmapping(string => Issue) publi...\n      PUSH [tag] 119\t\t\tmapping(string => Issue) publi...\n      JUMP [in]\t\t\tmapping(string => Issue) publi...\n    tag 207\t\t\tmapping(string => Issue) publi...\n      JUMPDEST \t\t\tmapping(string => Issue) publi...\n      DUP1 \t\t\tmapping(string => Issue) publi...\n      PUSH 1F\t\t\tmapping(string => Issue) publi...\n      ADD \t\t\tmapping(string => Issue) publi...\n      PUSH 20\t\t\tmapping(string => Issue) publi...\n      DUP1 \t\t\tmapping(string => Issue) publi...\n      SWAP2 \t\t\tmapping(string => Issue) publi...\n      DIV \t\t\tmapping(string => Issue) publi...\n      MUL \t\t\tmapping(string => Issue) publi...\n      PUSH 20\t\t\tmapping(string => Issue) publi...\n      ADD \t\t\tmapping(string => Issue) publi...\n      PUSH 40\t\t\tmapping(string => Issue) publi...\n      MLOAD \t\t\tmapping(string => Issue) publi...\n      SWAP1 \t\t\tmapping(string => Issue) publi...\n      DUP2 \t\t\tmapping(string => Issue) publi...\n      ADD \t\t\tmapping(string => Issue) publi...\n      PUSH 40\t\t\tmapping(string => Issue) publi...\n      MSTORE \t\t\tmapping(string => Issue) publi...\n      DUP1 \t\t\tmapping(string => Issue) publi...\n      SWAP3 \t\t\tmapping(string => Issue) publi...\n      SWAP2 \t\t\tmapping(string => Issue) publi...\n      SWAP1 \t\t\tmapping(string => Issue) publi...\n      DUP2 \t\t\tmapping(string => Issue) publi...\n      DUP2 \t\t\tmapping(string => Issue) publi...\n      MSTORE \t\t\tmapping(string => Issue) publi...\n      PUSH 20\t\t\tmapping(string => Issue) publi...\n      ADD \t\t\tmapping(string => Issue) publi...\n      DUP3 \t\t\tmapping(string => Issue) publi...\n      DUP1 \t\t\tmapping(string => Issue) publi...\n      SLOAD \t\t\tmapping(string => Issue) publi...\n      PUSH [tag] 208\t\t\tmapping(string => Issue) publi...\n      SWAP1 \t\t\tmapping(string => Issue) publi...\n      PUSH [tag] 119\t\t\tmapping(string => Issue) publi...\n      JUMP [in]\t\t\tmapping(string => Issue) publi...\n    tag 208\t\t\tmapping(string => Issue) publi...\n      JUMPDEST \t\t\tmapping(string => Issue) publi...\n      DUP1 \t\t\tmapping(string => Issue) publi...\n      ISZERO \t\t\tmapping(string => Issue) publi...\n      PUSH [tag] 209\t\t\tmapping(string => Issue) publi...\n      JUMPI \t\t\tmapping(string => Issue) publi...\n      DUP1 \t\t\tmapping(string => Issue) publi...\n      PUSH 1F\t\t\tmapping(string => Issue) publi...\n      LT \t\t\tmapping(string => Issue) publi...\n      PUSH [tag] 210\t\t\tmapping(string => Issue) publi...\n      JUMPI \t\t\tmapping(string => Issue) publi...\n      PUSH 100\t\t\tmapping(string => Issue) publi...\n      DUP1 \t\t\tmapping(string => Issue) publi...\n      DUP4 \t\t\tmapping(string => Issue) publi...\n      SLOAD \t\t\tmapping(string => Issue) publi...\n      DIV \t\t\tmapping(string => Issue) publi...\n      MUL \t\t\tmapping(string => Issue) publi...\n      DUP4 \t\t\tmapping(string => Issue) publi...\n      MSTORE \t\t\tmapping(string => Issue) publi...\n      SWAP2 \t\t\tmapping(string => Issue) publi...\n      PUSH 20\t\t\tmapping(string => Issue) publi...\n      ADD \t\t\tmapping(string => Issue) publi...\n      SWAP2 \t\t\tmapping(string => Issue) publi...\n      PUSH [tag] 209\t\t\tmapping(string => Issue) publi...\n      JUMP \t\t\tmapping(string => Issue) publi...\n    tag 210\t\t\tmapping(string => Issue) publi...\n      JUMPDEST \t\t\tmapping(string => Issue) publi...\n      DUP3 \t\t\tmapping(string => Issue) publi...\n      ADD \t\t\tmapping(string => Issue) publi...\n      SWAP2 \t\t\tmapping(string => Issue) publi...\n      SWAP1 \t\t\tmapping(string => Issue) publi...\n      PUSH 0\t\t\tmapping(string => Issue) publi...\n      MSTORE \t\t\tmapping(string => Issue) publi...\n      PUSH 20\t\t\tmapping(string => Issue) publi...\n      PUSH 0\t\t\tmapping(string => Issue) publi...\n      KECCAK256 \t\t\tmapping(string => Issue) publi...\n      SWAP1 \t\t\tmapping(string => Issue) publi...\n    tag 211\t\t\tmapping(string => Issue) publi...\n      JUMPDEST \t\t\tmapping(string => Issue) publi...\n      DUP2 \t\t\tmapping(string => Issue) publi...\n      SLOAD \t\t\tmapping(string => Issue) publi...\n      DUP2 \t\t\tmapping(string => Issue) publi...\n      MSTORE \t\t\tmapping(string => Issue) publi...\n      SWAP1 \t\t\tmapping(string => Issue) publi...\n      PUSH 1\t\t\tmapping(string => Issue) publi...\n      ADD \t\t\tmapping(string => Issue) publi...\n      SWAP1 \t\t\tmapping(string => Issue) publi...\n      PUSH 20\t\t\tmapping(string => Issue) publi...\n      ADD \t\t\tmapping(string => Issue) publi...\n      DUP1 \t\t\tmapping(string => Issue) publi...\n      DUP4 \t\t\tmapping(string => Issue) publi...\n      GT \t\t\tmapping(string => Issue) publi...\n      PUSH [tag] 211\t\t\tmapping(string => Issue) publi...\n      JUMPI \t\t\tmapping(string => Issue) publi...\n      DUP3 \t\t\tmapping(string => Issue) publi...\n      SWAP1 \t\t\tmapping(string => Issue) publi...\n      SUB \t\t\tmapping(string => Issue) publi...\n      PUSH 1F\t\t\tmapping(string => Issue) publi...\n      AND \t\t\tmapping(string => Issue) publi...\n      DUP3 \t\t\tmapping(string => Issue) publi...\n      ADD \t\t\tmapping(string => Issue) publi...\n      SWAP2 \t\t\tmapping(string => Issue) publi...\n    tag 209\t\t\tmapping(string => Issue) publi...\n      JUMPDEST \t\t\tmapping(string => Issue) publi...\n      POP \t\t\tmapping(string => Issue) publi...\n      POP \t\t\tmapping(string => Issue) publi...\n      POP \t\t\tmapping(string => Issue) publi...\n      POP \t\t\tmapping(string => Issue) publi...\n      POP \t\t\tmapping(string => Issue) publi...\n      SWAP1 \t\t\tmapping(string => Issue) publi...\n      DUP1 \t\t\tmapping(string => Issue) publi...\n      PUSH 1\t\t\tmapping(string => Issue) publi...\n      ADD \t\t\tmapping(string => Issue) publi...\n      DUP1 \t\t\tmapping(string => Issue) publi...\n      SLOAD \t\t\tmapping(string => Issue) publi...\n      PUSH [tag] 212\t\t\tmapping(string => Issue) publi...\n      SWAP1 \t\t\tmapping(string => Issue) publi...\n      PUSH [tag] 119\t\t\tmapping(string => Issue) publi...\n      JUMP [in]\t\t\tmapping(string => Issue) publi...\n    tag 212\t\t\tmapping(string => Issue) publi...\n      JUMPDEST \t\t\tmapping(string => Issue) publi...\n      DUP1 \t\t\tmapping(string => Issue) publi...\n      PUSH 1F\t\t\tmapping(string => Issue) publi...\n      ADD \t\t\tmapping(string => Issue) publi...\n      PUSH 20\t\t\tmapping(string => Issue) publi...\n      DUP1 \t\t\tmapping(string => Issue) publi...\n      SWAP2 \t\t\tmapping(string => Issue) publi...\n      DIV \t\t\tmapping(string => Issue) publi...\n      MUL \t\t\tmapping(string => Issue) publi...\n      PUSH 20\t\t\tmapping(string => Issue) publi...\n      ADD \t\t\tmapping(string => Issue) publi...\n      PUSH 40\t\t\tmapping(string => Issue) publi...\n      MLOAD \t\t\tmapping(string => Issue) publi...\n      SWAP1 \t\t\tmapping(string => Issue) publi...\n      DUP2 \t\t\tmapping(string => Issue) publi...\n      ADD \t\t\tmapping(string => Issue) publi...\n      PUSH 40\t\t\tmapping(string => Issue) publi...\n      MSTORE \t\t\tmapping(string => Issue) publi...\n      DUP1 \t\t\tmapping(string => Issue) publi...\n      SWAP3 \t\t\tmapping(string => Issue) publi...\n      SWAP2 \t\t\tmapping(string => Issue) publi...\n      SWAP1 \t\t\tmapping(string => Issue) publi...\n      DUP2 \t\t\tmapping(string => Issue) publi...\n      DUP2 \t\t\tmapping(string => Issue) publi...\n      MSTORE \t\t\tmapping(string => Issue) publi...\n      PUSH 20\t\t\tmapping(string => Issue) publi...\n      ADD \t\t\tmapping(string => Issue) publi...\n      DUP3 \t\t\tmapping(string => Issue) publi...\n      DUP1 \t\t\tmapping(string => Issue) publi...\n      SLOAD \t\t\tmapping(string => Issue) publi...\n      PUSH [tag] 213\t\t\tmapping(string => Issue) publi...\n      SWAP1 \t\t\tmapping(string => Issue) publi...\n      PUSH [tag] 119\t\t\tmapping(string => Issue) publi...\n      JUMP [in]\t\t\tmapping(string => Issue) publi...\n    tag 213\t\t\tmapping(string => Issue) publi...\n      JUMPDEST \t\t\tmapping(string => Issue) publi...\n      DUP1 \t\t\tmapping(string => Issue) publi...\n      ISZERO \t\t\tmapping(string => Issue) publi...\n      PUSH [tag] 214\t\t\tmapping(string => Issue) publi...\n      JUMPI \t\t\tmapping(string => Issue) publi...\n      DUP1 \t\t\tmapping(string => Issue) publi...\n      PUSH 1F\t\t\tmapping(string => Issue) publi...\n      LT \t\t\tmapping(string => Issue) publi...\n      PUSH [tag] 215\t\t\tmapping(string => Issue) publi...\n      JUMPI \t\t\tmapping(string => Issue) publi...\n      PUSH 100\t\t\tmapping(string => Issue) publi...\n      DUP1 \t\t\tmapping(string => Issue) publi...\n      DUP4 \t\t\tmapping(string => Issue) publi...\n      SLOAD \t\t\tmapping(string => Issue) publi...\n      DIV \t\t\tmapping(string => Issue) publi...\n      MUL \t\t\tmapping(string => Issue) publi...\n      DUP4 \t\t\tmapping(string => Issue) publi...\n      MSTORE \t\t\tmapping(string => Issue) publi...\n      SWAP2 \t\t\tmapping(string => Issue) publi...\n      PUSH 20\t\t\tmapping(string => Issue) publi...\n      ADD \t\t\tmapping(string => Issue) publi...\n      SWAP2 \t\t\tmapping(string => Issue) publi...\n      PUSH [tag] 214\t\t\tmapping(string => Issue) publi...\n      JUMP \t\t\tmapping(string => Issue) publi...\n    tag 215\t\t\tmapping(string => Issue) publi...\n      JUMPDEST \t\t\tmapping(string => Issue) publi...\n      DUP3 \t\t\tmapping(string => Issue) publi...\n      ADD \t\t\tmapping(string => Issue) publi...\n      SWAP2 \t\t\tmapping(string => Issue) publi...\n      SWAP1 \t\t\tmapping(string => Issue) publi...\n      PUSH 0\t\t\tmapping(string => Issue) publi...\n      MSTORE \t\t\tmapping(string => Issue) publi...\n      PUSH 20\t\t\tmapping(string => Issue) publi...\n      PUSH 0\t\t\tmapping(string => Issue) publi...\n      KECCAK256 \t\t\tmapping(string => Issue) publi...\n      SWAP1 \t\t\tmapping(string => Issue) publi...\n    tag 216\t\t\tmapping(string => Issue) publi...\n      JUMPDEST \t\t\tmapping(string => Issue) publi...\n      DUP2 \t\t\tmapping(string => Issue) publi...\n      SLOAD \t\t\tmapping(string => Issue) publi...\n      DUP2 \t\t\tmapping(string => Issue) publi...\n      MSTORE \t\t\tmapping(string => Issue) publi...\n      SWAP1 \t\t\tmapping(string => Issue) publi...\n      PUSH 1\t\t\tmapping(string => Issue) publi...\n      ADD \t\t\tmapping(string => Issue) publi...\n      SWAP1 \t\t\tmapping(string => Issue) publi...\n      PUSH 20\t\t\tmapping(string => Issue) publi...\n      ADD \t\t\tmapping(string => Issue) publi...\n      DUP1 \t\t\tmapping(string => Issue) publi...\n      DUP4 \t\t\tmapping(string => Issue) publi...\n      GT \t\t\tmapping(string => Issue) publi...\n      PUSH [tag] 216\t\t\tmapping(string => Issue) publi...\n      JUMPI \t\t\tmapping(string => Issue) publi...\n      DUP3 \t\t\tmapping(string => Issue) publi...\n      SWAP1 \t\t\tmapping(string => Issue) publi...\n      SUB \t\t\tmapping(string => Issue) publi...\n      PUSH 1F\t\t\tmapping(string => Issue) publi...\n      AND \t\t\tmapping(string => Issue) publi...\n      DUP3 \t\t\tmapping(string => Issue) publi...\n      ADD \t\t\tmapping(string => Issue) publi...\n      SWAP2 \t\t\tmapping(string => Issue) publi...\n    tag 214\t\t\tmapping(string => Issue) publi...\n      JUMPDEST \t\t\tmapping(string => Issue) publi...\n      POP \t\t\tmapping(string => Issue) publi...\n      POP \t\t\tmapping(string => Issue) publi...\n      POP \t\t\tmapping(string => Issue) publi...\n      POP \t\t\tmapping(string => Issue) publi...\n      POP \t\t\tmapping(string => Issue) publi...\n      SWAP1 \t\t\tmapping(string => Issue) publi...\n      DUP1 \t\t\tmapping(string => Issue) publi...\n      PUSH 2\t\t\tmapping(string => Issue) publi...\n      ADD \t\t\tmapping(string => Issue) publi...\n      PUSH 0\t\t\tmapping(string => Issue) publi...\n      SWAP1 \t\t\tmapping(string => Issue) publi...\n      SLOAD \t\t\tmapping(string => Issue) publi...\n      SWAP1 \t\t\tmapping(string => Issue) publi...\n      PUSH 100\t\t\tmapping(string => Issue) publi...\n      EXP \t\t\tmapping(string => Issue) publi...\n      SWAP1 \t\t\tmapping(string => Issue) publi...\n      DIV \t\t\tmapping(string => Issue) publi...\n      PUSH FFFFFFFFFFFFFFFFFFFFFFFFFFFFFFFFFFFFFFFF\t\t\tmapping(string => Issue) publi...\n      AND \t\t\tmapping(string => Issue) publi...\n      SWAP1 \t\t\tmapping(string => Issue) publi...\n      DUP1 \t\t\tmapping(string => Issue) publi...\n      PUSH 3\t\t\tmapping(string => Issue) publi...\n      ADD \t\t\tmapping(string => Issue) publi...\n      SLOAD \t\t\tmapping(string => Issue) publi...\n      SWAP1 \t\t\tmapping(string => Issue) publi...\n      DUP1 \t\t\tmapping(string => Issue) publi...\n      PUSH 4\t\t\tmapping(string => Issue) publi...\n      ADD \t\t\tmapping(string => Issue) publi...\n      SLOAD \t\t\tmapping(string => Issue) publi...\n      SWAP1 \t\t\tmapping(string => Issue) publi...\n      DUP1 \t\t\tmapping(string => Issue) publi...\n      PUSH 5\t\t\tmapping(string => Issue) publi...\n      ADD \t\t\tmapping(string => Issue) publi...\n      PUSH 0\t\t\tmapping(string => Issue) publi...\n      SWAP1 \t\t\tmapping(string => Issue) publi...\n      SLOAD \t\t\tmapping(string => Issue) publi...\n      SWAP1 \t\t\tmapping(string => Issue) publi...\n      PUSH 100\t\t\tmapping(string => Issue) publi...\n      EXP \t\t\tmapping(string => Issue) publi...\n      SWAP1 \t\t\tmapping(string => Issue) publi...\n      DIV \t\t\tmapping(string => Issue) publi...\n      PUSH FF\t\t\tmapping(string => Issue) publi...\n      AND \t\t\tmapping(string => Issue) publi...\n      SWAP1 \t\t\tmapping(string => Issue) publi...\n      POP \t\t\tmapping(string => Issue) publi...\n      DUP7 \t\t\tmapping(string => Issue) publi...\n      JUMP [out]\t\t\tmapping(string => Issue) publi...\n    tag 82\t\t\tfunction getTotalIssues() publ...\n      JUMPDEST \t\t\tfunction getTotalIssues() publ...\n      PUSH 0\t\t\tuint256\n      PUSH 4\t\t\tallIssueIds\n      DUP1 \t\t\tallIssueIds.length\n      SLOAD \t\t\tallIssueIds.length\n      SWAP1 \t\t\tallIssueIds.length\n      POP \t\t\tallIssueIds.length\n      SWAP1 \t\t\treturn allIssueIds.length\n      POP \t\t\treturn allIssueIds.length\n      SWAP1 \t\t\tfunction getTotalIssues() publ...\n      JUMP [out]\t\t\tfunction getTotalIssues() publ...\n    tag 86\t\t\tfunction getIssueVotes(string ...\n      JUMPDEST \t\t\tfunction getIssueVotes(string ...\n      PUSH 60\t\t\tVote[] memory\n      PUSH 0\t\t\tissues\n      DUP3 \t\t\t_issueId\n      PUSH 40\t\t\tissues[_issueId]\n      MLOAD \t\t\tissues[_issueId]\n      PUSH [tag] 219\t\t\tissues[_issueId]\n      SWAP2 \t\t\tissues[_issueId]\n      SWAP1 \t\t\tissues[_issueId]\n      PUSH [tag] 91\t\t\tissues[_issueId]\n      JUMP [in]\t\t\tissues[_issueId]\n    tag 219\t\t\tissues[_issueId]\n      JUMPDEST \t\t\tissues[_issueId]\n      SWAP1 \t\t\tissues[_issueId]\n      DUP2 \t\t\tissues[_issueId]\n      MSTORE \t\t\tissues[_issueId]\n      PUSH 20\t\t\tissues[_issueId]\n      ADD \t\t\tissues[_issueId]\n      PUSH 40\t\t\tissues[_issueId]\n      MLOAD \t\t\tissues[_issueId]\n      DUP1 \t\t\tissues[_issueId]\n      SWAP2 \t\t\tissues[_issueId]\n      SUB \t\t\tissues[_issueId]\n      SWAP1 \t\t\tissues[_issueId]\n      KECCAK256 \t\t\tissues[_issueId]\n      PUSH 5\t\t\tissues[_issueId].exists\n      ADD \t\t\tissues[_issueId].exists\n      PUSH 0\t\t\tissues[_issueId].exists\n      SWAP1 \t\t\tissues[_issueId].exists\n      SLOAD \t\t\tissues[_issueId].exists\n      SWAP1 \t\t\tissues[_issueId].exists\n      PUSH 100\t\t\tissues[_issueId].exists\n      EXP \t\t\tissues[_issueId].exists\n      SWAP1 \t\t\tissues[_issueId].exists\n      DIV \t\t\tissues[_issueId].exists\n      PUSH FF\t\t\tissues[_issueId].exists\n      AND \t\t\tissues[_issueId].exists\n      PUSH [tag] 220\t\t\trequire(issues[_issueId].exist...\n      JUMPI \t\t\trequire(issues[_issueId].exist...\n      PUSH 40\t\t\trequire(issues[_issueId].exist...\n      MLOAD \t\t\trequire(issues[_issueId].exist...\n      PUSH 8C379A000000000000000000000000000000000000000000000000000000000\t\t\trequire(issues[_issueId].exist...\n      DUP2 \t\t\trequire(issues[_issueId].exist...\n      MSTORE \t\t\trequire(issues[_issueId].exist...\n      PUSH 4\t\t\trequire(issues[_issueId].exist...\n      ADD \t\t\trequire(issues[_issueId].exist...\n      PUSH [tag] 221\t\t\trequire(issues[_issueId].exist...\n      SWAP1 \t\t\trequire(issues[_issueId].exist...\n      PUSH [tag] 94\t\t\trequire(issues[_issueId].exist...\n      JUMP [in]\t\t\trequire(issues[_issueId].exist...\n    tag 221\t\t\trequire(issues[_issueId].exist...\n      JUMPDEST \t\t\trequire(issues[_issueId].exist...\n      PUSH 40\t\t\trequire(issues[_issueId].exist...\n      MLOAD \t\t\trequire(issues[_issueId].exist...\n      DUP1 \t\t\trequire(issues[_issueId].exist...\n      SWAP2 \t\t\trequire(issues[_issueId].exist...\n      SUB \t\t\trequire(issues[_issueId].exist...\n      SWAP1 \t\t\trequire(issues[_issueId].exist...\n      REVERT \t\t\trequire(issues[_issueId].exist...\n    tag 220\t\t\trequire(issues[_issueId].exist...\n      JUMPDEST \t\t\trequire(issues[_issueId].exist...\n      PUSH 1\t\t\tissueVotes\n      DUP3 \t\t\t_issueId\n      PUSH 40\t\t\tissueVotes[_issueId]\n      MLOAD \t\t\tissueVotes[_issueId]\n      PUSH [tag] 222\t\t\tissueVotes[_issueId]\n      SWAP2 \t\t\tissueVotes[_issueId]\n      SWAP1 \t\t\tissueVotes[_issueId]\n      PUSH [tag] 91\t\t\tissueVotes[_issueId]\n      JUMP [in]\t\t\tissueVotes[_issueId]\n    tag 222\t\t\tissueVotes[_issueId]\n      JUMPDEST \t\t\tissueVotes[_issueId]\n      SWAP1 \t\t\tissueVotes[_issueId]\n      DUP2 \t\t\tissueVotes[_issueId]\n      MSTORE \t\t\tissueVotes[_issueId]\n      PUSH 20\t\t\tissueVotes[_issueId]\n      ADD \t\t\tissueVotes[_issueId]\n      PUSH 40\t\t\tissueVotes[_issueId]\n      MLOAD \t\t\tissueVotes[_issueId]\n      DUP1 \t\t\tissueVotes[_issueId]\n      SWAP2 \t\t\tissueVotes[_issueId]\n      SUB \t\t\tissueVotes[_issueId]\n      SWAP1 \t\t\tissueVotes[_issueId]\n      KECCAK256 \t\t\tissueVotes[_issueId]\n      DUP1 \t\t\treturn issueVotes[_issueId]\n      SLOAD \t\t\treturn issueVotes[_issueId]\n      DUP1 \t\t\treturn issueVotes[_issueId]\n      PUSH 20\t\t\treturn issueVotes[_issueId]\n      MUL \t\t\treturn issueVotes[_issueId]\n      PUSH 20\t\t\treturn issueVotes[_issueId]\n      ADD \t\t\treturn issueVotes[_issueId]\n      PUSH 40\t\t\treturn issueVotes[_issueId]\n      MLOAD \t\t\treturn issueVotes[_issueId]\n      SWAP1 \t\t\treturn issueVotes[_issueId]\n      DUP2 \t\t\treturn issueVotes[_issueId]\n      ADD \t\t\treturn issueVotes[_issueId]\n      PUSH 40\t\t\treturn issueVotes[_issueId]\n      MSTORE \t\t\treturn issueVotes[_issueId]\n      DUP1 \t\t\treturn issueVotes[_issueId]\n      SWAP3 \t\t\treturn issueVotes[_issueId]\n      SWAP2 \t\t\treturn issueVotes[_issueId]\n      SWAP1 \t\t\treturn issueVotes[_issueId]\n      DUP2 \t\t\treturn issueVotes[_issueId]\n      DUP2 \t\t\treturn issueVotes[_issueId]\n      MSTORE \t\t\treturn issueVotes[_issueId]\n      PUSH 20\t\t\treturn issueVotes[_issueId]\n      ADD \t\t\treturn issueVotes[_issueId]\n      PUSH 0\t\t\treturn issueVotes[_issueId]\n      SWAP1 \t\t\treturn issueVotes[_issueId]\n    tag 223\t\t\treturn issueVotes[_issueId]\n      JUMPDEST \t\t\treturn issueVotes[_issueId]\n      DUP3 \t\t\treturn issueVotes[_issueId]\n      DUP3 \t\t\treturn issueVotes[_issueId]\n      LT \t\t\treturn issueVotes[_issueId]\n      ISZERO \t\t\treturn issueVotes[_issueId]\n      PUSH [tag] 224\t\t\treturn issueVotes[_issueId]\n      JUMPI \t\t\treturn issueVotes[_issueId]\n      DUP4 \t\t\treturn issueVotes[_issueId]\n      DUP3 \t\t\treturn issueVotes[_issueId]\n      SWAP1 \t\t\treturn issueVotes[_issueId]\n      PUSH 0\t\t\treturn issueVotes[_issueId]\n      MSTORE \t\t\treturn issueVotes[_issueId]\n      PUSH 20\t\t\treturn issueVotes[_issueId]\n      PUSH 0\t\t\treturn issueVotes[_issueId]\n      KECCAK256 \t\t\treturn issueVotes[_issueId]\n      SWAP1 \t\t\treturn issueVotes[_issueId]\n      PUSH 4\t\t\treturn issueVotes[_issueId]\n      MUL \t\t\treturn issueVotes[_issueId]\n      ADD \t\t\treturn issueVotes[_issueId]\n      PUSH 40\t\t\treturn issueVotes[_issueId]\n      MLOAD \t\t\treturn issueVotes[_issueId]\n      DUP1 \t\t\treturn issueVotes[_issueId]\n      PUSH 80\t\t\treturn issueVotes[_issueId]\n      ADD \t\t\treturn issueVotes[_issueId]\n      PUSH 40\t\t\treturn issueVotes[_issueId]\n      MSTORE \t\t\treturn issueVotes[_issueId]\n      SWAP1 \t\t\treturn issueVotes[_issueId]\n      DUP2 \t\t\treturn issueVotes[_issueId]\n      PUSH 0\t\t\treturn issueVotes[_issueId]\n      DUP3 \t\t\treturn issueVotes[_issueId]\n      ADD \t\t\treturn issueVotes[_issueId]\n      PUSH 0\t\t\treturn issueVotes[_issueId]\n      SWAP1 \t\t\treturn issueVotes[_issueId]\n      SLOAD \t\t\treturn issueVotes[_issueId]\n      SWAP1 \t\t\treturn issueVotes[_issueId]\n      PUSH 100\t\t\treturn issueVotes[_issueId]\n      EXP \t\t\treturn issueVotes[_issueId]\n      SWAP1 \t\t\treturn issueVotes[_issueId]\n      DIV \t\t\treturn issueVotes[_issueId]\n      PUSH FFFFFFFFFFFFFFFFFFFFFFFFFFFFFFFFFFFFFFFF\t\t\treturn issueVotes[_issueId]\n      AND \t\t\treturn issueVotes[_issueId]\n      PUSH FFFFFFFFFFFFFFFFFFFFFFFFFFFFFFFFFFFFFFFF\t\t\treturn issueVotes[_issueId]\n      AND \t\t\treturn issueVotes[_issueId]\n      PUSH FFFFFFFFFFFFFFFFFFFFFFFFFFFFFFFFFFFFFFFF\t\t\treturn issueVotes[_issueId]\n      AND \t\t\treturn issueVotes[_issueId]\n      DUP2 \t\t\treturn issueVotes[_issueId]\n      MSTORE \t\t\treturn issueVotes[_issueId]\n      PUSH 20\t\t\treturn issueVotes[_issueId]\n      ADD \t\t\treturn issueVotes[_issueId]\n      PUSH 1\t\t\treturn issueVotes[_issueId]\n      DUP3 \t\t\treturn issueVotes[_issueId]\n      ADD \t\t\treturn issueVotes[_issueId]\n      DUP1 \t\t\treturn issueVotes[_issueId]\n      SLOAD \t\t\treturn issueVotes[_issueId]\n      PUSH [tag] 226\t\t\treturn issueVotes[_issueId]\n      SWAP1 \t\t\treturn issueVotes[_issueId]\n      PUSH [tag] 119\t\t\treturn issueVotes[_issueId]\n      JUMP [in]\t\t\treturn issueVotes[_issueId]\n    tag 226\t\t\treturn issueVotes[_issueId]\n      JUMPDEST \t\t\treturn issueVotes[_issueId]\n      DUP1 \t\t\treturn issueVotes[_issueId]\n      PUSH 1F\t\t\treturn issueVotes[_issueId]\n      ADD \t\t\treturn issueVotes[_issueId]\n      PUSH 20\t\t\treturn issueVotes[_issueId]\n      DUP1 \t\t\treturn issueVotes[_issueId]\n      SWAP2 \t\t\treturn issueVotes[_issueId]\n      DIV \t\t\treturn issueVotes[_issueId]\n      MUL \t\t\treturn issueVotes[_issueId]\n      PUSH 20\t\t\treturn issueVotes[_issueId]\n      ADD \t\t\treturn issueVotes[_issueId]\n      PUSH 40\t\t\treturn issueVotes[_issueId]\n      MLOAD \t\t\treturn issueVotes[_issueId]\n      SWAP1 \t\t\treturn issueVotes[_issueId]\n      DUP2 \t\t\treturn issueVotes[_issueId]\n      ADD \t\t\treturn issueVotes[_issueId]\n      PUSH 40\t\t\treturn issueVotes[_issueId]\n      MSTORE \t\t\treturn issueVotes[_issueId]\n      DUP1 \t\t\treturn issueVotes[_issueId]\n      SWAP3 \t\t\treturn issueVotes[_issueId]\n      SWAP2 \t\t\treturn issueVotes[_issueId]\n      SWAP1 \t\t\treturn issueVotes[_issueId]\n      DUP2 \t\t\treturn issueVotes[_issueId]\n      DUP2 \t\t\treturn issueVotes[_issueId]\n      MSTORE \t\t\treturn issueVotes[_issueId]\n      PUSH 20\t\t\treturn issueVotes[_issueId]\n      ADD \t\t\treturn issueVotes[_issueId]\n      DUP3 \t\t\treturn issueVotes[_issueId]\n      DUP1 \t\t\treturn issueVotes[_issueId]\n      SLOAD \t\t\treturn issueVotes[_issueId]\n      PUSH [tag] 227\t\t\treturn issueVotes[_issueId]\n      SWAP1 \t\t\treturn issueVotes[_issueId]\n      PUSH [tag] 119\t\t\treturn issueVotes[_issueId]\n      JUMP [in]\t\t\treturn issueVotes[_issueId]\n    tag 227\t\t\treturn issueVotes[_issueId]\n      JUMPDEST \t\t\treturn issueVotes[_issueId]\n      DUP1 \t\t\treturn issueVotes[_issueId]\n      ISZERO \t\t\treturn issueVotes[_issueId]\n      PUSH [tag] 228\t\t\treturn issueVotes[_issueId]\n      JUMPI \t\t\treturn issueVotes[_issueId]\n      DUP1 \t\t\treturn issueVotes[_issueId]\n      PUSH 1F\t\t\treturn issueVotes[_issueId]\n      LT \t\t\treturn issueVotes[_issueId]\n      PUSH [tag] 229\t\t\treturn issueVotes[_issueId]\n      JUMPI \t\t\treturn issueVotes[_issueId]\n      PUSH 100\t\t\treturn issueVotes[_issueId]\n      DUP1 \t\t\treturn issueVotes[_issueId]\n      DUP4 \t\t\treturn issueVotes[_issueId]\n      SLOAD \t\t\treturn issueVotes[_issueId]\n      DIV \t\t\treturn issueVotes[_issueId]\n      MUL \t\t\treturn issueVotes[_issueId]\n      DUP4 \t\t\treturn issueVotes[_issueId]\n      MSTORE \t\t\treturn issueVotes[_issueId]\n      SWAP2 \t\t\treturn issueVotes[_issueId]\n      PUSH 20\t\t\treturn issueVotes[_issueId]\n      ADD \t\t\treturn issueVotes[_issueId]\n      SWAP2 \t\t\treturn issueVotes[_issueId]\n      PUSH [tag] 228\t\t\treturn issueVotes[_issueId]\n      JUMP \t\t\treturn issueVotes[_issueId]\n    tag 229\t\t\treturn issueVotes[_issueId]\n      JUMPDEST \t\t\treturn issueVotes[_issueId]\n      DUP3 \t\t\treturn issueVotes[_issueId]\n      ADD \t\t\treturn issueVotes[_issueId]\n      SWAP2 \t\t\treturn issueVotes[_issueId]\n      SWAP1 \t\t\treturn issueVotes[_issueId]\n      PUSH 0\t\t\treturn issueVotes[_issueId]\n      MSTORE \t\t\treturn issueVotes[_issueId]\n      PUSH 20\t\t\treturn issueVotes[_issueId]\n      PUSH 0\t\t\treturn issueVotes[_issueId]\n      KECCAK256 \t\t\treturn issueVotes[_issueId]\n      SWAP1 \t\t\treturn issueVotes[_issueId]\n    tag 230\t\t\treturn issueVotes[_issueId]\n      JUMPDEST \t\t\treturn issueVotes[_issueId]\n      DUP2 \t\t\treturn issueVotes[_issueId]\n      SLOAD \t\t\treturn issueVotes[_issueId]\n      DUP2 \t\t\treturn issueVotes[_issueId]\n      MSTORE \t\t\treturn issueVotes[_issueId]\n      SWAP1 \t\t\treturn issueVotes[_issueId]\n      PUSH 1\t\t\treturn issueVotes[_issueId]\n      ADD \t\t\treturn issueVotes[_issueId]\n      SWAP1 \t\t\treturn issueVotes[_issueId]\n      PUSH 20\t\t\treturn issueVotes[_issueId]\n      ADD \t\t\treturn issueVotes[_issueId]\n      DUP1 \t\t\treturn issueVotes[_issueId]\n      DUP4 \t\t\treturn issueVotes[_issueId]\n      GT \t\t\treturn issueVotes[_issueId]\n      PUSH [tag] 230\t\t\treturn issueVotes[_issueId]\n      JUMPI \t\t\treturn issueVotes[_issueId]\n      DUP3 \t\t\treturn issueVotes[_issueId]\n      SWAP1 \t\t\treturn issueVotes[_issueId]\n      SUB \t\t\treturn issueVotes[_issueId]\n      PUSH 1F\t\t\treturn issueVotes[_issueId]\n      AND \t\t\treturn issueVotes[_issueId]\n      DUP3 \t\t\treturn issueVotes[_issueId]\n      ADD \t\t\treturn issueVotes[_issueId]\n      SWAP2 \t\t\treturn issueVotes[_issueId]\n    tag 228\t\t\treturn issueVotes[_issueId]\n      JUMPDEST \t\t\treturn issueVotes[_issueId]\n      POP \t\t\treturn issueVotes[_issueId]\n      POP \t\t\treturn issueVotes[_issueId]\n      POP \t\t\treturn issueVotes[_issueId]\n      POP \t\t\treturn issueVotes[_issueId]\n      POP \t\t\treturn issueVotes[_issueId]\n      DUP2 \t\t\treturn issueVotes[_issueId]\n      MSTORE \t\t\treturn issueVotes[_issueId]\n      PUSH 20\t\t\treturn issueVotes[_issueId]\n      ADD \t\t\treturn issueVotes[_issueId]\n      PUSH 2\t\t\treturn issueVotes[_issueId]\n      DUP3 \t\t\treturn issueVotes[_issueId]\n      ADD \t\t\treturn issueVotes[_issueId]\n      SLOAD \t\t\treturn issueVotes[_issueId]\n      DUP2 \t\t\treturn issueVotes[_issueId]\n      MSTORE \t\t\treturn issueVotes[_issueId]\n      PUSH 20\t\t\treturn issueVotes[_issueId]\n      ADD \t\t\treturn issueVotes[_issueId]\n      PUSH 3\t\t\treturn issueVotes[_issueId]\n      DUP3 \t\t\treturn issueVotes[_issueId]\n      ADD \t\t\treturn issueVotes[_issueId]\n      PUSH 0\t\t\treturn issueVotes[_issueId]\n      SWAP1 \t\t\treturn issueVotes[_issueId]\n      SLOAD \t\t\treturn issueVotes[_issueId]\n      SWAP1 \t\t\treturn issueVotes[_issueId]\n      PUSH 100\t\t\treturn issueVotes[_issueId]\n      EXP \t\t\treturn issueVotes[_issueId]\n      SWAP1 \t\t\treturn issueVotes[_issueId]\n      DIV \t\t\treturn issueVotes[_issueId]\n      PUSH FF\t\t\treturn issueVotes[_issueId]\n      AND \t\t\treturn issueVotes[_issueId]\n      ISZERO \t\t\treturn issueVotes[_issueId]\n      ISZERO \t\t\treturn issueVotes[_issueId]\n      ISZERO \t\t\treturn issueVotes[_issueId]\n      ISZERO \t\t\treturn issueVotes[_issueId]\n      DUP2 \t\t\treturn issueVotes[_issueId]\n      MSTORE \t\t\treturn issueVotes[_issueId]\n      POP \t\t\treturn issueVotes[_issueId]\n      POP \t\t\treturn issueVotes[_issueId]\n      DUP2 \t\t\treturn issueVotes[_issueId]\n      MSTORE \t\t\treturn issueVotes[_issueId]\n      PUSH 20\t\t\treturn issueVotes[_issueId]\n      ADD \t\t\treturn issueVotes[_issueId]\n      SWAP1 \t\t\treturn issueVotes[_issueId]\n      PUSH 1\t\t\treturn issueVotes[_issueId]\n      ADD \t\t\treturn issueVotes[_issueId]\n      SWAP1 \t\t\treturn issueVotes[_issueId]\n      PUSH [tag] 223\t\t\treturn issueVotes[_issueId]\n      JUMP \t\t\treturn issueVotes[_issueId]\n    tag 224\t\t\treturn issueVotes[_issueId]\n      JUMPDEST \t\t\treturn issueVotes[_issueId]\n      POP \t\t\treturn issueVotes[_issueId]\n      POP \t\t\treturn issueVotes[_issueId]\n      POP \t\t\treturn issueVotes[_issueId]\n      POP \t\t\treturn issueVotes[_issueId]\n      SWAP1 \t\t\treturn issueVotes[_issueId]\n      POP \t\t\treturn issueVotes[_issueId]\n      SWAP2 \t\t\tfunction getIssueVotes(string ...\n      SWAP1 \t\t\tfunction getIssueVotes(string ...\n      POP \t\t\tfunction getIssueVotes(string ...\n      JUMP [out]\t\t\tfunction getIssueVotes(string ...\n    tag 102\t\t\t\n      JUMPDEST \t\t\t\n      DUP3 \t\t\t\n      DUP1 \t\t\t\n      SLOAD \t\t\t\n      PUSH [tag] 231\t\t\t\n      SWAP1 \t\t\t\n      PUSH [tag] 119\t\t\t\n      JUMP [in]\t\t\t\n    tag 231\t\t\t\n      JUMPDEST \t\t\t\n      SWAP1 \t\t\t\n      PUSH 0\t\t\t\n      MSTORE \t\t\t\n      PUSH 20\t\t\t\n      PUSH 0\t\t\t\n      KECCAK256 \t\t\t\n      SWAP1 \t\t\t\n      PUSH 1F\t\t\t\n      ADD \t\t\t\n      PUSH 20\t\t\t\n      SWAP1 \t\t\t\n      DIV \t\t\t\n      DUP2 \t\t\t\n      ADD \t\t\t\n      SWAP3 \t\t\t\n      DUP3 \t\t\t\n      PUSH [tag] 233\t\t\t\n      JUMPI \t\t\t\n      PUSH 0\t\t\t\n      DUP6 \t\t\t\n      SSTORE \t\t\t\n      PUSH [tag] 232\t\t\t\n      JUMP \t\t\t\n    tag 233\t\t\t\n      JUMPDEST \t\t\t\n      DUP3 \t\t\t\n      PUSH 1F\t\t\t\n      LT \t\t\t\n      PUSH [tag] 234\t\t\t\n      JUMPI \t\t\t\n      DUP1 \t\t\t\n      MLOAD \t\t\t\n      PUSH FF\t\t\t\n      NOT \t\t\t\n      AND \t\t\t\n      DUP4 \t\t\t\n      DUP1 \t\t\t\n      ADD \t\t\t\n      OR \t\t\t\n      DUP6 \t\t\t\n      SSTORE \t\t\t\n      PUSH [tag] 232\t\t\t\n      JUMP \t\t\t\n    tag 234\t\t\t\n      JUMPDEST \t\t\t\n      DUP3 \t\t\t\n      DUP1 \t\t\t\n      ADD \t\t\t\n      PUSH 1\t\t\t\n      ADD \t\t\t\n      DUP6 \t\t\t\n      SSTORE \t\t\t\n      DUP3 \t\t\t\n      ISZERO \t\t\t\n      PUSH [tag] 232\t\t\t\n      JUMPI \t\t\t\n      SWAP2 \t\t\t\n      DUP3 \t\t\t\n      ADD \t\t\t\n    tag 235\t\t\t\n      JUMPDEST \t\t\t\n      DUP3 \t\t\t\n      DUP2 \t\t\t\n      GT \t\t\t\n      ISZERO \t\t\t\n      PUSH [tag] 236\t\t\t\n      JUMPI \t\t\t\n      DUP3 \t\t\t\n      MLOAD \t\t\t\n      DUP3 \t\t\t\n      SSTORE \t\t\t\n      SWAP2 \t\t\t\n      PUSH 20\t\t\t\n      ADD \t\t\t\n      SWAP2 \t\t\t\n      SWAP1 \t\t\t\n      PUSH 1\t\t\t\n      ADD \t\t\t\n      SWAP1 \t\t\t\n      PUSH [tag] 235\t\t\t\n      JUMP \t\t\t\n    tag 236\t\t\t\n      JUMPDEST \t\t\t\n    tag 232\t\t\t\n      JUMPDEST \t\t\t\n      POP \t\t\t\n      SWAP1 \t\t\t\n      POP \t\t\t\n      PUSH [tag] 237\t\t\t\n      SWAP2 \t\t\t\n      SWAP1 \t\t\t\n      PUSH [tag] 238\t\t\t\n      JUMP [in]\t\t\t\n    tag 237\t\t\t\n      JUMPDEST \t\t\t\n      POP \t\t\t\n      SWAP1 \t\t\t\n      JUMP [out]\t\t\t\n    tag 238\t\t\t\n      JUMPDEST \t\t\t\n    tag 239\t\t\t\n      JUMPDEST \t\t\t\n      DUP1 \t\t\t\n      DUP3 \t\t\t\n      GT \t\t\t\n      ISZERO \t\t\t\n      PUSH [tag] 240\t\t\t\n      JUMPI \t\t\t\n      PUSH 0\t\t\t\n      DUP2 \t\t\t\n      PUSH 0\t\t\t\n      SWAP1 \t\t\t\n      SSTORE \t\t\t\n      POP \t\t\t\n      PUSH 1\t\t\t\n      ADD \t\t\t\n      PUSH [tag] 239\t\t\t\n      JUMP \t\t\t\n    tag 240\t\t\t\n      JUMPDEST \t\t\t\n      POP \t\t\t\n      SWAP1 \t\t\t\n      JUMP [out]\t\t\t\n    tag 242\t\t\t-License-Identifier: MIT\\r\\npr...\n      JUMPDEST \t\t\t-License-Identifier: MIT\\r\\npr...\n      PUSH 0\t\t\t-License-Identifier: MIT\\r\\npr...\n      PUSH [tag] 244\t\t\tntract for transparent civic i...\n      PUSH [tag] 245\t\t\tsparent civic issue tracking a...\n      DUP5 \t\t\t*/\\r\\nco\n      PUSH [tag] 246\t\t\tsparent civic issue tracking a...\n      JUMP [in]\t\t\tsparent civic issue tracking a...\n    tag 245\t\t\tsparent civic issue tracking a...\n      JUMPDEST \t\t\tsparent civic issue tracking a...\n      PUSH [tag] 247\t\t\tntract for transparent civic i...\n      JUMP [in]\t\t\tntract for transparent civic i...\n    tag 244\t\t\tntract for transparent civic i...\n      JUMPDEST \t\t\tntract for transparent civic i...\n      SWAP1 \t\t\t Smart contract for transparen...\n      POP \t\t\t Smart contract for transparen...\n      DUP3 \t\t\t{\\r\\n   \n      DUP2 \t\t\tracke\n      MSTORE \t\t\tcIssueTracker {\\r\\n    \n      PUSH 20\t\t\tue d\n      DUP2 \t\t\tore i\n      ADD \t\t\to store issue de\n      DUP5 \t\t\t  s\n      DUP5 \t\t\t{\\r\\n   \n      DUP5 \t\t\tssu\n      ADD \t\t\tct Issue {\\r\\n    \n      GT \t\t\ttruct Issue {\\r\\n        st\n      ISZERO \t\t\t  \n      PUSH [tag] 248\t\t\t  \n      JUMPI \t\t\t  \n      PUSH 0\t\t\t \n      DUP1 \t\t\tI\n      REVERT \t\t\tg issueId;  \n    tag 248\t\t\t  \n      JUMPDEST \t\t\t  \n      PUSH [tag] 249\t\t\tngoDB ObjectId\\r\\n        stri...\n      DUP5 \t\t\tle;   \n      DUP3 \t\t\tg t\n      DUP6 \t\t\tstr\n      PUSH [tag] 250\t\t\tngoDB ObjectId\\r\\n        stri...\n      JUMP [in]\t\t\tngoDB ObjectId\\r\\n        stri...\n    tag 249\t\t\tngoDB ObjectId\\r\\n        stri...\n      JUMPDEST \t\t\tngoDB ObjectId\\r\\n        stri...\n      POP \t\t\tr\\r\\n * @dev Smart contract fo...\n      SWAP4 \t\t\tr\\r\\n * @dev Smart contract fo...\n      SWAP3 \t\t\tr\\r\\n * @dev Smart contract fo...\n      POP \t\t\tr\\r\\n * @dev Smart contract fo...\n      POP \t\t\tr\\r\\n * @dev Smart contract fo...\n      POP \t\t\tr\\r\\n * @dev Smart contract fo...\n      JUMP [out]\t\t\tr\\r\\n * @dev Smart contract fo...\n    tag 251\t\t\tue title (truncated to 100 cha...\n      JUMPDEST \t\t\tue title (truncated to 100 cha...\n      PUSH 0\t\t\tue title (truncated to 100 cha...\n      DUP2 \t\t\tof rep\n      CALLDATALOAD \t\t\tllet address of repo\n      SWAP1 \t\t\t    // Wallet address of repo\n      POP \t\t\t    // Wallet address of repo\n      PUSH [tag] 253\t\t\t     uint256 timestamp;     //...\n      DUP2 \t\t\t // B\n      PUSH [tag] 254\t\t\t     uint256 timestamp;     //...\n      JUMP [in]\t\t\t     uint256 timestamp;     //...\n    tag 253\t\t\t     uint256 timestamp;     //...\n      JUMPDEST \t\t\t     uint256 timestamp;     //...\n      SWAP3 \t\t\teportedBy;    // Wallet addres...\n      SWAP2 \t\t\teportedBy;    // Wallet addres...\n      POP \t\t\teportedBy;    // Wallet addres...\n      POP \t\t\teportedBy;    // Wallet addres...\n      JUMP [out]\t\t\teportedBy;    // Wallet addres...\n    tag 255\t\t\tp when recorded\\r\\n        uin...\n      JUMPDEST \t\t\tp when recorded\\r\\n        uin...\n      PUSH 0\t\t\tp when recorded\\r\\n        uin...\n      DUP2 \t\t\tbool e\n      CALLDATALOAD \t\t\tved\\r\\n        bool ex\n      SWAP1 \t\t\ttes received\\r\\n        bool e...\n      POP \t\t\ttes received\\r\\n        bool e...\n      PUSH [tag] 257\t\t\t       // Check if issue exist\n      DUP2 \t\t\t exis\n      PUSH [tag] 258\t\t\t       // Check if issue exist\n      JUMP [in]\t\t\t       // Check if issue exist\n    tag 257\t\t\t       // Check if issue exist\n      JUMPDEST \t\t\t       // Check if issue exist\n      SWAP3 \t\t\t/ Total votes received\\r\\n    ...\n      SWAP2 \t\t\t/ Total votes received\\r\\n    ...\n      POP \t\t\t/ Total votes received\\r\\n    ...\n      POP \t\t\t/ Total votes received\\r\\n    ...\n      JUMP [out]\t\t\t/ Total votes received\\r\\n    ...\n    tag 259\t\t\tucture to store vote details\\r...\n      JUMPDEST \t\t\tucture to store vote details\\r...\n      PUSH 0\t\t\tucture to store vote details\\r...\n      DUP3 \t\t\tr\\r\\n\n      PUSH 1F\t\t\tof v\n      DUP4 \t\t\taddres\n      ADD \t\t\tlet address of vo\n      SLT \t\t\t Wallet address of voter\\r\\n \n      PUSH [tag] 261\t\t\t  \n      JUMPI \t\t\t  \n      PUSH 0\t\t\ti\n      DUP1 \t\t\tn\n      REVERT \t\t\t   string is\n    tag 261\t\t\t  \n      JUMPDEST \t\t\t  \n      DUP2 \t\t\t\\n     \n      CALLDATALOAD \t\t\ting voted on\\r\\n      \n      PUSH [tag] 262\t\t\tp;     // When vote was cast\\r...\n      DUP5 \t\t\tte,\n      DUP3 \t\t\te = up\n      PUSH 20\t\t\t // \n      DUP7 \t\t\t      \n      ADD \t\t\trt;          // t\n      PUSH [tag] 242\t\t\tp;     // When vote was cast\\r...\n      JUMP [in]\t\t\tp;     // When vote was cast\\r...\n    tag 262\t\t\tp;     // When vote was cast\\r...\n      JUMPDEST \t\t\tp;     // When vote was cast\\r...\n      SWAP2 \t\t\t timestamp;     // When vote w...\n      POP \t\t\t timestamp;     // When vote w...\n      POP \t\t\tss voter;         // Wallet ad...\n      SWAP3 \t\t\tss voter;         // Wallet ad...\n      SWAP2 \t\t\tss voter;         // Wallet ad...\n      POP \t\t\tss voter;         // Wallet ad...\n      POP \t\t\tss voter;         // Wallet ad...\n      JUMP [out]\t\t\tss voter;         // Wallet ad...\n    tag 263\t\t\tvote\\r\\n    }\\r\\n    \\r\\n    /...\n      JUMPDEST \t\t\tvote\\r\\n    }\\r\\n    \\r\\n    /...\n      PUSH 0\t\t\tvote\\r\\n    }\\r\\n    \\r\\n    /...\n      DUP2 \t\t\t mappi\n      CALLDATALOAD \t\t\t issues;\\r\\n    mappin\n      SWAP1 \t\t\te) public issues;\\r\\n    mappi...\n      POP \t\t\te) public issues;\\r\\n    mappi...\n      PUSH [tag] 265\t\t\t=> Vote[]) public issueVotes;\\...\n      DUP2 \t\t\ts;\\r\\n \n      PUSH [tag] 266\t\t\t=> Vote[]) public issueVotes;\\...\n      JUMP [in]\t\t\t=> Vote[]) public issueVotes;\\...\n    tag 265\t\t\t=> Vote[]) public issueVotes;\\...\n      JUMPDEST \t\t\t=> Vote[]) public issueVotes;\\...\n      SWAP3 \t\t\tng => Issue) public issues;\\r\\...\n      SWAP2 \t\t\tng => Issue) public issues;\\r\\...\n      POP \t\t\tng => Issue) public issues;\\r\\...\n      POP \t\t\tng => Issue) public issues;\\r\\...\n      JUMP [out]\t\t\tng => Issue) public issues;\\r\\...\n    tag 43\t\t\tdress => string[]) public user...\n      JUMPDEST \t\t\tdress => string[]) public user...\n      PUSH 0\t\t\tdress => string[]) public user...\n      PUSH 20\t\t\t \\r\n      DUP3 \t\t\tsVoted;\\r\\n\n      DUP5 \t\t\tpublic \n      SUB \t\t\tl)) public hasVoted;\\r\\n \n      SLT \t\t\t bool)) public hasVoted;\\r\\n  ...\n      ISZERO \t\t\t =\n      PUSH [tag] 268\t\t\t =\n      JUMPI \t\t\t =\n      PUSH 0\t\t\t \n      DUP1 \t\t\ta\n      REVERT \t\t\t // Arrays t\n    tag 268\t\t\t =\n      JUMPDEST \t\t\t =\n      PUSH 0\t\t\tl\n      PUSH [tag] 269\t\t\t Events\\r\\n    event IssueReco...\n      DUP5 \t\t\tring in\n      DUP3 \t\t\t      \n      DUP6 \t\t\tecorded(\\r\n      ADD \t\t\tsueRecorded(\\r\\n        \n      PUSH [tag] 251\t\t\t Events\\r\\n    event IssueReco...\n      JUMP [in]\t\t\t Events\\r\\n    event IssueReco...\n    tag 269\t\t\t Events\\r\\n    event IssueReco...\n      JUMPDEST \t\t\t Events\\r\\n    event IssueReco...\n      SWAP2 \t\t\t  \\r\\n    // Events\\r\\n    eve...\n      POP \t\t\t  \\r\\n    // Events\\r\\n    eve...\n      POP \t\t\tissues\\r\\n    string[] public ...\n      SWAP3 \t\t\ting(string => bool)) public ha...\n      SWAP2 \t\t\ting(string => bool)) public ha...\n      POP \t\t\ting(string => bool)) public ha...\n      POP \t\t\ting(string => bool)) public ha...\n      JUMP [out]\t\t\ting(string => bool)) public ha...\n    tag 49\t\t\tstring title,\\r\\n        addre...\n      JUMPDEST \t\t\tstring title,\\r\\n        addre...\n      PUSH 0\t\t\tstring title,\\r\\n        addre...\n      DUP1 \t\t\tstring title,\\r\\n        addre...\n      PUSH 40\t\t\tde\n      DUP4 \t\t\t   string\n      DUP6 \t\t\td(\\r\\n   \n      SUB \t\t\torded(\\r\\n        string \n      SLT \t\t\teRecorded(\\r\\n        string i...\n      ISZERO \t\t\tVo\n      PUSH [tag] 271\t\t\tVo\n      JUMPI \t\t\tVo\n      PUSH 0\t\t\t \n      DUP1 \t\t\t,\n      REVERT \t\t\tissueId,\\r\\n  \n    tag 271\t\t\tVo\n      JUMPDEST \t\t\tVo\n      PUSH 0\t\t\tl\n      PUSH [tag] 272\t\t\t56 timestamp\\r\\n    );\\r\\n    ...\n      DUP6 \t\t\tatusUpd\n      DUP3 \t\t\tt Issu\n      DUP7 \t\t\t \\r\\n    ev\n      ADD \t\t\t\\n    \\r\\n    event Issue\n      PUSH [tag] 251\t\t\t56 timestamp\\r\\n    );\\r\\n    ...\n      JUMP [in]\t\t\t56 timestamp\\r\\n    );\\r\\n    ...\n    tag 272\t\t\t56 timestamp\\r\\n    );\\r\\n    ...\n      JUMPDEST \t\t\t56 timestamp\\r\\n    );\\r\\n    ...\n      SWAP3 \t\t\t     uint256 timestamp\\r\\n    ...\n      POP \t\t\t     uint256 timestamp\\r\\n    ...\n      POP \t\t\ts indexed voter,\\r\\n        bo...\n      PUSH 20\t\t\tt2\n      DUP4 \t\t\t        u\n      ADD \t\t\ts,\\r\\n        uint25\n      CALLDATALOAD \t\t\tring newStatus,\\r\\n        uin...\n      PUSH FFFFFFFFFFFFFFFF\t\t\t   /**\\r\\n     * @de\n      DUP2 \t\t\t\\n    \\r\n      GT \t\t\t);\\r\\n    \\r\\n    /**\\r\\n     ...\n      ISZERO \t\t\t  \n      PUSH [tag] 273\t\t\t  \n      JUMPI \t\t\t  \n      PUSH 0\t\t\t \n      DUP1 \t\t\tn\n      REVERT \t\t\tcord a new c\n    tag 273\t\t\t  \n      JUMPDEST \t\t\t  \n      PUSH [tag] 274\t\t\tin\\r\\n     * @param _issueId M...\n      DUP6 \t\t\te\\r\\n    \n      DUP3 \t\t\t the i\n      DUP7 \t\t\tObjectId \n      ADD \t\t\toDB ObjectId of the is\n      PUSH [tag] 259\t\t\tin\\r\\n     * @param _issueId M...\n      JUMP [in]\t\t\tin\\r\\n     * @param _issueId M...\n    tag 274\t\t\tin\\r\\n     * @param _issueId M...\n      JUMPDEST \t\t\tin\\r\\n     * @param _issueId M...\n      SWAP2 \t\t\te blockchain\\r\\n     * @param ...\n      POP \t\t\te blockchain\\r\\n     * @param ...\n      POP \t\t\t indexed issueId,\\r\\n        s...\n      SWAP3 \t\t\t    event VoteRecorded(\\r\\n   ...\n      POP \t\t\t    event VoteRecorded(\\r\\n   ...\n      SWAP3 \t\t\t    event VoteRecorded(\\r\\n   ...\n      SWAP1 \t\t\t    event VoteRecorded(\\r\\n   ...\n      POP \t\t\t    event VoteRecorded(\\r\\n   ...\n      JUMP [out]\t\t\t    event VoteRecorded(\\r\\n   ...\n    tag 32\t\t\tf the issue (max 100 chars)\\r\\...\n      JUMPDEST \t\t\tf the issue (max 100 chars)\\r\\...\n      PUSH 0\t\t\tf the issue (max 100 chars)\\r\\...\n      DUP1 \t\t\tf the issue (max 100 chars)\\r\\...\n      PUSH 40\t\t\te\\r\n      DUP4 \t\t\tmemory _t\n      DUP6 \t\t\t  strin\n      SUB \t\t\t      string memory _ti\n      SLT \t\t\t\\r\\n        string memory _tit...\n      ISZERO \t\t\tId\n      PUSH [tag] 276\t\t\tId\n      JUMPI \t\t\tId\n      PUSH 0\t\t\t{\n      DUP1 \t\t\ti\n      REVERT \t\t\t ) public {\\r\n    tag 276\t\t\tId\n      JUMPDEST \t\t\tId\n      PUSH 0\t\t\t \n      PUSH [tag] 277\t\t\tmpty\");\\r\\n        require(byt...\n      DUP6 \t\t\t > 0, \"\n      DUP3 \t\t\te).len\n      DUP7 \t\t\tbytes(_ti\n      ADD \t\t\tire(bytes(_title).leng\n      PUSH [tag] 251\t\t\tmpty\");\\r\\n        require(byt...\n      JUMP [in]\t\t\tmpty\");\\r\\n        require(byt...\n    tag 277\t\t\tmpty\");\\r\\n        require(byt...\n      JUMPDEST \t\t\tmpty\");\\r\\n        require(byt...\n      SWAP3 \t\t\tannot be empty\");\\r\\n        r...\n      POP \t\t\tannot be empty\");\\r\\n        r...\n      POP \t\t\tuire(bytes(_issueId).length > ...\n      PUSH 20\t\t\t_i\n      PUSH [tag] 278\t\t\tlready recorded\");\\r\\n        ...\n      DUP6 \t\t\t_issueI\n      DUP3 \t\t\t  issu\n      DUP7 \t\t\t   \\r\\n    \n      ADD \t\t\t       \\r\\n        issue\n      PUSH [tag] 263\t\t\tlready recorded\");\\r\\n        ...\n      JUMP [in]\t\t\tlready recorded\");\\r\\n        ...\n    tag 278\t\t\tlready recorded\");\\r\\n        ...\n      JUMPDEST \t\t\tlready recorded\");\\r\\n        ...\n      SWAP2 \t\t\t, \"Issue already recorded\");\\r...\n      POP \t\t\t, \"Issue already recorded\");\\r...\n      POP \t\t\t\");\\r\\n        require(!issues...\n      SWAP3 \t\t\tory _issueId,\\r\\n        strin...\n      POP \t\t\tory _issueId,\\r\\n        strin...\n      SWAP3 \t\t\tory _issueId,\\r\\n        strin...\n      SWAP1 \t\t\tory _issueId,\\r\\n        strin...\n      POP \t\t\tory _issueId,\\r\\n        strin...\n      JUMP [out]\t\t\tory _issueId,\\r\\n        strin...\n    tag 26\t\t\t  issueId: _issueId,\\r\\n      ...\n      JUMPDEST \t\t\t  issueId: _issueId,\\r\\n      ...\n      PUSH 0\t\t\t  issueId: _issueId,\\r\\n      ...\n      PUSH 20\t\t\tme\n      DUP3 \t\t\tmp: block\n      DUP5 \t\t\t  times\n      SUB \t\t\t      timestamp: block.\n      SLT \t\t\t          timestamp: block.tim...\n      ISZERO \t\t\t\\n \n      PUSH [tag] 280\t\t\t\\n \n      JUMPI \t\t\t\\n \n      PUSH 0\t\t\t \n      DUP1 \t\t\t \n      REVERT \t\t\tp,\\r\\n        \n    tag 280\t\t\t\\n \n      JUMPDEST \t\t\t\\n \n      PUSH 0\t\t\t \n      DUP3 \t\t\t        \\r\n      ADD \t\t\t);\\r\\n        \\r\\n   \n      CALLDATALOAD \t\t\tue\\r\\n        });\\r\\n        \\...\n      PUSH FFFFFFFFFFFFFFFF\t\t\tId);\\r\\n        user\n      DUP2 \t\t\th(_iss\n      GT \t\t\tpush(_issueId);\\r\\n        use...\n      ISZERO \t\t\tds\n      PUSH [tag] 281\t\t\tds\n      JUMPI \t\t\tds\n      PUSH 0\t\t\td\n      DUP1 \t\t\ts\n      REVERT \t\t\tes[msg.sende\n    tag 281\t\t\tds\n      JUMPDEST \t\t\tds\n      PUSH [tag] 282\t\t\t  \\r\\n        emit IssueRecord...\n      DUP5 \t\t\tnder, b\n      DUP3 \t\t\te, msg\n      DUP6 \t\t\tueId, _ti\n      ADD \t\t\t_issueId, _title, msg.\n      PUSH [tag] 259\t\t\t  \\r\\n        emit IssueRecord...\n      JUMP [in]\t\t\t  \\r\\n        emit IssueRecord...\n    tag 282\t\t\t  \\r\\n        emit IssueRecord...\n      JUMPDEST \t\t\t  \\r\\n        emit IssueRecord...\n      SWAP2 \t\t\t);\\r\\n        \\r\\n        emit...\n      POP \t\t\t);\\r\\n        \\r\\n        emit...\n      POP \t\t\tt: 0,\\r\\n            exists: t...\n      SWAP3 \t\t\tg.sender,\\r\\n            times...\n      SWAP2 \t\t\tg.sender,\\r\\n            times...\n      POP \t\t\tg.sender,\\r\\n            times...\n      POP \t\t\tg.sender,\\r\\n            times...\n      JUMP [out]\t\t\tg.sender,\\r\\n            times...\n    tag 22\t\t\t\\n    \\r\\n    /**\\r\\n     * @d...\n      JUMPDEST \t\t\t\\n    \\r\\n    /**\\r\\n     * @d...\n      PUSH 0\t\t\t\\n    \\r\\n    /**\\r\\n     * @d...\n      DUP1 \t\t\t\\n    \\r\\n    /**\\r\\n     * @d...\n      PUSH 40\t\t\tte\n      DUP4 \t\t\true for u\n      DUP6 \t\t\tsupport\n      SUB \t\t\tam _support True for up\n      SLT \t\t\t@param _support True for upvot...\n      ISZERO \t\t\t *\n      PUSH [tag] 284\t\t\t *\n      JUMPI \t\t\t *\n      PUSH 0\t\t\tw\n      DUP1 \t\t\t \n      REVERT \t\t\tlse for down\n    tag 284\t\t\t *\n      JUMPDEST \t\t\t *\n      PUSH 0\t\t\tI\n      DUP4 \t\t\tmory _iss\n      ADD \t\t\tg memory _issueId\n      CALLDATALOAD \t\t\t        string memory _issueId...\n      PUSH FFFFFFFFFFFFFFFF\t\t\t  ) public {\\r\\n    \n      DUP2 \t\t\tport\\r\\n\n      GT \t\t\tsupport\\r\\n    ) public {\\r\\n ...\n      ISZERO \t\t\tl \n      PUSH [tag] 285\t\t\tl \n      JUMPI \t\t\tl \n      PUSH 0\t\t\ts\n      DUP1 \t\t\t(\n      REVERT \t\t\trequire(issu\n    tag 285\t\t\tl \n      JUMPDEST \t\t\tl \n      PUSH [tag] 286\t\t\te does not exist\");\\r\\n       ...\n      DUP6 \t\t\ter][_is\n      DUP3 \t\t\t[msg.s\n      DUP7 \t\t\te(!hasVot\n      ADD \t\t\tquire(!hasVoted[msg.se\n      PUSH [tag] 259\t\t\te does not exist\");\\r\\n       ...\n      JUMP [in]\t\t\te does not exist\");\\r\\n       ...\n    tag 286\t\t\te does not exist\");\\r\\n       ...\n      JUMPDEST \t\t\te does not exist\");\\r\\n       ...\n      SWAP3 \t\t\tsts, \"Issue does not exist\");\\...\n      POP \t\t\tsts, \"Issue does not exist\");\\...\n      POP \t\t\t/\\r\\n    function recordVote(\\...\n      PUSH 20\t\t\t\\n \n      PUSH [tag] 287\t\t\tte = Vote({\\r\\n            vot...\n      DUP6 \t\t\t,\\r\\n    \n      DUP3 \t\t\tsg.sen\n      DUP7 \t\t\t   voter:\n      ADD \t\t\t       voter: msg.send\n      PUSH [tag] 255\t\t\tte = Vote({\\r\\n            vot...\n      JUMP [in]\t\t\tte = Vote({\\r\\n            vot...\n    tag 287\t\t\tte = Vote({\\r\\n            vot...\n      JUMPDEST \t\t\tte = Vote({\\r\\n            vot...\n      SWAP2 \t\t\tmory newVote = Vote({\\r\\n     ...\n      POP \t\t\tmory newVote = Vote({\\r\\n     ...\n      POP \t\t\td on this issue\");\\r\\n        ...\n      SWAP3 \t\t\te on\\r\\n     * @param _support...\n      POP \t\t\te on\\r\\n     * @param _support...\n      SWAP3 \t\t\te on\\r\\n     * @param _support...\n      SWAP1 \t\t\te on\\r\\n     * @param _support...\n      POP \t\t\te on\\r\\n     * @param _support...\n      JUMP [out]\t\t\te on\\r\\n     * @param _support...\n    tag 66\t\t\td,\\r\\n            timestamp: b...\n      JUMPDEST \t\t\td,\\r\\n            timestamp: b...\n      PUSH 0\t\t\td,\\r\\n            timestamp: b...\n      DUP1 \t\t\td,\\r\\n            timestamp: b...\n      PUSH 40\t\t\t  \n      DUP4 \t\t\tnewVote);\n      DUP6 \t\t\tId].pus\n      SUB \t\t\tssueId].push(newVote);\\r\n      SLT \t\t\ts[_issueId].push(newVote);\\r\\n...\n      ISZERO \t\t\tot\n      PUSH [tag] 289\t\t\tot\n      JUMPI \t\t\tot\n      PUSH 0\t\t\tm\n      DUP1 \t\t\te\n      REVERT \t\t\t hasVoted[ms\n    tag 289\t\t\tot\n      JUMPDEST \t\t\tot\n      PUSH 0\t\t\t \n      DUP4 \t\t\tt) {\\r\\n   \n      ADD \t\t\tpport) {\\r\\n       \n      CALLDATALOAD \t\t\t      if (_support) {\\r\\n     ...\n      PUSH FFFFFFFFFFFFFFFF\t\t\tunt++;\\r\\n        }\\r\n      DUP2 \t\t\t].vote\n      GT \t\t\teId].voteCount++;\\r\\n        }...\n      ISZERO \t\t\tss\n      PUSH [tag] 290\t\t\tss\n      JUMPI \t\t\tss\n      PUSH 0\t\t\t \n      DUP1 \t\t\t \n      REVERT \t\t\t     \\r\\n     \n    tag 290\t\t\tss\n      JUMPDEST \t\t\tss\n      PUSH [tag] 291\t\t\teId, msg.sender, _support, blo...\n      DUP6 \t\t\t  \\r\\n   \n      DUP3 \t\t\t    }\\r\n      DUP7 \t\t\tmestamp);\n      ADD \t\t\tk.timestamp);\\r\\n    }\\r\\n\n      PUSH [tag] 259\t\t\teId, msg.sender, _support, blo...\n      JUMP [in]\t\t\teId, msg.sender, _support, blo...\n    tag 291\t\t\teId, msg.sender, _support, blo...\n      JUMPDEST \t\t\teId, msg.sender, _support, blo...\n      SWAP3 \t\t\trded(_issueId, msg.sender, _su...\n      POP \t\t\trded(_issueId, msg.sender, _su...\n      POP \t\t\tssueId] = true;\\r\\n        \\r\\...\n      PUSH 20\t\t\t\\n \n      DUP4 \t\t\tD to quer\n      ADD \t\t\tue ID to query\\r\\n  \n      CALLDATALOAD \t\t\t _issueId Issue ID to query\\r\\...\n      PUSH FFFFFFFFFFFFFFFF\t\t\t(string memory _is\n      DUP2 \t\t\tgetIss\n      GT \t\t\ton getIssue(string memory _iss\n      ISZERO \t\t\tct\n      PUSH [tag] 292\t\t\tct\n      JUMPI \t\t\tct\n      PUSH 0\t\t\tv\n      DUP1 \t\t\ti\n      REVERT \t\t\td) public vi\n    tag 292\t\t\tct\n      JUMPDEST \t\t\tct\n      PUSH [tag] 293\t\t\tng memory issueId,\\r\\n        ...\n      DUP6 \t\t\t   addr\n      DUP3 \t\t\te,\\r\\n  \n      DUP7 \t\t\tmemory ti\n      ADD \t\t\ting memory title,\\r\\n   \n      PUSH [tag] 259\t\t\tng memory issueId,\\r\\n        ...\n      JUMP [in]\t\t\tng memory issueId,\\r\\n        ...\n    tag 293\t\t\tng memory issueId,\\r\\n        ...\n      JUMPDEST \t\t\tng memory issueId,\\r\\n        ...\n      SWAP2 \t\t\t      string memory issueId,\\r...\n      POP \t\t\t      string memory issueId,\\r...\n      POP \t\t\t issue details\\r\\n     * @para...\n      SWAP3 \t\t\t    issueVotes[_issueId].push(...\n      POP \t\t\t    issueVotes[_issueId].push(...\n      SWAP3 \t\t\t    issueVotes[_issueId].push(...\n      SWAP1 \t\t\t    issueVotes[_issueId].push(...\n      POP \t\t\t    issueVotes[_issueId].push(...\n      JUMP [out]\t\t\t    issueVotes[_issueId].push(...\n    tag 60\t\t\t uint256 timestamp,\\r\\n       ...\n      JUMPDEST \t\t\t uint256 timestamp,\\r\\n       ...\n      PUSH 0\t\t\t uint256 timestamp,\\r\\n       ...\n      DUP1 \t\t\t uint256 timestamp,\\r\\n       ...\n      PUSH 40\t\t\tre\n      DUP4 \t\t\t];\\r\\n     \n      DUP6 \t\t\t[_issue\n      SUB \t\t\tsues[_issueId];\\r\\n      \n      SLT \t\t\t= issues[_issueId];\\r\\n       ...\n      ISZERO \t\t\tue\n      PUSH [tag] 295\t\t\tue\n      JUMPI \t\t\tue\n      PUSH 0\t\t\t \n      DUP1 \t\t\t \n      REVERT \t\t\t (\\r\\n        \n    tag 295\t\t\tue\n      JUMPDEST \t\t\tue\n      PUSH 0\t\t\tt\n      DUP4 \t\t\tissue.rep\n      ADD \t\t\t    issue.reporte\n      CALLDATALOAD \t\t\tle,\\r\\n            issue.repor...\n      PUSH FFFFFFFFFFFFFFFF\t\t\tstamp,\\r\\n          \n      DUP2 \t\t\tsue.ti\n      GT \t\t\t issue.timestamp,\\r\\n         ...\n      ISZERO \t\t\t  \n      PUSH [tag] 296\t\t\t  \n      JUMPI \t\t\t  \n      PUSH 0\t\t\tu\n      DUP1 \t\t\te\n      REVERT \t\t\tsue.voteCoun\n    tag 296\t\t\t  \n      JUMPDEST \t\t\t  \n      PUSH [tag] 297\t\t\tts\\r\\n        );\\r\\n    }\\r\\n ...\n      DUP6 \t\t\tote cou\n      DUP3 \t\t\tdev Ge\n      DUP7 \t\t\t*\\r\\n     *\n      ADD \t\t\t  /**\\r\\n     * @dev Get\n      PUSH [tag] 259\t\t\tts\\r\\n        );\\r\\n    }\\r\\n ...\n      JUMP [in]\t\t\tts\\r\\n        );\\r\\n    }\\r\\n ...\n    tag 297\t\t\tts\\r\\n        );\\r\\n    }\\r\\n ...\n      JUMPDEST \t\t\tts\\r\\n        );\\r\\n    }\\r\\n ...\n      SWAP3 \t\t\tissue.exists\\r\\n        );\\r\\n...\n      POP \t\t\tissue.exists\\r\\n        );\\r\\n...\n      POP \t\t\tsueId,\\r\\n            issue.ti...\n      PUSH 20\t\t\to \n      PUSH [tag] 298\t\t\ttion getVoteCount(string memor...\n      DUP6 \t\t\tlic vie\n      DUP3 \t\t\tueId) \n      DUP7 \t\t\tmemory _i\n      ADD \t\t\ting memory _issueId) p\n      PUSH [tag] 263\t\t\ttion getVoteCount(string memor...\n      JUMP [in]\t\t\ttion getVoteCount(string memor...\n    tag 298\t\t\ttion getVoteCount(string memor...\n      JUMPDEST \t\t\ttion getVoteCount(string memor...\n      SWAP2 \t\t\t\\r\\n    function getVoteCount(...\n      POP \t\t\t\\r\\n    function getVoteCount(...\n      POP \t\t\t * @param _issueId Issue ID to...\n      SWAP3 \t\t\tmemory issue = issues[_issueId...\n      POP \t\t\tmemory issue = issues[_issueId...\n      SWAP3 \t\t\tmemory issue = issues[_issueId...\n      SWAP1 \t\t\tmemory issue = issues[_issueId...\n      POP \t\t\tmemory issue = issues[_issueId...\n      JUMP [out]\t\t\tmemory issue = issues[_issueId...\n    tag 38\t\t\t       require(issues[_issueId...\n      JUMPDEST \t\t\t       require(issues[_issueId...\n      PUSH 0\t\t\t       require(issues[_issueId...\n      PUSH 20\t\t\t\\r\\n\n      DUP3 \t\t\t].voteCou\n      DUP5 \t\t\t[_issue\n      SUB \t\t\tsues[_issueId].voteCoun\n      SLT \t\t\tn issues[_issueId].voteCount;\\...\n      ISZERO \t\t\ttu\n      PUSH [tag] 300\t\t\ttu\n      JUMPI \t\t\ttu\n      PUSH 0\t\t\t \n      DUP1 \t\t\t\\r\n      REVERT \t\t\t}\\r\\n    \\r\\n   \n    tag 300\t\t\ttu\n      JUMPDEST \t\t\ttu\n      PUSH 0\t\t\ts\n      PUSH [tag] 301\t\t\tId Issue ID to query\\r\\n     *...\n      DUP5 \t\t\tetIssue\n      DUP3 \t\t\tunctio\n      DUP6 \t\t\t  */\\r\\n   \n      ADD \t\t\t\\n     */\\r\\n    function\n      PUSH [tag] 263\t\t\tId Issue ID to query\\r\\n     *...\n      JUMP [in]\t\t\tId Issue ID to query\\r\\n     *...\n    tag 301\t\t\tId Issue ID to query\\r\\n     *...\n      JUMPDEST \t\t\tId Issue ID to query\\r\\n     *...\n      SWAP2 \t\t\tram _issueId Issue ID to query...\n      POP \t\t\tram _issueId Issue ID to query...\n      POP \t\t\t @dev Get all votes for an iss...\n      SWAP3 \t\t\t        return issues[_issueId...\n      SWAP2 \t\t\t        return issues[_issueId...\n      POP \t\t\t        return issues[_issueId...\n      POP \t\t\t        return issues[_issueId...\n      JUMP [out]\t\t\t        return issues[_issueId...\n    tag 70\t\t\tueId) public view returns (Vot...\n      JUMPDEST \t\t\tueId) public view returns (Vot...\n      PUSH 0\t\t\tueId) public view returns (Vot...\n      DUP1 \t\t\tueId) public view returns (Vot...\n      PUSH 40\t\t\tn \n      DUP4 \t\t\t       re\n      DUP6 \t\t\tist\");\\r\n      SUB \t\t\tt exist\");\\r\\n        ret\n      SLT \t\t\ts not exist\");\\r\\n        retu...\n      ISZERO \t\t\tdo\n      PUSH [tag] 303\t\t\tdo\n      JUMPI \t\t\tdo\n      PUSH 0\t\t\ts\n      DUP1 \t\t\t_\n      REVERT \t\t\teVotes[_issu\n    tag 303\t\t\tdo\n      JUMPDEST \t\t\tdo\n      PUSH 0\t\t\tG\n      PUSH [tag] 304\t\t\ty a user\\r\\n     * @param _use...\n      DUP6 \t\t\t query\\r\n      DUP3 \t\t\tddress\n      DUP7 \t\t\tuser User\n      ADD \t\t\tam _user User address \n      PUSH [tag] 263\t\t\ty a user\\r\\n     * @param _use...\n      JUMP [in]\t\t\ty a user\\r\\n     * @param _use...\n    tag 304\t\t\ty a user\\r\\n     * @param _use...\n      JUMPDEST \t\t\ty a user\\r\\n     * @param _use...\n      SWAP3 \t\t\treported by a user\\r\\n     * @...\n      POP \t\t\treported by a user\\r\\n     * @...\n      POP \t\t\t\\r\\n    \\r\\n    /**\\r\\n     * ...\n      PUSH 20\t\t\t) \n      PUSH [tag] 305\t\t\ting[] memory) {\\r\\n        ret...\n      DUP6 \t\t\tser];\\r\\n\n      DUP3 \t\t\tIssues\n      DUP7 \t\t\treturn us\n      ADD \t\t\t    return userIssues[\n      PUSH [tag] 263\t\t\ting[] memory) {\\r\\n        ret...\n      JUMP [in]\t\t\ting[] memory) {\\r\\n        ret...\n    tag 305\t\t\ting[] memory) {\\r\\n        ret...\n      JUMPDEST \t\t\ting[] memory) {\\r\\n        ret...\n      SWAP2 \t\t\tturns (string[] memory) {\\r\\n ...\n      POP \t\t\tturns (string[] memory) {\\r\\n ...\n      POP \t\t\tn getUserIssues(address _user)...\n      SWAP3 \t\t\ts, \"Issue does not exist\");\\r\\...\n      POP \t\t\ts, \"Issue does not exist\");\\r\\...\n      SWAP3 \t\t\ts, \"Issue does not exist\");\\r\\...\n      SWAP1 \t\t\ts, \"Issue does not exist\");\\r\\...\n      POP \t\t\ts, \"Issue does not exist\");\\r\\...\n      JUMP [out]\t\t\ts, \"Issue does not exist\");\\r\\...\n    tag 306\t\t\t   * @dev Check if user has vo...\n      JUMPDEST \t\t\t   * @dev Check if user has vo...\n      PUSH 0\t\t\t   * @dev Check if user has vo...\n      PUSH [tag] 308\t\t\t   function checkIfVoted(addre...\n      DUP4 \t\t\t) p\n      DUP4 \t\t\t_issue\n      PUSH [tag] 309\t\t\t   function checkIfVoted(addre...\n      JUMP [in]\t\t\t   function checkIfVoted(addre...\n    tag 308\t\t\t   function checkIfVoted(addre...\n      JUMPDEST \t\t\t   function checkIfVoted(addre...\n      SWAP1 \t\t\tID\\r\\n     */\\r\\n    function ...\n      POP \t\t\tID\\r\\n     */\\r\\n    function ...\n      SWAP3 \t\t\teId Issue ID\\r\\n     */\\r\\n   ...\n      SWAP2 \t\t\teId Issue ID\\r\\n     */\\r\\n   ...\n      POP \t\t\teId Issue ID\\r\\n     */\\r\\n   ...\n      POP \t\t\teId Issue ID\\r\\n     */\\r\\n   ...\n      JUMP [out]\t\t\teId Issue ID\\r\\n     */\\r\\n   ...\n    tag 310\t\t\tturns (bool) {\\r\\n        retu...\n      JUMPDEST \t\t\tturns (bool) {\\r\\n        retu...\n      PUSH 0\t\t\tturns (bool) {\\r\\n        retu...\n      PUSH [tag] 312\t\t\tunction getTotalIssues() publi...\n      DUP4 \t\t\tds.\n      DUP4 \t\t\tllIssu\n      PUSH [tag] 313\t\t\tunction getTotalIssues() publi...\n      JUMP [in]\t\t\tunction getTotalIssues() publi...\n    tag 312\t\t\tunction getTotalIssues() publi...\n      JUMPDEST \t\t\tunction getTotalIssues() publi...\n      SWAP1 \t\t\t     */\\r\\n    function getTot...\n      POP \t\t\t     */\\r\\n    function getTot...\n      SWAP3 \t\t\trecorded\\r\\n     */\\r\\n    fun...\n      SWAP2 \t\t\trecorded\\r\\n     */\\r\\n    fun...\n      POP \t\t\trecorded\\r\\n     */\\r\\n    fun...\n      POP \t\t\trecorded\\r\\n     */\\r\\n    fun...\n      JUMP [out]\t\t\trecorded\\r\\n     */\\r\\n    fun...\n    tag 314\t\t\t}\\r\\n    \\r\\n    /**\\r\\n     *...\n      JUMPDEST \t\t\t}\\r\\n    \\r\\n    /**\\r\\n     *...\n      PUSH [tag] 316\t\t\tffset Starting index\\r\\n  \n      DUP2 \t\t\tex\\r\\n \n      PUSH [tag] 317\t\t\tffset Starting index\\r\\n  \n      JUMP [in]\t\t\tffset Starting index\\r\\n  \n    tag 316\t\t\tffset Starting index\\r\\n  \n      JUMPDEST \t\t\tffset Starting index\\r\\n  \n      DUP3 \t\t\tam \n      MSTORE \t\t\t * @param _offset Starting ind...\n      POP \t\t\tted)\\r\\n     * @param _offset ...\n      POP \t\t\tted)\\r\\n     * @param _offset ...\n      JUMP [out]\t\t\tted)\\r\\n     * @param _offset ...\n    tag 318\t\t\tlimit Number of records to ret...\n      JUMPDEST \t\t\tlimit Number of records to ret...\n      PUSH [tag] 320\t\t\tuint256 _limit) public v\n      DUP2 \t\t\tblic \n      PUSH [tag] 317\t\t\tuint256 _limit) public v\n      JUMP [in]\t\t\tuint256 _limit) public v\n    tag 320\t\t\tuint256 _limit) public v\n      JUMPDEST \t\t\tuint256 _limit) public v\n      DUP3 \t\t\tset\n      MSTORE \t\t\t56 _offset, uint256 _limit) pu...\n      POP \t\t\tsues(uint256 _offset, uint256 ...\n      POP \t\t\tsues(uint256 _offset, uint256 ...\n      JUMP [out]\t\t\tsues(uint256 _offset, uint256 ...\n    tag 321\t\t\trequire(_offset < allIssueIds....\n      JUMPDEST \t\t\trequire(_offset < allIssueIds....\n      PUSH 0\t\t\trequire(_offset < allIssueIds....\n      PUSH [tag] 323\t\t\tend = allIssueIds.length;\\r\\n ...\n      DUP3 \t\t\tring[\n      PUSH [tag] 324\t\t\tend = allIssueIds.length;\\r\\n ...\n      JUMP [in]\t\t\tend = allIssueIds.length;\\r\\n ...\n    tag 323\t\t\tend = allIssueIds.length;\\r\\n ...\n      JUMPDEST \t\t\tend = allIssueIds.length;\\r\\n ...\n      PUSH [tag] 325\t\t\t new string[](end - _offset);\\...\n      DUP2 \t\t\t     r\n      DUP6 \t\t\t   \n      PUSH [tag] 326\t\t\t new string[](end - _offset);\\...\n      JUMP [in]\t\t\t new string[](end - _offset);\\...\n    tag 325\t\t\t new string[](end - _offset);\\...\n      JUMPDEST \t\t\t new string[](end - _offset);\\...\n      SWAP4 \t\t\tesult = new string[](end - _of...\n      POP \t\t\tesult = new string[](end - _of...\n      DUP4 \t\t\tueI\n      PUSH 20\t\t\tn re\n      DUP3 \t\t\t   ret\n      MUL \t\t\t       return res\n      DUP6 \t\t\t  \\r\n      ADD \t\t\t      \\r\\n        return resu\n      PUSH [tag] 327\t\t\t\n      DUP6 \t\t\t\n      PUSH [tag] 328\t\t\t\n      JUMP [in]\t\t\t\n    tag 327\t\t\t\n      JUMPDEST \t\t\t\n      DUP1 \t\t\t\n      PUSH 0\t\t\t\n    tag 329\t\t\t\n      JUMPDEST \t\t\t\n      DUP6 \t\t\t\n      DUP2 \t\t\t\n      LT \t\t\t\n      ISZERO \t\t\t\n      PUSH [tag] 331\t\t\t\n      JUMPI \t\t\t\n      DUP5 \t\t\t\n      DUP5 \t\t\t\n      SUB \t\t\t\n      DUP10 \t\t\t\n      MSTORE \t\t\t\n      DUP2 \t\t\t\n      MLOAD \t\t\t\n      PUSH [tag] 332\t\t\t\n      DUP6 \t\t\t\n      DUP3 \t\t\t\n      PUSH [tag] 306\t\t\t\n      JUMP [in]\t\t\t\n    tag 332\t\t\t\n      JUMPDEST \t\t\t\n      SWAP5 \t\t\t\n      POP \t\t\t\n      PUSH [tag] 333\t\t\t\n      DUP4 \t\t\t\n      PUSH [tag] 334\t\t\t\n      JUMP [in]\t\t\t\n    tag 333\t\t\t\n      JUMPDEST \t\t\t\n      SWAP3 \t\t\t\n      POP \t\t\t\n      PUSH 20\t\t\t\n      DUP11 \t\t\t\n      ADD \t\t\t\n      SWAP10 \t\t\t\n      POP \t\t\t\n      POP \t\t\t\n      PUSH 1\t\t\t\n      DUP2 \t\t\t\n      ADD \t\t\t\n      SWAP1 \t\t\t\n      POP \t\t\t\n      PUSH [tag] 329\t\t\t\n      JUMP \t\t\t\n    tag 331\t\t\t\n      JUMPDEST \t\t\t\n      POP \t\t\t\n      DUP3 \t\t\t\n      SWAP8 \t\t\t\n      POP \t\t\t\n      DUP8 \t\t\t\n      SWAP6 \t\t\t\n      POP \t\t\t\n      POP \t\t\t.length) {\\r\\n            end ...\n      POP \t\t\t.length) {\\r\\n            end ...\n      POP \t\t\t.length) {\\r\\n            end ...\n      POP \t\t\t.length) {\\r\\n            end ...\n      POP \t\t\t.length) {\\r\\n            end ...\n      SWAP3 \t\t\t.length) {\\r\\n            end ...\n      SWAP2 \t\t\t.length) {\\r\\n            end ...\n      POP \t\t\t.length) {\\r\\n            end ...\n      POP \t\t\t.length) {\\r\\n            end ...\n      JUMP [out]\t\t\t.length) {\\r\\n            end ...\n    tag 335\t\t\t\n      JUMPDEST \t\t\t\n      PUSH 0\t\t\t\n      PUSH [tag] 337\t\t\t\n      DUP3 \t\t\t\n      PUSH [tag] 338\t\t\t\n      JUMP [in]\t\t\t\n    tag 337\t\t\t\n      JUMPDEST \t\t\t\n      PUSH [tag] 339\t\t\t\n      DUP2 \t\t\t\n      DUP6 \t\t\t\n      PUSH [tag] 340\t\t\t\n      JUMP [in]\t\t\t\n    tag 339\t\t\t\n      JUMPDEST \t\t\t\n      SWAP4 \t\t\t\n      POP \t\t\t\n      DUP4 \t\t\t\n      PUSH 20\t\t\t\n      DUP3 \t\t\t\n      MUL \t\t\t\n      DUP6 \t\t\t\n      ADD \t\t\t\n      PUSH [tag] 341\t\t\t\n      DUP6 \t\t\t\n      PUSH [tag] 342\t\t\t\n      JUMP [in]\t\t\t\n    tag 341\t\t\t\n      JUMPDEST \t\t\t\n      DUP1 \t\t\t\n      PUSH 0\t\t\t\n    tag 343\t\t\t\n      JUMPDEST \t\t\t\n      DUP6 \t\t\t\n      DUP2 \t\t\t\n      LT \t\t\t\n      ISZERO \t\t\t\n      PUSH [tag] 345\t\t\t\n      JUMPI \t\t\t\n      DUP5 \t\t\t\n      DUP5 \t\t\t\n      SUB \t\t\t\n      DUP10 \t\t\t\n      MSTORE \t\t\t\n      DUP2 \t\t\t\n      MLOAD \t\t\t\n      PUSH [tag] 346\t\t\t\n      DUP6 \t\t\t\n      DUP3 \t\t\t\n      PUSH [tag] 310\t\t\t\n      JUMP [in]\t\t\t\n    tag 346\t\t\t\n      JUMPDEST \t\t\t\n      SWAP5 \t\t\t\n      POP \t\t\t\n      PUSH [tag] 347\t\t\t\n      DUP4 \t\t\t\n      PUSH [tag] 348\t\t\t\n      JUMP [in]\t\t\t\n    tag 347\t\t\t\n      JUMPDEST \t\t\t\n      SWAP3 \t\t\t\n      POP \t\t\t\n      PUSH 20\t\t\t\n      DUP11 \t\t\t\n      ADD \t\t\t\n      SWAP10 \t\t\t\n      POP \t\t\t\n      POP \t\t\t\n      PUSH 1\t\t\t\n      DUP2 \t\t\t\n      ADD \t\t\t\n      SWAP1 \t\t\t\n      POP \t\t\t\n      PUSH [tag] 343\t\t\t\n      JUMP \t\t\t\n    tag 345\t\t\t\n      JUMPDEST \t\t\t\n      POP \t\t\t\n      DUP3 \t\t\t\n      SWAP8 \t\t\t\n      POP \t\t\t\n      DUP8 \t\t\t\n      SWAP6 \t\t\t\n      POP \t\t\t\n      POP \t\t\t\n      POP \t\t\t\n      POP \t\t\t\n      POP \t\t\t\n      POP \t\t\t\n      SWAP3 \t\t\t\n      SWAP2 \t\t\t\n      POP \t\t\t\n      POP \t\t\t\n      JUMP [out]\t\t\t\n    tag 349\t\t\t\n      JUMPDEST \t\t\t\n      PUSH [tag] 351\t\t\t\n      DUP2 \t\t\t\n      PUSH [tag] 352\t\t\t\n      JUMP [in]\t\t\t\n    tag 351\t\t\t\n      JUMPDEST \t\t\t\n      DUP3 \t\t\t\n      MSTORE \t\t\t\n      POP \t\t\t\n      POP \t\t\t\n      JUMP [out]\t\t\t\n    tag 353\t\t\t\n      JUMPDEST \t\t\t\n      PUSH [tag] 355\t\t\t\n      DUP2 \t\t\t\n      PUSH [tag] 352\t\t\t\n      JUMP [in]\t\t\t\n    tag 355\t\t\t\n      JUMPDEST \t\t\t\n      DUP3 \t\t\t\n      MSTORE \t\t\t\n      POP \t\t\t\n      POP \t\t\t\n      JUMP [out]\t\t\t\n    tag 309\t\t\t\n      JUMPDEST \t\t\t\n      PUSH 0\t\t\t\n      PUSH [tag] 357\t\t\t\n      DUP3 \t\t\t\n      PUSH [tag] 358\t\t\t\n      JUMP [in]\t\t\t\n    tag 357\t\t\t\n      JUMPDEST \t\t\t\n      PUSH [tag] 359\t\t\t\n      DUP2 \t\t\t\n      DUP6 \t\t\t\n      PUSH [tag] 360\t\t\t\n      JUMP [in]\t\t\t\n    tag 359\t\t\t\n      JUMPDEST \t\t\t\n      SWAP4 \t\t\t\n      POP \t\t\t\n      PUSH [tag] 361\t\t\t\n      DUP2 \t\t\t\n      DUP6 \t\t\t\n      PUSH 20\t\t\t\n      DUP7 \t\t\t\n      ADD \t\t\t\n      PUSH [tag] 362\t\t\t\n      JUMP [in]\t\t\t\n    tag 361\t\t\t\n      JUMPDEST \t\t\t\n      PUSH [tag] 363\t\t\t\n      DUP2 \t\t\t\n      PUSH [tag] 364\t\t\t\n      JUMP [in]\t\t\t\n    tag 363\t\t\t\n      JUMPDEST \t\t\t\n      DUP5 \t\t\t\n      ADD \t\t\t\n      SWAP2 \t\t\t\n      POP \t\t\t\n      POP \t\t\t\n      SWAP3 \t\t\t\n      SWAP2 \t\t\t\n      POP \t\t\t\n      POP \t\t\t\n      JUMP [out]\t\t\t\n    tag 365\t\t\t\n      JUMPDEST \t\t\t\n      PUSH 0\t\t\t\n      PUSH [tag] 367\t\t\t\n      DUP3 \t\t\t\n      PUSH [tag] 358\t\t\t\n      JUMP [in]\t\t\t\n    tag 367\t\t\t\n      JUMPDEST \t\t\t\n      PUSH [tag] 368\t\t\t\n      DUP2 \t\t\t\n      DUP6 \t\t\t\n      PUSH [tag] 369\t\t\t\n      JUMP [in]\t\t\t\n    tag 368\t\t\t\n      JUMPDEST \t\t\t\n      SWAP4 \t\t\t\n      POP \t\t\t\n      PUSH [tag] 370\t\t\t\n      DUP2 \t\t\t\n      DUP6 \t\t\t\n      PUSH 20\t\t\t\n      DUP7 \t\t\t\n      ADD \t\t\t\n      PUSH [tag] 362\t\t\t\n      JUMP [in]\t\t\t\n    tag 370\t\t\t\n      JUMPDEST \t\t\t\n      PUSH [tag] 371\t\t\t\n      DUP2 \t\t\t\n      PUSH [tag] 364\t\t\t\n      JUMP [in]\t\t\t\n    tag 371\t\t\t\n      JUMPDEST \t\t\t\n      DUP5 \t\t\t\n      ADD \t\t\t\n      SWAP2 \t\t\t\n      POP \t\t\t\n      POP \t\t\t\n      SWAP3 \t\t\t\n      SWAP2 \t\t\t\n      POP \t\t\t\n      POP \t\t\t\n      JUMP [out]\t\t\t\n    tag 372\t\t\t\n      JUMPDEST \t\t\t\n      PUSH 0\t\t\t\n      PUSH [tag] 374\t\t\t\n      DUP3 \t\t\t\n      PUSH [tag] 358\t\t\t\n      JUMP [in]\t\t\t\n    tag 374\t\t\t\n      JUMPDEST \t\t\t\n      PUSH [tag] 375\t\t\t\n      DUP2 \t\t\t\n      DUP6 \t\t\t\n      PUSH [tag] 376\t\t\t\n      JUMP [in]\t\t\t\n    tag 375\t\t\t\n      JUMPDEST \t\t\t\n      SWAP4 \t\t\t\n      POP \t\t\t\n      PUSH [tag] 377\t\t\t\n      DUP2 \t\t\t\n      DUP6 \t\t\t\n      PUSH 20\t\t\t\n      DUP7 \t\t\t\n      ADD \t\t\t\n      PUSH [tag] 362\t\t\t\n      JUMP [in]\t\t\t\n    tag 377\t\t\t\n      JUMPDEST \t\t\t\n      DUP1 \t\t\t\n      DUP5 \t\t\t\n      ADD \t\t\t\n      SWAP2 \t\t\t\n      POP \t\t\t\n      POP \t\t\t\n      SWAP3 \t\t\t\n      SWAP2 \t\t\t\n      POP \t\t\t\n      POP \t\t\t\n      JUMP [out]\t\t\t\n    tag 378\t\t\t\n      JUMPDEST \t\t\t\n      PUSH 0\t\t\t\n      PUSH [tag] 380\t\t\t\n      PUSH 1B\t\t\t\n      DUP4 \t\t\t\n      PUSH [tag] 369\t\t\t\n      JUMP [in]\t\t\t\n    tag 380\t\t\t\n      JUMPDEST \t\t\t\n      SWAP2 \t\t\t\n      POP \t\t\t\n      PUSH 416C726561647920766F746564206F6E20746869732069737375650000000000\t\t\t\n      PUSH 0\t\t\t\n      DUP4 \t\t\t\n      ADD \t\t\t\n      MSTORE \t\t\t\n      PUSH 20\t\t\t\n      DUP3 \t\t\t\n      ADD \t\t\t\n      SWAP1 \t\t\t\n      POP \t\t\t\n      SWAP2 \t\t\t\n      SWAP1 \t\t\t\n      POP \t\t\t\n      JUMP [out]\t\t\t\n    tag 381\t\t\t\n      JUMPDEST \t\t\t\n      PUSH 0\t\t\t\n      PUSH [tag] 383\t\t\t\n      PUSH 14\t\t\t\n      DUP4 \t\t\t\n      PUSH [tag] 369\t\t\t\n      JUMP [in]\t\t\t\n    tag 383\t\t\t\n      JUMPDEST \t\t\t\n      SWAP2 \t\t\t\n      POP \t\t\t\n      PUSH 497373756520646F6573206E6F74206578697374000000000000000000000000\t\t\t\n      PUSH 0\t\t\t\n      DUP4 \t\t\t\n      ADD \t\t\t\n      MSTORE \t\t\t\n      PUSH 20\t\t\t\n      DUP3 \t\t\t\n      ADD \t\t\t\n      SWAP1 \t\t\t\n      POP \t\t\t\n      SWAP2 \t\t\t\n      SWAP1 \t\t\t\n      POP \t\t\t\n      JUMP [out]\t\t\t\n    tag 384\t\t\t\n      JUMPDEST \t\t\t\n      PUSH 0\t\t\t\n      PUSH [tag] 386\t\t\t\n      PUSH 15\t\t\t\n      DUP4 \t\t\t\n      PUSH [tag] 369\t\t\t\n      JUMP [in]\t\t\t\n    tag 386\t\t\t\n      JUMPDEST \t\t\t\n      SWAP2 \t\t\t\n      POP \t\t\t\n      PUSH 5469746C652063616E6E6F7420626520656D7074790000000000000000000000\t\t\t\n      PUSH 0\t\t\t\n      DUP4 \t\t\t\n      ADD \t\t\t\n      MSTORE \t\t\t\n      PUSH 20\t\t\t\n      DUP3 \t\t\t\n      ADD \t\t\t\n      SWAP1 \t\t\t\n      POP \t\t\t\n      SWAP2 \t\t\t\n      SWAP1 \t\t\t\n      POP \t\t\t\n      JUMP [out]\t\t\t\n    tag 387\t\t\t\n      JUMPDEST \t\t\t\n      PUSH 0\t\t\t\n      PUSH [tag] 389\t\t\t\n      PUSH 16\t\t\t\n      DUP4 \t\t\t\n      PUSH [tag] 369\t\t\t\n      JUMP [in]\t\t\t\n    tag 389\t\t\t\n      JUMPDEST \t\t\t\n      SWAP2 \t\t\t\n      POP \t\t\t\n      PUSH 497373756520616C7265616479207265636F7264656400000000000000000000\t\t\t\n      PUSH 0\t\t\t\n      DUP4 \t\t\t\n      ADD \t\t\t\n      MSTORE \t\t\t\n      PUSH 20\t\t\t\n      DUP3 \t\t\t\n      ADD \t\t\t\n      SWAP1 \t\t\t\n      POP \t\t\t\n      SWAP2 \t\t\t\n      SWAP1 \t\t\t\n      POP \t\t\t\n      JUMP [out]\t\t\t\n    tag 390\t\t\t\n      JUMPDEST \t\t\t\n      PUSH 0\t\t\t\n      PUSH [tag] 392\t\t\t\n      PUSH 14\t\t\t\n      DUP4 \t\t\t\n      PUSH [tag] 369\t\t\t\n      JUMP [in]\t\t\t\n    tag 392\t\t\t\n      JUMPDEST \t\t\t\n      SWAP2 \t\t\t\n      POP \t\t\t\n      PUSH 4F6666736574206F7574206F6620626F756E6473000000000000000000000000\t\t\t\n      PUSH 0\t\t\t\n      DUP4 \t\t\t\n      ADD \t\t\t\n      MSTORE \t\t\t\n      PUSH 20\t\t\t\n      DUP3 \t\t\t\n      ADD \t\t\t\n      SWAP1 \t\t\t\n      POP \t\t\t\n      SWAP2 \t\t\t\n      SWAP1 \t\t\t\n      POP \t\t\t\n      JUMP [out]\t\t\t\n    tag 393\t\t\t\n      JUMPDEST \t\t\t\n      PUSH 0\t\t\t\n      PUSH [tag] 395\t\t\t\n      PUSH 18\t\t\t\n      DUP4 \t\t\t\n      PUSH [tag] 369\t\t\t\n      JUMP [in]\t\t\t\n    tag 395\t\t\t\n      JUMPDEST \t\t\t\n      SWAP2 \t\t\t\n      POP \t\t\t\n      PUSH 49737375652049442063616E6E6F7420626520656D7074790000000000000000\t\t\t\n      PUSH 0\t\t\t\n      DUP4 \t\t\t\n      ADD \t\t\t\n      MSTORE \t\t\t\n      PUSH 20\t\t\t\n      DUP3 \t\t\t\n      ADD \t\t\t\n      SWAP1 \t\t\t\n      POP \t\t\t\n      SWAP2 \t\t\t\n      SWAP1 \t\t\t\n      POP \t\t\t\n      JUMP [out]\t\t\t\n    tag 313\t\t\t\n      JUMPDEST \t\t\t\n      PUSH 0\t\t\t\n      PUSH 80\t\t\t\n      DUP4 \t\t\t\n      ADD \t\t\t\n      PUSH 0\t\t\t\n      DUP4 \t\t\t\n      ADD \t\t\t\n      MLOAD \t\t\t\n      PUSH [tag] 397\t\t\t\n      PUSH 0\t\t\t\n      DUP7 \t\t\t\n      ADD \t\t\t\n      DUP3 \t\t\t\n      PUSH [tag] 314\t\t\t\n      JUMP [in]\t\t\t\n    tag 397\t\t\t\n      JUMPDEST \t\t\t\n      POP \t\t\t\n      PUSH 20\t\t\t\n      DUP4 \t\t\t\n      ADD \t\t\t\n      MLOAD \t\t\t\n      DUP5 \t\t\t\n      DUP3 \t\t\t\n      SUB \t\t\t\n      PUSH 20\t\t\t\n      DUP7 \t\t\t\n      ADD \t\t\t\n      MSTORE \t\t\t\n      PUSH [tag] 398\t\t\t\n      DUP3 \t\t\t\n      DUP3 \t\t\t\n      PUSH [tag] 309\t\t\t\n      JUMP [in]\t\t\t\n    tag 398\t\t\t\n      JUMPDEST \t\t\t\n      SWAP2 \t\t\t\n      POP \t\t\t\n      POP \t\t\t\n      PUSH 40\t\t\t\n      DUP4 \t\t\t\n      ADD \t\t\t\n      MLOAD \t\t\t\n      PUSH [tag] 399\t\t\t\n      PUSH 40\t\t\t\n      DUP7 \t\t\t\n      ADD \t\t\t\n      DUP3 \t\t\t\n      PUSH [tag] 400\t\t\t\n      JUMP [in]\t\t\t\n    tag 399\t\t\t\n      JUMPDEST \t\t\t\n      POP \t\t\t\n      PUSH 60\t\t\t\n      DUP4 \t\t\t\n      ADD \t\t\t\n      MLOAD \t\t\t\n      PUSH [tag] 401\t\t\t\n      PUSH 60\t\t\t\n      DUP7 \t\t\t\n      ADD \t\t\t\n      DUP3 \t\t\t\n      PUSH [tag] 349\t\t\t\n      JUMP [in]\t\t\t\n    tag 401\t\t\t\n      JUMPDEST \t\t\t\n      POP \t\t\t\n      DUP1 \t\t\t\n      SWAP2 \t\t\t\n      POP \t\t\t\n      POP \t\t\t\n      SWAP3 \t\t\t\n      SWAP2 \t\t\t\n      POP \t\t\t\n      POP \t\t\t\n      JUMP [out]\t\t\t\n    tag 400\t\t\t\n      JUMPDEST \t\t\t\n      PUSH [tag] 403\t\t\t\n      DUP2 \t\t\t\n      PUSH [tag] 404\t\t\t\n      JUMP [in]\t\t\t\n    tag 403\t\t\t\n      JUMPDEST \t\t\t\n      DUP3 \t\t\t\n      MSTORE \t\t\t\n      POP \t\t\t\n      POP \t\t\t\n      JUMP [out]\t\t\t\n    tag 405\t\t\t\n      JUMPDEST \t\t\t\n      PUSH [tag] 407\t\t\t\n      DUP2 \t\t\t\n      PUSH [tag] 404\t\t\t\n      JUMP [in]\t\t\t\n    tag 407\t\t\t\n      JUMPDEST \t\t\t\n      DUP3 \t\t\t\n      MSTORE \t\t\t\n      POP \t\t\t\n      POP \t\t\t\n      JUMP [out]\t\t\t\n    tag 91\t\t\t\n      JUMPDEST \t\t\t\n      PUSH 0\t\t\t\n      PUSH [tag] 409\t\t\t\n      DUP3 \t\t\t\n      DUP5 \t\t\t\n      PUSH [tag] 372\t\t\t\n      JUMP [in]\t\t\t\n    tag 409\t\t\t\n      JUMPDEST \t\t\t\n      SWAP2 \t\t\t\n      POP \t\t\t\n      DUP2 \t\t\t\n      SWAP1 \t\t\t\n      POP \t\t\t\n      SWAP3 \t\t\t\n      SWAP2 \t\t\t\n      POP \t\t\t\n      POP \t\t\t\n      JUMP [out]\t\t\t\n    tag 63\t\t\t\n      JUMPDEST \t\t\t\n      PUSH 0\t\t\t\n      PUSH 80\t\t\t\n      DUP3 \t\t\t\n      ADD \t\t\t\n      SWAP1 \t\t\t\n      POP \t\t\t\n      PUSH [tag] 411\t\t\t\n      PUSH 0\t\t\t\n      DUP4 \t\t\t\n      ADD \t\t\t\n      DUP8 \t\t\t\n      PUSH [tag] 318\t\t\t\n      JUMP [in]\t\t\t\n    tag 411\t\t\t\n      JUMPDEST \t\t\t\n      DUP2 \t\t\t\n      DUP2 \t\t\t\n      SUB \t\t\t\n      PUSH 20\t\t\t\n      DUP4 \t\t\t\n      ADD \t\t\t\n      MSTORE \t\t\t\n      PUSH [tag] 412\t\t\t\n      DUP2 \t\t\t\n      DUP7 \t\t\t\n      PUSH [tag] 365\t\t\t\n      JUMP [in]\t\t\t\n    tag 412\t\t\t\n      JUMPDEST \t\t\t\n      SWAP1 \t\t\t\n      POP \t\t\t\n      PUSH [tag] 413\t\t\t\n      PUSH 40\t\t\t\n      DUP4 \t\t\t\n      ADD \t\t\t\n      DUP6 \t\t\t\n      PUSH [tag] 405\t\t\t\n      JUMP [in]\t\t\t\n    tag 413\t\t\t\n      JUMPDEST \t\t\t\n      PUSH [tag] 414\t\t\t\n      PUSH 60\t\t\t\n      DUP4 \t\t\t\n      ADD \t\t\t\n      DUP5 \t\t\t\n      PUSH [tag] 353\t\t\t\n      JUMP [in]\t\t\t\n    tag 414\t\t\t\n      JUMPDEST \t\t\t\n      SWAP6 \t\t\t\n      SWAP5 \t\t\t\n      POP \t\t\t\n      POP \t\t\t\n      POP \t\t\t\n      POP \t\t\t\n      POP \t\t\t\n      JUMP [out]\t\t\t\n    tag 46\t\t\t\n      JUMPDEST \t\t\t\n      PUSH 0\t\t\t\n      PUSH 20\t\t\t\n      DUP3 \t\t\t\n      ADD \t\t\t\n      SWAP1 \t\t\t\n      POP \t\t\t\n      DUP2 \t\t\t\n      DUP2 \t\t\t\n      SUB \t\t\t\n      PUSH 0\t\t\t\n      DUP4 \t\t\t\n      ADD \t\t\t\n      MSTORE \t\t\t\n      PUSH [tag] 416\t\t\t\n      DUP2 \t\t\t\n      DUP5 \t\t\t\n      PUSH [tag] 321\t\t\t\n      JUMP [in]\t\t\t\n    tag 416\t\t\t\n      JUMPDEST \t\t\t\n      SWAP1 \t\t\t\n      POP \t\t\t\n      SWAP3 \t\t\t\n      SWAP2 \t\t\t\n      POP \t\t\t\n      POP \t\t\t\n      JUMP [out]\t\t\t\n    tag 88\t\t\t\n      JUMPDEST \t\t\t\n      PUSH 0\t\t\t\n      PUSH 20\t\t\t\n      DUP3 \t\t\t\n      ADD \t\t\t\n      SWAP1 \t\t\t\n      POP \t\t\t\n      DUP2 \t\t\t\n      DUP2 \t\t\t\n      SUB \t\t\t\n      PUSH 0\t\t\t\n      DUP4 \t\t\t\n      ADD \t\t\t\n      MSTORE \t\t\t\n      PUSH [tag] 418\t\t\t\n      DUP2 \t\t\t\n      DUP5 \t\t\t\n      PUSH [tag] 335\t\t\t\n      JUMP [in]\t\t\t\n    tag 418\t\t\t\n      JUMPDEST \t\t\t\n      SWAP1 \t\t\t\n      POP \t\t\t\n      SWAP3 \t\t\t\n      SWAP2 \t\t\t\n      POP \t\t\t\n      POP \t\t\t\n      JUMP [out]\t\t\t\n    tag 52\t\t\t\n      JUMPDEST \t\t\t\n      PUSH 0\t\t\t\n      PUSH 20\t\t\t\n      DUP3 \t\t\t\n      ADD \t\t\t\n      SWAP1 \t\t\t\n      POP \t\t\t\n      PUSH [tag] 420\t\t\t\n      PUSH 0\t\t\t\n      DUP4 \t\t\t\n      ADD \t\t\t\n      DUP5 \t\t\t\n      PUSH [tag] 353\t\t\t\n      JUMP [in]\t\t\t\n    tag 420\t\t\t\n      JUMPDEST \t\t\t\n      SWAP3 \t\t\t\n      SWAP2 \t\t\t\n      POP \t\t\t\n      POP \t\t\t\n      JUMP [out]\t\t\t\n    tag 110\t\t\t\n      JUMPDEST \t\t\t\n      PUSH 0\t\t\t\n      PUSH 40\t\t\t\n      DUP3 \t\t\t\n      ADD \t\t\t\n      SWAP1 \t\t\t\n      POP \t\t\t\n      PUSH [tag] 422\t\t\t\n      PUSH 0\t\t\t\n      DUP4 \t\t\t\n      ADD \t\t\t\n      DUP6 \t\t\t\n      PUSH [tag] 353\t\t\t\n      JUMP [in]\t\t\t\n    tag 422\t\t\t\n      JUMPDEST \t\t\t\n      PUSH [tag] 423\t\t\t\n      PUSH 20\t\t\t\n      DUP4 \t\t\t\n      ADD \t\t\t\n      DUP5 \t\t\t\n      PUSH [tag] 405\t\t\t\n      JUMP [in]\t\t\t\n    tag 423\t\t\t\n      JUMPDEST \t\t\t\n      SWAP4 \t\t\t\n      SWAP3 \t\t\t\n      POP \t\t\t\n      POP \t\t\t\n      POP \t\t\t\n      JUMP [out]\t\t\t\n    tag 35\t\t\t\n      JUMPDEST \t\t\t\n      PUSH 0\t\t\t\n      PUSH 20\t\t\t\n      DUP3 \t\t\t\n      ADD \t\t\t\n      SWAP1 \t\t\t\n      POP \t\t\t\n      DUP2 \t\t\t\n      DUP2 \t\t\t\n      SUB \t\t\t\n      PUSH 0\t\t\t\n      DUP4 \t\t\t\n      ADD \t\t\t\n      MSTORE \t\t\t\n      PUSH [tag] 425\t\t\t\n      DUP2 \t\t\t\n      DUP5 \t\t\t\n      PUSH [tag] 365\t\t\t\n      JUMP [in]\t\t\t\n    tag 425\t\t\t\n      JUMPDEST \t\t\t\n      SWAP1 \t\t\t\n      POP \t\t\t\n      SWAP3 \t\t\t\n      SWAP2 \t\t\t\n      POP \t\t\t\n      POP \t\t\t\n      JUMP [out]\t\t\t\n    tag 57\t\t\t\n      JUMPDEST \t\t\t\n      PUSH 0\t\t\t\n      PUSH C0\t\t\t\n      DUP3 \t\t\t\n      ADD \t\t\t\n      SWAP1 \t\t\t\n      POP \t\t\t\n      DUP2 \t\t\t\n      DUP2 \t\t\t\n      SUB \t\t\t\n      PUSH 0\t\t\t\n      DUP4 \t\t\t\n      ADD \t\t\t\n      MSTORE \t\t\t\n      PUSH [tag] 427\t\t\t\n      DUP2 \t\t\t\n      DUP10 \t\t\t\n      PUSH [tag] 365\t\t\t\n      JUMP [in]\t\t\t\n    tag 427\t\t\t\n      JUMPDEST \t\t\t\n      SWAP1 \t\t\t\n      POP \t\t\t\n      DUP2 \t\t\t\n      DUP2 \t\t\t\n      SUB \t\t\t\n      PUSH 20\t\t\t\n      DUP4 \t\t\t\n      ADD \t\t\t\n      MSTORE \t\t\t\n      PUSH [tag] 428\t\t\t\n      DUP2 \t\t\t\n      DUP9 \t\t\t\n      PUSH [tag] 365\t\t\t\n      JUMP [in]\t\t\t\n    tag 428\t\t\t\n      JUMPDEST \t\t\t\n      SWAP1 \t\t\t\n      POP \t\t\t\n      PUSH [tag] 429\t\t\t\n      PUSH 40\t\t\t\n      DUP4 \t\t\t\n      ADD \t\t\t\n      DUP8 \t\t\t\n      PUSH [tag] 318\t\t\t\n      JUMP [in]\t\t\t\n    tag 429\t\t\t\n      JUMPDEST \t\t\t\n      PUSH [tag] 430\t\t\t\n      PUSH 60\t\t\t\n      DUP4 \t\t\t\n      ADD \t\t\t\n      DUP7 \t\t\t\n      PUSH [tag] 405\t\t\t\n      JUMP [in]\t\t\t\n    tag 430\t\t\t\n      JUMPDEST \t\t\t\n      PUSH [tag] 431\t\t\t\n      PUSH 80\t\t\t\n      DUP4 \t\t\t\n      ADD \t\t\t\n      DUP6 \t\t\t\n      PUSH [tag] 405\t\t\t\n      JUMP [in]\t\t\t\n    tag 431\t\t\t\n      JUMPDEST \t\t\t\n      PUSH [tag] 432\t\t\t\n      PUSH A0\t\t\t\n      DUP4 \t\t\t\n      ADD \t\t\t\n      DUP5 \t\t\t\n      PUSH [tag] 353\t\t\t\n      JUMP [in]\t\t\t\n    tag 432\t\t\t\n      JUMPDEST \t\t\t\n      SWAP8 \t\t\t\n      SWAP7 \t\t\t\n      POP \t\t\t\n      POP \t\t\t\n      POP \t\t\t\n      POP \t\t\t\n      POP \t\t\t\n      POP \t\t\t\n      POP \t\t\t\n      JUMP [out]\t\t\t\n    tag 181\t\t\t\n      JUMPDEST \t\t\t\n      PUSH 0\t\t\t\n      PUSH 40\t\t\t\n      DUP3 \t\t\t\n      ADD \t\t\t\n      SWAP1 \t\t\t\n      POP \t\t\t\n      DUP2 \t\t\t\n      DUP2 \t\t\t\n      SUB \t\t\t\n      PUSH 0\t\t\t\n      DUP4 \t\t\t\n      ADD \t\t\t\n      MSTORE \t\t\t\n      PUSH [tag] 434\t\t\t\n      DUP2 \t\t\t\n      DUP6 \t\t\t\n      PUSH [tag] 365\t\t\t\n      JUMP [in]\t\t\t\n    tag 434\t\t\t\n      JUMPDEST \t\t\t\n      SWAP1 \t\t\t\n      POP \t\t\t\n      PUSH [tag] 435\t\t\t\n      PUSH 20\t\t\t\n      DUP4 \t\t\t\n      ADD \t\t\t\n      DUP5 \t\t\t\n      PUSH [tag] 405\t\t\t\n      JUMP [in]\t\t\t\n    tag 435\t\t\t\n      JUMPDEST \t\t\t\n      SWAP4 \t\t\t\n      SWAP3 \t\t\t\n      POP \t\t\t\n      POP \t\t\t\n      POP \t\t\t\n      JUMP [out]\t\t\t\n    tag 98\t\t\t\n      JUMPDEST \t\t\t\n      PUSH 0\t\t\t\n      PUSH 20\t\t\t\n      DUP3 \t\t\t\n      ADD \t\t\t\n      SWAP1 \t\t\t\n      POP \t\t\t\n      DUP2 \t\t\t\n      DUP2 \t\t\t\n      SUB \t\t\t\n      PUSH 0\t\t\t\n      DUP4 \t\t\t\n      ADD \t\t\t\n      MSTORE \t\t\t\n      PUSH [tag] 437\t\t\t\n      DUP2 \t\t\t\n      PUSH [tag] 378\t\t\t\n      JUMP [in]\t\t\t\n    tag 437\t\t\t\n      JUMPDEST \t\t\t\n      SWAP1 \t\t\t\n      POP \t\t\t\n      SWAP2 \t\t\t\n      SWAP1 \t\t\t\n      POP \t\t\t\n      JUMP [out]\t\t\t\n    tag 94\t\t\t\n      JUMPDEST \t\t\t\n      PUSH 0\t\t\t\n      PUSH 20\t\t\t\n      DUP3 \t\t\t\n      ADD \t\t\t\n      SWAP1 \t\t\t\n      POP \t\t\t\n      DUP2 \t\t\t\n      DUP2 \t\t\t\n      SUB \t\t\t\n      PUSH 0\t\t\t\n      DUP4 \t\t\t\n      ADD \t\t\t\n      MSTORE \t\t\t\n      PUSH [tag] 439\t\t\t\n      DUP2 \t\t\t\n      PUSH [tag] 381\t\t\t\n      JUMP [in]\t\t\t\n    tag 439\t\t\t\n      JUMPDEST \t\t\t\n      SWAP1 \t\t\t\n      POP \t\t\t\n      SWAP2 \t\t\t\n      SWAP1 \t\t\t\n      POP \t\t\t\n      JUMP [out]\t\t\t\n    tag 167\t\t\t\n      JUMPDEST \t\t\t\n      PUSH 0\t\t\t\n      PUSH 20\t\t\t\n      DUP3 \t\t\t\n      ADD \t\t\t\n      SWAP1 \t\t\t\n      POP \t\t\t\n      DUP2 \t\t\t\n      DUP2 \t\t\t\n      SUB \t\t\t\n      PUSH 0\t\t\t\n      DUP4 \t\t\t\n      ADD \t\t\t\n      MSTORE \t\t\t\n      PUSH [tag] 441\t\t\t\n      DUP2 \t\t\t\n      PUSH [tag] 384\t\t\t\n      JUMP [in]\t\t\t\n    tag 441\t\t\t\n      JUMPDEST \t\t\t\n      SWAP1 \t\t\t\n      POP \t\t\t\n      SWAP2 \t\t\t\n      SWAP1 \t\t\t\n      POP \t\t\t\n      JUMP [out]\t\t\t\n    tag 171\t\t\t\n      JUMPDEST \t\t\t\n      PUSH 0\t\t\t\n      PUSH 20\t\t\t\n      DUP3 \t\t\t\n      ADD \t\t\t\n      SWAP1 \t\t\t\n      POP \t\t\t\n      DUP2 \t\t\t\n      DUP2 \t\t\t\n      SUB \t\t\t\n      PUSH 0\t\t\t\n      DUP4 \t\t\t\n      ADD \t\t\t\n      MSTORE \t\t\t\n      PUSH [tag] 443\t\t\t\n      DUP2 \t\t\t\n      PUSH [tag] 387\t\t\t\n      JUMP [in]\t\t\t\n    tag 443\t\t\t\n      JUMPDEST \t\t\t\n      SWAP1 \t\t\t\n      POP \t\t\t\n      SWAP2 \t\t\t\n      SWAP1 \t\t\t\n      POP \t\t\t\n      JUMP [out]\t\t\t\n    tag 185\t\t\t\n      JUMPDEST \t\t\t\n      PUSH 0\t\t\t\n      PUSH 20\t\t\t\n      DUP3 \t\t\t\n      ADD \t\t\t\n      SWAP1 \t\t\t\n      POP \t\t\t\n      DUP2 \t\t\t\n      DUP2 \t\t\t\n      SUB \t\t\t\n      PUSH 0\t\t\t\n      DUP4 \t\t\t\n      ADD \t\t\t\n      MSTORE \t\t\t\n      PUSH [tag] 445\t\t\t\n      DUP2 \t\t\t\n      PUSH [tag] 390\t\t\t\n      JUMP [in]\t\t\t\n    tag 445\t\t\t\n      JUMPDEST \t\t\t\n      SWAP1 \t\t\t\n      POP \t\t\t\n      SWAP2 \t\t\t\n      SWAP1 \t\t\t\n      POP \t\t\t\n      JUMP [out]\t\t\t\n    tag 164\t\t\t\n      JUMPDEST \t\t\t\n      PUSH 0\t\t\t\n      PUSH 20\t\t\t\n      DUP3 \t\t\t\n      ADD \t\t\t\n      SWAP1 \t\t\t\n      POP \t\t\t\n      DUP2 \t\t\t\n      DUP2 \t\t\t\n      SUB \t\t\t\n      PUSH 0\t\t\t\n      DUP4 \t\t\t\n      ADD \t\t\t\n      MSTORE \t\t\t\n      PUSH [tag] 447\t\t\t\n      DUP2 \t\t\t\n      PUSH [tag] 393\t\t\t\n      JUMP [in]\t\t\t\n    tag 447\t\t\t\n      JUMPDEST \t\t\t\n      SWAP1 \t\t\t\n      POP \t\t\t\n      SWAP2 \t\t\t\n      SWAP1 \t\t\t\n      POP \t\t\t\n      JUMP [out]\t\t\t\n    tag 29\t\t\t\n      JUMPDEST \t\t\t\n      PUSH 0\t\t\t\n      PUSH 20\t\t\t\n      DUP3 \t\t\t\n      ADD \t\t\t\n      SWAP1 \t\t\t\n      POP \t\t\t\n      PUSH [tag] 449\t\t\t\n      PUSH 0\t\t\t\n      DUP4 \t\t\t\n      ADD \t\t\t\n      DUP5 \t\t\t\n      PUSH [tag] 405\t\t\t\n      JUMP [in]\t\t\t\n    tag 449\t\t\t\n      JUMPDEST \t\t\t\n      SWAP3 \t\t\t\n      SWAP2 \t\t\t\n      POP \t\t\t\n      POP \t\t\t\n      JUMP [out]\t\t\t\n    tag 247\t\t\t\n      JUMPDEST \t\t\t\n      PUSH 0\t\t\t\n      PUSH 40\t\t\t\n      MLOAD \t\t\t\n      SWAP1 \t\t\t\n      POP \t\t\t\n      DUP2 \t\t\t\n      DUP2 \t\t\t\n      ADD \t\t\t\n      DUP2 \t\t\t\n      DUP2 \t\t\t\n      LT \t\t\t\n      PUSH FFFFFFFFFFFFFFFF\t\t\t\n      DUP3 \t\t\t\n      GT \t\t\t\n      OR \t\t\t\n      ISZERO \t\t\t\n      PUSH [tag] 451\t\t\t\n      JUMPI \t\t\t\n      PUSH [tag] 452\t\t\t\n      PUSH [tag] 453\t\t\t\n      JUMP [in]\t\t\t\n    tag 452\t\t\t\n      JUMPDEST \t\t\t\n    tag 451\t\t\t\n      JUMPDEST \t\t\t\n      DUP1 \t\t\t\n      PUSH 40\t\t\t\n      MSTORE \t\t\t\n      POP \t\t\t\n      SWAP2 \t\t\t\n      SWAP1 \t\t\t\n      POP \t\t\t\n      JUMP [out]\t\t\t\n    tag 246\t\t\t\n      JUMPDEST \t\t\t\n      PUSH 0\t\t\t\n      PUSH FFFFFFFFFFFFFFFF\t\t\t\n      DUP3 \t\t\t\n      GT \t\t\t\n      ISZERO \t\t\t\n      PUSH [tag] 455\t\t\t\n      JUMPI \t\t\t\n      PUSH [tag] 456\t\t\t\n      PUSH [tag] 453\t\t\t\n      JUMP [in]\t\t\t\n    tag 456\t\t\t\n      JUMPDEST \t\t\t\n    tag 455\t\t\t\n      JUMPDEST \t\t\t\n      PUSH 1F\t\t\t\n      NOT \t\t\t\n      PUSH 1F\t\t\t\n      DUP4 \t\t\t\n      ADD \t\t\t\n      AND \t\t\t\n      SWAP1 \t\t\t\n      POP \t\t\t\n      PUSH 20\t\t\t\n      DUP2 \t\t\t\n      ADD \t\t\t\n      SWAP1 \t\t\t\n      POP \t\t\t\n      SWAP2 \t\t\t\n      SWAP1 \t\t\t\n      POP \t\t\t\n      JUMP [out]\t\t\t\n    tag 328\t\t\t\n      JUMPDEST \t\t\t\n      PUSH 0\t\t\t\n      DUP2 \t\t\t\n      SWAP1 \t\t\t\n      POP \t\t\t\n      PUSH 20\t\t\t\n      DUP3 \t\t\t\n      ADD \t\t\t\n      SWAP1 \t\t\t\n      POP \t\t\t\n      SWAP2 \t\t\t\n      SWAP1 \t\t\t\n      POP \t\t\t\n      JUMP [out]\t\t\t\n    tag 342\t\t\t\n      JUMPDEST \t\t\t\n      PUSH 0\t\t\t\n      DUP2 \t\t\t\n      SWAP1 \t\t\t\n      POP \t\t\t\n      PUSH 20\t\t\t\n      DUP3 \t\t\t\n      ADD \t\t\t\n      SWAP1 \t\t\t\n      POP \t\t\t\n      SWAP2 \t\t\t\n      SWAP1 \t\t\t\n      POP \t\t\t\n      JUMP [out]\t\t\t\n    tag 324\t\t\t\n      JUMPDEST \t\t\t\n      PUSH 0\t\t\t\n      DUP2 \t\t\t\n      MLOAD \t\t\t\n      SWAP1 \t\t\t\n      POP \t\t\t\n      SWAP2 \t\t\t\n      SWAP1 \t\t\t\n      POP \t\t\t\n      JUMP [out]\t\t\t\n    tag 338\t\t\t\n      JUMPDEST \t\t\t\n      PUSH 0\t\t\t\n      DUP2 \t\t\t\n      MLOAD \t\t\t\n      SWAP1 \t\t\t\n      POP \t\t\t\n      SWAP2 \t\t\t\n      SWAP1 \t\t\t\n      POP \t\t\t\n      JUMP [out]\t\t\t\n    tag 358\t\t\t\n      JUMPDEST \t\t\t\n      PUSH 0\t\t\t\n      DUP2 \t\t\t\n      MLOAD \t\t\t\n      SWAP1 \t\t\t\n      POP \t\t\t\n      SWAP2 \t\t\t\n      SWAP1 \t\t\t\n      POP \t\t\t\n      JUMP [out]\t\t\t\n    tag 334\t\t\t\n      JUMPDEST \t\t\t\n      PUSH 0\t\t\t\n      PUSH 20\t\t\t\n      DUP3 \t\t\t\n      ADD \t\t\t\n      SWAP1 \t\t\t\n      POP \t\t\t\n      SWAP2 \t\t\t\n      SWAP1 \t\t\t\n      POP \t\t\t\n      JUMP [out]\t\t\t\n    tag 348\t\t\t\n      JUMPDEST \t\t\t\n      PUSH 0\t\t\t\n      PUSH 20\t\t\t\n      DUP3 \t\t\t\n      ADD \t\t\t\n      SWAP1 \t\t\t\n      POP \t\t\t\n      SWAP2 \t\t\t\n      SWAP1 \t\t\t\n      POP \t\t\t\n      JUMP [out]\t\t\t\n    tag 326\t\t\t\n      JUMPDEST \t\t\t\n      PUSH 0\t\t\t\n      DUP3 \t\t\t\n      DUP3 \t\t\t\n      MSTORE \t\t\t\n      PUSH 20\t\t\t\n      DUP3 \t\t\t\n      ADD \t\t\t\n      SWAP1 \t\t\t\n      POP \t\t\t\n      SWAP3 \t\t\t\n      SWAP2 \t\t\t\n      POP \t\t\t\n      POP \t\t\t\n      JUMP [out]\t\t\t\n    tag 340\t\t\t\n      JUMPDEST \t\t\t\n      PUSH 0\t\t\t\n      DUP3 \t\t\t\n      DUP3 \t\t\t\n      MSTORE \t\t\t\n      PUSH 20\t\t\t\n      DUP3 \t\t\t\n      ADD \t\t\t\n      SWAP1 \t\t\t\n      POP \t\t\t\n      SWAP3 \t\t\t\n      SWAP2 \t\t\t\n      POP \t\t\t\n      POP \t\t\t\n      JUMP [out]\t\t\t\n    tag 360\t\t\t\n      JUMPDEST \t\t\t\n      PUSH 0\t\t\t\n      DUP3 \t\t\t\n      DUP3 \t\t\t\n      MSTORE \t\t\t\n      PUSH 20\t\t\t\n      DUP3 \t\t\t\n      ADD \t\t\t\n      SWAP1 \t\t\t\n      POP \t\t\t\n      SWAP3 \t\t\t\n      SWAP2 \t\t\t\n      POP \t\t\t\n      POP \t\t\t\n      JUMP [out]\t\t\t\n    tag 369\t\t\t\n      JUMPDEST \t\t\t\n      PUSH 0\t\t\t\n      DUP3 \t\t\t\n      DUP3 \t\t\t\n      MSTORE \t\t\t\n      PUSH 20\t\t\t\n      DUP3 \t\t\t\n      ADD \t\t\t\n      SWAP1 \t\t\t\n      POP \t\t\t\n      SWAP3 \t\t\t\n      SWAP2 \t\t\t\n      POP \t\t\t\n      POP \t\t\t\n      JUMP [out]\t\t\t\n    tag 376\t\t\t\n      JUMPDEST \t\t\t\n      PUSH 0\t\t\t\n      DUP2 \t\t\t\n      SWAP1 \t\t\t\n      POP \t\t\t\n      SWAP3 \t\t\t\n      SWAP2 \t\t\t\n      POP \t\t\t\n      POP \t\t\t\n      JUMP [out]\t\t\t\n    tag 187\t\t\t\n      JUMPDEST \t\t\t\n      PUSH 0\t\t\t\n      PUSH [tag] 470\t\t\t\n      DUP3 \t\t\t\n      PUSH [tag] 404\t\t\t\n      JUMP [in]\t\t\t\n    tag 470\t\t\t\n      JUMPDEST \t\t\t\n      SWAP2 \t\t\t\n      POP \t\t\t\n      PUSH [tag] 471\t\t\t\n      DUP4 \t\t\t\n      PUSH [tag] 404\t\t\t\n      JUMP [in]\t\t\t\n    tag 471\t\t\t\n      JUMPDEST \t\t\t\n      SWAP3 \t\t\t\n      POP \t\t\t\n      DUP3 \t\t\t\n      PUSH FFFFFFFFFFFFFFFFFFFFFFFFFFFFFFFFFFFFFFFFFFFFFFFFFFFFFFFFFFFFFFFF\t\t\t\n      SUB \t\t\t\n      DUP3 \t\t\t\n      GT \t\t\t\n      ISZERO \t\t\t\n      PUSH [tag] 472\t\t\t\n      JUMPI \t\t\t\n      PUSH [tag] 473\t\t\t\n      PUSH [tag] 474\t\t\t\n      JUMP [in]\t\t\t\n    tag 473\t\t\t\n      JUMPDEST \t\t\t\n    tag 472\t\t\t\n      JUMPDEST \t\t\t\n      DUP3 \t\t\t\n      DUP3 \t\t\t\n      ADD \t\t\t\n      SWAP1 \t\t\t\n      POP \t\t\t\n      SWAP3 \t\t\t\n      SWAP2 \t\t\t\n      POP \t\t\t\n      POP \t\t\t\n      JUMP [out]\t\t\t\n    tag 190\t\t\t\n      JUMPDEST \t\t\t\n      PUSH 0\t\t\t\n      PUSH [tag] 476\t\t\t\n      DUP3 \t\t\t\n      PUSH [tag] 404\t\t\t\n      JUMP [in]\t\t\t\n    tag 476\t\t\t\n      JUMPDEST \t\t\t\n      SWAP2 \t\t\t\n      POP \t\t\t\n      PUSH [tag] 477\t\t\t\n      DUP4 \t\t\t\n      PUSH [tag] 404\t\t\t\n      JUMP [in]\t\t\t\n    tag 477\t\t\t\n      JUMPDEST \t\t\t\n      SWAP3 \t\t\t\n      POP \t\t\t\n      DUP3 \t\t\t\n      DUP3 \t\t\t\n      LT \t\t\t\n      ISZERO \t\t\t\n      PUSH [tag] 478\t\t\t\n      JUMPI \t\t\t\n      PUSH [tag] 479\t\t\t\n      PUSH [tag] 474\t\t\t\n      JUMP [in]\t\t\t\n    tag 479\t\t\t\n      JUMPDEST \t\t\t\n    tag 478\t\t\t\n      JUMPDEST \t\t\t\n      DUP3 \t\t\t\n      DUP3 \t\t\t\n      SUB \t\t\t\n      SWAP1 \t\t\t\n      POP \t\t\t\n      SWAP3 \t\t\t\n      SWAP2 \t\t\t\n      POP \t\t\t\n      POP \t\t\t\n      JUMP [out]\t\t\t\n    tag 317\t\t\t\n      JUMPDEST \t\t\t\n      PUSH 0\t\t\t\n      PUSH [tag] 481\t\t\t\n      DUP3 \t\t\t\n      PUSH [tag] 482\t\t\t\n      JUMP [in]\t\t\t\n    tag 481\t\t\t\n      JUMPDEST \t\t\t\n      SWAP1 \t\t\t\n      POP \t\t\t\n      SWAP2 \t\t\t\n      SWAP1 \t\t\t\n      POP \t\t\t\n      JUMP [out]\t\t\t\n    tag 352\t\t\t\n      JUMPDEST \t\t\t\n      PUSH 0\t\t\t\n      DUP2 \t\t\t\n      ISZERO \t\t\t\n      ISZERO \t\t\t\n      SWAP1 \t\t\t\n      POP \t\t\t\n      SWAP2 \t\t\t\n      SWAP1 \t\t\t\n      POP \t\t\t\n      JUMP [out]\t\t\t\n    tag 482\t\t\t\n      JUMPDEST \t\t\t\n      PUSH 0\t\t\t\n      PUSH FFFFFFFFFFFFFFFFFFFFFFFFFFFFFFFFFFFFFFFF\t\t\t\n      DUP3 \t\t\t\n      AND \t\t\t\n      SWAP1 \t\t\t\n      POP \t\t\t\n      SWAP2 \t\t\t\n      SWAP1 \t\t\t\n      POP \t\t\t\n      JUMP [out]\t\t\t\n    tag 404\t\t\t\n      JUMPDEST \t\t\t\n      PUSH 0\t\t\t\n      DUP2 \t\t\t\n      SWAP1 \t\t\t\n      POP \t\t\t\n      SWAP2 \t\t\t\n      SWAP1 \t\t\t\n      POP \t\t\t\n      JUMP [out]\t\t\t\n    tag 250\t\t\t\n      JUMPDEST \t\t\t\n      DUP3 \t\t\t\n      DUP2 \t\t\t\n      DUP4 \t\t\t\n      CALLDATACOPY \t\t\t\n      PUSH 0\t\t\t\n      DUP4 \t\t\t\n      DUP4 \t\t\t\n      ADD \t\t\t\n      MSTORE \t\t\t\n      POP \t\t\t\n      POP \t\t\t\n      POP \t\t\t\n      JUMP [out]\t\t\t\n    tag 362\t\t\t\n      JUMPDEST \t\t\t\n      PUSH 0\t\t\t\n    tag 488\t\t\t\n      JUMPDEST \t\t\t\n      DUP4 \t\t\t\n      DUP2 \t\t\t\n      LT \t\t\t\n      ISZERO \t\t\t\n      PUSH [tag] 490\t\t\t\n      JUMPI \t\t\t\n      DUP1 \t\t\t\n      DUP3 \t\t\t\n      ADD \t\t\t\n      MLOAD \t\t\t\n      DUP2 \t\t\t\n      DUP5 \t\t\t\n      ADD \t\t\t\n      MSTORE \t\t\t\n      PUSH 20\t\t\t\n      DUP2 \t\t\t\n      ADD \t\t\t\n      SWAP1 \t\t\t\n      POP \t\t\t\n      PUSH [tag] 488\t\t\t\n      JUMP \t\t\t\n    tag 490\t\t\t\n      JUMPDEST \t\t\t\n      DUP4 \t\t\t\n      DUP2 \t\t\t\n      GT \t\t\t\n      ISZERO \t\t\t\n      PUSH [tag] 491\t\t\t\n      JUMPI \t\t\t\n      PUSH 0\t\t\t\n      DUP5 \t\t\t\n      DUP5 \t\t\t\n      ADD \t\t\t\n      MSTORE \t\t\t\n    tag 491\t\t\t\n      JUMPDEST \t\t\t\n      POP \t\t\t\n      POP \t\t\t\n      POP \t\t\t\n      POP \t\t\t\n      JUMP [out]\t\t\t\n    tag 119\t\t\t\n      JUMPDEST \t\t\t\n      PUSH 0\t\t\t\n      PUSH 2\t\t\t\n      DUP3 \t\t\t\n      DIV \t\t\t\n      SWAP1 \t\t\t\n      POP \t\t\t\n      PUSH 1\t\t\t\n      DUP3 \t\t\t\n      AND \t\t\t\n      DUP1 \t\t\t\n      PUSH [tag] 493\t\t\t\n      JUMPI \t\t\t\n      PUSH 7F\t\t\t\n      DUP3 \t\t\t\n      AND \t\t\t\n      SWAP2 \t\t\t\n      POP \t\t\t\n    tag 493\t\t\t\n      JUMPDEST \t\t\t\n      PUSH 20\t\t\t\n      DUP3 \t\t\t\n      LT \t\t\t\n      DUP2 \t\t\t\n      EQ \t\t\t\n      ISZERO \t\t\t\n      PUSH [tag] 494\t\t\t\n      JUMPI \t\t\t\n      PUSH [tag] 495\t\t\t\n      PUSH [tag] 496\t\t\t\n      JUMP [in]\t\t\t\n    tag 495\t\t\t\n      JUMPDEST \t\t\t\n    tag 494\t\t\t\n      JUMPDEST \t\t\t\n      POP \t\t\t\n      SWAP2 \t\t\t\n      SWAP1 \t\t\t\n      POP \t\t\t\n      JUMP [out]\t\t\t\n    tag 107\t\t\t\n      JUMPDEST \t\t\t\n      PUSH 0\t\t\t\n      PUSH [tag] 498\t\t\t\n      DUP3 \t\t\t\n      PUSH [tag] 404\t\t\t\n      JUMP [in]\t\t\t\n    tag 498\t\t\t\n      JUMPDEST \t\t\t\n      SWAP2 \t\t\t\n      POP \t\t\t\n      PUSH FFFFFFFFFFFFFFFFFFFFFFFFFFFFFFFFFFFFFFFFFFFFFFFFFFFFFFFFFFFFFFFF\t\t\t\n      DUP3 \t\t\t\n      EQ \t\t\t\n      ISZERO \t\t\t\n      PUSH [tag] 499\t\t\t\n      JUMPI \t\t\t\n      PUSH [tag] 500\t\t\t\n      PUSH [tag] 474\t\t\t\n      JUMP [in]\t\t\t\n    tag 500\t\t\t\n      JUMPDEST \t\t\t\n    tag 499\t\t\t\n      JUMPDEST \t\t\t\n      PUSH 1\t\t\t\n      DUP3 \t\t\t\n      ADD \t\t\t\n      SWAP1 \t\t\t\n      POP \t\t\t\n      SWAP2 \t\t\t\n      SWAP1 \t\t\t\n      POP \t\t\t\n      JUMP [out]\t\t\t\n    tag 474\t\t\t\n      JUMPDEST \t\t\t\n      PUSH 4E487B7100000000000000000000000000000000000000000000000000000000\t\t\t\n      PUSH 0\t\t\t\n      MSTORE \t\t\t\n      PUSH 11\t\t\t\n      PUSH 4\t\t\t\n      MSTORE \t\t\t\n      PUSH 24\t\t\t\n      PUSH 0\t\t\t\n      REVERT \t\t\t\n    tag 496\t\t\t\n      JUMPDEST \t\t\t\n      PUSH 4E487B7100000000000000000000000000000000000000000000000000000000\t\t\t\n      PUSH 0\t\t\t\n      MSTORE \t\t\t\n      PUSH 22\t\t\t\n      PUSH 4\t\t\t\n      MSTORE \t\t\t\n      PUSH 24\t\t\t\n      PUSH 0\t\t\t\n      REVERT \t\t\t\n    tag 453\t\t\t\n      JUMPDEST \t\t\t\n      PUSH 4E487B7100000000000000000000000000000000000000000000000000000000\t\t\t\n      PUSH 0\t\t\t\n      MSTORE \t\t\t\n      PUSH 41\t\t\t\n      PUSH 4\t\t\t\n      MSTORE \t\t\t\n      PUSH 24\t\t\t\n      PUSH 0\t\t\t\n      REVERT \t\t\t\n    tag 364\t\t\t\n      JUMPDEST \t\t\t\n      PUSH 0\t\t\t\n      PUSH 1F\t\t\t\n      NOT \t\t\t\n      PUSH 1F\t\t\t\n      DUP4 \t\t\t\n      ADD \t\t\t\n      AND \t\t\t\n      SWAP1 \t\t\t\n      POP \t\t\t\n      SWAP2 \t\t\t\n      SWAP1 \t\t\t\n      POP \t\t\t\n      JUMP [out]\t\t\t\n    tag 254\t\t\t\n      JUMPDEST \t\t\t\n      PUSH [tag] 506\t\t\t\n      DUP2 \t\t\t\n      PUSH [tag] 317\t\t\t\n      JUMP [in]\t\t\t\n    tag 506\t\t\t\n      JUMPDEST \t\t\t\n      DUP2 \t\t\t\n      EQ \t\t\t\n      PUSH [tag] 507\t\t\t\n      JUMPI \t\t\t\n      PUSH 0\t\t\t\n      DUP1 \t\t\t\n      REVERT \t\t\t\n    tag 507\t\t\t\n      JUMPDEST \t\t\t\n      POP \t\t\t\n      JUMP [out]\t\t\t\n    tag 258\t\t\t\n      JUMPDEST \t\t\t\n      PUSH [tag] 509\t\t\t\n      DUP2 \t\t\t\n      PUSH [tag] 352\t\t\t\n      JUMP [in]\t\t\t\n    tag 509\t\t\t\n      JUMPDEST \t\t\t\n      DUP2 \t\t\t\n      EQ \t\t\t\n      PUSH [tag] 510\t\t\t\n      JUMPI \t\t\t\n      PUSH 0\t\t\t\n      DUP1 \t\t\t\n      REVERT \t\t\t\n    tag 510\t\t\t\n      JUMPDEST \t\t\t\n      POP \t\t\t\n      JUMP [out]\t\t\t\n    tag 266\t\t\t\n      JUMPDEST \t\t\t\n      PUSH [tag] 512\t\t\t\n      DUP2 \t\t\t\n      PUSH [tag] 404\t\t\t\n      JUMP [in]\t\t\t\n    tag 512\t\t\t\n      JUMPDEST \t\t\t\n      DUP2 \t\t\t\n      EQ \t\t\t\n      PUSH [tag] 513\t\t\t\n      JUMPI \t\t\t\n      PUSH 0\t\t\t\n      DUP1 \t\t\t\n      REVERT \t\t\t\n    tag 513\t\t\t\n      JUMPDEST \t\t\t\n      POP \t\t\t\n      JUMP [out]\t\t\t\n    .data\n"
}