{
	"compilerInput": "{\"language\":\"Solidity\",\"sources\":{\"CivicIssueTracker.sol\":{\"content\":\"// SPDX-License-Identifier: MIT\\r\\npragma solidity ^0.8.0;\\r\\n\\r\\n/**\\r\\n * @title CivicIssueTracker\\r\\n * @dev Smart contract for transparent civic issue tracking and voting\\r\\n */\\r\\ncontract CivicIssueTracker {\\r\\n    \\r\\n    // Structure to store issue details\\r\\n    struct Issue {\\r\\n        string issueId;        // MongoDB ObjectId\\r\\n        string title;          // Issue title (truncated to 100 chars)\\r\\n        address reportedBy;    // Wallet address of reporter\\r\\n        uint256 timestamp;     // Block timestamp when recorded\\r\\n        uint256 voteCount;     // Total votes received\\r\\n        bool exists;           // Check if issue exists\\r\\n    }\\r\\n    \\r\\n    // Structure to store vote details\\r\\n    struct Vote {\\r\\n        address voter;         // Wallet address of voter\\r\\n        string issueId;        // Issue being voted on\\r\\n        uint256 timestamp;     // When vote was cast\\r\\n        bool support;          // true = upvote, false = downvote\\r\\n    }\\r\\n    \\r\\n    // Mappings\\r\\n    mapping(string => Issue) public issues;\\r\\n    mapping(string => Vote[]) public issueVotes;\\r\\n    mapping(address => string[]) public userIssues;\\r\\n    mapping(address => mapping(string => bool)) public hasVoted;\\r\\n    \\r\\n    // Arrays to track all issues\\r\\n    string[] public allIssueIds;\\r\\n    \\r\\n    // Events\\r\\n    event IssueRecorded(\\r\\n        string indexed issueId,\\r\\n        string title,\\r\\n        address indexed reportedBy,\\r\\n        uint256 timestamp\\r\\n    );\\r\\n    \\r\\n    event VoteRecorded(\\r\\n        string indexed issueId,\\r\\n        address indexed voter,\\r\\n        bool support,\\r\\n        uint256 timestamp\\r\\n    );\\r\\n    \\r\\n    event IssueStatusUpdated(\\r\\n        string indexed issueId,\\r\\n        string newStatus,\\r\\n        uint256 timestamp\\r\\n    );\\r\\n    \\r\\n    /**\\r\\n     * @dev Record a new civic issue on the blockchain\\r\\n     * @param _issueId MongoDB ObjectId of the issue\\r\\n     * @param _title Title of the issue (max 100 chars)\\r\\n     */\\r\\n    function recordIssue(\\r\\n        string memory _issueId,\\r\\n        string memory _title\\r\\n    ) public {\\r\\n        require(bytes(_issueId).length > 0, \\\"Issue ID cannot be empty\\\");\\r\\n        require(bytes(_title).length > 0, \\\"Title cannot be empty\\\");\\r\\n        require(!issues[_issueId].exists, \\\"Issue already recorded\\\");\\r\\n        \\r\\n        issues[_issueId] = Issue({\\r\\n            issueId: _issueId,\\r\\n            title: _title,\\r\\n            reportedBy: msg.sender,\\r\\n            timestamp: block.timestamp,\\r\\n            voteCount: 0,\\r\\n            exists: true\\r\\n        });\\r\\n        \\r\\n        allIssueIds.push(_issueId);\\r\\n        userIssues[msg.sender].push(_issueId);\\r\\n        \\r\\n        emit IssueRecorded(_issueId, _title, msg.sender, block.timestamp);\\r\\n    }\\r\\n    \\r\\n    /**\\r\\n     * @dev Record a vote on an issue\\r\\n     * @param _issueId Issue to vote on\\r\\n     * @param _support True for upvote, false for downvote\\r\\n     */\\r\\n    function recordVote(\\r\\n        string memory _issueId,\\r\\n        bool _support\\r\\n    ) public {\\r\\n        require(issues[_issueId].exists, \\\"Issue does not exist\\\");\\r\\n        require(!hasVoted[msg.sender][_issueId], \\\"Already voted on this issue\\\");\\r\\n        \\r\\n        Vote memory newVote = Vote({\\r\\n            voter: msg.sender,\\r\\n            issueId: _issueId,\\r\\n            timestamp: block.timestamp,\\r\\n            support: _support\\r\\n        });\\r\\n        \\r\\n        issueVotes[_issueId].push(newVote);\\r\\n        hasVoted[msg.sender][_issueId] = true;\\r\\n        \\r\\n        if (_support) {\\r\\n            issues[_issueId].voteCount++;\\r\\n        }\\r\\n        \\r\\n        emit VoteRecorded(_issueId, msg.sender, _support, block.timestamp);\\r\\n    }\\r\\n    \\r\\n    /**\\r\\n     * @dev Get issue details\\r\\n     * @param _issueId Issue ID to query\\r\\n     */\\r\\n    function getIssue(string memory _issueId) public view returns (\\r\\n        string memory issueId,\\r\\n        string memory title,\\r\\n        address reportedBy,\\r\\n        uint256 timestamp,\\r\\n        uint256 voteCount,\\r\\n        bool exists\\r\\n    ) {\\r\\n        Issue memory issue = issues[_issueId];\\r\\n        return (\\r\\n            issue.issueId,\\r\\n            issue.title,\\r\\n            issue.reportedBy,\\r\\n            issue.timestamp,\\r\\n            issue.voteCount,\\r\\n            issue.exists\\r\\n        );\\r\\n    }\\r\\n    \\r\\n    /**\\r\\n     * @dev Get vote count for an issue\\r\\n     * @param _issueId Issue ID to query\\r\\n     */\\r\\n    function getVoteCount(string memory _issueId) public view returns (uint256) {\\r\\n        require(issues[_issueId].exists, \\\"Issue does not exist\\\");\\r\\n        return issues[_issueId].voteCount;\\r\\n    }\\r\\n    \\r\\n    /**\\r\\n     * @dev Get all votes for an issue\\r\\n     * @param _issueId Issue ID to query\\r\\n     */\\r\\n    function getIssueVotes(string memory _issueId) public view returns (Vote[] memory) {\\r\\n        require(issues[_issueId].exists, \\\"Issue does not exist\\\");\\r\\n        return issueVotes[_issueId];\\r\\n    }\\r\\n    \\r\\n    /**\\r\\n     * @dev Get all issues reported by a user\\r\\n     * @param _user User address to query\\r\\n     */\\r\\n    function getUserIssues(address _user) public view returns (string[] memory) {\\r\\n        return userIssues[_user];\\r\\n    }\\r\\n    \\r\\n    /**\\r\\n     * @dev Check if user has voted on an issue\\r\\n     * @param _user User address\\r\\n     * @param _issueId Issue ID\\r\\n     */\\r\\n    function checkIfVoted(address _user, string memory _issueId) public view returns (bool) {\\r\\n        return hasVoted[_user][_issueId];\\r\\n    }\\r\\n    \\r\\n    /**\\r\\n     * @dev Get total number of issues recorded\\r\\n     */\\r\\n    function getTotalIssues() public view returns (uint256) {\\r\\n        return allIssueIds.length;\\r\\n    }\\r\\n    \\r\\n    /**\\r\\n     * @dev Get all issue IDs (paginated)\\r\\n     * @param _offset Starting index\\r\\n     * @param _limit Number of records to return\\r\\n     */\\r\\n    function getAllIssues(uint256 _offset, uint256 _limit) public view returns (string[] memory) {\\r\\n        require(_offset < allIssueIds.length, \\\"Offset out of bounds\\\");\\r\\n        \\r\\n        uint256 end = _offset + _limit;\\r\\n        if (end > allIssueIds.length) {\\r\\n            end = allIssueIds.length;\\r\\n        }\\r\\n        \\r\\n        string[] memory result = new string[](end - _offset);\\r\\n        for (uint256 i = _offset; i < end; i++) {\\r\\n            result[i - _offset] = allIssueIds[i];\\r\\n        }\\r\\n        \\r\\n        return result;\\r\\n    }\\r\\n}\\r\\n\"}},\"settings\":{\"optimizer\":{\"enabled\":false,\"runs\":200},\"outputSelection\":{\"*\":{\"\":[\"ast\"],\"*\":[\"abi\",\"metadata\",\"devdoc\",\"userdoc\",\"storageLayout\",\"evm.legacyAssembly\",\"evm.bytecode\",\"evm.deployedBytecode\",\"evm.methodIdentifiers\",\"evm.gasEstimates\",\"evm.assembly\"]}},\"remappings\":[]}}",
	"name": "CivicIssueTracker",
	"bytecode": {
		"linkReferences": {},
		"object": "6080604052348015600e575f5ffd5b5061257e8061001c5f395ff3fe608060405234801561000f575f5ffd5b50600436106100e7575f3560e01c8063893768691161008a578063c684706011610064578063c6847060146102ab578063e38ba436146102db578063f62ef4b614610310578063f81e08c61461032e576100e7565b8063893768691461022c5780639c667c7d1461025f5780639ebd26771461027b576100e7565b806331f4fff0116100c657806331f4fff0146101675780633535ca9a146101975780634b098976146101c7578063814a1096146101f7576100e7565b8062f2eac2146100eb578063069953a714610107578063287de36214610137575b5f5ffd5b61010560048036038101906101009190611715565b61035e565b005b610121600480360381019061011c919061176f565b61068e565b60405161012e91906117ce565b60405180910390f35b610151600480360381019061014c919061186b565b610723565b60405161015e9190611909565b60405180910390f35b610181600480360381019061017c9190611929565b6107d4565b60405161018e9190611909565b60405180910390f35b6101b160048036038101906101ac9190611954565b61087a565b6040516101be9190611a82565b60405180910390f35b6101e160048036038101906101dc9190611aa2565b61098b565b6040516101ee9190611b0b565b60405180910390f35b610211600480360381019061020c919061176f565b6109fa565b60405161022396959493929190611b33565b60405180910390f35b61024660048036038101906102419190611ba0565b610c01565b6040516102569493929190611bfa565b60405180910390f35b61027960048036038101906102749190611c44565b610d10565b005b61029560048036038101906102909190611cba565b611015565b6040516102a29190611a82565b60405180910390f35b6102c560048036038101906102c09190611aa2565b6111d1565b6040516102d29190611b0b565b60405180910390f35b6102f560048036038101906102f0919061176f565b611213565b60405161030796959493929190611b33565b60405180910390f35b610318611399565b60405161032591906117ce565b60405180910390f35b6103486004803603810190610343919061176f565b6113a5565b6040516103559190611e40565b60405180910390f35b5f8260405161036d9190611e9a565b90815260200160405180910390206005015f9054906101000a900460ff166103ca576040517f08c379a00000000000000000000000000000000000000000000000000000000081526004016103c190611efa565b60405180910390fd5b60035f3373ffffffffffffffffffffffffffffffffffffffff1673ffffffffffffffffffffffffffffffffffffffff1681526020019081526020015f20826040516104159190611e9a565b90815260200160405180910390205f9054906101000a900460ff1615610470576040517f08c379a000000000000000000000000000000000000000000000000000000000815260040161046790611f62565b60405180910390fd5b5f60405180608001604052803373ffffffffffffffffffffffffffffffffffffffff16815260200184815260200142815260200183151581525090506001836040516104bc9190611e9a565b908152602001604051809103902081908060018154018082558091505060019003905f5260205f2090600402015f909190919091505f820151815f015f6101000a81548173ffffffffffffffffffffffffffffffffffffffff021916908373ffffffffffffffffffffffffffffffffffffffff160217905550602082015181600101908161054a919061217d565b50604082015181600201556060820151816003015f6101000a81548160ff0219169083151502179055505050600160035f3373ffffffffffffffffffffffffffffffffffffffff1673ffffffffffffffffffffffffffffffffffffffff1681526020019081526020015f20846040516105c39190611e9a565b90815260200160405180910390205f6101000a81548160ff0219169083151502179055508115610623575f836040516105fc9190611e9a565b90815260200160405180910390206004015f81548092919061061d90612279565b91905055505b3373ffffffffffffffffffffffffffffffffffffffff16836040516106489190611e9a565b60405180910390207f198e3ed8d34bb0748a994aa3dec83be23391b16a3539119f912746564bd3553384426040516106819291906122c0565b60405180910390a3505050565b5f5f8260405161069e9190611e9a565b90815260200160405180910390206005015f9054906101000a900460ff166106fb576040517f08c379a00000000000000000000000000000000000000000000000000000000081526004016106f290611efa565b60405180910390fd5b5f8260405161070a9190611e9a565b9081526020016040518091039020600401549050919050565b6002602052815f5260405f20818154811061073c575f80fd5b905f5260205f20015f9150915050805461075590611fad565b80601f016020809104026020016040519081016040528092919081815260200182805461078190611fad565b80156107cc5780601f106107a3576101008083540402835291602001916107cc565b820191905f5260205f20905b8154815290600101906020018083116107af57829003601f168201915b505050505081565b600481815481106107e3575f80fd5b905f5260205f20015f9150905080546107fb90611fad565b80601f016020809104026020016040519081016040528092919081815260200182805461082790611fad565b80156108725780601f1061084957610100808354040283529160200191610872565b820191905f5260205f20905b81548152906001019060200180831161085557829003601f168201915b505050505081565b606060025f8373ffffffffffffffffffffffffffffffffffffffff1673ffffffffffffffffffffffffffffffffffffffff1681526020019081526020015f20805480602002602001604051908101604052809291908181526020015f905b82821015610980578382905f5260205f200180546108f590611fad565b80601f016020809104026020016040519081016040528092919081815260200182805461092190611fad565b801561096c5780601f106109435761010080835404028352916020019161096c565b820191905f5260205f20905b81548152906001019060200180831161094f57829003601f168201915b5050505050815260200190600101906108d8565b505050509050919050565b5f60035f8473ffffffffffffffffffffffffffffffffffffffff1673ffffffffffffffffffffffffffffffffffffffff1681526020019081526020015f20826040516109d79190611e9a565b90815260200160405180910390205f9054906101000a900460ff16905092915050565b6060805f5f5f5f5f5f88604051610a119190611e9a565b90815260200160405180910390206040518060c00160405290815f82018054610a3990611fad565b80601f0160208091040260200160405190810160405280929190818152602001828054610a6590611fad565b8015610ab05780601f10610a8757610100808354040283529160200191610ab0565b820191905f5260205f20905b815481529060010190602001808311610a9357829003601f168201915b50505050508152602001600182018054610ac990611fad565b80601f0160208091040260200160405190810160405280929190818152602001828054610af590611fad565b8015610b405780601f10610b1757610100808354040283529160200191610b40565b820191905f5260205f20905b815481529060010190602001808311610b2357829003601f168201915b50505050508152602001600282015f9054906101000a900473ffffffffffffffffffffffffffffffffffffffff1673ffffffffffffffffffffffffffffffffffffffff1673ffffffffffffffffffffffffffffffffffffffff1681526020016003820154815260200160048201548152602001600582015f9054906101000a900460ff1615151515815250509050805f015181602001518260400151836060015184608001518560a001519650965096509650965096505091939550919395565b6001828051602081018201805184825260208301602085012081835280955050505050508181548110610c32575f80fd5b905f5260205f2090600402015f9150915050805f015f9054906101000a900473ffffffffffffffffffffffffffffffffffffffff1690806001018054610c7790611fad565b80601f0160208091040260200160405190810160405280929190818152602001828054610ca390611fad565b8015610cee5780601f10610cc557610100808354040283529160200191610cee565b820191905f5260205f20905b815481529060010190602001808311610cd157829003601f168201915b505050505090806002015490806003015f9054906101000a900460ff16905084565b5f825111610d53576040517f08c379a0000000000000000000000000000000000000000000000000000000008152600401610d4a90612331565b60405180910390fd5b5f815111610d96576040517f08c379a0000000000000000000000000000000000000000000000000000000008152600401610d8d90612399565b60405180910390fd5b5f82604051610da59190611e9a565b90815260200160405180910390206005015f9054906101000a900460ff1615610e03576040517f08c379a0000000000000000000000000000000000000000000000000000000008152600401610dfa90612401565b60405180910390fd5b6040518060c001604052808381526020018281526020013373ffffffffffffffffffffffffffffffffffffffff1681526020014281526020015f8152602001600115158152505f83604051610e589190611e9a565b90815260200160405180910390205f820151815f019081610e79919061217d565b506020820151816001019081610e8f919061217d565b506040820151816002015f6101000a81548173ffffffffffffffffffffffffffffffffffffffff021916908373ffffffffffffffffffffffffffffffffffffffff160217905550606082015181600301556080820151816004015560a0820151816005015f6101000a81548160ff021916908315150217905550905050600482908060018154018082558091505060019003905f5260205f20015f909190919091509081610f3d919061217d565b5060025f3373ffffffffffffffffffffffffffffffffffffffff1673ffffffffffffffffffffffffffffffffffffffff1681526020019081526020015f2082908060018154018082558091505060019003905f5260205f20015f909190919091509081610faa919061217d565b503373ffffffffffffffffffffffffffffffffffffffff1682604051610fd09190611e9a565b60405180910390207f8d9e646b7be50523dbf45d232dea79bf57ed2ea290147f46d64d74918bcce742834260405161100992919061241f565b60405180910390a35050565b6060600480549050831061105e576040517f08c379a000000000000000000000000000000000000000000000000000000000815260040161105590612497565b60405180910390fd5b5f828461106b91906124b5565b90506004805490508111156110835760048054905090505b5f848261109091906124e8565b67ffffffffffffffff8111156110a9576110a86115bc565b5b6040519080825280602002602001820160405280156110dc57816020015b60608152602001906001900390816110c75790505b5090505f8590505b828110156111c55760048181548110611100576110ff61251b565b5b905f5260205f2001805461111390611fad565b80601f016020809104026020016040519081016040528092919081815260200182805461113f90611fad565b801561118a5780601f106111615761010080835404028352916020019161118a565b820191905f5260205f20905b81548152906001019060200180831161116d57829003601f168201915b505050505082878361119c91906124e8565b815181106111ad576111ac61251b565b5b602002602001018190525080806001019150506110e4565b50809250505092915050565b6003602052815f5260405f20818051602081018201805184825260208301602085012081835280955050505050505f915091509054906101000a900460ff1681565b5f818051602081018201805184825260208301602085012081835280955050505050505f91509050805f01805461124990611fad565b80601f016020809104026020016040519081016040528092919081815260200182805461127590611fad565b80156112c05780601f10611297576101008083540402835291602001916112c0565b820191905f5260205f20905b8154815290600101906020018083116112a357829003601f168201915b5050505050908060010180546112d590611fad565b80601f016020809104026020016040519081016040528092919081815260200182805461130190611fad565b801561134c5780601f106113235761010080835404028352916020019161134c565b820191905f5260205f20905b81548152906001019060200180831161132f57829003601f168201915b505050505090806002015f9054906101000a900473ffffffffffffffffffffffffffffffffffffffff1690806003015490806004015490806005015f9054906101000a900460ff16905086565b5f600480549050905090565b60605f826040516113b69190611e9a565b90815260200160405180910390206005015f9054906101000a900460ff16611413576040517f08c379a000000000000000000000000000000000000000000000000000000000815260040161140a90611efa565b60405180910390fd5b6001826040516114239190611e9a565b9081526020016040518091039020805480602002602001604051908101604052809291908181526020015f905b82821015611588578382905f5260205f2090600402016040518060800160405290815f82015f9054906101000a900473ffffffffffffffffffffffffffffffffffffffff1673ffffffffffffffffffffffffffffffffffffffff1673ffffffffffffffffffffffffffffffffffffffff1681526020016001820180546114d590611fad565b80601f016020809104026020016040519081016040528092919081815260200182805461150190611fad565b801561154c5780601f106115235761010080835404028352916020019161154c565b820191905f5260205f20905b81548152906001019060200180831161152f57829003601f168201915b5050505050815260200160028201548152602001600382015f9054906101000a900460ff16151515158152505081526020019060010190611450565b505050509050919050565b5f604051905090565b5f5ffd5b5f5ffd5b5f5ffd5b5f5ffd5b5f601f19601f8301169050919050565b7f4e487b71000000000000000000000000000000000000000000000000000000005f52604160045260245ffd5b6115f2826115ac565b810181811067ffffffffffffffff82111715611611576116106115bc565b5b80604052505050565b5f611623611593565b905061162f82826115e9565b919050565b5f67ffffffffffffffff82111561164e5761164d6115bc565b5b611657826115ac565b9050602081019050919050565b828183375f83830152505050565b5f61168461167f84611634565b61161a565b9050828152602081018484840111156116a05761169f6115a8565b5b6116ab848285611664565b509392505050565b5f82601f8301126116c7576116c66115a4565b5b81356116d7848260208601611672565b91505092915050565b5f8115159050919050565b6116f4816116e0565b81146116fe575f5ffd5b50565b5f8135905061170f816116eb565b92915050565b5f5f6040838503121561172b5761172a61159c565b5b5f83013567ffffffffffffffff811115611748576117476115a0565b5b611754858286016116b3565b925050602061176585828601611701565b9150509250929050565b5f602082840312156117845761178361159c565b5b5f82013567ffffffffffffffff8111156117a1576117a06115a0565b5b6117ad848285016116b3565b91505092915050565b5f819050919050565b6117c8816117b6565b82525050565b5f6020820190506117e15f8301846117bf565b92915050565b5f73ffffffffffffffffffffffffffffffffffffffff82169050919050565b5f611810826117e7565b9050919050565b61182081611806565b811461182a575f5ffd5b50565b5f8135905061183b81611817565b92915050565b61184a816117b6565b8114611854575f5ffd5b50565b5f8135905061186581611841565b92915050565b5f5f604083850312156118815761188061159c565b5b5f61188e8582860161182d565b925050602061189f85828601611857565b9150509250929050565b5f81519050919050565b5f82825260208201905092915050565b8281835e5f83830152505050565b5f6118db826118a9565b6118e581856118b3565b93506118f58185602086016118c3565b6118fe816115ac565b840191505092915050565b5f6020820190508181035f83015261192181846118d1565b905092915050565b5f6020828403121561193e5761193d61159c565b5b5f61194b84828501611857565b91505092915050565b5f602082840312156119695761196861159c565b5b5f6119768482850161182d565b91505092915050565b5f81519050919050565b5f82825260208201905092915050565b5f819050602082019050919050565b5f82825260208201905092915050565b5f6119c2826118a9565b6119cc81856119a8565b93506119dc8185602086016118c3565b6119e5816115ac565b840191505092915050565b5f6119fb83836119b8565b905092915050565b5f602082019050919050565b5f611a198261197f565b611a238185611989565b935083602082028501611a3585611999565b805f5b85811015611a705784840389528151611a5185826119f0565b9450611a5c83611a03565b925060208a01995050600181019050611a38565b50829750879550505050505092915050565b5f6020820190508181035f830152611a9a8184611a0f565b905092915050565b5f5f60408385031215611ab857611ab761159c565b5b5f611ac58582860161182d565b925050602083013567ffffffffffffffff811115611ae657611ae56115a0565b5b611af2858286016116b3565b9150509250929050565b611b05816116e0565b82525050565b5f602082019050611b1e5f830184611afc565b92915050565b611b2d81611806565b82525050565b5f60c0820190508181035f830152611b4b81896118d1565b90508181036020830152611b5f81886118d1565b9050611b6e6040830187611b24565b611b7b60608301866117bf565b611b8860808301856117bf565b611b9560a0830184611afc565b979650505050505050565b5f5f60408385031215611bb657611bb561159c565b5b5f83013567ffffffffffffffff811115611bd357611bd26115a0565b5b611bdf858286016116b3565b9250506020611bf085828601611857565b9150509250929050565b5f608082019050611c0d5f830187611b24565b8181036020830152611c1f81866118d1565b9050611c2e60408301856117bf565b611c3b6060830184611afc565b95945050505050565b5f5f60408385031215611c5a57611c5961159c565b5b5f83013567ffffffffffffffff811115611c7757611c766115a0565b5b611c83858286016116b3565b925050602083013567ffffffffffffffff811115611ca457611ca36115a0565b5b611cb0858286016116b3565b9150509250929050565b5f5f60408385031215611cd057611ccf61159c565b5b5f611cdd85828601611857565b9250506020611cee85828601611857565b9150509250929050565b5f81519050919050565b5f82825260208201905092915050565b5f819050602082019050919050565b611d2a81611806565b82525050565b611d39816117b6565b82525050565b611d48816116e0565b82525050565b5f608083015f830151611d635f860182611d21565b5060208301518482036020860152611d7b82826119b8565b9150506040830151611d906040860182611d30565b506060830151611da36060860182611d3f565b508091505092915050565b5f611db98383611d4e565b905092915050565b5f602082019050919050565b5f611dd782611cf8565b611de18185611d02565b935083602082028501611df385611d12565b805f5b85811015611e2e5784840389528151611e0f8582611dae565b9450611e1a83611dc1565b925060208a01995050600181019050611df6565b50829750879550505050505092915050565b5f6020820190508181035f830152611e588184611dcd565b905092915050565b5f81905092915050565b5f611e74826118a9565b611e7e8185611e60565b9350611e8e8185602086016118c3565b80840191505092915050565b5f611ea58284611e6a565b915081905092915050565b7f497373756520646f6573206e6f742065786973740000000000000000000000005f82015250565b5f611ee46014836118b3565b9150611eef82611eb0565b602082019050919050565b5f6020820190508181035f830152611f1181611ed8565b9050919050565b7f416c726561647920766f746564206f6e207468697320697373756500000000005f82015250565b5f611f4c601b836118b3565b9150611f5782611f18565b602082019050919050565b5f6020820190508181035f830152611f7981611f40565b9050919050565b7f4e487b71000000000000000000000000000000000000000000000000000000005f52602260045260245ffd5b5f6002820490506001821680611fc457607f821691505b602082108103611fd757611fd6611f80565b5b50919050565b5f819050815f5260205f209050919050565b5f6020601f8301049050919050565b5f82821b905092915050565b5f600883026120397fffffffffffffffffffffffffffffffffffffffffffffffffffffffffffffffff82611ffe565b6120438683611ffe565b95508019841693508086168417925050509392505050565b5f819050919050565b5f61207e612079612074846117b6565b61205b565b6117b6565b9050919050565b5f819050919050565b61209783612064565b6120ab6120a382612085565b84845461200a565b825550505050565b5f5f905090565b6120c26120b3565b6120cd81848461208e565b505050565b5b818110156120f0576120e55f826120ba565b6001810190506120d3565b5050565b601f8211156121355761210681611fdd565b61210f84611fef565b8101602085101561211e578190505b61213261212a85611fef565b8301826120d2565b50505b505050565b5f82821c905092915050565b5f6121555f198460080261213a565b1980831691505092915050565b5f61216d8383612146565b9150826002028217905092915050565b612186826118a9565b67ffffffffffffffff81111561219f5761219e6115bc565b5b6121a98254611fad565b6121b48282856120f4565b5f60209050601f8311600181146121e5575f84156121d3578287015190505b6121dd8582612162565b865550612244565b601f1984166121f386611fdd565b5f5b8281101561221a578489015182556001820191506020850194506020810190506121f5565b868310156122375784890151612233601f891682612146565b8355505b6001600288020188555050505b505050505050565b7f4e487b71000000000000000000000000000000000000000000000000000000005f52601160045260245ffd5b5f612283826117b6565b91507fffffffffffffffffffffffffffffffffffffffffffffffffffffffffffffffff82036122b5576122b461224c565b5b600182019050919050565b5f6040820190506122d35f830185611afc565b6122e060208301846117bf565b9392505050565b7f49737375652049442063616e6e6f7420626520656d70747900000000000000005f82015250565b5f61231b6018836118b3565b9150612326826122e7565b602082019050919050565b5f6020820190508181035f8301526123488161230f565b9050919050565b7f5469746c652063616e6e6f7420626520656d70747900000000000000000000005f82015250565b5f6123836015836118b3565b915061238e8261234f565b602082019050919050565b5f6020820190508181035f8301526123b081612377565b9050919050565b7f497373756520616c7265616479207265636f72646564000000000000000000005f82015250565b5f6123eb6016836118b3565b91506123f6826123b7565b602082019050919050565b5f6020820190508181035f830152612418816123df565b9050919050565b5f6040820190508181035f83015261243781856118d1565b905061244660208301846117bf565b9392505050565b7f4f6666736574206f7574206f6620626f756e64730000000000000000000000005f82015250565b5f6124816014836118b3565b915061248c8261244d565b602082019050919050565b5f6020820190508181035f8301526124ae81612475565b9050919050565b5f6124bf826117b6565b91506124ca836117b6565b92508282019050808211156124e2576124e161224c565b5b92915050565b5f6124f2826117b6565b91506124fd836117b6565b92508282039050818111156125155761251461224c565b5b92915050565b7f4e487b71000000000000000000000000000000000000000000000000000000005f52603260045260245ffdfea26469706673582212207c4c533dfdf47bb6691d8afe69f034d8e31dc408f1fb2e76a6af60307e92520c64736f6c634300081f0033",
		"opcodes": "PUSH1 0x80 PUSH1 0x40 MSTORE CALLVALUE DUP1 ISZERO PUSH1 0xE JUMPI PUSH0 PUSH0 REVERT JUMPDEST POP PUSH2 0x257E DUP1 PUSH2 0x1C PUSH0 CODECOPY PUSH0 RETURN INVALID PUSH1 0x80 PUSH1 0x40 MSTORE CALLVALUE DUP1 ISZERO PUSH2 0xF JUMPI PUSH0 PUSH0 REVERT JUMPDEST POP PUSH1 0x4 CALLDATASIZE LT PUSH2 0xE7 JUMPI PUSH0 CALLDATALOAD PUSH1 0xE0 SHR DUP1 PUSH4 0x89376869 GT PUSH2 0x8A JUMPI DUP1 PUSH4 0xC6847060 GT PUSH2 0x64 JUMPI DUP1 PUSH4 0xC6847060 EQ PUSH2 0x2AB JUMPI DUP1 PUSH4 0xE38BA436 EQ PUSH2 0x2DB JUMPI DUP1 PUSH4 0xF62EF4B6 EQ PUSH2 0x310 JUMPI DUP1 PUSH4 0xF81E08C6 EQ PUSH2 0x32E JUMPI PUSH2 0xE7 JUMP JUMPDEST DUP1 PUSH4 0x89376869 EQ PUSH2 0x22C JUMPI DUP1 PUSH4 0x9C667C7D EQ PUSH2 0x25F JUMPI DUP1 PUSH4 0x9EBD2677 EQ PUSH2 0x27B JUMPI PUSH2 0xE7 JUMP JUMPDEST DUP1 PUSH4 0x31F4FFF0 GT PUSH2 0xC6 JUMPI DUP1 PUSH4 0x31F4FFF0 EQ PUSH2 0x167 JUMPI DUP1 PUSH4 0x3535CA9A EQ PUSH2 0x197 JUMPI DUP1 PUSH4 0x4B098976 EQ PUSH2 0x1C7 JUMPI DUP1 PUSH4 0x814A1096 EQ PUSH2 0x1F7 JUMPI PUSH2 0xE7 JUMP JUMPDEST DUP1 PUSH3 0xF2EAC2 EQ PUSH2 0xEB JUMPI DUP1 PUSH4 0x69953A7 EQ PUSH2 0x107 JUMPI DUP1 PUSH4 0x287DE362 EQ PUSH2 0x137 JUMPI JUMPDEST PUSH0 PUSH0 REVERT JUMPDEST PUSH2 0x105 PUSH1 0x4 DUP1 CALLDATASIZE SUB DUP2 ADD SWAP1 PUSH2 0x100 SWAP2 SWAP1 PUSH2 0x1715 JUMP JUMPDEST PUSH2 0x35E JUMP JUMPDEST STOP JUMPDEST PUSH2 0x121 PUSH1 0x4 DUP1 CALLDATASIZE SUB DUP2 ADD SWAP1 PUSH2 0x11C SWAP2 SWAP1 PUSH2 0x176F JUMP JUMPDEST PUSH2 0x68E JUMP JUMPDEST PUSH1 0x40 MLOAD PUSH2 0x12E SWAP2 SWAP1 PUSH2 0x17CE JUMP JUMPDEST PUSH1 0x40 MLOAD DUP1 SWAP2 SUB SWAP1 RETURN JUMPDEST PUSH2 0x151 PUSH1 0x4 DUP1 CALLDATASIZE SUB DUP2 ADD SWAP1 PUSH2 0x14C SWAP2 SWAP1 PUSH2 0x186B JUMP JUMPDEST PUSH2 0x723 JUMP JUMPDEST PUSH1 0x40 MLOAD PUSH2 0x15E SWAP2 SWAP1 PUSH2 0x1909 JUMP JUMPDEST PUSH1 0x40 MLOAD DUP1 SWAP2 SUB SWAP1 RETURN JUMPDEST PUSH2 0x181 PUSH1 0x4 DUP1 CALLDATASIZE SUB DUP2 ADD SWAP1 PUSH2 0x17C SWAP2 SWAP1 PUSH2 0x1929 JUMP JUMPDEST PUSH2 0x7D4 JUMP JUMPDEST PUSH1 0x40 MLOAD PUSH2 0x18E SWAP2 SWAP1 PUSH2 0x1909 JUMP JUMPDEST PUSH1 0x40 MLOAD DUP1 SWAP2 SUB SWAP1 RETURN JUMPDEST PUSH2 0x1B1 PUSH1 0x4 DUP1 CALLDATASIZE SUB DUP2 ADD SWAP1 PUSH2 0x1AC SWAP2 SWAP1 PUSH2 0x1954 JUMP JUMPDEST PUSH2 0x87A JUMP JUMPDEST PUSH1 0x40 MLOAD PUSH2 0x1BE SWAP2 SWAP1 PUSH2 0x1A82 JUMP JUMPDEST PUSH1 0x40 MLOAD DUP1 SWAP2 SUB SWAP1 RETURN JUMPDEST PUSH2 0x1E1 PUSH1 0x4 DUP1 CALLDATASIZE SUB DUP2 ADD SWAP1 PUSH2 0x1DC SWAP2 SWAP1 PUSH2 0x1AA2 JUMP JUMPDEST PUSH2 0x98B JUMP JUMPDEST PUSH1 0x40 MLOAD PUSH2 0x1EE SWAP2 SWAP1 PUSH2 0x1B0B JUMP JUMPDEST PUSH1 0x40 MLOAD DUP1 SWAP2 SUB SWAP1 RETURN JUMPDEST PUSH2 0x211 PUSH1 0x4 DUP1 CALLDATASIZE SUB DUP2 ADD SWAP1 PUSH2 0x20C SWAP2 SWAP1 PUSH2 0x176F JUMP JUMPDEST PUSH2 0x9FA JUMP JUMPDEST PUSH1 0x40 MLOAD PUSH2 0x223 SWAP7 SWAP6 SWAP5 SWAP4 SWAP3 SWAP2 SWAP1 PUSH2 0x1B33 JUMP JUMPDEST PUSH1 0x40 MLOAD DUP1 SWAP2 SUB SWAP1 RETURN JUMPDEST PUSH2 0x246 PUSH1 0x4 DUP1 CALLDATASIZE SUB DUP2 ADD SWAP1 PUSH2 0x241 SWAP2 SWAP1 PUSH2 0x1BA0 JUMP JUMPDEST PUSH2 0xC01 JUMP JUMPDEST PUSH1 0x40 MLOAD PUSH2 0x256 SWAP5 SWAP4 SWAP3 SWAP2 SWAP1 PUSH2 0x1BFA JUMP JUMPDEST PUSH1 0x40 MLOAD DUP1 SWAP2 SUB SWAP1 RETURN JUMPDEST PUSH2 0x279 PUSH1 0x4 DUP1 CALLDATASIZE SUB DUP2 ADD SWAP1 PUSH2 0x274 SWAP2 SWAP1 PUSH2 0x1C44 JUMP JUMPDEST PUSH2 0xD10 JUMP JUMPDEST STOP JUMPDEST PUSH2 0x295 PUSH1 0x4 DUP1 CALLDATASIZE SUB DUP2 ADD SWAP1 PUSH2 0x290 SWAP2 SWAP1 PUSH2 0x1CBA JUMP JUMPDEST PUSH2 0x1015 JUMP JUMPDEST PUSH1 0x40 MLOAD PUSH2 0x2A2 SWAP2 SWAP1 PUSH2 0x1A82 JUMP JUMPDEST PUSH1 0x40 MLOAD DUP1 SWAP2 SUB SWAP1 RETURN JUMPDEST PUSH2 0x2C5 PUSH1 0x4 DUP1 CALLDATASIZE SUB DUP2 ADD SWAP1 PUSH2 0x2C0 SWAP2 SWAP1 PUSH2 0x1AA2 JUMP JUMPDEST PUSH2 0x11D1 JUMP JUMPDEST PUSH1 0x40 MLOAD PUSH2 0x2D2 SWAP2 SWAP1 PUSH2 0x1B0B JUMP JUMPDEST PUSH1 0x40 MLOAD DUP1 SWAP2 SUB SWAP1 RETURN JUMPDEST PUSH2 0x2F5 PUSH1 0x4 DUP1 CALLDATASIZE SUB DUP2 ADD SWAP1 PUSH2 0x2F0 SWAP2 SWAP1 PUSH2 0x176F JUMP JUMPDEST PUSH2 0x1213 JUMP JUMPDEST PUSH1 0x40 MLOAD PUSH2 0x307 SWAP7 SWAP6 SWAP5 SWAP4 SWAP3 SWAP2 SWAP1 PUSH2 0x1B33 JUMP JUMPDEST PUSH1 0x40 MLOAD DUP1 SWAP2 SUB SWAP1 RETURN JUMPDEST PUSH2 0x318 PUSH2 0x1399 JUMP JUMPDEST PUSH1 0x40 MLOAD PUSH2 0x325 SWAP2 SWAP1 PUSH2 0x17CE JUMP JUMPDEST PUSH1 0x40 MLOAD DUP1 SWAP2 SUB SWAP1 RETURN JUMPDEST PUSH2 0x348 PUSH1 0x4 DUP1 CALLDATASIZE SUB DUP2 ADD SWAP1 PUSH2 0x343 SWAP2 SWAP1 PUSH2 0x176F JUMP JUMPDEST PUSH2 0x13A5 JUMP JUMPDEST PUSH1 0x40 MLOAD PUSH2 0x355 SWAP2 SWAP1 PUSH2 0x1E40 JUMP JUMPDEST PUSH1 0x40 MLOAD DUP1 SWAP2 SUB SWAP1 RETURN JUMPDEST PUSH0 DUP3 PUSH1 0x40 MLOAD PUSH2 0x36D SWAP2 SWAP1 PUSH2 0x1E9A JUMP JUMPDEST SWAP1 DUP2 MSTORE PUSH1 0x20 ADD PUSH1 0x40 MLOAD DUP1 SWAP2 SUB SWAP1 KECCAK256 PUSH1 0x5 ADD PUSH0 SWAP1 SLOAD SWAP1 PUSH2 0x100 EXP SWAP1 DIV PUSH1 0xFF AND PUSH2 0x3CA JUMPI PUSH1 0x40 MLOAD PUSH32 0x8C379A000000000000000000000000000000000000000000000000000000000 DUP2 MSTORE PUSH1 0x4 ADD PUSH2 0x3C1 SWAP1 PUSH2 0x1EFA JUMP JUMPDEST PUSH1 0x40 MLOAD DUP1 SWAP2 SUB SWAP1 REVERT JUMPDEST PUSH1 0x3 PUSH0 CALLER PUSH20 0xFFFFFFFFFFFFFFFFFFFFFFFFFFFFFFFFFFFFFFFF AND PUSH20 0xFFFFFFFFFFFFFFFFFFFFFFFFFFFFFFFFFFFFFFFF AND DUP2 MSTORE PUSH1 0x20 ADD SWAP1 DUP2 MSTORE PUSH1 0x20 ADD PUSH0 KECCAK256 DUP3 PUSH1 0x40 MLOAD PUSH2 0x415 SWAP2 SWAP1 PUSH2 0x1E9A JUMP JUMPDEST SWAP1 DUP2 MSTORE PUSH1 0x20 ADD PUSH1 0x40 MLOAD DUP1 SWAP2 SUB SWAP1 KECCAK256 PUSH0 SWAP1 SLOAD SWAP1 PUSH2 0x100 EXP SWAP1 DIV PUSH1 0xFF AND ISZERO PUSH2 0x470 JUMPI PUSH1 0x40 MLOAD PUSH32 0x8C379A000000000000000000000000000000000000000000000000000000000 DUP2 MSTORE PUSH1 0x4 ADD PUSH2 0x467 SWAP1 PUSH2 0x1F62 JUMP JUMPDEST PUSH1 0x40 MLOAD DUP1 SWAP2 SUB SWAP1 REVERT JUMPDEST PUSH0 PUSH1 0x40 MLOAD DUP1 PUSH1 0x80 ADD PUSH1 0x40 MSTORE DUP1 CALLER PUSH20 0xFFFFFFFFFFFFFFFFFFFFFFFFFFFFFFFFFFFFFFFF AND DUP2 MSTORE PUSH1 0x20 ADD DUP5 DUP2 MSTORE PUSH1 0x20 ADD TIMESTAMP DUP2 MSTORE PUSH1 0x20 ADD DUP4 ISZERO ISZERO DUP2 MSTORE POP SWAP1 POP PUSH1 0x1 DUP4 PUSH1 0x40 MLOAD PUSH2 0x4BC SWAP2 SWAP1 PUSH2 0x1E9A JUMP JUMPDEST SWAP1 DUP2 MSTORE PUSH1 0x20 ADD PUSH1 0x40 MLOAD DUP1 SWAP2 SUB SWAP1 KECCAK256 DUP2 SWAP1 DUP1 PUSH1 0x1 DUP2 SLOAD ADD DUP1 DUP3 SSTORE DUP1 SWAP2 POP POP PUSH1 0x1 SWAP1 SUB SWAP1 PUSH0 MSTORE PUSH1 0x20 PUSH0 KECCAK256 SWAP1 PUSH1 0x4 MUL ADD PUSH0 SWAP1 SWAP2 SWAP1 SWAP2 SWAP1 SWAP2 POP PUSH0 DUP3 ADD MLOAD DUP2 PUSH0 ADD PUSH0 PUSH2 0x100 EXP DUP2 SLOAD DUP2 PUSH20 0xFFFFFFFFFFFFFFFFFFFFFFFFFFFFFFFFFFFFFFFF MUL NOT AND SWAP1 DUP4 PUSH20 0xFFFFFFFFFFFFFFFFFFFFFFFFFFFFFFFFFFFFFFFF AND MUL OR SWAP1 SSTORE POP PUSH1 0x20 DUP3 ADD MLOAD DUP2 PUSH1 0x1 ADD SWAP1 DUP2 PUSH2 0x54A SWAP2 SWAP1 PUSH2 0x217D JUMP JUMPDEST POP PUSH1 0x40 DUP3 ADD MLOAD DUP2 PUSH1 0x2 ADD SSTORE PUSH1 0x60 DUP3 ADD MLOAD DUP2 PUSH1 0x3 ADD PUSH0 PUSH2 0x100 EXP DUP2 SLOAD DUP2 PUSH1 0xFF MUL NOT AND SWAP1 DUP4 ISZERO ISZERO MUL OR SWAP1 SSTORE POP POP POP PUSH1 0x1 PUSH1 0x3 PUSH0 CALLER PUSH20 0xFFFFFFFFFFFFFFFFFFFFFFFFFFFFFFFFFFFFFFFF AND PUSH20 0xFFFFFFFFFFFFFFFFFFFFFFFFFFFFFFFFFFFFFFFF AND DUP2 MSTORE PUSH1 0x20 ADD SWAP1 DUP2 MSTORE PUSH1 0x20 ADD PUSH0 KECCAK256 DUP5 PUSH1 0x40 MLOAD PUSH2 0x5C3 SWAP2 SWAP1 PUSH2 0x1E9A JUMP JUMPDEST SWAP1 DUP2 MSTORE PUSH1 0x20 ADD PUSH1 0x40 MLOAD DUP1 SWAP2 SUB SWAP1 KECCAK256 PUSH0 PUSH2 0x100 EXP DUP2 SLOAD DUP2 PUSH1 0xFF MUL NOT AND SWAP1 DUP4 ISZERO ISZERO MUL OR SWAP1 SSTORE POP DUP2 ISZERO PUSH2 0x623 JUMPI PUSH0 DUP4 PUSH1 0x40 MLOAD PUSH2 0x5FC SWAP2 SWAP1 PUSH2 0x1E9A JUMP JUMPDEST SWAP1 DUP2 MSTORE PUSH1 0x20 ADD PUSH1 0x40 MLOAD DUP1 SWAP2 SUB SWAP1 KECCAK256 PUSH1 0x4 ADD PUSH0 DUP2 SLOAD DUP1 SWAP3 SWAP2 SWAP1 PUSH2 0x61D SWAP1 PUSH2 0x2279 JUMP JUMPDEST SWAP2 SWAP1 POP SSTORE POP JUMPDEST CALLER PUSH20 0xFFFFFFFFFFFFFFFFFFFFFFFFFFFFFFFFFFFFFFFF AND DUP4 PUSH1 0x40 MLOAD PUSH2 0x648 SWAP2 SWAP1 PUSH2 0x1E9A JUMP JUMPDEST PUSH1 0x40 MLOAD DUP1 SWAP2 SUB SWAP1 KECCAK256 PUSH32 0x198E3ED8D34BB0748A994AA3DEC83BE23391B16A3539119F912746564BD35533 DUP5 TIMESTAMP PUSH1 0x40 MLOAD PUSH2 0x681 SWAP3 SWAP2 SWAP1 PUSH2 0x22C0 JUMP JUMPDEST PUSH1 0x40 MLOAD DUP1 SWAP2 SUB SWAP1 LOG3 POP POP POP JUMP JUMPDEST PUSH0 PUSH0 DUP3 PUSH1 0x40 MLOAD PUSH2 0x69E SWAP2 SWAP1 PUSH2 0x1E9A JUMP JUMPDEST SWAP1 DUP2 MSTORE PUSH1 0x20 ADD PUSH1 0x40 MLOAD DUP1 SWAP2 SUB SWAP1 KECCAK256 PUSH1 0x5 ADD PUSH0 SWAP1 SLOAD SWAP1 PUSH2 0x100 EXP SWAP1 DIV PUSH1 0xFF AND PUSH2 0x6FB JUMPI PUSH1 0x40 MLOAD PUSH32 0x8C379A000000000000000000000000000000000000000000000000000000000 DUP2 MSTORE PUSH1 0x4 ADD PUSH2 0x6F2 SWAP1 PUSH2 0x1EFA JUMP JUMPDEST PUSH1 0x40 MLOAD DUP1 SWAP2 SUB SWAP1 REVERT JUMPDEST PUSH0 DUP3 PUSH1 0x40 MLOAD PUSH2 0x70A SWAP2 SWAP1 PUSH2 0x1E9A JUMP JUMPDEST SWAP1 DUP2 MSTORE PUSH1 0x20 ADD PUSH1 0x40 MLOAD DUP1 SWAP2 SUB SWAP1 KECCAK256 PUSH1 0x4 ADD SLOAD SWAP1 POP SWAP2 SWAP1 POP JUMP JUMPDEST PUSH1 0x2 PUSH1 0x20 MSTORE DUP2 PUSH0 MSTORE PUSH1 0x40 PUSH0 KECCAK256 DUP2 DUP2 SLOAD DUP2 LT PUSH2 0x73C JUMPI PUSH0 DUP1 REVERT JUMPDEST SWAP1 PUSH0 MSTORE PUSH1 0x20 PUSH0 KECCAK256 ADD PUSH0 SWAP2 POP SWAP2 POP POP DUP1 SLOAD PUSH2 0x755 SWAP1 PUSH2 0x1FAD JUMP JUMPDEST DUP1 PUSH1 0x1F ADD PUSH1 0x20 DUP1 SWAP2 DIV MUL PUSH1 0x20 ADD PUSH1 0x40 MLOAD SWAP1 DUP2 ADD PUSH1 0x40 MSTORE DUP1 SWAP3 SWAP2 SWAP1 DUP2 DUP2 MSTORE PUSH1 0x20 ADD DUP3 DUP1 SLOAD PUSH2 0x781 SWAP1 PUSH2 0x1FAD JUMP JUMPDEST DUP1 ISZERO PUSH2 0x7CC JUMPI DUP1 PUSH1 0x1F LT PUSH2 0x7A3 JUMPI PUSH2 0x100 DUP1 DUP4 SLOAD DIV MUL DUP4 MSTORE SWAP2 PUSH1 0x20 ADD SWAP2 PUSH2 0x7CC JUMP JUMPDEST DUP3 ADD SWAP2 SWAP1 PUSH0 MSTORE PUSH1 0x20 PUSH0 KECCAK256 SWAP1 JUMPDEST DUP2 SLOAD DUP2 MSTORE SWAP1 PUSH1 0x1 ADD SWAP1 PUSH1 0x20 ADD DUP1 DUP4 GT PUSH2 0x7AF JUMPI DUP3 SWAP1 SUB PUSH1 0x1F AND DUP3 ADD SWAP2 JUMPDEST POP POP POP POP POP DUP2 JUMP JUMPDEST PUSH1 0x4 DUP2 DUP2 SLOAD DUP2 LT PUSH2 0x7E3 JUMPI PUSH0 DUP1 REVERT JUMPDEST SWAP1 PUSH0 MSTORE PUSH1 0x20 PUSH0 KECCAK256 ADD PUSH0 SWAP2 POP SWAP1 POP DUP1 SLOAD PUSH2 0x7FB SWAP1 PUSH2 0x1FAD JUMP JUMPDEST DUP1 PUSH1 0x1F ADD PUSH1 0x20 DUP1 SWAP2 DIV MUL PUSH1 0x20 ADD PUSH1 0x40 MLOAD SWAP1 DUP2 ADD PUSH1 0x40 MSTORE DUP1 SWAP3 SWAP2 SWAP1 DUP2 DUP2 MSTORE PUSH1 0x20 ADD DUP3 DUP1 SLOAD PUSH2 0x827 SWAP1 PUSH2 0x1FAD JUMP JUMPDEST DUP1 ISZERO PUSH2 0x872 JUMPI DUP1 PUSH1 0x1F LT PUSH2 0x849 JUMPI PUSH2 0x100 DUP1 DUP4 SLOAD DIV MUL DUP4 MSTORE SWAP2 PUSH1 0x20 ADD SWAP2 PUSH2 0x872 JUMP JUMPDEST DUP3 ADD SWAP2 SWAP1 PUSH0 MSTORE PUSH1 0x20 PUSH0 KECCAK256 SWAP1 JUMPDEST DUP2 SLOAD DUP2 MSTORE SWAP1 PUSH1 0x1 ADD SWAP1 PUSH1 0x20 ADD DUP1 DUP4 GT PUSH2 0x855 JUMPI DUP3 SWAP1 SUB PUSH1 0x1F AND DUP3 ADD SWAP2 JUMPDEST POP POP POP POP POP DUP2 JUMP JUMPDEST PUSH1 0x60 PUSH1 0x2 PUSH0 DUP4 PUSH20 0xFFFFFFFFFFFFFFFFFFFFFFFFFFFFFFFFFFFFFFFF AND PUSH20 0xFFFFFFFFFFFFFFFFFFFFFFFFFFFFFFFFFFFFFFFF AND DUP2 MSTORE PUSH1 0x20 ADD SWAP1 DUP2 MSTORE PUSH1 0x20 ADD PUSH0 KECCAK256 DUP1 SLOAD DUP1 PUSH1 0x20 MUL PUSH1 0x20 ADD PUSH1 0x40 MLOAD SWAP1 DUP2 ADD PUSH1 0x40 MSTORE DUP1 SWAP3 SWAP2 SWAP1 DUP2 DUP2 MSTORE PUSH1 0x20 ADD PUSH0 SWAP1 JUMPDEST DUP3 DUP3 LT ISZERO PUSH2 0x980 JUMPI DUP4 DUP3 SWAP1 PUSH0 MSTORE PUSH1 0x20 PUSH0 KECCAK256 ADD DUP1 SLOAD PUSH2 0x8F5 SWAP1 PUSH2 0x1FAD JUMP JUMPDEST DUP1 PUSH1 0x1F ADD PUSH1 0x20 DUP1 SWAP2 DIV MUL PUSH1 0x20 ADD PUSH1 0x40 MLOAD SWAP1 DUP2 ADD PUSH1 0x40 MSTORE DUP1 SWAP3 SWAP2 SWAP1 DUP2 DUP2 MSTORE PUSH1 0x20 ADD DUP3 DUP1 SLOAD PUSH2 0x921 SWAP1 PUSH2 0x1FAD JUMP JUMPDEST DUP1 ISZERO PUSH2 0x96C JUMPI DUP1 PUSH1 0x1F LT PUSH2 0x943 JUMPI PUSH2 0x100 DUP1 DUP4 SLOAD DIV MUL DUP4 MSTORE SWAP2 PUSH1 0x20 ADD SWAP2 PUSH2 0x96C JUMP JUMPDEST DUP3 ADD SWAP2 SWAP1 PUSH0 MSTORE PUSH1 0x20 PUSH0 KECCAK256 SWAP1 JUMPDEST DUP2 SLOAD DUP2 MSTORE SWAP1 PUSH1 0x1 ADD SWAP1 PUSH1 0x20 ADD DUP1 DUP4 GT PUSH2 0x94F JUMPI DUP3 SWAP1 SUB PUSH1 0x1F AND DUP3 ADD SWAP2 JUMPDEST POP POP POP POP POP DUP2 MSTORE PUSH1 0x20 ADD SWAP1 PUSH1 0x1 ADD SWAP1 PUSH2 0x8D8 JUMP JUMPDEST POP POP POP POP SWAP1 POP SWAP2 SWAP1 POP JUMP JUMPDEST PUSH0 PUSH1 0x3 PUSH0 DUP5 PUSH20 0xFFFFFFFFFFFFFFFFFFFFFFFFFFFFFFFFFFFFFFFF AND PUSH20 0xFFFFFFFFFFFFFFFFFFFFFFFFFFFFFFFFFFFFFFFF AND DUP2 MSTORE PUSH1 0x20 ADD SWAP1 DUP2 MSTORE PUSH1 0x20 ADD PUSH0 KECCAK256 DUP3 PUSH1 0x40 MLOAD PUSH2 0x9D7 SWAP2 SWAP1 PUSH2 0x1E9A JUMP JUMPDEST SWAP1 DUP2 MSTORE PUSH1 0x20 ADD PUSH1 0x40 MLOAD DUP1 SWAP2 SUB SWAP1 KECCAK256 PUSH0 SWAP1 SLOAD SWAP1 PUSH2 0x100 EXP SWAP1 DIV PUSH1 0xFF AND SWAP1 POP SWAP3 SWAP2 POP POP JUMP JUMPDEST PUSH1 0x60 DUP1 PUSH0 PUSH0 PUSH0 PUSH0 PUSH0 PUSH0 DUP9 PUSH1 0x40 MLOAD PUSH2 0xA11 SWAP2 SWAP1 PUSH2 0x1E9A JUMP JUMPDEST SWAP1 DUP2 MSTORE PUSH1 0x20 ADD PUSH1 0x40 MLOAD DUP1 SWAP2 SUB SWAP1 KECCAK256 PUSH1 0x40 MLOAD DUP1 PUSH1 0xC0 ADD PUSH1 0x40 MSTORE SWAP1 DUP2 PUSH0 DUP3 ADD DUP1 SLOAD PUSH2 0xA39 SWAP1 PUSH2 0x1FAD JUMP JUMPDEST DUP1 PUSH1 0x1F ADD PUSH1 0x20 DUP1 SWAP2 DIV MUL PUSH1 0x20 ADD PUSH1 0x40 MLOAD SWAP1 DUP2 ADD PUSH1 0x40 MSTORE DUP1 SWAP3 SWAP2 SWAP1 DUP2 DUP2 MSTORE PUSH1 0x20 ADD DUP3 DUP1 SLOAD PUSH2 0xA65 SWAP1 PUSH2 0x1FAD JUMP JUMPDEST DUP1 ISZERO PUSH2 0xAB0 JUMPI DUP1 PUSH1 0x1F LT PUSH2 0xA87 JUMPI PUSH2 0x100 DUP1 DUP4 SLOAD DIV MUL DUP4 MSTORE SWAP2 PUSH1 0x20 ADD SWAP2 PUSH2 0xAB0 JUMP JUMPDEST DUP3 ADD SWAP2 SWAP1 PUSH0 MSTORE PUSH1 0x20 PUSH0 KECCAK256 SWAP1 JUMPDEST DUP2 SLOAD DUP2 MSTORE SWAP1 PUSH1 0x1 ADD SWAP1 PUSH1 0x20 ADD DUP1 DUP4 GT PUSH2 0xA93 JUMPI DUP3 SWAP1 SUB PUSH1 0x1F AND DUP3 ADD SWAP2 JUMPDEST POP POP POP POP POP DUP2 MSTORE PUSH1 0x20 ADD PUSH1 0x1 DUP3 ADD DUP1 SLOAD PUSH2 0xAC9 SWAP1 PUSH2 0x1FAD JUMP JUMPDEST DUP1 PUSH1 0x1F ADD PUSH1 0x20 DUP1 SWAP2 DIV MUL PUSH1 0x20 ADD PUSH1 0x40 MLOAD SWAP1 DUP2 ADD PUSH1 0x40 MSTORE DUP1 SWAP3 SWAP2 SWAP1 DUP2 DUP2 MSTORE PUSH1 0x20 ADD DUP3 DUP1 SLOAD PUSH2 0xAF5 SWAP1 PUSH2 0x1FAD JUMP JUMPDEST DUP1 ISZERO PUSH2 0xB40 JUMPI DUP1 PUSH1 0x1F LT PUSH2 0xB17 JUMPI PUSH2 0x100 DUP1 DUP4 SLOAD DIV MUL DUP4 MSTORE SWAP2 PUSH1 0x20 ADD SWAP2 PUSH2 0xB40 JUMP JUMPDEST DUP3 ADD SWAP2 SWAP1 PUSH0 MSTORE PUSH1 0x20 PUSH0 KECCAK256 SWAP1 JUMPDEST DUP2 SLOAD DUP2 MSTORE SWAP1 PUSH1 0x1 ADD SWAP1 PUSH1 0x20 ADD DUP1 DUP4 GT PUSH2 0xB23 JUMPI DUP3 SWAP1 SUB PUSH1 0x1F AND DUP3 ADD SWAP2 JUMPDEST POP POP POP POP POP DUP2 MSTORE PUSH1 0x20 ADD PUSH1 0x2 DUP3 ADD PUSH0 SWAP1 SLOAD SWAP1 PUSH2 0x100 EXP SWAP1 DIV PUSH20 0xFFFFFFFFFFFFFFFFFFFFFFFFFFFFFFFFFFFFFFFF AND PUSH20 0xFFFFFFFFFFFFFFFFFFFFFFFFFFFFFFFFFFFFFFFF AND PUSH20 0xFFFFFFFFFFFFFFFFFFFFFFFFFFFFFFFFFFFFFFFF AND DUP2 MSTORE PUSH1 0x20 ADD PUSH1 0x3 DUP3 ADD SLOAD DUP2 MSTORE PUSH1 0x20 ADD PUSH1 0x4 DUP3 ADD SLOAD DUP2 MSTORE PUSH1 0x20 ADD PUSH1 0x5 DUP3 ADD PUSH0 SWAP1 SLOAD SWAP1 PUSH2 0x100 EXP SWAP1 DIV PUSH1 0xFF AND ISZERO ISZERO ISZERO ISZERO DUP2 MSTORE POP POP SWAP1 POP DUP1 PUSH0 ADD MLOAD DUP2 PUSH1 0x20 ADD MLOAD DUP3 PUSH1 0x40 ADD MLOAD DUP4 PUSH1 0x60 ADD MLOAD DUP5 PUSH1 0x80 ADD MLOAD DUP6 PUSH1 0xA0 ADD MLOAD SWAP7 POP SWAP7 POP SWAP7 POP SWAP7 POP SWAP7 POP SWAP7 POP POP SWAP2 SWAP4 SWAP6 POP SWAP2 SWAP4 SWAP6 JUMP JUMPDEST PUSH1 0x1 DUP3 DUP1 MLOAD PUSH1 0x20 DUP2 ADD DUP3 ADD DUP1 MLOAD DUP5 DUP3 MSTORE PUSH1 0x20 DUP4 ADD PUSH1 0x20 DUP6 ADD KECCAK256 DUP2 DUP4 MSTORE DUP1 SWAP6 POP POP POP POP POP POP DUP2 DUP2 SLOAD DUP2 LT PUSH2 0xC32 JUMPI PUSH0 DUP1 REVERT JUMPDEST SWAP1 PUSH0 MSTORE PUSH1 0x20 PUSH0 KECCAK256 SWAP1 PUSH1 0x4 MUL ADD PUSH0 SWAP2 POP SWAP2 POP POP DUP1 PUSH0 ADD PUSH0 SWAP1 SLOAD SWAP1 PUSH2 0x100 EXP SWAP1 DIV PUSH20 0xFFFFFFFFFFFFFFFFFFFFFFFFFFFFFFFFFFFFFFFF AND SWAP1 DUP1 PUSH1 0x1 ADD DUP1 SLOAD PUSH2 0xC77 SWAP1 PUSH2 0x1FAD JUMP JUMPDEST DUP1 PUSH1 0x1F ADD PUSH1 0x20 DUP1 SWAP2 DIV MUL PUSH1 0x20 ADD PUSH1 0x40 MLOAD SWAP1 DUP2 ADD PUSH1 0x40 MSTORE DUP1 SWAP3 SWAP2 SWAP1 DUP2 DUP2 MSTORE PUSH1 0x20 ADD DUP3 DUP1 SLOAD PUSH2 0xCA3 SWAP1 PUSH2 0x1FAD JUMP JUMPDEST DUP1 ISZERO PUSH2 0xCEE JUMPI DUP1 PUSH1 0x1F LT PUSH2 0xCC5 JUMPI PUSH2 0x100 DUP1 DUP4 SLOAD DIV MUL DUP4 MSTORE SWAP2 PUSH1 0x20 ADD SWAP2 PUSH2 0xCEE JUMP JUMPDEST DUP3 ADD SWAP2 SWAP1 PUSH0 MSTORE PUSH1 0x20 PUSH0 KECCAK256 SWAP1 JUMPDEST DUP2 SLOAD DUP2 MSTORE SWAP1 PUSH1 0x1 ADD SWAP1 PUSH1 0x20 ADD DUP1 DUP4 GT PUSH2 0xCD1 JUMPI DUP3 SWAP1 SUB PUSH1 0x1F AND DUP3 ADD SWAP2 JUMPDEST POP POP POP POP POP SWAP1 DUP1 PUSH1 0x2 ADD SLOAD SWAP1 DUP1 PUSH1 0x3 ADD PUSH0 SWAP1 SLOAD SWAP1 PUSH2 0x100 EXP SWAP1 DIV PUSH1 0xFF AND SWAP1 POP DUP5 JUMP JUMPDEST PUSH0 DUP3 MLOAD GT PUSH2 0xD53 JUMPI PUSH1 0x40 MLOAD PUSH32 0x8C379A000000000000000000000000000000000000000000000000000000000 DUP2 MSTORE PUSH1 0x4 ADD PUSH2 0xD4A SWAP1 PUSH2 0x2331 JUMP JUMPDEST PUSH1 0x40 MLOAD DUP1 SWAP2 SUB SWAP1 REVERT JUMPDEST PUSH0 DUP2 MLOAD GT PUSH2 0xD96 JUMPI PUSH1 0x40 MLOAD PUSH32 0x8C379A000000000000000000000000000000000000000000000000000000000 DUP2 MSTORE PUSH1 0x4 ADD PUSH2 0xD8D SWAP1 PUSH2 0x2399 JUMP JUMPDEST PUSH1 0x40 MLOAD DUP1 SWAP2 SUB SWAP1 REVERT JUMPDEST PUSH0 DUP3 PUSH1 0x40 MLOAD PUSH2 0xDA5 SWAP2 SWAP1 PUSH2 0x1E9A JUMP JUMPDEST SWAP1 DUP2 MSTORE PUSH1 0x20 ADD PUSH1 0x40 MLOAD DUP1 SWAP2 SUB SWAP1 KECCAK256 PUSH1 0x5 ADD PUSH0 SWAP1 SLOAD SWAP1 PUSH2 0x100 EXP SWAP1 DIV PUSH1 0xFF AND ISZERO PUSH2 0xE03 JUMPI PUSH1 0x40 MLOAD PUSH32 0x8C379A000000000000000000000000000000000000000000000000000000000 DUP2 MSTORE PUSH1 0x4 ADD PUSH2 0xDFA SWAP1 PUSH2 0x2401 JUMP JUMPDEST PUSH1 0x40 MLOAD DUP1 SWAP2 SUB SWAP1 REVERT JUMPDEST PUSH1 0x40 MLOAD DUP1 PUSH1 0xC0 ADD PUSH1 0x40 MSTORE DUP1 DUP4 DUP2 MSTORE PUSH1 0x20 ADD DUP3 DUP2 MSTORE PUSH1 0x20 ADD CALLER PUSH20 0xFFFFFFFFFFFFFFFFFFFFFFFFFFFFFFFFFFFFFFFF AND DUP2 MSTORE PUSH1 0x20 ADD TIMESTAMP DUP2 MSTORE PUSH1 0x20 ADD PUSH0 DUP2 MSTORE PUSH1 0x20 ADD PUSH1 0x1 ISZERO ISZERO DUP2 MSTORE POP PUSH0 DUP4 PUSH1 0x40 MLOAD PUSH2 0xE58 SWAP2 SWAP1 PUSH2 0x1E9A JUMP JUMPDEST SWAP1 DUP2 MSTORE PUSH1 0x20 ADD PUSH1 0x40 MLOAD DUP1 SWAP2 SUB SWAP1 KECCAK256 PUSH0 DUP3 ADD MLOAD DUP2 PUSH0 ADD SWAP1 DUP2 PUSH2 0xE79 SWAP2 SWAP1 PUSH2 0x217D JUMP JUMPDEST POP PUSH1 0x20 DUP3 ADD MLOAD DUP2 PUSH1 0x1 ADD SWAP1 DUP2 PUSH2 0xE8F SWAP2 SWAP1 PUSH2 0x217D JUMP JUMPDEST POP PUSH1 0x40 DUP3 ADD MLOAD DUP2 PUSH1 0x2 ADD PUSH0 PUSH2 0x100 EXP DUP2 SLOAD DUP2 PUSH20 0xFFFFFFFFFFFFFFFFFFFFFFFFFFFFFFFFFFFFFFFF MUL NOT AND SWAP1 DUP4 PUSH20 0xFFFFFFFFFFFFFFFFFFFFFFFFFFFFFFFFFFFFFFFF AND MUL OR SWAP1 SSTORE POP PUSH1 0x60 DUP3 ADD MLOAD DUP2 PUSH1 0x3 ADD SSTORE PUSH1 0x80 DUP3 ADD MLOAD DUP2 PUSH1 0x4 ADD SSTORE PUSH1 0xA0 DUP3 ADD MLOAD DUP2 PUSH1 0x5 ADD PUSH0 PUSH2 0x100 EXP DUP2 SLOAD DUP2 PUSH1 0xFF MUL NOT AND SWAP1 DUP4 ISZERO ISZERO MUL OR SWAP1 SSTORE POP SWAP1 POP POP PUSH1 0x4 DUP3 SWAP1 DUP1 PUSH1 0x1 DUP2 SLOAD ADD DUP1 DUP3 SSTORE DUP1 SWAP2 POP POP PUSH1 0x1 SWAP1 SUB SWAP1 PUSH0 MSTORE PUSH1 0x20 PUSH0 KECCAK256 ADD PUSH0 SWAP1 SWAP2 SWAP1 SWAP2 SWAP1 SWAP2 POP SWAP1 DUP2 PUSH2 0xF3D SWAP2 SWAP1 PUSH2 0x217D JUMP JUMPDEST POP PUSH1 0x2 PUSH0 CALLER PUSH20 0xFFFFFFFFFFFFFFFFFFFFFFFFFFFFFFFFFFFFFFFF AND PUSH20 0xFFFFFFFFFFFFFFFFFFFFFFFFFFFFFFFFFFFFFFFF AND DUP2 MSTORE PUSH1 0x20 ADD SWAP1 DUP2 MSTORE PUSH1 0x20 ADD PUSH0 KECCAK256 DUP3 SWAP1 DUP1 PUSH1 0x1 DUP2 SLOAD ADD DUP1 DUP3 SSTORE DUP1 SWAP2 POP POP PUSH1 0x1 SWAP1 SUB SWAP1 PUSH0 MSTORE PUSH1 0x20 PUSH0 KECCAK256 ADD PUSH0 SWAP1 SWAP2 SWAP1 SWAP2 SWAP1 SWAP2 POP SWAP1 DUP2 PUSH2 0xFAA SWAP2 SWAP1 PUSH2 0x217D JUMP JUMPDEST POP CALLER PUSH20 0xFFFFFFFFFFFFFFFFFFFFFFFFFFFFFFFFFFFFFFFF AND DUP3 PUSH1 0x40 MLOAD PUSH2 0xFD0 SWAP2 SWAP1 PUSH2 0x1E9A JUMP JUMPDEST PUSH1 0x40 MLOAD DUP1 SWAP2 SUB SWAP1 KECCAK256 PUSH32 0x8D9E646B7BE50523DBF45D232DEA79BF57ED2EA290147F46D64D74918BCCE742 DUP4 TIMESTAMP PUSH1 0x40 MLOAD PUSH2 0x1009 SWAP3 SWAP2 SWAP1 PUSH2 0x241F JUMP JUMPDEST PUSH1 0x40 MLOAD DUP1 SWAP2 SUB SWAP1 LOG3 POP POP JUMP JUMPDEST PUSH1 0x60 PUSH1 0x4 DUP1 SLOAD SWAP1 POP DUP4 LT PUSH2 0x105E JUMPI PUSH1 0x40 MLOAD PUSH32 0x8C379A000000000000000000000000000000000000000000000000000000000 DUP2 MSTORE PUSH1 0x4 ADD PUSH2 0x1055 SWAP1 PUSH2 0x2497 JUMP JUMPDEST PUSH1 0x40 MLOAD DUP1 SWAP2 SUB SWAP1 REVERT JUMPDEST PUSH0 DUP3 DUP5 PUSH2 0x106B SWAP2 SWAP1 PUSH2 0x24B5 JUMP JUMPDEST SWAP1 POP PUSH1 0x4 DUP1 SLOAD SWAP1 POP DUP2 GT ISZERO PUSH2 0x1083 JUMPI PUSH1 0x4 DUP1 SLOAD SWAP1 POP SWAP1 POP JUMPDEST PUSH0 DUP5 DUP3 PUSH2 0x1090 SWAP2 SWAP1 PUSH2 0x24E8 JUMP JUMPDEST PUSH8 0xFFFFFFFFFFFFFFFF DUP2 GT ISZERO PUSH2 0x10A9 JUMPI PUSH2 0x10A8 PUSH2 0x15BC JUMP JUMPDEST JUMPDEST PUSH1 0x40 MLOAD SWAP1 DUP1 DUP3 MSTORE DUP1 PUSH1 0x20 MUL PUSH1 0x20 ADD DUP3 ADD PUSH1 0x40 MSTORE DUP1 ISZERO PUSH2 0x10DC JUMPI DUP2 PUSH1 0x20 ADD JUMPDEST PUSH1 0x60 DUP2 MSTORE PUSH1 0x20 ADD SWAP1 PUSH1 0x1 SWAP1 SUB SWAP1 DUP2 PUSH2 0x10C7 JUMPI SWAP1 POP JUMPDEST POP SWAP1 POP PUSH0 DUP6 SWAP1 POP JUMPDEST DUP3 DUP2 LT ISZERO PUSH2 0x11C5 JUMPI PUSH1 0x4 DUP2 DUP2 SLOAD DUP2 LT PUSH2 0x1100 JUMPI PUSH2 0x10FF PUSH2 0x251B JUMP JUMPDEST JUMPDEST SWAP1 PUSH0 MSTORE PUSH1 0x20 PUSH0 KECCAK256 ADD DUP1 SLOAD PUSH2 0x1113 SWAP1 PUSH2 0x1FAD JUMP JUMPDEST DUP1 PUSH1 0x1F ADD PUSH1 0x20 DUP1 SWAP2 DIV MUL PUSH1 0x20 ADD PUSH1 0x40 MLOAD SWAP1 DUP2 ADD PUSH1 0x40 MSTORE DUP1 SWAP3 SWAP2 SWAP1 DUP2 DUP2 MSTORE PUSH1 0x20 ADD DUP3 DUP1 SLOAD PUSH2 0x113F SWAP1 PUSH2 0x1FAD JUMP JUMPDEST DUP1 ISZERO PUSH2 0x118A JUMPI DUP1 PUSH1 0x1F LT PUSH2 0x1161 JUMPI PUSH2 0x100 DUP1 DUP4 SLOAD DIV MUL DUP4 MSTORE SWAP2 PUSH1 0x20 ADD SWAP2 PUSH2 0x118A JUMP JUMPDEST DUP3 ADD SWAP2 SWAP1 PUSH0 MSTORE PUSH1 0x20 PUSH0 KECCAK256 SWAP1 JUMPDEST DUP2 SLOAD DUP2 MSTORE SWAP1 PUSH1 0x1 ADD SWAP1 PUSH1 0x20 ADD DUP1 DUP4 GT PUSH2 0x116D JUMPI DUP3 SWAP1 SUB PUSH1 0x1F AND DUP3 ADD SWAP2 JUMPDEST POP POP POP POP POP DUP3 DUP8 DUP4 PUSH2 0x119C SWAP2 SWAP1 PUSH2 0x24E8 JUMP JUMPDEST DUP2 MLOAD DUP2 LT PUSH2 0x11AD JUMPI PUSH2 0x11AC PUSH2 0x251B JUMP JUMPDEST JUMPDEST PUSH1 0x20 MUL PUSH1 0x20 ADD ADD DUP2 SWAP1 MSTORE POP DUP1 DUP1 PUSH1 0x1 ADD SWAP2 POP POP PUSH2 0x10E4 JUMP JUMPDEST POP DUP1 SWAP3 POP POP POP SWAP3 SWAP2 POP POP JUMP JUMPDEST PUSH1 0x3 PUSH1 0x20 MSTORE DUP2 PUSH0 MSTORE PUSH1 0x40 PUSH0 KECCAK256 DUP2 DUP1 MLOAD PUSH1 0x20 DUP2 ADD DUP3 ADD DUP1 MLOAD DUP5 DUP3 MSTORE PUSH1 0x20 DUP4 ADD PUSH1 0x20 DUP6 ADD KECCAK256 DUP2 DUP4 MSTORE DUP1 SWAP6 POP POP POP POP POP POP PUSH0 SWAP2 POP SWAP2 POP SWAP1 SLOAD SWAP1 PUSH2 0x100 EXP SWAP1 DIV PUSH1 0xFF AND DUP2 JUMP JUMPDEST PUSH0 DUP2 DUP1 MLOAD PUSH1 0x20 DUP2 ADD DUP3 ADD DUP1 MLOAD DUP5 DUP3 MSTORE PUSH1 0x20 DUP4 ADD PUSH1 0x20 DUP6 ADD KECCAK256 DUP2 DUP4 MSTORE DUP1 SWAP6 POP POP POP POP POP POP PUSH0 SWAP2 POP SWAP1 POP DUP1 PUSH0 ADD DUP1 SLOAD PUSH2 0x1249 SWAP1 PUSH2 0x1FAD JUMP JUMPDEST DUP1 PUSH1 0x1F ADD PUSH1 0x20 DUP1 SWAP2 DIV MUL PUSH1 0x20 ADD PUSH1 0x40 MLOAD SWAP1 DUP2 ADD PUSH1 0x40 MSTORE DUP1 SWAP3 SWAP2 SWAP1 DUP2 DUP2 MSTORE PUSH1 0x20 ADD DUP3 DUP1 SLOAD PUSH2 0x1275 SWAP1 PUSH2 0x1FAD JUMP JUMPDEST DUP1 ISZERO PUSH2 0x12C0 JUMPI DUP1 PUSH1 0x1F LT PUSH2 0x1297 JUMPI PUSH2 0x100 DUP1 DUP4 SLOAD DIV MUL DUP4 MSTORE SWAP2 PUSH1 0x20 ADD SWAP2 PUSH2 0x12C0 JUMP JUMPDEST DUP3 ADD SWAP2 SWAP1 PUSH0 MSTORE PUSH1 0x20 PUSH0 KECCAK256 SWAP1 JUMPDEST DUP2 SLOAD DUP2 MSTORE SWAP1 PUSH1 0x1 ADD SWAP1 PUSH1 0x20 ADD DUP1 DUP4 GT PUSH2 0x12A3 JUMPI DUP3 SWAP1 SUB PUSH1 0x1F AND DUP3 ADD SWAP2 JUMPDEST POP POP POP POP POP SWAP1 DUP1 PUSH1 0x1 ADD DUP1 SLOAD PUSH2 0x12D5 SWAP1 PUSH2 0x1FAD JUMP JUMPDEST DUP1 PUSH1 0x1F ADD PUSH1 0x20 DUP1 SWAP2 DIV MUL PUSH1 0x20 ADD PUSH1 0x40 MLOAD SWAP1 DUP2 ADD PUSH1 0x40 MSTORE DUP1 SWAP3 SWAP2 SWAP1 DUP2 DUP2 MSTORE PUSH1 0x20 ADD DUP3 DUP1 SLOAD PUSH2 0x1301 SWAP1 PUSH2 0x1FAD JUMP JUMPDEST DUP1 ISZERO PUSH2 0x134C JUMPI DUP1 PUSH1 0x1F LT PUSH2 0x1323 JUMPI PUSH2 0x100 DUP1 DUP4 SLOAD DIV MUL DUP4 MSTORE SWAP2 PUSH1 0x20 ADD SWAP2 PUSH2 0x134C JUMP JUMPDEST DUP3 ADD SWAP2 SWAP1 PUSH0 MSTORE PUSH1 0x20 PUSH0 KECCAK256 SWAP1 JUMPDEST DUP2 SLOAD DUP2 MSTORE SWAP1 PUSH1 0x1 ADD SWAP1 PUSH1 0x20 ADD DUP1 DUP4 GT PUSH2 0x132F JUMPI DUP3 SWAP1 SUB PUSH1 0x1F AND DUP3 ADD SWAP2 JUMPDEST POP POP POP POP POP SWAP1 DUP1 PUSH1 0x2 ADD PUSH0 SWAP1 SLOAD SWAP1 PUSH2 0x100 EXP SWAP1 DIV PUSH20 0xFFFFFFFFFFFFFFFFFFFFFFFFFFFFFFFFFFFFFFFF AND SWAP1 DUP1 PUSH1 0x3 ADD SLOAD SWAP1 DUP1 PUSH1 0x4 ADD SLOAD SWAP1 DUP1 PUSH1 0x5 ADD PUSH0 SWAP1 SLOAD SWAP1 PUSH2 0x100 EXP SWAP1 DIV PUSH1 0xFF AND SWAP1 POP DUP7 JUMP JUMPDEST PUSH0 PUSH1 0x4 DUP1 SLOAD SWAP1 POP SWAP1 POP SWAP1 JUMP JUMPDEST PUSH1 0x60 PUSH0 DUP3 PUSH1 0x40 MLOAD PUSH2 0x13B6 SWAP2 SWAP1 PUSH2 0x1E9A JUMP JUMPDEST SWAP1 DUP2 MSTORE PUSH1 0x20 ADD PUSH1 0x40 MLOAD DUP1 SWAP2 SUB SWAP1 KECCAK256 PUSH1 0x5 ADD PUSH0 SWAP1 SLOAD SWAP1 PUSH2 0x100 EXP SWAP1 DIV PUSH1 0xFF AND PUSH2 0x1413 JUMPI PUSH1 0x40 MLOAD PUSH32 0x8C379A000000000000000000000000000000000000000000000000000000000 DUP2 MSTORE PUSH1 0x4 ADD PUSH2 0x140A SWAP1 PUSH2 0x1EFA JUMP JUMPDEST PUSH1 0x40 MLOAD DUP1 SWAP2 SUB SWAP1 REVERT JUMPDEST PUSH1 0x1 DUP3 PUSH1 0x40 MLOAD PUSH2 0x1423 SWAP2 SWAP1 PUSH2 0x1E9A JUMP JUMPDEST SWAP1 DUP2 MSTORE PUSH1 0x20 ADD PUSH1 0x40 MLOAD DUP1 SWAP2 SUB SWAP1 KECCAK256 DUP1 SLOAD DUP1 PUSH1 0x20 MUL PUSH1 0x20 ADD PUSH1 0x40 MLOAD SWAP1 DUP2 ADD PUSH1 0x40 MSTORE DUP1 SWAP3 SWAP2 SWAP1 DUP2 DUP2 MSTORE PUSH1 0x20 ADD PUSH0 SWAP1 JUMPDEST DUP3 DUP3 LT ISZERO PUSH2 0x1588 JUMPI DUP4 DUP3 SWAP1 PUSH0 MSTORE PUSH1 0x20 PUSH0 KECCAK256 SWAP1 PUSH1 0x4 MUL ADD PUSH1 0x40 MLOAD DUP1 PUSH1 0x80 ADD PUSH1 0x40 MSTORE SWAP1 DUP2 PUSH0 DUP3 ADD PUSH0 SWAP1 SLOAD SWAP1 PUSH2 0x100 EXP SWAP1 DIV PUSH20 0xFFFFFFFFFFFFFFFFFFFFFFFFFFFFFFFFFFFFFFFF AND PUSH20 0xFFFFFFFFFFFFFFFFFFFFFFFFFFFFFFFFFFFFFFFF AND PUSH20 0xFFFFFFFFFFFFFFFFFFFFFFFFFFFFFFFFFFFFFFFF AND DUP2 MSTORE PUSH1 0x20 ADD PUSH1 0x1 DUP3 ADD DUP1 SLOAD PUSH2 0x14D5 SWAP1 PUSH2 0x1FAD JUMP JUMPDEST DUP1 PUSH1 0x1F ADD PUSH1 0x20 DUP1 SWAP2 DIV MUL PUSH1 0x20 ADD PUSH1 0x40 MLOAD SWAP1 DUP2 ADD PUSH1 0x40 MSTORE DUP1 SWAP3 SWAP2 SWAP1 DUP2 DUP2 MSTORE PUSH1 0x20 ADD DUP3 DUP1 SLOAD PUSH2 0x1501 SWAP1 PUSH2 0x1FAD JUMP JUMPDEST DUP1 ISZERO PUSH2 0x154C JUMPI DUP1 PUSH1 0x1F LT PUSH2 0x1523 JUMPI PUSH2 0x100 DUP1 DUP4 SLOAD DIV MUL DUP4 MSTORE SWAP2 PUSH1 0x20 ADD SWAP2 PUSH2 0x154C JUMP JUMPDEST DUP3 ADD SWAP2 SWAP1 PUSH0 MSTORE PUSH1 0x20 PUSH0 KECCAK256 SWAP1 JUMPDEST DUP2 SLOAD DUP2 MSTORE SWAP1 PUSH1 0x1 ADD SWAP1 PUSH1 0x20 ADD DUP1 DUP4 GT PUSH2 0x152F JUMPI DUP3 SWAP1 SUB PUSH1 0x1F AND DUP3 ADD SWAP2 JUMPDEST POP POP POP POP POP DUP2 MSTORE PUSH1 0x20 ADD PUSH1 0x2 DUP3 ADD SLOAD DUP2 MSTORE PUSH1 0x20 ADD PUSH1 0x3 DUP3 ADD PUSH0 SWAP1 SLOAD SWAP1 PUSH2 0x100 EXP SWAP1 DIV PUSH1 0xFF AND ISZERO ISZERO ISZERO ISZERO DUP2 MSTORE POP POP DUP2 MSTORE PUSH1 0x20 ADD SWAP1 PUSH1 0x1 ADD SWAP1 PUSH2 0x1450 JUMP JUMPDEST POP POP POP POP SWAP1 POP SWAP2 SWAP1 POP JUMP JUMPDEST PUSH0 PUSH1 0x40 MLOAD SWAP1 POP SWAP1 JUMP JUMPDEST PUSH0 PUSH0 REVERT JUMPDEST PUSH0 PUSH0 REVERT JUMPDEST PUSH0 PUSH0 REVERT JUMPDEST PUSH0 PUSH0 REVERT JUMPDEST PUSH0 PUSH1 0x1F NOT PUSH1 0x1F DUP4 ADD AND SWAP1 POP SWAP2 SWAP1 POP JUMP JUMPDEST PUSH32 0x4E487B7100000000000000000000000000000000000000000000000000000000 PUSH0 MSTORE PUSH1 0x41 PUSH1 0x4 MSTORE PUSH1 0x24 PUSH0 REVERT JUMPDEST PUSH2 0x15F2 DUP3 PUSH2 0x15AC JUMP JUMPDEST DUP2 ADD DUP2 DUP2 LT PUSH8 0xFFFFFFFFFFFFFFFF DUP3 GT OR ISZERO PUSH2 0x1611 JUMPI PUSH2 0x1610 PUSH2 0x15BC JUMP JUMPDEST JUMPDEST DUP1 PUSH1 0x40 MSTORE POP POP POP JUMP JUMPDEST PUSH0 PUSH2 0x1623 PUSH2 0x1593 JUMP JUMPDEST SWAP1 POP PUSH2 0x162F DUP3 DUP3 PUSH2 0x15E9 JUMP JUMPDEST SWAP2 SWAP1 POP JUMP JUMPDEST PUSH0 PUSH8 0xFFFFFFFFFFFFFFFF DUP3 GT ISZERO PUSH2 0x164E JUMPI PUSH2 0x164D PUSH2 0x15BC JUMP JUMPDEST JUMPDEST PUSH2 0x1657 DUP3 PUSH2 0x15AC JUMP JUMPDEST SWAP1 POP PUSH1 0x20 DUP2 ADD SWAP1 POP SWAP2 SWAP1 POP JUMP JUMPDEST DUP3 DUP2 DUP4 CALLDATACOPY PUSH0 DUP4 DUP4 ADD MSTORE POP POP POP JUMP JUMPDEST PUSH0 PUSH2 0x1684 PUSH2 0x167F DUP5 PUSH2 0x1634 JUMP JUMPDEST PUSH2 0x161A JUMP JUMPDEST SWAP1 POP DUP3 DUP2 MSTORE PUSH1 0x20 DUP2 ADD DUP5 DUP5 DUP5 ADD GT ISZERO PUSH2 0x16A0 JUMPI PUSH2 0x169F PUSH2 0x15A8 JUMP JUMPDEST JUMPDEST PUSH2 0x16AB DUP5 DUP3 DUP6 PUSH2 0x1664 JUMP JUMPDEST POP SWAP4 SWAP3 POP POP POP JUMP JUMPDEST PUSH0 DUP3 PUSH1 0x1F DUP4 ADD SLT PUSH2 0x16C7 JUMPI PUSH2 0x16C6 PUSH2 0x15A4 JUMP JUMPDEST JUMPDEST DUP2 CALLDATALOAD PUSH2 0x16D7 DUP5 DUP3 PUSH1 0x20 DUP7 ADD PUSH2 0x1672 JUMP JUMPDEST SWAP2 POP POP SWAP3 SWAP2 POP POP JUMP JUMPDEST PUSH0 DUP2 ISZERO ISZERO SWAP1 POP SWAP2 SWAP1 POP JUMP JUMPDEST PUSH2 0x16F4 DUP2 PUSH2 0x16E0 JUMP JUMPDEST DUP2 EQ PUSH2 0x16FE JUMPI PUSH0 PUSH0 REVERT JUMPDEST POP JUMP JUMPDEST PUSH0 DUP2 CALLDATALOAD SWAP1 POP PUSH2 0x170F DUP2 PUSH2 0x16EB JUMP JUMPDEST SWAP3 SWAP2 POP POP JUMP JUMPDEST PUSH0 PUSH0 PUSH1 0x40 DUP4 DUP6 SUB SLT ISZERO PUSH2 0x172B JUMPI PUSH2 0x172A PUSH2 0x159C JUMP JUMPDEST JUMPDEST PUSH0 DUP4 ADD CALLDATALOAD PUSH8 0xFFFFFFFFFFFFFFFF DUP2 GT ISZERO PUSH2 0x1748 JUMPI PUSH2 0x1747 PUSH2 0x15A0 JUMP JUMPDEST JUMPDEST PUSH2 0x1754 DUP6 DUP3 DUP7 ADD PUSH2 0x16B3 JUMP JUMPDEST SWAP3 POP POP PUSH1 0x20 PUSH2 0x1765 DUP6 DUP3 DUP7 ADD PUSH2 0x1701 JUMP JUMPDEST SWAP2 POP POP SWAP3 POP SWAP3 SWAP1 POP JUMP JUMPDEST PUSH0 PUSH1 0x20 DUP3 DUP5 SUB SLT ISZERO PUSH2 0x1784 JUMPI PUSH2 0x1783 PUSH2 0x159C JUMP JUMPDEST JUMPDEST PUSH0 DUP3 ADD CALLDATALOAD PUSH8 0xFFFFFFFFFFFFFFFF DUP2 GT ISZERO PUSH2 0x17A1 JUMPI PUSH2 0x17A0 PUSH2 0x15A0 JUMP JUMPDEST JUMPDEST PUSH2 0x17AD DUP5 DUP3 DUP6 ADD PUSH2 0x16B3 JUMP JUMPDEST SWAP2 POP POP SWAP3 SWAP2 POP POP JUMP JUMPDEST PUSH0 DUP2 SWAP1 POP SWAP2 SWAP1 POP JUMP JUMPDEST PUSH2 0x17C8 DUP2 PUSH2 0x17B6 JUMP JUMPDEST DUP3 MSTORE POP POP JUMP JUMPDEST PUSH0 PUSH1 0x20 DUP3 ADD SWAP1 POP PUSH2 0x17E1 PUSH0 DUP4 ADD DUP5 PUSH2 0x17BF JUMP JUMPDEST SWAP3 SWAP2 POP POP JUMP JUMPDEST PUSH0 PUSH20 0xFFFFFFFFFFFFFFFFFFFFFFFFFFFFFFFFFFFFFFFF DUP3 AND SWAP1 POP SWAP2 SWAP1 POP JUMP JUMPDEST PUSH0 PUSH2 0x1810 DUP3 PUSH2 0x17E7 JUMP JUMPDEST SWAP1 POP SWAP2 SWAP1 POP JUMP JUMPDEST PUSH2 0x1820 DUP2 PUSH2 0x1806 JUMP JUMPDEST DUP2 EQ PUSH2 0x182A JUMPI PUSH0 PUSH0 REVERT JUMPDEST POP JUMP JUMPDEST PUSH0 DUP2 CALLDATALOAD SWAP1 POP PUSH2 0x183B DUP2 PUSH2 0x1817 JUMP JUMPDEST SWAP3 SWAP2 POP POP JUMP JUMPDEST PUSH2 0x184A DUP2 PUSH2 0x17B6 JUMP JUMPDEST DUP2 EQ PUSH2 0x1854 JUMPI PUSH0 PUSH0 REVERT JUMPDEST POP JUMP JUMPDEST PUSH0 DUP2 CALLDATALOAD SWAP1 POP PUSH2 0x1865 DUP2 PUSH2 0x1841 JUMP JUMPDEST SWAP3 SWAP2 POP POP JUMP JUMPDEST PUSH0 PUSH0 PUSH1 0x40 DUP4 DUP6 SUB SLT ISZERO PUSH2 0x1881 JUMPI PUSH2 0x1880 PUSH2 0x159C JUMP JUMPDEST JUMPDEST PUSH0 PUSH2 0x188E DUP6 DUP3 DUP7 ADD PUSH2 0x182D JUMP JUMPDEST SWAP3 POP POP PUSH1 0x20 PUSH2 0x189F DUP6 DUP3 DUP7 ADD PUSH2 0x1857 JUMP JUMPDEST SWAP2 POP POP SWAP3 POP SWAP3 SWAP1 POP JUMP JUMPDEST PUSH0 DUP2 MLOAD SWAP1 POP SWAP2 SWAP1 POP JUMP JUMPDEST PUSH0 DUP3 DUP3 MSTORE PUSH1 0x20 DUP3 ADD SWAP1 POP SWAP3 SWAP2 POP POP JUMP JUMPDEST DUP3 DUP2 DUP4 MCOPY PUSH0 DUP4 DUP4 ADD MSTORE POP POP POP JUMP JUMPDEST PUSH0 PUSH2 0x18DB DUP3 PUSH2 0x18A9 JUMP JUMPDEST PUSH2 0x18E5 DUP2 DUP6 PUSH2 0x18B3 JUMP JUMPDEST SWAP4 POP PUSH2 0x18F5 DUP2 DUP6 PUSH1 0x20 DUP7 ADD PUSH2 0x18C3 JUMP JUMPDEST PUSH2 0x18FE DUP2 PUSH2 0x15AC JUMP JUMPDEST DUP5 ADD SWAP2 POP POP SWAP3 SWAP2 POP POP JUMP JUMPDEST PUSH0 PUSH1 0x20 DUP3 ADD SWAP1 POP DUP2 DUP2 SUB PUSH0 DUP4 ADD MSTORE PUSH2 0x1921 DUP2 DUP5 PUSH2 0x18D1 JUMP JUMPDEST SWAP1 POP SWAP3 SWAP2 POP POP JUMP JUMPDEST PUSH0 PUSH1 0x20 DUP3 DUP5 SUB SLT ISZERO PUSH2 0x193E JUMPI PUSH2 0x193D PUSH2 0x159C JUMP JUMPDEST JUMPDEST PUSH0 PUSH2 0x194B DUP5 DUP3 DUP6 ADD PUSH2 0x1857 JUMP JUMPDEST SWAP2 POP POP SWAP3 SWAP2 POP POP JUMP JUMPDEST PUSH0 PUSH1 0x20 DUP3 DUP5 SUB SLT ISZERO PUSH2 0x1969 JUMPI PUSH2 0x1968 PUSH2 0x159C JUMP JUMPDEST JUMPDEST PUSH0 PUSH2 0x1976 DUP5 DUP3 DUP6 ADD PUSH2 0x182D JUMP JUMPDEST SWAP2 POP POP SWAP3 SWAP2 POP POP JUMP JUMPDEST PUSH0 DUP2 MLOAD SWAP1 POP SWAP2 SWAP1 POP JUMP JUMPDEST PUSH0 DUP3 DUP3 MSTORE PUSH1 0x20 DUP3 ADD SWAP1 POP SWAP3 SWAP2 POP POP JUMP JUMPDEST PUSH0 DUP2 SWAP1 POP PUSH1 0x20 DUP3 ADD SWAP1 POP SWAP2 SWAP1 POP JUMP JUMPDEST PUSH0 DUP3 DUP3 MSTORE PUSH1 0x20 DUP3 ADD SWAP1 POP SWAP3 SWAP2 POP POP JUMP JUMPDEST PUSH0 PUSH2 0x19C2 DUP3 PUSH2 0x18A9 JUMP JUMPDEST PUSH2 0x19CC DUP2 DUP6 PUSH2 0x19A8 JUMP JUMPDEST SWAP4 POP PUSH2 0x19DC DUP2 DUP6 PUSH1 0x20 DUP7 ADD PUSH2 0x18C3 JUMP JUMPDEST PUSH2 0x19E5 DUP2 PUSH2 0x15AC JUMP JUMPDEST DUP5 ADD SWAP2 POP POP SWAP3 SWAP2 POP POP JUMP JUMPDEST PUSH0 PUSH2 0x19FB DUP4 DUP4 PUSH2 0x19B8 JUMP JUMPDEST SWAP1 POP SWAP3 SWAP2 POP POP JUMP JUMPDEST PUSH0 PUSH1 0x20 DUP3 ADD SWAP1 POP SWAP2 SWAP1 POP JUMP JUMPDEST PUSH0 PUSH2 0x1A19 DUP3 PUSH2 0x197F JUMP JUMPDEST PUSH2 0x1A23 DUP2 DUP6 PUSH2 0x1989 JUMP JUMPDEST SWAP4 POP DUP4 PUSH1 0x20 DUP3 MUL DUP6 ADD PUSH2 0x1A35 DUP6 PUSH2 0x1999 JUMP JUMPDEST DUP1 PUSH0 JUMPDEST DUP6 DUP2 LT ISZERO PUSH2 0x1A70 JUMPI DUP5 DUP5 SUB DUP10 MSTORE DUP2 MLOAD PUSH2 0x1A51 DUP6 DUP3 PUSH2 0x19F0 JUMP JUMPDEST SWAP5 POP PUSH2 0x1A5C DUP4 PUSH2 0x1A03 JUMP JUMPDEST SWAP3 POP PUSH1 0x20 DUP11 ADD SWAP10 POP POP PUSH1 0x1 DUP2 ADD SWAP1 POP PUSH2 0x1A38 JUMP JUMPDEST POP DUP3 SWAP8 POP DUP8 SWAP6 POP POP POP POP POP POP SWAP3 SWAP2 POP POP JUMP JUMPDEST PUSH0 PUSH1 0x20 DUP3 ADD SWAP1 POP DUP2 DUP2 SUB PUSH0 DUP4 ADD MSTORE PUSH2 0x1A9A DUP2 DUP5 PUSH2 0x1A0F JUMP JUMPDEST SWAP1 POP SWAP3 SWAP2 POP POP JUMP JUMPDEST PUSH0 PUSH0 PUSH1 0x40 DUP4 DUP6 SUB SLT ISZERO PUSH2 0x1AB8 JUMPI PUSH2 0x1AB7 PUSH2 0x159C JUMP JUMPDEST JUMPDEST PUSH0 PUSH2 0x1AC5 DUP6 DUP3 DUP7 ADD PUSH2 0x182D JUMP JUMPDEST SWAP3 POP POP PUSH1 0x20 DUP4 ADD CALLDATALOAD PUSH8 0xFFFFFFFFFFFFFFFF DUP2 GT ISZERO PUSH2 0x1AE6 JUMPI PUSH2 0x1AE5 PUSH2 0x15A0 JUMP JUMPDEST JUMPDEST PUSH2 0x1AF2 DUP6 DUP3 DUP7 ADD PUSH2 0x16B3 JUMP JUMPDEST SWAP2 POP POP SWAP3 POP SWAP3 SWAP1 POP JUMP JUMPDEST PUSH2 0x1B05 DUP2 PUSH2 0x16E0 JUMP JUMPDEST DUP3 MSTORE POP POP JUMP JUMPDEST PUSH0 PUSH1 0x20 DUP3 ADD SWAP1 POP PUSH2 0x1B1E PUSH0 DUP4 ADD DUP5 PUSH2 0x1AFC JUMP JUMPDEST SWAP3 SWAP2 POP POP JUMP JUMPDEST PUSH2 0x1B2D DUP2 PUSH2 0x1806 JUMP JUMPDEST DUP3 MSTORE POP POP JUMP JUMPDEST PUSH0 PUSH1 0xC0 DUP3 ADD SWAP1 POP DUP2 DUP2 SUB PUSH0 DUP4 ADD MSTORE PUSH2 0x1B4B DUP2 DUP10 PUSH2 0x18D1 JUMP JUMPDEST SWAP1 POP DUP2 DUP2 SUB PUSH1 0x20 DUP4 ADD MSTORE PUSH2 0x1B5F DUP2 DUP9 PUSH2 0x18D1 JUMP JUMPDEST SWAP1 POP PUSH2 0x1B6E PUSH1 0x40 DUP4 ADD DUP8 PUSH2 0x1B24 JUMP JUMPDEST PUSH2 0x1B7B PUSH1 0x60 DUP4 ADD DUP7 PUSH2 0x17BF JUMP JUMPDEST PUSH2 0x1B88 PUSH1 0x80 DUP4 ADD DUP6 PUSH2 0x17BF JUMP JUMPDEST PUSH2 0x1B95 PUSH1 0xA0 DUP4 ADD DUP5 PUSH2 0x1AFC JUMP JUMPDEST SWAP8 SWAP7 POP POP POP POP POP POP POP JUMP JUMPDEST PUSH0 PUSH0 PUSH1 0x40 DUP4 DUP6 SUB SLT ISZERO PUSH2 0x1BB6 JUMPI PUSH2 0x1BB5 PUSH2 0x159C JUMP JUMPDEST JUMPDEST PUSH0 DUP4 ADD CALLDATALOAD PUSH8 0xFFFFFFFFFFFFFFFF DUP2 GT ISZERO PUSH2 0x1BD3 JUMPI PUSH2 0x1BD2 PUSH2 0x15A0 JUMP JUMPDEST JUMPDEST PUSH2 0x1BDF DUP6 DUP3 DUP7 ADD PUSH2 0x16B3 JUMP JUMPDEST SWAP3 POP POP PUSH1 0x20 PUSH2 0x1BF0 DUP6 DUP3 DUP7 ADD PUSH2 0x1857 JUMP JUMPDEST SWAP2 POP POP SWAP3 POP SWAP3 SWAP1 POP JUMP JUMPDEST PUSH0 PUSH1 0x80 DUP3 ADD SWAP1 POP PUSH2 0x1C0D PUSH0 DUP4 ADD DUP8 PUSH2 0x1B24 JUMP JUMPDEST DUP2 DUP2 SUB PUSH1 0x20 DUP4 ADD MSTORE PUSH2 0x1C1F DUP2 DUP7 PUSH2 0x18D1 JUMP JUMPDEST SWAP1 POP PUSH2 0x1C2E PUSH1 0x40 DUP4 ADD DUP6 PUSH2 0x17BF JUMP JUMPDEST PUSH2 0x1C3B PUSH1 0x60 DUP4 ADD DUP5 PUSH2 0x1AFC JUMP JUMPDEST SWAP6 SWAP5 POP POP POP POP POP JUMP JUMPDEST PUSH0 PUSH0 PUSH1 0x40 DUP4 DUP6 SUB SLT ISZERO PUSH2 0x1C5A JUMPI PUSH2 0x1C59 PUSH2 0x159C JUMP JUMPDEST JUMPDEST PUSH0 DUP4 ADD CALLDATALOAD PUSH8 0xFFFFFFFFFFFFFFFF DUP2 GT ISZERO PUSH2 0x1C77 JUMPI PUSH2 0x1C76 PUSH2 0x15A0 JUMP JUMPDEST JUMPDEST PUSH2 0x1C83 DUP6 DUP3 DUP7 ADD PUSH2 0x16B3 JUMP JUMPDEST SWAP3 POP POP PUSH1 0x20 DUP4 ADD CALLDATALOAD PUSH8 0xFFFFFFFFFFFFFFFF DUP2 GT ISZERO PUSH2 0x1CA4 JUMPI PUSH2 0x1CA3 PUSH2 0x15A0 JUMP JUMPDEST JUMPDEST PUSH2 0x1CB0 DUP6 DUP3 DUP7 ADD PUSH2 0x16B3 JUMP JUMPDEST SWAP2 POP POP SWAP3 POP SWAP3 SWAP1 POP JUMP JUMPDEST PUSH0 PUSH0 PUSH1 0x40 DUP4 DUP6 SUB SLT ISZERO PUSH2 0x1CD0 JUMPI PUSH2 0x1CCF PUSH2 0x159C JUMP JUMPDEST JUMPDEST PUSH0 PUSH2 0x1CDD DUP6 DUP3 DUP7 ADD PUSH2 0x1857 JUMP JUMPDEST SWAP3 POP POP PUSH1 0x20 PUSH2 0x1CEE DUP6 DUP3 DUP7 ADD PUSH2 0x1857 JUMP JUMPDEST SWAP2 POP POP SWAP3 POP SWAP3 SWAP1 POP JUMP JUMPDEST PUSH0 DUP2 MLOAD SWAP1 POP SWAP2 SWAP1 POP JUMP JUMPDEST PUSH0 DUP3 DUP3 MSTORE PUSH1 0x20 DUP3 ADD SWAP1 POP SWAP3 SWAP2 POP POP JUMP JUMPDEST PUSH0 DUP2 SWAP1 POP PUSH1 0x20 DUP3 ADD SWAP1 POP SWAP2 SWAP1 POP JUMP JUMPDEST PUSH2 0x1D2A DUP2 PUSH2 0x1806 JUMP JUMPDEST DUP3 MSTORE POP POP JUMP JUMPDEST PUSH2 0x1D39 DUP2 PUSH2 0x17B6 JUMP JUMPDEST DUP3 MSTORE POP POP JUMP JUMPDEST PUSH2 0x1D48 DUP2 PUSH2 0x16E0 JUMP JUMPDEST DUP3 MSTORE POP POP JUMP JUMPDEST PUSH0 PUSH1 0x80 DUP4 ADD PUSH0 DUP4 ADD MLOAD PUSH2 0x1D63 PUSH0 DUP7 ADD DUP3 PUSH2 0x1D21 JUMP JUMPDEST POP PUSH1 0x20 DUP4 ADD MLOAD DUP5 DUP3 SUB PUSH1 0x20 DUP7 ADD MSTORE PUSH2 0x1D7B DUP3 DUP3 PUSH2 0x19B8 JUMP JUMPDEST SWAP2 POP POP PUSH1 0x40 DUP4 ADD MLOAD PUSH2 0x1D90 PUSH1 0x40 DUP7 ADD DUP3 PUSH2 0x1D30 JUMP JUMPDEST POP PUSH1 0x60 DUP4 ADD MLOAD PUSH2 0x1DA3 PUSH1 0x60 DUP7 ADD DUP3 PUSH2 0x1D3F JUMP JUMPDEST POP DUP1 SWAP2 POP POP SWAP3 SWAP2 POP POP JUMP JUMPDEST PUSH0 PUSH2 0x1DB9 DUP4 DUP4 PUSH2 0x1D4E JUMP JUMPDEST SWAP1 POP SWAP3 SWAP2 POP POP JUMP JUMPDEST PUSH0 PUSH1 0x20 DUP3 ADD SWAP1 POP SWAP2 SWAP1 POP JUMP JUMPDEST PUSH0 PUSH2 0x1DD7 DUP3 PUSH2 0x1CF8 JUMP JUMPDEST PUSH2 0x1DE1 DUP2 DUP6 PUSH2 0x1D02 JUMP JUMPDEST SWAP4 POP DUP4 PUSH1 0x20 DUP3 MUL DUP6 ADD PUSH2 0x1DF3 DUP6 PUSH2 0x1D12 JUMP JUMPDEST DUP1 PUSH0 JUMPDEST DUP6 DUP2 LT ISZERO PUSH2 0x1E2E JUMPI DUP5 DUP5 SUB DUP10 MSTORE DUP2 MLOAD PUSH2 0x1E0F DUP6 DUP3 PUSH2 0x1DAE JUMP JUMPDEST SWAP5 POP PUSH2 0x1E1A DUP4 PUSH2 0x1DC1 JUMP JUMPDEST SWAP3 POP PUSH1 0x20 DUP11 ADD SWAP10 POP POP PUSH1 0x1 DUP2 ADD SWAP1 POP PUSH2 0x1DF6 JUMP JUMPDEST POP DUP3 SWAP8 POP DUP8 SWAP6 POP POP POP POP POP POP SWAP3 SWAP2 POP POP JUMP JUMPDEST PUSH0 PUSH1 0x20 DUP3 ADD SWAP1 POP DUP2 DUP2 SUB PUSH0 DUP4 ADD MSTORE PUSH2 0x1E58 DUP2 DUP5 PUSH2 0x1DCD JUMP JUMPDEST SWAP1 POP SWAP3 SWAP2 POP POP JUMP JUMPDEST PUSH0 DUP2 SWAP1 POP SWAP3 SWAP2 POP POP JUMP JUMPDEST PUSH0 PUSH2 0x1E74 DUP3 PUSH2 0x18A9 JUMP JUMPDEST PUSH2 0x1E7E DUP2 DUP6 PUSH2 0x1E60 JUMP JUMPDEST SWAP4 POP PUSH2 0x1E8E DUP2 DUP6 PUSH1 0x20 DUP7 ADD PUSH2 0x18C3 JUMP JUMPDEST DUP1 DUP5 ADD SWAP2 POP POP SWAP3 SWAP2 POP POP JUMP JUMPDEST PUSH0 PUSH2 0x1EA5 DUP3 DUP5 PUSH2 0x1E6A JUMP JUMPDEST SWAP2 POP DUP2 SWAP1 POP SWAP3 SWAP2 POP POP JUMP JUMPDEST PUSH32 0x497373756520646F6573206E6F74206578697374000000000000000000000000 PUSH0 DUP3 ADD MSTORE POP JUMP JUMPDEST PUSH0 PUSH2 0x1EE4 PUSH1 0x14 DUP4 PUSH2 0x18B3 JUMP JUMPDEST SWAP2 POP PUSH2 0x1EEF DUP3 PUSH2 0x1EB0 JUMP JUMPDEST PUSH1 0x20 DUP3 ADD SWAP1 POP SWAP2 SWAP1 POP JUMP JUMPDEST PUSH0 PUSH1 0x20 DUP3 ADD SWAP1 POP DUP2 DUP2 SUB PUSH0 DUP4 ADD MSTORE PUSH2 0x1F11 DUP2 PUSH2 0x1ED8 JUMP JUMPDEST SWAP1 POP SWAP2 SWAP1 POP JUMP JUMPDEST PUSH32 0x416C726561647920766F746564206F6E20746869732069737375650000000000 PUSH0 DUP3 ADD MSTORE POP JUMP JUMPDEST PUSH0 PUSH2 0x1F4C PUSH1 0x1B DUP4 PUSH2 0x18B3 JUMP JUMPDEST SWAP2 POP PUSH2 0x1F57 DUP3 PUSH2 0x1F18 JUMP JUMPDEST PUSH1 0x20 DUP3 ADD SWAP1 POP SWAP2 SWAP1 POP JUMP JUMPDEST PUSH0 PUSH1 0x20 DUP3 ADD SWAP1 POP DUP2 DUP2 SUB PUSH0 DUP4 ADD MSTORE PUSH2 0x1F79 DUP2 PUSH2 0x1F40 JUMP JUMPDEST SWAP1 POP SWAP2 SWAP1 POP JUMP JUMPDEST PUSH32 0x4E487B7100000000000000000000000000000000000000000000000000000000 PUSH0 MSTORE PUSH1 0x22 PUSH1 0x4 MSTORE PUSH1 0x24 PUSH0 REVERT JUMPDEST PUSH0 PUSH1 0x2 DUP3 DIV SWAP1 POP PUSH1 0x1 DUP3 AND DUP1 PUSH2 0x1FC4 JUMPI PUSH1 0x7F DUP3 AND SWAP2 POP JUMPDEST PUSH1 0x20 DUP3 LT DUP2 SUB PUSH2 0x1FD7 JUMPI PUSH2 0x1FD6 PUSH2 0x1F80 JUMP JUMPDEST JUMPDEST POP SWAP2 SWAP1 POP JUMP JUMPDEST PUSH0 DUP2 SWAP1 POP DUP2 PUSH0 MSTORE PUSH1 0x20 PUSH0 KECCAK256 SWAP1 POP SWAP2 SWAP1 POP JUMP JUMPDEST PUSH0 PUSH1 0x20 PUSH1 0x1F DUP4 ADD DIV SWAP1 POP SWAP2 SWAP1 POP JUMP JUMPDEST PUSH0 DUP3 DUP3 SHL SWAP1 POP SWAP3 SWAP2 POP POP JUMP JUMPDEST PUSH0 PUSH1 0x8 DUP4 MUL PUSH2 0x2039 PUSH32 0xFFFFFFFFFFFFFFFFFFFFFFFFFFFFFFFFFFFFFFFFFFFFFFFFFFFFFFFFFFFFFFFF DUP3 PUSH2 0x1FFE JUMP JUMPDEST PUSH2 0x2043 DUP7 DUP4 PUSH2 0x1FFE JUMP JUMPDEST SWAP6 POP DUP1 NOT DUP5 AND SWAP4 POP DUP1 DUP7 AND DUP5 OR SWAP3 POP POP POP SWAP4 SWAP3 POP POP POP JUMP JUMPDEST PUSH0 DUP2 SWAP1 POP SWAP2 SWAP1 POP JUMP JUMPDEST PUSH0 PUSH2 0x207E PUSH2 0x2079 PUSH2 0x2074 DUP5 PUSH2 0x17B6 JUMP JUMPDEST PUSH2 0x205B JUMP JUMPDEST PUSH2 0x17B6 JUMP JUMPDEST SWAP1 POP SWAP2 SWAP1 POP JUMP JUMPDEST PUSH0 DUP2 SWAP1 POP SWAP2 SWAP1 POP JUMP JUMPDEST PUSH2 0x2097 DUP4 PUSH2 0x2064 JUMP JUMPDEST PUSH2 0x20AB PUSH2 0x20A3 DUP3 PUSH2 0x2085 JUMP JUMPDEST DUP5 DUP5 SLOAD PUSH2 0x200A JUMP JUMPDEST DUP3 SSTORE POP POP POP POP JUMP JUMPDEST PUSH0 PUSH0 SWAP1 POP SWAP1 JUMP JUMPDEST PUSH2 0x20C2 PUSH2 0x20B3 JUMP JUMPDEST PUSH2 0x20CD DUP2 DUP5 DUP5 PUSH2 0x208E JUMP JUMPDEST POP POP POP JUMP JUMPDEST JUMPDEST DUP2 DUP2 LT ISZERO PUSH2 0x20F0 JUMPI PUSH2 0x20E5 PUSH0 DUP3 PUSH2 0x20BA JUMP JUMPDEST PUSH1 0x1 DUP2 ADD SWAP1 POP PUSH2 0x20D3 JUMP JUMPDEST POP POP JUMP JUMPDEST PUSH1 0x1F DUP3 GT ISZERO PUSH2 0x2135 JUMPI PUSH2 0x2106 DUP2 PUSH2 0x1FDD JUMP JUMPDEST PUSH2 0x210F DUP5 PUSH2 0x1FEF JUMP JUMPDEST DUP2 ADD PUSH1 0x20 DUP6 LT ISZERO PUSH2 0x211E JUMPI DUP2 SWAP1 POP JUMPDEST PUSH2 0x2132 PUSH2 0x212A DUP6 PUSH2 0x1FEF JUMP JUMPDEST DUP4 ADD DUP3 PUSH2 0x20D2 JUMP JUMPDEST POP POP JUMPDEST POP POP POP JUMP JUMPDEST PUSH0 DUP3 DUP3 SHR SWAP1 POP SWAP3 SWAP2 POP POP JUMP JUMPDEST PUSH0 PUSH2 0x2155 PUSH0 NOT DUP5 PUSH1 0x8 MUL PUSH2 0x213A JUMP JUMPDEST NOT DUP1 DUP4 AND SWAP2 POP POP SWAP3 SWAP2 POP POP JUMP JUMPDEST PUSH0 PUSH2 0x216D DUP4 DUP4 PUSH2 0x2146 JUMP JUMPDEST SWAP2 POP DUP3 PUSH1 0x2 MUL DUP3 OR SWAP1 POP SWAP3 SWAP2 POP POP JUMP JUMPDEST PUSH2 0x2186 DUP3 PUSH2 0x18A9 JUMP JUMPDEST PUSH8 0xFFFFFFFFFFFFFFFF DUP2 GT ISZERO PUSH2 0x219F JUMPI PUSH2 0x219E PUSH2 0x15BC JUMP JUMPDEST JUMPDEST PUSH2 0x21A9 DUP3 SLOAD PUSH2 0x1FAD JUMP JUMPDEST PUSH2 0x21B4 DUP3 DUP3 DUP6 PUSH2 0x20F4 JUMP JUMPDEST PUSH0 PUSH1 0x20 SWAP1 POP PUSH1 0x1F DUP4 GT PUSH1 0x1 DUP2 EQ PUSH2 0x21E5 JUMPI PUSH0 DUP5 ISZERO PUSH2 0x21D3 JUMPI DUP3 DUP8 ADD MLOAD SWAP1 POP JUMPDEST PUSH2 0x21DD DUP6 DUP3 PUSH2 0x2162 JUMP JUMPDEST DUP7 SSTORE POP PUSH2 0x2244 JUMP JUMPDEST PUSH1 0x1F NOT DUP5 AND PUSH2 0x21F3 DUP7 PUSH2 0x1FDD JUMP JUMPDEST PUSH0 JUMPDEST DUP3 DUP2 LT ISZERO PUSH2 0x221A JUMPI DUP5 DUP10 ADD MLOAD DUP3 SSTORE PUSH1 0x1 DUP3 ADD SWAP2 POP PUSH1 0x20 DUP6 ADD SWAP5 POP PUSH1 0x20 DUP2 ADD SWAP1 POP PUSH2 0x21F5 JUMP JUMPDEST DUP7 DUP4 LT ISZERO PUSH2 0x2237 JUMPI DUP5 DUP10 ADD MLOAD PUSH2 0x2233 PUSH1 0x1F DUP10 AND DUP3 PUSH2 0x2146 JUMP JUMPDEST DUP4 SSTORE POP JUMPDEST PUSH1 0x1 PUSH1 0x2 DUP9 MUL ADD DUP9 SSTORE POP POP POP JUMPDEST POP POP POP POP POP POP JUMP JUMPDEST PUSH32 0x4E487B7100000000000000000000000000000000000000000000000000000000 PUSH0 MSTORE PUSH1 0x11 PUSH1 0x4 MSTORE PUSH1 0x24 PUSH0 REVERT JUMPDEST PUSH0 PUSH2 0x2283 DUP3 PUSH2 0x17B6 JUMP JUMPDEST SWAP2 POP PUSH32 0xFFFFFFFFFFFFFFFFFFFFFFFFFFFFFFFFFFFFFFFFFFFFFFFFFFFFFFFFFFFFFFFF DUP3 SUB PUSH2 0x22B5 JUMPI PUSH2 0x22B4 PUSH2 0x224C JUMP JUMPDEST JUMPDEST PUSH1 0x1 DUP3 ADD SWAP1 POP SWAP2 SWAP1 POP JUMP JUMPDEST PUSH0 PUSH1 0x40 DUP3 ADD SWAP1 POP PUSH2 0x22D3 PUSH0 DUP4 ADD DUP6 PUSH2 0x1AFC JUMP JUMPDEST PUSH2 0x22E0 PUSH1 0x20 DUP4 ADD DUP5 PUSH2 0x17BF JUMP JUMPDEST SWAP4 SWAP3 POP POP POP JUMP JUMPDEST PUSH32 0x49737375652049442063616E6E6F7420626520656D7074790000000000000000 PUSH0 DUP3 ADD MSTORE POP JUMP JUMPDEST PUSH0 PUSH2 0x231B PUSH1 0x18 DUP4 PUSH2 0x18B3 JUMP JUMPDEST SWAP2 POP PUSH2 0x2326 DUP3 PUSH2 0x22E7 JUMP JUMPDEST PUSH1 0x20 DUP3 ADD SWAP1 POP SWAP2 SWAP1 POP JUMP JUMPDEST PUSH0 PUSH1 0x20 DUP3 ADD SWAP1 POP DUP2 DUP2 SUB PUSH0 DUP4 ADD MSTORE PUSH2 0x2348 DUP2 PUSH2 0x230F JUMP JUMPDEST SWAP1 POP SWAP2 SWAP1 POP JUMP JUMPDEST PUSH32 0x5469746C652063616E6E6F7420626520656D7074790000000000000000000000 PUSH0 DUP3 ADD MSTORE POP JUMP JUMPDEST PUSH0 PUSH2 0x2383 PUSH1 0x15 DUP4 PUSH2 0x18B3 JUMP JUMPDEST SWAP2 POP PUSH2 0x238E DUP3 PUSH2 0x234F JUMP JUMPDEST PUSH1 0x20 DUP3 ADD SWAP1 POP SWAP2 SWAP1 POP JUMP JUMPDEST PUSH0 PUSH1 0x20 DUP3 ADD SWAP1 POP DUP2 DUP2 SUB PUSH0 DUP4 ADD MSTORE PUSH2 0x23B0 DUP2 PUSH2 0x2377 JUMP JUMPDEST SWAP1 POP SWAP2 SWAP1 POP JUMP JUMPDEST PUSH32 0x497373756520616C7265616479207265636F7264656400000000000000000000 PUSH0 DUP3 ADD MSTORE POP JUMP JUMPDEST PUSH0 PUSH2 0x23EB PUSH1 0x16 DUP4 PUSH2 0x18B3 JUMP JUMPDEST SWAP2 POP PUSH2 0x23F6 DUP3 PUSH2 0x23B7 JUMP JUMPDEST PUSH1 0x20 DUP3 ADD SWAP1 POP SWAP2 SWAP1 POP JUMP JUMPDEST PUSH0 PUSH1 0x20 DUP3 ADD SWAP1 POP DUP2 DUP2 SUB PUSH0 DUP4 ADD MSTORE PUSH2 0x2418 DUP2 PUSH2 0x23DF JUMP JUMPDEST SWAP1 POP SWAP2 SWAP1 POP JUMP JUMPDEST PUSH0 PUSH1 0x40 DUP3 ADD SWAP1 POP DUP2 DUP2 SUB PUSH0 DUP4 ADD MSTORE PUSH2 0x2437 DUP2 DUP6 PUSH2 0x18D1 JUMP JUMPDEST SWAP1 POP PUSH2 0x2446 PUSH1 0x20 DUP4 ADD DUP5 PUSH2 0x17BF JUMP JUMPDEST SWAP4 SWAP3 POP POP POP JUMP JUMPDEST PUSH32 0x4F6666736574206F7574206F6620626F756E6473000000000000000000000000 PUSH0 DUP3 ADD MSTORE POP JUMP JUMPDEST PUSH0 PUSH2 0x2481 PUSH1 0x14 DUP4 PUSH2 0x18B3 JUMP JUMPDEST SWAP2 POP PUSH2 0x248C DUP3 PUSH2 0x244D JUMP JUMPDEST PUSH1 0x20 DUP3 ADD SWAP1 POP SWAP2 SWAP1 POP JUMP JUMPDEST PUSH0 PUSH1 0x20 DUP3 ADD SWAP1 POP DUP2 DUP2 SUB PUSH0 DUP4 ADD MSTORE PUSH2 0x24AE DUP2 PUSH2 0x2475 JUMP JUMPDEST SWAP1 POP SWAP2 SWAP1 POP JUMP JUMPDEST PUSH0 PUSH2 0x24BF DUP3 PUSH2 0x17B6 JUMP JUMPDEST SWAP2 POP PUSH2 0x24CA DUP4 PUSH2 0x17B6 JUMP JUMPDEST SWAP3 POP DUP3 DUP3 ADD SWAP1 POP DUP1 DUP3 GT ISZERO PUSH2 0x24E2 JUMPI PUSH2 0x24E1 PUSH2 0x224C JUMP JUMPDEST JUMPDEST SWAP3 SWAP2 POP POP JUMP JUMPDEST PUSH0 PUSH2 0x24F2 DUP3 PUSH2 0x17B6 JUMP JUMPDEST SWAP2 POP PUSH2 0x24FD DUP4 PUSH2 0x17B6 JUMP JUMPDEST SWAP3 POP DUP3 DUP3 SUB SWAP1 POP DUP2 DUP2 GT ISZERO PUSH2 0x2515 JUMPI PUSH2 0x2514 PUSH2 0x224C JUMP JUMPDEST JUMPDEST SWAP3 SWAP2 POP POP JUMP JUMPDEST PUSH32 0x4E487B7100000000000000000000000000000000000000000000000000000000 PUSH0 MSTORE PUSH1 0x32 PUSH1 0x4 MSTORE PUSH1 0x24 PUSH0 REVERT INVALID LOG2 PUSH5 0x6970667358 0x22 SLT KECCAK256 PUSH29 0x4C533DFDF47BB6691D8AFE69F034D8E31DC408F1FB2E76A6AF60307E92 MSTORE 0xC PUSH5 0x736F6C6343 STOP ADDMOD 0x1F STOP CALLER "
	},
	"abi": [
		{
			"anonymous": false,
			"inputs": [
				{
					"indexed": true,
					"internalType": "string",
					"name": "issueId",
					"type": "string"
				},
				{
					"indexed": false,
					"internalType": "string",
					"name": "title",
					"type": "string"
				},
				{
					"indexed": true,
					"internalType": "address",
					"name": "reportedBy",
					"type": "address"
				},
				{
					"indexed": false,
					"internalType": "uint256",
					"name": "timestamp",
					"type": "uint256"
				}
			],
			"name": "IssueRecorded",
			"type": "event"
		},
		{
			"anonymous": false,
			"inputs": [
				{
					"indexed": true,
					"internalType": "string",
					"name": "issueId",
					"type": "string"
				},
				{
					"indexed": false,
					"internalType": "string",
					"name": "newStatus",
					"type": "string"
				},
				{
					"indexed": false,
					"internalType": "uint256",
					"name": "timestamp",
					"type": "uint256"
				}
			],
			"name": "IssueStatusUpdated",
			"type": "event"
		},
		{
			"inputs": [
				{
					"internalType": "string",
					"name": "_issueId",
					"type": "string"
				},
				{
					"internalType": "string",
					"name": "_title",
					"type": "string"
				}
			],
			"name": "recordIssue",
			"outputs": [],
			"stateMutability": "nonpayable",
			"type": "function"
		},
		{
			"inputs": [
				{
					"internalType": "string",
					"name": "_issueId",
					"type": "string"
				},
				{
					"internalType": "bool",
					"name": "_support",
					"type": "bool"
				}
			],
			"name": "recordVote",
			"outputs": [],
			"stateMutability": "nonpayable",
			"type": "function"
		},
		{
			"anonymous": false,
			"inputs": [
				{
					"indexed": true,
					"internalType": "string",
					"name": "issueId",
					"type": "string"
				},
				{
					"indexed": true,
					"internalType": "address",
					"name": "voter",
					"type": "address"
				},
				{
					"indexed": false,
					"internalType": "bool",
					"name": "support",
					"type": "bool"
				},
				{
					"indexed": false,
					"internalType": "uint256",
					"name": "timestamp",
					"type": "uint256"
				}
			],
			"name": "VoteRecorded",
			"type": "event"
		},
		{
			"inputs": [
				{
					"internalType": "uint256",
					"name": "",
					"type": "uint256"
				}
			],
			"name": "allIssueIds",
			"outputs": [
				{
					"internalType": "string",
					"name": "",
					"type": "string"
				}
			],
			"stateMutability": "view",
			"type": "function"
		},
		{
			"inputs": [
				{
					"internalType": "address",
					"name": "_user",
					"type": "address"
				},
				{
					"internalType": "string",
					"name": "_issueId",
					"type": "string"
				}
			],
			"name": "checkIfVoted",
			"outputs": [
				{
					"internalType": "bool",
					"name": "",
					"type": "bool"
				}
			],
			"stateMutability": "view",
			"type": "function"
		},
		{
			"inputs": [
				{
					"internalType": "uint256",
					"name": "_offset",
					"type": "uint256"
				},
				{
					"internalType": "uint256",
					"name": "_limit",
					"type": "uint256"
				}
			],
			"name": "getAllIssues",
			"outputs": [
				{
					"internalType": "string[]",
					"name": "",
					"type": "string[]"
				}
			],
			"stateMutability": "view",
			"type": "function"
		},
		{
			"inputs": [
				{
					"internalType": "string",
					"name": "_issueId",
					"type": "string"
				}
			],
			"name": "getIssue",
			"outputs": [
				{
					"internalType": "string",
					"name": "issueId",
					"type": "string"
				},
				{
					"internalType": "string",
					"name": "title",
					"type": "string"
				},
				{
					"internalType": "address",
					"name": "reportedBy",
					"type": "address"
				},
				{
					"internalType": "uint256",
					"name": "timestamp",
					"type": "uint256"
				},
				{
					"internalType": "uint256",
					"name": "voteCount",
					"type": "uint256"
				},
				{
					"internalType": "bool",
					"name": "exists",
					"type": "bool"
				}
			],
			"stateMutability": "view",
			"type": "function"
		},
		{
			"inputs": [
				{
					"internalType": "string",
					"name": "_issueId",
					"type": "string"
				}
			],
			"name": "getIssueVotes",
			"outputs": [
				{
					"components": [
						{
							"internalType": "address",
							"name": "voter",
							"type": "address"
						},
						{
							"internalType": "string",
							"name": "issueId",
							"type": "string"
						},
						{
							"internalType": "uint256",
							"name": "timestamp",
							"type": "uint256"
						},
						{
							"internalType": "bool",
							"name": "support",
							"type": "bool"
						}
					],
					"internalType": "struct CivicIssueTracker.Vote[]",
					"name": "",
					"type": "tuple[]"
				}
			],
			"stateMutability": "view",
			"type": "function"
		},
		{
			"inputs": [],
			"name": "getTotalIssues",
			"outputs": [
				{
					"internalType": "uint256",
					"name": "",
					"type": "uint256"
				}
			],
			"stateMutability": "view",
			"type": "function"
		},
		{
			"inputs": [
				{
					"internalType": "address",
					"name": "_user",
					"type": "address"
				}
			],
			"name": "getUserIssues",
			"outputs": [
				{
					"internalType": "string[]",
					"name": "",
					"type": "string[]"
				}
			],
			"stateMutability": "view",
			"type": "function"
		},
		{
			"inputs": [
				{
					"internalType": "string",
					"name": "_issueId",
					"type": "string"
				}
			],
			"name": "getVoteCount",
			"outputs": [
				{
					"internalType": "uint256",
					"name": "",
					"type": "uint256"
				}
			],
			"stateMutability": "view",
			"type": "function"
		},
		{
			"inputs": [
				{
					"internalType": "address",
					"name": "",
					"type": "address"
				},
				{
					"internalType": "string",
					"name": "",
					"type": "string"
				}
			],
			"name": "hasVoted",
			"outputs": [
				{
					"internalType": "bool",
					"name": "",
					"type": "bool"
				}
			],
			"stateMutability": "view",
			"type": "function"
		},
		{
			"inputs": [
				{
					"internalType": "string",
					"name": "",
					"type": "string"
				}
			],
			"name": "issues",
			"outputs": [
				{
					"internalType": "string",
					"name": "issueId",
					"type": "string"
				},
				{
					"internalType": "string",
					"name": "title",
					"type": "string"
				},
				{
					"internalType": "address",
					"name": "reportedBy",
					"type": "address"
				},
				{
					"internalType": "uint256",
					"name": "timestamp",
					"type": "uint256"
				},
				{
					"internalType": "uint256",
					"name": "voteCount",
					"type": "uint256"
				},
				{
					"internalType": "bool",
					"name": "exists",
					"type": "bool"
				}
			],
			"stateMutability": "view",
			"type": "function"
		},
		{
			"inputs": [
				{
					"internalType": "string",
					"name": "",
					"type": "string"
				},
				{
					"internalType": "uint256",
					"name": "",
					"type": "uint256"
				}
			],
			"name": "issueVotes",
			"outputs": [
				{
					"internalType": "address",
					"name": "voter",
					"type": "address"
				},
				{
					"internalType": "string",
					"name": "issueId",
					"type": "string"
				},
				{
					"internalType": "uint256",
					"name": "timestamp",
					"type": "uint256"
				},
				{
					"internalType": "bool",
					"name": "support",
					"type": "bool"
				}
			],
			"stateMutability": "view",
			"type": "function"
		},
		{
			"inputs": [
				{
					"internalType": "address",
					"name": "",
					"type": "address"
				},
				{
					"internalType": "uint256",
					"name": "",
					"type": "uint256"
				}
			],
			"name": "userIssues",
			"outputs": [
				{
					"internalType": "string",
					"name": "",
					"type": "string"
				}
			],
			"stateMutability": "view",
			"type": "function"
		}
	],
	"storageLayout": {
		"storage": [
			{
				"astId": 29,
				"contract": "CivicIssueTracker.sol:CivicIssueTracker",
				"label": "issues",
				"offset": 0,
				"slot": "0",
				"type": "t_mapping(t_string_memory_ptr,t_struct(Issue)15_storage)"
			},
			{
				"astId": 35,
				"contract": "CivicIssueTracker.sol:CivicIssueTracker",
				"label": "issueVotes",
				"offset": 0,
				"slot": "1",
				"type": "t_mapping(t_string_memory_ptr,t_array(t_struct(Vote)24_storage)dyn_storage)"
			},
			{
				"astId": 40,
				"contract": "CivicIssueTracker.sol:CivicIssueTracker",
				"label": "userIssues",
				"offset": 0,
				"slot": "2",
				"type": "t_mapping(t_address,t_array(t_string_storage)dyn_storage)"
			},
			{
				"astId": 46,
				"contract": "CivicIssueTracker.sol:CivicIssueTracker",
				"label": "hasVoted",
				"offset": 0,
				"slot": "3",
				"type": "t_mapping(t_address,t_mapping(t_string_memory_ptr,t_bool))"
			},
			{
				"astId": 49,
				"contract": "CivicIssueTracker.sol:CivicIssueTracker",
				"label": "allIssueIds",
				"offset": 0,
				"slot": "4",
				"type": "t_array(t_string_storage)dyn_storage"
			}
		],
		"types": {
			"t_address": {
				"encoding": "inplace",
				"label": "address",
				"numberOfBytes": "20"
			},
			"t_array(t_string_storage)dyn_storage": {
				"base": "t_string_storage",
				"encoding": "dynamic_array",
				"label": "string[]",
				"numberOfBytes": "32"
			},
			"t_array(t_struct(Vote)24_storage)dyn_storage": {
				"base": "t_struct(Vote)24_storage",
				"encoding": "dynamic_array",
				"label": "struct CivicIssueTracker.Vote[]",
				"numberOfBytes": "32"
			},
			"t_bool": {
				"encoding": "inplace",
				"label": "bool",
				"numberOfBytes": "1"
			},
			"t_mapping(t_address,t_array(t_string_storage)dyn_storage)": {
				"encoding": "mapping",
				"key": "t_address",
				"label": "mapping(address => string[])",
				"numberOfBytes": "32",
				"value": "t_array(t_string_storage)dyn_storage"
			},
			"t_mapping(t_address,t_mapping(t_string_memory_ptr,t_bool))": {
				"encoding": "mapping",
				"key": "t_address",
				"label": "mapping(address => mapping(string => bool))",
				"numberOfBytes": "32",
				"value": "t_mapping(t_string_memory_ptr,t_bool)"
			},
			"t_mapping(t_string_memory_ptr,t_array(t_struct(Vote)24_storage)dyn_storage)": {
				"encoding": "mapping",
				"key": "t_string_memory_ptr",
				"label": "mapping(string => struct CivicIssueTracker.Vote[])",
				"numberOfBytes": "32",
				"value": "t_array(t_struct(Vote)24_storage)dyn_storage"
			},
			"t_mapping(t_string_memory_ptr,t_bool)": {
				"encoding": "mapping",
				"key": "t_string_memory_ptr",
				"label": "mapping(string => bool)",
				"numberOfBytes": "32",
				"value": "t_bool"
			},
			"t_mapping(t_string_memory_ptr,t_struct(Issue)15_storage)": {
				"encoding": "mapping",
				"key": "t_string_memory_ptr",
				"label": "mapping(string => struct CivicIssueTracker.Issue)",
				"numberOfBytes": "32",
				"value": "t_struct(Issue)15_storage"
			},
			"t_string_memory_ptr": {
				"encoding": "bytes",
				"label": "string",
				"numberOfBytes": "32"
			},
			"t_string_storage": {
				"encoding": "bytes",
				"label": "string",
				"numberOfBytes": "32"
			},
			"t_struct(Issue)15_storage": {
				"encoding": "inplace",
				"label": "struct CivicIssueTracker.Issue",
				"members": [
					{
						"astId": 4,
						"contract": "CivicIssueTracker.sol:CivicIssueTracker",
						"label": "issueId",
						"offset": 0,
						"slot": "0",
						"type": "t_string_storage"
					},
					{
						"astId": 6,
						"contract": "CivicIssueTracker.sol:CivicIssueTracker",
						"label": "title",
						"offset": 0,
						"slot": "1",
						"type": "t_string_storage"
					},
					{
						"astId": 8,
						"contract": "CivicIssueTracker.sol:CivicIssueTracker",
						"label": "reportedBy",
						"offset": 0,
						"slot": "2",
						"type": "t_address"
					},
					{
						"astId": 10,
						"contract": "CivicIssueTracker.sol:CivicIssueTracker",
						"label": "timestamp",
						"offset": 0,
						"slot": "3",
						"type": "t_uint256"
					},
					{
						"astId": 12,
						"contract": "CivicIssueTracker.sol:CivicIssueTracker",
						"label": "voteCount",
						"offset": 0,
						"slot": "4",
						"type": "t_uint256"
					},
					{
						"astId": 14,
						"contract": "CivicIssueTracker.sol:CivicIssueTracker",
						"label": "exists",
						"offset": 0,
						"slot": "5",
						"type": "t_bool"
					}
				],
				"numberOfBytes": "192"
			},
			"t_struct(Vote)24_storage": {
				"encoding": "inplace",
				"label": "struct CivicIssueTracker.Vote",
				"members": [
					{
						"astId": 17,
						"contract": "CivicIssueTracker.sol:CivicIssueTracker",
						"label": "voter",
						"offset": 0,
						"slot": "0",
						"type": "t_address"
					},
					{
						"astId": 19,
						"contract": "CivicIssueTracker.sol:CivicIssueTracker",
						"label": "issueId",
						"offset": 0,
						"slot": "1",
						"type": "t_string_storage"
					},
					{
						"astId": 21,
						"contract": "CivicIssueTracker.sol:CivicIssueTracker",
						"label": "timestamp",
						"offset": 0,
						"slot": "2",
						"type": "t_uint256"
					},
					{
						"astId": 23,
						"contract": "CivicIssueTracker.sol:CivicIssueTracker",
						"label": "support",
						"offset": 0,
						"slot": "3",
						"type": "t_bool"
					}
				],
				"numberOfBytes": "128"
			},
			"t_uint256": {
				"encoding": "inplace",
				"label": "uint256",
				"numberOfBytes": "32"
			}
		}
	},
	"web3Deploy": "var civicissuetrackerContract = new web3.eth.Contract([{\"anonymous\":false,\"inputs\":[{\"indexed\":true,\"internalType\":\"string\",\"name\":\"issueId\",\"type\":\"string\"},{\"indexed\":false,\"internalType\":\"string\",\"name\":\"title\",\"type\":\"string\"},{\"indexed\":true,\"internalType\":\"address\",\"name\":\"reportedBy\",\"type\":\"address\"},{\"indexed\":false,\"internalType\":\"uint256\",\"name\":\"timestamp\",\"type\":\"uint256\"}],\"name\":\"IssueRecorded\",\"type\":\"event\"},{\"anonymous\":false,\"inputs\":[{\"indexed\":true,\"internalType\":\"string\",\"name\":\"issueId\",\"type\":\"string\"},{\"indexed\":false,\"internalType\":\"string\",\"name\":\"newStatus\",\"type\":\"string\"},{\"indexed\":false,\"internalType\":\"uint256\",\"name\":\"timestamp\",\"type\":\"uint256\"}],\"name\":\"IssueStatusUpdated\",\"type\":\"event\"},{\"anonymous\":false,\"inputs\":[{\"indexed\":true,\"internalType\":\"string\",\"name\":\"issueId\",\"type\":\"string\"},{\"indexed\":true,\"internalType\":\"address\",\"name\":\"voter\",\"type\":\"address\"},{\"indexed\":false,\"internalType\":\"bool\",\"name\":\"support\",\"type\":\"bool\"},{\"indexed\":false,\"internalType\":\"uint256\",\"name\":\"timestamp\",\"type\":\"uint256\"}],\"name\":\"VoteRecorded\",\"type\":\"event\"},{\"inputs\":[{\"internalType\":\"uint256\",\"name\":\"\",\"type\":\"uint256\"}],\"name\":\"allIssueIds\",\"outputs\":[{\"internalType\":\"string\",\"name\":\"\",\"type\":\"string\"}],\"stateMutability\":\"view\",\"type\":\"function\"},{\"inputs\":[{\"internalType\":\"address\",\"name\":\"_user\",\"type\":\"address\"},{\"internalType\":\"string\",\"name\":\"_issueId\",\"type\":\"string\"}],\"name\":\"checkIfVoted\",\"outputs\":[{\"internalType\":\"bool\",\"name\":\"\",\"type\":\"bool\"}],\"stateMutability\":\"view\",\"type\":\"function\"},{\"inputs\":[{\"internalType\":\"uint256\",\"name\":\"_offset\",\"type\":\"uint256\"},{\"internalType\":\"uint256\",\"name\":\"_limit\",\"type\":\"uint256\"}],\"name\":\"getAllIssues\",\"outputs\":[{\"internalType\":\"string[]\",\"name\":\"\",\"type\":\"string[]\"}],\"stateMutability\":\"view\",\"type\":\"function\"},{\"inputs\":[{\"internalType\":\"string\",\"name\":\"_issueId\",\"type\":\"string\"}],\"name\":\"getIssue\",\"outputs\":[{\"internalType\":\"string\",\"name\":\"issueId\",\"type\":\"string\"},{\"internalType\":\"string\",\"name\":\"title\",\"type\":\"string\"},{\"internalType\":\"address\",\"name\":\"reportedBy\",\"type\":\"address\"},{\"internalType\":\"uint256\",\"name\":\"timestamp\",\"type\":\"uint256\"},{\"internalType\":\"uint256\",\"name\":\"voteCount\",\"type\":\"uint256\"},{\"internalType\":\"bool\",\"name\":\"exists\",\"type\":\"bool\"}],\"stateMutability\":\"view\",\"type\":\"function\"},{\"inputs\":[{\"internalType\":\"string\",\"name\":\"_issueId\",\"type\":\"string\"}],\"name\":\"getIssueVotes\",\"outputs\":[{\"components\":[{\"internalType\":\"address\",\"name\":\"voter\",\"type\":\"address\"},{\"internalType\":\"string\",\"name\":\"issueId\",\"type\":\"string\"},{\"internalType\":\"uint256\",\"name\":\"timestamp\",\"type\":\"uint256\"},{\"internalType\":\"bool\",\"name\":\"support\",\"type\":\"bool\"}],\"internalType\":\"struct CivicIssueTracker.Vote[]\",\"name\":\"\",\"type\":\"tuple[]\"}],\"stateMutability\":\"view\",\"type\":\"function\"},{\"inputs\":[],\"name\":\"getTotalIssues\",\"outputs\":[{\"internalType\":\"uint256\",\"name\":\"\",\"type\":\"uint256\"}],\"stateMutability\":\"view\",\"type\":\"function\"},{\"inputs\":[{\"internalType\":\"address\",\"name\":\"_user\",\"type\":\"address\"}],\"name\":\"getUserIssues\",\"outputs\":[{\"internalType\":\"string[]\",\"name\":\"\",\"type\":\"string[]\"}],\"stateMutability\":\"view\",\"type\":\"function\"},{\"inputs\":[{\"internalType\":\"string\",\"name\":\"_issueId\",\"type\":\"string\"}],\"name\":\"getVoteCount\",\"outputs\":[{\"internalType\":\"uint256\",\"name\":\"\",\"type\":\"uint256\"}],\"stateMutability\":\"view\",\"type\":\"function\"},{\"inputs\":[{\"internalType\":\"address\",\"name\":\"\",\"type\":\"address\"},{\"internalType\":\"string\",\"name\":\"\",\"type\":\"string\"}],\"name\":\"hasVoted\",\"outputs\":[{\"internalType\":\"bool\",\"name\":\"\",\"type\":\"bool\"}],\"stateMutability\":\"view\",\"type\":\"function\"},{\"inputs\":[{\"internalType\":\"string\",\"name\":\"\",\"type\":\"string\"},{\"internalType\":\"uint256\",\"name\":\"\",\"type\":\"uint256\"}],\"name\":\"issueVotes\",\"outputs\":[{\"internalType\":\"address\",\"name\":\"voter\",\"type\":\"address\"},{\"internalType\":\"string\",\"name\":\"issueId\",\"type\":\"string\"},{\"internalType\":\"uint256\",\"name\":\"timestamp\",\"type\":\"uint256\"},{\"internalType\":\"bool\",\"name\":\"support\",\"type\":\"bool\"}],\"stateMutability\":\"view\",\"type\":\"function\"},{\"inputs\":[{\"internalType\":\"string\",\"name\":\"\",\"type\":\"string\"}],\"name\":\"issues\",\"outputs\":[{\"internalType\":\"string\",\"name\":\"issueId\",\"type\":\"string\"},{\"internalType\":\"string\",\"name\":\"title\",\"type\":\"string\"},{\"internalType\":\"address\",\"name\":\"reportedBy\",\"type\":\"address\"},{\"internalType\":\"uint256\",\"name\":\"timestamp\",\"type\":\"uint256\"},{\"internalType\":\"uint256\",\"name\":\"voteCount\",\"type\":\"uint256\"},{\"internalType\":\"bool\",\"name\":\"exists\",\"type\":\"bool\"}],\"stateMutability\":\"view\",\"type\":\"function\"},{\"inputs\":[{\"internalType\":\"string\",\"name\":\"_issueId\",\"type\":\"string\"},{\"internalType\":\"string\",\"name\":\"_title\",\"type\":\"string\"}],\"name\":\"recordIssue\",\"outputs\":[],\"stateMutability\":\"nonpayable\",\"type\":\"function\"},{\"inputs\":[{\"internalType\":\"string\",\"name\":\"_issueId\",\"type\":\"string\"},{\"internalType\":\"bool\",\"name\":\"_support\",\"type\":\"bool\"}],\"name\":\"recordVote\",\"outputs\":[],\"stateMutability\":\"nonpayable\",\"type\":\"function\"},{\"inputs\":[{\"internalType\":\"address\",\"name\":\"\",\"type\":\"address\"},{\"internalType\":\"uint256\",\"name\":\"\",\"type\":\"uint256\"}],\"name\":\"userIssues\",\"outputs\":[{\"internalType\":\"string\",\"name\":\"\",\"type\":\"string\"}],\"stateMutability\":\"view\",\"type\":\"function\"}]);\nvar civicissuetracker = civicissuetrackerContract.deploy({\n     data: '0x6080604052348015600e575f5ffd5b5061257e8061001c5f395ff3fe608060405234801561000f575f5ffd5b50600436106100e7575f3560e01c8063893768691161008a578063c684706011610064578063c6847060146102ab578063e38ba436146102db578063f62ef4b614610310578063f81e08c61461032e576100e7565b8063893768691461022c5780639c667c7d1461025f5780639ebd26771461027b576100e7565b806331f4fff0116100c657806331f4fff0146101675780633535ca9a146101975780634b098976146101c7578063814a1096146101f7576100e7565b8062f2eac2146100eb578063069953a714610107578063287de36214610137575b5f5ffd5b61010560048036038101906101009190611715565b61035e565b005b610121600480360381019061011c919061176f565b61068e565b60405161012e91906117ce565b60405180910390f35b610151600480360381019061014c919061186b565b610723565b60405161015e9190611909565b60405180910390f35b610181600480360381019061017c9190611929565b6107d4565b60405161018e9190611909565b60405180910390f35b6101b160048036038101906101ac9190611954565b61087a565b6040516101be9190611a82565b60405180910390f35b6101e160048036038101906101dc9190611aa2565b61098b565b6040516101ee9190611b0b565b60405180910390f35b610211600480360381019061020c919061176f565b6109fa565b60405161022396959493929190611b33565b60405180910390f35b61024660048036038101906102419190611ba0565b610c01565b6040516102569493929190611bfa565b60405180910390f35b61027960048036038101906102749190611c44565b610d10565b005b61029560048036038101906102909190611cba565b611015565b6040516102a29190611a82565b60405180910390f35b6102c560048036038101906102c09190611aa2565b6111d1565b6040516102d29190611b0b565b60405180910390f35b6102f560048036038101906102f0919061176f565b611213565b60405161030796959493929190611b33565b60405180910390f35b610318611399565b60405161032591906117ce565b60405180910390f35b6103486004803603810190610343919061176f565b6113a5565b6040516103559190611e40565b60405180910390f35b5f8260405161036d9190611e9a565b90815260200160405180910390206005015f9054906101000a900460ff166103ca576040517f08c379a00000000000000000000000000000000000000000000000000000000081526004016103c190611efa565b60405180910390fd5b60035f3373ffffffffffffffffffffffffffffffffffffffff1673ffffffffffffffffffffffffffffffffffffffff1681526020019081526020015f20826040516104159190611e9a565b90815260200160405180910390205f9054906101000a900460ff1615610470576040517f08c379a000000000000000000000000000000000000000000000000000000000815260040161046790611f62565b60405180910390fd5b5f60405180608001604052803373ffffffffffffffffffffffffffffffffffffffff16815260200184815260200142815260200183151581525090506001836040516104bc9190611e9a565b908152602001604051809103902081908060018154018082558091505060019003905f5260205f2090600402015f909190919091505f820151815f015f6101000a81548173ffffffffffffffffffffffffffffffffffffffff021916908373ffffffffffffffffffffffffffffffffffffffff160217905550602082015181600101908161054a919061217d565b50604082015181600201556060820151816003015f6101000a81548160ff0219169083151502179055505050600160035f3373ffffffffffffffffffffffffffffffffffffffff1673ffffffffffffffffffffffffffffffffffffffff1681526020019081526020015f20846040516105c39190611e9a565b90815260200160405180910390205f6101000a81548160ff0219169083151502179055508115610623575f836040516105fc9190611e9a565b90815260200160405180910390206004015f81548092919061061d90612279565b91905055505b3373ffffffffffffffffffffffffffffffffffffffff16836040516106489190611e9a565b60405180910390207f198e3ed8d34bb0748a994aa3dec83be23391b16a3539119f912746564bd3553384426040516106819291906122c0565b60405180910390a3505050565b5f5f8260405161069e9190611e9a565b90815260200160405180910390206005015f9054906101000a900460ff166106fb576040517f08c379a00000000000000000000000000000000000000000000000000000000081526004016106f290611efa565b60405180910390fd5b5f8260405161070a9190611e9a565b9081526020016040518091039020600401549050919050565b6002602052815f5260405f20818154811061073c575f80fd5b905f5260205f20015f9150915050805461075590611fad565b80601f016020809104026020016040519081016040528092919081815260200182805461078190611fad565b80156107cc5780601f106107a3576101008083540402835291602001916107cc565b820191905f5260205f20905b8154815290600101906020018083116107af57829003601f168201915b505050505081565b600481815481106107e3575f80fd5b905f5260205f20015f9150905080546107fb90611fad565b80601f016020809104026020016040519081016040528092919081815260200182805461082790611fad565b80156108725780601f1061084957610100808354040283529160200191610872565b820191905f5260205f20905b81548152906001019060200180831161085557829003601f168201915b505050505081565b606060025f8373ffffffffffffffffffffffffffffffffffffffff1673ffffffffffffffffffffffffffffffffffffffff1681526020019081526020015f20805480602002602001604051908101604052809291908181526020015f905b82821015610980578382905f5260205f200180546108f590611fad565b80601f016020809104026020016040519081016040528092919081815260200182805461092190611fad565b801561096c5780601f106109435761010080835404028352916020019161096c565b820191905f5260205f20905b81548152906001019060200180831161094f57829003601f168201915b5050505050815260200190600101906108d8565b505050509050919050565b5f60035f8473ffffffffffffffffffffffffffffffffffffffff1673ffffffffffffffffffffffffffffffffffffffff1681526020019081526020015f20826040516109d79190611e9a565b90815260200160405180910390205f9054906101000a900460ff16905092915050565b6060805f5f5f5f5f5f88604051610a119190611e9a565b90815260200160405180910390206040518060c00160405290815f82018054610a3990611fad565b80601f0160208091040260200160405190810160405280929190818152602001828054610a6590611fad565b8015610ab05780601f10610a8757610100808354040283529160200191610ab0565b820191905f5260205f20905b815481529060010190602001808311610a9357829003601f168201915b50505050508152602001600182018054610ac990611fad565b80601f0160208091040260200160405190810160405280929190818152602001828054610af590611fad565b8015610b405780601f10610b1757610100808354040283529160200191610b40565b820191905f5260205f20905b815481529060010190602001808311610b2357829003601f168201915b50505050508152602001600282015f9054906101000a900473ffffffffffffffffffffffffffffffffffffffff1673ffffffffffffffffffffffffffffffffffffffff1673ffffffffffffffffffffffffffffffffffffffff1681526020016003820154815260200160048201548152602001600582015f9054906101000a900460ff1615151515815250509050805f015181602001518260400151836060015184608001518560a001519650965096509650965096505091939550919395565b6001828051602081018201805184825260208301602085012081835280955050505050508181548110610c32575f80fd5b905f5260205f2090600402015f9150915050805f015f9054906101000a900473ffffffffffffffffffffffffffffffffffffffff1690806001018054610c7790611fad565b80601f0160208091040260200160405190810160405280929190818152602001828054610ca390611fad565b8015610cee5780601f10610cc557610100808354040283529160200191610cee565b820191905f5260205f20905b815481529060010190602001808311610cd157829003601f168201915b505050505090806002015490806003015f9054906101000a900460ff16905084565b5f825111610d53576040517f08c379a0000000000000000000000000000000000000000000000000000000008152600401610d4a90612331565b60405180910390fd5b5f815111610d96576040517f08c379a0000000000000000000000000000000000000000000000000000000008152600401610d8d90612399565b60405180910390fd5b5f82604051610da59190611e9a565b90815260200160405180910390206005015f9054906101000a900460ff1615610e03576040517f08c379a0000000000000000000000000000000000000000000000000000000008152600401610dfa90612401565b60405180910390fd5b6040518060c001604052808381526020018281526020013373ffffffffffffffffffffffffffffffffffffffff1681526020014281526020015f8152602001600115158152505f83604051610e589190611e9a565b90815260200160405180910390205f820151815f019081610e79919061217d565b506020820151816001019081610e8f919061217d565b506040820151816002015f6101000a81548173ffffffffffffffffffffffffffffffffffffffff021916908373ffffffffffffffffffffffffffffffffffffffff160217905550606082015181600301556080820151816004015560a0820151816005015f6101000a81548160ff021916908315150217905550905050600482908060018154018082558091505060019003905f5260205f20015f909190919091509081610f3d919061217d565b5060025f3373ffffffffffffffffffffffffffffffffffffffff1673ffffffffffffffffffffffffffffffffffffffff1681526020019081526020015f2082908060018154018082558091505060019003905f5260205f20015f909190919091509081610faa919061217d565b503373ffffffffffffffffffffffffffffffffffffffff1682604051610fd09190611e9a565b60405180910390207f8d9e646b7be50523dbf45d232dea79bf57ed2ea290147f46d64d74918bcce742834260405161100992919061241f565b60405180910390a35050565b6060600480549050831061105e576040517f08c379a000000000000000000000000000000000000000000000000000000000815260040161105590612497565b60405180910390fd5b5f828461106b91906124b5565b90506004805490508111156110835760048054905090505b5f848261109091906124e8565b67ffffffffffffffff8111156110a9576110a86115bc565b5b6040519080825280602002602001820160405280156110dc57816020015b60608152602001906001900390816110c75790505b5090505f8590505b828110156111c55760048181548110611100576110ff61251b565b5b905f5260205f2001805461111390611fad565b80601f016020809104026020016040519081016040528092919081815260200182805461113f90611fad565b801561118a5780601f106111615761010080835404028352916020019161118a565b820191905f5260205f20905b81548152906001019060200180831161116d57829003601f168201915b505050505082878361119c91906124e8565b815181106111ad576111ac61251b565b5b602002602001018190525080806001019150506110e4565b50809250505092915050565b6003602052815f5260405f20818051602081018201805184825260208301602085012081835280955050505050505f915091509054906101000a900460ff1681565b5f818051602081018201805184825260208301602085012081835280955050505050505f91509050805f01805461124990611fad565b80601f016020809104026020016040519081016040528092919081815260200182805461127590611fad565b80156112c05780601f10611297576101008083540402835291602001916112c0565b820191905f5260205f20905b8154815290600101906020018083116112a357829003601f168201915b5050505050908060010180546112d590611fad565b80601f016020809104026020016040519081016040528092919081815260200182805461130190611fad565b801561134c5780601f106113235761010080835404028352916020019161134c565b820191905f5260205f20905b81548152906001019060200180831161132f57829003601f168201915b505050505090806002015f9054906101000a900473ffffffffffffffffffffffffffffffffffffffff1690806003015490806004015490806005015f9054906101000a900460ff16905086565b5f600480549050905090565b60605f826040516113b69190611e9a565b90815260200160405180910390206005015f9054906101000a900460ff16611413576040517f08c379a000000000000000000000000000000000000000000000000000000000815260040161140a90611efa565b60405180910390fd5b6001826040516114239190611e9a565b9081526020016040518091039020805480602002602001604051908101604052809291908181526020015f905b82821015611588578382905f5260205f2090600402016040518060800160405290815f82015f9054906101000a900473ffffffffffffffffffffffffffffffffffffffff1673ffffffffffffffffffffffffffffffffffffffff1673ffffffffffffffffffffffffffffffffffffffff1681526020016001820180546114d590611fad565b80601f016020809104026020016040519081016040528092919081815260200182805461150190611fad565b801561154c5780601f106115235761010080835404028352916020019161154c565b820191905f5260205f20905b81548152906001019060200180831161152f57829003601f168201915b5050505050815260200160028201548152602001600382015f9054906101000a900460ff16151515158152505081526020019060010190611450565b505050509050919050565b5f604051905090565b5f5ffd5b5f5ffd5b5f5ffd5b5f5ffd5b5f601f19601f8301169050919050565b7f4e487b71000000000000000000000000000000000000000000000000000000005f52604160045260245ffd5b6115f2826115ac565b810181811067ffffffffffffffff82111715611611576116106115bc565b5b80604052505050565b5f611623611593565b905061162f82826115e9565b919050565b5f67ffffffffffffffff82111561164e5761164d6115bc565b5b611657826115ac565b9050602081019050919050565b828183375f83830152505050565b5f61168461167f84611634565b61161a565b9050828152602081018484840111156116a05761169f6115a8565b5b6116ab848285611664565b509392505050565b5f82601f8301126116c7576116c66115a4565b5b81356116d7848260208601611672565b91505092915050565b5f8115159050919050565b6116f4816116e0565b81146116fe575f5ffd5b50565b5f8135905061170f816116eb565b92915050565b5f5f6040838503121561172b5761172a61159c565b5b5f83013567ffffffffffffffff811115611748576117476115a0565b5b611754858286016116b3565b925050602061176585828601611701565b9150509250929050565b5f602082840312156117845761178361159c565b5b5f82013567ffffffffffffffff8111156117a1576117a06115a0565b5b6117ad848285016116b3565b91505092915050565b5f819050919050565b6117c8816117b6565b82525050565b5f6020820190506117e15f8301846117bf565b92915050565b5f73ffffffffffffffffffffffffffffffffffffffff82169050919050565b5f611810826117e7565b9050919050565b61182081611806565b811461182a575f5ffd5b50565b5f8135905061183b81611817565b92915050565b61184a816117b6565b8114611854575f5ffd5b50565b5f8135905061186581611841565b92915050565b5f5f604083850312156118815761188061159c565b5b5f61188e8582860161182d565b925050602061189f85828601611857565b9150509250929050565b5f81519050919050565b5f82825260208201905092915050565b8281835e5f83830152505050565b5f6118db826118a9565b6118e581856118b3565b93506118f58185602086016118c3565b6118fe816115ac565b840191505092915050565b5f6020820190508181035f83015261192181846118d1565b905092915050565b5f6020828403121561193e5761193d61159c565b5b5f61194b84828501611857565b91505092915050565b5f602082840312156119695761196861159c565b5b5f6119768482850161182d565b91505092915050565b5f81519050919050565b5f82825260208201905092915050565b5f819050602082019050919050565b5f82825260208201905092915050565b5f6119c2826118a9565b6119cc81856119a8565b93506119dc8185602086016118c3565b6119e5816115ac565b840191505092915050565b5f6119fb83836119b8565b905092915050565b5f602082019050919050565b5f611a198261197f565b611a238185611989565b935083602082028501611a3585611999565b805f5b85811015611a705784840389528151611a5185826119f0565b9450611a5c83611a03565b925060208a01995050600181019050611a38565b50829750879550505050505092915050565b5f6020820190508181035f830152611a9a8184611a0f565b905092915050565b5f5f60408385031215611ab857611ab761159c565b5b5f611ac58582860161182d565b925050602083013567ffffffffffffffff811115611ae657611ae56115a0565b5b611af2858286016116b3565b9150509250929050565b611b05816116e0565b82525050565b5f602082019050611b1e5f830184611afc565b92915050565b611b2d81611806565b82525050565b5f60c0820190508181035f830152611b4b81896118d1565b90508181036020830152611b5f81886118d1565b9050611b6e6040830187611b24565b611b7b60608301866117bf565b611b8860808301856117bf565b611b9560a0830184611afc565b979650505050505050565b5f5f60408385031215611bb657611bb561159c565b5b5f83013567ffffffffffffffff811115611bd357611bd26115a0565b5b611bdf858286016116b3565b9250506020611bf085828601611857565b9150509250929050565b5f608082019050611c0d5f830187611b24565b8181036020830152611c1f81866118d1565b9050611c2e60408301856117bf565b611c3b6060830184611afc565b95945050505050565b5f5f60408385031215611c5a57611c5961159c565b5b5f83013567ffffffffffffffff811115611c7757611c766115a0565b5b611c83858286016116b3565b925050602083013567ffffffffffffffff811115611ca457611ca36115a0565b5b611cb0858286016116b3565b9150509250929050565b5f5f60408385031215611cd057611ccf61159c565b5b5f611cdd85828601611857565b9250506020611cee85828601611857565b9150509250929050565b5f81519050919050565b5f82825260208201905092915050565b5f819050602082019050919050565b611d2a81611806565b82525050565b611d39816117b6565b82525050565b611d48816116e0565b82525050565b5f608083015f830151611d635f860182611d21565b5060208301518482036020860152611d7b82826119b8565b9150506040830151611d906040860182611d30565b506060830151611da36060860182611d3f565b508091505092915050565b5f611db98383611d4e565b905092915050565b5f602082019050919050565b5f611dd782611cf8565b611de18185611d02565b935083602082028501611df385611d12565b805f5b85811015611e2e5784840389528151611e0f8582611dae565b9450611e1a83611dc1565b925060208a01995050600181019050611df6565b50829750879550505050505092915050565b5f6020820190508181035f830152611e588184611dcd565b905092915050565b5f81905092915050565b5f611e74826118a9565b611e7e8185611e60565b9350611e8e8185602086016118c3565b80840191505092915050565b5f611ea58284611e6a565b915081905092915050565b7f497373756520646f6573206e6f742065786973740000000000000000000000005f82015250565b5f611ee46014836118b3565b9150611eef82611eb0565b602082019050919050565b5f6020820190508181035f830152611f1181611ed8565b9050919050565b7f416c726561647920766f746564206f6e207468697320697373756500000000005f82015250565b5f611f4c601b836118b3565b9150611f5782611f18565b602082019050919050565b5f6020820190508181035f830152611f7981611f40565b9050919050565b7f4e487b71000000000000000000000000000000000000000000000000000000005f52602260045260245ffd5b5f6002820490506001821680611fc457607f821691505b602082108103611fd757611fd6611f80565b5b50919050565b5f819050815f5260205f209050919050565b5f6020601f8301049050919050565b5f82821b905092915050565b5f600883026120397fffffffffffffffffffffffffffffffffffffffffffffffffffffffffffffffff82611ffe565b6120438683611ffe565b95508019841693508086168417925050509392505050565b5f819050919050565b5f61207e612079612074846117b6565b61205b565b6117b6565b9050919050565b5f819050919050565b61209783612064565b6120ab6120a382612085565b84845461200a565b825550505050565b5f5f905090565b6120c26120b3565b6120cd81848461208e565b505050565b5b818110156120f0576120e55f826120ba565b6001810190506120d3565b5050565b601f8211156121355761210681611fdd565b61210f84611fef565b8101602085101561211e578190505b61213261212a85611fef565b8301826120d2565b50505b505050565b5f82821c905092915050565b5f6121555f198460080261213a565b1980831691505092915050565b5f61216d8383612146565b9150826002028217905092915050565b612186826118a9565b67ffffffffffffffff81111561219f5761219e6115bc565b5b6121a98254611fad565b6121b48282856120f4565b5f60209050601f8311600181146121e5575f84156121d3578287015190505b6121dd8582612162565b865550612244565b601f1984166121f386611fdd565b5f5b8281101561221a578489015182556001820191506020850194506020810190506121f5565b868310156122375784890151612233601f891682612146565b8355505b6001600288020188555050505b505050505050565b7f4e487b71000000000000000000000000000000000000000000000000000000005f52601160045260245ffd5b5f612283826117b6565b91507fffffffffffffffffffffffffffffffffffffffffffffffffffffffffffffffff82036122b5576122b461224c565b5b600182019050919050565b5f6040820190506122d35f830185611afc565b6122e060208301846117bf565b9392505050565b7f49737375652049442063616e6e6f7420626520656d70747900000000000000005f82015250565b5f61231b6018836118b3565b9150612326826122e7565b602082019050919050565b5f6020820190508181035f8301526123488161230f565b9050919050565b7f5469746c652063616e6e6f7420626520656d70747900000000000000000000005f82015250565b5f6123836015836118b3565b915061238e8261234f565b602082019050919050565b5f6020820190508181035f8301526123b081612377565b9050919050565b7f497373756520616c7265616479207265636f72646564000000000000000000005f82015250565b5f6123eb6016836118b3565b91506123f6826123b7565b602082019050919050565b5f6020820190508181035f830152612418816123df565b9050919050565b5f6040820190508181035f83015261243781856118d1565b905061244660208301846117bf565b9392505050565b7f4f6666736574206f7574206f6620626f756e64730000000000000000000000005f82015250565b5f6124816014836118b3565b915061248c8261244d565b602082019050919050565b5f6020820190508181035f8301526124ae81612475565b9050919050565b5f6124bf826117b6565b91506124ca836117b6565b92508282019050808211156124e2576124e161224c565b5b92915050565b5f6124f2826117b6565b91506124fd836117b6565b92508282039050818111156125155761251461224c565b5b92915050565b7f4e487b71000000000000000000000000000000000000000000000000000000005f52603260045260245ffdfea26469706673582212207c4c533dfdf47bb6691d8afe69f034d8e31dc408f1fb2e76a6af60307e92520c64736f6c634300081f0033', \n     arguments: [\n     ]\n}).send({\n     from: web3.eth.accounts[0], \n     gas: '4700000'\n   }, function (e, contract){\n    console.log(e, contract);\n    if (typeof contract.address !== 'undefined') {\n         console.log('Contract mined! address: ' + contract.address + ' transactionHash: ' + contract.transactionHash);\n    }\n })",
	"functionHashes": {
		"89376869": "issueVotes(string,uint256)",
		"31f4fff0": "allIssueIds(uint256)",
		"4b098976": "checkIfVoted(address,string)",
		"9ebd2677": "getAllIssues(uint256,uint256)",
		"814a1096": "getIssue(string)",
		"f81e08c6": "getIssueVotes(string)",
		"f62ef4b6": "getTotalIssues()",
		"3535ca9a": "getUserIssues(address)",
		"069953a7": "getVoteCount(string)",
		"c6847060": "hasVoted(address,string)",
		"e38ba436": "issues(string)",
		"9c667c7d": "recordIssue(string,string)",
		"00f2eac2": "recordVote(string,bool)",
		"287de362": "userIssues(address,uint256)"
	},
	"gasEstimates": {
		"Creation": {
			"codeDepositCost": "1919600",
			"executionCost": "2024",
			"totalCost": "1921624"
		},
		"External": {
			"allIssueIds(uint256)": "infinite",
			"checkIfVoted(address,string)": "infinite",
			"getAllIssues(uint256,uint256)": "infinite",
			"getIssue(string)": "infinite",
			"getIssueVotes(string)": "infinite",
			"getTotalIssues()": "2506",
			"getUserIssues(address)": "infinite",
			"getVoteCount(string)": "infinite",
			"hasVoted(address,string)": "infinite",
			"issueVotes(string,uint256)": "infinite",
			"issues(string)": "infinite",
			"recordIssue(string,string)": "infinite",
			"recordVote(string,bool)": "infinite",
			"userIssues(address,uint256)": "infinite"
		}
	},
	"devdoc": {
		"details": "Smart contract for transparent civic issue tracking and voting",
		"kind": "dev",
		"methods": {
			"checkIfVoted(address,string)": {
				"details": "Check if user has voted on an issue",
				"params": {
					"_issueId": "Issue ID",
					"_user": "User address"
				}
			},
			"getAllIssues(uint256,uint256)": {
				"details": "Get all issue IDs (paginated)",
				"params": {
					"_limit": "Number of records to return",
					"_offset": "Starting index"
				}
			},
			"getIssue(string)": {
				"details": "Get issue details",
				"params": {
					"_issueId": "Issue ID to query"
				}
			},
			"getIssueVotes(string)": {
				"details": "Get all votes for an issue",
				"params": {
					"_issueId": "Issue ID to query"
				}
			},
			"getTotalIssues()": {
				"details": "Get total number of issues recorded"
			},
			"getUserIssues(address)": {
				"details": "Get all issues reported by a user",
				"params": {
					"_user": "User address to query"
				}
			},
			"getVoteCount(string)": {
				"details": "Get vote count for an issue",
				"params": {
					"_issueId": "Issue ID to query"
				}
			},
			"recordIssue(string,string)": {
				"details": "Record a new civic issue on the blockchain",
				"params": {
					"_issueId": "MongoDB ObjectId of the issue",
					"_title": "Title of the issue (max 100 chars)"
				}
			},
			"recordVote(string,bool)": {
				"details": "Record a vote on an issue",
				"params": {
					"_issueId": "Issue to vote on",
					"_support": "True for upvote, false for downvote"
				}
			}
		},
		"title": "CivicIssueTracker",
		"version": 1
	},
	"userdoc": {
		"kind": "user",
		"methods": {},
		"version": 1
	},
	"Runtime Bytecode": {
		"immutableReferences": {},
		"linkReferences": {},
		"object": "608060405234801561000f575f5ffd5b50600436106100e7575f3560e01c8063893768691161008a578063c684706011610064578063c6847060146102ab578063e38ba436146102db578063f62ef4b614610310578063f81e08c61461032e576100e7565b8063893768691461022c5780639c667c7d1461025f5780639ebd26771461027b576100e7565b806331f4fff0116100c657806331f4fff0146101675780633535ca9a146101975780634b098976146101c7578063814a1096146101f7576100e7565b8062f2eac2146100eb578063069953a714610107578063287de36214610137575b5f5ffd5b61010560048036038101906101009190611715565b61035e565b005b610121600480360381019061011c919061176f565b61068e565b60405161012e91906117ce565b60405180910390f35b610151600480360381019061014c919061186b565b610723565b60405161015e9190611909565b60405180910390f35b610181600480360381019061017c9190611929565b6107d4565b60405161018e9190611909565b60405180910390f35b6101b160048036038101906101ac9190611954565b61087a565b6040516101be9190611a82565b60405180910390f35b6101e160048036038101906101dc9190611aa2565b61098b565b6040516101ee9190611b0b565b60405180910390f35b610211600480360381019061020c919061176f565b6109fa565b60405161022396959493929190611b33565b60405180910390f35b61024660048036038101906102419190611ba0565b610c01565b6040516102569493929190611bfa565b60405180910390f35b61027960048036038101906102749190611c44565b610d10565b005b61029560048036038101906102909190611cba565b611015565b6040516102a29190611a82565b60405180910390f35b6102c560048036038101906102c09190611aa2565b6111d1565b6040516102d29190611b0b565b60405180910390f35b6102f560048036038101906102f0919061176f565b611213565b60405161030796959493929190611b33565b60405180910390f35b610318611399565b60405161032591906117ce565b60405180910390f35b6103486004803603810190610343919061176f565b6113a5565b6040516103559190611e40565b60405180910390f35b5f8260405161036d9190611e9a565b90815260200160405180910390206005015f9054906101000a900460ff166103ca576040517f08c379a00000000000000000000000000000000000000000000000000000000081526004016103c190611efa565b60405180910390fd5b60035f3373ffffffffffffffffffffffffffffffffffffffff1673ffffffffffffffffffffffffffffffffffffffff1681526020019081526020015f20826040516104159190611e9a565b90815260200160405180910390205f9054906101000a900460ff1615610470576040517f08c379a000000000000000000000000000000000000000000000000000000000815260040161046790611f62565b60405180910390fd5b5f60405180608001604052803373ffffffffffffffffffffffffffffffffffffffff16815260200184815260200142815260200183151581525090506001836040516104bc9190611e9a565b908152602001604051809103902081908060018154018082558091505060019003905f5260205f2090600402015f909190919091505f820151815f015f6101000a81548173ffffffffffffffffffffffffffffffffffffffff021916908373ffffffffffffffffffffffffffffffffffffffff160217905550602082015181600101908161054a919061217d565b50604082015181600201556060820151816003015f6101000a81548160ff0219169083151502179055505050600160035f3373ffffffffffffffffffffffffffffffffffffffff1673ffffffffffffffffffffffffffffffffffffffff1681526020019081526020015f20846040516105c39190611e9a565b90815260200160405180910390205f6101000a81548160ff0219169083151502179055508115610623575f836040516105fc9190611e9a565b90815260200160405180910390206004015f81548092919061061d90612279565b91905055505b3373ffffffffffffffffffffffffffffffffffffffff16836040516106489190611e9a565b60405180910390207f198e3ed8d34bb0748a994aa3dec83be23391b16a3539119f912746564bd3553384426040516106819291906122c0565b60405180910390a3505050565b5f5f8260405161069e9190611e9a565b90815260200160405180910390206005015f9054906101000a900460ff166106fb576040517f08c379a00000000000000000000000000000000000000000000000000000000081526004016106f290611efa565b60405180910390fd5b5f8260405161070a9190611e9a565b9081526020016040518091039020600401549050919050565b6002602052815f5260405f20818154811061073c575f80fd5b905f5260205f20015f9150915050805461075590611fad565b80601f016020809104026020016040519081016040528092919081815260200182805461078190611fad565b80156107cc5780601f106107a3576101008083540402835291602001916107cc565b820191905f5260205f20905b8154815290600101906020018083116107af57829003601f168201915b505050505081565b600481815481106107e3575f80fd5b905f5260205f20015f9150905080546107fb90611fad565b80601f016020809104026020016040519081016040528092919081815260200182805461082790611fad565b80156108725780601f1061084957610100808354040283529160200191610872565b820191905f5260205f20905b81548152906001019060200180831161085557829003601f168201915b505050505081565b606060025f8373ffffffffffffffffffffffffffffffffffffffff1673ffffffffffffffffffffffffffffffffffffffff1681526020019081526020015f20805480602002602001604051908101604052809291908181526020015f905b82821015610980578382905f5260205f200180546108f590611fad565b80601f016020809104026020016040519081016040528092919081815260200182805461092190611fad565b801561096c5780601f106109435761010080835404028352916020019161096c565b820191905f5260205f20905b81548152906001019060200180831161094f57829003601f168201915b5050505050815260200190600101906108d8565b505050509050919050565b5f60035f8473ffffffffffffffffffffffffffffffffffffffff1673ffffffffffffffffffffffffffffffffffffffff1681526020019081526020015f20826040516109d79190611e9a565b90815260200160405180910390205f9054906101000a900460ff16905092915050565b6060805f5f5f5f5f5f88604051610a119190611e9a565b90815260200160405180910390206040518060c00160405290815f82018054610a3990611fad565b80601f0160208091040260200160405190810160405280929190818152602001828054610a6590611fad565b8015610ab05780601f10610a8757610100808354040283529160200191610ab0565b820191905f5260205f20905b815481529060010190602001808311610a9357829003601f168201915b50505050508152602001600182018054610ac990611fad565b80601f0160208091040260200160405190810160405280929190818152602001828054610af590611fad565b8015610b405780601f10610b1757610100808354040283529160200191610b40565b820191905f5260205f20905b815481529060010190602001808311610b2357829003601f168201915b50505050508152602001600282015f9054906101000a900473ffffffffffffffffffffffffffffffffffffffff1673ffffffffffffffffffffffffffffffffffffffff1673ffffffffffffffffffffffffffffffffffffffff1681526020016003820154815260200160048201548152602001600582015f9054906101000a900460ff1615151515815250509050805f015181602001518260400151836060015184608001518560a001519650965096509650965096505091939550919395565b6001828051602081018201805184825260208301602085012081835280955050505050508181548110610c32575f80fd5b905f5260205f2090600402015f9150915050805f015f9054906101000a900473ffffffffffffffffffffffffffffffffffffffff1690806001018054610c7790611fad565b80601f0160208091040260200160405190810160405280929190818152602001828054610ca390611fad565b8015610cee5780601f10610cc557610100808354040283529160200191610cee565b820191905f5260205f20905b815481529060010190602001808311610cd157829003601f168201915b505050505090806002015490806003015f9054906101000a900460ff16905084565b5f825111610d53576040517f08c379a0000000000000000000000000000000000000000000000000000000008152600401610d4a90612331565b60405180910390fd5b5f815111610d96576040517f08c379a0000000000000000000000000000000000000000000000000000000008152600401610d8d90612399565b60405180910390fd5b5f82604051610da59190611e9a565b90815260200160405180910390206005015f9054906101000a900460ff1615610e03576040517f08c379a0000000000000000000000000000000000000000000000000000000008152600401610dfa90612401565b60405180910390fd5b6040518060c001604052808381526020018281526020013373ffffffffffffffffffffffffffffffffffffffff1681526020014281526020015f8152602001600115158152505f83604051610e589190611e9a565b90815260200160405180910390205f820151815f019081610e79919061217d565b506020820151816001019081610e8f919061217d565b506040820151816002015f6101000a81548173ffffffffffffffffffffffffffffffffffffffff021916908373ffffffffffffffffffffffffffffffffffffffff160217905550606082015181600301556080820151816004015560a0820151816005015f6101000a81548160ff021916908315150217905550905050600482908060018154018082558091505060019003905f5260205f20015f909190919091509081610f3d919061217d565b5060025f3373ffffffffffffffffffffffffffffffffffffffff1673ffffffffffffffffffffffffffffffffffffffff1681526020019081526020015f2082908060018154018082558091505060019003905f5260205f20015f909190919091509081610faa919061217d565b503373ffffffffffffffffffffffffffffffffffffffff1682604051610fd09190611e9a565b60405180910390207f8d9e646b7be50523dbf45d232dea79bf57ed2ea290147f46d64d74918bcce742834260405161100992919061241f565b60405180910390a35050565b6060600480549050831061105e576040517f08c379a000000000000000000000000000000000000000000000000000000000815260040161105590612497565b60405180910390fd5b5f828461106b91906124b5565b90506004805490508111156110835760048054905090505b5f848261109091906124e8565b67ffffffffffffffff8111156110a9576110a86115bc565b5b6040519080825280602002602001820160405280156110dc57816020015b60608152602001906001900390816110c75790505b5090505f8590505b828110156111c55760048181548110611100576110ff61251b565b5b905f5260205f2001805461111390611fad565b80601f016020809104026020016040519081016040528092919081815260200182805461113f90611fad565b801561118a5780601f106111615761010080835404028352916020019161118a565b820191905f5260205f20905b81548152906001019060200180831161116d57829003601f168201915b505050505082878361119c91906124e8565b815181106111ad576111ac61251b565b5b602002602001018190525080806001019150506110e4565b50809250505092915050565b6003602052815f5260405f20818051602081018201805184825260208301602085012081835280955050505050505f915091509054906101000a900460ff1681565b5f818051602081018201805184825260208301602085012081835280955050505050505f91509050805f01805461124990611fad565b80601f016020809104026020016040519081016040528092919081815260200182805461127590611fad565b80156112c05780601f10611297576101008083540402835291602001916112c0565b820191905f5260205f20905b8154815290600101906020018083116112a357829003601f168201915b5050505050908060010180546112d590611fad565b80601f016020809104026020016040519081016040528092919081815260200182805461130190611fad565b801561134c5780601f106113235761010080835404028352916020019161134c565b820191905f5260205f20905b81548152906001019060200180831161132f57829003601f168201915b505050505090806002015f9054906101000a900473ffffffffffffffffffffffffffffffffffffffff1690806003015490806004015490806005015f9054906101000a900460ff16905086565b5f600480549050905090565b60605f826040516113b69190611e9a565b90815260200160405180910390206005015f9054906101000a900460ff16611413576040517f08c379a000000000000000000000000000000000000000000000000000000000815260040161140a90611efa565b60405180910390fd5b6001826040516114239190611e9a565b9081526020016040518091039020805480602002602001604051908101604052809291908181526020015f905b82821015611588578382905f5260205f2090600402016040518060800160405290815f82015f9054906101000a900473ffffffffffffffffffffffffffffffffffffffff1673ffffffffffffffffffffffffffffffffffffffff1673ffffffffffffffffffffffffffffffffffffffff1681526020016001820180546114d590611fad565b80601f016020809104026020016040519081016040528092919081815260200182805461150190611fad565b801561154c5780601f106115235761010080835404028352916020019161154c565b820191905f5260205f20905b81548152906001019060200180831161152f57829003601f168201915b5050505050815260200160028201548152602001600382015f9054906101000a900460ff16151515158152505081526020019060010190611450565b505050509050919050565b5f604051905090565b5f5ffd5b5f5ffd5b5f5ffd5b5f5ffd5b5f601f19601f8301169050919050565b7f4e487b71000000000000000000000000000000000000000000000000000000005f52604160045260245ffd5b6115f2826115ac565b810181811067ffffffffffffffff82111715611611576116106115bc565b5b80604052505050565b5f611623611593565b905061162f82826115e9565b919050565b5f67ffffffffffffffff82111561164e5761164d6115bc565b5b611657826115ac565b9050602081019050919050565b828183375f83830152505050565b5f61168461167f84611634565b61161a565b9050828152602081018484840111156116a05761169f6115a8565b5b6116ab848285611664565b509392505050565b5f82601f8301126116c7576116c66115a4565b5b81356116d7848260208601611672565b91505092915050565b5f8115159050919050565b6116f4816116e0565b81146116fe575f5ffd5b50565b5f8135905061170f816116eb565b92915050565b5f5f6040838503121561172b5761172a61159c565b5b5f83013567ffffffffffffffff811115611748576117476115a0565b5b611754858286016116b3565b925050602061176585828601611701565b9150509250929050565b5f602082840312156117845761178361159c565b5b5f82013567ffffffffffffffff8111156117a1576117a06115a0565b5b6117ad848285016116b3565b91505092915050565b5f819050919050565b6117c8816117b6565b82525050565b5f6020820190506117e15f8301846117bf565b92915050565b5f73ffffffffffffffffffffffffffffffffffffffff82169050919050565b5f611810826117e7565b9050919050565b61182081611806565b811461182a575f5ffd5b50565b5f8135905061183b81611817565b92915050565b61184a816117b6565b8114611854575f5ffd5b50565b5f8135905061186581611841565b92915050565b5f5f604083850312156118815761188061159c565b5b5f61188e8582860161182d565b925050602061189f85828601611857565b9150509250929050565b5f81519050919050565b5f82825260208201905092915050565b8281835e5f83830152505050565b5f6118db826118a9565b6118e581856118b3565b93506118f58185602086016118c3565b6118fe816115ac565b840191505092915050565b5f6020820190508181035f83015261192181846118d1565b905092915050565b5f6020828403121561193e5761193d61159c565b5b5f61194b84828501611857565b91505092915050565b5f602082840312156119695761196861159c565b5b5f6119768482850161182d565b91505092915050565b5f81519050919050565b5f82825260208201905092915050565b5f819050602082019050919050565b5f82825260208201905092915050565b5f6119c2826118a9565b6119cc81856119a8565b93506119dc8185602086016118c3565b6119e5816115ac565b840191505092915050565b5f6119fb83836119b8565b905092915050565b5f602082019050919050565b5f611a198261197f565b611a238185611989565b935083602082028501611a3585611999565b805f5b85811015611a705784840389528151611a5185826119f0565b9450611a5c83611a03565b925060208a01995050600181019050611a38565b50829750879550505050505092915050565b5f6020820190508181035f830152611a9a8184611a0f565b905092915050565b5f5f60408385031215611ab857611ab761159c565b5b5f611ac58582860161182d565b925050602083013567ffffffffffffffff811115611ae657611ae56115a0565b5b611af2858286016116b3565b9150509250929050565b611b05816116e0565b82525050565b5f602082019050611b1e5f830184611afc565b92915050565b611b2d81611806565b82525050565b5f60c0820190508181035f830152611b4b81896118d1565b90508181036020830152611b5f81886118d1565b9050611b6e6040830187611b24565b611b7b60608301866117bf565b611b8860808301856117bf565b611b9560a0830184611afc565b979650505050505050565b5f5f60408385031215611bb657611bb561159c565b5b5f83013567ffffffffffffffff811115611bd357611bd26115a0565b5b611bdf858286016116b3565b9250506020611bf085828601611857565b9150509250929050565b5f608082019050611c0d5f830187611b24565b8181036020830152611c1f81866118d1565b9050611c2e60408301856117bf565b611c3b6060830184611afc565b95945050505050565b5f5f60408385031215611c5a57611c5961159c565b5b5f83013567ffffffffffffffff811115611c7757611c766115a0565b5b611c83858286016116b3565b925050602083013567ffffffffffffffff811115611ca457611ca36115a0565b5b611cb0858286016116b3565b9150509250929050565b5f5f60408385031215611cd057611ccf61159c565b5b5f611cdd85828601611857565b9250506020611cee85828601611857565b9150509250929050565b5f81519050919050565b5f82825260208201905092915050565b5f819050602082019050919050565b611d2a81611806565b82525050565b611d39816117b6565b82525050565b611d48816116e0565b82525050565b5f608083015f830151611d635f860182611d21565b5060208301518482036020860152611d7b82826119b8565b9150506040830151611d906040860182611d30565b506060830151611da36060860182611d3f565b508091505092915050565b5f611db98383611d4e565b905092915050565b5f602082019050919050565b5f611dd782611cf8565b611de18185611d02565b935083602082028501611df385611d12565b805f5b85811015611e2e5784840389528151611e0f8582611dae565b9450611e1a83611dc1565b925060208a01995050600181019050611df6565b50829750879550505050505092915050565b5f6020820190508181035f830152611e588184611dcd565b905092915050565b5f81905092915050565b5f611e74826118a9565b611e7e8185611e60565b9350611e8e8185602086016118c3565b80840191505092915050565b5f611ea58284611e6a565b915081905092915050565b7f497373756520646f6573206e6f742065786973740000000000000000000000005f82015250565b5f611ee46014836118b3565b9150611eef82611eb0565b602082019050919050565b5f6020820190508181035f830152611f1181611ed8565b9050919050565b7f416c726561647920766f746564206f6e207468697320697373756500000000005f82015250565b5f611f4c601b836118b3565b9150611f5782611f18565b602082019050919050565b5f6020820190508181035f830152611f7981611f40565b9050919050565b7f4e487b71000000000000000000000000000000000000000000000000000000005f52602260045260245ffd5b5f6002820490506001821680611fc457607f821691505b602082108103611fd757611fd6611f80565b5b50919050565b5f819050815f5260205f209050919050565b5f6020601f8301049050919050565b5f82821b905092915050565b5f600883026120397fffffffffffffffffffffffffffffffffffffffffffffffffffffffffffffffff82611ffe565b6120438683611ffe565b95508019841693508086168417925050509392505050565b5f819050919050565b5f61207e612079612074846117b6565b61205b565b6117b6565b9050919050565b5f819050919050565b61209783612064565b6120ab6120a382612085565b84845461200a565b825550505050565b5f5f905090565b6120c26120b3565b6120cd81848461208e565b505050565b5b818110156120f0576120e55f826120ba565b6001810190506120d3565b5050565b601f8211156121355761210681611fdd565b61210f84611fef565b8101602085101561211e578190505b61213261212a85611fef565b8301826120d2565b50505b505050565b5f82821c905092915050565b5f6121555f198460080261213a565b1980831691505092915050565b5f61216d8383612146565b9150826002028217905092915050565b612186826118a9565b67ffffffffffffffff81111561219f5761219e6115bc565b5b6121a98254611fad565b6121b48282856120f4565b5f60209050601f8311600181146121e5575f84156121d3578287015190505b6121dd8582612162565b865550612244565b601f1984166121f386611fdd565b5f5b8281101561221a578489015182556001820191506020850194506020810190506121f5565b868310156122375784890151612233601f891682612146565b8355505b6001600288020188555050505b505050505050565b7f4e487b71000000000000000000000000000000000000000000000000000000005f52601160045260245ffd5b5f612283826117b6565b91507fffffffffffffffffffffffffffffffffffffffffffffffffffffffffffffffff82036122b5576122b461224c565b5b600182019050919050565b5f6040820190506122d35f830185611afc565b6122e060208301846117bf565b9392505050565b7f49737375652049442063616e6e6f7420626520656d70747900000000000000005f82015250565b5f61231b6018836118b3565b9150612326826122e7565b602082019050919050565b5f6020820190508181035f8301526123488161230f565b9050919050565b7f5469746c652063616e6e6f7420626520656d70747900000000000000000000005f82015250565b5f6123836015836118b3565b915061238e8261234f565b602082019050919050565b5f6020820190508181035f8301526123b081612377565b9050919050565b7f497373756520616c7265616479207265636f72646564000000000000000000005f82015250565b5f6123eb6016836118b3565b91506123f6826123b7565b602082019050919050565b5f6020820190508181035f830152612418816123df565b9050919050565b5f6040820190508181035f83015261243781856118d1565b905061244660208301846117bf565b9392505050565b7f4f6666736574206f7574206f6620626f756e64730000000000000000000000005f82015250565b5f6124816014836118b3565b915061248c8261244d565b602082019050919050565b5f6020820190508181035f8301526124ae81612475565b9050919050565b5f6124bf826117b6565b91506124ca836117b6565b92508282019050808211156124e2576124e161224c565b5b92915050565b5f6124f2826117b6565b91506124fd836117b6565b92508282039050818111156125155761251461224c565b5b92915050565b7f4e487b71000000000000000000000000000000000000000000000000000000005f52603260045260245ffdfea26469706673582212207c4c533dfdf47bb6691d8afe69f034d8e31dc408f1fb2e76a6af60307e92520c64736f6c634300081f0033",
		"opcodes": "PUSH1 0x80 PUSH1 0x40 MSTORE CALLVALUE DUP1 ISZERO PUSH2 0xF JUMPI PUSH0 PUSH0 REVERT JUMPDEST POP PUSH1 0x4 CALLDATASIZE LT PUSH2 0xE7 JUMPI PUSH0 CALLDATALOAD PUSH1 0xE0 SHR DUP1 PUSH4 0x89376869 GT PUSH2 0x8A JUMPI DUP1 PUSH4 0xC6847060 GT PUSH2 0x64 JUMPI DUP1 PUSH4 0xC6847060 EQ PUSH2 0x2AB JUMPI DUP1 PUSH4 0xE38BA436 EQ PUSH2 0x2DB JUMPI DUP1 PUSH4 0xF62EF4B6 EQ PUSH2 0x310 JUMPI DUP1 PUSH4 0xF81E08C6 EQ PUSH2 0x32E JUMPI PUSH2 0xE7 JUMP JUMPDEST DUP1 PUSH4 0x89376869 EQ PUSH2 0x22C JUMPI DUP1 PUSH4 0x9C667C7D EQ PUSH2 0x25F JUMPI DUP1 PUSH4 0x9EBD2677 EQ PUSH2 0x27B JUMPI PUSH2 0xE7 JUMP JUMPDEST DUP1 PUSH4 0x31F4FFF0 GT PUSH2 0xC6 JUMPI DUP1 PUSH4 0x31F4FFF0 EQ PUSH2 0x167 JUMPI DUP1 PUSH4 0x3535CA9A EQ PUSH2 0x197 JUMPI DUP1 PUSH4 0x4B098976 EQ PUSH2 0x1C7 JUMPI DUP1 PUSH4 0x814A1096 EQ PUSH2 0x1F7 JUMPI PUSH2 0xE7 JUMP JUMPDEST DUP1 PUSH3 0xF2EAC2 EQ PUSH2 0xEB JUMPI DUP1 PUSH4 0x69953A7 EQ PUSH2 0x107 JUMPI DUP1 PUSH4 0x287DE362 EQ PUSH2 0x137 JUMPI JUMPDEST PUSH0 PUSH0 REVERT JUMPDEST PUSH2 0x105 PUSH1 0x4 DUP1 CALLDATASIZE SUB DUP2 ADD SWAP1 PUSH2 0x100 SWAP2 SWAP1 PUSH2 0x1715 JUMP JUMPDEST PUSH2 0x35E JUMP JUMPDEST STOP JUMPDEST PUSH2 0x121 PUSH1 0x4 DUP1 CALLDATASIZE SUB DUP2 ADD SWAP1 PUSH2 0x11C SWAP2 SWAP1 PUSH2 0x176F JUMP JUMPDEST PUSH2 0x68E JUMP JUMPDEST PUSH1 0x40 MLOAD PUSH2 0x12E SWAP2 SWAP1 PUSH2 0x17CE JUMP JUMPDEST PUSH1 0x40 MLOAD DUP1 SWAP2 SUB SWAP1 RETURN JUMPDEST PUSH2 0x151 PUSH1 0x4 DUP1 CALLDATASIZE SUB DUP2 ADD SWAP1 PUSH2 0x14C SWAP2 SWAP1 PUSH2 0x186B JUMP JUMPDEST PUSH2 0x723 JUMP JUMPDEST PUSH1 0x40 MLOAD PUSH2 0x15E SWAP2 SWAP1 PUSH2 0x1909 JUMP JUMPDEST PUSH1 0x40 MLOAD DUP1 SWAP2 SUB SWAP1 RETURN JUMPDEST PUSH2 0x181 PUSH1 0x4 DUP1 CALLDATASIZE SUB DUP2 ADD SWAP1 PUSH2 0x17C SWAP2 SWAP1 PUSH2 0x1929 JUMP JUMPDEST PUSH2 0x7D4 JUMP JUMPDEST PUSH1 0x40 MLOAD PUSH2 0x18E SWAP2 SWAP1 PUSH2 0x1909 JUMP JUMPDEST PUSH1 0x40 MLOAD DUP1 SWAP2 SUB SWAP1 RETURN JUMPDEST PUSH2 0x1B1 PUSH1 0x4 DUP1 CALLDATASIZE SUB DUP2 ADD SWAP1 PUSH2 0x1AC SWAP2 SWAP1 PUSH2 0x1954 JUMP JUMPDEST PUSH2 0x87A JUMP JUMPDEST PUSH1 0x40 MLOAD PUSH2 0x1BE SWAP2 SWAP1 PUSH2 0x1A82 JUMP JUMPDEST PUSH1 0x40 MLOAD DUP1 SWAP2 SUB SWAP1 RETURN JUMPDEST PUSH2 0x1E1 PUSH1 0x4 DUP1 CALLDATASIZE SUB DUP2 ADD SWAP1 PUSH2 0x1DC SWAP2 SWAP1 PUSH2 0x1AA2 JUMP JUMPDEST PUSH2 0x98B JUMP JUMPDEST PUSH1 0x40 MLOAD PUSH2 0x1EE SWAP2 SWAP1 PUSH2 0x1B0B JUMP JUMPDEST PUSH1 0x40 MLOAD DUP1 SWAP2 SUB SWAP1 RETURN JUMPDEST PUSH2 0x211 PUSH1 0x4 DUP1 CALLDATASIZE SUB DUP2 ADD SWAP1 PUSH2 0x20C SWAP2 SWAP1 PUSH2 0x176F JUMP JUMPDEST PUSH2 0x9FA JUMP JUMPDEST PUSH1 0x40 MLOAD PUSH2 0x223 SWAP7 SWAP6 SWAP5 SWAP4 SWAP3 SWAP2 SWAP1 PUSH2 0x1B33 JUMP JUMPDEST PUSH1 0x40 MLOAD DUP1 SWAP2 SUB SWAP1 RETURN JUMPDEST PUSH2 0x246 PUSH1 0x4 DUP1 CALLDATASIZE SUB DUP2 ADD SWAP1 PUSH2 0x241 SWAP2 SWAP1 PUSH2 0x1BA0 JUMP JUMPDEST PUSH2 0xC01 JUMP JUMPDEST PUSH1 0x40 MLOAD PUSH2 0x256 SWAP5 SWAP4 SWAP3 SWAP2 SWAP1 PUSH2 0x1BFA JUMP JUMPDEST PUSH1 0x40 MLOAD DUP1 SWAP2 SUB SWAP1 RETURN JUMPDEST PUSH2 0x279 PUSH1 0x4 DUP1 CALLDATASIZE SUB DUP2 ADD SWAP1 PUSH2 0x274 SWAP2 SWAP1 PUSH2 0x1C44 JUMP JUMPDEST PUSH2 0xD10 JUMP JUMPDEST STOP JUMPDEST PUSH2 0x295 PUSH1 0x4 DUP1 CALLDATASIZE SUB DUP2 ADD SWAP1 PUSH2 0x290 SWAP2 SWAP1 PUSH2 0x1CBA JUMP JUMPDEST PUSH2 0x1015 JUMP JUMPDEST PUSH1 0x40 MLOAD PUSH2 0x2A2 SWAP2 SWAP1 PUSH2 0x1A82 JUMP JUMPDEST PUSH1 0x40 MLOAD DUP1 SWAP2 SUB SWAP1 RETURN JUMPDEST PUSH2 0x2C5 PUSH1 0x4 DUP1 CALLDATASIZE SUB DUP2 ADD SWAP1 PUSH2 0x2C0 SWAP2 SWAP1 PUSH2 0x1AA2 JUMP JUMPDEST PUSH2 0x11D1 JUMP JUMPDEST PUSH1 0x40 MLOAD PUSH2 0x2D2 SWAP2 SWAP1 PUSH2 0x1B0B JUMP JUMPDEST PUSH1 0x40 MLOAD DUP1 SWAP2 SUB SWAP1 RETURN JUMPDEST PUSH2 0x2F5 PUSH1 0x4 DUP1 CALLDATASIZE SUB DUP2 ADD SWAP1 PUSH2 0x2F0 SWAP2 SWAP1 PUSH2 0x176F JUMP JUMPDEST PUSH2 0x1213 JUMP JUMPDEST PUSH1 0x40 MLOAD PUSH2 0x307 SWAP7 SWAP6 SWAP5 SWAP4 SWAP3 SWAP2 SWAP1 PUSH2 0x1B33 JUMP JUMPDEST PUSH1 0x40 MLOAD DUP1 SWAP2 SUB SWAP1 RETURN JUMPDEST PUSH2 0x318 PUSH2 0x1399 JUMP JUMPDEST PUSH1 0x40 MLOAD PUSH2 0x325 SWAP2 SWAP1 PUSH2 0x17CE JUMP JUMPDEST PUSH1 0x40 MLOAD DUP1 SWAP2 SUB SWAP1 RETURN JUMPDEST PUSH2 0x348 PUSH1 0x4 DUP1 CALLDATASIZE SUB DUP2 ADD SWAP1 PUSH2 0x343 SWAP2 SWAP1 PUSH2 0x176F JUMP JUMPDEST PUSH2 0x13A5 JUMP JUMPDEST PUSH1 0x40 MLOAD PUSH2 0x355 SWAP2 SWAP1 PUSH2 0x1E40 JUMP JUMPDEST PUSH1 0x40 MLOAD DUP1 SWAP2 SUB SWAP1 RETURN JUMPDEST PUSH0 DUP3 PUSH1 0x40 MLOAD PUSH2 0x36D SWAP2 SWAP1 PUSH2 0x1E9A JUMP JUMPDEST SWAP1 DUP2 MSTORE PUSH1 0x20 ADD PUSH1 0x40 MLOAD DUP1 SWAP2 SUB SWAP1 KECCAK256 PUSH1 0x5 ADD PUSH0 SWAP1 SLOAD SWAP1 PUSH2 0x100 EXP SWAP1 DIV PUSH1 0xFF AND PUSH2 0x3CA JUMPI PUSH1 0x40 MLOAD PUSH32 0x8C379A000000000000000000000000000000000000000000000000000000000 DUP2 MSTORE PUSH1 0x4 ADD PUSH2 0x3C1 SWAP1 PUSH2 0x1EFA JUMP JUMPDEST PUSH1 0x40 MLOAD DUP1 SWAP2 SUB SWAP1 REVERT JUMPDEST PUSH1 0x3 PUSH0 CALLER PUSH20 0xFFFFFFFFFFFFFFFFFFFFFFFFFFFFFFFFFFFFFFFF AND PUSH20 0xFFFFFFFFFFFFFFFFFFFFFFFFFFFFFFFFFFFFFFFF AND DUP2 MSTORE PUSH1 0x20 ADD SWAP1 DUP2 MSTORE PUSH1 0x20 ADD PUSH0 KECCAK256 DUP3 PUSH1 0x40 MLOAD PUSH2 0x415 SWAP2 SWAP1 PUSH2 0x1E9A JUMP JUMPDEST SWAP1 DUP2 MSTORE PUSH1 0x20 ADD PUSH1 0x40 MLOAD DUP1 SWAP2 SUB SWAP1 KECCAK256 PUSH0 SWAP1 SLOAD SWAP1 PUSH2 0x100 EXP SWAP1 DIV PUSH1 0xFF AND ISZERO PUSH2 0x470 JUMPI PUSH1 0x40 MLOAD PUSH32 0x8C379A000000000000000000000000000000000000000000000000000000000 DUP2 MSTORE PUSH1 0x4 ADD PUSH2 0x467 SWAP1 PUSH2 0x1F62 JUMP JUMPDEST PUSH1 0x40 MLOAD DUP1 SWAP2 SUB SWAP1 REVERT JUMPDEST PUSH0 PUSH1 0x40 MLOAD DUP1 PUSH1 0x80 ADD PUSH1 0x40 MSTORE DUP1 CALLER PUSH20 0xFFFFFFFFFFFFFFFFFFFFFFFFFFFFFFFFFFFFFFFF AND DUP2 MSTORE PUSH1 0x20 ADD DUP5 DUP2 MSTORE PUSH1 0x20 ADD TIMESTAMP DUP2 MSTORE PUSH1 0x20 ADD DUP4 ISZERO ISZERO DUP2 MSTORE POP SWAP1 POP PUSH1 0x1 DUP4 PUSH1 0x40 MLOAD PUSH2 0x4BC SWAP2 SWAP1 PUSH2 0x1E9A JUMP JUMPDEST SWAP1 DUP2 MSTORE PUSH1 0x20 ADD PUSH1 0x40 MLOAD DUP1 SWAP2 SUB SWAP1 KECCAK256 DUP2 SWAP1 DUP1 PUSH1 0x1 DUP2 SLOAD ADD DUP1 DUP3 SSTORE DUP1 SWAP2 POP POP PUSH1 0x1 SWAP1 SUB SWAP1 PUSH0 MSTORE PUSH1 0x20 PUSH0 KECCAK256 SWAP1 PUSH1 0x4 MUL ADD PUSH0 SWAP1 SWAP2 SWAP1 SWAP2 SWAP1 SWAP2 POP PUSH0 DUP3 ADD MLOAD DUP2 PUSH0 ADD PUSH0 PUSH2 0x100 EXP DUP2 SLOAD DUP2 PUSH20 0xFFFFFFFFFFFFFFFFFFFFFFFFFFFFFFFFFFFFFFFF MUL NOT AND SWAP1 DUP4 PUSH20 0xFFFFFFFFFFFFFFFFFFFFFFFFFFFFFFFFFFFFFFFF AND MUL OR SWAP1 SSTORE POP PUSH1 0x20 DUP3 ADD MLOAD DUP2 PUSH1 0x1 ADD SWAP1 DUP2 PUSH2 0x54A SWAP2 SWAP1 PUSH2 0x217D JUMP JUMPDEST POP PUSH1 0x40 DUP3 ADD MLOAD DUP2 PUSH1 0x2 ADD SSTORE PUSH1 0x60 DUP3 ADD MLOAD DUP2 PUSH1 0x3 ADD PUSH0 PUSH2 0x100 EXP DUP2 SLOAD DUP2 PUSH1 0xFF MUL NOT AND SWAP1 DUP4 ISZERO ISZERO MUL OR SWAP1 SSTORE POP POP POP PUSH1 0x1 PUSH1 0x3 PUSH0 CALLER PUSH20 0xFFFFFFFFFFFFFFFFFFFFFFFFFFFFFFFFFFFFFFFF AND PUSH20 0xFFFFFFFFFFFFFFFFFFFFFFFFFFFFFFFFFFFFFFFF AND DUP2 MSTORE PUSH1 0x20 ADD SWAP1 DUP2 MSTORE PUSH1 0x20 ADD PUSH0 KECCAK256 DUP5 PUSH1 0x40 MLOAD PUSH2 0x5C3 SWAP2 SWAP1 PUSH2 0x1E9A JUMP JUMPDEST SWAP1 DUP2 MSTORE PUSH1 0x20 ADD PUSH1 0x40 MLOAD DUP1 SWAP2 SUB SWAP1 KECCAK256 PUSH0 PUSH2 0x100 EXP DUP2 SLOAD DUP2 PUSH1 0xFF MUL NOT AND SWAP1 DUP4 ISZERO ISZERO MUL OR SWAP1 SSTORE POP DUP2 ISZERO PUSH2 0x623 JUMPI PUSH0 DUP4 PUSH1 0x40 MLOAD PUSH2 0x5FC SWAP2 SWAP1 PUSH2 0x1E9A JUMP JUMPDEST SWAP1 DUP2 MSTORE PUSH1 0x20 ADD PUSH1 0x40 MLOAD DUP1 SWAP2 SUB SWAP1 KECCAK256 PUSH1 0x4 ADD PUSH0 DUP2 SLOAD DUP1 SWAP3 SWAP2 SWAP1 PUSH2 0x61D SWAP1 PUSH2 0x2279 JUMP JUMPDEST SWAP2 SWAP1 POP SSTORE POP JUMPDEST CALLER PUSH20 0xFFFFFFFFFFFFFFFFFFFFFFFFFFFFFFFFFFFFFFFF AND DUP4 PUSH1 0x40 MLOAD PUSH2 0x648 SWAP2 SWAP1 PUSH2 0x1E9A JUMP JUMPDEST PUSH1 0x40 MLOAD DUP1 SWAP2 SUB SWAP1 KECCAK256 PUSH32 0x198E3ED8D34BB0748A994AA3DEC83BE23391B16A3539119F912746564BD35533 DUP5 TIMESTAMP PUSH1 0x40 MLOAD PUSH2 0x681 SWAP3 SWAP2 SWAP1 PUSH2 0x22C0 JUMP JUMPDEST PUSH1 0x40 MLOAD DUP1 SWAP2 SUB SWAP1 LOG3 POP POP POP JUMP JUMPDEST PUSH0 PUSH0 DUP3 PUSH1 0x40 MLOAD PUSH2 0x69E SWAP2 SWAP1 PUSH2 0x1E9A JUMP JUMPDEST SWAP1 DUP2 MSTORE PUSH1 0x20 ADD PUSH1 0x40 MLOAD DUP1 SWAP2 SUB SWAP1 KECCAK256 PUSH1 0x5 ADD PUSH0 SWAP1 SLOAD SWAP1 PUSH2 0x100 EXP SWAP1 DIV PUSH1 0xFF AND PUSH2 0x6FB JUMPI PUSH1 0x40 MLOAD PUSH32 0x8C379A000000000000000000000000000000000000000000000000000000000 DUP2 MSTORE PUSH1 0x4 ADD PUSH2 0x6F2 SWAP1 PUSH2 0x1EFA JUMP JUMPDEST PUSH1 0x40 MLOAD DUP1 SWAP2 SUB SWAP1 REVERT JUMPDEST PUSH0 DUP3 PUSH1 0x40 MLOAD PUSH2 0x70A SWAP2 SWAP1 PUSH2 0x1E9A JUMP JUMPDEST SWAP1 DUP2 MSTORE PUSH1 0x20 ADD PUSH1 0x40 MLOAD DUP1 SWAP2 SUB SWAP1 KECCAK256 PUSH1 0x4 ADD SLOAD SWAP1 POP SWAP2 SWAP1 POP JUMP JUMPDEST PUSH1 0x2 PUSH1 0x20 MSTORE DUP2 PUSH0 MSTORE PUSH1 0x40 PUSH0 KECCAK256 DUP2 DUP2 SLOAD DUP2 LT PUSH2 0x73C JUMPI PUSH0 DUP1 REVERT JUMPDEST SWAP1 PUSH0 MSTORE PUSH1 0x20 PUSH0 KECCAK256 ADD PUSH0 SWAP2 POP SWAP2 POP POP DUP1 SLOAD PUSH2 0x755 SWAP1 PUSH2 0x1FAD JUMP JUMPDEST DUP1 PUSH1 0x1F ADD PUSH1 0x20 DUP1 SWAP2 DIV MUL PUSH1 0x20 ADD PUSH1 0x40 MLOAD SWAP1 DUP2 ADD PUSH1 0x40 MSTORE DUP1 SWAP3 SWAP2 SWAP1 DUP2 DUP2 MSTORE PUSH1 0x20 ADD DUP3 DUP1 SLOAD PUSH2 0x781 SWAP1 PUSH2 0x1FAD JUMP JUMPDEST DUP1 ISZERO PUSH2 0x7CC JUMPI DUP1 PUSH1 0x1F LT PUSH2 0x7A3 JUMPI PUSH2 0x100 DUP1 DUP4 SLOAD DIV MUL DUP4 MSTORE SWAP2 PUSH1 0x20 ADD SWAP2 PUSH2 0x7CC JUMP JUMPDEST DUP3 ADD SWAP2 SWAP1 PUSH0 MSTORE PUSH1 0x20 PUSH0 KECCAK256 SWAP1 JUMPDEST DUP2 SLOAD DUP2 MSTORE SWAP1 PUSH1 0x1 ADD SWAP1 PUSH1 0x20 ADD DUP1 DUP4 GT PUSH2 0x7AF JUMPI DUP3 SWAP1 SUB PUSH1 0x1F AND DUP3 ADD SWAP2 JUMPDEST POP POP POP POP POP DUP2 JUMP JUMPDEST PUSH1 0x4 DUP2 DUP2 SLOAD DUP2 LT PUSH2 0x7E3 JUMPI PUSH0 DUP1 REVERT JUMPDEST SWAP1 PUSH0 MSTORE PUSH1 0x20 PUSH0 KECCAK256 ADD PUSH0 SWAP2 POP SWAP1 POP DUP1 SLOAD PUSH2 0x7FB SWAP1 PUSH2 0x1FAD JUMP JUMPDEST DUP1 PUSH1 0x1F ADD PUSH1 0x20 DUP1 SWAP2 DIV MUL PUSH1 0x20 ADD PUSH1 0x40 MLOAD SWAP1 DUP2 ADD PUSH1 0x40 MSTORE DUP1 SWAP3 SWAP2 SWAP1 DUP2 DUP2 MSTORE PUSH1 0x20 ADD DUP3 DUP1 SLOAD PUSH2 0x827 SWAP1 PUSH2 0x1FAD JUMP JUMPDEST DUP1 ISZERO PUSH2 0x872 JUMPI DUP1 PUSH1 0x1F LT PUSH2 0x849 JUMPI PUSH2 0x100 DUP1 DUP4 SLOAD DIV MUL DUP4 MSTORE SWAP2 PUSH1 0x20 ADD SWAP2 PUSH2 0x872 JUMP JUMPDEST DUP3 ADD SWAP2 SWAP1 PUSH0 MSTORE PUSH1 0x20 PUSH0 KECCAK256 SWAP1 JUMPDEST DUP2 SLOAD DUP2 MSTORE SWAP1 PUSH1 0x1 ADD SWAP1 PUSH1 0x20 ADD DUP1 DUP4 GT PUSH2 0x855 JUMPI DUP3 SWAP1 SUB PUSH1 0x1F AND DUP3 ADD SWAP2 JUMPDEST POP POP POP POP POP DUP2 JUMP JUMPDEST PUSH1 0x60 PUSH1 0x2 PUSH0 DUP4 PUSH20 0xFFFFFFFFFFFFFFFFFFFFFFFFFFFFFFFFFFFFFFFF AND PUSH20 0xFFFFFFFFFFFFFFFFFFFFFFFFFFFFFFFFFFFFFFFF AND DUP2 MSTORE PUSH1 0x20 ADD SWAP1 DUP2 MSTORE PUSH1 0x20 ADD PUSH0 KECCAK256 DUP1 SLOAD DUP1 PUSH1 0x20 MUL PUSH1 0x20 ADD PUSH1 0x40 MLOAD SWAP1 DUP2 ADD PUSH1 0x40 MSTORE DUP1 SWAP3 SWAP2 SWAP1 DUP2 DUP2 MSTORE PUSH1 0x20 ADD PUSH0 SWAP1 JUMPDEST DUP3 DUP3 LT ISZERO PUSH2 0x980 JUMPI DUP4 DUP3 SWAP1 PUSH0 MSTORE PUSH1 0x20 PUSH0 KECCAK256 ADD DUP1 SLOAD PUSH2 0x8F5 SWAP1 PUSH2 0x1FAD JUMP JUMPDEST DUP1 PUSH1 0x1F ADD PUSH1 0x20 DUP1 SWAP2 DIV MUL PUSH1 0x20 ADD PUSH1 0x40 MLOAD SWAP1 DUP2 ADD PUSH1 0x40 MSTORE DUP1 SWAP3 SWAP2 SWAP1 DUP2 DUP2 MSTORE PUSH1 0x20 ADD DUP3 DUP1 SLOAD PUSH2 0x921 SWAP1 PUSH2 0x1FAD JUMP JUMPDEST DUP1 ISZERO PUSH2 0x96C JUMPI DUP1 PUSH1 0x1F LT PUSH2 0x943 JUMPI PUSH2 0x100 DUP1 DUP4 SLOAD DIV MUL DUP4 MSTORE SWAP2 PUSH1 0x20 ADD SWAP2 PUSH2 0x96C JUMP JUMPDEST DUP3 ADD SWAP2 SWAP1 PUSH0 MSTORE PUSH1 0x20 PUSH0 KECCAK256 SWAP1 JUMPDEST DUP2 SLOAD DUP2 MSTORE SWAP1 PUSH1 0x1 ADD SWAP1 PUSH1 0x20 ADD DUP1 DUP4 GT PUSH2 0x94F JUMPI DUP3 SWAP1 SUB PUSH1 0x1F AND DUP3 ADD SWAP2 JUMPDEST POP POP POP POP POP DUP2 MSTORE PUSH1 0x20 ADD SWAP1 PUSH1 0x1 ADD SWAP1 PUSH2 0x8D8 JUMP JUMPDEST POP POP POP POP SWAP1 POP SWAP2 SWAP1 POP JUMP JUMPDEST PUSH0 PUSH1 0x3 PUSH0 DUP5 PUSH20 0xFFFFFFFFFFFFFFFFFFFFFFFFFFFFFFFFFFFFFFFF AND PUSH20 0xFFFFFFFFFFFFFFFFFFFFFFFFFFFFFFFFFFFFFFFF AND DUP2 MSTORE PUSH1 0x20 ADD SWAP1 DUP2 MSTORE PUSH1 0x20 ADD PUSH0 KECCAK256 DUP3 PUSH1 0x40 MLOAD PUSH2 0x9D7 SWAP2 SWAP1 PUSH2 0x1E9A JUMP JUMPDEST SWAP1 DUP2 MSTORE PUSH1 0x20 ADD PUSH1 0x40 MLOAD DUP1 SWAP2 SUB SWAP1 KECCAK256 PUSH0 SWAP1 SLOAD SWAP1 PUSH2 0x100 EXP SWAP1 DIV PUSH1 0xFF AND SWAP1 POP SWAP3 SWAP2 POP POP JUMP JUMPDEST PUSH1 0x60 DUP1 PUSH0 PUSH0 PUSH0 PUSH0 PUSH0 PUSH0 DUP9 PUSH1 0x40 MLOAD PUSH2 0xA11 SWAP2 SWAP1 PUSH2 0x1E9A JUMP JUMPDEST SWAP1 DUP2 MSTORE PUSH1 0x20 ADD PUSH1 0x40 MLOAD DUP1 SWAP2 SUB SWAP1 KECCAK256 PUSH1 0x40 MLOAD DUP1 PUSH1 0xC0 ADD PUSH1 0x40 MSTORE SWAP1 DUP2 PUSH0 DUP3 ADD DUP1 SLOAD PUSH2 0xA39 SWAP1 PUSH2 0x1FAD JUMP JUMPDEST DUP1 PUSH1 0x1F ADD PUSH1 0x20 DUP1 SWAP2 DIV MUL PUSH1 0x20 ADD PUSH1 0x40 MLOAD SWAP1 DUP2 ADD PUSH1 0x40 MSTORE DUP1 SWAP3 SWAP2 SWAP1 DUP2 DUP2 MSTORE PUSH1 0x20 ADD DUP3 DUP1 SLOAD PUSH2 0xA65 SWAP1 PUSH2 0x1FAD JUMP JUMPDEST DUP1 ISZERO PUSH2 0xAB0 JUMPI DUP1 PUSH1 0x1F LT PUSH2 0xA87 JUMPI PUSH2 0x100 DUP1 DUP4 SLOAD DIV MUL DUP4 MSTORE SWAP2 PUSH1 0x20 ADD SWAP2 PUSH2 0xAB0 JUMP JUMPDEST DUP3 ADD SWAP2 SWAP1 PUSH0 MSTORE PUSH1 0x20 PUSH0 KECCAK256 SWAP1 JUMPDEST DUP2 SLOAD DUP2 MSTORE SWAP1 PUSH1 0x1 ADD SWAP1 PUSH1 0x20 ADD DUP1 DUP4 GT PUSH2 0xA93 JUMPI DUP3 SWAP1 SUB PUSH1 0x1F AND DUP3 ADD SWAP2 JUMPDEST POP POP POP POP POP DUP2 MSTORE PUSH1 0x20 ADD PUSH1 0x1 DUP3 ADD DUP1 SLOAD PUSH2 0xAC9 SWAP1 PUSH2 0x1FAD JUMP JUMPDEST DUP1 PUSH1 0x1F ADD PUSH1 0x20 DUP1 SWAP2 DIV MUL PUSH1 0x20 ADD PUSH1 0x40 MLOAD SWAP1 DUP2 ADD PUSH1 0x40 MSTORE DUP1 SWAP3 SWAP2 SWAP1 DUP2 DUP2 MSTORE PUSH1 0x20 ADD DUP3 DUP1 SLOAD PUSH2 0xAF5 SWAP1 PUSH2 0x1FAD JUMP JUMPDEST DUP1 ISZERO PUSH2 0xB40 JUMPI DUP1 PUSH1 0x1F LT PUSH2 0xB17 JUMPI PUSH2 0x100 DUP1 DUP4 SLOAD DIV MUL DUP4 MSTORE SWAP2 PUSH1 0x20 ADD SWAP2 PUSH2 0xB40 JUMP JUMPDEST DUP3 ADD SWAP2 SWAP1 PUSH0 MSTORE PUSH1 0x20 PUSH0 KECCAK256 SWAP1 JUMPDEST DUP2 SLOAD DUP2 MSTORE SWAP1 PUSH1 0x1 ADD SWAP1 PUSH1 0x20 ADD DUP1 DUP4 GT PUSH2 0xB23 JUMPI DUP3 SWAP1 SUB PUSH1 0x1F AND DUP3 ADD SWAP2 JUMPDEST POP POP POP POP POP DUP2 MSTORE PUSH1 0x20 ADD PUSH1 0x2 DUP3 ADD PUSH0 SWAP1 SLOAD SWAP1 PUSH2 0x100 EXP SWAP1 DIV PUSH20 0xFFFFFFFFFFFFFFFFFFFFFFFFFFFFFFFFFFFFFFFF AND PUSH20 0xFFFFFFFFFFFFFFFFFFFFFFFFFFFFFFFFFFFFFFFF AND PUSH20 0xFFFFFFFFFFFFFFFFFFFFFFFFFFFFFFFFFFFFFFFF AND DUP2 MSTORE PUSH1 0x20 ADD PUSH1 0x3 DUP3 ADD SLOAD DUP2 MSTORE PUSH1 0x20 ADD PUSH1 0x4 DUP3 ADD SLOAD DUP2 MSTORE PUSH1 0x20 ADD PUSH1 0x5 DUP3 ADD PUSH0 SWAP1 SLOAD SWAP1 PUSH2 0x100 EXP SWAP1 DIV PUSH1 0xFF AND ISZERO ISZERO ISZERO ISZERO DUP2 MSTORE POP POP SWAP1 POP DUP1 PUSH0 ADD MLOAD DUP2 PUSH1 0x20 ADD MLOAD DUP3 PUSH1 0x40 ADD MLOAD DUP4 PUSH1 0x60 ADD MLOAD DUP5 PUSH1 0x80 ADD MLOAD DUP6 PUSH1 0xA0 ADD MLOAD SWAP7 POP SWAP7 POP SWAP7 POP SWAP7 POP SWAP7 POP SWAP7 POP POP SWAP2 SWAP4 SWAP6 POP SWAP2 SWAP4 SWAP6 JUMP JUMPDEST PUSH1 0x1 DUP3 DUP1 MLOAD PUSH1 0x20 DUP2 ADD DUP3 ADD DUP1 MLOAD DUP5 DUP3 MSTORE PUSH1 0x20 DUP4 ADD PUSH1 0x20 DUP6 ADD KECCAK256 DUP2 DUP4 MSTORE DUP1 SWAP6 POP POP POP POP POP POP DUP2 DUP2 SLOAD DUP2 LT PUSH2 0xC32 JUMPI PUSH0 DUP1 REVERT JUMPDEST SWAP1 PUSH0 MSTORE PUSH1 0x20 PUSH0 KECCAK256 SWAP1 PUSH1 0x4 MUL ADD PUSH0 SWAP2 POP SWAP2 POP POP DUP1 PUSH0 ADD PUSH0 SWAP1 SLOAD SWAP1 PUSH2 0x100 EXP SWAP1 DIV PUSH20 0xFFFFFFFFFFFFFFFFFFFFFFFFFFFFFFFFFFFFFFFF AND SWAP1 DUP1 PUSH1 0x1 ADD DUP1 SLOAD PUSH2 0xC77 SWAP1 PUSH2 0x1FAD JUMP JUMPDEST DUP1 PUSH1 0x1F ADD PUSH1 0x20 DUP1 SWAP2 DIV MUL PUSH1 0x20 ADD PUSH1 0x40 MLOAD SWAP1 DUP2 ADD PUSH1 0x40 MSTORE DUP1 SWAP3 SWAP2 SWAP1 DUP2 DUP2 MSTORE PUSH1 0x20 ADD DUP3 DUP1 SLOAD PUSH2 0xCA3 SWAP1 PUSH2 0x1FAD JUMP JUMPDEST DUP1 ISZERO PUSH2 0xCEE JUMPI DUP1 PUSH1 0x1F LT PUSH2 0xCC5 JUMPI PUSH2 0x100 DUP1 DUP4 SLOAD DIV MUL DUP4 MSTORE SWAP2 PUSH1 0x20 ADD SWAP2 PUSH2 0xCEE JUMP JUMPDEST DUP3 ADD SWAP2 SWAP1 PUSH0 MSTORE PUSH1 0x20 PUSH0 KECCAK256 SWAP1 JUMPDEST DUP2 SLOAD DUP2 MSTORE SWAP1 PUSH1 0x1 ADD SWAP1 PUSH1 0x20 ADD DUP1 DUP4 GT PUSH2 0xCD1 JUMPI DUP3 SWAP1 SUB PUSH1 0x1F AND DUP3 ADD SWAP2 JUMPDEST POP POP POP POP POP SWAP1 DUP1 PUSH1 0x2 ADD SLOAD SWAP1 DUP1 PUSH1 0x3 ADD PUSH0 SWAP1 SLOAD SWAP1 PUSH2 0x100 EXP SWAP1 DIV PUSH1 0xFF AND SWAP1 POP DUP5 JUMP JUMPDEST PUSH0 DUP3 MLOAD GT PUSH2 0xD53 JUMPI PUSH1 0x40 MLOAD PUSH32 0x8C379A000000000000000000000000000000000000000000000000000000000 DUP2 MSTORE PUSH1 0x4 ADD PUSH2 0xD4A SWAP1 PUSH2 0x2331 JUMP JUMPDEST PUSH1 0x40 MLOAD DUP1 SWAP2 SUB SWAP1 REVERT JUMPDEST PUSH0 DUP2 MLOAD GT PUSH2 0xD96 JUMPI PUSH1 0x40 MLOAD PUSH32 0x8C379A000000000000000000000000000000000000000000000000000000000 DUP2 MSTORE PUSH1 0x4 ADD PUSH2 0xD8D SWAP1 PUSH2 0x2399 JUMP JUMPDEST PUSH1 0x40 MLOAD DUP1 SWAP2 SUB SWAP1 REVERT JUMPDEST PUSH0 DUP3 PUSH1 0x40 MLOAD PUSH2 0xDA5 SWAP2 SWAP1 PUSH2 0x1E9A JUMP JUMPDEST SWAP1 DUP2 MSTORE PUSH1 0x20 ADD PUSH1 0x40 MLOAD DUP1 SWAP2 SUB SWAP1 KECCAK256 PUSH1 0x5 ADD PUSH0 SWAP1 SLOAD SWAP1 PUSH2 0x100 EXP SWAP1 DIV PUSH1 0xFF AND ISZERO PUSH2 0xE03 JUMPI PUSH1 0x40 MLOAD PUSH32 0x8C379A000000000000000000000000000000000000000000000000000000000 DUP2 MSTORE PUSH1 0x4 ADD PUSH2 0xDFA SWAP1 PUSH2 0x2401 JUMP JUMPDEST PUSH1 0x40 MLOAD DUP1 SWAP2 SUB SWAP1 REVERT JUMPDEST PUSH1 0x40 MLOAD DUP1 PUSH1 0xC0 ADD PUSH1 0x40 MSTORE DUP1 DUP4 DUP2 MSTORE PUSH1 0x20 ADD DUP3 DUP2 MSTORE PUSH1 0x20 ADD CALLER PUSH20 0xFFFFFFFFFFFFFFFFFFFFFFFFFFFFFFFFFFFFFFFF AND DUP2 MSTORE PUSH1 0x20 ADD TIMESTAMP DUP2 MSTORE PUSH1 0x20 ADD PUSH0 DUP2 MSTORE PUSH1 0x20 ADD PUSH1 0x1 ISZERO ISZERO DUP2 MSTORE POP PUSH0 DUP4 PUSH1 0x40 MLOAD PUSH2 0xE58 SWAP2 SWAP1 PUSH2 0x1E9A JUMP JUMPDEST SWAP1 DUP2 MSTORE PUSH1 0x20 ADD PUSH1 0x40 MLOAD DUP1 SWAP2 SUB SWAP1 KECCAK256 PUSH0 DUP3 ADD MLOAD DUP2 PUSH0 ADD SWAP1 DUP2 PUSH2 0xE79 SWAP2 SWAP1 PUSH2 0x217D JUMP JUMPDEST POP PUSH1 0x20 DUP3 ADD MLOAD DUP2 PUSH1 0x1 ADD SWAP1 DUP2 PUSH2 0xE8F SWAP2 SWAP1 PUSH2 0x217D JUMP JUMPDEST POP PUSH1 0x40 DUP3 ADD MLOAD DUP2 PUSH1 0x2 ADD PUSH0 PUSH2 0x100 EXP DUP2 SLOAD DUP2 PUSH20 0xFFFFFFFFFFFFFFFFFFFFFFFFFFFFFFFFFFFFFFFF MUL NOT AND SWAP1 DUP4 PUSH20 0xFFFFFFFFFFFFFFFFFFFFFFFFFFFFFFFFFFFFFFFF AND MUL OR SWAP1 SSTORE POP PUSH1 0x60 DUP3 ADD MLOAD DUP2 PUSH1 0x3 ADD SSTORE PUSH1 0x80 DUP3 ADD MLOAD DUP2 PUSH1 0x4 ADD SSTORE PUSH1 0xA0 DUP3 ADD MLOAD DUP2 PUSH1 0x5 ADD PUSH0 PUSH2 0x100 EXP DUP2 SLOAD DUP2 PUSH1 0xFF MUL NOT AND SWAP1 DUP4 ISZERO ISZERO MUL OR SWAP1 SSTORE POP SWAP1 POP POP PUSH1 0x4 DUP3 SWAP1 DUP1 PUSH1 0x1 DUP2 SLOAD ADD DUP1 DUP3 SSTORE DUP1 SWAP2 POP POP PUSH1 0x1 SWAP1 SUB SWAP1 PUSH0 MSTORE PUSH1 0x20 PUSH0 KECCAK256 ADD PUSH0 SWAP1 SWAP2 SWAP1 SWAP2 SWAP1 SWAP2 POP SWAP1 DUP2 PUSH2 0xF3D SWAP2 SWAP1 PUSH2 0x217D JUMP JUMPDEST POP PUSH1 0x2 PUSH0 CALLER PUSH20 0xFFFFFFFFFFFFFFFFFFFFFFFFFFFFFFFFFFFFFFFF AND PUSH20 0xFFFFFFFFFFFFFFFFFFFFFFFFFFFFFFFFFFFFFFFF AND DUP2 MSTORE PUSH1 0x20 ADD SWAP1 DUP2 MSTORE PUSH1 0x20 ADD PUSH0 KECCAK256 DUP3 SWAP1 DUP1 PUSH1 0x1 DUP2 SLOAD ADD DUP1 DUP3 SSTORE DUP1 SWAP2 POP POP PUSH1 0x1 SWAP1 SUB SWAP1 PUSH0 MSTORE PUSH1 0x20 PUSH0 KECCAK256 ADD PUSH0 SWAP1 SWAP2 SWAP1 SWAP2 SWAP1 SWAP2 POP SWAP1 DUP2 PUSH2 0xFAA SWAP2 SWAP1 PUSH2 0x217D JUMP JUMPDEST POP CALLER PUSH20 0xFFFFFFFFFFFFFFFFFFFFFFFFFFFFFFFFFFFFFFFF AND DUP3 PUSH1 0x40 MLOAD PUSH2 0xFD0 SWAP2 SWAP1 PUSH2 0x1E9A JUMP JUMPDEST PUSH1 0x40 MLOAD DUP1 SWAP2 SUB SWAP1 KECCAK256 PUSH32 0x8D9E646B7BE50523DBF45D232DEA79BF57ED2EA290147F46D64D74918BCCE742 DUP4 TIMESTAMP PUSH1 0x40 MLOAD PUSH2 0x1009 SWAP3 SWAP2 SWAP1 PUSH2 0x241F JUMP JUMPDEST PUSH1 0x40 MLOAD DUP1 SWAP2 SUB SWAP1 LOG3 POP POP JUMP JUMPDEST PUSH1 0x60 PUSH1 0x4 DUP1 SLOAD SWAP1 POP DUP4 LT PUSH2 0x105E JUMPI PUSH1 0x40 MLOAD PUSH32 0x8C379A000000000000000000000000000000000000000000000000000000000 DUP2 MSTORE PUSH1 0x4 ADD PUSH2 0x1055 SWAP1 PUSH2 0x2497 JUMP JUMPDEST PUSH1 0x40 MLOAD DUP1 SWAP2 SUB SWAP1 REVERT JUMPDEST PUSH0 DUP3 DUP5 PUSH2 0x106B SWAP2 SWAP1 PUSH2 0x24B5 JUMP JUMPDEST SWAP1 POP PUSH1 0x4 DUP1 SLOAD SWAP1 POP DUP2 GT ISZERO PUSH2 0x1083 JUMPI PUSH1 0x4 DUP1 SLOAD SWAP1 POP SWAP1 POP JUMPDEST PUSH0 DUP5 DUP3 PUSH2 0x1090 SWAP2 SWAP1 PUSH2 0x24E8 JUMP JUMPDEST PUSH8 0xFFFFFFFFFFFFFFFF DUP2 GT ISZERO PUSH2 0x10A9 JUMPI PUSH2 0x10A8 PUSH2 0x15BC JUMP JUMPDEST JUMPDEST PUSH1 0x40 MLOAD SWAP1 DUP1 DUP3 MSTORE DUP1 PUSH1 0x20 MUL PUSH1 0x20 ADD DUP3 ADD PUSH1 0x40 MSTORE DUP1 ISZERO PUSH2 0x10DC JUMPI DUP2 PUSH1 0x20 ADD JUMPDEST PUSH1 0x60 DUP2 MSTORE PUSH1 0x20 ADD SWAP1 PUSH1 0x1 SWAP1 SUB SWAP1 DUP2 PUSH2 0x10C7 JUMPI SWAP1 POP JUMPDEST POP SWAP1 POP PUSH0 DUP6 SWAP1 POP JUMPDEST DUP3 DUP2 LT ISZERO PUSH2 0x11C5 JUMPI PUSH1 0x4 DUP2 DUP2 SLOAD DUP2 LT PUSH2 0x1100 JUMPI PUSH2 0x10FF PUSH2 0x251B JUMP JUMPDEST JUMPDEST SWAP1 PUSH0 MSTORE PUSH1 0x20 PUSH0 KECCAK256 ADD DUP1 SLOAD PUSH2 0x1113 SWAP1 PUSH2 0x1FAD JUMP JUMPDEST DUP1 PUSH1 0x1F ADD PUSH1 0x20 DUP1 SWAP2 DIV MUL PUSH1 0x20 ADD PUSH1 0x40 MLOAD SWAP1 DUP2 ADD PUSH1 0x40 MSTORE DUP1 SWAP3 SWAP2 SWAP1 DUP2 DUP2 MSTORE PUSH1 0x20 ADD DUP3 DUP1 SLOAD PUSH2 0x113F SWAP1 PUSH2 0x1FAD JUMP JUMPDEST DUP1 ISZERO PUSH2 0x118A JUMPI DUP1 PUSH1 0x1F LT PUSH2 0x1161 JUMPI PUSH2 0x100 DUP1 DUP4 SLOAD DIV MUL DUP4 MSTORE SWAP2 PUSH1 0x20 ADD SWAP2 PUSH2 0x118A JUMP JUMPDEST DUP3 ADD SWAP2 SWAP1 PUSH0 MSTORE PUSH1 0x20 PUSH0 KECCAK256 SWAP1 JUMPDEST DUP2 SLOAD DUP2 MSTORE SWAP1 PUSH1 0x1 ADD SWAP1 PUSH1 0x20 ADD DUP1 DUP4 GT PUSH2 0x116D JUMPI DUP3 SWAP1 SUB PUSH1 0x1F AND DUP3 ADD SWAP2 JUMPDEST POP POP POP POP POP DUP3 DUP8 DUP4 PUSH2 0x119C SWAP2 SWAP1 PUSH2 0x24E8 JUMP JUMPDEST DUP2 MLOAD DUP2 LT PUSH2 0x11AD JUMPI PUSH2 0x11AC PUSH2 0x251B JUMP JUMPDEST JUMPDEST PUSH1 0x20 MUL PUSH1 0x20 ADD ADD DUP2 SWAP1 MSTORE POP DUP1 DUP1 PUSH1 0x1 ADD SWAP2 POP POP PUSH2 0x10E4 JUMP JUMPDEST POP DUP1 SWAP3 POP POP POP SWAP3 SWAP2 POP POP JUMP JUMPDEST PUSH1 0x3 PUSH1 0x20 MSTORE DUP2 PUSH0 MSTORE PUSH1 0x40 PUSH0 KECCAK256 DUP2 DUP1 MLOAD PUSH1 0x20 DUP2 ADD DUP3 ADD DUP1 MLOAD DUP5 DUP3 MSTORE PUSH1 0x20 DUP4 ADD PUSH1 0x20 DUP6 ADD KECCAK256 DUP2 DUP4 MSTORE DUP1 SWAP6 POP POP POP POP POP POP PUSH0 SWAP2 POP SWAP2 POP SWAP1 SLOAD SWAP1 PUSH2 0x100 EXP SWAP1 DIV PUSH1 0xFF AND DUP2 JUMP JUMPDEST PUSH0 DUP2 DUP1 MLOAD PUSH1 0x20 DUP2 ADD DUP3 ADD DUP1 MLOAD DUP5 DUP3 MSTORE PUSH1 0x20 DUP4 ADD PUSH1 0x20 DUP6 ADD KECCAK256 DUP2 DUP4 MSTORE DUP1 SWAP6 POP POP POP POP POP POP PUSH0 SWAP2 POP SWAP1 POP DUP1 PUSH0 ADD DUP1 SLOAD PUSH2 0x1249 SWAP1 PUSH2 0x1FAD JUMP JUMPDEST DUP1 PUSH1 0x1F ADD PUSH1 0x20 DUP1 SWAP2 DIV MUL PUSH1 0x20 ADD PUSH1 0x40 MLOAD SWAP1 DUP2 ADD PUSH1 0x40 MSTORE DUP1 SWAP3 SWAP2 SWAP1 DUP2 DUP2 MSTORE PUSH1 0x20 ADD DUP3 DUP1 SLOAD PUSH2 0x1275 SWAP1 PUSH2 0x1FAD JUMP JUMPDEST DUP1 ISZERO PUSH2 0x12C0 JUMPI DUP1 PUSH1 0x1F LT PUSH2 0x1297 JUMPI PUSH2 0x100 DUP1 DUP4 SLOAD DIV MUL DUP4 MSTORE SWAP2 PUSH1 0x20 ADD SWAP2 PUSH2 0x12C0 JUMP JUMPDEST DUP3 ADD SWAP2 SWAP1 PUSH0 MSTORE PUSH1 0x20 PUSH0 KECCAK256 SWAP1 JUMPDEST DUP2 SLOAD DUP2 MSTORE SWAP1 PUSH1 0x1 ADD SWAP1 PUSH1 0x20 ADD DUP1 DUP4 GT PUSH2 0x12A3 JUMPI DUP3 SWAP1 SUB PUSH1 0x1F AND DUP3 ADD SWAP2 JUMPDEST POP POP POP POP POP SWAP1 DUP1 PUSH1 0x1 ADD DUP1 SLOAD PUSH2 0x12D5 SWAP1 PUSH2 0x1FAD JUMP JUMPDEST DUP1 PUSH1 0x1F ADD PUSH1 0x20 DUP1 SWAP2 DIV MUL PUSH1 0x20 ADD PUSH1 0x40 MLOAD SWAP1 DUP2 ADD PUSH1 0x40 MSTORE DUP1 SWAP3 SWAP2 SWAP1 DUP2 DUP2 MSTORE PUSH1 0x20 ADD DUP3 DUP1 SLOAD PUSH2 0x1301 SWAP1 PUSH2 0x1FAD JUMP JUMPDEST DUP1 ISZERO PUSH2 0x134C JUMPI DUP1 PUSH1 0x1F LT PUSH2 0x1323 JUMPI PUSH2 0x100 DUP1 DUP4 SLOAD DIV MUL DUP4 MSTORE SWAP2 PUSH1 0x20 ADD SWAP2 PUSH2 0x134C JUMP JUMPDEST DUP3 ADD SWAP2 SWAP1 PUSH0 MSTORE PUSH1 0x20 PUSH0 KECCAK256 SWAP1 JUMPDEST DUP2 SLOAD DUP2 MSTORE SWAP1 PUSH1 0x1 ADD SWAP1 PUSH1 0x20 ADD DUP1 DUP4 GT PUSH2 0x132F JUMPI DUP3 SWAP1 SUB PUSH1 0x1F AND DUP3 ADD SWAP2 JUMPDEST POP POP POP POP POP SWAP1 DUP1 PUSH1 0x2 ADD PUSH0 SWAP1 SLOAD SWAP1 PUSH2 0x100 EXP SWAP1 DIV PUSH20 0xFFFFFFFFFFFFFFFFFFFFFFFFFFFFFFFFFFFFFFFF AND SWAP1 DUP1 PUSH1 0x3 ADD SLOAD SWAP1 DUP1 PUSH1 0x4 ADD SLOAD SWAP1 DUP1 PUSH1 0x5 ADD PUSH0 SWAP1 SLOAD SWAP1 PUSH2 0x100 EXP SWAP1 DIV PUSH1 0xFF AND SWAP1 POP DUP7 JUMP JUMPDEST PUSH0 PUSH1 0x4 DUP1 SLOAD SWAP1 POP SWAP1 POP SWAP1 JUMP JUMPDEST PUSH1 0x60 PUSH0 DUP3 PUSH1 0x40 MLOAD PUSH2 0x13B6 SWAP2 SWAP1 PUSH2 0x1E9A JUMP JUMPDEST SWAP1 DUP2 MSTORE PUSH1 0x20 ADD PUSH1 0x40 MLOAD DUP1 SWAP2 SUB SWAP1 KECCAK256 PUSH1 0x5 ADD PUSH0 SWAP1 SLOAD SWAP1 PUSH2 0x100 EXP SWAP1 DIV PUSH1 0xFF AND PUSH2 0x1413 JUMPI PUSH1 0x40 MLOAD PUSH32 0x8C379A000000000000000000000000000000000000000000000000000000000 DUP2 MSTORE PUSH1 0x4 ADD PUSH2 0x140A SWAP1 PUSH2 0x1EFA JUMP JUMPDEST PUSH1 0x40 MLOAD DUP1 SWAP2 SUB SWAP1 REVERT JUMPDEST PUSH1 0x1 DUP3 PUSH1 0x40 MLOAD PUSH2 0x1423 SWAP2 SWAP1 PUSH2 0x1E9A JUMP JUMPDEST SWAP1 DUP2 MSTORE PUSH1 0x20 ADD PUSH1 0x40 MLOAD DUP1 SWAP2 SUB SWAP1 KECCAK256 DUP1 SLOAD DUP1 PUSH1 0x20 MUL PUSH1 0x20 ADD PUSH1 0x40 MLOAD SWAP1 DUP2 ADD PUSH1 0x40 MSTORE DUP1 SWAP3 SWAP2 SWAP1 DUP2 DUP2 MSTORE PUSH1 0x20 ADD PUSH0 SWAP1 JUMPDEST DUP3 DUP3 LT ISZERO PUSH2 0x1588 JUMPI DUP4 DUP3 SWAP1 PUSH0 MSTORE PUSH1 0x20 PUSH0 KECCAK256 SWAP1 PUSH1 0x4 MUL ADD PUSH1 0x40 MLOAD DUP1 PUSH1 0x80 ADD PUSH1 0x40 MSTORE SWAP1 DUP2 PUSH0 DUP3 ADD PUSH0 SWAP1 SLOAD SWAP1 PUSH2 0x100 EXP SWAP1 DIV PUSH20 0xFFFFFFFFFFFFFFFFFFFFFFFFFFFFFFFFFFFFFFFF AND PUSH20 0xFFFFFFFFFFFFFFFFFFFFFFFFFFFFFFFFFFFFFFFF AND PUSH20 0xFFFFFFFFFFFFFFFFFFFFFFFFFFFFFFFFFFFFFFFF AND DUP2 MSTORE PUSH1 0x20 ADD PUSH1 0x1 DUP3 ADD DUP1 SLOAD PUSH2 0x14D5 SWAP1 PUSH2 0x1FAD JUMP JUMPDEST DUP1 PUSH1 0x1F ADD PUSH1 0x20 DUP1 SWAP2 DIV MUL PUSH1 0x20 ADD PUSH1 0x40 MLOAD SWAP1 DUP2 ADD PUSH1 0x40 MSTORE DUP1 SWAP3 SWAP2 SWAP1 DUP2 DUP2 MSTORE PUSH1 0x20 ADD DUP3 DUP1 SLOAD PUSH2 0x1501 SWAP1 PUSH2 0x1FAD JUMP JUMPDEST DUP1 ISZERO PUSH2 0x154C JUMPI DUP1 PUSH1 0x1F LT PUSH2 0x1523 JUMPI PUSH2 0x100 DUP1 DUP4 SLOAD DIV MUL DUP4 MSTORE SWAP2 PUSH1 0x20 ADD SWAP2 PUSH2 0x154C JUMP JUMPDEST DUP3 ADD SWAP2 SWAP1 PUSH0 MSTORE PUSH1 0x20 PUSH0 KECCAK256 SWAP1 JUMPDEST DUP2 SLOAD DUP2 MSTORE SWAP1 PUSH1 0x1 ADD SWAP1 PUSH1 0x20 ADD DUP1 DUP4 GT PUSH2 0x152F JUMPI DUP3 SWAP1 SUB PUSH1 0x1F AND DUP3 ADD SWAP2 JUMPDEST POP POP POP POP POP DUP2 MSTORE PUSH1 0x20 ADD PUSH1 0x2 DUP3 ADD SLOAD DUP2 MSTORE PUSH1 0x20 ADD PUSH1 0x3 DUP3 ADD PUSH0 SWAP1 SLOAD SWAP1 PUSH2 0x100 EXP SWAP1 DIV PUSH1 0xFF AND ISZERO ISZERO ISZERO ISZERO DUP2 MSTORE POP POP DUP2 MSTORE PUSH1 0x20 ADD SWAP1 PUSH1 0x1 ADD SWAP1 PUSH2 0x1450 JUMP JUMPDEST POP POP POP POP SWAP1 POP SWAP2 SWAP1 POP JUMP JUMPDEST PUSH0 PUSH1 0x40 MLOAD SWAP1 POP SWAP1 JUMP JUMPDEST PUSH0 PUSH0 REVERT JUMPDEST PUSH0 PUSH0 REVERT JUMPDEST PUSH0 PUSH0 REVERT JUMPDEST PUSH0 PUSH0 REVERT JUMPDEST PUSH0 PUSH1 0x1F NOT PUSH1 0x1F DUP4 ADD AND SWAP1 POP SWAP2 SWAP1 POP JUMP JUMPDEST PUSH32 0x4E487B7100000000000000000000000000000000000000000000000000000000 PUSH0 MSTORE PUSH1 0x41 PUSH1 0x4 MSTORE PUSH1 0x24 PUSH0 REVERT JUMPDEST PUSH2 0x15F2 DUP3 PUSH2 0x15AC JUMP JUMPDEST DUP2 ADD DUP2 DUP2 LT PUSH8 0xFFFFFFFFFFFFFFFF DUP3 GT OR ISZERO PUSH2 0x1611 JUMPI PUSH2 0x1610 PUSH2 0x15BC JUMP JUMPDEST JUMPDEST DUP1 PUSH1 0x40 MSTORE POP POP POP JUMP JUMPDEST PUSH0 PUSH2 0x1623 PUSH2 0x1593 JUMP JUMPDEST SWAP1 POP PUSH2 0x162F DUP3 DUP3 PUSH2 0x15E9 JUMP JUMPDEST SWAP2 SWAP1 POP JUMP JUMPDEST PUSH0 PUSH8 0xFFFFFFFFFFFFFFFF DUP3 GT ISZERO PUSH2 0x164E JUMPI PUSH2 0x164D PUSH2 0x15BC JUMP JUMPDEST JUMPDEST PUSH2 0x1657 DUP3 PUSH2 0x15AC JUMP JUMPDEST SWAP1 POP PUSH1 0x20 DUP2 ADD SWAP1 POP SWAP2 SWAP1 POP JUMP JUMPDEST DUP3 DUP2 DUP4 CALLDATACOPY PUSH0 DUP4 DUP4 ADD MSTORE POP POP POP JUMP JUMPDEST PUSH0 PUSH2 0x1684 PUSH2 0x167F DUP5 PUSH2 0x1634 JUMP JUMPDEST PUSH2 0x161A JUMP JUMPDEST SWAP1 POP DUP3 DUP2 MSTORE PUSH1 0x20 DUP2 ADD DUP5 DUP5 DUP5 ADD GT ISZERO PUSH2 0x16A0 JUMPI PUSH2 0x169F PUSH2 0x15A8 JUMP JUMPDEST JUMPDEST PUSH2 0x16AB DUP5 DUP3 DUP6 PUSH2 0x1664 JUMP JUMPDEST POP SWAP4 SWAP3 POP POP POP JUMP JUMPDEST PUSH0 DUP3 PUSH1 0x1F DUP4 ADD SLT PUSH2 0x16C7 JUMPI PUSH2 0x16C6 PUSH2 0x15A4 JUMP JUMPDEST JUMPDEST DUP2 CALLDATALOAD PUSH2 0x16D7 DUP5 DUP3 PUSH1 0x20 DUP7 ADD PUSH2 0x1672 JUMP JUMPDEST SWAP2 POP POP SWAP3 SWAP2 POP POP JUMP JUMPDEST PUSH0 DUP2 ISZERO ISZERO SWAP1 POP SWAP2 SWAP1 POP JUMP JUMPDEST PUSH2 0x16F4 DUP2 PUSH2 0x16E0 JUMP JUMPDEST DUP2 EQ PUSH2 0x16FE JUMPI PUSH0 PUSH0 REVERT JUMPDEST POP JUMP JUMPDEST PUSH0 DUP2 CALLDATALOAD SWAP1 POP PUSH2 0x170F DUP2 PUSH2 0x16EB JUMP JUMPDEST SWAP3 SWAP2 POP POP JUMP JUMPDEST PUSH0 PUSH0 PUSH1 0x40 DUP4 DUP6 SUB SLT ISZERO PUSH2 0x172B JUMPI PUSH2 0x172A PUSH2 0x159C JUMP JUMPDEST JUMPDEST PUSH0 DUP4 ADD CALLDATALOAD PUSH8 0xFFFFFFFFFFFFFFFF DUP2 GT ISZERO PUSH2 0x1748 JUMPI PUSH2 0x1747 PUSH2 0x15A0 JUMP JUMPDEST JUMPDEST PUSH2 0x1754 DUP6 DUP3 DUP7 ADD PUSH2 0x16B3 JUMP JUMPDEST SWAP3 POP POP PUSH1 0x20 PUSH2 0x1765 DUP6 DUP3 DUP7 ADD PUSH2 0x1701 JUMP JUMPDEST SWAP2 POP POP SWAP3 POP SWAP3 SWAP1 POP JUMP JUMPDEST PUSH0 PUSH1 0x20 DUP3 DUP5 SUB SLT ISZERO PUSH2 0x1784 JUMPI PUSH2 0x1783 PUSH2 0x159C JUMP JUMPDEST JUMPDEST PUSH0 DUP3 ADD CALLDATALOAD PUSH8 0xFFFFFFFFFFFFFFFF DUP2 GT ISZERO PUSH2 0x17A1 JUMPI PUSH2 0x17A0 PUSH2 0x15A0 JUMP JUMPDEST JUMPDEST PUSH2 0x17AD DUP5 DUP3 DUP6 ADD PUSH2 0x16B3 JUMP JUMPDEST SWAP2 POP POP SWAP3 SWAP2 POP POP JUMP JUMPDEST PUSH0 DUP2 SWAP1 POP SWAP2 SWAP1 POP JUMP JUMPDEST PUSH2 0x17C8 DUP2 PUSH2 0x17B6 JUMP JUMPDEST DUP3 MSTORE POP POP JUMP JUMPDEST PUSH0 PUSH1 0x20 DUP3 ADD SWAP1 POP PUSH2 0x17E1 PUSH0 DUP4 ADD DUP5 PUSH2 0x17BF JUMP JUMPDEST SWAP3 SWAP2 POP POP JUMP JUMPDEST PUSH0 PUSH20 0xFFFFFFFFFFFFFFFFFFFFFFFFFFFFFFFFFFFFFFFF DUP3 AND SWAP1 POP SWAP2 SWAP1 POP JUMP JUMPDEST PUSH0 PUSH2 0x1810 DUP3 PUSH2 0x17E7 JUMP JUMPDEST SWAP1 POP SWAP2 SWAP1 POP JUMP JUMPDEST PUSH2 0x1820 DUP2 PUSH2 0x1806 JUMP JUMPDEST DUP2 EQ PUSH2 0x182A JUMPI PUSH0 PUSH0 REVERT JUMPDEST POP JUMP JUMPDEST PUSH0 DUP2 CALLDATALOAD SWAP1 POP PUSH2 0x183B DUP2 PUSH2 0x1817 JUMP JUMPDEST SWAP3 SWAP2 POP POP JUMP JUMPDEST PUSH2 0x184A DUP2 PUSH2 0x17B6 JUMP JUMPDEST DUP2 EQ PUSH2 0x1854 JUMPI PUSH0 PUSH0 REVERT JUMPDEST POP JUMP JUMPDEST PUSH0 DUP2 CALLDATALOAD SWAP1 POP PUSH2 0x1865 DUP2 PUSH2 0x1841 JUMP JUMPDEST SWAP3 SWAP2 POP POP JUMP JUMPDEST PUSH0 PUSH0 PUSH1 0x40 DUP4 DUP6 SUB SLT ISZERO PUSH2 0x1881 JUMPI PUSH2 0x1880 PUSH2 0x159C JUMP JUMPDEST JUMPDEST PUSH0 PUSH2 0x188E DUP6 DUP3 DUP7 ADD PUSH2 0x182D JUMP JUMPDEST SWAP3 POP POP PUSH1 0x20 PUSH2 0x189F DUP6 DUP3 DUP7 ADD PUSH2 0x1857 JUMP JUMPDEST SWAP2 POP POP SWAP3 POP SWAP3 SWAP1 POP JUMP JUMPDEST PUSH0 DUP2 MLOAD SWAP1 POP SWAP2 SWAP1 POP JUMP JUMPDEST PUSH0 DUP3 DUP3 MSTORE PUSH1 0x20 DUP3 ADD SWAP1 POP SWAP3 SWAP2 POP POP JUMP JUMPDEST DUP3 DUP2 DUP4 MCOPY PUSH0 DUP4 DUP4 ADD MSTORE POP POP POP JUMP JUMPDEST PUSH0 PUSH2 0x18DB DUP3 PUSH2 0x18A9 JUMP JUMPDEST PUSH2 0x18E5 DUP2 DUP6 PUSH2 0x18B3 JUMP JUMPDEST SWAP4 POP PUSH2 0x18F5 DUP2 DUP6 PUSH1 0x20 DUP7 ADD PUSH2 0x18C3 JUMP JUMPDEST PUSH2 0x18FE DUP2 PUSH2 0x15AC JUMP JUMPDEST DUP5 ADD SWAP2 POP POP SWAP3 SWAP2 POP POP JUMP JUMPDEST PUSH0 PUSH1 0x20 DUP3 ADD SWAP1 POP DUP2 DUP2 SUB PUSH0 DUP4 ADD MSTORE PUSH2 0x1921 DUP2 DUP5 PUSH2 0x18D1 JUMP JUMPDEST SWAP1 POP SWAP3 SWAP2 POP POP JUMP JUMPDEST PUSH0 PUSH1 0x20 DUP3 DUP5 SUB SLT ISZERO PUSH2 0x193E JUMPI PUSH2 0x193D PUSH2 0x159C JUMP JUMPDEST JUMPDEST PUSH0 PUSH2 0x194B DUP5 DUP3 DUP6 ADD PUSH2 0x1857 JUMP JUMPDEST SWAP2 POP POP SWAP3 SWAP2 POP POP JUMP JUMPDEST PUSH0 PUSH1 0x20 DUP3 DUP5 SUB SLT ISZERO PUSH2 0x1969 JUMPI PUSH2 0x1968 PUSH2 0x159C JUMP JUMPDEST JUMPDEST PUSH0 PUSH2 0x1976 DUP5 DUP3 DUP6 ADD PUSH2 0x182D JUMP JUMPDEST SWAP2 POP POP SWAP3 SWAP2 POP POP JUMP JUMPDEST PUSH0 DUP2 MLOAD SWAP1 POP SWAP2 SWAP1 POP JUMP JUMPDEST PUSH0 DUP3 DUP3 MSTORE PUSH1 0x20 DUP3 ADD SWAP1 POP SWAP3 SWAP2 POP POP JUMP JUMPDEST PUSH0 DUP2 SWAP1 POP PUSH1 0x20 DUP3 ADD SWAP1 POP SWAP2 SWAP1 POP JUMP JUMPDEST PUSH0 DUP3 DUP3 MSTORE PUSH1 0x20 DUP3 ADD SWAP1 POP SWAP3 SWAP2 POP POP JUMP JUMPDEST PUSH0 PUSH2 0x19C2 DUP3 PUSH2 0x18A9 JUMP JUMPDEST PUSH2 0x19CC DUP2 DUP6 PUSH2 0x19A8 JUMP JUMPDEST SWAP4 POP PUSH2 0x19DC DUP2 DUP6 PUSH1 0x20 DUP7 ADD PUSH2 0x18C3 JUMP JUMPDEST PUSH2 0x19E5 DUP2 PUSH2 0x15AC JUMP JUMPDEST DUP5 ADD SWAP2 POP POP SWAP3 SWAP2 POP POP JUMP JUMPDEST PUSH0 PUSH2 0x19FB DUP4 DUP4 PUSH2 0x19B8 JUMP JUMPDEST SWAP1 POP SWAP3 SWAP2 POP POP JUMP JUMPDEST PUSH0 PUSH1 0x20 DUP3 ADD SWAP1 POP SWAP2 SWAP1 POP JUMP JUMPDEST PUSH0 PUSH2 0x1A19 DUP3 PUSH2 0x197F JUMP JUMPDEST PUSH2 0x1A23 DUP2 DUP6 PUSH2 0x1989 JUMP JUMPDEST SWAP4 POP DUP4 PUSH1 0x20 DUP3 MUL DUP6 ADD PUSH2 0x1A35 DUP6 PUSH2 0x1999 JUMP JUMPDEST DUP1 PUSH0 JUMPDEST DUP6 DUP2 LT ISZERO PUSH2 0x1A70 JUMPI DUP5 DUP5 SUB DUP10 MSTORE DUP2 MLOAD PUSH2 0x1A51 DUP6 DUP3 PUSH2 0x19F0 JUMP JUMPDEST SWAP5 POP PUSH2 0x1A5C DUP4 PUSH2 0x1A03 JUMP JUMPDEST SWAP3 POP PUSH1 0x20 DUP11 ADD SWAP10 POP POP PUSH1 0x1 DUP2 ADD SWAP1 POP PUSH2 0x1A38 JUMP JUMPDEST POP DUP3 SWAP8 POP DUP8 SWAP6 POP POP POP POP POP POP SWAP3 SWAP2 POP POP JUMP JUMPDEST PUSH0 PUSH1 0x20 DUP3 ADD SWAP1 POP DUP2 DUP2 SUB PUSH0 DUP4 ADD MSTORE PUSH2 0x1A9A DUP2 DUP5 PUSH2 0x1A0F JUMP JUMPDEST SWAP1 POP SWAP3 SWAP2 POP POP JUMP JUMPDEST PUSH0 PUSH0 PUSH1 0x40 DUP4 DUP6 SUB SLT ISZERO PUSH2 0x1AB8 JUMPI PUSH2 0x1AB7 PUSH2 0x159C JUMP JUMPDEST JUMPDEST PUSH0 PUSH2 0x1AC5 DUP6 DUP3 DUP7 ADD PUSH2 0x182D JUMP JUMPDEST SWAP3 POP POP PUSH1 0x20 DUP4 ADD CALLDATALOAD PUSH8 0xFFFFFFFFFFFFFFFF DUP2 GT ISZERO PUSH2 0x1AE6 JUMPI PUSH2 0x1AE5 PUSH2 0x15A0 JUMP JUMPDEST JUMPDEST PUSH2 0x1AF2 DUP6 DUP3 DUP7 ADD PUSH2 0x16B3 JUMP JUMPDEST SWAP2 POP POP SWAP3 POP SWAP3 SWAP1 POP JUMP JUMPDEST PUSH2 0x1B05 DUP2 PUSH2 0x16E0 JUMP JUMPDEST DUP3 MSTORE POP POP JUMP JUMPDEST PUSH0 PUSH1 0x20 DUP3 ADD SWAP1 POP PUSH2 0x1B1E PUSH0 DUP4 ADD DUP5 PUSH2 0x1AFC JUMP JUMPDEST SWAP3 SWAP2 POP POP JUMP JUMPDEST PUSH2 0x1B2D DUP2 PUSH2 0x1806 JUMP JUMPDEST DUP3 MSTORE POP POP JUMP JUMPDEST PUSH0 PUSH1 0xC0 DUP3 ADD SWAP1 POP DUP2 DUP2 SUB PUSH0 DUP4 ADD MSTORE PUSH2 0x1B4B DUP2 DUP10 PUSH2 0x18D1 JUMP JUMPDEST SWAP1 POP DUP2 DUP2 SUB PUSH1 0x20 DUP4 ADD MSTORE PUSH2 0x1B5F DUP2 DUP9 PUSH2 0x18D1 JUMP JUMPDEST SWAP1 POP PUSH2 0x1B6E PUSH1 0x40 DUP4 ADD DUP8 PUSH2 0x1B24 JUMP JUMPDEST PUSH2 0x1B7B PUSH1 0x60 DUP4 ADD DUP7 PUSH2 0x17BF JUMP JUMPDEST PUSH2 0x1B88 PUSH1 0x80 DUP4 ADD DUP6 PUSH2 0x17BF JUMP JUMPDEST PUSH2 0x1B95 PUSH1 0xA0 DUP4 ADD DUP5 PUSH2 0x1AFC JUMP JUMPDEST SWAP8 SWAP7 POP POP POP POP POP POP POP JUMP JUMPDEST PUSH0 PUSH0 PUSH1 0x40 DUP4 DUP6 SUB SLT ISZERO PUSH2 0x1BB6 JUMPI PUSH2 0x1BB5 PUSH2 0x159C JUMP JUMPDEST JUMPDEST PUSH0 DUP4 ADD CALLDATALOAD PUSH8 0xFFFFFFFFFFFFFFFF DUP2 GT ISZERO PUSH2 0x1BD3 JUMPI PUSH2 0x1BD2 PUSH2 0x15A0 JUMP JUMPDEST JUMPDEST PUSH2 0x1BDF DUP6 DUP3 DUP7 ADD PUSH2 0x16B3 JUMP JUMPDEST SWAP3 POP POP PUSH1 0x20 PUSH2 0x1BF0 DUP6 DUP3 DUP7 ADD PUSH2 0x1857 JUMP JUMPDEST SWAP2 POP POP SWAP3 POP SWAP3 SWAP1 POP JUMP JUMPDEST PUSH0 PUSH1 0x80 DUP3 ADD SWAP1 POP PUSH2 0x1C0D PUSH0 DUP4 ADD DUP8 PUSH2 0x1B24 JUMP JUMPDEST DUP2 DUP2 SUB PUSH1 0x20 DUP4 ADD MSTORE PUSH2 0x1C1F DUP2 DUP7 PUSH2 0x18D1 JUMP JUMPDEST SWAP1 POP PUSH2 0x1C2E PUSH1 0x40 DUP4 ADD DUP6 PUSH2 0x17BF JUMP JUMPDEST PUSH2 0x1C3B PUSH1 0x60 DUP4 ADD DUP5 PUSH2 0x1AFC JUMP JUMPDEST SWAP6 SWAP5 POP POP POP POP POP JUMP JUMPDEST PUSH0 PUSH0 PUSH1 0x40 DUP4 DUP6 SUB SLT ISZERO PUSH2 0x1C5A JUMPI PUSH2 0x1C59 PUSH2 0x159C JUMP JUMPDEST JUMPDEST PUSH0 DUP4 ADD CALLDATALOAD PUSH8 0xFFFFFFFFFFFFFFFF DUP2 GT ISZERO PUSH2 0x1C77 JUMPI PUSH2 0x1C76 PUSH2 0x15A0 JUMP JUMPDEST JUMPDEST PUSH2 0x1C83 DUP6 DUP3 DUP7 ADD PUSH2 0x16B3 JUMP JUMPDEST SWAP3 POP POP PUSH1 0x20 DUP4 ADD CALLDATALOAD PUSH8 0xFFFFFFFFFFFFFFFF DUP2 GT ISZERO PUSH2 0x1CA4 JUMPI PUSH2 0x1CA3 PUSH2 0x15A0 JUMP JUMPDEST JUMPDEST PUSH2 0x1CB0 DUP6 DUP3 DUP7 ADD PUSH2 0x16B3 JUMP JUMPDEST SWAP2 POP POP SWAP3 POP SWAP3 SWAP1 POP JUMP JUMPDEST PUSH0 PUSH0 PUSH1 0x40 DUP4 DUP6 SUB SLT ISZERO PUSH2 0x1CD0 JUMPI PUSH2 0x1CCF PUSH2 0x159C JUMP JUMPDEST JUMPDEST PUSH0 PUSH2 0x1CDD DUP6 DUP3 DUP7 ADD PUSH2 0x1857 JUMP JUMPDEST SWAP3 POP POP PUSH1 0x20 PUSH2 0x1CEE DUP6 DUP3 DUP7 ADD PUSH2 0x1857 JUMP JUMPDEST SWAP2 POP POP SWAP3 POP SWAP3 SWAP1 POP JUMP JUMPDEST PUSH0 DUP2 MLOAD SWAP1 POP SWAP2 SWAP1 POP JUMP JUMPDEST PUSH0 DUP3 DUP3 MSTORE PUSH1 0x20 DUP3 ADD SWAP1 POP SWAP3 SWAP2 POP POP JUMP JUMPDEST PUSH0 DUP2 SWAP1 POP PUSH1 0x20 DUP3 ADD SWAP1 POP SWAP2 SWAP1 POP JUMP JUMPDEST PUSH2 0x1D2A DUP2 PUSH2 0x1806 JUMP JUMPDEST DUP3 MSTORE POP POP JUMP JUMPDEST PUSH2 0x1D39 DUP2 PUSH2 0x17B6 JUMP JUMPDEST DUP3 MSTORE POP POP JUMP JUMPDEST PUSH2 0x1D48 DUP2 PUSH2 0x16E0 JUMP JUMPDEST DUP3 MSTORE POP POP JUMP JUMPDEST PUSH0 PUSH1 0x80 DUP4 ADD PUSH0 DUP4 ADD MLOAD PUSH2 0x1D63 PUSH0 DUP7 ADD DUP3 PUSH2 0x1D21 JUMP JUMPDEST POP PUSH1 0x20 DUP4 ADD MLOAD DUP5 DUP3 SUB PUSH1 0x20 DUP7 ADD MSTORE PUSH2 0x1D7B DUP3 DUP3 PUSH2 0x19B8 JUMP JUMPDEST SWAP2 POP POP PUSH1 0x40 DUP4 ADD MLOAD PUSH2 0x1D90 PUSH1 0x40 DUP7 ADD DUP3 PUSH2 0x1D30 JUMP JUMPDEST POP PUSH1 0x60 DUP4 ADD MLOAD PUSH2 0x1DA3 PUSH1 0x60 DUP7 ADD DUP3 PUSH2 0x1D3F JUMP JUMPDEST POP DUP1 SWAP2 POP POP SWAP3 SWAP2 POP POP JUMP JUMPDEST PUSH0 PUSH2 0x1DB9 DUP4 DUP4 PUSH2 0x1D4E JUMP JUMPDEST SWAP1 POP SWAP3 SWAP2 POP POP JUMP JUMPDEST PUSH0 PUSH1 0x20 DUP3 ADD SWAP1 POP SWAP2 SWAP1 POP JUMP JUMPDEST PUSH0 PUSH2 0x1DD7 DUP3 PUSH2 0x1CF8 JUMP JUMPDEST PUSH2 0x1DE1 DUP2 DUP6 PUSH2 0x1D02 JUMP JUMPDEST SWAP4 POP DUP4 PUSH1 0x20 DUP3 MUL DUP6 ADD PUSH2 0x1DF3 DUP6 PUSH2 0x1D12 JUMP JUMPDEST DUP1 PUSH0 JUMPDEST DUP6 DUP2 LT ISZERO PUSH2 0x1E2E JUMPI DUP5 DUP5 SUB DUP10 MSTORE DUP2 MLOAD PUSH2 0x1E0F DUP6 DUP3 PUSH2 0x1DAE JUMP JUMPDEST SWAP5 POP PUSH2 0x1E1A DUP4 PUSH2 0x1DC1 JUMP JUMPDEST SWAP3 POP PUSH1 0x20 DUP11 ADD SWAP10 POP POP PUSH1 0x1 DUP2 ADD SWAP1 POP PUSH2 0x1DF6 JUMP JUMPDEST POP DUP3 SWAP8 POP DUP8 SWAP6 POP POP POP POP POP POP SWAP3 SWAP2 POP POP JUMP JUMPDEST PUSH0 PUSH1 0x20 DUP3 ADD SWAP1 POP DUP2 DUP2 SUB PUSH0 DUP4 ADD MSTORE PUSH2 0x1E58 DUP2 DUP5 PUSH2 0x1DCD JUMP JUMPDEST SWAP1 POP SWAP3 SWAP2 POP POP JUMP JUMPDEST PUSH0 DUP2 SWAP1 POP SWAP3 SWAP2 POP POP JUMP JUMPDEST PUSH0 PUSH2 0x1E74 DUP3 PUSH2 0x18A9 JUMP JUMPDEST PUSH2 0x1E7E DUP2 DUP6 PUSH2 0x1E60 JUMP JUMPDEST SWAP4 POP PUSH2 0x1E8E DUP2 DUP6 PUSH1 0x20 DUP7 ADD PUSH2 0x18C3 JUMP JUMPDEST DUP1 DUP5 ADD SWAP2 POP POP SWAP3 SWAP2 POP POP JUMP JUMPDEST PUSH0 PUSH2 0x1EA5 DUP3 DUP5 PUSH2 0x1E6A JUMP JUMPDEST SWAP2 POP DUP2 SWAP1 POP SWAP3 SWAP2 POP POP JUMP JUMPDEST PUSH32 0x497373756520646F6573206E6F74206578697374000000000000000000000000 PUSH0 DUP3 ADD MSTORE POP JUMP JUMPDEST PUSH0 PUSH2 0x1EE4 PUSH1 0x14 DUP4 PUSH2 0x18B3 JUMP JUMPDEST SWAP2 POP PUSH2 0x1EEF DUP3 PUSH2 0x1EB0 JUMP JUMPDEST PUSH1 0x20 DUP3 ADD SWAP1 POP SWAP2 SWAP1 POP JUMP JUMPDEST PUSH0 PUSH1 0x20 DUP3 ADD SWAP1 POP DUP2 DUP2 SUB PUSH0 DUP4 ADD MSTORE PUSH2 0x1F11 DUP2 PUSH2 0x1ED8 JUMP JUMPDEST SWAP1 POP SWAP2 SWAP1 POP JUMP JUMPDEST PUSH32 0x416C726561647920766F746564206F6E20746869732069737375650000000000 PUSH0 DUP3 ADD MSTORE POP JUMP JUMPDEST PUSH0 PUSH2 0x1F4C PUSH1 0x1B DUP4 PUSH2 0x18B3 JUMP JUMPDEST SWAP2 POP PUSH2 0x1F57 DUP3 PUSH2 0x1F18 JUMP JUMPDEST PUSH1 0x20 DUP3 ADD SWAP1 POP SWAP2 SWAP1 POP JUMP JUMPDEST PUSH0 PUSH1 0x20 DUP3 ADD SWAP1 POP DUP2 DUP2 SUB PUSH0 DUP4 ADD MSTORE PUSH2 0x1F79 DUP2 PUSH2 0x1F40 JUMP JUMPDEST SWAP1 POP SWAP2 SWAP1 POP JUMP JUMPDEST PUSH32 0x4E487B7100000000000000000000000000000000000000000000000000000000 PUSH0 MSTORE PUSH1 0x22 PUSH1 0x4 MSTORE PUSH1 0x24 PUSH0 REVERT JUMPDEST PUSH0 PUSH1 0x2 DUP3 DIV SWAP1 POP PUSH1 0x1 DUP3 AND DUP1 PUSH2 0x1FC4 JUMPI PUSH1 0x7F DUP3 AND SWAP2 POP JUMPDEST PUSH1 0x20 DUP3 LT DUP2 SUB PUSH2 0x1FD7 JUMPI PUSH2 0x1FD6 PUSH2 0x1F80 JUMP JUMPDEST JUMPDEST POP SWAP2 SWAP1 POP JUMP JUMPDEST PUSH0 DUP2 SWAP1 POP DUP2 PUSH0 MSTORE PUSH1 0x20 PUSH0 KECCAK256 SWAP1 POP SWAP2 SWAP1 POP JUMP JUMPDEST PUSH0 PUSH1 0x20 PUSH1 0x1F DUP4 ADD DIV SWAP1 POP SWAP2 SWAP1 POP JUMP JUMPDEST PUSH0 DUP3 DUP3 SHL SWAP1 POP SWAP3 SWAP2 POP POP JUMP JUMPDEST PUSH0 PUSH1 0x8 DUP4 MUL PUSH2 0x2039 PUSH32 0xFFFFFFFFFFFFFFFFFFFFFFFFFFFFFFFFFFFFFFFFFFFFFFFFFFFFFFFFFFFFFFFF DUP3 PUSH2 0x1FFE JUMP JUMPDEST PUSH2 0x2043 DUP7 DUP4 PUSH2 0x1FFE JUMP JUMPDEST SWAP6 POP DUP1 NOT DUP5 AND SWAP4 POP DUP1 DUP7 AND DUP5 OR SWAP3 POP POP POP SWAP4 SWAP3 POP POP POP JUMP JUMPDEST PUSH0 DUP2 SWAP1 POP SWAP2 SWAP1 POP JUMP JUMPDEST PUSH0 PUSH2 0x207E PUSH2 0x2079 PUSH2 0x2074 DUP5 PUSH2 0x17B6 JUMP JUMPDEST PUSH2 0x205B JUMP JUMPDEST PUSH2 0x17B6 JUMP JUMPDEST SWAP1 POP SWAP2 SWAP1 POP JUMP JUMPDEST PUSH0 DUP2 SWAP1 POP SWAP2 SWAP1 POP JUMP JUMPDEST PUSH2 0x2097 DUP4 PUSH2 0x2064 JUMP JUMPDEST PUSH2 0x20AB PUSH2 0x20A3 DUP3 PUSH2 0x2085 JUMP JUMPDEST DUP5 DUP5 SLOAD PUSH2 0x200A JUMP JUMPDEST DUP3 SSTORE POP POP POP POP JUMP JUMPDEST PUSH0 PUSH0 SWAP1 POP SWAP1 JUMP JUMPDEST PUSH2 0x20C2 PUSH2 0x20B3 JUMP JUMPDEST PUSH2 0x20CD DUP2 DUP5 DUP5 PUSH2 0x208E JUMP JUMPDEST POP POP POP JUMP JUMPDEST JUMPDEST DUP2 DUP2 LT ISZERO PUSH2 0x20F0 JUMPI PUSH2 0x20E5 PUSH0 DUP3 PUSH2 0x20BA JUMP JUMPDEST PUSH1 0x1 DUP2 ADD SWAP1 POP PUSH2 0x20D3 JUMP JUMPDEST POP POP JUMP JUMPDEST PUSH1 0x1F DUP3 GT ISZERO PUSH2 0x2135 JUMPI PUSH2 0x2106 DUP2 PUSH2 0x1FDD JUMP JUMPDEST PUSH2 0x210F DUP5 PUSH2 0x1FEF JUMP JUMPDEST DUP2 ADD PUSH1 0x20 DUP6 LT ISZERO PUSH2 0x211E JUMPI DUP2 SWAP1 POP JUMPDEST PUSH2 0x2132 PUSH2 0x212A DUP6 PUSH2 0x1FEF JUMP JUMPDEST DUP4 ADD DUP3 PUSH2 0x20D2 JUMP JUMPDEST POP POP JUMPDEST POP POP POP JUMP JUMPDEST PUSH0 DUP3 DUP3 SHR SWAP1 POP SWAP3 SWAP2 POP POP JUMP JUMPDEST PUSH0 PUSH2 0x2155 PUSH0 NOT DUP5 PUSH1 0x8 MUL PUSH2 0x213A JUMP JUMPDEST NOT DUP1 DUP4 AND SWAP2 POP POP SWAP3 SWAP2 POP POP JUMP JUMPDEST PUSH0 PUSH2 0x216D DUP4 DUP4 PUSH2 0x2146 JUMP JUMPDEST SWAP2 POP DUP3 PUSH1 0x2 MUL DUP3 OR SWAP1 POP SWAP3 SWAP2 POP POP JUMP JUMPDEST PUSH2 0x2186 DUP3 PUSH2 0x18A9 JUMP JUMPDEST PUSH8 0xFFFFFFFFFFFFFFFF DUP2 GT ISZERO PUSH2 0x219F JUMPI PUSH2 0x219E PUSH2 0x15BC JUMP JUMPDEST JUMPDEST PUSH2 0x21A9 DUP3 SLOAD PUSH2 0x1FAD JUMP JUMPDEST PUSH2 0x21B4 DUP3 DUP3 DUP6 PUSH2 0x20F4 JUMP JUMPDEST PUSH0 PUSH1 0x20 SWAP1 POP PUSH1 0x1F DUP4 GT PUSH1 0x1 DUP2 EQ PUSH2 0x21E5 JUMPI PUSH0 DUP5 ISZERO PUSH2 0x21D3 JUMPI DUP3 DUP8 ADD MLOAD SWAP1 POP JUMPDEST PUSH2 0x21DD DUP6 DUP3 PUSH2 0x2162 JUMP JUMPDEST DUP7 SSTORE POP PUSH2 0x2244 JUMP JUMPDEST PUSH1 0x1F NOT DUP5 AND PUSH2 0x21F3 DUP7 PUSH2 0x1FDD JUMP JUMPDEST PUSH0 JUMPDEST DUP3 DUP2 LT ISZERO PUSH2 0x221A JUMPI DUP5 DUP10 ADD MLOAD DUP3 SSTORE PUSH1 0x1 DUP3 ADD SWAP2 POP PUSH1 0x20 DUP6 ADD SWAP5 POP PUSH1 0x20 DUP2 ADD SWAP1 POP PUSH2 0x21F5 JUMP JUMPDEST DUP7 DUP4 LT ISZERO PUSH2 0x2237 JUMPI DUP5 DUP10 ADD MLOAD PUSH2 0x2233 PUSH1 0x1F DUP10 AND DUP3 PUSH2 0x2146 JUMP JUMPDEST DUP4 SSTORE POP JUMPDEST PUSH1 0x1 PUSH1 0x2 DUP9 MUL ADD DUP9 SSTORE POP POP POP JUMPDEST POP POP POP POP POP POP JUMP JUMPDEST PUSH32 0x4E487B7100000000000000000000000000000000000000000000000000000000 PUSH0 MSTORE PUSH1 0x11 PUSH1 0x4 MSTORE PUSH1 0x24 PUSH0 REVERT JUMPDEST PUSH0 PUSH2 0x2283 DUP3 PUSH2 0x17B6 JUMP JUMPDEST SWAP2 POP PUSH32 0xFFFFFFFFFFFFFFFFFFFFFFFFFFFFFFFFFFFFFFFFFFFFFFFFFFFFFFFFFFFFFFFF DUP3 SUB PUSH2 0x22B5 JUMPI PUSH2 0x22B4 PUSH2 0x224C JUMP JUMPDEST JUMPDEST PUSH1 0x1 DUP3 ADD SWAP1 POP SWAP2 SWAP1 POP JUMP JUMPDEST PUSH0 PUSH1 0x40 DUP3 ADD SWAP1 POP PUSH2 0x22D3 PUSH0 DUP4 ADD DUP6 PUSH2 0x1AFC JUMP JUMPDEST PUSH2 0x22E0 PUSH1 0x20 DUP4 ADD DUP5 PUSH2 0x17BF JUMP JUMPDEST SWAP4 SWAP3 POP POP POP JUMP JUMPDEST PUSH32 0x49737375652049442063616E6E6F7420626520656D7074790000000000000000 PUSH0 DUP3 ADD MSTORE POP JUMP JUMPDEST PUSH0 PUSH2 0x231B PUSH1 0x18 DUP4 PUSH2 0x18B3 JUMP JUMPDEST SWAP2 POP PUSH2 0x2326 DUP3 PUSH2 0x22E7 JUMP JUMPDEST PUSH1 0x20 DUP3 ADD SWAP1 POP SWAP2 SWAP1 POP JUMP JUMPDEST PUSH0 PUSH1 0x20 DUP3 ADD SWAP1 POP DUP2 DUP2 SUB PUSH0 DUP4 ADD MSTORE PUSH2 0x2348 DUP2 PUSH2 0x230F JUMP JUMPDEST SWAP1 POP SWAP2 SWAP1 POP JUMP JUMPDEST PUSH32 0x5469746C652063616E6E6F7420626520656D7074790000000000000000000000 PUSH0 DUP3 ADD MSTORE POP JUMP JUMPDEST PUSH0 PUSH2 0x2383 PUSH1 0x15 DUP4 PUSH2 0x18B3 JUMP JUMPDEST SWAP2 POP PUSH2 0x238E DUP3 PUSH2 0x234F JUMP JUMPDEST PUSH1 0x20 DUP3 ADD SWAP1 POP SWAP2 SWAP1 POP JUMP JUMPDEST PUSH0 PUSH1 0x20 DUP3 ADD SWAP1 POP DUP2 DUP2 SUB PUSH0 DUP4 ADD MSTORE PUSH2 0x23B0 DUP2 PUSH2 0x2377 JUMP JUMPDEST SWAP1 POP SWAP2 SWAP1 POP JUMP JUMPDEST PUSH32 0x497373756520616C7265616479207265636F7264656400000000000000000000 PUSH0 DUP3 ADD MSTORE POP JUMP JUMPDEST PUSH0 PUSH2 0x23EB PUSH1 0x16 DUP4 PUSH2 0x18B3 JUMP JUMPDEST SWAP2 POP PUSH2 0x23F6 DUP3 PUSH2 0x23B7 JUMP JUMPDEST PUSH1 0x20 DUP3 ADD SWAP1 POP SWAP2 SWAP1 POP JUMP JUMPDEST PUSH0 PUSH1 0x20 DUP3 ADD SWAP1 POP DUP2 DUP2 SUB PUSH0 DUP4 ADD MSTORE PUSH2 0x2418 DUP2 PUSH2 0x23DF JUMP JUMPDEST SWAP1 POP SWAP2 SWAP1 POP JUMP JUMPDEST PUSH0 PUSH1 0x40 DUP3 ADD SWAP1 POP DUP2 DUP2 SUB PUSH0 DUP4 ADD MSTORE PUSH2 0x2437 DUP2 DUP6 PUSH2 0x18D1 JUMP JUMPDEST SWAP1 POP PUSH2 0x2446 PUSH1 0x20 DUP4 ADD DUP5 PUSH2 0x17BF JUMP JUMPDEST SWAP4 SWAP3 POP POP POP JUMP JUMPDEST PUSH32 0x4F6666736574206F7574206F6620626F756E6473000000000000000000000000 PUSH0 DUP3 ADD MSTORE POP JUMP JUMPDEST PUSH0 PUSH2 0x2481 PUSH1 0x14 DUP4 PUSH2 0x18B3 JUMP JUMPDEST SWAP2 POP PUSH2 0x248C DUP3 PUSH2 0x244D JUMP JUMPDEST PUSH1 0x20 DUP3 ADD SWAP1 POP SWAP2 SWAP1 POP JUMP JUMPDEST PUSH0 PUSH1 0x20 DUP3 ADD SWAP1 POP DUP2 DUP2 SUB PUSH0 DUP4 ADD MSTORE PUSH2 0x24AE DUP2 PUSH2 0x2475 JUMP JUMPDEST SWAP1 POP SWAP2 SWAP1 POP JUMP JUMPDEST PUSH0 PUSH2 0x24BF DUP3 PUSH2 0x17B6 JUMP JUMPDEST SWAP2 POP PUSH2 0x24CA DUP4 PUSH2 0x17B6 JUMP JUMPDEST SWAP3 POP DUP3 DUP3 ADD SWAP1 POP DUP1 DUP3 GT ISZERO PUSH2 0x24E2 JUMPI PUSH2 0x24E1 PUSH2 0x224C JUMP JUMPDEST JUMPDEST SWAP3 SWAP2 POP POP JUMP JUMPDEST PUSH0 PUSH2 0x24F2 DUP3 PUSH2 0x17B6 JUMP JUMPDEST SWAP2 POP PUSH2 0x24FD DUP4 PUSH2 0x17B6 JUMP JUMPDEST SWAP3 POP DUP3 DUP3 SUB SWAP1 POP DUP2 DUP2 GT ISZERO PUSH2 0x2515 JUMPI PUSH2 0x2514 PUSH2 0x224C JUMP JUMPDEST JUMPDEST SWAP3 SWAP2 POP POP JUMP JUMPDEST PUSH32 0x4E487B7100000000000000000000000000000000000000000000000000000000 PUSH0 MSTORE PUSH1 0x32 PUSH1 0x4 MSTORE PUSH1 0x24 PUSH0 REVERT INVALID LOG2 PUSH5 0x6970667358 0x22 SLT KECCAK256 PUSH29 0x4C533DFDF47BB6691D8AFE69F034D8E31DC408F1FB2E76A6AF60307E92 MSTORE 0xC PUSH5 0x736F6C6343 STOP ADDMOD 0x1F STOP CALLER "
	},
	"Assembly": ".code\n  PUSH 80\t\t\tcontract CivicIssueTracker {\\r...\n  PUSH 40\t\t\tcontract CivicIssueTracker {\\r...\n  MSTORE \t\t\tcontract CivicIssueTracker {\\r...\n  CALLVALUE \t\t\tcontract CivicIssueTracker {\\r...\n  DUP1 \t\t\tcontract CivicIssueTracker {\\r...\n  ISZERO \t\t\tcontract CivicIssueTracker {\\r...\n  PUSH [tag] 1\t\t\tcontract CivicIssueTracker {\\r...\n  JUMPI \t\t\tcontract CivicIssueTracker {\\r...\n  PUSH 0\t\t\tcontract CivicIssueTracker {\\r...\n  PUSH 0\t\t\tcontract CivicIssueTracker {\\r...\n  REVERT \t\t\tcontract CivicIssueTracker {\\r...\ntag 1\t\t\tcontract CivicIssueTracker {\\r...\n  JUMPDEST \t\t\tcontract CivicIssueTracker {\\r...\n  POP \t\t\tcontract CivicIssueTracker {\\r...\n  PUSH #[$] 0000000000000000000000000000000000000000000000000000000000000000\t\t\tcontract CivicIssueTracker {\\r...\n  DUP1 \t\t\tcontract CivicIssueTracker {\\r...\n  PUSH [$] 0000000000000000000000000000000000000000000000000000000000000000\t\t\tcontract CivicIssueTracker {\\r...\n  PUSH 0\t\t\tcontract CivicIssueTracker {\\r...\n  CODECOPY \t\t\tcontract CivicIssueTracker {\\r...\n  PUSH 0\t\t\tcontract CivicIssueTracker {\\r...\n  RETURN \t\t\tcontract CivicIssueTracker {\\r...\n.data\n  0:\n    .code\n      PUSH 80\t\t\tcontract CivicIssueTracker {\\r...\n      PUSH 40\t\t\tcontract CivicIssueTracker {\\r...\n      MSTORE \t\t\tcontract CivicIssueTracker {\\r...\n      CALLVALUE \t\t\tcontract CivicIssueTracker {\\r...\n      DUP1 \t\t\tcontract CivicIssueTracker {\\r...\n      ISZERO \t\t\tcontract CivicIssueTracker {\\r...\n      PUSH [tag] 1\t\t\tcontract CivicIssueTracker {\\r...\n      JUMPI \t\t\tcontract CivicIssueTracker {\\r...\n      PUSH 0\t\t\tcontract CivicIssueTracker {\\r...\n      PUSH 0\t\t\tcontract CivicIssueTracker {\\r...\n      REVERT \t\t\tcontract CivicIssueTracker {\\r...\n    tag 1\t\t\tcontract CivicIssueTracker {\\r...\n      JUMPDEST \t\t\tcontract CivicIssueTracker {\\r...\n      POP \t\t\tcontract CivicIssueTracker {\\r...\n      PUSH 4\t\t\tcontract CivicIssueTracker {\\r...\n      CALLDATASIZE \t\t\tcontract CivicIssueTracker {\\r...\n      LT \t\t\tcontract CivicIssueTracker {\\r...\n      PUSH [tag] 2\t\t\tcontract CivicIssueTracker {\\r...\n      JUMPI \t\t\tcontract CivicIssueTracker {\\r...\n      PUSH 0\t\t\tcontract CivicIssueTracker {\\r...\n      CALLDATALOAD \t\t\tcontract CivicIssueTracker {\\r...\n      PUSH E0\t\t\tcontract CivicIssueTracker {\\r...\n      SHR \t\t\tcontract CivicIssueTracker {\\r...\n      DUP1 \t\t\tcontract CivicIssueTracker {\\r...\n      PUSH 89376869\t\t\tcontract CivicIssueTracker {\\r...\n      GT \t\t\tcontract CivicIssueTracker {\\r...\n      PUSH [tag] 17\t\t\tcontract CivicIssueTracker {\\r...\n      JUMPI \t\t\tcontract CivicIssueTracker {\\r...\n      DUP1 \t\t\tcontract CivicIssueTracker {\\r...\n      PUSH C6847060\t\t\tcontract CivicIssueTracker {\\r...\n      GT \t\t\tcontract CivicIssueTracker {\\r...\n      PUSH [tag] 18\t\t\tcontract CivicIssueTracker {\\r...\n      JUMPI \t\t\tcontract CivicIssueTracker {\\r...\n      DUP1 \t\t\tcontract CivicIssueTracker {\\r...\n      PUSH C6847060\t\t\tcontract CivicIssueTracker {\\r...\n      EQ \t\t\tcontract CivicIssueTracker {\\r...\n      PUSH [tag] 13\t\t\tcontract CivicIssueTracker {\\r...\n      JUMPI \t\t\tcontract CivicIssueTracker {\\r...\n      DUP1 \t\t\tcontract CivicIssueTracker {\\r...\n      PUSH E38BA436\t\t\tcontract CivicIssueTracker {\\r...\n      EQ \t\t\tcontract CivicIssueTracker {\\r...\n      PUSH [tag] 14\t\t\tcontract CivicIssueTracker {\\r...\n      JUMPI \t\t\tcontract CivicIssueTracker {\\r...\n      DUP1 \t\t\tcontract CivicIssueTracker {\\r...\n      PUSH F62EF4B6\t\t\tcontract CivicIssueTracker {\\r...\n      EQ \t\t\tcontract CivicIssueTracker {\\r...\n      PUSH [tag] 15\t\t\tcontract CivicIssueTracker {\\r...\n      JUMPI \t\t\tcontract CivicIssueTracker {\\r...\n      DUP1 \t\t\tcontract CivicIssueTracker {\\r...\n      PUSH F81E08C6\t\t\tcontract CivicIssueTracker {\\r...\n      EQ \t\t\tcontract CivicIssueTracker {\\r...\n      PUSH [tag] 16\t\t\tcontract CivicIssueTracker {\\r...\n      JUMPI \t\t\tcontract CivicIssueTracker {\\r...\n      PUSH [tag] 2\t\t\tcontract CivicIssueTracker {\\r...\n      JUMP \t\t\tcontract CivicIssueTracker {\\r...\n    tag 18\t\t\tcontract CivicIssueTracker {\\r...\n      JUMPDEST \t\t\tcontract CivicIssueTracker {\\r...\n      DUP1 \t\t\tcontract CivicIssueTracker {\\r...\n      PUSH 89376869\t\t\tcontract CivicIssueTracker {\\r...\n      EQ \t\t\tcontract CivicIssueTracker {\\r...\n      PUSH [tag] 10\t\t\tcontract CivicIssueTracker {\\r...\n      JUMPI \t\t\tcontract CivicIssueTracker {\\r...\n      DUP1 \t\t\tcontract CivicIssueTracker {\\r...\n      PUSH 9C667C7D\t\t\tcontract CivicIssueTracker {\\r...\n      EQ \t\t\tcontract CivicIssueTracker {\\r...\n      PUSH [tag] 11\t\t\tcontract CivicIssueTracker {\\r...\n      JUMPI \t\t\tcontract CivicIssueTracker {\\r...\n      DUP1 \t\t\tcontract CivicIssueTracker {\\r...\n      PUSH 9EBD2677\t\t\tcontract CivicIssueTracker {\\r...\n      EQ \t\t\tcontract CivicIssueTracker {\\r...\n      PUSH [tag] 12\t\t\tcontract CivicIssueTracker {\\r...\n      JUMPI \t\t\tcontract CivicIssueTracker {\\r...\n      PUSH [tag] 2\t\t\tcontract CivicIssueTracker {\\r...\n      JUMP \t\t\tcontract CivicIssueTracker {\\r...\n    tag 17\t\t\tcontract CivicIssueTracker {\\r...\n      JUMPDEST \t\t\tcontract CivicIssueTracker {\\r...\n      DUP1 \t\t\tcontract CivicIssueTracker {\\r...\n      PUSH 31F4FFF0\t\t\tcontract CivicIssueTracker {\\r...\n      GT \t\t\tcontract CivicIssueTracker {\\r...\n      PUSH [tag] 19\t\t\tcontract CivicIssueTracker {\\r...\n      JUMPI \t\t\tcontract CivicIssueTracker {\\r...\n      DUP1 \t\t\tcontract CivicIssueTracker {\\r...\n      PUSH 31F4FFF0\t\t\tcontract CivicIssueTracker {\\r...\n      EQ \t\t\tcontract CivicIssueTracker {\\r...\n      PUSH [tag] 6\t\t\tcontract CivicIssueTracker {\\r...\n      JUMPI \t\t\tcontract CivicIssueTracker {\\r...\n      DUP1 \t\t\tcontract CivicIssueTracker {\\r...\n      PUSH 3535CA9A\t\t\tcontract CivicIssueTracker {\\r...\n      EQ \t\t\tcontract CivicIssueTracker {\\r...\n      PUSH [tag] 7\t\t\tcontract CivicIssueTracker {\\r...\n      JUMPI \t\t\tcontract CivicIssueTracker {\\r...\n      DUP1 \t\t\tcontract CivicIssueTracker {\\r...\n      PUSH 4B098976\t\t\tcontract CivicIssueTracker {\\r...\n      EQ \t\t\tcontract CivicIssueTracker {\\r...\n      PUSH [tag] 8\t\t\tcontract CivicIssueTracker {\\r...\n      JUMPI \t\t\tcontract CivicIssueTracker {\\r...\n      DUP1 \t\t\tcontract CivicIssueTracker {\\r...\n      PUSH 814A1096\t\t\tcontract CivicIssueTracker {\\r...\n      EQ \t\t\tcontract CivicIssueTracker {\\r...\n      PUSH [tag] 9\t\t\tcontract CivicIssueTracker {\\r...\n      JUMPI \t\t\tcontract CivicIssueTracker {\\r...\n      PUSH [tag] 2\t\t\tcontract CivicIssueTracker {\\r...\n      JUMP \t\t\tcontract CivicIssueTracker {\\r...\n    tag 19\t\t\tcontract CivicIssueTracker {\\r...\n      JUMPDEST \t\t\tcontract CivicIssueTracker {\\r...\n      DUP1 \t\t\tcontract CivicIssueTracker {\\r...\n      PUSH F2EAC2\t\t\tcontract CivicIssueTracker {\\r...\n      EQ \t\t\tcontract CivicIssueTracker {\\r...\n      PUSH [tag] 3\t\t\tcontract CivicIssueTracker {\\r...\n      JUMPI \t\t\tcontract CivicIssueTracker {\\r...\n      DUP1 \t\t\tcontract CivicIssueTracker {\\r...\n      PUSH 69953A7\t\t\tcontract CivicIssueTracker {\\r...\n      EQ \t\t\tcontract CivicIssueTracker {\\r...\n      PUSH [tag] 4\t\t\tcontract CivicIssueTracker {\\r...\n      JUMPI \t\t\tcontract CivicIssueTracker {\\r...\n      DUP1 \t\t\tcontract CivicIssueTracker {\\r...\n      PUSH 287DE362\t\t\tcontract CivicIssueTracker {\\r...\n      EQ \t\t\tcontract CivicIssueTracker {\\r...\n      PUSH [tag] 5\t\t\tcontract CivicIssueTracker {\\r...\n      JUMPI \t\t\tcontract CivicIssueTracker {\\r...\n    tag 2\t\t\tcontract CivicIssueTracker {\\r...\n      JUMPDEST \t\t\tcontract CivicIssueTracker {\\r...\n      PUSH 0\t\t\tcontract CivicIssueTracker {\\r...\n      PUSH 0\t\t\tcontract CivicIssueTracker {\\r...\n      REVERT \t\t\tcontract CivicIssueTracker {\\r...\n    tag 3\t\t\tfunction recordVote(\\r\\n      ...\n      JUMPDEST \t\t\tfunction recordVote(\\r\\n      ...\n      PUSH [tag] 20\t\t\tfunction recordVote(\\r\\n      ...\n      PUSH 4\t\t\tfunction recordVote(\\r\\n      ...\n      DUP1 \t\t\tfunction recordVote(\\r\\n      ...\n      CALLDATASIZE \t\t\tfunction recordVote(\\r\\n      ...\n      SUB \t\t\tfunction recordVote(\\r\\n      ...\n      DUP2 \t\t\tfunction recordVote(\\r\\n      ...\n      ADD \t\t\tfunction recordVote(\\r\\n      ...\n      SWAP1 \t\t\tfunction recordVote(\\r\\n      ...\n      PUSH [tag] 21\t\t\tfunction recordVote(\\r\\n      ...\n      SWAP2 \t\t\tfunction recordVote(\\r\\n      ...\n      SWAP1 \t\t\tfunction recordVote(\\r\\n      ...\n      PUSH [tag] 22\t\t\tfunction recordVote(\\r\\n      ...\n      JUMP \t\t\tfunction recordVote(\\r\\n      ...\n    tag 21\t\t\tfunction recordVote(\\r\\n      ...\n      JUMPDEST \t\t\tfunction recordVote(\\r\\n      ...\n      PUSH [tag] 23\t\t\tfunction recordVote(\\r\\n      ...\n      JUMP \t\t\tfunction recordVote(\\r\\n      ...\n    tag 20\t\t\tfunction recordVote(\\r\\n      ...\n      JUMPDEST \t\t\tfunction recordVote(\\r\\n      ...\n      STOP \t\t\tfunction recordVote(\\r\\n      ...\n    tag 4\t\t\tfunction getVoteCount(string m...\n      JUMPDEST \t\t\tfunction getVoteCount(string m...\n      PUSH [tag] 24\t\t\tfunction getVoteCount(string m...\n      PUSH 4\t\t\tfunction getVoteCount(string m...\n      DUP1 \t\t\tfunction getVoteCount(string m...\n      CALLDATASIZE \t\t\tfunction getVoteCount(string m...\n      SUB \t\t\tfunction getVoteCount(string m...\n      DUP2 \t\t\tfunction getVoteCount(string m...\n      ADD \t\t\tfunction getVoteCount(string m...\n      SWAP1 \t\t\tfunction getVoteCount(string m...\n      PUSH [tag] 25\t\t\tfunction getVoteCount(string m...\n      SWAP2 \t\t\tfunction getVoteCount(string m...\n      SWAP1 \t\t\tfunction getVoteCount(string m...\n      PUSH [tag] 26\t\t\tfunction getVoteCount(string m...\n      JUMP \t\t\tfunction getVoteCount(string m...\n    tag 25\t\t\tfunction getVoteCount(string m...\n      JUMPDEST \t\t\tfunction getVoteCount(string m...\n      PUSH [tag] 27\t\t\tfunction getVoteCount(string m...\n      JUMP \t\t\tfunction getVoteCount(string m...\n    tag 24\t\t\tfunction getVoteCount(string m...\n      JUMPDEST \t\t\tfunction getVoteCount(string m...\n      PUSH 40\t\t\tfunction getVoteCount(string m...\n      MLOAD \t\t\tfunction getVoteCount(string m...\n      PUSH [tag] 28\t\t\tfunction getVoteCount(string m...\n      SWAP2 \t\t\tfunction getVoteCount(string m...\n      SWAP1 \t\t\tfunction getVoteCount(string m...\n      PUSH [tag] 29\t\t\tfunction getVoteCount(string m...\n      JUMP \t\t\tfunction getVoteCount(string m...\n    tag 28\t\t\tfunction getVoteCount(string m...\n      JUMPDEST \t\t\tfunction getVoteCount(string m...\n      PUSH 40\t\t\tfunction getVoteCount(string m...\n      MLOAD \t\t\tfunction getVoteCount(string m...\n      DUP1 \t\t\tfunction getVoteCount(string m...\n      SWAP2 \t\t\tfunction getVoteCount(string m...\n      SUB \t\t\tfunction getVoteCount(string m...\n      SWAP1 \t\t\tfunction getVoteCount(string m...\n      RETURN \t\t\tfunction getVoteCount(string m...\n    tag 5\t\t\tmapping(address => string[]) p...\n      JUMPDEST \t\t\tmapping(address => string[]) p...\n      PUSH [tag] 30\t\t\tmapping(address => string[]) p...\n      PUSH 4\t\t\tmapping(address => string[]) p...\n      DUP1 \t\t\tmapping(address => string[]) p...\n      CALLDATASIZE \t\t\tmapping(address => string[]) p...\n      SUB \t\t\tmapping(address => string[]) p...\n      DUP2 \t\t\tmapping(address => string[]) p...\n      ADD \t\t\tmapping(address => string[]) p...\n      SWAP1 \t\t\tmapping(address => string[]) p...\n      PUSH [tag] 31\t\t\tmapping(address => string[]) p...\n      SWAP2 \t\t\tmapping(address => string[]) p...\n      SWAP1 \t\t\tmapping(address => string[]) p...\n      PUSH [tag] 32\t\t\tmapping(address => string[]) p...\n      JUMP \t\t\tmapping(address => string[]) p...\n    tag 31\t\t\tmapping(address => string[]) p...\n      JUMPDEST \t\t\tmapping(address => string[]) p...\n      PUSH [tag] 33\t\t\tmapping(address => string[]) p...\n      JUMP \t\t\tmapping(address => string[]) p...\n    tag 30\t\t\tmapping(address => string[]) p...\n      JUMPDEST \t\t\tmapping(address => string[]) p...\n      PUSH 40\t\t\tmapping(address => string[]) p...\n      MLOAD \t\t\tmapping(address => string[]) p...\n      PUSH [tag] 34\t\t\tmapping(address => string[]) p...\n      SWAP2 \t\t\tmapping(address => string[]) p...\n      SWAP1 \t\t\tmapping(address => string[]) p...\n      PUSH [tag] 35\t\t\tmapping(address => string[]) p...\n      JUMP \t\t\tmapping(address => string[]) p...\n    tag 34\t\t\tmapping(address => string[]) p...\n      JUMPDEST \t\t\tmapping(address => string[]) p...\n      PUSH 40\t\t\tmapping(address => string[]) p...\n      MLOAD \t\t\tmapping(address => string[]) p...\n      DUP1 \t\t\tmapping(address => string[]) p...\n      SWAP2 \t\t\tmapping(address => string[]) p...\n      SUB \t\t\tmapping(address => string[]) p...\n      SWAP1 \t\t\tmapping(address => string[]) p...\n      RETURN \t\t\tmapping(address => string[]) p...\n    tag 6\t\t\tstring[] public allIssueIds\n      JUMPDEST \t\t\tstring[] public allIssueIds\n      PUSH [tag] 36\t\t\tstring[] public allIssueIds\n      PUSH 4\t\t\tstring[] public allIssueIds\n      DUP1 \t\t\tstring[] public allIssueIds\n      CALLDATASIZE \t\t\tstring[] public allIssueIds\n      SUB \t\t\tstring[] public allIssueIds\n      DUP2 \t\t\tstring[] public allIssueIds\n      ADD \t\t\tstring[] public allIssueIds\n      SWAP1 \t\t\tstring[] public allIssueIds\n      PUSH [tag] 37\t\t\tstring[] public allIssueIds\n      SWAP2 \t\t\tstring[] public allIssueIds\n      SWAP1 \t\t\tstring[] public allIssueIds\n      PUSH [tag] 38\t\t\tstring[] public allIssueIds\n      JUMP \t\t\tstring[] public allIssueIds\n    tag 37\t\t\tstring[] public allIssueIds\n      JUMPDEST \t\t\tstring[] public allIssueIds\n      PUSH [tag] 39\t\t\tstring[] public allIssueIds\n      JUMP \t\t\tstring[] public allIssueIds\n    tag 36\t\t\tstring[] public allIssueIds\n      JUMPDEST \t\t\tstring[] public allIssueIds\n      PUSH 40\t\t\tstring[] public allIssueIds\n      MLOAD \t\t\tstring[] public allIssueIds\n      PUSH [tag] 40\t\t\tstring[] public allIssueIds\n      SWAP2 \t\t\tstring[] public allIssueIds\n      SWAP1 \t\t\tstring[] public allIssueIds\n      PUSH [tag] 35\t\t\tstring[] public allIssueIds\n      JUMP \t\t\tstring[] public allIssueIds\n    tag 40\t\t\tstring[] public allIssueIds\n      JUMPDEST \t\t\tstring[] public allIssueIds\n      PUSH 40\t\t\tstring[] public allIssueIds\n      MLOAD \t\t\tstring[] public allIssueIds\n      DUP1 \t\t\tstring[] public allIssueIds\n      SWAP2 \t\t\tstring[] public allIssueIds\n      SUB \t\t\tstring[] public allIssueIds\n      SWAP1 \t\t\tstring[] public allIssueIds\n      RETURN \t\t\tstring[] public allIssueIds\n    tag 7\t\t\tfunction getUserIssues(address...\n      JUMPDEST \t\t\tfunction getUserIssues(address...\n      PUSH [tag] 41\t\t\tfunction getUserIssues(address...\n      PUSH 4\t\t\tfunction getUserIssues(address...\n      DUP1 \t\t\tfunction getUserIssues(address...\n      CALLDATASIZE \t\t\tfunction getUserIssues(address...\n      SUB \t\t\tfunction getUserIssues(address...\n      DUP2 \t\t\tfunction getUserIssues(address...\n      ADD \t\t\tfunction getUserIssues(address...\n      SWAP1 \t\t\tfunction getUserIssues(address...\n      PUSH [tag] 42\t\t\tfunction getUserIssues(address...\n      SWAP2 \t\t\tfunction getUserIssues(address...\n      SWAP1 \t\t\tfunction getUserIssues(address...\n      PUSH [tag] 43\t\t\tfunction getUserIssues(address...\n      JUMP \t\t\tfunction getUserIssues(address...\n    tag 42\t\t\tfunction getUserIssues(address...\n      JUMPDEST \t\t\tfunction getUserIssues(address...\n      PUSH [tag] 44\t\t\tfunction getUserIssues(address...\n      JUMP \t\t\tfunction getUserIssues(address...\n    tag 41\t\t\tfunction getUserIssues(address...\n      JUMPDEST \t\t\tfunction getUserIssues(address...\n      PUSH 40\t\t\tfunction getUserIssues(address...\n      MLOAD \t\t\tfunction getUserIssues(address...\n      PUSH [tag] 45\t\t\tfunction getUserIssues(address...\n      SWAP2 \t\t\tfunction getUserIssues(address...\n      SWAP1 \t\t\tfunction getUserIssues(address...\n      PUSH [tag] 46\t\t\tfunction getUserIssues(address...\n      JUMP \t\t\tfunction getUserIssues(address...\n    tag 45\t\t\tfunction getUserIssues(address...\n      JUMPDEST \t\t\tfunction getUserIssues(address...\n      PUSH 40\t\t\tfunction getUserIssues(address...\n      MLOAD \t\t\tfunction getUserIssues(address...\n      DUP1 \t\t\tfunction getUserIssues(address...\n      SWAP2 \t\t\tfunction getUserIssues(address...\n      SUB \t\t\tfunction getUserIssues(address...\n      SWAP1 \t\t\tfunction getUserIssues(address...\n      RETURN \t\t\tfunction getUserIssues(address...\n    tag 8\t\t\tfunction checkIfVoted(address ...\n      JUMPDEST \t\t\tfunction checkIfVoted(address ...\n      PUSH [tag] 47\t\t\tfunction checkIfVoted(address ...\n      PUSH 4\t\t\tfunction checkIfVoted(address ...\n      DUP1 \t\t\tfunction checkIfVoted(address ...\n      CALLDATASIZE \t\t\tfunction checkIfVoted(address ...\n      SUB \t\t\tfunction checkIfVoted(address ...\n      DUP2 \t\t\tfunction checkIfVoted(address ...\n      ADD \t\t\tfunction checkIfVoted(address ...\n      SWAP1 \t\t\tfunction checkIfVoted(address ...\n      PUSH [tag] 48\t\t\tfunction checkIfVoted(address ...\n      SWAP2 \t\t\tfunction checkIfVoted(address ...\n      SWAP1 \t\t\tfunction checkIfVoted(address ...\n      PUSH [tag] 49\t\t\tfunction checkIfVoted(address ...\n      JUMP \t\t\tfunction checkIfVoted(address ...\n    tag 48\t\t\tfunction checkIfVoted(address ...\n      JUMPDEST \t\t\tfunction checkIfVoted(address ...\n      PUSH [tag] 50\t\t\tfunction checkIfVoted(address ...\n      JUMP \t\t\tfunction checkIfVoted(address ...\n    tag 47\t\t\tfunction checkIfVoted(address ...\n      JUMPDEST \t\t\tfunction checkIfVoted(address ...\n      PUSH 40\t\t\tfunction checkIfVoted(address ...\n      MLOAD \t\t\tfunction checkIfVoted(address ...\n      PUSH [tag] 51\t\t\tfunction checkIfVoted(address ...\n      SWAP2 \t\t\tfunction checkIfVoted(address ...\n      SWAP1 \t\t\tfunction checkIfVoted(address ...\n      PUSH [tag] 52\t\t\tfunction checkIfVoted(address ...\n      JUMP \t\t\tfunction checkIfVoted(address ...\n    tag 51\t\t\tfunction checkIfVoted(address ...\n      JUMPDEST \t\t\tfunction checkIfVoted(address ...\n      PUSH 40\t\t\tfunction checkIfVoted(address ...\n      MLOAD \t\t\tfunction checkIfVoted(address ...\n      DUP1 \t\t\tfunction checkIfVoted(address ...\n      SWAP2 \t\t\tfunction checkIfVoted(address ...\n      SUB \t\t\tfunction checkIfVoted(address ...\n      SWAP1 \t\t\tfunction checkIfVoted(address ...\n      RETURN \t\t\tfunction checkIfVoted(address ...\n    tag 9\t\t\tfunction getIssue(string memor...\n      JUMPDEST \t\t\tfunction getIssue(string memor...\n      PUSH [tag] 53\t\t\tfunction getIssue(string memor...\n      PUSH 4\t\t\tfunction getIssue(string memor...\n      DUP1 \t\t\tfunction getIssue(string memor...\n      CALLDATASIZE \t\t\tfunction getIssue(string memor...\n      SUB \t\t\tfunction getIssue(string memor...\n      DUP2 \t\t\tfunction getIssue(string memor...\n      ADD \t\t\tfunction getIssue(string memor...\n      SWAP1 \t\t\tfunction getIssue(string memor...\n      PUSH [tag] 54\t\t\tfunction getIssue(string memor...\n      SWAP2 \t\t\tfunction getIssue(string memor...\n      SWAP1 \t\t\tfunction getIssue(string memor...\n      PUSH [tag] 26\t\t\tfunction getIssue(string memor...\n      JUMP \t\t\tfunction getIssue(string memor...\n    tag 54\t\t\tfunction getIssue(string memor...\n      JUMPDEST \t\t\tfunction getIssue(string memor...\n      PUSH [tag] 55\t\t\tfunction getIssue(string memor...\n      JUMP \t\t\tfunction getIssue(string memor...\n    tag 53\t\t\tfunction getIssue(string memor...\n      JUMPDEST \t\t\tfunction getIssue(string memor...\n      PUSH 40\t\t\tfunction getIssue(string memor...\n      MLOAD \t\t\tfunction getIssue(string memor...\n      PUSH [tag] 56\t\t\tfunction getIssue(string memor...\n      SWAP7 \t\t\tfunction getIssue(string memor...\n      SWAP6 \t\t\tfunction getIssue(string memor...\n      SWAP5 \t\t\tfunction getIssue(string memor...\n      SWAP4 \t\t\tfunction getIssue(string memor...\n      SWAP3 \t\t\tfunction getIssue(string memor...\n      SWAP2 \t\t\tfunction getIssue(string memor...\n      SWAP1 \t\t\tfunction getIssue(string memor...\n      PUSH [tag] 57\t\t\tfunction getIssue(string memor...\n      JUMP \t\t\tfunction getIssue(string memor...\n    tag 56\t\t\tfunction getIssue(string memor...\n      JUMPDEST \t\t\tfunction getIssue(string memor...\n      PUSH 40\t\t\tfunction getIssue(string memor...\n      MLOAD \t\t\tfunction getIssue(string memor...\n      DUP1 \t\t\tfunction getIssue(string memor...\n      SWAP2 \t\t\tfunction getIssue(string memor...\n      SUB \t\t\tfunction getIssue(string memor...\n      SWAP1 \t\t\tfunction getIssue(string memor...\n      RETURN \t\t\tfunction getIssue(string memor...\n    tag 10\t\t\tmapping(string => Vote[]) publ...\n      JUMPDEST \t\t\tmapping(string => Vote[]) publ...\n      PUSH [tag] 58\t\t\tmapping(string => Vote[]) publ...\n      PUSH 4\t\t\tmapping(string => Vote[]) publ...\n      DUP1 \t\t\tmapping(string => Vote[]) publ...\n      CALLDATASIZE \t\t\tmapping(string => Vote[]) publ...\n      SUB \t\t\tmapping(string => Vote[]) publ...\n      DUP2 \t\t\tmapping(string => Vote[]) publ...\n      ADD \t\t\tmapping(string => Vote[]) publ...\n      SWAP1 \t\t\tmapping(string => Vote[]) publ...\n      PUSH [tag] 59\t\t\tmapping(string => Vote[]) publ...\n      SWAP2 \t\t\tmapping(string => Vote[]) publ...\n      SWAP1 \t\t\tmapping(string => Vote[]) publ...\n      PUSH [tag] 60\t\t\tmapping(string => Vote[]) publ...\n      JUMP \t\t\tmapping(string => Vote[]) publ...\n    tag 59\t\t\tmapping(string => Vote[]) publ...\n      JUMPDEST \t\t\tmapping(string => Vote[]) publ...\n      PUSH [tag] 61\t\t\tmapping(string => Vote[]) publ...\n      JUMP \t\t\tmapping(string => Vote[]) publ...\n    tag 58\t\t\tmapping(string => Vote[]) publ...\n      JUMPDEST \t\t\tmapping(string => Vote[]) publ...\n      PUSH 40\t\t\tmapping(string => Vote[]) publ...\n      MLOAD \t\t\tmapping(string => Vote[]) publ...\n      PUSH [tag] 62\t\t\tmapping(string => Vote[]) publ...\n      SWAP5 \t\t\tmapping(string => Vote[]) publ...\n      SWAP4 \t\t\tmapping(string => Vote[]) publ...\n      SWAP3 \t\t\tmapping(string => Vote[]) publ...\n      SWAP2 \t\t\tmapping(string => Vote[]) publ...\n      SWAP1 \t\t\tmapping(string => Vote[]) publ...\n      PUSH [tag] 63\t\t\tmapping(string => Vote[]) publ...\n      JUMP \t\t\tmapping(string => Vote[]) publ...\n    tag 62\t\t\tmapping(string => Vote[]) publ...\n      JUMPDEST \t\t\tmapping(string => Vote[]) publ...\n      PUSH 40\t\t\tmapping(string => Vote[]) publ...\n      MLOAD \t\t\tmapping(string => Vote[]) publ...\n      DUP1 \t\t\tmapping(string => Vote[]) publ...\n      SWAP2 \t\t\tmapping(string => Vote[]) publ...\n      SUB \t\t\tmapping(string => Vote[]) publ...\n      SWAP1 \t\t\tmapping(string => Vote[]) publ...\n      RETURN \t\t\tmapping(string => Vote[]) publ...\n    tag 11\t\t\tfunction recordIssue(\\r\\n     ...\n      JUMPDEST \t\t\tfunction recordIssue(\\r\\n     ...\n      PUSH [tag] 64\t\t\tfunction recordIssue(\\r\\n     ...\n      PUSH 4\t\t\tfunction recordIssue(\\r\\n     ...\n      DUP1 \t\t\tfunction recordIssue(\\r\\n     ...\n      CALLDATASIZE \t\t\tfunction recordIssue(\\r\\n     ...\n      SUB \t\t\tfunction recordIssue(\\r\\n     ...\n      DUP2 \t\t\tfunction recordIssue(\\r\\n     ...\n      ADD \t\t\tfunction recordIssue(\\r\\n     ...\n      SWAP1 \t\t\tfunction recordIssue(\\r\\n     ...\n      PUSH [tag] 65\t\t\tfunction recordIssue(\\r\\n     ...\n      SWAP2 \t\t\tfunction recordIssue(\\r\\n     ...\n      SWAP1 \t\t\tfunction recordIssue(\\r\\n     ...\n      PUSH [tag] 66\t\t\tfunction recordIssue(\\r\\n     ...\n      JUMP \t\t\tfunction recordIssue(\\r\\n     ...\n    tag 65\t\t\tfunction recordIssue(\\r\\n     ...\n      JUMPDEST \t\t\tfunction recordIssue(\\r\\n     ...\n      PUSH [tag] 67\t\t\tfunction recordIssue(\\r\\n     ...\n      JUMP \t\t\tfunction recordIssue(\\r\\n     ...\n    tag 64\t\t\tfunction recordIssue(\\r\\n     ...\n      JUMPDEST \t\t\tfunction recordIssue(\\r\\n     ...\n      STOP \t\t\tfunction recordIssue(\\r\\n     ...\n    tag 12\t\t\tfunction getAllIssues(uint256 ...\n      JUMPDEST \t\t\tfunction getAllIssues(uint256 ...\n      PUSH [tag] 68\t\t\tfunction getAllIssues(uint256 ...\n      PUSH 4\t\t\tfunction getAllIssues(uint256 ...\n      DUP1 \t\t\tfunction getAllIssues(uint256 ...\n      CALLDATASIZE \t\t\tfunction getAllIssues(uint256 ...\n      SUB \t\t\tfunction getAllIssues(uint256 ...\n      DUP2 \t\t\tfunction getAllIssues(uint256 ...\n      ADD \t\t\tfunction getAllIssues(uint256 ...\n      SWAP1 \t\t\tfunction getAllIssues(uint256 ...\n      PUSH [tag] 69\t\t\tfunction getAllIssues(uint256 ...\n      SWAP2 \t\t\tfunction getAllIssues(uint256 ...\n      SWAP1 \t\t\tfunction getAllIssues(uint256 ...\n      PUSH [tag] 70\t\t\tfunction getAllIssues(uint256 ...\n      JUMP \t\t\tfunction getAllIssues(uint256 ...\n    tag 69\t\t\tfunction getAllIssues(uint256 ...\n      JUMPDEST \t\t\tfunction getAllIssues(uint256 ...\n      PUSH [tag] 71\t\t\tfunction getAllIssues(uint256 ...\n      JUMP \t\t\tfunction getAllIssues(uint256 ...\n    tag 68\t\t\tfunction getAllIssues(uint256 ...\n      JUMPDEST \t\t\tfunction getAllIssues(uint256 ...\n      PUSH 40\t\t\tfunction getAllIssues(uint256 ...\n      MLOAD \t\t\tfunction getAllIssues(uint256 ...\n      PUSH [tag] 72\t\t\tfunction getAllIssues(uint256 ...\n      SWAP2 \t\t\tfunction getAllIssues(uint256 ...\n      SWAP1 \t\t\tfunction getAllIssues(uint256 ...\n      PUSH [tag] 46\t\t\tfunction getAllIssues(uint256 ...\n      JUMP \t\t\tfunction getAllIssues(uint256 ...\n    tag 72\t\t\tfunction getAllIssues(uint256 ...\n      JUMPDEST \t\t\tfunction getAllIssues(uint256 ...\n      PUSH 40\t\t\tfunction getAllIssues(uint256 ...\n      MLOAD \t\t\tfunction getAllIssues(uint256 ...\n      DUP1 \t\t\tfunction getAllIssues(uint256 ...\n      SWAP2 \t\t\tfunction getAllIssues(uint256 ...\n      SUB \t\t\tfunction getAllIssues(uint256 ...\n      SWAP1 \t\t\tfunction getAllIssues(uint256 ...\n      RETURN \t\t\tfunction getAllIssues(uint256 ...\n    tag 13\t\t\tmapping(address => mapping(str...\n      JUMPDEST \t\t\tmapping(address => mapping(str...\n      PUSH [tag] 73\t\t\tmapping(address => mapping(str...\n      PUSH 4\t\t\tmapping(address => mapping(str...\n      DUP1 \t\t\tmapping(address => mapping(str...\n      CALLDATASIZE \t\t\tmapping(address => mapping(str...\n      SUB \t\t\tmapping(address => mapping(str...\n      DUP2 \t\t\tmapping(address => mapping(str...\n      ADD \t\t\tmapping(address => mapping(str...\n      SWAP1 \t\t\tmapping(address => mapping(str...\n      PUSH [tag] 74\t\t\tmapping(address => mapping(str...\n      SWAP2 \t\t\tmapping(address => mapping(str...\n      SWAP1 \t\t\tmapping(address => mapping(str...\n      PUSH [tag] 49\t\t\tmapping(address => mapping(str...\n      JUMP \t\t\tmapping(address => mapping(str...\n    tag 74\t\t\tmapping(address => mapping(str...\n      JUMPDEST \t\t\tmapping(address => mapping(str...\n      PUSH [tag] 75\t\t\tmapping(address => mapping(str...\n      JUMP \t\t\tmapping(address => mapping(str...\n    tag 73\t\t\tmapping(address => mapping(str...\n      JUMPDEST \t\t\tmapping(address => mapping(str...\n      PUSH 40\t\t\tmapping(address => mapping(str...\n      MLOAD \t\t\tmapping(address => mapping(str...\n      PUSH [tag] 76\t\t\tmapping(address => mapping(str...\n      SWAP2 \t\t\tmapping(address => mapping(str...\n      SWAP1 \t\t\tmapping(address => mapping(str...\n      PUSH [tag] 52\t\t\tmapping(address => mapping(str...\n      JUMP \t\t\tmapping(address => mapping(str...\n    tag 76\t\t\tmapping(address => mapping(str...\n      JUMPDEST \t\t\tmapping(address => mapping(str...\n      PUSH 40\t\t\tmapping(address => mapping(str...\n      MLOAD \t\t\tmapping(address => mapping(str...\n      DUP1 \t\t\tmapping(address => mapping(str...\n      SWAP2 \t\t\tmapping(address => mapping(str...\n      SUB \t\t\tmapping(address => mapping(str...\n      SWAP1 \t\t\tmapping(address => mapping(str...\n      RETURN \t\t\tmapping(address => mapping(str...\n    tag 14\t\t\tmapping(string => Issue) publi...\n      JUMPDEST \t\t\tmapping(string => Issue) publi...\n      PUSH [tag] 77\t\t\tmapping(string => Issue) publi...\n      PUSH 4\t\t\tmapping(string => Issue) publi...\n      DUP1 \t\t\tmapping(string => Issue) publi...\n      CALLDATASIZE \t\t\tmapping(string => Issue) publi...\n      SUB \t\t\tmapping(string => Issue) publi...\n      DUP2 \t\t\tmapping(string => Issue) publi...\n      ADD \t\t\tmapping(string => Issue) publi...\n      SWAP1 \t\t\tmapping(string => Issue) publi...\n      PUSH [tag] 78\t\t\tmapping(string => Issue) publi...\n      SWAP2 \t\t\tmapping(string => Issue) publi...\n      SWAP1 \t\t\tmapping(string => Issue) publi...\n      PUSH [tag] 26\t\t\tmapping(string => Issue) publi...\n      JUMP \t\t\tmapping(string => Issue) publi...\n    tag 78\t\t\tmapping(string => Issue) publi...\n      JUMPDEST \t\t\tmapping(string => Issue) publi...\n      PUSH [tag] 79\t\t\tmapping(string => Issue) publi...\n      JUMP \t\t\tmapping(string => Issue) publi...\n    tag 77\t\t\tmapping(string => Issue) publi...\n      JUMPDEST \t\t\tmapping(string => Issue) publi...\n      PUSH 40\t\t\tmapping(string => Issue) publi...\n      MLOAD \t\t\tmapping(string => Issue) publi...\n      PUSH [tag] 80\t\t\tmapping(string => Issue) publi...\n      SWAP7 \t\t\tmapping(string => Issue) publi...\n      SWAP6 \t\t\tmapping(string => Issue) publi...\n      SWAP5 \t\t\tmapping(string => Issue) publi...\n      SWAP4 \t\t\tmapping(string => Issue) publi...\n      SWAP3 \t\t\tmapping(string => Issue) publi...\n      SWAP2 \t\t\tmapping(string => Issue) publi...\n      SWAP1 \t\t\tmapping(string => Issue) publi...\n      PUSH [tag] 57\t\t\tmapping(string => Issue) publi...\n      JUMP \t\t\tmapping(string => Issue) publi...\n    tag 80\t\t\tmapping(string => Issue) publi...\n      JUMPDEST \t\t\tmapping(string => Issue) publi...\n      PUSH 40\t\t\tmapping(string => Issue) publi...\n      MLOAD \t\t\tmapping(string => Issue) publi...\n      DUP1 \t\t\tmapping(string => Issue) publi...\n      SWAP2 \t\t\tmapping(string => Issue) publi...\n      SUB \t\t\tmapping(string => Issue) publi...\n      SWAP1 \t\t\tmapping(string => Issue) publi...\n      RETURN \t\t\tmapping(string => Issue) publi...\n    tag 15\t\t\tfunction getTotalIssues() publ...\n      JUMPDEST \t\t\tfunction getTotalIssues() publ...\n      PUSH [tag] 81\t\t\tfunction getTotalIssues() publ...\n      PUSH [tag] 82\t\t\tfunction getTotalIssues() publ...\n      JUMP \t\t\tfunction getTotalIssues() publ...\n    tag 81\t\t\tfunction getTotalIssues() publ...\n      JUMPDEST \t\t\tfunction getTotalIssues() publ...\n      PUSH 40\t\t\tfunction getTotalIssues() publ...\n      MLOAD \t\t\tfunction getTotalIssues() publ...\n      PUSH [tag] 83\t\t\tfunction getTotalIssues() publ...\n      SWAP2 \t\t\tfunction getTotalIssues() publ...\n      SWAP1 \t\t\tfunction getTotalIssues() publ...\n      PUSH [tag] 29\t\t\tfunction getTotalIssues() publ...\n      JUMP \t\t\tfunction getTotalIssues() publ...\n    tag 83\t\t\tfunction getTotalIssues() publ...\n      JUMPDEST \t\t\tfunction getTotalIssues() publ...\n      PUSH 40\t\t\tfunction getTotalIssues() publ...\n      MLOAD \t\t\tfunction getTotalIssues() publ...\n      DUP1 \t\t\tfunction getTotalIssues() publ...\n      SWAP2 \t\t\tfunction getTotalIssues() publ...\n      SUB \t\t\tfunction getTotalIssues() publ...\n      SWAP1 \t\t\tfunction getTotalIssues() publ...\n      RETURN \t\t\tfunction getTotalIssues() publ...\n    tag 16\t\t\tfunction getIssueVotes(string ...\n      JUMPDEST \t\t\tfunction getIssueVotes(string ...\n      PUSH [tag] 84\t\t\tfunction getIssueVotes(string ...\n      PUSH 4\t\t\tfunction getIssueVotes(string ...\n      DUP1 \t\t\tfunction getIssueVotes(string ...\n      CALLDATASIZE \t\t\tfunction getIssueVotes(string ...\n      SUB \t\t\tfunction getIssueVotes(string ...\n      DUP2 \t\t\tfunction getIssueVotes(string ...\n      ADD \t\t\tfunction getIssueVotes(string ...\n      SWAP1 \t\t\tfunction getIssueVotes(string ...\n      PUSH [tag] 85\t\t\tfunction getIssueVotes(string ...\n      SWAP2 \t\t\tfunction getIssueVotes(string ...\n      SWAP1 \t\t\tfunction getIssueVotes(string ...\n      PUSH [tag] 26\t\t\tfunction getIssueVotes(string ...\n      JUMP \t\t\tfunction getIssueVotes(string ...\n    tag 85\t\t\tfunction getIssueVotes(string ...\n      JUMPDEST \t\t\tfunction getIssueVotes(string ...\n      PUSH [tag] 86\t\t\tfunction getIssueVotes(string ...\n      JUMP \t\t\tfunction getIssueVotes(string ...\n    tag 84\t\t\tfunction getIssueVotes(string ...\n      JUMPDEST \t\t\tfunction getIssueVotes(string ...\n      PUSH 40\t\t\tfunction getIssueVotes(string ...\n      MLOAD \t\t\tfunction getIssueVotes(string ...\n      PUSH [tag] 87\t\t\tfunction getIssueVotes(string ...\n      SWAP2 \t\t\tfunction getIssueVotes(string ...\n      SWAP1 \t\t\tfunction getIssueVotes(string ...\n      PUSH [tag] 88\t\t\tfunction getIssueVotes(string ...\n      JUMP \t\t\tfunction getIssueVotes(string ...\n    tag 87\t\t\tfunction getIssueVotes(string ...\n      JUMPDEST \t\t\tfunction getIssueVotes(string ...\n      PUSH 40\t\t\tfunction getIssueVotes(string ...\n      MLOAD \t\t\tfunction getIssueVotes(string ...\n      DUP1 \t\t\tfunction getIssueVotes(string ...\n      SWAP2 \t\t\tfunction getIssueVotes(string ...\n      SUB \t\t\tfunction getIssueVotes(string ...\n      SWAP1 \t\t\tfunction getIssueVotes(string ...\n      RETURN \t\t\tfunction getIssueVotes(string ...\n    tag 23\t\t\tfunction recordVote(\\r\\n      ...\n      JUMPDEST \t\t\tfunction recordVote(\\r\\n      ...\n      PUSH 0\t\t\tissues\n      DUP3 \t\t\t_issueId\n      PUSH 40\t\t\tissues[_issueId]\n      MLOAD \t\t\tissues[_issueId]\n      PUSH [tag] 90\t\t\tissues[_issueId]\n      SWAP2 \t\t\tissues[_issueId]\n      SWAP1 \t\t\tissues[_issueId]\n      PUSH [tag] 91\t\t\tissues[_issueId]\n      JUMP \t\t\tissues[_issueId]\n    tag 90\t\t\tissues[_issueId]\n      JUMPDEST \t\t\tissues[_issueId]\n      SWAP1 \t\t\tissues[_issueId]\n      DUP2 \t\t\tissues[_issueId]\n      MSTORE \t\t\tissues[_issueId]\n      PUSH 20\t\t\tissues[_issueId]\n      ADD \t\t\tissues[_issueId]\n      PUSH 40\t\t\tissues[_issueId]\n      MLOAD \t\t\tissues[_issueId]\n      DUP1 \t\t\tissues[_issueId]\n      SWAP2 \t\t\tissues[_issueId]\n      SUB \t\t\tissues[_issueId]\n      SWAP1 \t\t\tissues[_issueId]\n      KECCAK256 \t\t\tissues[_issueId]\n      PUSH 5\t\t\tissues[_issueId].exists\n      ADD \t\t\tissues[_issueId].exists\n      PUSH 0\t\t\tissues[_issueId].exists\n      SWAP1 \t\t\tissues[_issueId].exists\n      SLOAD \t\t\tissues[_issueId].exists\n      SWAP1 \t\t\tissues[_issueId].exists\n      PUSH 100\t\t\tissues[_issueId].exists\n      EXP \t\t\tissues[_issueId].exists\n      SWAP1 \t\t\tissues[_issueId].exists\n      DIV \t\t\tissues[_issueId].exists\n      PUSH FF\t\t\tissues[_issueId].exists\n      AND \t\t\tissues[_issueId].exists\n      PUSH [tag] 92\t\t\trequire(issues[_issueId].exist...\n      JUMPI \t\t\trequire(issues[_issueId].exist...\n      PUSH 40\t\t\trequire(issues[_issueId].exist...\n      MLOAD \t\t\trequire(issues[_issueId].exist...\n      PUSH 8C379A000000000000000000000000000000000000000000000000000000000\t\t\trequire(issues[_issueId].exist...\n      DUP2 \t\t\trequire(issues[_issueId].exist...\n      MSTORE \t\t\trequire(issues[_issueId].exist...\n      PUSH 4\t\t\trequire(issues[_issueId].exist...\n      ADD \t\t\trequire(issues[_issueId].exist...\n      PUSH [tag] 93\t\t\trequire(issues[_issueId].exist...\n      SWAP1 \t\t\trequire(issues[_issueId].exist...\n      PUSH [tag] 94\t\t\trequire(issues[_issueId].exist...\n      JUMP \t\t\trequire(issues[_issueId].exist...\n    tag 93\t\t\trequire(issues[_issueId].exist...\n      JUMPDEST \t\t\trequire(issues[_issueId].exist...\n      PUSH 40\t\t\trequire(issues[_issueId].exist...\n      MLOAD \t\t\trequire(issues[_issueId].exist...\n      DUP1 \t\t\trequire(issues[_issueId].exist...\n      SWAP2 \t\t\trequire(issues[_issueId].exist...\n      SUB \t\t\trequire(issues[_issueId].exist...\n      SWAP1 \t\t\trequire(issues[_issueId].exist...\n      REVERT \t\t\trequire(issues[_issueId].exist...\n    tag 92\t\t\trequire(issues[_issueId].exist...\n      JUMPDEST \t\t\trequire(issues[_issueId].exist...\n      PUSH 3\t\t\thasVoted\n      PUSH 0\t\t\thasVoted[msg.sender]\n      CALLER \t\t\tmsg.sender\n      PUSH FFFFFFFFFFFFFFFFFFFFFFFFFFFFFFFFFFFFFFFF\t\t\thasVoted[msg.sender]\n      AND \t\t\thasVoted[msg.sender]\n      PUSH FFFFFFFFFFFFFFFFFFFFFFFFFFFFFFFFFFFFFFFF\t\t\thasVoted[msg.sender]\n      AND \t\t\thasVoted[msg.sender]\n      DUP2 \t\t\thasVoted[msg.sender]\n      MSTORE \t\t\thasVoted[msg.sender]\n      PUSH 20\t\t\thasVoted[msg.sender]\n      ADD \t\t\thasVoted[msg.sender]\n      SWAP1 \t\t\thasVoted[msg.sender]\n      DUP2 \t\t\thasVoted[msg.sender]\n      MSTORE \t\t\thasVoted[msg.sender]\n      PUSH 20\t\t\thasVoted[msg.sender]\n      ADD \t\t\thasVoted[msg.sender]\n      PUSH 0\t\t\thasVoted[msg.sender]\n      KECCAK256 \t\t\thasVoted[msg.sender]\n      DUP3 \t\t\t_issueId\n      PUSH 40\t\t\thasVoted[msg.sender][_issueId]\n      MLOAD \t\t\thasVoted[msg.sender][_issueId]\n      PUSH [tag] 95\t\t\thasVoted[msg.sender][_issueId]\n      SWAP2 \t\t\thasVoted[msg.sender][_issueId]\n      SWAP1 \t\t\thasVoted[msg.sender][_issueId]\n      PUSH [tag] 91\t\t\thasVoted[msg.sender][_issueId]\n      JUMP \t\t\thasVoted[msg.sender][_issueId]\n    tag 95\t\t\thasVoted[msg.sender][_issueId]\n      JUMPDEST \t\t\thasVoted[msg.sender][_issueId]\n      SWAP1 \t\t\thasVoted[msg.sender][_issueId]\n      DUP2 \t\t\thasVoted[msg.sender][_issueId]\n      MSTORE \t\t\thasVoted[msg.sender][_issueId]\n      PUSH 20\t\t\thasVoted[msg.sender][_issueId]\n      ADD \t\t\thasVoted[msg.sender][_issueId]\n      PUSH 40\t\t\thasVoted[msg.sender][_issueId]\n      MLOAD \t\t\thasVoted[msg.sender][_issueId]\n      DUP1 \t\t\thasVoted[msg.sender][_issueId]\n      SWAP2 \t\t\thasVoted[msg.sender][_issueId]\n      SUB \t\t\thasVoted[msg.sender][_issueId]\n      SWAP1 \t\t\thasVoted[msg.sender][_issueId]\n      KECCAK256 \t\t\thasVoted[msg.sender][_issueId]\n      PUSH 0\t\t\thasVoted[msg.sender][_issueId]\n      SWAP1 \t\t\thasVoted[msg.sender][_issueId]\n      SLOAD \t\t\thasVoted[msg.sender][_issueId]\n      SWAP1 \t\t\thasVoted[msg.sender][_issueId]\n      PUSH 100\t\t\thasVoted[msg.sender][_issueId]\n      EXP \t\t\thasVoted[msg.sender][_issueId]\n      SWAP1 \t\t\thasVoted[msg.sender][_issueId]\n      DIV \t\t\thasVoted[msg.sender][_issueId]\n      PUSH FF\t\t\thasVoted[msg.sender][_issueId]\n      AND \t\t\thasVoted[msg.sender][_issueId]\n      ISZERO \t\t\t!hasVoted[msg.sender][_issueId...\n      PUSH [tag] 96\t\t\trequire(!hasVoted[msg.sender][...\n      JUMPI \t\t\trequire(!hasVoted[msg.sender][...\n      PUSH 40\t\t\trequire(!hasVoted[msg.sender][...\n      MLOAD \t\t\trequire(!hasVoted[msg.sender][...\n      PUSH 8C379A000000000000000000000000000000000000000000000000000000000\t\t\trequire(!hasVoted[msg.sender][...\n      DUP2 \t\t\trequire(!hasVoted[msg.sender][...\n      MSTORE \t\t\trequire(!hasVoted[msg.sender][...\n      PUSH 4\t\t\trequire(!hasVoted[msg.sender][...\n      ADD \t\t\trequire(!hasVoted[msg.sender][...\n      PUSH [tag] 97\t\t\trequire(!hasVoted[msg.sender][...\n      SWAP1 \t\t\trequire(!hasVoted[msg.sender][...\n      PUSH [tag] 98\t\t\trequire(!hasVoted[msg.sender][...\n      JUMP \t\t\trequire(!hasVoted[msg.sender][...\n    tag 97\t\t\trequire(!hasVoted[msg.sender][...\n      JUMPDEST \t\t\trequire(!hasVoted[msg.sender][...\n      PUSH 40\t\t\trequire(!hasVoted[msg.sender][...\n      MLOAD \t\t\trequire(!hasVoted[msg.sender][...\n      DUP1 \t\t\trequire(!hasVoted[msg.sender][...\n      SWAP2 \t\t\trequire(!hasVoted[msg.sender][...\n      SUB \t\t\trequire(!hasVoted[msg.sender][...\n      SWAP1 \t\t\trequire(!hasVoted[msg.sender][...\n      REVERT \t\t\trequire(!hasVoted[msg.sender][...\n    tag 96\t\t\trequire(!hasVoted[msg.sender][...\n      JUMPDEST \t\t\trequire(!hasVoted[msg.sender][...\n      PUSH 0\t\t\tVote memory newVote\n      PUSH 40\t\t\tVote({\\r\\n            voter: m...\n      MLOAD \t\t\tVote({\\r\\n            voter: m...\n      DUP1 \t\t\tVote({\\r\\n            voter: m...\n      PUSH 80\t\t\tVote({\\r\\n            voter: m...\n      ADD \t\t\tVote({\\r\\n            voter: m...\n      PUSH 40\t\t\tVote({\\r\\n            voter: m...\n      MSTORE \t\t\tVote({\\r\\n            voter: m...\n      DUP1 \t\t\tVote({\\r\\n            voter: m...\n      CALLER \t\t\tmsg.sender\n      PUSH FFFFFFFFFFFFFFFFFFFFFFFFFFFFFFFFFFFFFFFF\t\t\tVote({\\r\\n            voter: m...\n      AND \t\t\tVote({\\r\\n            voter: m...\n      DUP2 \t\t\tVote({\\r\\n            voter: m...\n      MSTORE \t\t\tVote({\\r\\n            voter: m...\n      PUSH 20\t\t\tVote({\\r\\n            voter: m...\n      ADD \t\t\tVote({\\r\\n            voter: m...\n      DUP5 \t\t\t_issueId\n      DUP2 \t\t\tVote({\\r\\n            voter: m...\n      MSTORE \t\t\tVote({\\r\\n            voter: m...\n      PUSH 20\t\t\tVote({\\r\\n            voter: m...\n      ADD \t\t\tVote({\\r\\n            voter: m...\n      TIMESTAMP \t\t\tblock.timestamp\n      DUP2 \t\t\tVote({\\r\\n            voter: m...\n      MSTORE \t\t\tVote({\\r\\n            voter: m...\n      PUSH 20\t\t\tVote({\\r\\n            voter: m...\n      ADD \t\t\tVote({\\r\\n            voter: m...\n      DUP4 \t\t\t_support\n      ISZERO \t\t\tVote({\\r\\n            voter: m...\n      ISZERO \t\t\tVote({\\r\\n            voter: m...\n      DUP2 \t\t\tVote({\\r\\n            voter: m...\n      MSTORE \t\t\tVote({\\r\\n            voter: m...\n      POP \t\t\tVote({\\r\\n            voter: m...\n      SWAP1 \t\t\tVote memory newVote = Vote({\\r...\n      POP \t\t\tVote memory newVote = Vote({\\r...\n      PUSH 1\t\t\tissueVotes\n      DUP4 \t\t\t_issueId\n      PUSH 40\t\t\tissueVotes[_issueId]\n      MLOAD \t\t\tissueVotes[_issueId]\n      PUSH [tag] 99\t\t\tissueVotes[_issueId]\n      SWAP2 \t\t\tissueVotes[_issueId]\n      SWAP1 \t\t\tissueVotes[_issueId]\n      PUSH [tag] 91\t\t\tissueVotes[_issueId]\n      JUMP \t\t\tissueVotes[_issueId]\n    tag 99\t\t\tissueVotes[_issueId]\n      JUMPDEST \t\t\tissueVotes[_issueId]\n      SWAP1 \t\t\tissueVotes[_issueId]\n      DUP2 \t\t\tissueVotes[_issueId]\n      MSTORE \t\t\tissueVotes[_issueId]\n      PUSH 20\t\t\tissueVotes[_issueId]\n      ADD \t\t\tissueVotes[_issueId]\n      PUSH 40\t\t\tissueVotes[_issueId]\n      MLOAD \t\t\tissueVotes[_issueId]\n      DUP1 \t\t\tissueVotes[_issueId]\n      SWAP2 \t\t\tissueVotes[_issueId]\n      SUB \t\t\tissueVotes[_issueId]\n      SWAP1 \t\t\tissueVotes[_issueId]\n      KECCAK256 \t\t\tissueVotes[_issueId]\n      DUP2 \t\t\tnewVote\n      SWAP1 \t\t\tissueVotes[_issueId].push(newV...\n      DUP1 \t\t\tissueVotes[_issueId].push(newV...\n      PUSH 1\t\t\tissueVotes[_issueId].push(newV...\n      DUP2 \t\t\tissueVotes[_issueId].push(newV...\n      SLOAD \t\t\tissueVotes[_issueId].push(newV...\n      ADD \t\t\tissueVotes[_issueId].push(newV...\n      DUP1 \t\t\tissueVotes[_issueId].push(newV...\n      DUP3 \t\t\tissueVotes[_issueId].push(newV...\n      SSTORE \t\t\tissueVotes[_issueId].push(newV...\n      DUP1 \t\t\tissueVotes[_issueId].push(newV...\n      SWAP2 \t\t\tissueVotes[_issueId].push(newV...\n      POP \t\t\tissueVotes[_issueId].push(newV...\n      POP \t\t\tissueVotes[_issueId].push(newV...\n      PUSH 1\t\t\tissueVotes[_issueId].push(newV...\n      SWAP1 \t\t\tissueVotes[_issueId].push(newV...\n      SUB \t\t\tissueVotes[_issueId].push(newV...\n      SWAP1 \t\t\tissueVotes[_issueId].push(newV...\n      PUSH 0\t\t\tissueVotes[_issueId].push(newV...\n      MSTORE \t\t\tissueVotes[_issueId].push(newV...\n      PUSH 20\t\t\tissueVotes[_issueId].push(newV...\n      PUSH 0\t\t\tissueVotes[_issueId].push(newV...\n      KECCAK256 \t\t\tissueVotes[_issueId].push(newV...\n      SWAP1 \t\t\tissueVotes[_issueId].push(newV...\n      PUSH 4\t\t\tissueVotes[_issueId].push(newV...\n      MUL \t\t\tissueVotes[_issueId].push(newV...\n      ADD \t\t\tissueVotes[_issueId].push(newV...\n      PUSH 0\t\t\tissueVotes[_issueId].push(newV...\n      SWAP1 \t\t\tissueVotes[_issueId].push(newV...\n      SWAP2 \t\t\tissueVotes[_issueId].push(newV...\n      SWAP1 \t\t\tissueVotes[_issueId].push(newV...\n      SWAP2 \t\t\tissueVotes[_issueId].push(newV...\n      SWAP1 \t\t\tissueVotes[_issueId].push(newV...\n      SWAP2 \t\t\tissueVotes[_issueId].push(newV...\n      POP \t\t\tissueVotes[_issueId].push(newV...\n      PUSH 0\t\t\tissueVotes[_issueId].push(newV...\n      DUP3 \t\t\tissueVotes[_issueId].push(newV...\n      ADD \t\t\tissueVotes[_issueId].push(newV...\n      MLOAD \t\t\tissueVotes[_issueId].push(newV...\n      DUP2 \t\t\tissueVotes[_issueId].push(newV...\n      PUSH 0\t\t\tissueVotes[_issueId].push(newV...\n      ADD \t\t\tissueVotes[_issueId].push(newV...\n      PUSH 0\t\t\tissueVotes[_issueId].push(newV...\n      PUSH 100\t\t\tissueVotes[_issueId].push(newV...\n      EXP \t\t\tissueVotes[_issueId].push(newV...\n      DUP2 \t\t\tissueVotes[_issueId].push(newV...\n      SLOAD \t\t\tissueVotes[_issueId].push(newV...\n      DUP2 \t\t\tissueVotes[_issueId].push(newV...\n      PUSH FFFFFFFFFFFFFFFFFFFFFFFFFFFFFFFFFFFFFFFF\t\t\tissueVotes[_issueId].push(newV...\n      MUL \t\t\tissueVotes[_issueId].push(newV...\n      NOT \t\t\tissueVotes[_issueId].push(newV...\n      AND \t\t\tissueVotes[_issueId].push(newV...\n      SWAP1 \t\t\tissueVotes[_issueId].push(newV...\n      DUP4 \t\t\tissueVotes[_issueId].push(newV...\n      PUSH FFFFFFFFFFFFFFFFFFFFFFFFFFFFFFFFFFFFFFFF\t\t\tissueVotes[_issueId].push(newV...\n      AND \t\t\tissueVotes[_issueId].push(newV...\n      MUL \t\t\tissueVotes[_issueId].push(newV...\n      OR \t\t\tissueVotes[_issueId].push(newV...\n      SWAP1 \t\t\tissueVotes[_issueId].push(newV...\n      SSTORE \t\t\tissueVotes[_issueId].push(newV...\n      POP \t\t\tissueVotes[_issueId].push(newV...\n      PUSH 20\t\t\tissueVotes[_issueId].push(newV...\n      DUP3 \t\t\tissueVotes[_issueId].push(newV...\n      ADD \t\t\tissueVotes[_issueId].push(newV...\n      MLOAD \t\t\tissueVotes[_issueId].push(newV...\n      DUP2 \t\t\tissueVotes[_issueId].push(newV...\n      PUSH 1\t\t\tissueVotes[_issueId].push(newV...\n      ADD \t\t\tissueVotes[_issueId].push(newV...\n      SWAP1 \t\t\tissueVotes[_issueId].push(newV...\n      DUP2 \t\t\tissueVotes[_issueId].push(newV...\n      PUSH [tag] 101\t\t\tissueVotes[_issueId].push(newV...\n      SWAP2 \t\t\tissueVotes[_issueId].push(newV...\n      SWAP1 \t\t\tissueVotes[_issueId].push(newV...\n      PUSH [tag] 102\t\t\tissueVotes[_issueId].push(newV...\n      JUMP \t\t\tissueVotes[_issueId].push(newV...\n    tag 101\t\t\tissueVotes[_issueId].push(newV...\n      JUMPDEST \t\t\tissueVotes[_issueId].push(newV...\n      POP \t\t\tissueVotes[_issueId].push(newV...\n      PUSH 40\t\t\tissueVotes[_issueId].push(newV...\n      DUP3 \t\t\tissueVotes[_issueId].push(newV...\n      ADD \t\t\tissueVotes[_issueId].push(newV...\n      MLOAD \t\t\tissueVotes[_issueId].push(newV...\n      DUP2 \t\t\tissueVotes[_issueId].push(newV...\n      PUSH 2\t\t\tissueVotes[_issueId].push(newV...\n      ADD \t\t\tissueVotes[_issueId].push(newV...\n      SSTORE \t\t\tissueVotes[_issueId].push(newV...\n      PUSH 60\t\t\tissueVotes[_issueId].push(newV...\n      DUP3 \t\t\tissueVotes[_issueId].push(newV...\n      ADD \t\t\tissueVotes[_issueId].push(newV...\n      MLOAD \t\t\tissueVotes[_issueId].push(newV...\n      DUP2 \t\t\tissueVotes[_issueId].push(newV...\n      PUSH 3\t\t\tissueVotes[_issueId].push(newV...\n      ADD \t\t\tissueVotes[_issueId].push(newV...\n      PUSH 0\t\t\tissueVotes[_issueId].push(newV...\n      PUSH 100\t\t\tissueVotes[_issueId].push(newV...\n      EXP \t\t\tissueVotes[_issueId].push(newV...\n      DUP2 \t\t\tissueVotes[_issueId].push(newV...\n      SLOAD \t\t\tissueVotes[_issueId].push(newV...\n      DUP2 \t\t\tissueVotes[_issueId].push(newV...\n      PUSH FF\t\t\tissueVotes[_issueId].push(newV...\n      MUL \t\t\tissueVotes[_issueId].push(newV...\n      NOT \t\t\tissueVotes[_issueId].push(newV...\n      AND \t\t\tissueVotes[_issueId].push(newV...\n      SWAP1 \t\t\tissueVotes[_issueId].push(newV...\n      DUP4 \t\t\tissueVotes[_issueId].push(newV...\n      ISZERO \t\t\tissueVotes[_issueId].push(newV...\n      ISZERO \t\t\tissueVotes[_issueId].push(newV...\n      MUL \t\t\tissueVotes[_issueId].push(newV...\n      OR \t\t\tissueVotes[_issueId].push(newV...\n      SWAP1 \t\t\tissueVotes[_issueId].push(newV...\n      SSTORE \t\t\tissueVotes[_issueId].push(newV...\n      POP \t\t\tissueVotes[_issueId].push(newV...\n      POP \t\t\tissueVotes[_issueId].push(newV...\n      POP \t\t\tissueVotes[_issueId].push(newV...\n      PUSH 1\t\t\ttrue\n      PUSH 3\t\t\thasVoted\n      PUSH 0\t\t\thasVoted[msg.sender]\n      CALLER \t\t\tmsg.sender\n      PUSH FFFFFFFFFFFFFFFFFFFFFFFFFFFFFFFFFFFFFFFF\t\t\thasVoted[msg.sender]\n      AND \t\t\thasVoted[msg.sender]\n      PUSH FFFFFFFFFFFFFFFFFFFFFFFFFFFFFFFFFFFFFFFF\t\t\thasVoted[msg.sender]\n      AND \t\t\thasVoted[msg.sender]\n      DUP2 \t\t\thasVoted[msg.sender]\n      MSTORE \t\t\thasVoted[msg.sender]\n      PUSH 20\t\t\thasVoted[msg.sender]\n      ADD \t\t\thasVoted[msg.sender]\n      SWAP1 \t\t\thasVoted[msg.sender]\n      DUP2 \t\t\thasVoted[msg.sender]\n      MSTORE \t\t\thasVoted[msg.sender]\n      PUSH 20\t\t\thasVoted[msg.sender]\n      ADD \t\t\thasVoted[msg.sender]\n      PUSH 0\t\t\thasVoted[msg.sender]\n      KECCAK256 \t\t\thasVoted[msg.sender]\n      DUP5 \t\t\t_issueId\n      PUSH 40\t\t\thasVoted[msg.sender][_issueId]\n      MLOAD \t\t\thasVoted[msg.sender][_issueId]\n      PUSH [tag] 103\t\t\thasVoted[msg.sender][_issueId]\n      SWAP2 \t\t\thasVoted[msg.sender][_issueId]\n      SWAP1 \t\t\thasVoted[msg.sender][_issueId]\n      PUSH [tag] 91\t\t\thasVoted[msg.sender][_issueId]\n      JUMP \t\t\thasVoted[msg.sender][_issueId]\n    tag 103\t\t\thasVoted[msg.sender][_issueId]\n      JUMPDEST \t\t\thasVoted[msg.sender][_issueId]\n      SWAP1 \t\t\thasVoted[msg.sender][_issueId]\n      DUP2 \t\t\thasVoted[msg.sender][_issueId]\n      MSTORE \t\t\thasVoted[msg.sender][_issueId]\n      PUSH 20\t\t\thasVoted[msg.sender][_issueId]\n      ADD \t\t\thasVoted[msg.sender][_issueId]\n      PUSH 40\t\t\thasVoted[msg.sender][_issueId]\n      MLOAD \t\t\thasVoted[msg.sender][_issueId]\n      DUP1 \t\t\thasVoted[msg.sender][_issueId]\n      SWAP2 \t\t\thasVoted[msg.sender][_issueId]\n      SUB \t\t\thasVoted[msg.sender][_issueId]\n      SWAP1 \t\t\thasVoted[msg.sender][_issueId]\n      KECCAK256 \t\t\thasVoted[msg.sender][_issueId]\n      PUSH 0\t\t\thasVoted[msg.sender][_issueId]\n      PUSH 100\t\t\thasVoted[msg.sender][_issueId]...\n      EXP \t\t\thasVoted[msg.sender][_issueId]...\n      DUP2 \t\t\thasVoted[msg.sender][_issueId]...\n      SLOAD \t\t\thasVoted[msg.sender][_issueId]...\n      DUP2 \t\t\thasVoted[msg.sender][_issueId]...\n      PUSH FF\t\t\thasVoted[msg.sender][_issueId]...\n      MUL \t\t\thasVoted[msg.sender][_issueId]...\n      NOT \t\t\thasVoted[msg.sender][_issueId]...\n      AND \t\t\thasVoted[msg.sender][_issueId]...\n      SWAP1 \t\t\thasVoted[msg.sender][_issueId]...\n      DUP4 \t\t\thasVoted[msg.sender][_issueId]...\n      ISZERO \t\t\thasVoted[msg.sender][_issueId]...\n      ISZERO \t\t\thasVoted[msg.sender][_issueId]...\n      MUL \t\t\thasVoted[msg.sender][_issueId]...\n      OR \t\t\thasVoted[msg.sender][_issueId]...\n      SWAP1 \t\t\thasVoted[msg.sender][_issueId]...\n      SSTORE \t\t\thasVoted[msg.sender][_issueId]...\n      POP \t\t\thasVoted[msg.sender][_issueId]...\n      DUP2 \t\t\t_support\n      ISZERO \t\t\tif (_support) {\\r\\n           ...\n      PUSH [tag] 104\t\t\tif (_support) {\\r\\n           ...\n      JUMPI \t\t\tif (_support) {\\r\\n           ...\n      PUSH 0\t\t\tissues\n      DUP4 \t\t\t_issueId\n      PUSH 40\t\t\tissues[_issueId]\n      MLOAD \t\t\tissues[_issueId]\n      PUSH [tag] 105\t\t\tissues[_issueId]\n      SWAP2 \t\t\tissues[_issueId]\n      SWAP1 \t\t\tissues[_issueId]\n      PUSH [tag] 91\t\t\tissues[_issueId]\n      JUMP \t\t\tissues[_issueId]\n    tag 105\t\t\tissues[_issueId]\n      JUMPDEST \t\t\tissues[_issueId]\n      SWAP1 \t\t\tissues[_issueId]\n      DUP2 \t\t\tissues[_issueId]\n      MSTORE \t\t\tissues[_issueId]\n      PUSH 20\t\t\tissues[_issueId]\n      ADD \t\t\tissues[_issueId]\n      PUSH 40\t\t\tissues[_issueId]\n      MLOAD \t\t\tissues[_issueId]\n      DUP1 \t\t\tissues[_issueId]\n      SWAP2 \t\t\tissues[_issueId]\n      SUB \t\t\tissues[_issueId]\n      SWAP1 \t\t\tissues[_issueId]\n      KECCAK256 \t\t\tissues[_issueId]\n      PUSH 4\t\t\tissues[_issueId].voteCount\n      ADD \t\t\tissues[_issueId].voteCount\n      PUSH 0\t\t\tissues[_issueId].voteCount\n      DUP2 \t\t\tissues[_issueId].voteCount++\n      SLOAD \t\t\tissues[_issueId].voteCount++\n      DUP1 \t\t\tissues[_issueId].voteCount++\n      SWAP3 \t\t\tissues[_issueId].voteCount++\n      SWAP2 \t\t\tissues[_issueId].voteCount++\n      SWAP1 \t\t\tissues[_issueId].voteCount++\n      PUSH [tag] 106\t\t\tissues[_issueId].voteCount++\n      SWAP1 \t\t\tissues[_issueId].voteCount++\n      PUSH [tag] 107\t\t\tissues[_issueId].voteCount++\n      JUMP \t\t\tissues[_issueId].voteCount++\n    tag 106\t\t\tissues[_issueId].voteCount++\n      JUMPDEST \t\t\tissues[_issueId].voteCount++\n      SWAP2 \t\t\tissues[_issueId].voteCount++\n      SWAP1 \t\t\tissues[_issueId].voteCount++\n      POP \t\t\tissues[_issueId].voteCount++\n      SSTORE \t\t\tissues[_issueId].voteCount++\n      POP \t\t\tissues[_issueId].voteCount++\n    tag 104\t\t\tif (_support) {\\r\\n           ...\n      JUMPDEST \t\t\tif (_support) {\\r\\n           ...\n      CALLER \t\t\tmsg.sender\n      PUSH FFFFFFFFFFFFFFFFFFFFFFFFFFFFFFFFFFFFFFFF\t\t\tVoteRecorded(_issueId, msg.sen...\n      AND \t\t\tVoteRecorded(_issueId, msg.sen...\n      DUP4 \t\t\t_issueId\n      PUSH 40\t\t\tVoteRecorded(_issueId, msg.sen...\n      MLOAD \t\t\tVoteRecorded(_issueId, msg.sen...\n      PUSH [tag] 108\t\t\tVoteRecorded(_issueId, msg.sen...\n      SWAP2 \t\t\tVoteRecorded(_issueId, msg.sen...\n      SWAP1 \t\t\tVoteRecorded(_issueId, msg.sen...\n      PUSH [tag] 91\t\t\tVoteRecorded(_issueId, msg.sen...\n      JUMP \t\t\tVoteRecorded(_issueId, msg.sen...\n    tag 108\t\t\tVoteRecorded(_issueId, msg.sen...\n      JUMPDEST \t\t\tVoteRecorded(_issueId, msg.sen...\n      PUSH 40\t\t\tVoteRecorded(_issueId, msg.sen...\n      MLOAD \t\t\tVoteRecorded(_issueId, msg.sen...\n      DUP1 \t\t\tVoteRecorded(_issueId, msg.sen...\n      SWAP2 \t\t\tVoteRecorded(_issueId, msg.sen...\n      SUB \t\t\tVoteRecorded(_issueId, msg.sen...\n      SWAP1 \t\t\tVoteRecorded(_issueId, msg.sen...\n      KECCAK256 \t\t\tVoteRecorded(_issueId, msg.sen...\n      PUSH 198E3ED8D34BB0748A994AA3DEC83BE23391B16A3539119F912746564BD35533\t\t\tVoteRecorded(_issueId, msg.sen...\n      DUP5 \t\t\t_support\n      TIMESTAMP \t\t\tblock.timestamp\n      PUSH 40\t\t\tVoteRecorded(_issueId, msg.sen...\n      MLOAD \t\t\tVoteRecorded(_issueId, msg.sen...\n      PUSH [tag] 109\t\t\tVoteRecorded(_issueId, msg.sen...\n      SWAP3 \t\t\tVoteRecorded(_issueId, msg.sen...\n      SWAP2 \t\t\tVoteRecorded(_issueId, msg.sen...\n      SWAP1 \t\t\tVoteRecorded(_issueId, msg.sen...\n      PUSH [tag] 110\t\t\tVoteRecorded(_issueId, msg.sen...\n      JUMP \t\t\tVoteRecorded(_issueId, msg.sen...\n    tag 109\t\t\tVoteRecorded(_issueId, msg.sen...\n      JUMPDEST \t\t\tVoteRecorded(_issueId, msg.sen...\n      PUSH 40\t\t\tVoteRecorded(_issueId, msg.sen...\n      MLOAD \t\t\tVoteRecorded(_issueId, msg.sen...\n      DUP1 \t\t\tVoteRecorded(_issueId, msg.sen...\n      SWAP2 \t\t\tVoteRecorded(_issueId, msg.sen...\n      SUB \t\t\tVoteRecorded(_issueId, msg.sen...\n      SWAP1 \t\t\tVoteRecorded(_issueId, msg.sen...\n      LOG3 \t\t\tVoteRecorded(_issueId, msg.sen...\n      POP \t\t\t{\\r\\n        require(issues[_i...\n      POP \t\t\tfunction recordVote(\\r\\n      ...\n      POP \t\t\tfunction recordVote(\\r\\n      ...\n      JUMP \t\t\tfunction recordVote(\\r\\n      ...\n    tag 27\t\t\tfunction getVoteCount(string m...\n      JUMPDEST \t\t\tfunction getVoteCount(string m...\n      PUSH 0\t\t\tuint256\n      PUSH 0\t\t\tissues\n      DUP3 \t\t\t_issueId\n      PUSH 40\t\t\tissues[_issueId]\n      MLOAD \t\t\tissues[_issueId]\n      PUSH [tag] 112\t\t\tissues[_issueId]\n      SWAP2 \t\t\tissues[_issueId]\n      SWAP1 \t\t\tissues[_issueId]\n      PUSH [tag] 91\t\t\tissues[_issueId]\n      JUMP \t\t\tissues[_issueId]\n    tag 112\t\t\tissues[_issueId]\n      JUMPDEST \t\t\tissues[_issueId]\n      SWAP1 \t\t\tissues[_issueId]\n      DUP2 \t\t\tissues[_issueId]\n      MSTORE \t\t\tissues[_issueId]\n      PUSH 20\t\t\tissues[_issueId]\n      ADD \t\t\tissues[_issueId]\n      PUSH 40\t\t\tissues[_issueId]\n      MLOAD \t\t\tissues[_issueId]\n      DUP1 \t\t\tissues[_issueId]\n      SWAP2 \t\t\tissues[_issueId]\n      SUB \t\t\tissues[_issueId]\n      SWAP1 \t\t\tissues[_issueId]\n      KECCAK256 \t\t\tissues[_issueId]\n      PUSH 5\t\t\tissues[_issueId].exists\n      ADD \t\t\tissues[_issueId].exists\n      PUSH 0\t\t\tissues[_issueId].exists\n      SWAP1 \t\t\tissues[_issueId].exists\n      SLOAD \t\t\tissues[_issueId].exists\n      SWAP1 \t\t\tissues[_issueId].exists\n      PUSH 100\t\t\tissues[_issueId].exists\n      EXP \t\t\tissues[_issueId].exists\n      SWAP1 \t\t\tissues[_issueId].exists\n      DIV \t\t\tissues[_issueId].exists\n      PUSH FF\t\t\tissues[_issueId].exists\n      AND \t\t\tissues[_issueId].exists\n      PUSH [tag] 113\t\t\trequire(issues[_issueId].exist...\n      JUMPI \t\t\trequire(issues[_issueId].exist...\n      PUSH 40\t\t\trequire(issues[_issueId].exist...\n      MLOAD \t\t\trequire(issues[_issueId].exist...\n      PUSH 8C379A000000000000000000000000000000000000000000000000000000000\t\t\trequire(issues[_issueId].exist...\n      DUP2 \t\t\trequire(issues[_issueId].exist...\n      MSTORE \t\t\trequire(issues[_issueId].exist...\n      PUSH 4\t\t\trequire(issues[_issueId].exist...\n      ADD \t\t\trequire(issues[_issueId].exist...\n      PUSH [tag] 114\t\t\trequire(issues[_issueId].exist...\n      SWAP1 \t\t\trequire(issues[_issueId].exist...\n      PUSH [tag] 94\t\t\trequire(issues[_issueId].exist...\n      JUMP \t\t\trequire(issues[_issueId].exist...\n    tag 114\t\t\trequire(issues[_issueId].exist...\n      JUMPDEST \t\t\trequire(issues[_issueId].exist...\n      PUSH 40\t\t\trequire(issues[_issueId].exist...\n      MLOAD \t\t\trequire(issues[_issueId].exist...\n      DUP1 \t\t\trequire(issues[_issueId].exist...\n      SWAP2 \t\t\trequire(issues[_issueId].exist...\n      SUB \t\t\trequire(issues[_issueId].exist...\n      SWAP1 \t\t\trequire(issues[_issueId].exist...\n      REVERT \t\t\trequire(issues[_issueId].exist...\n    tag 113\t\t\trequire(issues[_issueId].exist...\n      JUMPDEST \t\t\trequire(issues[_issueId].exist...\n      PUSH 0\t\t\tissues\n      DUP3 \t\t\t_issueId\n      PUSH 40\t\t\tissues[_issueId]\n      MLOAD \t\t\tissues[_issueId]\n      PUSH [tag] 115\t\t\tissues[_issueId]\n      SWAP2 \t\t\tissues[_issueId]\n      SWAP1 \t\t\tissues[_issueId]\n      PUSH [tag] 91\t\t\tissues[_issueId]\n      JUMP \t\t\tissues[_issueId]\n    tag 115\t\t\tissues[_issueId]\n      JUMPDEST \t\t\tissues[_issueId]\n      SWAP1 \t\t\tissues[_issueId]\n      DUP2 \t\t\tissues[_issueId]\n      MSTORE \t\t\tissues[_issueId]\n      PUSH 20\t\t\tissues[_issueId]\n      ADD \t\t\tissues[_issueId]\n      PUSH 40\t\t\tissues[_issueId]\n      MLOAD \t\t\tissues[_issueId]\n      DUP1 \t\t\tissues[_issueId]\n      SWAP2 \t\t\tissues[_issueId]\n      SUB \t\t\tissues[_issueId]\n      SWAP1 \t\t\tissues[_issueId]\n      KECCAK256 \t\t\tissues[_issueId]\n      PUSH 4\t\t\tissues[_issueId].voteCount\n      ADD \t\t\tissues[_issueId].voteCount\n      SLOAD \t\t\tissues[_issueId].voteCount\n      SWAP1 \t\t\treturn issues[_issueId].voteCo...\n      POP \t\t\treturn issues[_issueId].voteCo...\n      SWAP2 \t\t\tfunction getVoteCount(string m...\n      SWAP1 \t\t\tfunction getVoteCount(string m...\n      POP \t\t\tfunction getVoteCount(string m...\n      JUMP \t\t\tfunction getVoteCount(string m...\n    tag 33\t\t\tmapping(address => string[]) p...\n      JUMPDEST \t\t\tmapping(address => string[]) p...\n      PUSH 2\t\t\tmapping(address => string[]) p...\n      PUSH 20\t\t\tmapping(address => string[]) p...\n      MSTORE \t\t\tmapping(address => string[]) p...\n      DUP2 \t\t\tmapping(address => string[]) p...\n      PUSH 0\t\t\tmapping(address => string[]) p...\n      MSTORE \t\t\tmapping(address => string[]) p...\n      PUSH 40\t\t\tmapping(address => string[]) p...\n      PUSH 0\t\t\tmapping(address => string[]) p...\n      KECCAK256 \t\t\tmapping(address => string[]) p...\n      DUP2 \t\t\tmapping(address => string[]) p...\n      DUP2 \t\t\tmapping(address => string[]) p...\n      SLOAD \t\t\tmapping(address => string[]) p...\n      DUP2 \t\t\tmapping(address => string[]) p...\n      LT \t\t\tmapping(address => string[]) p...\n      PUSH [tag] 116\t\t\tmapping(address => string[]) p...\n      JUMPI \t\t\tmapping(address => string[]) p...\n      PUSH 0\t\t\tmapping(address => string[]) p...\n      DUP1 \t\t\tmapping(address => string[]) p...\n      REVERT \t\t\tmapping(address => string[]) p...\n    tag 116\t\t\tmapping(address => string[]) p...\n      JUMPDEST \t\t\tmapping(address => string[]) p...\n      SWAP1 \t\t\tmapping(address => string[]) p...\n      PUSH 0\t\t\tmapping(address => string[]) p...\n      MSTORE \t\t\tmapping(address => string[]) p...\n      PUSH 20\t\t\tmapping(address => string[]) p...\n      PUSH 0\t\t\tmapping(address => string[]) p...\n      KECCAK256 \t\t\tmapping(address => string[]) p...\n      ADD \t\t\tmapping(address => string[]) p...\n      PUSH 0\t\t\tmapping(address => string[]) p...\n      SWAP2 \t\t\tmapping(address => string[]) p...\n      POP \t\t\tmapping(address => string[]) p...\n      SWAP2 \t\t\tmapping(address => string[]) p...\n      POP \t\t\tmapping(address => string[]) p...\n      POP \t\t\tmapping(address => string[]) p...\n      DUP1 \t\t\tmapping(address => string[]) p...\n      SLOAD \t\t\tmapping(address => string[]) p...\n      PUSH [tag] 118\t\t\tmapping(address => string[]) p...\n      SWAP1 \t\t\tmapping(address => string[]) p...\n      PUSH [tag] 119\t\t\tmapping(address => string[]) p...\n      JUMP \t\t\tmapping(address => string[]) p...\n    tag 118\t\t\tmapping(address => string[]) p...\n      JUMPDEST \t\t\tmapping(address => string[]) p...\n      DUP1 \t\t\tmapping(address => string[]) p...\n      PUSH 1F\t\t\tmapping(address => string[]) p...\n      ADD \t\t\tmapping(address => string[]) p...\n      PUSH 20\t\t\tmapping(address => string[]) p...\n      DUP1 \t\t\tmapping(address => string[]) p...\n      SWAP2 \t\t\tmapping(address => string[]) p...\n      DIV \t\t\tmapping(address => string[]) p...\n      MUL \t\t\tmapping(address => string[]) p...\n      PUSH 20\t\t\tmapping(address => string[]) p...\n      ADD \t\t\tmapping(address => string[]) p...\n      PUSH 40\t\t\tmapping(address => string[]) p...\n      MLOAD \t\t\tmapping(address => string[]) p...\n      SWAP1 \t\t\tmapping(address => string[]) p...\n      DUP2 \t\t\tmapping(address => string[]) p...\n      ADD \t\t\tmapping(address => string[]) p...\n      PUSH 40\t\t\tmapping(address => string[]) p...\n      MSTORE \t\t\tmapping(address => string[]) p...\n      DUP1 \t\t\tmapping(address => string[]) p...\n      SWAP3 \t\t\tmapping(address => string[]) p...\n      SWAP2 \t\t\tmapping(address => string[]) p...\n      SWAP1 \t\t\tmapping(address => string[]) p...\n      DUP2 \t\t\tmapping(address => string[]) p...\n      DUP2 \t\t\tmapping(address => string[]) p...\n      MSTORE \t\t\tmapping(address => string[]) p...\n      PUSH 20\t\t\tmapping(address => string[]) p...\n      ADD \t\t\tmapping(address => string[]) p...\n      DUP3 \t\t\tmapping(address => string[]) p...\n      DUP1 \t\t\tmapping(address => string[]) p...\n      SLOAD \t\t\tmapping(address => string[]) p...\n      PUSH [tag] 120\t\t\tmapping(address => string[]) p...\n      SWAP1 \t\t\tmapping(address => string[]) p...\n      PUSH [tag] 119\t\t\tmapping(address => string[]) p...\n      JUMP \t\t\tmapping(address => string[]) p...\n    tag 120\t\t\tmapping(address => string[]) p...\n      JUMPDEST \t\t\tmapping(address => string[]) p...\n      DUP1 \t\t\tmapping(address => string[]) p...\n      ISZERO \t\t\tmapping(address => string[]) p...\n      PUSH [tag] 121\t\t\tmapping(address => string[]) p...\n      JUMPI \t\t\tmapping(address => string[]) p...\n      DUP1 \t\t\tmapping(address => string[]) p...\n      PUSH 1F\t\t\tmapping(address => string[]) p...\n      LT \t\t\tmapping(address => string[]) p...\n      PUSH [tag] 122\t\t\tmapping(address => string[]) p...\n      JUMPI \t\t\tmapping(address => string[]) p...\n      PUSH 100\t\t\tmapping(address => string[]) p...\n      DUP1 \t\t\tmapping(address => string[]) p...\n      DUP4 \t\t\tmapping(address => string[]) p...\n      SLOAD \t\t\tmapping(address => string[]) p...\n      DIV \t\t\tmapping(address => string[]) p...\n      MUL \t\t\tmapping(address => string[]) p...\n      DUP4 \t\t\tmapping(address => string[]) p...\n      MSTORE \t\t\tmapping(address => string[]) p...\n      SWAP2 \t\t\tmapping(address => string[]) p...\n      PUSH 20\t\t\tmapping(address => string[]) p...\n      ADD \t\t\tmapping(address => string[]) p...\n      SWAP2 \t\t\tmapping(address => string[]) p...\n      PUSH [tag] 121\t\t\tmapping(address => string[]) p...\n      JUMP \t\t\tmapping(address => string[]) p...\n    tag 122\t\t\tmapping(address => string[]) p...\n      JUMPDEST \t\t\tmapping(address => string[]) p...\n      DUP3 \t\t\tmapping(address => string[]) p...\n      ADD \t\t\tmapping(address => string[]) p...\n      SWAP2 \t\t\tmapping(address => string[]) p...\n      SWAP1 \t\t\tmapping(address => string[]) p...\n      PUSH 0\t\t\tmapping(address => string[]) p...\n      MSTORE \t\t\tmapping(address => string[]) p...\n      PUSH 20\t\t\tmapping(address => string[]) p...\n      PUSH 0\t\t\tmapping(address => string[]) p...\n      KECCAK256 \t\t\tmapping(address => string[]) p...\n      SWAP1 \t\t\tmapping(address => string[]) p...\n    tag 123\t\t\tmapping(address => string[]) p...\n      JUMPDEST \t\t\tmapping(address => string[]) p...\n      DUP2 \t\t\tmapping(address => string[]) p...\n      SLOAD \t\t\tmapping(address => string[]) p...\n      DUP2 \t\t\tmapping(address => string[]) p...\n      MSTORE \t\t\tmapping(address => string[]) p...\n      SWAP1 \t\t\tmapping(address => string[]) p...\n      PUSH 1\t\t\tmapping(address => string[]) p...\n      ADD \t\t\tmapping(address => string[]) p...\n      SWAP1 \t\t\tmapping(address => string[]) p...\n      PUSH 20\t\t\tmapping(address => string[]) p...\n      ADD \t\t\tmapping(address => string[]) p...\n      DUP1 \t\t\tmapping(address => string[]) p...\n      DUP4 \t\t\tmapping(address => string[]) p...\n      GT \t\t\tmapping(address => string[]) p...\n      PUSH [tag] 123\t\t\tmapping(address => string[]) p...\n      JUMPI \t\t\tmapping(address => string[]) p...\n      DUP3 \t\t\tmapping(address => string[]) p...\n      SWAP1 \t\t\tmapping(address => string[]) p...\n      SUB \t\t\tmapping(address => string[]) p...\n      PUSH 1F\t\t\tmapping(address => string[]) p...\n      AND \t\t\tmapping(address => string[]) p...\n      DUP3 \t\t\tmapping(address => string[]) p...\n      ADD \t\t\tmapping(address => string[]) p...\n      SWAP2 \t\t\tmapping(address => string[]) p...\n    tag 121\t\t\tmapping(address => string[]) p...\n      JUMPDEST \t\t\tmapping(address => string[]) p...\n      POP \t\t\tmapping(address => string[]) p...\n      POP \t\t\tmapping(address => string[]) p...\n      POP \t\t\tmapping(address => string[]) p...\n      POP \t\t\tmapping(address => string[]) p...\n      POP \t\t\tmapping(address => string[]) p...\n      DUP2 \t\t\tmapping(address => string[]) p...\n      JUMP \t\t\tmapping(address => string[]) p...\n    tag 39\t\t\tstring[] public allIssueIds\n      JUMPDEST \t\t\tstring[] public allIssueIds\n      PUSH 4\t\t\tstring[] public allIssueIds\n      DUP2 \t\t\tstring[] public allIssueIds\n      DUP2 \t\t\tstring[] public allIssueIds\n      SLOAD \t\t\tstring[] public allIssueIds\n      DUP2 \t\t\tstring[] public allIssueIds\n      LT \t\t\tstring[] public allIssueIds\n      PUSH [tag] 124\t\t\tstring[] public allIssueIds\n      JUMPI \t\t\tstring[] public allIssueIds\n      PUSH 0\t\t\tstring[] public allIssueIds\n      DUP1 \t\t\tstring[] public allIssueIds\n      REVERT \t\t\tstring[] public allIssueIds\n    tag 124\t\t\tstring[] public allIssueIds\n      JUMPDEST \t\t\tstring[] public allIssueIds\n      SWAP1 \t\t\tstring[] public allIssueIds\n      PUSH 0\t\t\tstring[] public allIssueIds\n      MSTORE \t\t\tstring[] public allIssueIds\n      PUSH 20\t\t\tstring[] public allIssueIds\n      PUSH 0\t\t\tstring[] public allIssueIds\n      KECCAK256 \t\t\tstring[] public allIssueIds\n      ADD \t\t\tstring[] public allIssueIds\n      PUSH 0\t\t\tstring[] public allIssueIds\n      SWAP2 \t\t\tstring[] public allIssueIds\n      POP \t\t\tstring[] public allIssueIds\n      SWAP1 \t\t\tstring[] public allIssueIds\n      POP \t\t\tstring[] public allIssueIds\n      DUP1 \t\t\tstring[] public allIssueIds\n      SLOAD \t\t\tstring[] public allIssueIds\n      PUSH [tag] 126\t\t\tstring[] public allIssueIds\n      SWAP1 \t\t\tstring[] public allIssueIds\n      PUSH [tag] 119\t\t\tstring[] public allIssueIds\n      JUMP \t\t\tstring[] public allIssueIds\n    tag 126\t\t\tstring[] public allIssueIds\n      JUMPDEST \t\t\tstring[] public allIssueIds\n      DUP1 \t\t\tstring[] public allIssueIds\n      PUSH 1F\t\t\tstring[] public allIssueIds\n      ADD \t\t\tstring[] public allIssueIds\n      PUSH 20\t\t\tstring[] public allIssueIds\n      DUP1 \t\t\tstring[] public allIssueIds\n      SWAP2 \t\t\tstring[] public allIssueIds\n      DIV \t\t\tstring[] public allIssueIds\n      MUL \t\t\tstring[] public allIssueIds\n      PUSH 20\t\t\tstring[] public allIssueIds\n      ADD \t\t\tstring[] public allIssueIds\n      PUSH 40\t\t\tstring[] public allIssueIds\n      MLOAD \t\t\tstring[] public allIssueIds\n      SWAP1 \t\t\tstring[] public allIssueIds\n      DUP2 \t\t\tstring[] public allIssueIds\n      ADD \t\t\tstring[] public allIssueIds\n      PUSH 40\t\t\tstring[] public allIssueIds\n      MSTORE \t\t\tstring[] public allIssueIds\n      DUP1 \t\t\tstring[] public allIssueIds\n      SWAP3 \t\t\tstring[] public allIssueIds\n      SWAP2 \t\t\tstring[] public allIssueIds\n      SWAP1 \t\t\tstring[] public allIssueIds\n      DUP2 \t\t\tstring[] public allIssueIds\n      DUP2 \t\t\tstring[] public allIssueIds\n      MSTORE \t\t\tstring[] public allIssueIds\n      PUSH 20\t\t\tstring[] public allIssueIds\n      ADD \t\t\tstring[] public allIssueIds\n      DUP3 \t\t\tstring[] public allIssueIds\n      DUP1 \t\t\tstring[] public allIssueIds\n      SLOAD \t\t\tstring[] public allIssueIds\n      PUSH [tag] 127\t\t\tstring[] public allIssueIds\n      SWAP1 \t\t\tstring[] public allIssueIds\n      PUSH [tag] 119\t\t\tstring[] public allIssueIds\n      JUMP \t\t\tstring[] public allIssueIds\n    tag 127\t\t\tstring[] public allIssueIds\n      JUMPDEST \t\t\tstring[] public allIssueIds\n      DUP1 \t\t\tstring[] public allIssueIds\n      ISZERO \t\t\tstring[] public allIssueIds\n      PUSH [tag] 128\t\t\tstring[] public allIssueIds\n      JUMPI \t\t\tstring[] public allIssueIds\n      DUP1 \t\t\tstring[] public allIssueIds\n      PUSH 1F\t\t\tstring[] public allIssueIds\n      LT \t\t\tstring[] public allIssueIds\n      PUSH [tag] 129\t\t\tstring[] public allIssueIds\n      JUMPI \t\t\tstring[] public allIssueIds\n      PUSH 100\t\t\tstring[] public allIssueIds\n      DUP1 \t\t\tstring[] public allIssueIds\n      DUP4 \t\t\tstring[] public allIssueIds\n      SLOAD \t\t\tstring[] public allIssueIds\n      DIV \t\t\tstring[] public allIssueIds\n      MUL \t\t\tstring[] public allIssueIds\n      DUP4 \t\t\tstring[] public allIssueIds\n      MSTORE \t\t\tstring[] public allIssueIds\n      SWAP2 \t\t\tstring[] public allIssueIds\n      PUSH 20\t\t\tstring[] public allIssueIds\n      ADD \t\t\tstring[] public allIssueIds\n      SWAP2 \t\t\tstring[] public allIssueIds\n      PUSH [tag] 128\t\t\tstring[] public allIssueIds\n      JUMP \t\t\tstring[] public allIssueIds\n    tag 129\t\t\tstring[] public allIssueIds\n      JUMPDEST \t\t\tstring[] public allIssueIds\n      DUP3 \t\t\tstring[] public allIssueIds\n      ADD \t\t\tstring[] public allIssueIds\n      SWAP2 \t\t\tstring[] public allIssueIds\n      SWAP1 \t\t\tstring[] public allIssueIds\n      PUSH 0\t\t\tstring[] public allIssueIds\n      MSTORE \t\t\tstring[] public allIssueIds\n      PUSH 20\t\t\tstring[] public allIssueIds\n      PUSH 0\t\t\tstring[] public allIssueIds\n      KECCAK256 \t\t\tstring[] public allIssueIds\n      SWAP1 \t\t\tstring[] public allIssueIds\n    tag 130\t\t\tstring[] public allIssueIds\n      JUMPDEST \t\t\tstring[] public allIssueIds\n      DUP2 \t\t\tstring[] public allIssueIds\n      SLOAD \t\t\tstring[] public allIssueIds\n      DUP2 \t\t\tstring[] public allIssueIds\n      MSTORE \t\t\tstring[] public allIssueIds\n      SWAP1 \t\t\tstring[] public allIssueIds\n      PUSH 1\t\t\tstring[] public allIssueIds\n      ADD \t\t\tstring[] public allIssueIds\n      SWAP1 \t\t\tstring[] public allIssueIds\n      PUSH 20\t\t\tstring[] public allIssueIds\n      ADD \t\t\tstring[] public allIssueIds\n      DUP1 \t\t\tstring[] public allIssueIds\n      DUP4 \t\t\tstring[] public allIssueIds\n      GT \t\t\tstring[] public allIssueIds\n      PUSH [tag] 130\t\t\tstring[] public allIssueIds\n      JUMPI \t\t\tstring[] public allIssueIds\n      DUP3 \t\t\tstring[] public allIssueIds\n      SWAP1 \t\t\tstring[] public allIssueIds\n      SUB \t\t\tstring[] public allIssueIds\n      PUSH 1F\t\t\tstring[] public allIssueIds\n      AND \t\t\tstring[] public allIssueIds\n      DUP3 \t\t\tstring[] public allIssueIds\n      ADD \t\t\tstring[] public allIssueIds\n      SWAP2 \t\t\tstring[] public allIssueIds\n    tag 128\t\t\tstring[] public allIssueIds\n      JUMPDEST \t\t\tstring[] public allIssueIds\n      POP \t\t\tstring[] public allIssueIds\n      POP \t\t\tstring[] public allIssueIds\n      POP \t\t\tstring[] public allIssueIds\n      POP \t\t\tstring[] public allIssueIds\n      POP \t\t\tstring[] public allIssueIds\n      DUP2 \t\t\tstring[] public allIssueIds\n      JUMP \t\t\tstring[] public allIssueIds\n    tag 44\t\t\tfunction getUserIssues(address...\n      JUMPDEST \t\t\tfunction getUserIssues(address...\n      PUSH 60\t\t\tstring[] memory\n      PUSH 2\t\t\tuserIssues\n      PUSH 0\t\t\tuserIssues[_user]\n      DUP4 \t\t\t_user\n      PUSH FFFFFFFFFFFFFFFFFFFFFFFFFFFFFFFFFFFFFFFF\t\t\tuserIssues[_user]\n      AND \t\t\tuserIssues[_user]\n      PUSH FFFFFFFFFFFFFFFFFFFFFFFFFFFFFFFFFFFFFFFF\t\t\tuserIssues[_user]\n      AND \t\t\tuserIssues[_user]\n      DUP2 \t\t\tuserIssues[_user]\n      MSTORE \t\t\tuserIssues[_user]\n      PUSH 20\t\t\tuserIssues[_user]\n      ADD \t\t\tuserIssues[_user]\n      SWAP1 \t\t\tuserIssues[_user]\n      DUP2 \t\t\tuserIssues[_user]\n      MSTORE \t\t\tuserIssues[_user]\n      PUSH 20\t\t\tuserIssues[_user]\n      ADD \t\t\tuserIssues[_user]\n      PUSH 0\t\t\tuserIssues[_user]\n      KECCAK256 \t\t\tuserIssues[_user]\n      DUP1 \t\t\treturn userIssues[_user]\n      SLOAD \t\t\treturn userIssues[_user]\n      DUP1 \t\t\treturn userIssues[_user]\n      PUSH 20\t\t\treturn userIssues[_user]\n      MUL \t\t\treturn userIssues[_user]\n      PUSH 20\t\t\treturn userIssues[_user]\n      ADD \t\t\treturn userIssues[_user]\n      PUSH 40\t\t\treturn userIssues[_user]\n      MLOAD \t\t\treturn userIssues[_user]\n      SWAP1 \t\t\treturn userIssues[_user]\n      DUP2 \t\t\treturn userIssues[_user]\n      ADD \t\t\treturn userIssues[_user]\n      PUSH 40\t\t\treturn userIssues[_user]\n      MSTORE \t\t\treturn userIssues[_user]\n      DUP1 \t\t\treturn userIssues[_user]\n      SWAP3 \t\t\treturn userIssues[_user]\n      SWAP2 \t\t\treturn userIssues[_user]\n      SWAP1 \t\t\treturn userIssues[_user]\n      DUP2 \t\t\treturn userIssues[_user]\n      DUP2 \t\t\treturn userIssues[_user]\n      MSTORE \t\t\treturn userIssues[_user]\n      PUSH 20\t\t\treturn userIssues[_user]\n      ADD \t\t\treturn userIssues[_user]\n      PUSH 0\t\t\treturn userIssues[_user]\n      SWAP1 \t\t\treturn userIssues[_user]\n    tag 132\t\t\treturn userIssues[_user]\n      JUMPDEST \t\t\treturn userIssues[_user]\n      DUP3 \t\t\treturn userIssues[_user]\n      DUP3 \t\t\treturn userIssues[_user]\n      LT \t\t\treturn userIssues[_user]\n      ISZERO \t\t\treturn userIssues[_user]\n      PUSH [tag] 133\t\t\treturn userIssues[_user]\n      JUMPI \t\t\treturn userIssues[_user]\n      DUP4 \t\t\treturn userIssues[_user]\n      DUP3 \t\t\treturn userIssues[_user]\n      SWAP1 \t\t\treturn userIssues[_user]\n      PUSH 0\t\t\treturn userIssues[_user]\n      MSTORE \t\t\treturn userIssues[_user]\n      PUSH 20\t\t\treturn userIssues[_user]\n      PUSH 0\t\t\treturn userIssues[_user]\n      KECCAK256 \t\t\treturn userIssues[_user]\n      ADD \t\t\treturn userIssues[_user]\n      DUP1 \t\t\treturn userIssues[_user]\n      SLOAD \t\t\treturn userIssues[_user]\n      PUSH [tag] 135\t\t\treturn userIssues[_user]\n      SWAP1 \t\t\treturn userIssues[_user]\n      PUSH [tag] 119\t\t\treturn userIssues[_user]\n      JUMP \t\t\treturn userIssues[_user]\n    tag 135\t\t\treturn userIssues[_user]\n      JUMPDEST \t\t\treturn userIssues[_user]\n      DUP1 \t\t\treturn userIssues[_user]\n      PUSH 1F\t\t\treturn userIssues[_user]\n      ADD \t\t\treturn userIssues[_user]\n      PUSH 20\t\t\treturn userIssues[_user]\n      DUP1 \t\t\treturn userIssues[_user]\n      SWAP2 \t\t\treturn userIssues[_user]\n      DIV \t\t\treturn userIssues[_user]\n      MUL \t\t\treturn userIssues[_user]\n      PUSH 20\t\t\treturn userIssues[_user]\n      ADD \t\t\treturn userIssues[_user]\n      PUSH 40\t\t\treturn userIssues[_user]\n      MLOAD \t\t\treturn userIssues[_user]\n      SWAP1 \t\t\treturn userIssues[_user]\n      DUP2 \t\t\treturn userIssues[_user]\n      ADD \t\t\treturn userIssues[_user]\n      PUSH 40\t\t\treturn userIssues[_user]\n      MSTORE \t\t\treturn userIssues[_user]\n      DUP1 \t\t\treturn userIssues[_user]\n      SWAP3 \t\t\treturn userIssues[_user]\n      SWAP2 \t\t\treturn userIssues[_user]\n      SWAP1 \t\t\treturn userIssues[_user]\n      DUP2 \t\t\treturn userIssues[_user]\n      DUP2 \t\t\treturn userIssues[_user]\n      MSTORE \t\t\treturn userIssues[_user]\n      PUSH 20\t\t\treturn userIssues[_user]\n      ADD \t\t\treturn userIssues[_user]\n      DUP3 \t\t\treturn userIssues[_user]\n      DUP1 \t\t\treturn userIssues[_user]\n      SLOAD \t\t\treturn userIssues[_user]\n      PUSH [tag] 136\t\t\treturn userIssues[_user]\n      SWAP1 \t\t\treturn userIssues[_user]\n      PUSH [tag] 119\t\t\treturn userIssues[_user]\n      JUMP \t\t\treturn userIssues[_user]\n    tag 136\t\t\treturn userIssues[_user]\n      JUMPDEST \t\t\treturn userIssues[_user]\n      DUP1 \t\t\treturn userIssues[_user]\n      ISZERO \t\t\treturn userIssues[_user]\n      PUSH [tag] 137\t\t\treturn userIssues[_user]\n      JUMPI \t\t\treturn userIssues[_user]\n      DUP1 \t\t\treturn userIssues[_user]\n      PUSH 1F\t\t\treturn userIssues[_user]\n      LT \t\t\treturn userIssues[_user]\n      PUSH [tag] 138\t\t\treturn userIssues[_user]\n      JUMPI \t\t\treturn userIssues[_user]\n      PUSH 100\t\t\treturn userIssues[_user]\n      DUP1 \t\t\treturn userIssues[_user]\n      DUP4 \t\t\treturn userIssues[_user]\n      SLOAD \t\t\treturn userIssues[_user]\n      DIV \t\t\treturn userIssues[_user]\n      MUL \t\t\treturn userIssues[_user]\n      DUP4 \t\t\treturn userIssues[_user]\n      MSTORE \t\t\treturn userIssues[_user]\n      SWAP2 \t\t\treturn userIssues[_user]\n      PUSH 20\t\t\treturn userIssues[_user]\n      ADD \t\t\treturn userIssues[_user]\n      SWAP2 \t\t\treturn userIssues[_user]\n      PUSH [tag] 137\t\t\treturn userIssues[_user]\n      JUMP \t\t\treturn userIssues[_user]\n    tag 138\t\t\treturn userIssues[_user]\n      JUMPDEST \t\t\treturn userIssues[_user]\n      DUP3 \t\t\treturn userIssues[_user]\n      ADD \t\t\treturn userIssues[_user]\n      SWAP2 \t\t\treturn userIssues[_user]\n      SWAP1 \t\t\treturn userIssues[_user]\n      PUSH 0\t\t\treturn userIssues[_user]\n      MSTORE \t\t\treturn userIssues[_user]\n      PUSH 20\t\t\treturn userIssues[_user]\n      PUSH 0\t\t\treturn userIssues[_user]\n      KECCAK256 \t\t\treturn userIssues[_user]\n      SWAP1 \t\t\treturn userIssues[_user]\n    tag 139\t\t\treturn userIssues[_user]\n      JUMPDEST \t\t\treturn userIssues[_user]\n      DUP2 \t\t\treturn userIssues[_user]\n      SLOAD \t\t\treturn userIssues[_user]\n      DUP2 \t\t\treturn userIssues[_user]\n      MSTORE \t\t\treturn userIssues[_user]\n      SWAP1 \t\t\treturn userIssues[_user]\n      PUSH 1\t\t\treturn userIssues[_user]\n      ADD \t\t\treturn userIssues[_user]\n      SWAP1 \t\t\treturn userIssues[_user]\n      PUSH 20\t\t\treturn userIssues[_user]\n      ADD \t\t\treturn userIssues[_user]\n      DUP1 \t\t\treturn userIssues[_user]\n      DUP4 \t\t\treturn userIssues[_user]\n      GT \t\t\treturn userIssues[_user]\n      PUSH [tag] 139\t\t\treturn userIssues[_user]\n      JUMPI \t\t\treturn userIssues[_user]\n      DUP3 \t\t\treturn userIssues[_user]\n      SWAP1 \t\t\treturn userIssues[_user]\n      SUB \t\t\treturn userIssues[_user]\n      PUSH 1F\t\t\treturn userIssues[_user]\n      AND \t\t\treturn userIssues[_user]\n      DUP3 \t\t\treturn userIssues[_user]\n      ADD \t\t\treturn userIssues[_user]\n      SWAP2 \t\t\treturn userIssues[_user]\n    tag 137\t\t\treturn userIssues[_user]\n      JUMPDEST \t\t\treturn userIssues[_user]\n      POP \t\t\treturn userIssues[_user]\n      POP \t\t\treturn userIssues[_user]\n      POP \t\t\treturn userIssues[_user]\n      POP \t\t\treturn userIssues[_user]\n      POP \t\t\treturn userIssues[_user]\n      DUP2 \t\t\treturn userIssues[_user]\n      MSTORE \t\t\treturn userIssues[_user]\n      PUSH 20\t\t\treturn userIssues[_user]\n      ADD \t\t\treturn userIssues[_user]\n      SWAP1 \t\t\treturn userIssues[_user]\n      PUSH 1\t\t\treturn userIssues[_user]\n      ADD \t\t\treturn userIssues[_user]\n      SWAP1 \t\t\treturn userIssues[_user]\n      PUSH [tag] 132\t\t\treturn userIssues[_user]\n      JUMP \t\t\treturn userIssues[_user]\n    tag 133\t\t\treturn userIssues[_user]\n      JUMPDEST \t\t\treturn userIssues[_user]\n      POP \t\t\treturn userIssues[_user]\n      POP \t\t\treturn userIssues[_user]\n      POP \t\t\treturn userIssues[_user]\n      POP \t\t\treturn userIssues[_user]\n      SWAP1 \t\t\treturn userIssues[_user]\n      POP \t\t\treturn userIssues[_user]\n      SWAP2 \t\t\tfunction getUserIssues(address...\n      SWAP1 \t\t\tfunction getUserIssues(address...\n      POP \t\t\tfunction getUserIssues(address...\n      JUMP \t\t\tfunction getUserIssues(address...\n    tag 50\t\t\tfunction checkIfVoted(address ...\n      JUMPDEST \t\t\tfunction checkIfVoted(address ...\n      PUSH 0\t\t\tbool\n      PUSH 3\t\t\thasVoted\n      PUSH 0\t\t\thasVoted[_user]\n      DUP5 \t\t\t_user\n      PUSH FFFFFFFFFFFFFFFFFFFFFFFFFFFFFFFFFFFFFFFF\t\t\thasVoted[_user]\n      AND \t\t\thasVoted[_user]\n      PUSH FFFFFFFFFFFFFFFFFFFFFFFFFFFFFFFFFFFFFFFF\t\t\thasVoted[_user]\n      AND \t\t\thasVoted[_user]\n      DUP2 \t\t\thasVoted[_user]\n      MSTORE \t\t\thasVoted[_user]\n      PUSH 20\t\t\thasVoted[_user]\n      ADD \t\t\thasVoted[_user]\n      SWAP1 \t\t\thasVoted[_user]\n      DUP2 \t\t\thasVoted[_user]\n      MSTORE \t\t\thasVoted[_user]\n      PUSH 20\t\t\thasVoted[_user]\n      ADD \t\t\thasVoted[_user]\n      PUSH 0\t\t\thasVoted[_user]\n      KECCAK256 \t\t\thasVoted[_user]\n      DUP3 \t\t\t_issueId\n      PUSH 40\t\t\thasVoted[_user][_issueId]\n      MLOAD \t\t\thasVoted[_user][_issueId]\n      PUSH [tag] 141\t\t\thasVoted[_user][_issueId]\n      SWAP2 \t\t\thasVoted[_user][_issueId]\n      SWAP1 \t\t\thasVoted[_user][_issueId]\n      PUSH [tag] 91\t\t\thasVoted[_user][_issueId]\n      JUMP \t\t\thasVoted[_user][_issueId]\n    tag 141\t\t\thasVoted[_user][_issueId]\n      JUMPDEST \t\t\thasVoted[_user][_issueId]\n      SWAP1 \t\t\thasVoted[_user][_issueId]\n      DUP2 \t\t\thasVoted[_user][_issueId]\n      MSTORE \t\t\thasVoted[_user][_issueId]\n      PUSH 20\t\t\thasVoted[_user][_issueId]\n      ADD \t\t\thasVoted[_user][_issueId]\n      PUSH 40\t\t\thasVoted[_user][_issueId]\n      MLOAD \t\t\thasVoted[_user][_issueId]\n      DUP1 \t\t\thasVoted[_user][_issueId]\n      SWAP2 \t\t\thasVoted[_user][_issueId]\n      SUB \t\t\thasVoted[_user][_issueId]\n      SWAP1 \t\t\thasVoted[_user][_issueId]\n      KECCAK256 \t\t\thasVoted[_user][_issueId]\n      PUSH 0\t\t\thasVoted[_user][_issueId]\n      SWAP1 \t\t\thasVoted[_user][_issueId]\n      SLOAD \t\t\thasVoted[_user][_issueId]\n      SWAP1 \t\t\thasVoted[_user][_issueId]\n      PUSH 100\t\t\thasVoted[_user][_issueId]\n      EXP \t\t\thasVoted[_user][_issueId]\n      SWAP1 \t\t\thasVoted[_user][_issueId]\n      DIV \t\t\thasVoted[_user][_issueId]\n      PUSH FF\t\t\thasVoted[_user][_issueId]\n      AND \t\t\thasVoted[_user][_issueId]\n      SWAP1 \t\t\treturn hasVoted[_user][_issueI...\n      POP \t\t\treturn hasVoted[_user][_issueI...\n      SWAP3 \t\t\tfunction checkIfVoted(address ...\n      SWAP2 \t\t\tfunction checkIfVoted(address ...\n      POP \t\t\tfunction checkIfVoted(address ...\n      POP \t\t\tfunction checkIfVoted(address ...\n      JUMP \t\t\tfunction checkIfVoted(address ...\n    tag 55\t\t\tfunction getIssue(string memor...\n      JUMPDEST \t\t\tfunction getIssue(string memor...\n      PUSH 60\t\t\tstring memory issueId\n      DUP1 \t\t\tstring memory title\n      PUSH 0\t\t\taddress reportedBy\n      PUSH 0\t\t\tuint256 timestamp\n      PUSH 0\t\t\tuint256 voteCount\n      PUSH 0\t\t\tbool exists\n      PUSH 0\t\t\tIssue memory issue\n      PUSH 0\t\t\tissues\n      DUP9 \t\t\t_issueId\n      PUSH 40\t\t\tissues[_issueId]\n      MLOAD \t\t\tissues[_issueId]\n      PUSH [tag] 143\t\t\tissues[_issueId]\n      SWAP2 \t\t\tissues[_issueId]\n      SWAP1 \t\t\tissues[_issueId]\n      PUSH [tag] 91\t\t\tissues[_issueId]\n      JUMP \t\t\tissues[_issueId]\n    tag 143\t\t\tissues[_issueId]\n      JUMPDEST \t\t\tissues[_issueId]\n      SWAP1 \t\t\tissues[_issueId]\n      DUP2 \t\t\tissues[_issueId]\n      MSTORE \t\t\tissues[_issueId]\n      PUSH 20\t\t\tissues[_issueId]\n      ADD \t\t\tissues[_issueId]\n      PUSH 40\t\t\tissues[_issueId]\n      MLOAD \t\t\tissues[_issueId]\n      DUP1 \t\t\tissues[_issueId]\n      SWAP2 \t\t\tissues[_issueId]\n      SUB \t\t\tissues[_issueId]\n      SWAP1 \t\t\tissues[_issueId]\n      KECCAK256 \t\t\tissues[_issueId]\n      PUSH 40\t\t\tIssue memory issue = issues[_i...\n      MLOAD \t\t\tIssue memory issue = issues[_i...\n      DUP1 \t\t\tIssue memory issue = issues[_i...\n      PUSH C0\t\t\tIssue memory issue = issues[_i...\n      ADD \t\t\tIssue memory issue = issues[_i...\n      PUSH 40\t\t\tIssue memory issue = issues[_i...\n      MSTORE \t\t\tIssue memory issue = issues[_i...\n      SWAP1 \t\t\tIssue memory issue = issues[_i...\n      DUP2 \t\t\tIssue memory issue = issues[_i...\n      PUSH 0\t\t\tIssue memory issue = issues[_i...\n      DUP3 \t\t\tIssue memory issue = issues[_i...\n      ADD \t\t\tIssue memory issue = issues[_i...\n      DUP1 \t\t\tIssue memory issue = issues[_i...\n      SLOAD \t\t\tIssue memory issue = issues[_i...\n      PUSH [tag] 144\t\t\tIssue memory issue = issues[_i...\n      SWAP1 \t\t\tIssue memory issue = issues[_i...\n      PUSH [tag] 119\t\t\tIssue memory issue = issues[_i...\n      JUMP \t\t\tIssue memory issue = issues[_i...\n    tag 144\t\t\tIssue memory issue = issues[_i...\n      JUMPDEST \t\t\tIssue memory issue = issues[_i...\n      DUP1 \t\t\tIssue memory issue = issues[_i...\n      PUSH 1F\t\t\tIssue memory issue = issues[_i...\n      ADD \t\t\tIssue memory issue = issues[_i...\n      PUSH 20\t\t\tIssue memory issue = issues[_i...\n      DUP1 \t\t\tIssue memory issue = issues[_i...\n      SWAP2 \t\t\tIssue memory issue = issues[_i...\n      DIV \t\t\tIssue memory issue = issues[_i...\n      MUL \t\t\tIssue memory issue = issues[_i...\n      PUSH 20\t\t\tIssue memory issue = issues[_i...\n      ADD \t\t\tIssue memory issue = issues[_i...\n      PUSH 40\t\t\tIssue memory issue = issues[_i...\n      MLOAD \t\t\tIssue memory issue = issues[_i...\n      SWAP1 \t\t\tIssue memory issue = issues[_i...\n      DUP2 \t\t\tIssue memory issue = issues[_i...\n      ADD \t\t\tIssue memory issue = issues[_i...\n      PUSH 40\t\t\tIssue memory issue = issues[_i...\n      MSTORE \t\t\tIssue memory issue = issues[_i...\n      DUP1 \t\t\tIssue memory issue = issues[_i...\n      SWAP3 \t\t\tIssue memory issue = issues[_i...\n      SWAP2 \t\t\tIssue memory issue = issues[_i...\n      SWAP1 \t\t\tIssue memory issue = issues[_i...\n      DUP2 \t\t\tIssue memory issue = issues[_i...\n      DUP2 \t\t\tIssue memory issue = issues[_i...\n      MSTORE \t\t\tIssue memory issue = issues[_i...\n      PUSH 20\t\t\tIssue memory issue = issues[_i...\n      ADD \t\t\tIssue memory issue = issues[_i...\n      DUP3 \t\t\tIssue memory issue = issues[_i...\n      DUP1 \t\t\tIssue memory issue = issues[_i...\n      SLOAD \t\t\tIssue memory issue = issues[_i...\n      PUSH [tag] 145\t\t\tIssue memory issue = issues[_i...\n      SWAP1 \t\t\tIssue memory issue = issues[_i...\n      PUSH [tag] 119\t\t\tIssue memory issue = issues[_i...\n      JUMP \t\t\tIssue memory issue = issues[_i...\n    tag 145\t\t\tIssue memory issue = issues[_i...\n      JUMPDEST \t\t\tIssue memory issue = issues[_i...\n      DUP1 \t\t\tIssue memory issue = issues[_i...\n      ISZERO \t\t\tIssue memory issue = issues[_i...\n      PUSH [tag] 146\t\t\tIssue memory issue = issues[_i...\n      JUMPI \t\t\tIssue memory issue = issues[_i...\n      DUP1 \t\t\tIssue memory issue = issues[_i...\n      PUSH 1F\t\t\tIssue memory issue = issues[_i...\n      LT \t\t\tIssue memory issue = issues[_i...\n      PUSH [tag] 147\t\t\tIssue memory issue = issues[_i...\n      JUMPI \t\t\tIssue memory issue = issues[_i...\n      PUSH 100\t\t\tIssue memory issue = issues[_i...\n      DUP1 \t\t\tIssue memory issue = issues[_i...\n      DUP4 \t\t\tIssue memory issue = issues[_i...\n      SLOAD \t\t\tIssue memory issue = issues[_i...\n      DIV \t\t\tIssue memory issue = issues[_i...\n      MUL \t\t\tIssue memory issue = issues[_i...\n      DUP4 \t\t\tIssue memory issue = issues[_i...\n      MSTORE \t\t\tIssue memory issue = issues[_i...\n      SWAP2 \t\t\tIssue memory issue = issues[_i...\n      PUSH 20\t\t\tIssue memory issue = issues[_i...\n      ADD \t\t\tIssue memory issue = issues[_i...\n      SWAP2 \t\t\tIssue memory issue = issues[_i...\n      PUSH [tag] 146\t\t\tIssue memory issue = issues[_i...\n      JUMP \t\t\tIssue memory issue = issues[_i...\n    tag 147\t\t\tIssue memory issue = issues[_i...\n      JUMPDEST \t\t\tIssue memory issue = issues[_i...\n      DUP3 \t\t\tIssue memory issue = issues[_i...\n      ADD \t\t\tIssue memory issue = issues[_i...\n      SWAP2 \t\t\tIssue memory issue = issues[_i...\n      SWAP1 \t\t\tIssue memory issue = issues[_i...\n      PUSH 0\t\t\tIssue memory issue = issues[_i...\n      MSTORE \t\t\tIssue memory issue = issues[_i...\n      PUSH 20\t\t\tIssue memory issue = issues[_i...\n      PUSH 0\t\t\tIssue memory issue = issues[_i...\n      KECCAK256 \t\t\tIssue memory issue = issues[_i...\n      SWAP1 \t\t\tIssue memory issue = issues[_i...\n    tag 148\t\t\tIssue memory issue = issues[_i...\n      JUMPDEST \t\t\tIssue memory issue = issues[_i...\n      DUP2 \t\t\tIssue memory issue = issues[_i...\n      SLOAD \t\t\tIssue memory issue = issues[_i...\n      DUP2 \t\t\tIssue memory issue = issues[_i...\n      MSTORE \t\t\tIssue memory issue = issues[_i...\n      SWAP1 \t\t\tIssue memory issue = issues[_i...\n      PUSH 1\t\t\tIssue memory issue = issues[_i...\n      ADD \t\t\tIssue memory issue = issues[_i...\n      SWAP1 \t\t\tIssue memory issue = issues[_i...\n      PUSH 20\t\t\tIssue memory issue = issues[_i...\n      ADD \t\t\tIssue memory issue = issues[_i...\n      DUP1 \t\t\tIssue memory issue = issues[_i...\n      DUP4 \t\t\tIssue memory issue = issues[_i...\n      GT \t\t\tIssue memory issue = issues[_i...\n      PUSH [tag] 148\t\t\tIssue memory issue = issues[_i...\n      JUMPI \t\t\tIssue memory issue = issues[_i...\n      DUP3 \t\t\tIssue memory issue = issues[_i...\n      SWAP1 \t\t\tIssue memory issue = issues[_i...\n      SUB \t\t\tIssue memory issue = issues[_i...\n      PUSH 1F\t\t\tIssue memory issue = issues[_i...\n      AND \t\t\tIssue memory issue = issues[_i...\n      DUP3 \t\t\tIssue memory issue = issues[_i...\n      ADD \t\t\tIssue memory issue = issues[_i...\n      SWAP2 \t\t\tIssue memory issue = issues[_i...\n    tag 146\t\t\tIssue memory issue = issues[_i...\n      JUMPDEST \t\t\tIssue memory issue = issues[_i...\n      POP \t\t\tIssue memory issue = issues[_i...\n      POP \t\t\tIssue memory issue = issues[_i...\n      POP \t\t\tIssue memory issue = issues[_i...\n      POP \t\t\tIssue memory issue = issues[_i...\n      POP \t\t\tIssue memory issue = issues[_i...\n      DUP2 \t\t\tIssue memory issue = issues[_i...\n      MSTORE \t\t\tIssue memory issue = issues[_i...\n      PUSH 20\t\t\tIssue memory issue = issues[_i...\n      ADD \t\t\tIssue memory issue = issues[_i...\n      PUSH 1\t\t\tIssue memory issue = issues[_i...\n      DUP3 \t\t\tIssue memory issue = issues[_i...\n      ADD \t\t\tIssue memory issue = issues[_i...\n      DUP1 \t\t\tIssue memory issue = issues[_i...\n      SLOAD \t\t\tIssue memory issue = issues[_i...\n      PUSH [tag] 149\t\t\tIssue memory issue = issues[_i...\n      SWAP1 \t\t\tIssue memory issue = issues[_i...\n      PUSH [tag] 119\t\t\tIssue memory issue = issues[_i...\n      JUMP \t\t\tIssue memory issue = issues[_i...\n    tag 149\t\t\tIssue memory issue = issues[_i...\n      JUMPDEST \t\t\tIssue memory issue = issues[_i...\n      DUP1 \t\t\tIssue memory issue = issues[_i...\n      PUSH 1F\t\t\tIssue memory issue = issues[_i...\n      ADD \t\t\tIssue memory issue = issues[_i...\n      PUSH 20\t\t\tIssue memory issue = issues[_i...\n      DUP1 \t\t\tIssue memory issue = issues[_i...\n      SWAP2 \t\t\tIssue memory issue = issues[_i...\n      DIV \t\t\tIssue memory issue = issues[_i...\n      MUL \t\t\tIssue memory issue = issues[_i...\n      PUSH 20\t\t\tIssue memory issue = issues[_i...\n      ADD \t\t\tIssue memory issue = issues[_i...\n      PUSH 40\t\t\tIssue memory issue = issues[_i...\n      MLOAD \t\t\tIssue memory issue = issues[_i...\n      SWAP1 \t\t\tIssue memory issue = issues[_i...\n      DUP2 \t\t\tIssue memory issue = issues[_i...\n      ADD \t\t\tIssue memory issue = issues[_i...\n      PUSH 40\t\t\tIssue memory issue = issues[_i...\n      MSTORE \t\t\tIssue memory issue = issues[_i...\n      DUP1 \t\t\tIssue memory issue = issues[_i...\n      SWAP3 \t\t\tIssue memory issue = issues[_i...\n      SWAP2 \t\t\tIssue memory issue = issues[_i...\n      SWAP1 \t\t\tIssue memory issue = issues[_i...\n      DUP2 \t\t\tIssue memory issue = issues[_i...\n      DUP2 \t\t\tIssue memory issue = issues[_i...\n      MSTORE \t\t\tIssue memory issue = issues[_i...\n      PUSH 20\t\t\tIssue memory issue = issues[_i...\n      ADD \t\t\tIssue memory issue = issues[_i...\n      DUP3 \t\t\tIssue memory issue = issues[_i...\n      DUP1 \t\t\tIssue memory issue = issues[_i...\n      SLOAD \t\t\tIssue memory issue = issues[_i...\n      PUSH [tag] 150\t\t\tIssue memory issue = issues[_i...\n      SWAP1 \t\t\tIssue memory issue = issues[_i...\n      PUSH [tag] 119\t\t\tIssue memory issue = issues[_i...\n      JUMP \t\t\tIssue memory issue = issues[_i...\n    tag 150\t\t\tIssue memory issue = issues[_i...\n      JUMPDEST \t\t\tIssue memory issue = issues[_i...\n      DUP1 \t\t\tIssue memory issue = issues[_i...\n      ISZERO \t\t\tIssue memory issue = issues[_i...\n      PUSH [tag] 151\t\t\tIssue memory issue = issues[_i...\n      JUMPI \t\t\tIssue memory issue = issues[_i...\n      DUP1 \t\t\tIssue memory issue = issues[_i...\n      PUSH 1F\t\t\tIssue memory issue = issues[_i...\n      LT \t\t\tIssue memory issue = issues[_i...\n      PUSH [tag] 152\t\t\tIssue memory issue = issues[_i...\n      JUMPI \t\t\tIssue memory issue = issues[_i...\n      PUSH 100\t\t\tIssue memory issue = issues[_i...\n      DUP1 \t\t\tIssue memory issue = issues[_i...\n      DUP4 \t\t\tIssue memory issue = issues[_i...\n      SLOAD \t\t\tIssue memory issue = issues[_i...\n      DIV \t\t\tIssue memory issue = issues[_i...\n      MUL \t\t\tIssue memory issue = issues[_i...\n      DUP4 \t\t\tIssue memory issue = issues[_i...\n      MSTORE \t\t\tIssue memory issue = issues[_i...\n      SWAP2 \t\t\tIssue memory issue = issues[_i...\n      PUSH 20\t\t\tIssue memory issue = issues[_i...\n      ADD \t\t\tIssue memory issue = issues[_i...\n      SWAP2 \t\t\tIssue memory issue = issues[_i...\n      PUSH [tag] 151\t\t\tIssue memory issue = issues[_i...\n      JUMP \t\t\tIssue memory issue = issues[_i...\n    tag 152\t\t\tIssue memory issue = issues[_i...\n      JUMPDEST \t\t\tIssue memory issue = issues[_i...\n      DUP3 \t\t\tIssue memory issue = issues[_i...\n      ADD \t\t\tIssue memory issue = issues[_i...\n      SWAP2 \t\t\tIssue memory issue = issues[_i...\n      SWAP1 \t\t\tIssue memory issue = issues[_i...\n      PUSH 0\t\t\tIssue memory issue = issues[_i...\n      MSTORE \t\t\tIssue memory issue = issues[_i...\n      PUSH 20\t\t\tIssue memory issue = issues[_i...\n      PUSH 0\t\t\tIssue memory issue = issues[_i...\n      KECCAK256 \t\t\tIssue memory issue = issues[_i...\n      SWAP1 \t\t\tIssue memory issue = issues[_i...\n    tag 153\t\t\tIssue memory issue = issues[_i...\n      JUMPDEST \t\t\tIssue memory issue = issues[_i...\n      DUP2 \t\t\tIssue memory issue = issues[_i...\n      SLOAD \t\t\tIssue memory issue = issues[_i...\n      DUP2 \t\t\tIssue memory issue = issues[_i...\n      MSTORE \t\t\tIssue memory issue = issues[_i...\n      SWAP1 \t\t\tIssue memory issue = issues[_i...\n      PUSH 1\t\t\tIssue memory issue = issues[_i...\n      ADD \t\t\tIssue memory issue = issues[_i...\n      SWAP1 \t\t\tIssue memory issue = issues[_i...\n      PUSH 20\t\t\tIssue memory issue = issues[_i...\n      ADD \t\t\tIssue memory issue = issues[_i...\n      DUP1 \t\t\tIssue memory issue = issues[_i...\n      DUP4 \t\t\tIssue memory issue = issues[_i...\n      GT \t\t\tIssue memory issue = issues[_i...\n      PUSH [tag] 153\t\t\tIssue memory issue = issues[_i...\n      JUMPI \t\t\tIssue memory issue = issues[_i...\n      DUP3 \t\t\tIssue memory issue = issues[_i...\n      SWAP1 \t\t\tIssue memory issue = issues[_i...\n      SUB \t\t\tIssue memory issue = issues[_i...\n      PUSH 1F\t\t\tIssue memory issue = issues[_i...\n      AND \t\t\tIssue memory issue = issues[_i...\n      DUP3 \t\t\tIssue memory issue = issues[_i...\n      ADD \t\t\tIssue memory issue = issues[_i...\n      SWAP2 \t\t\tIssue memory issue = issues[_i...\n    tag 151\t\t\tIssue memory issue = issues[_i...\n      JUMPDEST \t\t\tIssue memory issue = issues[_i...\n      POP \t\t\tIssue memory issue = issues[_i...\n      POP \t\t\tIssue memory issue = issues[_i...\n      POP \t\t\tIssue memory issue = issues[_i...\n      POP \t\t\tIssue memory issue = issues[_i...\n      POP \t\t\tIssue memory issue = issues[_i...\n      DUP2 \t\t\tIssue memory issue = issues[_i...\n      MSTORE \t\t\tIssue memory issue = issues[_i...\n      PUSH 20\t\t\tIssue memory issue = issues[_i...\n      ADD \t\t\tIssue memory issue = issues[_i...\n      PUSH 2\t\t\tIssue memory issue = issues[_i...\n      DUP3 \t\t\tIssue memory issue = issues[_i...\n      ADD \t\t\tIssue memory issue = issues[_i...\n      PUSH 0\t\t\tIssue memory issue = issues[_i...\n      SWAP1 \t\t\tIssue memory issue = issues[_i...\n      SLOAD \t\t\tIssue memory issue = issues[_i...\n      SWAP1 \t\t\tIssue memory issue = issues[_i...\n      PUSH 100\t\t\tIssue memory issue = issues[_i...\n      EXP \t\t\tIssue memory issue = issues[_i...\n      SWAP1 \t\t\tIssue memory issue = issues[_i...\n      DIV \t\t\tIssue memory issue = issues[_i...\n      PUSH FFFFFFFFFFFFFFFFFFFFFFFFFFFFFFFFFFFFFFFF\t\t\tIssue memory issue = issues[_i...\n      AND \t\t\tIssue memory issue = issues[_i...\n      PUSH FFFFFFFFFFFFFFFFFFFFFFFFFFFFFFFFFFFFFFFF\t\t\tIssue memory issue = issues[_i...\n      AND \t\t\tIssue memory issue = issues[_i...\n      PUSH FFFFFFFFFFFFFFFFFFFFFFFFFFFFFFFFFFFFFFFF\t\t\tIssue memory issue = issues[_i...\n      AND \t\t\tIssue memory issue = issues[_i...\n      DUP2 \t\t\tIssue memory issue = issues[_i...\n      MSTORE \t\t\tIssue memory issue = issues[_i...\n      PUSH 20\t\t\tIssue memory issue = issues[_i...\n      ADD \t\t\tIssue memory issue = issues[_i...\n      PUSH 3\t\t\tIssue memory issue = issues[_i...\n      DUP3 \t\t\tIssue memory issue = issues[_i...\n      ADD \t\t\tIssue memory issue = issues[_i...\n      SLOAD \t\t\tIssue memory issue = issues[_i...\n      DUP2 \t\t\tIssue memory issue = issues[_i...\n      MSTORE \t\t\tIssue memory issue = issues[_i...\n      PUSH 20\t\t\tIssue memory issue = issues[_i...\n      ADD \t\t\tIssue memory issue = issues[_i...\n      PUSH 4\t\t\tIssue memory issue = issues[_i...\n      DUP3 \t\t\tIssue memory issue = issues[_i...\n      ADD \t\t\tIssue memory issue = issues[_i...\n      SLOAD \t\t\tIssue memory issue = issues[_i...\n      DUP2 \t\t\tIssue memory issue = issues[_i...\n      MSTORE \t\t\tIssue memory issue = issues[_i...\n      PUSH 20\t\t\tIssue memory issue = issues[_i...\n      ADD \t\t\tIssue memory issue = issues[_i...\n      PUSH 5\t\t\tIssue memory issue = issues[_i...\n      DUP3 \t\t\tIssue memory issue = issues[_i...\n      ADD \t\t\tIssue memory issue = issues[_i...\n      PUSH 0\t\t\tIssue memory issue = issues[_i...\n      SWAP1 \t\t\tIssue memory issue = issues[_i...\n      SLOAD \t\t\tIssue memory issue = issues[_i...\n      SWAP1 \t\t\tIssue memory issue = issues[_i...\n      PUSH 100\t\t\tIssue memory issue = issues[_i...\n      EXP \t\t\tIssue memory issue = issues[_i...\n      SWAP1 \t\t\tIssue memory issue = issues[_i...\n      DIV \t\t\tIssue memory issue = issues[_i...\n      PUSH FF\t\t\tIssue memory issue = issues[_i...\n      AND \t\t\tIssue memory issue = issues[_i...\n      ISZERO \t\t\tIssue memory issue = issues[_i...\n      ISZERO \t\t\tIssue memory issue = issues[_i...\n      ISZERO \t\t\tIssue memory issue = issues[_i...\n      ISZERO \t\t\tIssue memory issue = issues[_i...\n      DUP2 \t\t\tIssue memory issue = issues[_i...\n      MSTORE \t\t\tIssue memory issue = issues[_i...\n      POP \t\t\tIssue memory issue = issues[_i...\n      POP \t\t\tIssue memory issue = issues[_i...\n      SWAP1 \t\t\tIssue memory issue = issues[_i...\n      POP \t\t\tIssue memory issue = issues[_i...\n      DUP1 \t\t\tissue\n      PUSH 0\t\t\tissue.issueId\n      ADD \t\t\tissue.issueId\n      MLOAD \t\t\tissue.issueId\n      DUP2 \t\t\tissue\n      PUSH 20\t\t\tissue.title\n      ADD \t\t\tissue.title\n      MLOAD \t\t\tissue.title\n      DUP3 \t\t\tissue\n      PUSH 40\t\t\tissue.reportedBy\n      ADD \t\t\tissue.reportedBy\n      MLOAD \t\t\tissue.reportedBy\n      DUP4 \t\t\tissue\n      PUSH 60\t\t\tissue.timestamp\n      ADD \t\t\tissue.timestamp\n      MLOAD \t\t\tissue.timestamp\n      DUP5 \t\t\tissue\n      PUSH 80\t\t\tissue.voteCount\n      ADD \t\t\tissue.voteCount\n      MLOAD \t\t\tissue.voteCount\n      DUP6 \t\t\tissue\n      PUSH A0\t\t\tissue.exists\n      ADD \t\t\tissue.exists\n      MLOAD \t\t\tissue.exists\n      SWAP7 \t\t\treturn (\\r\\n            issue....\n      POP \t\t\treturn (\\r\\n            issue....\n      SWAP7 \t\t\treturn (\\r\\n            issue....\n      POP \t\t\treturn (\\r\\n            issue....\n      SWAP7 \t\t\treturn (\\r\\n            issue....\n      POP \t\t\treturn (\\r\\n            issue....\n      SWAP7 \t\t\treturn (\\r\\n            issue....\n      POP \t\t\treturn (\\r\\n            issue....\n      SWAP7 \t\t\treturn (\\r\\n            issue....\n      POP \t\t\treturn (\\r\\n            issue....\n      SWAP7 \t\t\treturn (\\r\\n            issue....\n      POP \t\t\treturn (\\r\\n            issue....\n      POP \t\t\treturn (\\r\\n            issue....\n      SWAP2 \t\t\tfunction getIssue(string memor...\n      SWAP4 \t\t\tfunction getIssue(string memor...\n      SWAP6 \t\t\tfunction getIssue(string memor...\n      POP \t\t\tfunction getIssue(string memor...\n      SWAP2 \t\t\tfunction getIssue(string memor...\n      SWAP4 \t\t\tfunction getIssue(string memor...\n      SWAP6 \t\t\tfunction getIssue(string memor...\n      JUMP \t\t\tfunction getIssue(string memor...\n    tag 61\t\t\tmapping(string => Vote[]) publ...\n      JUMPDEST \t\t\tmapping(string => Vote[]) publ...\n      PUSH 1\t\t\tmapping(string => Vote[]) publ...\n      DUP3 \t\t\tmapping(string => Vote[]) publ...\n      DUP1 \t\t\tmapping(string => Vote[]) publ...\n      MLOAD \t\t\tmapping(string => Vote[]) publ...\n      PUSH 20\t\t\tmapping(string => Vote[]) publ...\n      DUP2 \t\t\tmapping(string => Vote[]) publ...\n      ADD \t\t\tmapping(string => Vote[]) publ...\n      DUP3 \t\t\tmapping(string => Vote[]) publ...\n      ADD \t\t\tmapping(string => Vote[]) publ...\n      DUP1 \t\t\tmapping(string => Vote[]) publ...\n      MLOAD \t\t\tmapping(string => Vote[]) publ...\n      DUP5 \t\t\tmapping(string => Vote[]) publ...\n      DUP3 \t\t\tmapping(string => Vote[]) publ...\n      MSTORE \t\t\tmapping(string => Vote[]) publ...\n      PUSH 20\t\t\tmapping(string => Vote[]) publ...\n      DUP4 \t\t\tmapping(string => Vote[]) publ...\n      ADD \t\t\tmapping(string => Vote[]) publ...\n      PUSH 20\t\t\tmapping(string => Vote[]) publ...\n      DUP6 \t\t\tmapping(string => Vote[]) publ...\n      ADD \t\t\tmapping(string => Vote[]) publ...\n      KECCAK256 \t\t\tmapping(string => Vote[]) publ...\n      DUP2 \t\t\tmapping(string => Vote[]) publ...\n      DUP4 \t\t\tmapping(string => Vote[]) publ...\n      MSTORE \t\t\tmapping(string => Vote[]) publ...\n      DUP1 \t\t\tmapping(string => Vote[]) publ...\n      SWAP6 \t\t\tmapping(string => Vote[]) publ...\n      POP \t\t\tmapping(string => Vote[]) publ...\n      POP \t\t\tmapping(string => Vote[]) publ...\n      POP \t\t\tmapping(string => Vote[]) publ...\n      POP \t\t\tmapping(string => Vote[]) publ...\n      POP \t\t\tmapping(string => Vote[]) publ...\n      POP \t\t\tmapping(string => Vote[]) publ...\n      DUP2 \t\t\tmapping(string => Vote[]) publ...\n      DUP2 \t\t\tmapping(string => Vote[]) publ...\n      SLOAD \t\t\tmapping(string => Vote[]) publ...\n      DUP2 \t\t\tmapping(string => Vote[]) publ...\n      LT \t\t\tmapping(string => Vote[]) publ...\n      PUSH [tag] 154\t\t\tmapping(string => Vote[]) publ...\n      JUMPI \t\t\tmapping(string => Vote[]) publ...\n      PUSH 0\t\t\tmapping(string => Vote[]) publ...\n      DUP1 \t\t\tmapping(string => Vote[]) publ...\n      REVERT \t\t\tmapping(string => Vote[]) publ...\n    tag 154\t\t\tmapping(string => Vote[]) publ...\n      JUMPDEST \t\t\tmapping(string => Vote[]) publ...\n      SWAP1 \t\t\tmapping(string => Vote[]) publ...\n      PUSH 0\t\t\tmapping(string => Vote[]) publ...\n      MSTORE \t\t\tmapping(string => Vote[]) publ...\n      PUSH 20\t\t\tmapping(string => Vote[]) publ...\n      PUSH 0\t\t\tmapping(string => Vote[]) publ...\n      KECCAK256 \t\t\tmapping(string => Vote[]) publ...\n      SWAP1 \t\t\tmapping(string => Vote[]) publ...\n      PUSH 4\t\t\tmapping(string => Vote[]) publ...\n      MUL \t\t\tmapping(string => Vote[]) publ...\n      ADD \t\t\tmapping(string => Vote[]) publ...\n      PUSH 0\t\t\tmapping(string => Vote[]) publ...\n      SWAP2 \t\t\tmapping(string => Vote[]) publ...\n      POP \t\t\tmapping(string => Vote[]) publ...\n      SWAP2 \t\t\tmapping(string => Vote[]) publ...\n      POP \t\t\tmapping(string => Vote[]) publ...\n      POP \t\t\tmapping(string => Vote[]) publ...\n      DUP1 \t\t\tmapping(string => Vote[]) publ...\n      PUSH 0\t\t\tmapping(string => Vote[]) publ...\n      ADD \t\t\tmapping(string => Vote[]) publ...\n      PUSH 0\t\t\tmapping(string => Vote[]) publ...\n      SWAP1 \t\t\tmapping(string => Vote[]) publ...\n      SLOAD \t\t\tmapping(string => Vote[]) publ...\n      SWAP1 \t\t\tmapping(string => Vote[]) publ...\n      PUSH 100\t\t\tmapping(string => Vote[]) publ...\n      EXP \t\t\tmapping(string => Vote[]) publ...\n      SWAP1 \t\t\tmapping(string => Vote[]) publ...\n      DIV \t\t\tmapping(string => Vote[]) publ...\n      PUSH FFFFFFFFFFFFFFFFFFFFFFFFFFFFFFFFFFFFFFFF\t\t\tmapping(string => Vote[]) publ...\n      AND \t\t\tmapping(string => Vote[]) publ...\n      SWAP1 \t\t\tmapping(string => Vote[]) publ...\n      DUP1 \t\t\tmapping(string => Vote[]) publ...\n      PUSH 1\t\t\tmapping(string => Vote[]) publ...\n      ADD \t\t\tmapping(string => Vote[]) publ...\n      DUP1 \t\t\tmapping(string => Vote[]) publ...\n      SLOAD \t\t\tmapping(string => Vote[]) publ...\n      PUSH [tag] 156\t\t\tmapping(string => Vote[]) publ...\n      SWAP1 \t\t\tmapping(string => Vote[]) publ...\n      PUSH [tag] 119\t\t\tmapping(string => Vote[]) publ...\n      JUMP \t\t\tmapping(string => Vote[]) publ...\n    tag 156\t\t\tmapping(string => Vote[]) publ...\n      JUMPDEST \t\t\tmapping(string => Vote[]) publ...\n      DUP1 \t\t\tmapping(string => Vote[]) publ...\n      PUSH 1F\t\t\tmapping(string => Vote[]) publ...\n      ADD \t\t\tmapping(string => Vote[]) publ...\n      PUSH 20\t\t\tmapping(string => Vote[]) publ...\n      DUP1 \t\t\tmapping(string => Vote[]) publ...\n      SWAP2 \t\t\tmapping(string => Vote[]) publ...\n      DIV \t\t\tmapping(string => Vote[]) publ...\n      MUL \t\t\tmapping(string => Vote[]) publ...\n      PUSH 20\t\t\tmapping(string => Vote[]) publ...\n      ADD \t\t\tmapping(string => Vote[]) publ...\n      PUSH 40\t\t\tmapping(string => Vote[]) publ...\n      MLOAD \t\t\tmapping(string => Vote[]) publ...\n      SWAP1 \t\t\tmapping(string => Vote[]) publ...\n      DUP2 \t\t\tmapping(string => Vote[]) publ...\n      ADD \t\t\tmapping(string => Vote[]) publ...\n      PUSH 40\t\t\tmapping(string => Vote[]) publ...\n      MSTORE \t\t\tmapping(string => Vote[]) publ...\n      DUP1 \t\t\tmapping(string => Vote[]) publ...\n      SWAP3 \t\t\tmapping(string => Vote[]) publ...\n      SWAP2 \t\t\tmapping(string => Vote[]) publ...\n      SWAP1 \t\t\tmapping(string => Vote[]) publ...\n      DUP2 \t\t\tmapping(string => Vote[]) publ...\n      DUP2 \t\t\tmapping(string => Vote[]) publ...\n      MSTORE \t\t\tmapping(string => Vote[]) publ...\n      PUSH 20\t\t\tmapping(string => Vote[]) publ...\n      ADD \t\t\tmapping(string => Vote[]) publ...\n      DUP3 \t\t\tmapping(string => Vote[]) publ...\n      DUP1 \t\t\tmapping(string => Vote[]) publ...\n      SLOAD \t\t\tmapping(string => Vote[]) publ...\n      PUSH [tag] 157\t\t\tmapping(string => Vote[]) publ...\n      SWAP1 \t\t\tmapping(string => Vote[]) publ...\n      PUSH [tag] 119\t\t\tmapping(string => Vote[]) publ...\n      JUMP \t\t\tmapping(string => Vote[]) publ...\n    tag 157\t\t\tmapping(string => Vote[]) publ...\n      JUMPDEST \t\t\tmapping(string => Vote[]) publ...\n      DUP1 \t\t\tmapping(string => Vote[]) publ...\n      ISZERO \t\t\tmapping(string => Vote[]) publ...\n      PUSH [tag] 158\t\t\tmapping(string => Vote[]) publ...\n      JUMPI \t\t\tmapping(string => Vote[]) publ...\n      DUP1 \t\t\tmapping(string => Vote[]) publ...\n      PUSH 1F\t\t\tmapping(string => Vote[]) publ...\n      LT \t\t\tmapping(string => Vote[]) publ...\n      PUSH [tag] 159\t\t\tmapping(string => Vote[]) publ...\n      JUMPI \t\t\tmapping(string => Vote[]) publ...\n      PUSH 100\t\t\tmapping(string => Vote[]) publ...\n      DUP1 \t\t\tmapping(string => Vote[]) publ...\n      DUP4 \t\t\tmapping(string => Vote[]) publ...\n      SLOAD \t\t\tmapping(string => Vote[]) publ...\n      DIV \t\t\tmapping(string => Vote[]) publ...\n      MUL \t\t\tmapping(string => Vote[]) publ...\n      DUP4 \t\t\tmapping(string => Vote[]) publ...\n      MSTORE \t\t\tmapping(string => Vote[]) publ...\n      SWAP2 \t\t\tmapping(string => Vote[]) publ...\n      PUSH 20\t\t\tmapping(string => Vote[]) publ...\n      ADD \t\t\tmapping(string => Vote[]) publ...\n      SWAP2 \t\t\tmapping(string => Vote[]) publ...\n      PUSH [tag] 158\t\t\tmapping(string => Vote[]) publ...\n      JUMP \t\t\tmapping(string => Vote[]) publ...\n    tag 159\t\t\tmapping(string => Vote[]) publ...\n      JUMPDEST \t\t\tmapping(string => Vote[]) publ...\n      DUP3 \t\t\tmapping(string => Vote[]) publ...\n      ADD \t\t\tmapping(string => Vote[]) publ...\n      SWAP2 \t\t\tmapping(string => Vote[]) publ...\n      SWAP1 \t\t\tmapping(string => Vote[]) publ...\n      PUSH 0\t\t\tmapping(string => Vote[]) publ...\n      MSTORE \t\t\tmapping(string => Vote[]) publ...\n      PUSH 20\t\t\tmapping(string => Vote[]) publ...\n      PUSH 0\t\t\tmapping(string => Vote[]) publ...\n      KECCAK256 \t\t\tmapping(string => Vote[]) publ...\n      SWAP1 \t\t\tmapping(string => Vote[]) publ...\n    tag 160\t\t\tmapping(string => Vote[]) publ...\n      JUMPDEST \t\t\tmapping(string => Vote[]) publ...\n      DUP2 \t\t\tmapping(string => Vote[]) publ...\n      SLOAD \t\t\tmapping(string => Vote[]) publ...\n      DUP2 \t\t\tmapping(string => Vote[]) publ...\n      MSTORE \t\t\tmapping(string => Vote[]) publ...\n      SWAP1 \t\t\tmapping(string => Vote[]) publ...\n      PUSH 1\t\t\tmapping(string => Vote[]) publ...\n      ADD \t\t\tmapping(string => Vote[]) publ...\n      SWAP1 \t\t\tmapping(string => Vote[]) publ...\n      PUSH 20\t\t\tmapping(string => Vote[]) publ...\n      ADD \t\t\tmapping(string => Vote[]) publ...\n      DUP1 \t\t\tmapping(string => Vote[]) publ...\n      DUP4 \t\t\tmapping(string => Vote[]) publ...\n      GT \t\t\tmapping(string => Vote[]) publ...\n      PUSH [tag] 160\t\t\tmapping(string => Vote[]) publ...\n      JUMPI \t\t\tmapping(string => Vote[]) publ...\n      DUP3 \t\t\tmapping(string => Vote[]) publ...\n      SWAP1 \t\t\tmapping(string => Vote[]) publ...\n      SUB \t\t\tmapping(string => Vote[]) publ...\n      PUSH 1F\t\t\tmapping(string => Vote[]) publ...\n      AND \t\t\tmapping(string => Vote[]) publ...\n      DUP3 \t\t\tmapping(string => Vote[]) publ...\n      ADD \t\t\tmapping(string => Vote[]) publ...\n      SWAP2 \t\t\tmapping(string => Vote[]) publ...\n    tag 158\t\t\tmapping(string => Vote[]) publ...\n      JUMPDEST \t\t\tmapping(string => Vote[]) publ...\n      POP \t\t\tmapping(string => Vote[]) publ...\n      POP \t\t\tmapping(string => Vote[]) publ...\n      POP \t\t\tmapping(string => Vote[]) publ...\n      POP \t\t\tmapping(string => Vote[]) publ...\n      POP \t\t\tmapping(string => Vote[]) publ...\n      SWAP1 \t\t\tmapping(string => Vote[]) publ...\n      DUP1 \t\t\tmapping(string => Vote[]) publ...\n      PUSH 2\t\t\tmapping(string => Vote[]) publ...\n      ADD \t\t\tmapping(string => Vote[]) publ...\n      SLOAD \t\t\tmapping(string => Vote[]) publ...\n      SWAP1 \t\t\tmapping(string => Vote[]) publ...\n      DUP1 \t\t\tmapping(string => Vote[]) publ...\n      PUSH 3\t\t\tmapping(string => Vote[]) publ...\n      ADD \t\t\tmapping(string => Vote[]) publ...\n      PUSH 0\t\t\tmapping(string => Vote[]) publ...\n      SWAP1 \t\t\tmapping(string => Vote[]) publ...\n      SLOAD \t\t\tmapping(string => Vote[]) publ...\n      SWAP1 \t\t\tmapping(string => Vote[]) publ...\n      PUSH 100\t\t\tmapping(string => Vote[]) publ...\n      EXP \t\t\tmapping(string => Vote[]) publ...\n      SWAP1 \t\t\tmapping(string => Vote[]) publ...\n      DIV \t\t\tmapping(string => Vote[]) publ...\n      PUSH FF\t\t\tmapping(string => Vote[]) publ...\n      AND \t\t\tmapping(string => Vote[]) publ...\n      SWAP1 \t\t\tmapping(string => Vote[]) publ...\n      POP \t\t\tmapping(string => Vote[]) publ...\n      DUP5 \t\t\tmapping(string => Vote[]) publ...\n      JUMP \t\t\tmapping(string => Vote[]) publ...\n    tag 67\t\t\tfunction recordIssue(\\r\\n     ...\n      JUMPDEST \t\t\tfunction recordIssue(\\r\\n     ...\n      PUSH 0\t\t\t0\n      DUP3 \t\t\t_issueId\n      MLOAD \t\t\tbytes(_issueId).length\n      GT \t\t\tbytes(_issueId).length > 0\n      PUSH [tag] 162\t\t\trequire(bytes(_issueId).length...\n      JUMPI \t\t\trequire(bytes(_issueId).length...\n      PUSH 40\t\t\trequire(bytes(_issueId).length...\n      MLOAD \t\t\trequire(bytes(_issueId).length...\n      PUSH 8C379A000000000000000000000000000000000000000000000000000000000\t\t\trequire(bytes(_issueId).length...\n      DUP2 \t\t\trequire(bytes(_issueId).length...\n      MSTORE \t\t\trequire(bytes(_issueId).length...\n      PUSH 4\t\t\trequire(bytes(_issueId).length...\n      ADD \t\t\trequire(bytes(_issueId).length...\n      PUSH [tag] 163\t\t\trequire(bytes(_issueId).length...\n      SWAP1 \t\t\trequire(bytes(_issueId).length...\n      PUSH [tag] 164\t\t\trequire(bytes(_issueId).length...\n      JUMP \t\t\trequire(bytes(_issueId).length...\n    tag 163\t\t\trequire(bytes(_issueId).length...\n      JUMPDEST \t\t\trequire(bytes(_issueId).length...\n      PUSH 40\t\t\trequire(bytes(_issueId).length...\n      MLOAD \t\t\trequire(bytes(_issueId).length...\n      DUP1 \t\t\trequire(bytes(_issueId).length...\n      SWAP2 \t\t\trequire(bytes(_issueId).length...\n      SUB \t\t\trequire(bytes(_issueId).length...\n      SWAP1 \t\t\trequire(bytes(_issueId).length...\n      REVERT \t\t\trequire(bytes(_issueId).length...\n    tag 162\t\t\trequire(bytes(_issueId).length...\n      JUMPDEST \t\t\trequire(bytes(_issueId).length...\n      PUSH 0\t\t\t0\n      DUP2 \t\t\t_title\n      MLOAD \t\t\tbytes(_title).length\n      GT \t\t\tbytes(_title).length > 0\n      PUSH [tag] 165\t\t\trequire(bytes(_title).length >...\n      JUMPI \t\t\trequire(bytes(_title).length >...\n      PUSH 40\t\t\trequire(bytes(_title).length >...\n      MLOAD \t\t\trequire(bytes(_title).length >...\n      PUSH 8C379A000000000000000000000000000000000000000000000000000000000\t\t\trequire(bytes(_title).length >...\n      DUP2 \t\t\trequire(bytes(_title).length >...\n      MSTORE \t\t\trequire(bytes(_title).length >...\n      PUSH 4\t\t\trequire(bytes(_title).length >...\n      ADD \t\t\trequire(bytes(_title).length >...\n      PUSH [tag] 166\t\t\trequire(bytes(_title).length >...\n      SWAP1 \t\t\trequire(bytes(_title).length >...\n      PUSH [tag] 167\t\t\trequire(bytes(_title).length >...\n      JUMP \t\t\trequire(bytes(_title).length >...\n    tag 166\t\t\trequire(bytes(_title).length >...\n      JUMPDEST \t\t\trequire(bytes(_title).length >...\n      PUSH 40\t\t\trequire(bytes(_title).length >...\n      MLOAD \t\t\trequire(bytes(_title).length >...\n      DUP1 \t\t\trequire(bytes(_title).length >...\n      SWAP2 \t\t\trequire(bytes(_title).length >...\n      SUB \t\t\trequire(bytes(_title).length >...\n      SWAP1 \t\t\trequire(bytes(_title).length >...\n      REVERT \t\t\trequire(bytes(_title).length >...\n    tag 165\t\t\trequire(bytes(_title).length >...\n      JUMPDEST \t\t\trequire(bytes(_title).length >...\n      PUSH 0\t\t\tissues\n      DUP3 \t\t\t_issueId\n      PUSH 40\t\t\tissues[_issueId]\n      MLOAD \t\t\tissues[_issueId]\n      PUSH [tag] 168\t\t\tissues[_issueId]\n      SWAP2 \t\t\tissues[_issueId]\n      SWAP1 \t\t\tissues[_issueId]\n      PUSH [tag] 91\t\t\tissues[_issueId]\n      JUMP \t\t\tissues[_issueId]\n    tag 168\t\t\tissues[_issueId]\n      JUMPDEST \t\t\tissues[_issueId]\n      SWAP1 \t\t\tissues[_issueId]\n      DUP2 \t\t\tissues[_issueId]\n      MSTORE \t\t\tissues[_issueId]\n      PUSH 20\t\t\tissues[_issueId]\n      ADD \t\t\tissues[_issueId]\n      PUSH 40\t\t\tissues[_issueId]\n      MLOAD \t\t\tissues[_issueId]\n      DUP1 \t\t\tissues[_issueId]\n      SWAP2 \t\t\tissues[_issueId]\n      SUB \t\t\tissues[_issueId]\n      SWAP1 \t\t\tissues[_issueId]\n      KECCAK256 \t\t\tissues[_issueId]\n      PUSH 5\t\t\tissues[_issueId].exists\n      ADD \t\t\tissues[_issueId].exists\n      PUSH 0\t\t\tissues[_issueId].exists\n      SWAP1 \t\t\tissues[_issueId].exists\n      SLOAD \t\t\tissues[_issueId].exists\n      SWAP1 \t\t\tissues[_issueId].exists\n      PUSH 100\t\t\tissues[_issueId].exists\n      EXP \t\t\tissues[_issueId].exists\n      SWAP1 \t\t\tissues[_issueId].exists\n      DIV \t\t\tissues[_issueId].exists\n      PUSH FF\t\t\tissues[_issueId].exists\n      AND \t\t\tissues[_issueId].exists\n      ISZERO \t\t\t!issues[_issueId].exists\n      PUSH [tag] 169\t\t\trequire(!issues[_issueId].exis...\n      JUMPI \t\t\trequire(!issues[_issueId].exis...\n      PUSH 40\t\t\trequire(!issues[_issueId].exis...\n      MLOAD \t\t\trequire(!issues[_issueId].exis...\n      PUSH 8C379A000000000000000000000000000000000000000000000000000000000\t\t\trequire(!issues[_issueId].exis...\n      DUP2 \t\t\trequire(!issues[_issueId].exis...\n      MSTORE \t\t\trequire(!issues[_issueId].exis...\n      PUSH 4\t\t\trequire(!issues[_issueId].exis...\n      ADD \t\t\trequire(!issues[_issueId].exis...\n      PUSH [tag] 170\t\t\trequire(!issues[_issueId].exis...\n      SWAP1 \t\t\trequire(!issues[_issueId].exis...\n      PUSH [tag] 171\t\t\trequire(!issues[_issueId].exis...\n      JUMP \t\t\trequire(!issues[_issueId].exis...\n    tag 170\t\t\trequire(!issues[_issueId].exis...\n      JUMPDEST \t\t\trequire(!issues[_issueId].exis...\n      PUSH 40\t\t\trequire(!issues[_issueId].exis...\n      MLOAD \t\t\trequire(!issues[_issueId].exis...\n      DUP1 \t\t\trequire(!issues[_issueId].exis...\n      SWAP2 \t\t\trequire(!issues[_issueId].exis...\n      SUB \t\t\trequire(!issues[_issueId].exis...\n      SWAP1 \t\t\trequire(!issues[_issueId].exis...\n      REVERT \t\t\trequire(!issues[_issueId].exis...\n    tag 169\t\t\trequire(!issues[_issueId].exis...\n      JUMPDEST \t\t\trequire(!issues[_issueId].exis...\n      PUSH 40\t\t\tIssue({\\r\\n            issueId...\n      MLOAD \t\t\tIssue({\\r\\n            issueId...\n      DUP1 \t\t\tIssue({\\r\\n            issueId...\n      PUSH C0\t\t\tIssue({\\r\\n            issueId...\n      ADD \t\t\tIssue({\\r\\n            issueId...\n      PUSH 40\t\t\tIssue({\\r\\n            issueId...\n      MSTORE \t\t\tIssue({\\r\\n            issueId...\n      DUP1 \t\t\tIssue({\\r\\n            issueId...\n      DUP4 \t\t\t_issueId\n      DUP2 \t\t\tIssue({\\r\\n            issueId...\n      MSTORE \t\t\tIssue({\\r\\n            issueId...\n      PUSH 20\t\t\tIssue({\\r\\n            issueId...\n      ADD \t\t\tIssue({\\r\\n            issueId...\n      DUP3 \t\t\t_title\n      DUP2 \t\t\tIssue({\\r\\n            issueId...\n      MSTORE \t\t\tIssue({\\r\\n            issueId...\n      PUSH 20\t\t\tIssue({\\r\\n            issueId...\n      ADD \t\t\tIssue({\\r\\n            issueId...\n      CALLER \t\t\tmsg.sender\n      PUSH FFFFFFFFFFFFFFFFFFFFFFFFFFFFFFFFFFFFFFFF\t\t\tIssue({\\r\\n            issueId...\n      AND \t\t\tIssue({\\r\\n            issueId...\n      DUP2 \t\t\tIssue({\\r\\n            issueId...\n      MSTORE \t\t\tIssue({\\r\\n            issueId...\n      PUSH 20\t\t\tIssue({\\r\\n            issueId...\n      ADD \t\t\tIssue({\\r\\n            issueId...\n      TIMESTAMP \t\t\tblock.timestamp\n      DUP2 \t\t\tIssue({\\r\\n            issueId...\n      MSTORE \t\t\tIssue({\\r\\n            issueId...\n      PUSH 20\t\t\tIssue({\\r\\n            issueId...\n      ADD \t\t\tIssue({\\r\\n            issueId...\n      PUSH 0\t\t\t0\n      DUP2 \t\t\tIssue({\\r\\n            issueId...\n      MSTORE \t\t\tIssue({\\r\\n            issueId...\n      PUSH 20\t\t\tIssue({\\r\\n            issueId...\n      ADD \t\t\tIssue({\\r\\n            issueId...\n      PUSH 1\t\t\ttrue\n      ISZERO \t\t\tIssue({\\r\\n            issueId...\n      ISZERO \t\t\tIssue({\\r\\n            issueId...\n      DUP2 \t\t\tIssue({\\r\\n            issueId...\n      MSTORE \t\t\tIssue({\\r\\n            issueId...\n      POP \t\t\tIssue({\\r\\n            issueId...\n      PUSH 0\t\t\tissues\n      DUP4 \t\t\t_issueId\n      PUSH 40\t\t\tissues[_issueId]\n      MLOAD \t\t\tissues[_issueId]\n      PUSH [tag] 172\t\t\tissues[_issueId]\n      SWAP2 \t\t\tissues[_issueId]\n      SWAP1 \t\t\tissues[_issueId]\n      PUSH [tag] 91\t\t\tissues[_issueId]\n      JUMP \t\t\tissues[_issueId]\n    tag 172\t\t\tissues[_issueId]\n      JUMPDEST \t\t\tissues[_issueId]\n      SWAP1 \t\t\tissues[_issueId]\n      DUP2 \t\t\tissues[_issueId]\n      MSTORE \t\t\tissues[_issueId]\n      PUSH 20\t\t\tissues[_issueId]\n      ADD \t\t\tissues[_issueId]\n      PUSH 40\t\t\tissues[_issueId]\n      MLOAD \t\t\tissues[_issueId]\n      DUP1 \t\t\tissues[_issueId]\n      SWAP2 \t\t\tissues[_issueId]\n      SUB \t\t\tissues[_issueId]\n      SWAP1 \t\t\tissues[_issueId]\n      KECCAK256 \t\t\tissues[_issueId]\n      PUSH 0\t\t\tissues[_issueId] = Issue({\\r\\n...\n      DUP3 \t\t\tissues[_issueId] = Issue({\\r\\n...\n      ADD \t\t\tissues[_issueId] = Issue({\\r\\n...\n      MLOAD \t\t\tissues[_issueId] = Issue({\\r\\n...\n      DUP2 \t\t\tissues[_issueId] = Issue({\\r\\n...\n      PUSH 0\t\t\tissues[_issueId] = Issue({\\r\\n...\n      ADD \t\t\tissues[_issueId] = Issue({\\r\\n...\n      SWAP1 \t\t\tissues[_issueId] = Issue({\\r\\n...\n      DUP2 \t\t\tissues[_issueId] = Issue({\\r\\n...\n      PUSH [tag] 173\t\t\tissues[_issueId] = Issue({\\r\\n...\n      SWAP2 \t\t\tissues[_issueId] = Issue({\\r\\n...\n      SWAP1 \t\t\tissues[_issueId] = Issue({\\r\\n...\n      PUSH [tag] 102\t\t\tissues[_issueId] = Issue({\\r\\n...\n      JUMP \t\t\tissues[_issueId] = Issue({\\r\\n...\n    tag 173\t\t\tissues[_issueId] = Issue({\\r\\n...\n      JUMPDEST \t\t\tissues[_issueId] = Issue({\\r\\n...\n      POP \t\t\tissues[_issueId] = Issue({\\r\\n...\n      PUSH 20\t\t\tissues[_issueId] = Issue({\\r\\n...\n      DUP3 \t\t\tissues[_issueId] = Issue({\\r\\n...\n      ADD \t\t\tissues[_issueId] = Issue({\\r\\n...\n      MLOAD \t\t\tissues[_issueId] = Issue({\\r\\n...\n      DUP2 \t\t\tissues[_issueId] = Issue({\\r\\n...\n      PUSH 1\t\t\tissues[_issueId] = Issue({\\r\\n...\n      ADD \t\t\tissues[_issueId] = Issue({\\r\\n...\n      SWAP1 \t\t\tissues[_issueId] = Issue({\\r\\n...\n      DUP2 \t\t\tissues[_issueId] = Issue({\\r\\n...\n      PUSH [tag] 174\t\t\tissues[_issueId] = Issue({\\r\\n...\n      SWAP2 \t\t\tissues[_issueId] = Issue({\\r\\n...\n      SWAP1 \t\t\tissues[_issueId] = Issue({\\r\\n...\n      PUSH [tag] 102\t\t\tissues[_issueId] = Issue({\\r\\n...\n      JUMP \t\t\tissues[_issueId] = Issue({\\r\\n...\n    tag 174\t\t\tissues[_issueId] = Issue({\\r\\n...\n      JUMPDEST \t\t\tissues[_issueId] = Issue({\\r\\n...\n      POP \t\t\tissues[_issueId] = Issue({\\r\\n...\n      PUSH 40\t\t\tissues[_issueId] = Issue({\\r\\n...\n      DUP3 \t\t\tissues[_issueId] = Issue({\\r\\n...\n      ADD \t\t\tissues[_issueId] = Issue({\\r\\n...\n      MLOAD \t\t\tissues[_issueId] = Issue({\\r\\n...\n      DUP2 \t\t\tissues[_issueId] = Issue({\\r\\n...\n      PUSH 2\t\t\tissues[_issueId] = Issue({\\r\\n...\n      ADD \t\t\tissues[_issueId] = Issue({\\r\\n...\n      PUSH 0\t\t\tissues[_issueId] = Issue({\\r\\n...\n      PUSH 100\t\t\tissues[_issueId] = Issue({\\r\\n...\n      EXP \t\t\tissues[_issueId] = Issue({\\r\\n...\n      DUP2 \t\t\tissues[_issueId] = Issue({\\r\\n...\n      SLOAD \t\t\tissues[_issueId] = Issue({\\r\\n...\n      DUP2 \t\t\tissues[_issueId] = Issue({\\r\\n...\n      PUSH FFFFFFFFFFFFFFFFFFFFFFFFFFFFFFFFFFFFFFFF\t\t\tissues[_issueId] = Issue({\\r\\n...\n      MUL \t\t\tissues[_issueId] = Issue({\\r\\n...\n      NOT \t\t\tissues[_issueId] = Issue({\\r\\n...\n      AND \t\t\tissues[_issueId] = Issue({\\r\\n...\n      SWAP1 \t\t\tissues[_issueId] = Issue({\\r\\n...\n      DUP4 \t\t\tissues[_issueId] = Issue({\\r\\n...\n      PUSH FFFFFFFFFFFFFFFFFFFFFFFFFFFFFFFFFFFFFFFF\t\t\tissues[_issueId] = Issue({\\r\\n...\n      AND \t\t\tissues[_issueId] = Issue({\\r\\n...\n      MUL \t\t\tissues[_issueId] = Issue({\\r\\n...\n      OR \t\t\tissues[_issueId] = Issue({\\r\\n...\n      SWAP1 \t\t\tissues[_issueId] = Issue({\\r\\n...\n      SSTORE \t\t\tissues[_issueId] = Issue({\\r\\n...\n      POP \t\t\tissues[_issueId] = Issue({\\r\\n...\n      PUSH 60\t\t\tissues[_issueId] = Issue({\\r\\n...\n      DUP3 \t\t\tissues[_issueId] = Issue({\\r\\n...\n      ADD \t\t\tissues[_issueId] = Issue({\\r\\n...\n      MLOAD \t\t\tissues[_issueId] = Issue({\\r\\n...\n      DUP2 \t\t\tissues[_issueId] = Issue({\\r\\n...\n      PUSH 3\t\t\tissues[_issueId] = Issue({\\r\\n...\n      ADD \t\t\tissues[_issueId] = Issue({\\r\\n...\n      SSTORE \t\t\tissues[_issueId] = Issue({\\r\\n...\n      PUSH 80\t\t\tissues[_issueId] = Issue({\\r\\n...\n      DUP3 \t\t\tissues[_issueId] = Issue({\\r\\n...\n      ADD \t\t\tissues[_issueId] = Issue({\\r\\n...\n      MLOAD \t\t\tissues[_issueId] = Issue({\\r\\n...\n      DUP2 \t\t\tissues[_issueId] = Issue({\\r\\n...\n      PUSH 4\t\t\tissues[_issueId] = Issue({\\r\\n...\n      ADD \t\t\tissues[_issueId] = Issue({\\r\\n...\n      SSTORE \t\t\tissues[_issueId] = Issue({\\r\\n...\n      PUSH A0\t\t\tissues[_issueId] = Issue({\\r\\n...\n      DUP3 \t\t\tissues[_issueId] = Issue({\\r\\n...\n      ADD \t\t\tissues[_issueId] = Issue({\\r\\n...\n      MLOAD \t\t\tissues[_issueId] = Issue({\\r\\n...\n      DUP2 \t\t\tissues[_issueId] = Issue({\\r\\n...\n      PUSH 5\t\t\tissues[_issueId] = Issue({\\r\\n...\n      ADD \t\t\tissues[_issueId] = Issue({\\r\\n...\n      PUSH 0\t\t\tissues[_issueId] = Issue({\\r\\n...\n      PUSH 100\t\t\tissues[_issueId] = Issue({\\r\\n...\n      EXP \t\t\tissues[_issueId] = Issue({\\r\\n...\n      DUP2 \t\t\tissues[_issueId] = Issue({\\r\\n...\n      SLOAD \t\t\tissues[_issueId] = Issue({\\r\\n...\n      DUP2 \t\t\tissues[_issueId] = Issue({\\r\\n...\n      PUSH FF\t\t\tissues[_issueId] = Issue({\\r\\n...\n      MUL \t\t\tissues[_issueId] = Issue({\\r\\n...\n      NOT \t\t\tissues[_issueId] = Issue({\\r\\n...\n      AND \t\t\tissues[_issueId] = Issue({\\r\\n...\n      SWAP1 \t\t\tissues[_issueId] = Issue({\\r\\n...\n      DUP4 \t\t\tissues[_issueId] = Issue({\\r\\n...\n      ISZERO \t\t\tissues[_issueId] = Issue({\\r\\n...\n      ISZERO \t\t\tissues[_issueId] = Issue({\\r\\n...\n      MUL \t\t\tissues[_issueId] = Issue({\\r\\n...\n      OR \t\t\tissues[_issueId] = Issue({\\r\\n...\n      SWAP1 \t\t\tissues[_issueId] = Issue({\\r\\n...\n      SSTORE \t\t\tissues[_issueId] = Issue({\\r\\n...\n      POP \t\t\tissues[_issueId] = Issue({\\r\\n...\n      SWAP1 \t\t\tissues[_issueId] = Issue({\\r\\n...\n      POP \t\t\tissues[_issueId] = Issue({\\r\\n...\n      POP \t\t\tissues[_issueId] = Issue({\\r\\n...\n      PUSH 4\t\t\tallIssueIds\n      DUP3 \t\t\t_issueId\n      SWAP1 \t\t\tallIssueIds.push(_issueId)\n      DUP1 \t\t\tallIssueIds.push(_issueId)\n      PUSH 1\t\t\tallIssueIds.push(_issueId)\n      DUP2 \t\t\tallIssueIds.push(_issueId)\n      SLOAD \t\t\tallIssueIds.push(_issueId)\n      ADD \t\t\tallIssueIds.push(_issueId)\n      DUP1 \t\t\tallIssueIds.push(_issueId)\n      DUP3 \t\t\tallIssueIds.push(_issueId)\n      SSTORE \t\t\tallIssueIds.push(_issueId)\n      DUP1 \t\t\tallIssueIds.push(_issueId)\n      SWAP2 \t\t\tallIssueIds.push(_issueId)\n      POP \t\t\tallIssueIds.push(_issueId)\n      POP \t\t\tallIssueIds.push(_issueId)\n      PUSH 1\t\t\tallIssueIds.push(_issueId)\n      SWAP1 \t\t\tallIssueIds.push(_issueId)\n      SUB \t\t\tallIssueIds.push(_issueId)\n      SWAP1 \t\t\tallIssueIds.push(_issueId)\n      PUSH 0\t\t\tallIssueIds.push(_issueId)\n      MSTORE \t\t\tallIssueIds.push(_issueId)\n      PUSH 20\t\t\tallIssueIds.push(_issueId)\n      PUSH 0\t\t\tallIssueIds.push(_issueId)\n      KECCAK256 \t\t\tallIssueIds.push(_issueId)\n      ADD \t\t\tallIssueIds.push(_issueId)\n      PUSH 0\t\t\tallIssueIds.push(_issueId)\n      SWAP1 \t\t\tallIssueIds.push(_issueId)\n      SWAP2 \t\t\tallIssueIds.push(_issueId)\n      SWAP1 \t\t\tallIssueIds.push(_issueId)\n      SWAP2 \t\t\tallIssueIds.push(_issueId)\n      SWAP1 \t\t\tallIssueIds.push(_issueId)\n      SWAP2 \t\t\tallIssueIds.push(_issueId)\n      POP \t\t\tallIssueIds.push(_issueId)\n      SWAP1 \t\t\tallIssueIds.push(_issueId)\n      DUP2 \t\t\tallIssueIds.push(_issueId)\n      PUSH [tag] 176\t\t\tallIssueIds.push(_issueId)\n      SWAP2 \t\t\tallIssueIds.push(_issueId)\n      SWAP1 \t\t\tallIssueIds.push(_issueId)\n      PUSH [tag] 102\t\t\tallIssueIds.push(_issueId)\n      JUMP \t\t\tallIssueIds.push(_issueId)\n    tag 176\t\t\tallIssueIds.push(_issueId)\n      JUMPDEST \t\t\tallIssueIds.push(_issueId)\n      POP \t\t\tallIssueIds.push(_issueId)\n      PUSH 2\t\t\tuserIssues\n      PUSH 0\t\t\tuserIssues[msg.sender]\n      CALLER \t\t\tmsg.sender\n      PUSH FFFFFFFFFFFFFFFFFFFFFFFFFFFFFFFFFFFFFFFF\t\t\tuserIssues[msg.sender]\n      AND \t\t\tuserIssues[msg.sender]\n      PUSH FFFFFFFFFFFFFFFFFFFFFFFFFFFFFFFFFFFFFFFF\t\t\tuserIssues[msg.sender]\n      AND \t\t\tuserIssues[msg.sender]\n      DUP2 \t\t\tuserIssues[msg.sender]\n      MSTORE \t\t\tuserIssues[msg.sender]\n      PUSH 20\t\t\tuserIssues[msg.sender]\n      ADD \t\t\tuserIssues[msg.sender]\n      SWAP1 \t\t\tuserIssues[msg.sender]\n      DUP2 \t\t\tuserIssues[msg.sender]\n      MSTORE \t\t\tuserIssues[msg.sender]\n      PUSH 20\t\t\tuserIssues[msg.sender]\n      ADD \t\t\tuserIssues[msg.sender]\n      PUSH 0\t\t\tuserIssues[msg.sender]\n      KECCAK256 \t\t\tuserIssues[msg.sender]\n      DUP3 \t\t\t_issueId\n      SWAP1 \t\t\tuserIssues[msg.sender].push(_i...\n      DUP1 \t\t\tuserIssues[msg.sender].push(_i...\n      PUSH 1\t\t\tuserIssues[msg.sender].push(_i...\n      DUP2 \t\t\tuserIssues[msg.sender].push(_i...\n      SLOAD \t\t\tuserIssues[msg.sender].push(_i...\n      ADD \t\t\tuserIssues[msg.sender].push(_i...\n      DUP1 \t\t\tuserIssues[msg.sender].push(_i...\n      DUP3 \t\t\tuserIssues[msg.sender].push(_i...\n      SSTORE \t\t\tuserIssues[msg.sender].push(_i...\n      DUP1 \t\t\tuserIssues[msg.sender].push(_i...\n      SWAP2 \t\t\tuserIssues[msg.sender].push(_i...\n      POP \t\t\tuserIssues[msg.sender].push(_i...\n      POP \t\t\tuserIssues[msg.sender].push(_i...\n      PUSH 1\t\t\tuserIssues[msg.sender].push(_i...\n      SWAP1 \t\t\tuserIssues[msg.sender].push(_i...\n      SUB \t\t\tuserIssues[msg.sender].push(_i...\n      SWAP1 \t\t\tuserIssues[msg.sender].push(_i...\n      PUSH 0\t\t\tuserIssues[msg.sender].push(_i...\n      MSTORE \t\t\tuserIssues[msg.sender].push(_i...\n      PUSH 20\t\t\tuserIssues[msg.sender].push(_i...\n      PUSH 0\t\t\tuserIssues[msg.sender].push(_i...\n      KECCAK256 \t\t\tuserIssues[msg.sender].push(_i...\n      ADD \t\t\tuserIssues[msg.sender].push(_i...\n      PUSH 0\t\t\tuserIssues[msg.sender].push(_i...\n      SWAP1 \t\t\tuserIssues[msg.sender].push(_i...\n      SWAP2 \t\t\tuserIssues[msg.sender].push(_i...\n      SWAP1 \t\t\tuserIssues[msg.sender].push(_i...\n      SWAP2 \t\t\tuserIssues[msg.sender].push(_i...\n      SWAP1 \t\t\tuserIssues[msg.sender].push(_i...\n      SWAP2 \t\t\tuserIssues[msg.sender].push(_i...\n      POP \t\t\tuserIssues[msg.sender].push(_i...\n      SWAP1 \t\t\tuserIssues[msg.sender].push(_i...\n      DUP2 \t\t\tuserIssues[msg.sender].push(_i...\n      PUSH [tag] 178\t\t\tuserIssues[msg.sender].push(_i...\n      SWAP2 \t\t\tuserIssues[msg.sender].push(_i...\n      SWAP1 \t\t\tuserIssues[msg.sender].push(_i...\n      PUSH [tag] 102\t\t\tuserIssues[msg.sender].push(_i...\n      JUMP \t\t\tuserIssues[msg.sender].push(_i...\n    tag 178\t\t\tuserIssues[msg.sender].push(_i...\n      JUMPDEST \t\t\tuserIssues[msg.sender].push(_i...\n      POP \t\t\tuserIssues[msg.sender].push(_i...\n      CALLER \t\t\tmsg.sender\n      PUSH FFFFFFFFFFFFFFFFFFFFFFFFFFFFFFFFFFFFFFFF\t\t\tIssueRecorded(_issueId, _title...\n      AND \t\t\tIssueRecorded(_issueId, _title...\n      DUP3 \t\t\t_issueId\n      PUSH 40\t\t\tIssueRecorded(_issueId, _title...\n      MLOAD \t\t\tIssueRecorded(_issueId, _title...\n      PUSH [tag] 179\t\t\tIssueRecorded(_issueId, _title...\n      SWAP2 \t\t\tIssueRecorded(_issueId, _title...\n      SWAP1 \t\t\tIssueRecorded(_issueId, _title...\n      PUSH [tag] 91\t\t\tIssueRecorded(_issueId, _title...\n      JUMP \t\t\tIssueRecorded(_issueId, _title...\n    tag 179\t\t\tIssueRecorded(_issueId, _title...\n      JUMPDEST \t\t\tIssueRecorded(_issueId, _title...\n      PUSH 40\t\t\tIssueRecorded(_issueId, _title...\n      MLOAD \t\t\tIssueRecorded(_issueId, _title...\n      DUP1 \t\t\tIssueRecorded(_issueId, _title...\n      SWAP2 \t\t\tIssueRecorded(_issueId, _title...\n      SUB \t\t\tIssueRecorded(_issueId, _title...\n      SWAP1 \t\t\tIssueRecorded(_issueId, _title...\n      KECCAK256 \t\t\tIssueRecorded(_issueId, _title...\n      PUSH 8D9E646B7BE50523DBF45D232DEA79BF57ED2EA290147F46D64D74918BCCE742\t\t\tIssueRecorded(_issueId, _title...\n      DUP4 \t\t\t_title\n      TIMESTAMP \t\t\tblock.timestamp\n      PUSH 40\t\t\tIssueRecorded(_issueId, _title...\n      MLOAD \t\t\tIssueRecorded(_issueId, _title...\n      PUSH [tag] 180\t\t\tIssueRecorded(_issueId, _title...\n      SWAP3 \t\t\tIssueRecorded(_issueId, _title...\n      SWAP2 \t\t\tIssueRecorded(_issueId, _title...\n      SWAP1 \t\t\tIssueRecorded(_issueId, _title...\n      PUSH [tag] 181\t\t\tIssueRecorded(_issueId, _title...\n      JUMP \t\t\tIssueRecorded(_issueId, _title...\n    tag 180\t\t\tIssueRecorded(_issueId, _title...\n      JUMPDEST \t\t\tIssueRecorded(_issueId, _title...\n      PUSH 40\t\t\tIssueRecorded(_issueId, _title...\n      MLOAD \t\t\tIssueRecorded(_issueId, _title...\n      DUP1 \t\t\tIssueRecorded(_issueId, _title...\n      SWAP2 \t\t\tIssueRecorded(_issueId, _title...\n      SUB \t\t\tIssueRecorded(_issueId, _title...\n      SWAP1 \t\t\tIssueRecorded(_issueId, _title...\n      LOG3 \t\t\tIssueRecorded(_issueId, _title...\n      POP \t\t\tfunction recordIssue(\\r\\n     ...\n      POP \t\t\tfunction recordIssue(\\r\\n     ...\n      JUMP \t\t\tfunction recordIssue(\\r\\n     ...\n    tag 71\t\t\tfunction getAllIssues(uint256 ...\n      JUMPDEST \t\t\tfunction getAllIssues(uint256 ...\n      PUSH 60\t\t\tstring[] memory\n      PUSH 4\t\t\tallIssueIds\n      DUP1 \t\t\tallIssueIds.length\n      SLOAD \t\t\tallIssueIds.length\n      SWAP1 \t\t\tallIssueIds.length\n      POP \t\t\tallIssueIds.length\n      DUP4 \t\t\t_offset\n      LT \t\t\t_offset < allIssueIds.length\n      PUSH [tag] 183\t\t\trequire(_offset < allIssueIds....\n      JUMPI \t\t\trequire(_offset < allIssueIds....\n      PUSH 40\t\t\trequire(_offset < allIssueIds....\n      MLOAD \t\t\trequire(_offset < allIssueIds....\n      PUSH 8C379A000000000000000000000000000000000000000000000000000000000\t\t\trequire(_offset < allIssueIds....\n      DUP2 \t\t\trequire(_offset < allIssueIds....\n      MSTORE \t\t\trequire(_offset < allIssueIds....\n      PUSH 4\t\t\trequire(_offset < allIssueIds....\n      ADD \t\t\trequire(_offset < allIssueIds....\n      PUSH [tag] 184\t\t\trequire(_offset < allIssueIds....\n      SWAP1 \t\t\trequire(_offset < allIssueIds....\n      PUSH [tag] 185\t\t\trequire(_offset < allIssueIds....\n      JUMP \t\t\trequire(_offset < allIssueIds....\n    tag 184\t\t\trequire(_offset < allIssueIds....\n      JUMPDEST \t\t\trequire(_offset < allIssueIds....\n      PUSH 40\t\t\trequire(_offset < allIssueIds....\n      MLOAD \t\t\trequire(_offset < allIssueIds....\n      DUP1 \t\t\trequire(_offset < allIssueIds....\n      SWAP2 \t\t\trequire(_offset < allIssueIds....\n      SUB \t\t\trequire(_offset < allIssueIds....\n      SWAP1 \t\t\trequire(_offset < allIssueIds....\n      REVERT \t\t\trequire(_offset < allIssueIds....\n    tag 183\t\t\trequire(_offset < allIssueIds....\n      JUMPDEST \t\t\trequire(_offset < allIssueIds....\n      PUSH 0\t\t\tuint256 end\n      DUP3 \t\t\t_limit\n      DUP5 \t\t\t_offset\n      PUSH [tag] 186\t\t\t_offset + _limit\n      SWAP2 \t\t\t_offset + _limit\n      SWAP1 \t\t\t_offset + _limit\n      PUSH [tag] 187\t\t\t_offset + _limit\n      JUMP \t\t\t_offset + _limit\n    tag 186\t\t\t_offset + _limit\n      JUMPDEST \t\t\t_offset + _limit\n      SWAP1 \t\t\tuint256 end = _offset + _limit\n      POP \t\t\tuint256 end = _offset + _limit\n      PUSH 4\t\t\tallIssueIds\n      DUP1 \t\t\tallIssueIds.length\n      SLOAD \t\t\tallIssueIds.length\n      SWAP1 \t\t\tallIssueIds.length\n      POP \t\t\tallIssueIds.length\n      DUP2 \t\t\tend\n      GT \t\t\tend > allIssueIds.length\n      ISZERO \t\t\tif (end > allIssueIds.length) ...\n      PUSH [tag] 188\t\t\tif (end > allIssueIds.length) ...\n      JUMPI \t\t\tif (end > allIssueIds.length) ...\n      PUSH 4\t\t\tallIssueIds\n      DUP1 \t\t\tallIssueIds.length\n      SLOAD \t\t\tallIssueIds.length\n      SWAP1 \t\t\tallIssueIds.length\n      POP \t\t\tallIssueIds.length\n      SWAP1 \t\t\tend = allIssueIds.length\n      POP \t\t\tend = allIssueIds.length\n    tag 188\t\t\tif (end > allIssueIds.length) ...\n      JUMPDEST \t\t\tif (end > allIssueIds.length) ...\n      PUSH 0\t\t\tstring[] memory result\n      DUP5 \t\t\t_offset\n      DUP3 \t\t\tend\n      PUSH [tag] 189\t\t\tend - _offset\n      SWAP2 \t\t\tend - _offset\n      SWAP1 \t\t\tend - _offset\n      PUSH [tag] 190\t\t\tend - _offset\n      JUMP \t\t\tend - _offset\n    tag 189\t\t\tend - _offset\n      JUMPDEST \t\t\tend - _offset\n      PUSH FFFFFFFFFFFFFFFF\t\t\tnew string[](end - _offset)\n      DUP2 \t\t\tnew string[](end - _offset)\n      GT \t\t\tnew string[](end - _offset)\n      ISZERO \t\t\tnew string[](end - _offset)\n      PUSH [tag] 191\t\t\tnew string[](end - _offset)\n      JUMPI \t\t\tnew string[](end - _offset)\n      PUSH [tag] 192\t\t\tnew string[](end - _offset)\n      PUSH [tag] 193\t\t\tnew string[](end - _offset)\n      JUMP \t\t\tnew string[](end - _offset)\n    tag 192\t\t\tnew string[](end - _offset)\n      JUMPDEST \t\t\tnew string[](end - _offset)\n    tag 191\t\t\tnew string[](end - _offset)\n      JUMPDEST \t\t\tnew string[](end - _offset)\n      PUSH 40\t\t\tnew string[](end - _offset)\n      MLOAD \t\t\tnew string[](end - _offset)\n      SWAP1 \t\t\tnew string[](end - _offset)\n      DUP1 \t\t\tnew string[](end - _offset)\n      DUP3 \t\t\tnew string[](end - _offset)\n      MSTORE \t\t\tnew string[](end - _offset)\n      DUP1 \t\t\tnew string[](end - _offset)\n      PUSH 20\t\t\tnew string[](end - _offset)\n      MUL \t\t\tnew string[](end - _offset)\n      PUSH 20\t\t\tnew string[](end - _offset)\n      ADD \t\t\tnew string[](end - _offset)\n      DUP3 \t\t\tnew string[](end - _offset)\n      ADD \t\t\tnew string[](end - _offset)\n      PUSH 40\t\t\tnew string[](end - _offset)\n      MSTORE \t\t\tnew string[](end - _offset)\n      DUP1 \t\t\tnew string[](end - _offset)\n      ISZERO \t\t\tnew string[](end - _offset)\n      PUSH [tag] 194\t\t\tnew string[](end - _offset)\n      JUMPI \t\t\tnew string[](end - _offset)\n      DUP2 \t\t\tnew string[](end - _offset)\n      PUSH 20\t\t\tnew string[](end - _offset)\n      ADD \t\t\tnew string[](end - _offset)\n    tag 195\t\t\tnew string[](end - _offset)\n      JUMPDEST \t\t\tnew string[](end - _offset)\n      PUSH 60\t\t\tnew string[](end - _offset)\n      DUP2 \t\t\tnew string[](end - _offset)\n      MSTORE \t\t\tnew string[](end - _offset)\n      PUSH 20\t\t\tnew string[](end - _offset)\n      ADD \t\t\tnew string[](end - _offset)\n      SWAP1 \t\t\tnew string[](end - _offset)\n      PUSH 1\t\t\tnew string[](end - _offset)\n      SWAP1 \t\t\tnew string[](end - _offset)\n      SUB \t\t\tnew string[](end - _offset)\n      SWAP1 \t\t\tnew string[](end - _offset)\n      DUP2 \t\t\tnew string[](end - _offset)\n      PUSH [tag] 195\t\t\tnew string[](end - _offset)\n      JUMPI \t\t\tnew string[](end - _offset)\n      SWAP1 \t\t\tnew string[](end - _offset)\n      POP \t\t\tnew string[](end - _offset)\n    tag 194\t\t\tnew string[](end - _offset)\n      JUMPDEST \t\t\tnew string[](end - _offset)\n      POP \t\t\tnew string[](end - _offset)\n      SWAP1 \t\t\tstring[] memory result = new s...\n      POP \t\t\tstring[] memory result = new s...\n      PUSH 0\t\t\tuint256 i\n      DUP6 \t\t\t_offset\n      SWAP1 \t\t\tuint256 i = _offset\n      POP \t\t\tuint256 i = _offset\n    tag 196\t\t\tfor (uint256 i = _offset; i < ...\n      JUMPDEST \t\t\tfor (uint256 i = _offset; i < ...\n      DUP3 \t\t\tend\n      DUP2 \t\t\ti\n      LT \t\t\ti < end\n      ISZERO \t\t\tfor (uint256 i = _offset; i < ...\n      PUSH [tag] 197\t\t\tfor (uint256 i = _offset; i < ...\n      JUMPI \t\t\tfor (uint256 i = _offset; i < ...\n      PUSH 4\t\t\tallIssueIds\n      DUP2 \t\t\ti\n      DUP2 \t\t\tallIssueIds[i]\n      SLOAD \t\t\tallIssueIds[i]\n      DUP2 \t\t\tallIssueIds[i]\n      LT \t\t\tallIssueIds[i]\n      PUSH [tag] 199\t\t\tallIssueIds[i]\n      JUMPI \t\t\tallIssueIds[i]\n      PUSH [tag] 200\t\t\tallIssueIds[i]\n      PUSH [tag] 201\t\t\tallIssueIds[i]\n      JUMP \t\t\tallIssueIds[i]\n    tag 200\t\t\tallIssueIds[i]\n      JUMPDEST \t\t\tallIssueIds[i]\n    tag 199\t\t\tallIssueIds[i]\n      JUMPDEST \t\t\tallIssueIds[i]\n      SWAP1 \t\t\tallIssueIds[i]\n      PUSH 0\t\t\tallIssueIds[i]\n      MSTORE \t\t\tallIssueIds[i]\n      PUSH 20\t\t\tallIssueIds[i]\n      PUSH 0\t\t\tallIssueIds[i]\n      KECCAK256 \t\t\tallIssueIds[i]\n      ADD \t\t\tallIssueIds[i]\n      DUP1 \t\t\tresult[i - _offset] = allIssue...\n      SLOAD \t\t\tresult[i - _offset] = allIssue...\n      PUSH [tag] 203\t\t\tresult[i - _offset] = allIssue...\n      SWAP1 \t\t\tresult[i - _offset] = allIssue...\n      PUSH [tag] 119\t\t\tresult[i - _offset] = allIssue...\n      JUMP \t\t\tresult[i - _offset] = allIssue...\n    tag 203\t\t\tresult[i - _offset] = allIssue...\n      JUMPDEST \t\t\tresult[i - _offset] = allIssue...\n      DUP1 \t\t\tresult[i - _offset] = allIssue...\n      PUSH 1F\t\t\tresult[i - _offset] = allIssue...\n      ADD \t\t\tresult[i - _offset] = allIssue...\n      PUSH 20\t\t\tresult[i - _offset] = allIssue...\n      DUP1 \t\t\tresult[i - _offset] = allIssue...\n      SWAP2 \t\t\tresult[i - _offset] = allIssue...\n      DIV \t\t\tresult[i - _offset] = allIssue...\n      MUL \t\t\tresult[i - _offset] = allIssue...\n      PUSH 20\t\t\tresult[i - _offset] = allIssue...\n      ADD \t\t\tresult[i - _offset] = allIssue...\n      PUSH 40\t\t\tresult[i - _offset] = allIssue...\n      MLOAD \t\t\tresult[i - _offset] = allIssue...\n      SWAP1 \t\t\tresult[i - _offset] = allIssue...\n      DUP2 \t\t\tresult[i - _offset] = allIssue...\n      ADD \t\t\tresult[i - _offset] = allIssue...\n      PUSH 40\t\t\tresult[i - _offset] = allIssue...\n      MSTORE \t\t\tresult[i - _offset] = allIssue...\n      DUP1 \t\t\tresult[i - _offset] = allIssue...\n      SWAP3 \t\t\tresult[i - _offset] = allIssue...\n      SWAP2 \t\t\tresult[i - _offset] = allIssue...\n      SWAP1 \t\t\tresult[i - _offset] = allIssue...\n      DUP2 \t\t\tresult[i - _offset] = allIssue...\n      DUP2 \t\t\tresult[i - _offset] = allIssue...\n      MSTORE \t\t\tresult[i - _offset] = allIssue...\n      PUSH 20\t\t\tresult[i - _offset] = allIssue...\n      ADD \t\t\tresult[i - _offset] = allIssue...\n      DUP3 \t\t\tresult[i - _offset] = allIssue...\n      DUP1 \t\t\tresult[i - _offset] = allIssue...\n      SLOAD \t\t\tresult[i - _offset] = allIssue...\n      PUSH [tag] 204\t\t\tresult[i - _offset] = allIssue...\n      SWAP1 \t\t\tresult[i - _offset] = allIssue...\n      PUSH [tag] 119\t\t\tresult[i - _offset] = allIssue...\n      JUMP \t\t\tresult[i - _offset] = allIssue...\n    tag 204\t\t\tresult[i - _offset] = allIssue...\n      JUMPDEST \t\t\tresult[i - _offset] = allIssue...\n      DUP1 \t\t\tresult[i - _offset] = allIssue...\n      ISZERO \t\t\tresult[i - _offset] = allIssue...\n      PUSH [tag] 205\t\t\tresult[i - _offset] = allIssue...\n      JUMPI \t\t\tresult[i - _offset] = allIssue...\n      DUP1 \t\t\tresult[i - _offset] = allIssue...\n      PUSH 1F\t\t\tresult[i - _offset] = allIssue...\n      LT \t\t\tresult[i - _offset] = allIssue...\n      PUSH [tag] 206\t\t\tresult[i - _offset] = allIssue...\n      JUMPI \t\t\tresult[i - _offset] = allIssue...\n      PUSH 100\t\t\tresult[i - _offset] = allIssue...\n      DUP1 \t\t\tresult[i - _offset] = allIssue...\n      DUP4 \t\t\tresult[i - _offset] = allIssue...\n      SLOAD \t\t\tresult[i - _offset] = allIssue...\n      DIV \t\t\tresult[i - _offset] = allIssue...\n      MUL \t\t\tresult[i - _offset] = allIssue...\n      DUP4 \t\t\tresult[i - _offset] = allIssue...\n      MSTORE \t\t\tresult[i - _offset] = allIssue...\n      SWAP2 \t\t\tresult[i - _offset] = allIssue...\n      PUSH 20\t\t\tresult[i - _offset] = allIssue...\n      ADD \t\t\tresult[i - _offset] = allIssue...\n      SWAP2 \t\t\tresult[i - _offset] = allIssue...\n      PUSH [tag] 205\t\t\tresult[i - _offset] = allIssue...\n      JUMP \t\t\tresult[i - _offset] = allIssue...\n    tag 206\t\t\tresult[i - _offset] = allIssue...\n      JUMPDEST \t\t\tresult[i - _offset] = allIssue...\n      DUP3 \t\t\tresult[i - _offset] = allIssue...\n      ADD \t\t\tresult[i - _offset] = allIssue...\n      SWAP2 \t\t\tresult[i - _offset] = allIssue...\n      SWAP1 \t\t\tresult[i - _offset] = allIssue...\n      PUSH 0\t\t\tresult[i - _offset] = allIssue...\n      MSTORE \t\t\tresult[i - _offset] = allIssue...\n      PUSH 20\t\t\tresult[i - _offset] = allIssue...\n      PUSH 0\t\t\tresult[i - _offset] = allIssue...\n      KECCAK256 \t\t\tresult[i - _offset] = allIssue...\n      SWAP1 \t\t\tresult[i - _offset] = allIssue...\n    tag 207\t\t\tresult[i - _offset] = allIssue...\n      JUMPDEST \t\t\tresult[i - _offset] = allIssue...\n      DUP2 \t\t\tresult[i - _offset] = allIssue...\n      SLOAD \t\t\tresult[i - _offset] = allIssue...\n      DUP2 \t\t\tresult[i - _offset] = allIssue...\n      MSTORE \t\t\tresult[i - _offset] = allIssue...\n      SWAP1 \t\t\tresult[i - _offset] = allIssue...\n      PUSH 1\t\t\tresult[i - _offset] = allIssue...\n      ADD \t\t\tresult[i - _offset] = allIssue...\n      SWAP1 \t\t\tresult[i - _offset] = allIssue...\n      PUSH 20\t\t\tresult[i - _offset] = allIssue...\n      ADD \t\t\tresult[i - _offset] = allIssue...\n      DUP1 \t\t\tresult[i - _offset] = allIssue...\n      DUP4 \t\t\tresult[i - _offset] = allIssue...\n      GT \t\t\tresult[i - _offset] = allIssue...\n      PUSH [tag] 207\t\t\tresult[i - _offset] = allIssue...\n      JUMPI \t\t\tresult[i - _offset] = allIssue...\n      DUP3 \t\t\tresult[i - _offset] = allIssue...\n      SWAP1 \t\t\tresult[i - _offset] = allIssue...\n      SUB \t\t\tresult[i - _offset] = allIssue...\n      PUSH 1F\t\t\tresult[i - _offset] = allIssue...\n      AND \t\t\tresult[i - _offset] = allIssue...\n      DUP3 \t\t\tresult[i - _offset] = allIssue...\n      ADD \t\t\tresult[i - _offset] = allIssue...\n      SWAP2 \t\t\tresult[i - _offset] = allIssue...\n    tag 205\t\t\tresult[i - _offset] = allIssue...\n      JUMPDEST \t\t\tresult[i - _offset] = allIssue...\n      POP \t\t\tresult[i - _offset] = allIssue...\n      POP \t\t\tresult[i - _offset] = allIssue...\n      POP \t\t\tresult[i - _offset] = allIssue...\n      POP \t\t\tresult[i - _offset] = allIssue...\n      POP \t\t\tresult[i - _offset] = allIssue...\n      DUP3 \t\t\tresult\n      DUP8 \t\t\t_offset\n      DUP4 \t\t\ti\n      PUSH [tag] 208\t\t\ti - _offset\n      SWAP2 \t\t\ti - _offset\n      SWAP1 \t\t\ti - _offset\n      PUSH [tag] 190\t\t\ti - _offset\n      JUMP \t\t\ti - _offset\n    tag 208\t\t\ti - _offset\n      JUMPDEST \t\t\ti - _offset\n      DUP2 \t\t\tresult[i - _offset]\n      MLOAD \t\t\tresult[i - _offset]\n      DUP2 \t\t\tresult[i - _offset]\n      LT \t\t\tresult[i - _offset]\n      PUSH [tag] 209\t\t\tresult[i - _offset]\n      JUMPI \t\t\tresult[i - _offset]\n      PUSH [tag] 210\t\t\tresult[i - _offset]\n      PUSH [tag] 201\t\t\tresult[i - _offset]\n      JUMP \t\t\tresult[i - _offset]\n    tag 210\t\t\tresult[i - _offset]\n      JUMPDEST \t\t\tresult[i - _offset]\n    tag 209\t\t\tresult[i - _offset]\n      JUMPDEST \t\t\tresult[i - _offset]\n      PUSH 20\t\t\tresult[i - _offset]\n      MUL \t\t\tresult[i - _offset]\n      PUSH 20\t\t\tresult[i - _offset]\n      ADD \t\t\tresult[i - _offset]\n      ADD \t\t\tresult[i - _offset]\n      DUP2 \t\t\tresult[i - _offset] = allIssue...\n      SWAP1 \t\t\tresult[i - _offset] = allIssue...\n      MSTORE \t\t\tresult[i - _offset] = allIssue...\n      POP \t\t\tresult[i - _offset] = allIssue...\n      DUP1 \t\t\ti++\n      DUP1 \t\t\ti++\n      PUSH 1\t\t\ti++\n      ADD \t\t\ti++\n      SWAP2 \t\t\ti++\n      POP \t\t\ti++\n      POP \t\t\ti++\n      PUSH [tag] 196\t\t\tfor (uint256 i = _offset; i < ...\n      JUMP \t\t\tfor (uint256 i = _offset; i < ...\n    tag 197\t\t\tfor (uint256 i = _offset; i < ...\n      JUMPDEST \t\t\tfor (uint256 i = _offset; i < ...\n      POP \t\t\tfor (uint256 i = _offset; i < ...\n      DUP1 \t\t\tresult\n      SWAP3 \t\t\treturn result\n      POP \t\t\treturn result\n      POP \t\t\treturn result\n      POP \t\t\treturn result\n      SWAP3 \t\t\tfunction getAllIssues(uint256 ...\n      SWAP2 \t\t\tfunction getAllIssues(uint256 ...\n      POP \t\t\tfunction getAllIssues(uint256 ...\n      POP \t\t\tfunction getAllIssues(uint256 ...\n      JUMP \t\t\tfunction getAllIssues(uint256 ...\n    tag 75\t\t\tmapping(address => mapping(str...\n      JUMPDEST \t\t\tmapping(address => mapping(str...\n      PUSH 3\t\t\tmapping(address => mapping(str...\n      PUSH 20\t\t\tmapping(address => mapping(str...\n      MSTORE \t\t\tmapping(address => mapping(str...\n      DUP2 \t\t\tmapping(address => mapping(str...\n      PUSH 0\t\t\tmapping(address => mapping(str...\n      MSTORE \t\t\tmapping(address => mapping(str...\n      PUSH 40\t\t\tmapping(address => mapping(str...\n      PUSH 0\t\t\tmapping(address => mapping(str...\n      KECCAK256 \t\t\tmapping(address => mapping(str...\n      DUP2 \t\t\tmapping(address => mapping(str...\n      DUP1 \t\t\tmapping(address => mapping(str...\n      MLOAD \t\t\tmapping(address => mapping(str...\n      PUSH 20\t\t\tmapping(address => mapping(str...\n      DUP2 \t\t\tmapping(address => mapping(str...\n      ADD \t\t\tmapping(address => mapping(str...\n      DUP3 \t\t\tmapping(address => mapping(str...\n      ADD \t\t\tmapping(address => mapping(str...\n      DUP1 \t\t\tmapping(address => mapping(str...\n      MLOAD \t\t\tmapping(address => mapping(str...\n      DUP5 \t\t\tmapping(address => mapping(str...\n      DUP3 \t\t\tmapping(address => mapping(str...\n      MSTORE \t\t\tmapping(address => mapping(str...\n      PUSH 20\t\t\tmapping(address => mapping(str...\n      DUP4 \t\t\tmapping(address => mapping(str...\n      ADD \t\t\tmapping(address => mapping(str...\n      PUSH 20\t\t\tmapping(address => mapping(str...\n      DUP6 \t\t\tmapping(address => mapping(str...\n      ADD \t\t\tmapping(address => mapping(str...\n      KECCAK256 \t\t\tmapping(address => mapping(str...\n      DUP2 \t\t\tmapping(address => mapping(str...\n      DUP4 \t\t\tmapping(address => mapping(str...\n      MSTORE \t\t\tmapping(address => mapping(str...\n      DUP1 \t\t\tmapping(address => mapping(str...\n      SWAP6 \t\t\tmapping(address => mapping(str...\n      POP \t\t\tmapping(address => mapping(str...\n      POP \t\t\tmapping(address => mapping(str...\n      POP \t\t\tmapping(address => mapping(str...\n      POP \t\t\tmapping(address => mapping(str...\n      POP \t\t\tmapping(address => mapping(str...\n      POP \t\t\tmapping(address => mapping(str...\n      PUSH 0\t\t\tmapping(address => mapping(str...\n      SWAP2 \t\t\tmapping(address => mapping(str...\n      POP \t\t\tmapping(address => mapping(str...\n      SWAP2 \t\t\tmapping(address => mapping(str...\n      POP \t\t\tmapping(address => mapping(str...\n      SWAP1 \t\t\tmapping(address => mapping(str...\n      SLOAD \t\t\tmapping(address => mapping(str...\n      SWAP1 \t\t\tmapping(address => mapping(str...\n      PUSH 100\t\t\tmapping(address => mapping(str...\n      EXP \t\t\tmapping(address => mapping(str...\n      SWAP1 \t\t\tmapping(address => mapping(str...\n      DIV \t\t\tmapping(address => mapping(str...\n      PUSH FF\t\t\tmapping(address => mapping(str...\n      AND \t\t\tmapping(address => mapping(str...\n      DUP2 \t\t\tmapping(address => mapping(str...\n      JUMP \t\t\tmapping(address => mapping(str...\n    tag 79\t\t\tmapping(string => Issue) publi...\n      JUMPDEST \t\t\tmapping(string => Issue) publi...\n      PUSH 0\t\t\tmapping(string => Issue) publi...\n      DUP2 \t\t\tmapping(string => Issue) publi...\n      DUP1 \t\t\tmapping(string => Issue) publi...\n      MLOAD \t\t\tmapping(string => Issue) publi...\n      PUSH 20\t\t\tmapping(string => Issue) publi...\n      DUP2 \t\t\tmapping(string => Issue) publi...\n      ADD \t\t\tmapping(string => Issue) publi...\n      DUP3 \t\t\tmapping(string => Issue) publi...\n      ADD \t\t\tmapping(string => Issue) publi...\n      DUP1 \t\t\tmapping(string => Issue) publi...\n      MLOAD \t\t\tmapping(string => Issue) publi...\n      DUP5 \t\t\tmapping(string => Issue) publi...\n      DUP3 \t\t\tmapping(string => Issue) publi...\n      MSTORE \t\t\tmapping(string => Issue) publi...\n      PUSH 20\t\t\tmapping(string => Issue) publi...\n      DUP4 \t\t\tmapping(string => Issue) publi...\n      ADD \t\t\tmapping(string => Issue) publi...\n      PUSH 20\t\t\tmapping(string => Issue) publi...\n      DUP6 \t\t\tmapping(string => Issue) publi...\n      ADD \t\t\tmapping(string => Issue) publi...\n      KECCAK256 \t\t\tmapping(string => Issue) publi...\n      DUP2 \t\t\tmapping(string => Issue) publi...\n      DUP4 \t\t\tmapping(string => Issue) publi...\n      MSTORE \t\t\tmapping(string => Issue) publi...\n      DUP1 \t\t\tmapping(string => Issue) publi...\n      SWAP6 \t\t\tmapping(string => Issue) publi...\n      POP \t\t\tmapping(string => Issue) publi...\n      POP \t\t\tmapping(string => Issue) publi...\n      POP \t\t\tmapping(string => Issue) publi...\n      POP \t\t\tmapping(string => Issue) publi...\n      POP \t\t\tmapping(string => Issue) publi...\n      POP \t\t\tmapping(string => Issue) publi...\n      PUSH 0\t\t\tmapping(string => Issue) publi...\n      SWAP2 \t\t\tmapping(string => Issue) publi...\n      POP \t\t\tmapping(string => Issue) publi...\n      SWAP1 \t\t\tmapping(string => Issue) publi...\n      POP \t\t\tmapping(string => Issue) publi...\n      DUP1 \t\t\tmapping(string => Issue) publi...\n      PUSH 0\t\t\tmapping(string => Issue) publi...\n      ADD \t\t\tmapping(string => Issue) publi...\n      DUP1 \t\t\tmapping(string => Issue) publi...\n      SLOAD \t\t\tmapping(string => Issue) publi...\n      PUSH [tag] 211\t\t\tmapping(string => Issue) publi...\n      SWAP1 \t\t\tmapping(string => Issue) publi...\n      PUSH [tag] 119\t\t\tmapping(string => Issue) publi...\n      JUMP \t\t\tmapping(string => Issue) publi...\n    tag 211\t\t\tmapping(string => Issue) publi...\n      JUMPDEST \t\t\tmapping(string => Issue) publi...\n      DUP1 \t\t\tmapping(string => Issue) publi...\n      PUSH 1F\t\t\tmapping(string => Issue) publi...\n      ADD \t\t\tmapping(string => Issue) publi...\n      PUSH 20\t\t\tmapping(string => Issue) publi...\n      DUP1 \t\t\tmapping(string => Issue) publi...\n      SWAP2 \t\t\tmapping(string => Issue) publi...\n      DIV \t\t\tmapping(string => Issue) publi...\n      MUL \t\t\tmapping(string => Issue) publi...\n      PUSH 20\t\t\tmapping(string => Issue) publi...\n      ADD \t\t\tmapping(string => Issue) publi...\n      PUSH 40\t\t\tmapping(string => Issue) publi...\n      MLOAD \t\t\tmapping(string => Issue) publi...\n      SWAP1 \t\t\tmapping(string => Issue) publi...\n      DUP2 \t\t\tmapping(string => Issue) publi...\n      ADD \t\t\tmapping(string => Issue) publi...\n      PUSH 40\t\t\tmapping(string => Issue) publi...\n      MSTORE \t\t\tmapping(string => Issue) publi...\n      DUP1 \t\t\tmapping(string => Issue) publi...\n      SWAP3 \t\t\tmapping(string => Issue) publi...\n      SWAP2 \t\t\tmapping(string => Issue) publi...\n      SWAP1 \t\t\tmapping(string => Issue) publi...\n      DUP2 \t\t\tmapping(string => Issue) publi...\n      DUP2 \t\t\tmapping(string => Issue) publi...\n      MSTORE \t\t\tmapping(string => Issue) publi...\n      PUSH 20\t\t\tmapping(string => Issue) publi...\n      ADD \t\t\tmapping(string => Issue) publi...\n      DUP3 \t\t\tmapping(string => Issue) publi...\n      DUP1 \t\t\tmapping(string => Issue) publi...\n      SLOAD \t\t\tmapping(string => Issue) publi...\n      PUSH [tag] 212\t\t\tmapping(string => Issue) publi...\n      SWAP1 \t\t\tmapping(string => Issue) publi...\n      PUSH [tag] 119\t\t\tmapping(string => Issue) publi...\n      JUMP \t\t\tmapping(string => Issue) publi...\n    tag 212\t\t\tmapping(string => Issue) publi...\n      JUMPDEST \t\t\tmapping(string => Issue) publi...\n      DUP1 \t\t\tmapping(string => Issue) publi...\n      ISZERO \t\t\tmapping(string => Issue) publi...\n      PUSH [tag] 213\t\t\tmapping(string => Issue) publi...\n      JUMPI \t\t\tmapping(string => Issue) publi...\n      DUP1 \t\t\tmapping(string => Issue) publi...\n      PUSH 1F\t\t\tmapping(string => Issue) publi...\n      LT \t\t\tmapping(string => Issue) publi...\n      PUSH [tag] 214\t\t\tmapping(string => Issue) publi...\n      JUMPI \t\t\tmapping(string => Issue) publi...\n      PUSH 100\t\t\tmapping(string => Issue) publi...\n      DUP1 \t\t\tmapping(string => Issue) publi...\n      DUP4 \t\t\tmapping(string => Issue) publi...\n      SLOAD \t\t\tmapping(string => Issue) publi...\n      DIV \t\t\tmapping(string => Issue) publi...\n      MUL \t\t\tmapping(string => Issue) publi...\n      DUP4 \t\t\tmapping(string => Issue) publi...\n      MSTORE \t\t\tmapping(string => Issue) publi...\n      SWAP2 \t\t\tmapping(string => Issue) publi...\n      PUSH 20\t\t\tmapping(string => Issue) publi...\n      ADD \t\t\tmapping(string => Issue) publi...\n      SWAP2 \t\t\tmapping(string => Issue) publi...\n      PUSH [tag] 213\t\t\tmapping(string => Issue) publi...\n      JUMP \t\t\tmapping(string => Issue) publi...\n    tag 214\t\t\tmapping(string => Issue) publi...\n      JUMPDEST \t\t\tmapping(string => Issue) publi...\n      DUP3 \t\t\tmapping(string => Issue) publi...\n      ADD \t\t\tmapping(string => Issue) publi...\n      SWAP2 \t\t\tmapping(string => Issue) publi...\n      SWAP1 \t\t\tmapping(string => Issue) publi...\n      PUSH 0\t\t\tmapping(string => Issue) publi...\n      MSTORE \t\t\tmapping(string => Issue) publi...\n      PUSH 20\t\t\tmapping(string => Issue) publi...\n      PUSH 0\t\t\tmapping(string => Issue) publi...\n      KECCAK256 \t\t\tmapping(string => Issue) publi...\n      SWAP1 \t\t\tmapping(string => Issue) publi...\n    tag 215\t\t\tmapping(string => Issue) publi...\n      JUMPDEST \t\t\tmapping(string => Issue) publi...\n      DUP2 \t\t\tmapping(string => Issue) publi...\n      SLOAD \t\t\tmapping(string => Issue) publi...\n      DUP2 \t\t\tmapping(string => Issue) publi...\n      MSTORE \t\t\tmapping(string => Issue) publi...\n      SWAP1 \t\t\tmapping(string => Issue) publi...\n      PUSH 1\t\t\tmapping(string => Issue) publi...\n      ADD \t\t\tmapping(string => Issue) publi...\n      SWAP1 \t\t\tmapping(string => Issue) publi...\n      PUSH 20\t\t\tmapping(string => Issue) publi...\n      ADD \t\t\tmapping(string => Issue) publi...\n      DUP1 \t\t\tmapping(string => Issue) publi...\n      DUP4 \t\t\tmapping(string => Issue) publi...\n      GT \t\t\tmapping(string => Issue) publi...\n      PUSH [tag] 215\t\t\tmapping(string => Issue) publi...\n      JUMPI \t\t\tmapping(string => Issue) publi...\n      DUP3 \t\t\tmapping(string => Issue) publi...\n      SWAP1 \t\t\tmapping(string => Issue) publi...\n      SUB \t\t\tmapping(string => Issue) publi...\n      PUSH 1F\t\t\tmapping(string => Issue) publi...\n      AND \t\t\tmapping(string => Issue) publi...\n      DUP3 \t\t\tmapping(string => Issue) publi...\n      ADD \t\t\tmapping(string => Issue) publi...\n      SWAP2 \t\t\tmapping(string => Issue) publi...\n    tag 213\t\t\tmapping(string => Issue) publi...\n      JUMPDEST \t\t\tmapping(string => Issue) publi...\n      POP \t\t\tmapping(string => Issue) publi...\n      POP \t\t\tmapping(string => Issue) publi...\n      POP \t\t\tmapping(string => Issue) publi...\n      POP \t\t\tmapping(string => Issue) publi...\n      POP \t\t\tmapping(string => Issue) publi...\n      SWAP1 \t\t\tmapping(string => Issue) publi...\n      DUP1 \t\t\tmapping(string => Issue) publi...\n      PUSH 1\t\t\tmapping(string => Issue) publi...\n      ADD \t\t\tmapping(string => Issue) publi...\n      DUP1 \t\t\tmapping(string => Issue) publi...\n      SLOAD \t\t\tmapping(string => Issue) publi...\n      PUSH [tag] 216\t\t\tmapping(string => Issue) publi...\n      SWAP1 \t\t\tmapping(string => Issue) publi...\n      PUSH [tag] 119\t\t\tmapping(string => Issue) publi...\n      JUMP \t\t\tmapping(string => Issue) publi...\n    tag 216\t\t\tmapping(string => Issue) publi...\n      JUMPDEST \t\t\tmapping(string => Issue) publi...\n      DUP1 \t\t\tmapping(string => Issue) publi...\n      PUSH 1F\t\t\tmapping(string => Issue) publi...\n      ADD \t\t\tmapping(string => Issue) publi...\n      PUSH 20\t\t\tmapping(string => Issue) publi...\n      DUP1 \t\t\tmapping(string => Issue) publi...\n      SWAP2 \t\t\tmapping(string => Issue) publi...\n      DIV \t\t\tmapping(string => Issue) publi...\n      MUL \t\t\tmapping(string => Issue) publi...\n      PUSH 20\t\t\tmapping(string => Issue) publi...\n      ADD \t\t\tmapping(string => Issue) publi...\n      PUSH 40\t\t\tmapping(string => Issue) publi...\n      MLOAD \t\t\tmapping(string => Issue) publi...\n      SWAP1 \t\t\tmapping(string => Issue) publi...\n      DUP2 \t\t\tmapping(string => Issue) publi...\n      ADD \t\t\tmapping(string => Issue) publi...\n      PUSH 40\t\t\tmapping(string => Issue) publi...\n      MSTORE \t\t\tmapping(string => Issue) publi...\n      DUP1 \t\t\tmapping(string => Issue) publi...\n      SWAP3 \t\t\tmapping(string => Issue) publi...\n      SWAP2 \t\t\tmapping(string => Issue) publi...\n      SWAP1 \t\t\tmapping(string => Issue) publi...\n      DUP2 \t\t\tmapping(string => Issue) publi...\n      DUP2 \t\t\tmapping(string => Issue) publi...\n      MSTORE \t\t\tmapping(string => Issue) publi...\n      PUSH 20\t\t\tmapping(string => Issue) publi...\n      ADD \t\t\tmapping(string => Issue) publi...\n      DUP3 \t\t\tmapping(string => Issue) publi...\n      DUP1 \t\t\tmapping(string => Issue) publi...\n      SLOAD \t\t\tmapping(string => Issue) publi...\n      PUSH [tag] 217\t\t\tmapping(string => Issue) publi...\n      SWAP1 \t\t\tmapping(string => Issue) publi...\n      PUSH [tag] 119\t\t\tmapping(string => Issue) publi...\n      JUMP \t\t\tmapping(string => Issue) publi...\n    tag 217\t\t\tmapping(string => Issue) publi...\n      JUMPDEST \t\t\tmapping(string => Issue) publi...\n      DUP1 \t\t\tmapping(string => Issue) publi...\n      ISZERO \t\t\tmapping(string => Issue) publi...\n      PUSH [tag] 218\t\t\tmapping(string => Issue) publi...\n      JUMPI \t\t\tmapping(string => Issue) publi...\n      DUP1 \t\t\tmapping(string => Issue) publi...\n      PUSH 1F\t\t\tmapping(string => Issue) publi...\n      LT \t\t\tmapping(string => Issue) publi...\n      PUSH [tag] 219\t\t\tmapping(string => Issue) publi...\n      JUMPI \t\t\tmapping(string => Issue) publi...\n      PUSH 100\t\t\tmapping(string => Issue) publi...\n      DUP1 \t\t\tmapping(string => Issue) publi...\n      DUP4 \t\t\tmapping(string => Issue) publi...\n      SLOAD \t\t\tmapping(string => Issue) publi...\n      DIV \t\t\tmapping(string => Issue) publi...\n      MUL \t\t\tmapping(string => Issue) publi...\n      DUP4 \t\t\tmapping(string => Issue) publi...\n      MSTORE \t\t\tmapping(string => Issue) publi...\n      SWAP2 \t\t\tmapping(string => Issue) publi...\n      PUSH 20\t\t\tmapping(string => Issue) publi...\n      ADD \t\t\tmapping(string => Issue) publi...\n      SWAP2 \t\t\tmapping(string => Issue) publi...\n      PUSH [tag] 218\t\t\tmapping(string => Issue) publi...\n      JUMP \t\t\tmapping(string => Issue) publi...\n    tag 219\t\t\tmapping(string => Issue) publi...\n      JUMPDEST \t\t\tmapping(string => Issue) publi...\n      DUP3 \t\t\tmapping(string => Issue) publi...\n      ADD \t\t\tmapping(string => Issue) publi...\n      SWAP2 \t\t\tmapping(string => Issue) publi...\n      SWAP1 \t\t\tmapping(string => Issue) publi...\n      PUSH 0\t\t\tmapping(string => Issue) publi...\n      MSTORE \t\t\tmapping(string => Issue) publi...\n      PUSH 20\t\t\tmapping(string => Issue) publi...\n      PUSH 0\t\t\tmapping(string => Issue) publi...\n      KECCAK256 \t\t\tmapping(string => Issue) publi...\n      SWAP1 \t\t\tmapping(string => Issue) publi...\n    tag 220\t\t\tmapping(string => Issue) publi...\n      JUMPDEST \t\t\tmapping(string => Issue) publi...\n      DUP2 \t\t\tmapping(string => Issue) publi...\n      SLOAD \t\t\tmapping(string => Issue) publi...\n      DUP2 \t\t\tmapping(string => Issue) publi...\n      MSTORE \t\t\tmapping(string => Issue) publi...\n      SWAP1 \t\t\tmapping(string => Issue) publi...\n      PUSH 1\t\t\tmapping(string => Issue) publi...\n      ADD \t\t\tmapping(string => Issue) publi...\n      SWAP1 \t\t\tmapping(string => Issue) publi...\n      PUSH 20\t\t\tmapping(string => Issue) publi...\n      ADD \t\t\tmapping(string => Issue) publi...\n      DUP1 \t\t\tmapping(string => Issue) publi...\n      DUP4 \t\t\tmapping(string => Issue) publi...\n      GT \t\t\tmapping(string => Issue) publi...\n      PUSH [tag] 220\t\t\tmapping(string => Issue) publi...\n      JUMPI \t\t\tmapping(string => Issue) publi...\n      DUP3 \t\t\tmapping(string => Issue) publi...\n      SWAP1 \t\t\tmapping(string => Issue) publi...\n      SUB \t\t\tmapping(string => Issue) publi...\n      PUSH 1F\t\t\tmapping(string => Issue) publi...\n      AND \t\t\tmapping(string => Issue) publi...\n      DUP3 \t\t\tmapping(string => Issue) publi...\n      ADD \t\t\tmapping(string => Issue) publi...\n      SWAP2 \t\t\tmapping(string => Issue) publi...\n    tag 218\t\t\tmapping(string => Issue) publi...\n      JUMPDEST \t\t\tmapping(string => Issue) publi...\n      POP \t\t\tmapping(string => Issue) publi...\n      POP \t\t\tmapping(string => Issue) publi...\n      POP \t\t\tmapping(string => Issue) publi...\n      POP \t\t\tmapping(string => Issue) publi...\n      POP \t\t\tmapping(string => Issue) publi...\n      SWAP1 \t\t\tmapping(string => Issue) publi...\n      DUP1 \t\t\tmapping(string => Issue) publi...\n      PUSH 2\t\t\tmapping(string => Issue) publi...\n      ADD \t\t\tmapping(string => Issue) publi...\n      PUSH 0\t\t\tmapping(string => Issue) publi...\n      SWAP1 \t\t\tmapping(string => Issue) publi...\n      SLOAD \t\t\tmapping(string => Issue) publi...\n      SWAP1 \t\t\tmapping(string => Issue) publi...\n      PUSH 100\t\t\tmapping(string => Issue) publi...\n      EXP \t\t\tmapping(string => Issue) publi...\n      SWAP1 \t\t\tmapping(string => Issue) publi...\n      DIV \t\t\tmapping(string => Issue) publi...\n      PUSH FFFFFFFFFFFFFFFFFFFFFFFFFFFFFFFFFFFFFFFF\t\t\tmapping(string => Issue) publi...\n      AND \t\t\tmapping(string => Issue) publi...\n      SWAP1 \t\t\tmapping(string => Issue) publi...\n      DUP1 \t\t\tmapping(string => Issue) publi...\n      PUSH 3\t\t\tmapping(string => Issue) publi...\n      ADD \t\t\tmapping(string => Issue) publi...\n      SLOAD \t\t\tmapping(string => Issue) publi...\n      SWAP1 \t\t\tmapping(string => Issue) publi...\n      DUP1 \t\t\tmapping(string => Issue) publi...\n      PUSH 4\t\t\tmapping(string => Issue) publi...\n      ADD \t\t\tmapping(string => Issue) publi...\n      SLOAD \t\t\tmapping(string => Issue) publi...\n      SWAP1 \t\t\tmapping(string => Issue) publi...\n      DUP1 \t\t\tmapping(string => Issue) publi...\n      PUSH 5\t\t\tmapping(string => Issue) publi...\n      ADD \t\t\tmapping(string => Issue) publi...\n      PUSH 0\t\t\tmapping(string => Issue) publi...\n      SWAP1 \t\t\tmapping(string => Issue) publi...\n      SLOAD \t\t\tmapping(string => Issue) publi...\n      SWAP1 \t\t\tmapping(string => Issue) publi...\n      PUSH 100\t\t\tmapping(string => Issue) publi...\n      EXP \t\t\tmapping(string => Issue) publi...\n      SWAP1 \t\t\tmapping(string => Issue) publi...\n      DIV \t\t\tmapping(string => Issue) publi...\n      PUSH FF\t\t\tmapping(string => Issue) publi...\n      AND \t\t\tmapping(string => Issue) publi...\n      SWAP1 \t\t\tmapping(string => Issue) publi...\n      POP \t\t\tmapping(string => Issue) publi...\n      DUP7 \t\t\tmapping(string => Issue) publi...\n      JUMP \t\t\tmapping(string => Issue) publi...\n    tag 82\t\t\tfunction getTotalIssues() publ...\n      JUMPDEST \t\t\tfunction getTotalIssues() publ...\n      PUSH 0\t\t\tuint256\n      PUSH 4\t\t\tallIssueIds\n      DUP1 \t\t\tallIssueIds.length\n      SLOAD \t\t\tallIssueIds.length\n      SWAP1 \t\t\tallIssueIds.length\n      POP \t\t\tallIssueIds.length\n      SWAP1 \t\t\treturn allIssueIds.length\n      POP \t\t\treturn allIssueIds.length\n      SWAP1 \t\t\tfunction getTotalIssues() publ...\n      JUMP \t\t\tfunction getTotalIssues() publ...\n    tag 86\t\t\tfunction getIssueVotes(string ...\n      JUMPDEST \t\t\tfunction getIssueVotes(string ...\n      PUSH 60\t\t\tVote[] memory\n      PUSH 0\t\t\tissues\n      DUP3 \t\t\t_issueId\n      PUSH 40\t\t\tissues[_issueId]\n      MLOAD \t\t\tissues[_issueId]\n      PUSH [tag] 223\t\t\tissues[_issueId]\n      SWAP2 \t\t\tissues[_issueId]\n      SWAP1 \t\t\tissues[_issueId]\n      PUSH [tag] 91\t\t\tissues[_issueId]\n      JUMP \t\t\tissues[_issueId]\n    tag 223\t\t\tissues[_issueId]\n      JUMPDEST \t\t\tissues[_issueId]\n      SWAP1 \t\t\tissues[_issueId]\n      DUP2 \t\t\tissues[_issueId]\n      MSTORE \t\t\tissues[_issueId]\n      PUSH 20\t\t\tissues[_issueId]\n      ADD \t\t\tissues[_issueId]\n      PUSH 40\t\t\tissues[_issueId]\n      MLOAD \t\t\tissues[_issueId]\n      DUP1 \t\t\tissues[_issueId]\n      SWAP2 \t\t\tissues[_issueId]\n      SUB \t\t\tissues[_issueId]\n      SWAP1 \t\t\tissues[_issueId]\n      KECCAK256 \t\t\tissues[_issueId]\n      PUSH 5\t\t\tissues[_issueId].exists\n      ADD \t\t\tissues[_issueId].exists\n      PUSH 0\t\t\tissues[_issueId].exists\n      SWAP1 \t\t\tissues[_issueId].exists\n      SLOAD \t\t\tissues[_issueId].exists\n      SWAP1 \t\t\tissues[_issueId].exists\n      PUSH 100\t\t\tissues[_issueId].exists\n      EXP \t\t\tissues[_issueId].exists\n      SWAP1 \t\t\tissues[_issueId].exists\n      DIV \t\t\tissues[_issueId].exists\n      PUSH FF\t\t\tissues[_issueId].exists\n      AND \t\t\tissues[_issueId].exists\n      PUSH [tag] 224\t\t\trequire(issues[_issueId].exist...\n      JUMPI \t\t\trequire(issues[_issueId].exist...\n      PUSH 40\t\t\trequire(issues[_issueId].exist...\n      MLOAD \t\t\trequire(issues[_issueId].exist...\n      PUSH 8C379A000000000000000000000000000000000000000000000000000000000\t\t\trequire(issues[_issueId].exist...\n      DUP2 \t\t\trequire(issues[_issueId].exist...\n      MSTORE \t\t\trequire(issues[_issueId].exist...\n      PUSH 4\t\t\trequire(issues[_issueId].exist...\n      ADD \t\t\trequire(issues[_issueId].exist...\n      PUSH [tag] 225\t\t\trequire(issues[_issueId].exist...\n      SWAP1 \t\t\trequire(issues[_issueId].exist...\n      PUSH [tag] 94\t\t\trequire(issues[_issueId].exist...\n      JUMP \t\t\trequire(issues[_issueId].exist...\n    tag 225\t\t\trequire(issues[_issueId].exist...\n      JUMPDEST \t\t\trequire(issues[_issueId].exist...\n      PUSH 40\t\t\trequire(issues[_issueId].exist...\n      MLOAD \t\t\trequire(issues[_issueId].exist...\n      DUP1 \t\t\trequire(issues[_issueId].exist...\n      SWAP2 \t\t\trequire(issues[_issueId].exist...\n      SUB \t\t\trequire(issues[_issueId].exist...\n      SWAP1 \t\t\trequire(issues[_issueId].exist...\n      REVERT \t\t\trequire(issues[_issueId].exist...\n    tag 224\t\t\trequire(issues[_issueId].exist...\n      JUMPDEST \t\t\trequire(issues[_issueId].exist...\n      PUSH 1\t\t\tissueVotes\n      DUP3 \t\t\t_issueId\n      PUSH 40\t\t\tissueVotes[_issueId]\n      MLOAD \t\t\tissueVotes[_issueId]\n      PUSH [tag] 226\t\t\tissueVotes[_issueId]\n      SWAP2 \t\t\tissueVotes[_issueId]\n      SWAP1 \t\t\tissueVotes[_issueId]\n      PUSH [tag] 91\t\t\tissueVotes[_issueId]\n      JUMP \t\t\tissueVotes[_issueId]\n    tag 226\t\t\tissueVotes[_issueId]\n      JUMPDEST \t\t\tissueVotes[_issueId]\n      SWAP1 \t\t\tissueVotes[_issueId]\n      DUP2 \t\t\tissueVotes[_issueId]\n      MSTORE \t\t\tissueVotes[_issueId]\n      PUSH 20\t\t\tissueVotes[_issueId]\n      ADD \t\t\tissueVotes[_issueId]\n      PUSH 40\t\t\tissueVotes[_issueId]\n      MLOAD \t\t\tissueVotes[_issueId]\n      DUP1 \t\t\tissueVotes[_issueId]\n      SWAP2 \t\t\tissueVotes[_issueId]\n      SUB \t\t\tissueVotes[_issueId]\n      SWAP1 \t\t\tissueVotes[_issueId]\n      KECCAK256 \t\t\tissueVotes[_issueId]\n      DUP1 \t\t\treturn issueVotes[_issueId]\n      SLOAD \t\t\treturn issueVotes[_issueId]\n      DUP1 \t\t\treturn issueVotes[_issueId]\n      PUSH 20\t\t\treturn issueVotes[_issueId]\n      MUL \t\t\treturn issueVotes[_issueId]\n      PUSH 20\t\t\treturn issueVotes[_issueId]\n      ADD \t\t\treturn issueVotes[_issueId]\n      PUSH 40\t\t\treturn issueVotes[_issueId]\n      MLOAD \t\t\treturn issueVotes[_issueId]\n      SWAP1 \t\t\treturn issueVotes[_issueId]\n      DUP2 \t\t\treturn issueVotes[_issueId]\n      ADD \t\t\treturn issueVotes[_issueId]\n      PUSH 40\t\t\treturn issueVotes[_issueId]\n      MSTORE \t\t\treturn issueVotes[_issueId]\n      DUP1 \t\t\treturn issueVotes[_issueId]\n      SWAP3 \t\t\treturn issueVotes[_issueId]\n      SWAP2 \t\t\treturn issueVotes[_issueId]\n      SWAP1 \t\t\treturn issueVotes[_issueId]\n      DUP2 \t\t\treturn issueVotes[_issueId]\n      DUP2 \t\t\treturn issueVotes[_issueId]\n      MSTORE \t\t\treturn issueVotes[_issueId]\n      PUSH 20\t\t\treturn issueVotes[_issueId]\n      ADD \t\t\treturn issueVotes[_issueId]\n      PUSH 0\t\t\treturn issueVotes[_issueId]\n      SWAP1 \t\t\treturn issueVotes[_issueId]\n    tag 227\t\t\treturn issueVotes[_issueId]\n      JUMPDEST \t\t\treturn issueVotes[_issueId]\n      DUP3 \t\t\treturn issueVotes[_issueId]\n      DUP3 \t\t\treturn issueVotes[_issueId]\n      LT \t\t\treturn issueVotes[_issueId]\n      ISZERO \t\t\treturn issueVotes[_issueId]\n      PUSH [tag] 228\t\t\treturn issueVotes[_issueId]\n      JUMPI \t\t\treturn issueVotes[_issueId]\n      DUP4 \t\t\treturn issueVotes[_issueId]\n      DUP3 \t\t\treturn issueVotes[_issueId]\n      SWAP1 \t\t\treturn issueVotes[_issueId]\n      PUSH 0\t\t\treturn issueVotes[_issueId]\n      MSTORE \t\t\treturn issueVotes[_issueId]\n      PUSH 20\t\t\treturn issueVotes[_issueId]\n      PUSH 0\t\t\treturn issueVotes[_issueId]\n      KECCAK256 \t\t\treturn issueVotes[_issueId]\n      SWAP1 \t\t\treturn issueVotes[_issueId]\n      PUSH 4\t\t\treturn issueVotes[_issueId]\n      MUL \t\t\treturn issueVotes[_issueId]\n      ADD \t\t\treturn issueVotes[_issueId]\n      PUSH 40\t\t\treturn issueVotes[_issueId]\n      MLOAD \t\t\treturn issueVotes[_issueId]\n      DUP1 \t\t\treturn issueVotes[_issueId]\n      PUSH 80\t\t\treturn issueVotes[_issueId]\n      ADD \t\t\treturn issueVotes[_issueId]\n      PUSH 40\t\t\treturn issueVotes[_issueId]\n      MSTORE \t\t\treturn issueVotes[_issueId]\n      SWAP1 \t\t\treturn issueVotes[_issueId]\n      DUP2 \t\t\treturn issueVotes[_issueId]\n      PUSH 0\t\t\treturn issueVotes[_issueId]\n      DUP3 \t\t\treturn issueVotes[_issueId]\n      ADD \t\t\treturn issueVotes[_issueId]\n      PUSH 0\t\t\treturn issueVotes[_issueId]\n      SWAP1 \t\t\treturn issueVotes[_issueId]\n      SLOAD \t\t\treturn issueVotes[_issueId]\n      SWAP1 \t\t\treturn issueVotes[_issueId]\n      PUSH 100\t\t\treturn issueVotes[_issueId]\n      EXP \t\t\treturn issueVotes[_issueId]\n      SWAP1 \t\t\treturn issueVotes[_issueId]\n      DIV \t\t\treturn issueVotes[_issueId]\n      PUSH FFFFFFFFFFFFFFFFFFFFFFFFFFFFFFFFFFFFFFFF\t\t\treturn issueVotes[_issueId]\n      AND \t\t\treturn issueVotes[_issueId]\n      PUSH FFFFFFFFFFFFFFFFFFFFFFFFFFFFFFFFFFFFFFFF\t\t\treturn issueVotes[_issueId]\n      AND \t\t\treturn issueVotes[_issueId]\n      PUSH FFFFFFFFFFFFFFFFFFFFFFFFFFFFFFFFFFFFFFFF\t\t\treturn issueVotes[_issueId]\n      AND \t\t\treturn issueVotes[_issueId]\n      DUP2 \t\t\treturn issueVotes[_issueId]\n      MSTORE \t\t\treturn issueVotes[_issueId]\n      PUSH 20\t\t\treturn issueVotes[_issueId]\n      ADD \t\t\treturn issueVotes[_issueId]\n      PUSH 1\t\t\treturn issueVotes[_issueId]\n      DUP3 \t\t\treturn issueVotes[_issueId]\n      ADD \t\t\treturn issueVotes[_issueId]\n      DUP1 \t\t\treturn issueVotes[_issueId]\n      SLOAD \t\t\treturn issueVotes[_issueId]\n      PUSH [tag] 230\t\t\treturn issueVotes[_issueId]\n      SWAP1 \t\t\treturn issueVotes[_issueId]\n      PUSH [tag] 119\t\t\treturn issueVotes[_issueId]\n      JUMP \t\t\treturn issueVotes[_issueId]\n    tag 230\t\t\treturn issueVotes[_issueId]\n      JUMPDEST \t\t\treturn issueVotes[_issueId]\n      DUP1 \t\t\treturn issueVotes[_issueId]\n      PUSH 1F\t\t\treturn issueVotes[_issueId]\n      ADD \t\t\treturn issueVotes[_issueId]\n      PUSH 20\t\t\treturn issueVotes[_issueId]\n      DUP1 \t\t\treturn issueVotes[_issueId]\n      SWAP2 \t\t\treturn issueVotes[_issueId]\n      DIV \t\t\treturn issueVotes[_issueId]\n      MUL \t\t\treturn issueVotes[_issueId]\n      PUSH 20\t\t\treturn issueVotes[_issueId]\n      ADD \t\t\treturn issueVotes[_issueId]\n      PUSH 40\t\t\treturn issueVotes[_issueId]\n      MLOAD \t\t\treturn issueVotes[_issueId]\n      SWAP1 \t\t\treturn issueVotes[_issueId]\n      DUP2 \t\t\treturn issueVotes[_issueId]\n      ADD \t\t\treturn issueVotes[_issueId]\n      PUSH 40\t\t\treturn issueVotes[_issueId]\n      MSTORE \t\t\treturn issueVotes[_issueId]\n      DUP1 \t\t\treturn issueVotes[_issueId]\n      SWAP3 \t\t\treturn issueVotes[_issueId]\n      SWAP2 \t\t\treturn issueVotes[_issueId]\n      SWAP1 \t\t\treturn issueVotes[_issueId]\n      DUP2 \t\t\treturn issueVotes[_issueId]\n      DUP2 \t\t\treturn issueVotes[_issueId]\n      MSTORE \t\t\treturn issueVotes[_issueId]\n      PUSH 20\t\t\treturn issueVotes[_issueId]\n      ADD \t\t\treturn issueVotes[_issueId]\n      DUP3 \t\t\treturn issueVotes[_issueId]\n      DUP1 \t\t\treturn issueVotes[_issueId]\n      SLOAD \t\t\treturn issueVotes[_issueId]\n      PUSH [tag] 231\t\t\treturn issueVotes[_issueId]\n      SWAP1 \t\t\treturn issueVotes[_issueId]\n      PUSH [tag] 119\t\t\treturn issueVotes[_issueId]\n      JUMP \t\t\treturn issueVotes[_issueId]\n    tag 231\t\t\treturn issueVotes[_issueId]\n      JUMPDEST \t\t\treturn issueVotes[_issueId]\n      DUP1 \t\t\treturn issueVotes[_issueId]\n      ISZERO \t\t\treturn issueVotes[_issueId]\n      PUSH [tag] 232\t\t\treturn issueVotes[_issueId]\n      JUMPI \t\t\treturn issueVotes[_issueId]\n      DUP1 \t\t\treturn issueVotes[_issueId]\n      PUSH 1F\t\t\treturn issueVotes[_issueId]\n      LT \t\t\treturn issueVotes[_issueId]\n      PUSH [tag] 233\t\t\treturn issueVotes[_issueId]\n      JUMPI \t\t\treturn issueVotes[_issueId]\n      PUSH 100\t\t\treturn issueVotes[_issueId]\n      DUP1 \t\t\treturn issueVotes[_issueId]\n      DUP4 \t\t\treturn issueVotes[_issueId]\n      SLOAD \t\t\treturn issueVotes[_issueId]\n      DIV \t\t\treturn issueVotes[_issueId]\n      MUL \t\t\treturn issueVotes[_issueId]\n      DUP4 \t\t\treturn issueVotes[_issueId]\n      MSTORE \t\t\treturn issueVotes[_issueId]\n      SWAP2 \t\t\treturn issueVotes[_issueId]\n      PUSH 20\t\t\treturn issueVotes[_issueId]\n      ADD \t\t\treturn issueVotes[_issueId]\n      SWAP2 \t\t\treturn issueVotes[_issueId]\n      PUSH [tag] 232\t\t\treturn issueVotes[_issueId]\n      JUMP \t\t\treturn issueVotes[_issueId]\n    tag 233\t\t\treturn issueVotes[_issueId]\n      JUMPDEST \t\t\treturn issueVotes[_issueId]\n      DUP3 \t\t\treturn issueVotes[_issueId]\n      ADD \t\t\treturn issueVotes[_issueId]\n      SWAP2 \t\t\treturn issueVotes[_issueId]\n      SWAP1 \t\t\treturn issueVotes[_issueId]\n      PUSH 0\t\t\treturn issueVotes[_issueId]\n      MSTORE \t\t\treturn issueVotes[_issueId]\n      PUSH 20\t\t\treturn issueVotes[_issueId]\n      PUSH 0\t\t\treturn issueVotes[_issueId]\n      KECCAK256 \t\t\treturn issueVotes[_issueId]\n      SWAP1 \t\t\treturn issueVotes[_issueId]\n    tag 234\t\t\treturn issueVotes[_issueId]\n      JUMPDEST \t\t\treturn issueVotes[_issueId]\n      DUP2 \t\t\treturn issueVotes[_issueId]\n      SLOAD \t\t\treturn issueVotes[_issueId]\n      DUP2 \t\t\treturn issueVotes[_issueId]\n      MSTORE \t\t\treturn issueVotes[_issueId]\n      SWAP1 \t\t\treturn issueVotes[_issueId]\n      PUSH 1\t\t\treturn issueVotes[_issueId]\n      ADD \t\t\treturn issueVotes[_issueId]\n      SWAP1 \t\t\treturn issueVotes[_issueId]\n      PUSH 20\t\t\treturn issueVotes[_issueId]\n      ADD \t\t\treturn issueVotes[_issueId]\n      DUP1 \t\t\treturn issueVotes[_issueId]\n      DUP4 \t\t\treturn issueVotes[_issueId]\n      GT \t\t\treturn issueVotes[_issueId]\n      PUSH [tag] 234\t\t\treturn issueVotes[_issueId]\n      JUMPI \t\t\treturn issueVotes[_issueId]\n      DUP3 \t\t\treturn issueVotes[_issueId]\n      SWAP1 \t\t\treturn issueVotes[_issueId]\n      SUB \t\t\treturn issueVotes[_issueId]\n      PUSH 1F\t\t\treturn issueVotes[_issueId]\n      AND \t\t\treturn issueVotes[_issueId]\n      DUP3 \t\t\treturn issueVotes[_issueId]\n      ADD \t\t\treturn issueVotes[_issueId]\n      SWAP2 \t\t\treturn issueVotes[_issueId]\n    tag 232\t\t\treturn issueVotes[_issueId]\n      JUMPDEST \t\t\treturn issueVotes[_issueId]\n      POP \t\t\treturn issueVotes[_issueId]\n      POP \t\t\treturn issueVotes[_issueId]\n      POP \t\t\treturn issueVotes[_issueId]\n      POP \t\t\treturn issueVotes[_issueId]\n      POP \t\t\treturn issueVotes[_issueId]\n      DUP2 \t\t\treturn issueVotes[_issueId]\n      MSTORE \t\t\treturn issueVotes[_issueId]\n      PUSH 20\t\t\treturn issueVotes[_issueId]\n      ADD \t\t\treturn issueVotes[_issueId]\n      PUSH 2\t\t\treturn issueVotes[_issueId]\n      DUP3 \t\t\treturn issueVotes[_issueId]\n      ADD \t\t\treturn issueVotes[_issueId]\n      SLOAD \t\t\treturn issueVotes[_issueId]\n      DUP2 \t\t\treturn issueVotes[_issueId]\n      MSTORE \t\t\treturn issueVotes[_issueId]\n      PUSH 20\t\t\treturn issueVotes[_issueId]\n      ADD \t\t\treturn issueVotes[_issueId]\n      PUSH 3\t\t\treturn issueVotes[_issueId]\n      DUP3 \t\t\treturn issueVotes[_issueId]\n      ADD \t\t\treturn issueVotes[_issueId]\n      PUSH 0\t\t\treturn issueVotes[_issueId]\n      SWAP1 \t\t\treturn issueVotes[_issueId]\n      SLOAD \t\t\treturn issueVotes[_issueId]\n      SWAP1 \t\t\treturn issueVotes[_issueId]\n      PUSH 100\t\t\treturn issueVotes[_issueId]\n      EXP \t\t\treturn issueVotes[_issueId]\n      SWAP1 \t\t\treturn issueVotes[_issueId]\n      DIV \t\t\treturn issueVotes[_issueId]\n      PUSH FF\t\t\treturn issueVotes[_issueId]\n      AND \t\t\treturn issueVotes[_issueId]\n      ISZERO \t\t\treturn issueVotes[_issueId]\n      ISZERO \t\t\treturn issueVotes[_issueId]\n      ISZERO \t\t\treturn issueVotes[_issueId]\n      ISZERO \t\t\treturn issueVotes[_issueId]\n      DUP2 \t\t\treturn issueVotes[_issueId]\n      MSTORE \t\t\treturn issueVotes[_issueId]\n      POP \t\t\treturn issueVotes[_issueId]\n      POP \t\t\treturn issueVotes[_issueId]\n      DUP2 \t\t\treturn issueVotes[_issueId]\n      MSTORE \t\t\treturn issueVotes[_issueId]\n      PUSH 20\t\t\treturn issueVotes[_issueId]\n      ADD \t\t\treturn issueVotes[_issueId]\n      SWAP1 \t\t\treturn issueVotes[_issueId]\n      PUSH 1\t\t\treturn issueVotes[_issueId]\n      ADD \t\t\treturn issueVotes[_issueId]\n      SWAP1 \t\t\treturn issueVotes[_issueId]\n      PUSH [tag] 227\t\t\treturn issueVotes[_issueId]\n      JUMP \t\t\treturn issueVotes[_issueId]\n    tag 228\t\t\treturn issueVotes[_issueId]\n      JUMPDEST \t\t\treturn issueVotes[_issueId]\n      POP \t\t\treturn issueVotes[_issueId]\n      POP \t\t\treturn issueVotes[_issueId]\n      POP \t\t\treturn issueVotes[_issueId]\n      POP \t\t\treturn issueVotes[_issueId]\n      SWAP1 \t\t\treturn issueVotes[_issueId]\n      POP \t\t\treturn issueVotes[_issueId]\n      SWAP2 \t\t\tfunction getIssueVotes(string ...\n      SWAP1 \t\t\tfunction getIssueVotes(string ...\n      POP \t\t\tfunction getIssueVotes(string ...\n      JUMP \t\t\tfunction getIssueVotes(string ...\n    tag 235\t\t\t-License-Identifier: MIT\\r\\npr...\n      JUMPDEST \t\t\t-License-Identifier: MIT\\r\\npr...\n      PUSH 0\t\t\tsolidi\n      PUSH 40\t\t\te \n      MLOAD \t\t\t @title C\n      SWAP1 \t\t\t\\n\\r\\n/**\\r\\n * @title C\n      POP \t\t\t\\n\\r\\n/**\\r\\n * @title C\n      SWAP1 \t\t\t-License-Identifier: MIT\\r\\npr...\n      JUMP \t\t\t-License-Identifier: MIT\\r\\npr...\n    tag 236\t\t\tcker\\r\\n * @dev Smart contract...\n      JUMPDEST \t\t\tcker\\r\\n * @dev Smart contract...\n      PUSH 0\t\t\t \n      PUSH 0\t\t\tk\n      REVERT \t\t\tsueTracker {\n    tag 237\t\t\t// Structure to store issue de...\n      JUMPDEST \t\t\t// Structure to store issue de...\n      PUSH 0\t\t\t \n      PUSH 0\t\t\td\n      REVERT \t\t\tObjectId\\r\\n  \n    tag 238\t\t\t title;          // Issue titl...\n      JUMPDEST \t\t\t title;          // Issue titl...\n      PUSH 0\t\t\t \n      PUSH 0\t\t\t \n      REVERT \t\t\taddress of r\n    tag 239\t\t\t     uint256 timestamp;     //...\n      JUMPDEST \t\t\t     uint256 timestamp;     //...\n      PUSH 0\t\t\te\n      PUSH 0\t\t\ts\n      REVERT \t\t\tal votes rec\n    tag 240\t\t\t   bool exists;           // C...\n      JUMPDEST \t\t\t   bool exists;           // C...\n      PUSH 0\t\t\tue exi\n      PUSH 1F\t\t\tot\n      NOT \t\t\tre vote\n      PUSH 1F\t\t\to \n      DUP4 \t\t\tcture\n      ADD \t\t\tStructure to s\n      AND \t\t\t // Structure to store vote \n      SWAP1 \t\t\t\\n    \\r\\n    // Structure to ...\n      POP \t\t\t\\n    \\r\\n    // Structure to ...\n      SWAP2 \t\t\t   bool exists;           // C...\n      SWAP1 \t\t\t   bool exists;           // C...\n      POP \t\t\t   bool exists;           // C...\n      JUMP \t\t\t   bool exists;           // C...\n    tag 193\t\t\t struct Vote {\\r\\n        addr...\n      JUMPDEST \t\t\t struct Vote {\\r\\n        addr...\n      PUSH 4E487B7100000000000000000000000000000000000000000000000000000000\t\t\t/ Wallet address of voter\\r\\n ...\n      PUSH 0\t\t\t \n      MSTORE \t\t\t         // Wallet address of ...\n      PUSH 41\t\t\t6 ti\n      PUSH 4\t\t\tt\n      MSTORE \t\t\t    uint256 tim\n      PUSH 24\t\t\t vot\n      PUSH 0\t\t\th\n      REVERT \t\t\t   // When vote\n    tag 241\t\t\t       bool support;          ...\n      JUMPDEST \t\t\t       bool support;          ...\n      PUSH [tag] 322\t\t\t// Mappings\\r\\n    mapping(st\n      DUP3 \t\t\tng(s\n      PUSH [tag] 240\t\t\t// Mappings\\r\\n    mapping(st\n      JUMP \t\t\t// Mappings\\r\\n    mapping(st\n    tag 322\t\t\t// Mappings\\r\\n    mapping(st\n      JUMPDEST \t\t\t// Mappings\\r\\n    mapping(st\n      DUP2 \t\t\t  \\r\\n  \n      ADD \t\t\t\\r\\n    \\r\\n    // Mappings\\r\\...\n      DUP2 \t\t\t strin\n      DUP2 \t\t\tg(address \n      LT \t\t\tping(address => string\n      PUSH FFFFFFFFFFFFFFFF\t\t\t issueVotes;\\r\\n    \n      DUP3 \t\t\tte[]) publ\n      GT \t\t\t Vote[]) public issueVotes;\\r\\...\n      OR \t\t\t => Vote[]) public issueVotes;...\n      ISZERO \t\t\ting => Vote[]) public issueVot...\n      PUSH [tag] 323\t\t\ting => Vote[]) public issueVot...\n      JUMPI \t\t\ting => Vote[]) public issueVot...\n      PUSH [tag] 324\t\t\tpublic userIssues;\n      PUSH [tag] 193\t\t\tpublic userIssues;\n      JUMP \t\t\tpublic userIssues;\n    tag 324\t\t\tpublic userIssues;\n      JUMPDEST \t\t\tpublic userIssues;\n    tag 323\t\t\ting => Vote[]) public issueVot...\n      JUMPDEST \t\t\ting => Vote[]) public issueVot...\n      DUP1 \t\t\t=> mapping\n      PUSH 40\t\t\tes\n      MSTORE \t\t\tng(address => mapping(\n      POP \t\t\tote, false = downvote\\r\\n    }...\n      POP \t\t\t       bool support;          ...\n      POP \t\t\t       bool support;          ...\n      JUMP \t\t\t       bool support;          ...\n    tag 242\t\t\tol)) public hasVoted;\\r\\n    \\...\n      JUMPDEST \t\t\tol)) public hasVoted;\\r\\n    \\...\n      PUSH 0\t\t\t/ Arra\n      PUSH [tag] 326\t\t\ts\\r\\n    string[] publ\n      PUSH [tag] 235\t\t\ts\\r\\n    string[] publ\n      JUMP \t\t\ts\\r\\n    string[] publ\n    tag 326\t\t\ts\\r\\n    string[] publ\n      JUMPDEST \t\t\ts\\r\\n    string[] publ\n      SWAP1 \t\t\t all issues\\r\\n    string[] pu...\n      POP \t\t\t all issues\\r\\n    string[] pu...\n      PUSH [tag] 327\t\t\tueIds;\\r\\n    \\r\\n    // Event...\n      DUP3 \t\t\t\\n   \n      DUP3 \t\t\t Event\n      PUSH [tag] 241\t\t\tueIds;\\r\\n    \\r\\n    // Event...\n      JUMP \t\t\tueIds;\\r\\n    \\r\\n    // Event...\n    tag 327\t\t\tueIds;\\r\\n    \\r\\n    // Event...\n      JUMPDEST \t\t\tueIds;\\r\\n    \\r\\n    // Event...\n      SWAP2 \t\t\tol)) public hasVoted;\\r\\n    \\...\n      SWAP1 \t\t\tol)) public hasVoted;\\r\\n    \\...\n      POP \t\t\tol)) public hasVoted;\\r\\n    \\...\n      JUMP \t\t\tol)) public hasVoted;\\r\\n    \\...\n    tag 243\t\t\tecorded(\\r\\n        string ind...\n      JUMPDEST \t\t\tecorded(\\r\\n        string ind...\n      PUSH 0\t\t\te,\\r\\n\n      PUSH FFFFFFFFFFFFFFFF\t\t\tt VoteRecorded(\\r\\n \n      DUP3 \t\t\t    ev\n      GT \t\t\t \\r\\n    event VoteRecorded(\\r...\n      ISZERO \t\t\t    \\r\\n    event VoteRecorded...\n      PUSH [tag] 329\t\t\t    \\r\\n    event VoteRecorded...\n      JUMPI \t\t\t    \\r\\n    event VoteRecorded...\n      PUSH [tag] 330\t\t\t   string indexed \n      PUSH [tag] 193\t\t\t   string indexed \n      JUMP \t\t\t   string indexed \n    tag 330\t\t\t   string indexed \n      JUMPDEST \t\t\t   string indexed \n    tag 329\t\t\t    \\r\\n    event VoteRecorded...\n      JUMPDEST \t\t\t    \\r\\n    event VoteRecorded...\n      PUSH [tag] 331\t\t\tdress indexed voter,\\r\\n      ...\n      DUP3 \t\t\t      \n      PUSH [tag] 240\t\t\tdress indexed voter,\\r\\n      ...\n      JUMP \t\t\tdress indexed voter,\\r\\n      ...\n    tag 331\t\t\tdress indexed voter,\\r\\n      ...\n      JUMPDEST \t\t\tdress indexed voter,\\r\\n      ...\n      SWAP1 \t\t\t      address indexed voter,\\r...\n      POP \t\t\t      address indexed voter,\\r...\n      PUSH 20\t\t\t\\r\\n  \n      DUP2 \t\t\t\\r\\n  \n      ADD \t\t\t  );\\r\\n    \\r\\n   \n      SWAP1 \t\t\ttamp\\r\\n    );\\r\\n    \\r\\n   \n      POP \t\t\ttamp\\r\\n    );\\r\\n    \\r\\n   \n      SWAP2 \t\t\tecorded(\\r\\n        string ind...\n      SWAP1 \t\t\tecorded(\\r\\n        string ind...\n      POP \t\t\tecorded(\\r\\n        string ind...\n      JUMP \t\t\tecorded(\\r\\n        string ind...\n    tag 244\t\t\ttatusUpdated(\\r\\n        strin...\n      JUMPDEST \t\t\ttatusUpdated(\\r\\n        strin...\n      DUP3 \t\t\tmp\\r\\n  \n      DUP2 \t\t\tmes\n      DUP4 \t\t\t56 \n      CALLDATACOPY \t\t\t        uint256 timestamp\\r\\n ...\n      PUSH 0\t\t\tc\n      DUP4 \t\t\t* @dev\n      DUP4 \t\t\t   \n      ADD \t\t\t**\\r\\n     * @dev \n      MSTORE \t\t\t\\r\\n    /**\\r\\n     * @dev Rec...\n      POP \t\t\ttatusUpdated(\\r\\n        strin...\n      POP \t\t\ttatusUpdated(\\r\\n        strin...\n      POP \t\t\ttatusUpdated(\\r\\n        strin...\n      JUMP \t\t\ttatusUpdated(\\r\\n        strin...\n    tag 245\t\t\tc issue on the blockchain\\r\\n ...\n      JUMPDEST \t\t\tc issue on the blockchain\\r\\n ...\n      PUSH 0\t\t\te\\r\\n  \n      PUSH [tag] 334\t\t\title of the issue (max 100 cha...\n      PUSH [tag] 335\t\t\te (max 100 chars)\\r\\n     */\\r...\n      DUP5 \t\t\tecordI\n      PUSH [tag] 243\t\t\te (max 100 chars)\\r\\n     */\\r...\n      JUMP \t\t\te (max 100 chars)\\r\\n     */\\r...\n    tag 335\t\t\te (max 100 chars)\\r\\n     */\\r...\n      JUMPDEST \t\t\te (max 100 chars)\\r\\n     */\\r...\n      PUSH [tag] 242\t\t\title of the issue (max 100 cha...\n      JUMP \t\t\title of the issue (max 100 cha...\n    tag 334\t\t\title of the issue (max 100 cha...\n      JUMPDEST \t\t\title of the issue (max 100 cha...\n      SWAP1 \t\t\t _title Title of the issue (ma...\n      POP \t\t\t _title Title of the issue (ma...\n      DUP3 \t\t\tory _i\n      DUP2 \t\t\ting m\n      MSTORE \t\t\t    string memory _is\n      PUSH 20\t\t\ttitl\n      DUP2 \t\t\temory\n      ADD \t\t\tng memory _title\n      DUP5 \t\t\t(by\n      DUP5 \t\t\t  requ\n      DUP5 \t\t\t   \n      ADD \t\t\t{\\r\\n        requi\n      GT \t\t\tic {\\r\\n        require(byt\n      ISZERO \t\t\tublic {\\r\\n        require(byt...\n      PUSH [tag] 336\t\t\tublic {\\r\\n        require(byt...\n      JUMPI \t\t\tublic {\\r\\n        require(byt...\n      PUSH [tag] 337\t\t\t_issueId).length > 0, \"Issue I...\n      PUSH [tag] 239\t\t\t_issueId).length > 0, \"Issue I...\n      JUMP \t\t\t_issueId).length > 0, \"Issue I...\n    tag 337\t\t\t_issueId).length > 0, \"Issue I...\n      JUMPDEST \t\t\t_issueId).length > 0, \"Issue I...\n    tag 336\t\t\tublic {\\r\\n        require(byt...\n      JUMPDEST \t\t\tublic {\\r\\n        require(byt...\n      PUSH [tag] 338\t\t\t 0, \"Title cannot be empty\");\\...\n      DUP5 \t\t\t!issue\n      DUP3 \t\t\tuir\n      DUP6 \t\t\t  r\n      PUSH [tag] 244\t\t\t 0, \"Title cannot be empty\");\\...\n      JUMP \t\t\t 0, \"Title cannot be empty\");\\...\n    tag 338\t\t\t 0, \"Title cannot be empty\");\\...\n      JUMPDEST \t\t\t 0, \"Title cannot be empty\");\\...\n      POP \t\t\t  * @param _title Title of the...\n      SWAP4 \t\t\tc issue on the blockchain\\r\\n ...\n      SWAP3 \t\t\tc issue on the blockchain\\r\\n ...\n      POP \t\t\tc issue on the blockchain\\r\\n ...\n      POP \t\t\tc issue on the blockchain\\r\\n ...\n      POP \t\t\tc issue on the blockchain\\r\\n ...\n      JUMP \t\t\tc issue on the blockchain\\r\\n ...\n    tag 246\t\t\talready recorded\");\\r\\n       ...\n      JUMPDEST \t\t\talready recorded\");\\r\\n       ...\n      PUSH 0\t\t\t= Iss\n      DUP3 \t\t\t   \n      PUSH 1F\t\t\t\\n   \n      DUP4 \t\t\tssueId\n      ADD \t\t\t: _issueId,\\r\\n    \n      SLT \t\t\tueId: _issueId,\\r\\n          \n      PUSH [tag] 340\t\t\t       issueId: _issueId,\\r\\n ...\n      JUMPI \t\t\t       issueId: _issueId,\\r\\n ...\n      PUSH [tag] 341\t\t\ttle: _title,\\r\\n            re...\n      PUSH [tag] 238\t\t\ttle: _title,\\r\\n            re...\n      JUMP \t\t\ttle: _title,\\r\\n            re...\n    tag 341\t\t\ttle: _title,\\r\\n            re...\n      JUMPDEST \t\t\ttle: _title,\\r\\n            re...\n    tag 340\t\t\t       issueId: _issueId,\\r\\n ...\n      JUMPDEST \t\t\t       issueId: _issueId,\\r\\n ...\n      DUP2 \t\t\t\\r\\n    \n      CALLDATALOAD \t\t\tvoteCount: 0,\\r\\n     \n      PUSH [tag] 342\t\t\te\\r\\n        });\\r\\n        \\r...\n      DUP5 \t\t\tIss\n      DUP3 \t\t\t    us\n      PUSH 20\t\t\t;\\r\\n \n      DUP7 \t\t\tissueI\n      ADD \t\t\tsh(_issueId);\\r\\n  \n      PUSH [tag] 245\t\t\te\\r\\n        });\\r\\n        \\r...\n      JUMP \t\t\te\\r\\n        });\\r\\n        \\r...\n    tag 342\t\t\te\\r\\n        });\\r\\n        \\r...\n      JUMPDEST \t\t\te\\r\\n        });\\r\\n        \\r...\n      SWAP2 \t\t\tists: true\\r\\n        });\\r\\n ...\n      POP \t\t\tists: true\\r\\n        });\\r\\n ...\n      POP \t\t\te({\\r\\n            issueId: _i...\n      SWAP3 \t\t\talready recorded\");\\r\\n       ...\n      SWAP2 \t\t\talready recorded\");\\r\\n       ...\n      POP \t\t\talready recorded\");\\r\\n       ...\n      POP \t\t\talready recorded\");\\r\\n       ...\n      JUMP \t\t\talready recorded\");\\r\\n       ...\n    tag 247\t\t\tr].push(_issueId);\\r\\n        ...\n      JUMPDEST \t\t\tr].push(_issueId);\\r\\n        ...\n      PUSH 0\t\t\t    emi\n      DUP2 \t\t\tg.sen\n      ISZERO \t\t\ttle, msg.send\n      ISZERO \t\t\tId, _title, msg.sende\n      SWAP1 \t\t\trded(_issueId, _title, msg.sen...\n      POP \t\t\trded(_issueId, _title, msg.sen...\n      SWAP2 \t\t\tr].push(_issueId);\\r\\n        ...\n      SWAP1 \t\t\tr].push(_issueId);\\r\\n        ...\n      POP \t\t\tr].push(_issueId);\\r\\n        ...\n      JUMP \t\t\tr].push(_issueId);\\r\\n        ...\n    tag 248\t\t\testamp);\\r\\n    }\\r\\n    \\r\\n ...\n      JUMPDEST \t\t\testamp);\\r\\n    }\\r\\n    \\r\\n ...\n      PUSH [tag] 345\t\t\t\\n     * @param _issue\n      DUP2 \t\t\t_issu\n      PUSH [tag] 247\t\t\t\\n     * @param _issue\n      JUMP \t\t\t\\n     * @param _issue\n    tag 345\t\t\t\\n     * @param _issue\n      JUMPDEST \t\t\t\\n     * @param _issue\n      DUP2 \t\t\t issu\n      EQ \t\t\t an issue\\r\\n     * @param _is...\n      PUSH [tag] 346\t\t\t a vote on an issue\\r\\n     * ...\n      JUMPI \t\t\t a vote on an issue\\r\\n     * ...\n      PUSH 0\t\t\te\n      PUSH 0\t\t\tv\n      REVERT \t\t\tsue to vote \n    tag 346\t\t\t a vote on an issue\\r\\n     * ...\n      JUMPDEST \t\t\t a vote on an issue\\r\\n     * ...\n      POP \t\t\testamp);\\r\\n    }\\r\\n    \\r\\n ...\n      JUMP \t\t\testamp);\\r\\n    }\\r\\n    \\r\\n ...\n    tag 249\t\t\tram _support True for upvote, ...\n      JUMPDEST \t\t\tram _support True for upvote, ...\n      PUSH 0\t\t\tnvote\n      DUP2 \t\t\te(\\r\\n  \n      CALLDATALOAD \t\t\tion recordVote(\\r\\n   \n      SWAP1 \t\t\t    function recordVote(\\r\\n  ...\n      POP \t\t\t    function recordVote(\\r\\n  ...\n      PUSH [tag] 348\t\t\tng memory _issueId,\\r\\n       ...\n      DUP2 \t\t\t     \n      PUSH [tag] 248\t\t\tng memory _issueId,\\r\\n       ...\n      JUMP \t\t\tng memory _issueId,\\r\\n       ...\n    tag 348\t\t\tng memory _issueId,\\r\\n       ...\n      JUMPDEST \t\t\tng memory _issueId,\\r\\n       ...\n      SWAP3 \t\t\tram _support True for upvote, ...\n      SWAP2 \t\t\tram _support True for upvote, ...\n      POP \t\t\tram _support True for upvote, ...\n      POP \t\t\tram _support True for upvote, ...\n      JUMP \t\t\tram _support True for upvote, ...\n    tag 22\t\t\t\\r\\n    ) public {\\r\\n        ...\n      JUMPDEST \t\t\t\\r\\n    ) public {\\r\\n        ...\n      PUSH 0\t\t\texist\"\n      PUSH 0\t\t\t\\r\\n    \n      PUSH 40\t\t\t, \n      DUP4 \t\t\tr][_issue\n      DUP6 \t\t\tmsg.sen\n      SUB \t\t\tted[msg.sender][_issueI\n      SLT \t\t\tasVoted[msg.sender][_issueId],...\n      ISZERO \t\t\t(!hasVoted[msg.sender][_issueI...\n      PUSH [tag] 350\t\t\t(!hasVoted[msg.sender][_issueI...\n      JUMPI \t\t\t(!hasVoted[msg.sender][_issueI...\n      PUSH [tag] 351\t\t\teady voted on this issue\");\\r\\...\n      PUSH [tag] 236\t\t\teady voted on this issue\");\\r\\...\n      JUMP \t\t\teady voted on this issue\");\\r\\...\n    tag 351\t\t\teady voted on this issue\");\\r\\...\n      JUMPDEST \t\t\teady voted on this issue\");\\r\\...\n    tag 350\t\t\t(!hasVoted[msg.sender][_issueI...\n      JUMPDEST \t\t\t(!hasVoted[msg.sender][_issueI...\n      PUSH 0\t\t\t \n      DUP4 \t\t\td,\\r\\n     \n      ADD \t\t\tsueId,\\r\\n         \n      CALLDATALOAD \t\t\t issueId: _issueId,\\r\\n       ...\n      PUSH FFFFFFFFFFFFFFFF\t\t\tp,\\r\\n            su\n      DUP2 \t\t\ttimest\n      GT \t\t\tck.timestamp,\\r\\n            s...\n      ISZERO \t\t\tblock.timestamp,\\r\\n          ...\n      PUSH [tag] 352\t\t\tblock.timestamp,\\r\\n          ...\n      JUMPI \t\t\tblock.timestamp,\\r\\n          ...\n      PUSH [tag] 353\t\t\tt: _support\\r\\n        });\\r\\n...\n      PUSH [tag] 237\t\t\tt: _support\\r\\n        });\\r\\n...\n      JUMP \t\t\tt: _support\\r\\n        });\\r\\n...\n    tag 353\t\t\tt: _support\\r\\n        });\\r\\n...\n      JUMPDEST \t\t\tt: _support\\r\\n        });\\r\\n...\n    tag 352\t\t\tblock.timestamp,\\r\\n          ...\n      JUMPDEST \t\t\tblock.timestamp,\\r\\n          ...\n      PUSH [tag] 354\t\t\tder][_issueId] = true;\\r\\n    ...\n      DUP6 \t\t\t {\\r\\n   \n      DUP3 \t\t\t_suppo\n      DUP7 \t\t\t       if\n      ADD \t\t\t \\r\\n        if (_suppor\n      PUSH [tag] 246\t\t\tder][_issueId] = true;\\r\\n    ...\n      JUMP \t\t\tder][_issueId] = true;\\r\\n    ...\n    tag 354\t\t\tder][_issueId] = true;\\r\\n    ...\n      JUMPDEST \t\t\tder][_issueId] = true;\\r\\n    ...\n      SWAP3 \t\t\ted[msg.sender][_issueId] = tru...\n      POP \t\t\ted[msg.sender][_issueId] = tru...\n      POP \t\t\tter: msg.sender,\\r\\n          ...\n      PUSH 20\t\t\t\\n \n      PUSH [tag] 355\t\t\tteRecorded(_issueId, msg.sende...\n      DUP6 \t\t\t block.\n      DUP3 \t\t\t_suppo\n      DUP7 \t\t\tsg.sender\n      ADD \t\t\td, msg.sender, _suppor\n      PUSH [tag] 249\t\t\tteRecorded(_issueId, msg.sende...\n      JUMP \t\t\tteRecorded(_issueId, msg.sende...\n    tag 355\t\t\tteRecorded(_issueId, msg.sende...\n      JUMPDEST \t\t\tteRecorded(_issueId, msg.sende...\n      SWAP2 \t\t\t   emit VoteRecorded(_issueId,...\n      POP \t\t\t   emit VoteRecorded(_issueId,...\n      POP \t\t\teId].voteCount++;\\r\\n        }...\n      SWAP3 \t\t\t\\r\\n    ) public {\\r\\n        ...\n      POP \t\t\t\\r\\n    ) public {\\r\\n        ...\n      SWAP3 \t\t\t\\r\\n    ) public {\\r\\n        ...\n      SWAP1 \t\t\t\\r\\n    ) public {\\r\\n        ...\n      POP \t\t\t\\r\\n    ) public {\\r\\n        ...\n      JUMP \t\t\t\\r\\n    ) public {\\r\\n        ...\n    tag 26\t\t\t\\r\\n    /**\\r\\n     * @dev Get...\n      JUMPDEST \t\t\t\\r\\n    /**\\r\\n     * @dev Get...\n      PUSH 0\t\t\te ID t\n      PUSH 20\t\t\tin\n      DUP3 \t\t\tgetIssue(\n      DUP5 \t\t\tfunctio\n      SUB \t\t\t    function getIssue(s\n      SLT \t\t\t*/\\r\\n    function getIssue(st...\n      ISZERO \t\t\t   */\\r\\n    function getIssue...\n      PUSH [tag] 357\t\t\t   */\\r\\n    function getIssue...\n      JUMPI \t\t\t   */\\r\\n    function getIssue...\n      PUSH [tag] 358\t\t\tmory _issueId) public view ret...\n      PUSH [tag] 236\t\t\tmory _issueId) public view ret...\n      JUMP \t\t\tmory _issueId) public view ret...\n    tag 358\t\t\tmory _issueId) public view ret...\n      JUMPDEST \t\t\tmory _issueId) public view ret...\n    tag 357\t\t\t   */\\r\\n    function getIssue...\n      JUMPDEST \t\t\t   */\\r\\n    function getIssue...\n      PUSH 0\t\t\te\n      DUP3 \t\t\tuint256 t\n      ADD \t\t\t    uint256 times\n      CALLDATALOAD \t\t\trtedBy,\\r\\n        uint256 tim...\n      PUSH FFFFFFFFFFFFFFFF\t\t\tount,\\r\\n        boo\n      DUP2 \t\t\t56 vot\n      GT \t\t\tnt256 voteCount,\\r\\n        bo...\n      ISZERO \t\t\t uint256 voteCount,\\r\\n       ...\n      PUSH [tag] 359\t\t\t uint256 voteCount,\\r\\n       ...\n      JUMPI \t\t\t uint256 voteCount,\\r\\n       ...\n      PUSH [tag] 360\t\t\tists\\r\\n    ) {\\r\\n        Iss...\n      PUSH [tag] 237\t\t\tists\\r\\n    ) {\\r\\n        Iss...\n      JUMP \t\t\tists\\r\\n    ) {\\r\\n        Iss...\n    tag 360\t\t\tists\\r\\n    ) {\\r\\n        Iss...\n      JUMPDEST \t\t\tists\\r\\n    ) {\\r\\n        Iss...\n    tag 359\t\t\t uint256 voteCount,\\r\\n       ...\n      JUMPDEST \t\t\t uint256 voteCount,\\r\\n       ...\n      PUSH [tag] 361\t\t\td,\\r\\n            issue.title,...\n      DUP5 \t\t\tdBy,\\r\\n \n      DUP3 \t\t\te.repo\n      DUP6 \t\t\t       is\n      ADD \t\t\t           issue.repor\n      PUSH [tag] 246\t\t\td,\\r\\n            issue.title,...\n      JUMP \t\t\td,\\r\\n            issue.title,...\n    tag 361\t\t\td,\\r\\n            issue.title,...\n      JUMPDEST \t\t\td,\\r\\n            issue.title,...\n      SWAP2 \t\t\tsue.issueId,\\r\\n            is...\n      POP \t\t\tsue.issueId,\\r\\n            is...\n      POP \t\t\t title,\\r\\n        address rep...\n      SWAP3 \t\t\t\\r\\n    /**\\r\\n     * @dev Get...\n      SWAP2 \t\t\t\\r\\n    /**\\r\\n     * @dev Get...\n      POP \t\t\t\\r\\n    /**\\r\\n     * @dev Get...\n      POP \t\t\t\\r\\n    /**\\r\\n     * @dev Get...\n      JUMP \t\t\t\\r\\n    /**\\r\\n     * @dev Get...\n    tag 250\t\t\tmp,\\r\\n            issue.voteC...\n      JUMPDEST \t\t\tmp,\\r\\n            issue.voteC...\n      PUSH 0\t\t\t       \n      DUP2 \t\t\t   );\n      SWAP1 \t\t\tists\\r\\n        );\n      POP \t\t\tists\\r\\n        );\n      SWAP2 \t\t\tmp,\\r\\n            issue.voteC...\n      SWAP1 \t\t\tmp,\\r\\n            issue.voteC...\n      POP \t\t\tmp,\\r\\n            issue.voteC...\n      JUMP \t\t\tmp,\\r\\n            issue.voteC...\n    tag 251\t\t\t \\r\\n    /**\\r\\n     * @dev Ge...\n      JUMPDEST \t\t\t \\r\\n    /**\\r\\n     * @dev Ge...\n      PUSH [tag] 364\t\t\t query\\r\\n     */\\r\\n    fun\n      DUP2 \t\t\t   fu\n      PUSH [tag] 250\t\t\t query\\r\\n     */\\r\\n    fun\n      JUMP \t\t\t query\\r\\n     */\\r\\n    fun\n    tag 364\t\t\t query\\r\\n     */\\r\\n    fun\n      JUMPDEST \t\t\t query\\r\\n     */\\r\\n    fun\n      DUP3 \t\t\tID \n      MSTORE \t\t\t Issue ID to query\\r\\n     */\\...\n      POP \t\t\t \\r\\n    /**\\r\\n     * @dev Ge...\n      POP \t\t\t \\r\\n    /**\\r\\n     * @dev Ge...\n      JUMP \t\t\t \\r\\n    /**\\r\\n     * @dev Ge...\n    tag 29\t\t\tCount(string memory _issueId) ...\n      JUMPDEST \t\t\tCount(string memory _issueId) ...\n      PUSH 0\t\t\td].e\n      PUSH 20\t\t\t  \n      DUP3 \t\t\texist\");\\r\n      ADD \t\t\tnot exist\");\\r\\n    \n      SWAP1 \t\t\tue does not exist\");\\r\\n    \n      POP \t\t\tue does not exist\");\\r\\n    \n      PUSH [tag] 366\t\t\t issues[_issueId].voteCount;\\r...\n      PUSH 0\t\t\ta\n      DUP4 \t\t\t* @dev Ge\n      ADD \t\t\t    * @dev Get al\n      DUP5 \t\t\t   /**\n      PUSH [tag] 251\t\t\t issues[_issueId].voteCount;\\r...\n      JUMP \t\t\t issues[_issueId].voteCount;\\r...\n    tag 366\t\t\t issues[_issueId].voteCount;\\r...\n      JUMPDEST \t\t\t issues[_issueId].voteCount;\\r...\n      SWAP3 \t\t\tCount(string memory _issueId) ...\n      SWAP2 \t\t\tCount(string memory _issueId) ...\n      POP \t\t\tCount(string memory _issueId) ...\n      POP \t\t\tCount(string memory _issueId) ...\n      JUMP \t\t\tCount(string memory _issueId) ...\n    tag 252\t\t\t issue\\r\\n     * @param _issue...\n      JUMPDEST \t\t\t issue\\r\\n     * @param _issue...\n      PUSH 0\t\t\tID to q\n      PUSH FFFFFFFFFFFFFFFFFFFFFFFFFFFFFFFFFFFFFFFF\t\t\tsueVotes(string memory _issueI...\n      DUP3 \t\t\tn get\n      AND \t\t\tction getIssueVotes(string mem...\n      SWAP1 \t\t\t*/\\r\\n    function getIssueVot...\n      POP \t\t\t*/\\r\\n    function getIssueVot...\n      SWAP2 \t\t\t issue\\r\\n     * @param _issue...\n      SWAP1 \t\t\t issue\\r\\n     * @param _issue...\n      POP \t\t\t issue\\r\\n     * @param _issue...\n      JUMP \t\t\t issue\\r\\n     * @param _issue...\n    tag 253\t\t\tote[] memory) {\\r\\n        req...\n      JUMPDEST \t\t\tote[] memory) {\\r\\n        req...\n      PUSH 0\t\t\tes[_iss\n      PUSH [tag] 369\t\t\toes not exist\");\\r\\n      \n      DUP3 \t\t\t     \n      PUSH [tag] 252\t\t\toes not exist\");\\r\\n      \n      JUMP \t\t\toes not exist\");\\r\\n      \n    tag 369\t\t\toes not exist\");\\r\\n      \n      JUMPDEST \t\t\toes not exist\");\\r\\n      \n      SWAP1 \t\t\ts, \"Issue does not exist\");\\r\\...\n      POP \t\t\ts, \"Issue does not exist\");\\r\\...\n      SWAP2 \t\t\tote[] memory) {\\r\\n        req...\n      SWAP1 \t\t\tote[] memory) {\\r\\n        req...\n      POP \t\t\tote[] memory) {\\r\\n        req...\n      JUMP \t\t\tote[] memory) {\\r\\n        req...\n    tag 254\t\t\tueVotes[_issueId];\\r\\n    }\\r\\...\n      JUMPDEST \t\t\tueVotes[_issueId];\\r\\n    }\\r\\...\n      PUSH [tag] 371\t\t\trted by a user\\r\\n     * @\n      DUP2 \t\t\t   * \n      PUSH [tag] 253\t\t\trted by a user\\r\\n     * @\n      JUMP \t\t\trted by a user\\r\\n     * @\n    tag 371\t\t\trted by a user\\r\\n     * @\n      JUMPDEST \t\t\trted by a user\\r\\n     * @\n      DUP2 \t\t\tes re\n      EQ \t\t\tssues reported by a user\\r\\n  ...\n      PUSH [tag] 372\t\t\t Get all issues reported by a ...\n      JUMPI \t\t\t Get all issues reported by a ...\n      PUSH 0\t\t\tr\n      PUSH 0\t\t\tU\n      REVERT \t\t\t _user User \n    tag 372\t\t\t Get all issues reported by a ...\n      JUMPDEST \t\t\t Get all issues reported by a ...\n      POP \t\t\tueVotes[_issueId];\\r\\n    }\\r\\...\n      JUMP \t\t\tueVotes[_issueId];\\r\\n    }\\r\\...\n    tag 255\t\t\try\\r\\n     */\\r\\n    function ...\n      JUMPDEST \t\t\try\\r\\n     */\\r\\n    function ...\n      PUSH 0\t\t\ts _us\n      DUP2 \t\t\t memor\n      CALLDATALOAD \t\t\trns (string[] memory\n      SWAP1 \t\t\tview returns (string[] memory\n      POP \t\t\tview returns (string[] memory\n      PUSH [tag] 374\t\t\t    return userIssues[_user];\\...\n      DUP2 \t\t\t];\\r\\n \n      PUSH [tag] 254\t\t\t    return userIssues[_user];\\...\n      JUMP \t\t\t    return userIssues[_user];\\...\n    tag 374\t\t\t    return userIssues[_user];\\...\n      JUMPDEST \t\t\t    return userIssues[_user];\\...\n      SWAP3 \t\t\try\\r\\n     */\\r\\n    function ...\n      SWAP2 \t\t\try\\r\\n     */\\r\\n    function ...\n      POP \t\t\try\\r\\n     */\\r\\n    function ...\n      POP \t\t\try\\r\\n     */\\r\\n    function ...\n      JUMP \t\t\try\\r\\n     */\\r\\n    function ...\n    tag 256\t\t\t   /**\\r\\n     * @dev Check if...\n      JUMPDEST \t\t\t   /**\\r\\n     * @dev Check if...\n      PUSH [tag] 376\t\t\tser User address\\r\\n     *\n      DUP2 \t\t\t     \n      PUSH [tag] 250\t\t\tser User address\\r\\n     *\n      JUMP \t\t\tser User address\\r\\n     *\n    tag 376\t\t\tser User address\\r\\n     *\n      JUMPDEST \t\t\tser User address\\r\\n     *\n      DUP2 \t\t\taram \n      EQ \t\t\t @param _user User address\\r\\n...\n      PUSH [tag] 377\t\t\tue\\r\\n     * @param _user User...\n      JUMPI \t\t\tue\\r\\n     * @param _user User...\n      PUSH 0\t\t\td\n      PUSH 0\t\t\tu\n      REVERT \t\t\tam _issueId \n    tag 377\t\t\tue\\r\\n     * @param _user User...\n      JUMPDEST \t\t\tue\\r\\n     * @param _user User...\n      POP \t\t\t   /**\\r\\n     * @dev Check if...\n      JUMP \t\t\t   /**\\r\\n     * @dev Check if...\n    tag 257\t\t\t */\\r\\n    function checkIfVot...\n      JUMPDEST \t\t\t */\\r\\n    function checkIfVot...\n      PUSH 0\t\t\tstrin\n      DUP2 \t\t\tturns \n      CALLDATALOAD \t\t\tublic view returns (\n      SWAP1 \t\t\tssueId) public view returns (\n      POP \t\t\tssueId) public view returns (\n      PUSH [tag] 379\t\t\t        return hasVoted[_user]...\n      DUP2 \t\t\ter][_\n      PUSH [tag] 256\t\t\t        return hasVoted[_user]...\n      JUMP \t\t\t        return hasVoted[_user]...\n    tag 379\t\t\t        return hasVoted[_user]...\n      JUMPDEST \t\t\t        return hasVoted[_user]...\n      SWAP3 \t\t\t */\\r\\n    function checkIfVot...\n      SWAP2 \t\t\t */\\r\\n    function checkIfVot...\n      POP \t\t\t */\\r\\n    function checkIfVot...\n      POP \t\t\t */\\r\\n    function checkIfVot...\n      JUMP \t\t\t */\\r\\n    function checkIfVot...\n    tag 32\t\t\t  }\\r\\n    \\r\\n    /**\\r\\n    ...\n      JUMPDEST \t\t\t  }\\r\\n    \\r\\n    /**\\r\\n    ...\n      PUSH 0\t\t\t\\n     \n      PUSH 0\t\t\t\\r\\n    \n      PUSH 40\t\t\tns\n      DUP4 \t\t\tc view re\n      DUP6 \t\t\ts() pub\n      SUB \t\t\tssues() public view ret\n      SLT \t\t\ttalIssues() public view return...\n      ISZERO \t\t\ttTotalIssues() public view ret...\n      PUSH [tag] 381\t\t\ttTotalIssues() public view ret...\n      JUMPI \t\t\ttTotalIssues() public view ret...\n      PUSH [tag] 382\t\t\tnt256) {\\r\\n        return all...\n      PUSH [tag] 236\t\t\tnt256) {\\r\\n        return all...\n      JUMP \t\t\tnt256) {\\r\\n        return all...\n    tag 382\t\t\tnt256) {\\r\\n        return all...\n      JUMPDEST \t\t\tnt256) {\\r\\n        return all...\n    tag 381\t\t\ttTotalIssues() public view ret...\n      JUMPDEST \t\t\ttTotalIssues() public view ret...\n      PUSH 0\t\t\ta\n      PUSH [tag] 383\t\t\tex\\r\\n     * @param _limit Num...\n      DUP6 \t\t\t return\n      DUP3 \t\t\tecords\n      DUP7 \t\t\tNumber of\n      ADD \t\t\tmit Number of records \n      PUSH [tag] 255\t\t\tex\\r\\n     * @param _limit Num...\n      JUMP \t\t\tex\\r\\n     * @param _limit Num...\n    tag 383\t\t\tex\\r\\n     * @param _limit Num...\n      JUMPDEST \t\t\tex\\r\\n     * @param _limit Num...\n      SWAP3 \t\t\tarting index\\r\\n     * @param ...\n      POP \t\t\tarting index\\r\\n     * @param ...\n      POP \t\t\tue IDs (paginated)\\r\\n     * @...\n      PUSH 20\t\t\tet\n      PUSH [tag] 384\t\t\t view returns (string[] memory...\n      DUP6 \t\t\tquire(_\n      DUP3 \t\t\t      \n      DUP7 \t\t\temory) {\\r\n      ADD \t\t\t[] memory) {\\r\\n        \n      PUSH [tag] 257\t\t\t view returns (string[] memory...\n      JUMP \t\t\t view returns (string[] memory...\n    tag 384\t\t\t view returns (string[] memory...\n      JUMPDEST \t\t\t view returns (string[] memory...\n      SWAP2 \t\t\tit) public view returns (strin...\n      POP \t\t\tit) public view returns (strin...\n      POP \t\t\ton getAllIssues(uint256 _offse...\n      SWAP3 \t\t\t  }\\r\\n    \\r\\n    /**\\r\\n    ...\n      POP \t\t\t  }\\r\\n    \\r\\n    /**\\r\\n    ...\n      SWAP3 \t\t\t  }\\r\\n    \\r\\n    /**\\r\\n    ...\n      SWAP1 \t\t\t  }\\r\\n    \\r\\n    /**\\r\\n    ...\n      POP \t\t\t  }\\r\\n    \\r\\n    /**\\r\\n    ...\n      JUMP \t\t\t  }\\r\\n    \\r\\n    /**\\r\\n    ...\n    tag 258\t\t\tgth, \"Offset out of bounds\");\\...\n      JUMPDEST \t\t\tgth, \"Offset out of bounds\");\\...\n      PUSH 0\t\t\tt256 e\n      DUP2 \t\t\t    i\n      MLOAD \t\t\t\\r\\n        if\n      SWAP1 \t\t\t + _limit;\\r\\n        if\n      POP \t\t\t + _limit;\\r\\n        if\n      SWAP2 \t\t\tgth, \"Offset out of bounds\");\\...\n      SWAP1 \t\t\tgth, \"Offset out of bounds\");\\...\n      POP \t\t\tgth, \"Offset out of bounds\");\\...\n      JUMP \t\t\tgth, \"Offset out of bounds\");\\...\n    tag 259\t\t\tsueIds.length) {\\r\\n          ...\n      JUMPDEST \t\t\tsueIds.length) {\\r\\n          ...\n      PUSH 0\t\t\t  string[] \n      DUP3 \t\t\ting[](\n      DUP3 \t\t\tw s\n      MSTORE \t\t\tlt = new string[](e\n      PUSH 20\t\t\t256 \n      DUP3 \t\t\t(ui\n      ADD \t\t\tfor (uint256 i\n      SWAP1 \t\t\tset);\\r\\n        for (uint256 ...\n      POP \t\t\tset);\\r\\n        for (uint256 ...\n      SWAP3 \t\t\tsueIds.length) {\\r\\n          ...\n      SWAP2 \t\t\tsueIds.length) {\\r\\n          ...\n      POP \t\t\tsueIds.length) {\\r\\n          ...\n      POP \t\t\tsueIds.length) {\\r\\n          ...\n      JUMP \t\t\tsueIds.length) {\\r\\n          ...\n    tag 260\t\t\ti < end; i++) {\\r\\n           ...\n      JUMPDEST \t\t\ti < end; i++) {\\r\\n           ...\n      DUP3 \t\t\t      \n      DUP2 \t\t\t   \n      DUP4 \t\t\t   \n      MCOPY \t\t\t   }\\r\\n        \\r\\n       \n      PUSH 0\t\t\t\n      DUP4 \t\t\t\\r\\n\n      DUP4 \t\t\t }\\r\n      ADD \t\t\t\\n    }\\r\\n}\\r\\n\n      MSTORE \t\t\tesult;\\r\\n    }\\r\\n}\\r\\n\n      POP \t\t\ti < end; i++) {\\r\\n           ...\n      POP \t\t\ti < end; i++) {\\r\\n           ...\n      POP \t\t\ti < end; i++) {\\r\\n           ...\n      JUMP \t\t\ti < end; i++) {\\r\\n           ...\n    tag 261\t\t\t\n      JUMPDEST \t\t\t\n      PUSH 0\t\t\t\n      PUSH [tag] 389\t\t\t\n      DUP3 \t\t\t\n      PUSH [tag] 258\t\t\t\n      JUMP \t\t\t\n    tag 389\t\t\t\n      JUMPDEST \t\t\t\n      PUSH [tag] 390\t\t\t\n      DUP2 \t\t\t\n      DUP6 \t\t\t\n      PUSH [tag] 259\t\t\t\n      JUMP \t\t\t\n    tag 390\t\t\t\n      JUMPDEST \t\t\t\n      SWAP4 \t\t\t\n      POP \t\t\t\n      PUSH [tag] 391\t\t\t\n      DUP2 \t\t\t\n      DUP6 \t\t\t\n      PUSH 20\t\t\t\n      DUP7 \t\t\t\n      ADD \t\t\t\n      PUSH [tag] 260\t\t\t\n      JUMP \t\t\t\n    tag 391\t\t\t\n      JUMPDEST \t\t\t\n      PUSH [tag] 392\t\t\t\n      DUP2 \t\t\t\n      PUSH [tag] 240\t\t\t\n      JUMP \t\t\t\n    tag 392\t\t\t\n      JUMPDEST \t\t\t\n      DUP5 \t\t\t\n      ADD \t\t\t\n      SWAP2 \t\t\t\n      POP \t\t\t\n      POP \t\t\t\n      SWAP3 \t\t\t\n      SWAP2 \t\t\t\n      POP \t\t\t\n      POP \t\t\t\n      JUMP \t\t\t\n    tag 35\t\t\t\n      JUMPDEST \t\t\t\n      PUSH 0\t\t\t\n      PUSH 20\t\t\t\n      DUP3 \t\t\t\n      ADD \t\t\t\n      SWAP1 \t\t\t\n      POP \t\t\t\n      DUP2 \t\t\t\n      DUP2 \t\t\t\n      SUB \t\t\t\n      PUSH 0\t\t\t\n      DUP4 \t\t\t\n      ADD \t\t\t\n      MSTORE \t\t\t\n      PUSH [tag] 394\t\t\t\n      DUP2 \t\t\t\n      DUP5 \t\t\t\n      PUSH [tag] 261\t\t\t\n      JUMP \t\t\t\n    tag 394\t\t\t\n      JUMPDEST \t\t\t\n      SWAP1 \t\t\t\n      POP \t\t\t\n      SWAP3 \t\t\t\n      SWAP2 \t\t\t\n      POP \t\t\t\n      POP \t\t\t\n      JUMP \t\t\t\n    tag 38\t\t\t\n      JUMPDEST \t\t\t\n      PUSH 0\t\t\t\n      PUSH 20\t\t\t\n      DUP3 \t\t\t\n      DUP5 \t\t\t\n      SUB \t\t\t\n      SLT \t\t\t\n      ISZERO \t\t\t\n      PUSH [tag] 396\t\t\t\n      JUMPI \t\t\t\n      PUSH [tag] 397\t\t\t\n      PUSH [tag] 236\t\t\t\n      JUMP \t\t\t\n    tag 397\t\t\t\n      JUMPDEST \t\t\t\n    tag 396\t\t\t\n      JUMPDEST \t\t\t\n      PUSH 0\t\t\t\n      PUSH [tag] 398\t\t\t\n      DUP5 \t\t\t\n      DUP3 \t\t\t\n      DUP6 \t\t\t\n      ADD \t\t\t\n      PUSH [tag] 257\t\t\t\n      JUMP \t\t\t\n    tag 398\t\t\t\n      JUMPDEST \t\t\t\n      SWAP2 \t\t\t\n      POP \t\t\t\n      POP \t\t\t\n      SWAP3 \t\t\t\n      SWAP2 \t\t\t\n      POP \t\t\t\n      POP \t\t\t\n      JUMP \t\t\t\n    tag 43\t\t\t\n      JUMPDEST \t\t\t\n      PUSH 0\t\t\t\n      PUSH 20\t\t\t\n      DUP3 \t\t\t\n      DUP5 \t\t\t\n      SUB \t\t\t\n      SLT \t\t\t\n      ISZERO \t\t\t\n      PUSH [tag] 400\t\t\t\n      JUMPI \t\t\t\n      PUSH [tag] 401\t\t\t\n      PUSH [tag] 236\t\t\t\n      JUMP \t\t\t\n    tag 401\t\t\t\n      JUMPDEST \t\t\t\n    tag 400\t\t\t\n      JUMPDEST \t\t\t\n      PUSH 0\t\t\t\n      PUSH [tag] 402\t\t\t\n      DUP5 \t\t\t\n      DUP3 \t\t\t\n      DUP6 \t\t\t\n      ADD \t\t\t\n      PUSH [tag] 255\t\t\t\n      JUMP \t\t\t\n    tag 402\t\t\t\n      JUMPDEST \t\t\t\n      SWAP2 \t\t\t\n      POP \t\t\t\n      POP \t\t\t\n      SWAP3 \t\t\t\n      SWAP2 \t\t\t\n      POP \t\t\t\n      POP \t\t\t\n      JUMP \t\t\t\n    tag 262\t\t\t\n      JUMPDEST \t\t\t\n      PUSH 0\t\t\t\n      DUP2 \t\t\t\n      MLOAD \t\t\t\n      SWAP1 \t\t\t\n      POP \t\t\t\n      SWAP2 \t\t\t\n      SWAP1 \t\t\t\n      POP \t\t\t\n      JUMP \t\t\t\n    tag 263\t\t\t\n      JUMPDEST \t\t\t\n      PUSH 0\t\t\t\n      DUP3 \t\t\t\n      DUP3 \t\t\t\n      MSTORE \t\t\t\n      PUSH 20\t\t\t\n      DUP3 \t\t\t\n      ADD \t\t\t\n      SWAP1 \t\t\t\n      POP \t\t\t\n      SWAP3 \t\t\t\n      SWAP2 \t\t\t\n      POP \t\t\t\n      POP \t\t\t\n      JUMP \t\t\t\n    tag 264\t\t\t\n      JUMPDEST \t\t\t\n      PUSH 0\t\t\t\n      DUP2 \t\t\t\n      SWAP1 \t\t\t\n      POP \t\t\t\n      PUSH 20\t\t\t\n      DUP3 \t\t\t\n      ADD \t\t\t\n      SWAP1 \t\t\t\n      POP \t\t\t\n      SWAP2 \t\t\t\n      SWAP1 \t\t\t\n      POP \t\t\t\n      JUMP \t\t\t\n    tag 265\t\t\t\n      JUMPDEST \t\t\t\n      PUSH 0\t\t\t\n      DUP3 \t\t\t\n      DUP3 \t\t\t\n      MSTORE \t\t\t\n      PUSH 20\t\t\t\n      DUP3 \t\t\t\n      ADD \t\t\t\n      SWAP1 \t\t\t\n      POP \t\t\t\n      SWAP3 \t\t\t\n      SWAP2 \t\t\t\n      POP \t\t\t\n      POP \t\t\t\n      JUMP \t\t\t\n    tag 266\t\t\t\n      JUMPDEST \t\t\t\n      PUSH 0\t\t\t\n      PUSH [tag] 408\t\t\t\n      DUP3 \t\t\t\n      PUSH [tag] 258\t\t\t\n      JUMP \t\t\t\n    tag 408\t\t\t\n      JUMPDEST \t\t\t\n      PUSH [tag] 409\t\t\t\n      DUP2 \t\t\t\n      DUP6 \t\t\t\n      PUSH [tag] 265\t\t\t\n      JUMP \t\t\t\n    tag 409\t\t\t\n      JUMPDEST \t\t\t\n      SWAP4 \t\t\t\n      POP \t\t\t\n      PUSH [tag] 410\t\t\t\n      DUP2 \t\t\t\n      DUP6 \t\t\t\n      PUSH 20\t\t\t\n      DUP7 \t\t\t\n      ADD \t\t\t\n      PUSH [tag] 260\t\t\t\n      JUMP \t\t\t\n    tag 410\t\t\t\n      JUMPDEST \t\t\t\n      PUSH [tag] 411\t\t\t\n      DUP2 \t\t\t\n      PUSH [tag] 240\t\t\t\n      JUMP \t\t\t\n    tag 411\t\t\t\n      JUMPDEST \t\t\t\n      DUP5 \t\t\t\n      ADD \t\t\t\n      SWAP2 \t\t\t\n      POP \t\t\t\n      POP \t\t\t\n      SWAP3 \t\t\t\n      SWAP2 \t\t\t\n      POP \t\t\t\n      POP \t\t\t\n      JUMP \t\t\t\n    tag 267\t\t\t\n      JUMPDEST \t\t\t\n      PUSH 0\t\t\t\n      PUSH [tag] 413\t\t\t\n      DUP4 \t\t\t\n      DUP4 \t\t\t\n      PUSH [tag] 266\t\t\t\n      JUMP \t\t\t\n    tag 413\t\t\t\n      JUMPDEST \t\t\t\n      SWAP1 \t\t\t\n      POP \t\t\t\n      SWAP3 \t\t\t\n      SWAP2 \t\t\t\n      POP \t\t\t\n      POP \t\t\t\n      JUMP \t\t\t\n    tag 268\t\t\t\n      JUMPDEST \t\t\t\n      PUSH 0\t\t\t\n      PUSH 20\t\t\t\n      DUP3 \t\t\t\n      ADD \t\t\t\n      SWAP1 \t\t\t\n      POP \t\t\t\n      SWAP2 \t\t\t\n      SWAP1 \t\t\t\n      POP \t\t\t\n      JUMP \t\t\t\n    tag 269\t\t\t\n      JUMPDEST \t\t\t\n      PUSH 0\t\t\t\n      PUSH [tag] 416\t\t\t\n      DUP3 \t\t\t\n      PUSH [tag] 262\t\t\t\n      JUMP \t\t\t\n    tag 416\t\t\t\n      JUMPDEST \t\t\t\n      PUSH [tag] 417\t\t\t\n      DUP2 \t\t\t\n      DUP6 \t\t\t\n      PUSH [tag] 263\t\t\t\n      JUMP \t\t\t\n    tag 417\t\t\t\n      JUMPDEST \t\t\t\n      SWAP4 \t\t\t\n      POP \t\t\t\n      DUP4 \t\t\t\n      PUSH 20\t\t\t\n      DUP3 \t\t\t\n      MUL \t\t\t\n      DUP6 \t\t\t\n      ADD \t\t\t\n      PUSH [tag] 418\t\t\t\n      DUP6 \t\t\t\n      PUSH [tag] 264\t\t\t\n      JUMP \t\t\t\n    tag 418\t\t\t\n      JUMPDEST \t\t\t\n      DUP1 \t\t\t\n      PUSH 0\t\t\t\n    tag 419\t\t\t\n      JUMPDEST \t\t\t\n      DUP6 \t\t\t\n      DUP2 \t\t\t\n      LT \t\t\t\n      ISZERO \t\t\t\n      PUSH [tag] 421\t\t\t\n      JUMPI \t\t\t\n      DUP5 \t\t\t\n      DUP5 \t\t\t\n      SUB \t\t\t\n      DUP10 \t\t\t\n      MSTORE \t\t\t\n      DUP2 \t\t\t\n      MLOAD \t\t\t\n      PUSH [tag] 422\t\t\t\n      DUP6 \t\t\t\n      DUP3 \t\t\t\n      PUSH [tag] 267\t\t\t\n      JUMP \t\t\t\n    tag 422\t\t\t\n      JUMPDEST \t\t\t\n      SWAP5 \t\t\t\n      POP \t\t\t\n      PUSH [tag] 423\t\t\t\n      DUP4 \t\t\t\n      PUSH [tag] 268\t\t\t\n      JUMP \t\t\t\n    tag 423\t\t\t\n      JUMPDEST \t\t\t\n      SWAP3 \t\t\t\n      POP \t\t\t\n      PUSH 20\t\t\t\n      DUP11 \t\t\t\n      ADD \t\t\t\n      SWAP10 \t\t\t\n      POP \t\t\t\n      POP \t\t\t\n      PUSH 1\t\t\t\n      DUP2 \t\t\t\n      ADD \t\t\t\n      SWAP1 \t\t\t\n      POP \t\t\t\n      PUSH [tag] 419\t\t\t\n      JUMP \t\t\t\n    tag 421\t\t\t\n      JUMPDEST \t\t\t\n      POP \t\t\t\n      DUP3 \t\t\t\n      SWAP8 \t\t\t\n      POP \t\t\t\n      DUP8 \t\t\t\n      SWAP6 \t\t\t\n      POP \t\t\t\n      POP \t\t\t\n      POP \t\t\t\n      POP \t\t\t\n      POP \t\t\t\n      POP \t\t\t\n      SWAP3 \t\t\t\n      SWAP2 \t\t\t\n      POP \t\t\t\n      POP \t\t\t\n      JUMP \t\t\t\n    tag 46\t\t\t\n      JUMPDEST \t\t\t\n      PUSH 0\t\t\t\n      PUSH 20\t\t\t\n      DUP3 \t\t\t\n      ADD \t\t\t\n      SWAP1 \t\t\t\n      POP \t\t\t\n      DUP2 \t\t\t\n      DUP2 \t\t\t\n      SUB \t\t\t\n      PUSH 0\t\t\t\n      DUP4 \t\t\t\n      ADD \t\t\t\n      MSTORE \t\t\t\n      PUSH [tag] 425\t\t\t\n      DUP2 \t\t\t\n      DUP5 \t\t\t\n      PUSH [tag] 269\t\t\t\n      JUMP \t\t\t\n    tag 425\t\t\t\n      JUMPDEST \t\t\t\n      SWAP1 \t\t\t\n      POP \t\t\t\n      SWAP3 \t\t\t\n      SWAP2 \t\t\t\n      POP \t\t\t\n      POP \t\t\t\n      JUMP \t\t\t\n    tag 49\t\t\t\n      JUMPDEST \t\t\t\n      PUSH 0\t\t\t\n      PUSH 0\t\t\t\n      PUSH 40\t\t\t\n      DUP4 \t\t\t\n      DUP6 \t\t\t\n      SUB \t\t\t\n      SLT \t\t\t\n      ISZERO \t\t\t\n      PUSH [tag] 427\t\t\t\n      JUMPI \t\t\t\n      PUSH [tag] 428\t\t\t\n      PUSH [tag] 236\t\t\t\n      JUMP \t\t\t\n    tag 428\t\t\t\n      JUMPDEST \t\t\t\n    tag 427\t\t\t\n      JUMPDEST \t\t\t\n      PUSH 0\t\t\t\n      PUSH [tag] 429\t\t\t\n      DUP6 \t\t\t\n      DUP3 \t\t\t\n      DUP7 \t\t\t\n      ADD \t\t\t\n      PUSH [tag] 255\t\t\t\n      JUMP \t\t\t\n    tag 429\t\t\t\n      JUMPDEST \t\t\t\n      SWAP3 \t\t\t\n      POP \t\t\t\n      POP \t\t\t\n      PUSH 20\t\t\t\n      DUP4 \t\t\t\n      ADD \t\t\t\n      CALLDATALOAD \t\t\t\n      PUSH FFFFFFFFFFFFFFFF\t\t\t\n      DUP2 \t\t\t\n      GT \t\t\t\n      ISZERO \t\t\t\n      PUSH [tag] 430\t\t\t\n      JUMPI \t\t\t\n      PUSH [tag] 431\t\t\t\n      PUSH [tag] 237\t\t\t\n      JUMP \t\t\t\n    tag 431\t\t\t\n      JUMPDEST \t\t\t\n    tag 430\t\t\t\n      JUMPDEST \t\t\t\n      PUSH [tag] 432\t\t\t\n      DUP6 \t\t\t\n      DUP3 \t\t\t\n      DUP7 \t\t\t\n      ADD \t\t\t\n      PUSH [tag] 246\t\t\t\n      JUMP \t\t\t\n    tag 432\t\t\t\n      JUMPDEST \t\t\t\n      SWAP2 \t\t\t\n      POP \t\t\t\n      POP \t\t\t\n      SWAP3 \t\t\t\n      POP \t\t\t\n      SWAP3 \t\t\t\n      SWAP1 \t\t\t\n      POP \t\t\t\n      JUMP \t\t\t\n    tag 270\t\t\t\n      JUMPDEST \t\t\t\n      PUSH [tag] 434\t\t\t\n      DUP2 \t\t\t\n      PUSH [tag] 247\t\t\t\n      JUMP \t\t\t\n    tag 434\t\t\t\n      JUMPDEST \t\t\t\n      DUP3 \t\t\t\n      MSTORE \t\t\t\n      POP \t\t\t\n      POP \t\t\t\n      JUMP \t\t\t\n    tag 52\t\t\t\n      JUMPDEST \t\t\t\n      PUSH 0\t\t\t\n      PUSH 20\t\t\t\n      DUP3 \t\t\t\n      ADD \t\t\t\n      SWAP1 \t\t\t\n      POP \t\t\t\n      PUSH [tag] 436\t\t\t\n      PUSH 0\t\t\t\n      DUP4 \t\t\t\n      ADD \t\t\t\n      DUP5 \t\t\t\n      PUSH [tag] 270\t\t\t\n      JUMP \t\t\t\n    tag 436\t\t\t\n      JUMPDEST \t\t\t\n      SWAP3 \t\t\t\n      SWAP2 \t\t\t\n      POP \t\t\t\n      POP \t\t\t\n      JUMP \t\t\t\n    tag 271\t\t\t\n      JUMPDEST \t\t\t\n      PUSH [tag] 438\t\t\t\n      DUP2 \t\t\t\n      PUSH [tag] 253\t\t\t\n      JUMP \t\t\t\n    tag 438\t\t\t\n      JUMPDEST \t\t\t\n      DUP3 \t\t\t\n      MSTORE \t\t\t\n      POP \t\t\t\n      POP \t\t\t\n      JUMP \t\t\t\n    tag 57\t\t\t\n      JUMPDEST \t\t\t\n      PUSH 0\t\t\t\n      PUSH C0\t\t\t\n      DUP3 \t\t\t\n      ADD \t\t\t\n      SWAP1 \t\t\t\n      POP \t\t\t\n      DUP2 \t\t\t\n      DUP2 \t\t\t\n      SUB \t\t\t\n      PUSH 0\t\t\t\n      DUP4 \t\t\t\n      ADD \t\t\t\n      MSTORE \t\t\t\n      PUSH [tag] 440\t\t\t\n      DUP2 \t\t\t\n      DUP10 \t\t\t\n      PUSH [tag] 261\t\t\t\n      JUMP \t\t\t\n    tag 440\t\t\t\n      JUMPDEST \t\t\t\n      SWAP1 \t\t\t\n      POP \t\t\t\n      DUP2 \t\t\t\n      DUP2 \t\t\t\n      SUB \t\t\t\n      PUSH 20\t\t\t\n      DUP4 \t\t\t\n      ADD \t\t\t\n      MSTORE \t\t\t\n      PUSH [tag] 441\t\t\t\n      DUP2 \t\t\t\n      DUP9 \t\t\t\n      PUSH [tag] 261\t\t\t\n      JUMP \t\t\t\n    tag 441\t\t\t\n      JUMPDEST \t\t\t\n      SWAP1 \t\t\t\n      POP \t\t\t\n      PUSH [tag] 442\t\t\t\n      PUSH 40\t\t\t\n      DUP4 \t\t\t\n      ADD \t\t\t\n      DUP8 \t\t\t\n      PUSH [tag] 271\t\t\t\n      JUMP \t\t\t\n    tag 442\t\t\t\n      JUMPDEST \t\t\t\n      PUSH [tag] 443\t\t\t\n      PUSH 60\t\t\t\n      DUP4 \t\t\t\n      ADD \t\t\t\n      DUP7 \t\t\t\n      PUSH [tag] 251\t\t\t\n      JUMP \t\t\t\n    tag 443\t\t\t\n      JUMPDEST \t\t\t\n      PUSH [tag] 444\t\t\t\n      PUSH 80\t\t\t\n      DUP4 \t\t\t\n      ADD \t\t\t\n      DUP6 \t\t\t\n      PUSH [tag] 251\t\t\t\n      JUMP \t\t\t\n    tag 444\t\t\t\n      JUMPDEST \t\t\t\n      PUSH [tag] 445\t\t\t\n      PUSH A0\t\t\t\n      DUP4 \t\t\t\n      ADD \t\t\t\n      DUP5 \t\t\t\n      PUSH [tag] 270\t\t\t\n      JUMP \t\t\t\n    tag 445\t\t\t\n      JUMPDEST \t\t\t\n      SWAP8 \t\t\t\n      SWAP7 \t\t\t\n      POP \t\t\t\n      POP \t\t\t\n      POP \t\t\t\n      POP \t\t\t\n      POP \t\t\t\n      POP \t\t\t\n      POP \t\t\t\n      JUMP \t\t\t\n    tag 60\t\t\t\n      JUMPDEST \t\t\t\n      PUSH 0\t\t\t\n      PUSH 0\t\t\t\n      PUSH 40\t\t\t\n      DUP4 \t\t\t\n      DUP6 \t\t\t\n      SUB \t\t\t\n      SLT \t\t\t\n      ISZERO \t\t\t\n      PUSH [tag] 447\t\t\t\n      JUMPI \t\t\t\n      PUSH [tag] 448\t\t\t\n      PUSH [tag] 236\t\t\t\n      JUMP \t\t\t\n    tag 448\t\t\t\n      JUMPDEST \t\t\t\n    tag 447\t\t\t\n      JUMPDEST \t\t\t\n      PUSH 0\t\t\t\n      DUP4 \t\t\t\n      ADD \t\t\t\n      CALLDATALOAD \t\t\t\n      PUSH FFFFFFFFFFFFFFFF\t\t\t\n      DUP2 \t\t\t\n      GT \t\t\t\n      ISZERO \t\t\t\n      PUSH [tag] 449\t\t\t\n      JUMPI \t\t\t\n      PUSH [tag] 450\t\t\t\n      PUSH [tag] 237\t\t\t\n      JUMP \t\t\t\n    tag 450\t\t\t\n      JUMPDEST \t\t\t\n    tag 449\t\t\t\n      JUMPDEST \t\t\t\n      PUSH [tag] 451\t\t\t\n      DUP6 \t\t\t\n      DUP3 \t\t\t\n      DUP7 \t\t\t\n      ADD \t\t\t\n      PUSH [tag] 246\t\t\t\n      JUMP \t\t\t\n    tag 451\t\t\t\n      JUMPDEST \t\t\t\n      SWAP3 \t\t\t\n      POP \t\t\t\n      POP \t\t\t\n      PUSH 20\t\t\t\n      PUSH [tag] 452\t\t\t\n      DUP6 \t\t\t\n      DUP3 \t\t\t\n      DUP7 \t\t\t\n      ADD \t\t\t\n      PUSH [tag] 257\t\t\t\n      JUMP \t\t\t\n    tag 452\t\t\t\n      JUMPDEST \t\t\t\n      SWAP2 \t\t\t\n      POP \t\t\t\n      POP \t\t\t\n      SWAP3 \t\t\t\n      POP \t\t\t\n      SWAP3 \t\t\t\n      SWAP1 \t\t\t\n      POP \t\t\t\n      JUMP \t\t\t\n    tag 63\t\t\t\n      JUMPDEST \t\t\t\n      PUSH 0\t\t\t\n      PUSH 80\t\t\t\n      DUP3 \t\t\t\n      ADD \t\t\t\n      SWAP1 \t\t\t\n      POP \t\t\t\n      PUSH [tag] 454\t\t\t\n      PUSH 0\t\t\t\n      DUP4 \t\t\t\n      ADD \t\t\t\n      DUP8 \t\t\t\n      PUSH [tag] 271\t\t\t\n      JUMP \t\t\t\n    tag 454\t\t\t\n      JUMPDEST \t\t\t\n      DUP2 \t\t\t\n      DUP2 \t\t\t\n      SUB \t\t\t\n      PUSH 20\t\t\t\n      DUP4 \t\t\t\n      ADD \t\t\t\n      MSTORE \t\t\t\n      PUSH [tag] 455\t\t\t\n      DUP2 \t\t\t\n      DUP7 \t\t\t\n      PUSH [tag] 261\t\t\t\n      JUMP \t\t\t\n    tag 455\t\t\t\n      JUMPDEST \t\t\t\n      SWAP1 \t\t\t\n      POP \t\t\t\n      PUSH [tag] 456\t\t\t\n      PUSH 40\t\t\t\n      DUP4 \t\t\t\n      ADD \t\t\t\n      DUP6 \t\t\t\n      PUSH [tag] 251\t\t\t\n      JUMP \t\t\t\n    tag 456\t\t\t\n      JUMPDEST \t\t\t\n      PUSH [tag] 457\t\t\t\n      PUSH 60\t\t\t\n      DUP4 \t\t\t\n      ADD \t\t\t\n      DUP5 \t\t\t\n      PUSH [tag] 270\t\t\t\n      JUMP \t\t\t\n    tag 457\t\t\t\n      JUMPDEST \t\t\t\n      SWAP6 \t\t\t\n      SWAP5 \t\t\t\n      POP \t\t\t\n      POP \t\t\t\n      POP \t\t\t\n      POP \t\t\t\n      POP \t\t\t\n      JUMP \t\t\t\n    tag 66\t\t\t\n      JUMPDEST \t\t\t\n      PUSH 0\t\t\t\n      PUSH 0\t\t\t\n      PUSH 40\t\t\t\n      DUP4 \t\t\t\n      DUP6 \t\t\t\n      SUB \t\t\t\n      SLT \t\t\t\n      ISZERO \t\t\t\n      PUSH [tag] 459\t\t\t\n      JUMPI \t\t\t\n      PUSH [tag] 460\t\t\t\n      PUSH [tag] 236\t\t\t\n      JUMP \t\t\t\n    tag 460\t\t\t\n      JUMPDEST \t\t\t\n    tag 459\t\t\t\n      JUMPDEST \t\t\t\n      PUSH 0\t\t\t\n      DUP4 \t\t\t\n      ADD \t\t\t\n      CALLDATALOAD \t\t\t\n      PUSH FFFFFFFFFFFFFFFF\t\t\t\n      DUP2 \t\t\t\n      GT \t\t\t\n      ISZERO \t\t\t\n      PUSH [tag] 461\t\t\t\n      JUMPI \t\t\t\n      PUSH [tag] 462\t\t\t\n      PUSH [tag] 237\t\t\t\n      JUMP \t\t\t\n    tag 462\t\t\t\n      JUMPDEST \t\t\t\n    tag 461\t\t\t\n      JUMPDEST \t\t\t\n      PUSH [tag] 463\t\t\t\n      DUP6 \t\t\t\n      DUP3 \t\t\t\n      DUP7 \t\t\t\n      ADD \t\t\t\n      PUSH [tag] 246\t\t\t\n      JUMP \t\t\t\n    tag 463\t\t\t\n      JUMPDEST \t\t\t\n      SWAP3 \t\t\t\n      POP \t\t\t\n      POP \t\t\t\n      PUSH 20\t\t\t\n      DUP4 \t\t\t\n      ADD \t\t\t\n      CALLDATALOAD \t\t\t\n      PUSH FFFFFFFFFFFFFFFF\t\t\t\n      DUP2 \t\t\t\n      GT \t\t\t\n      ISZERO \t\t\t\n      PUSH [tag] 464\t\t\t\n      JUMPI \t\t\t\n      PUSH [tag] 465\t\t\t\n      PUSH [tag] 237\t\t\t\n      JUMP \t\t\t\n    tag 465\t\t\t\n      JUMPDEST \t\t\t\n    tag 464\t\t\t\n      JUMPDEST \t\t\t\n      PUSH [tag] 466\t\t\t\n      DUP6 \t\t\t\n      DUP3 \t\t\t\n      DUP7 \t\t\t\n      ADD \t\t\t\n      PUSH [tag] 246\t\t\t\n      JUMP \t\t\t\n    tag 466\t\t\t\n      JUMPDEST \t\t\t\n      SWAP2 \t\t\t\n      POP \t\t\t\n      POP \t\t\t\n      SWAP3 \t\t\t\n      POP \t\t\t\n      SWAP3 \t\t\t\n      SWAP1 \t\t\t\n      POP \t\t\t\n      JUMP \t\t\t\n    tag 70\t\t\t\n      JUMPDEST \t\t\t\n      PUSH 0\t\t\t\n      PUSH 0\t\t\t\n      PUSH 40\t\t\t\n      DUP4 \t\t\t\n      DUP6 \t\t\t\n      SUB \t\t\t\n      SLT \t\t\t\n      ISZERO \t\t\t\n      PUSH [tag] 468\t\t\t\n      JUMPI \t\t\t\n      PUSH [tag] 469\t\t\t\n      PUSH [tag] 236\t\t\t\n      JUMP \t\t\t\n    tag 469\t\t\t\n      JUMPDEST \t\t\t\n    tag 468\t\t\t\n      JUMPDEST \t\t\t\n      PUSH 0\t\t\t\n      PUSH [tag] 470\t\t\t\n      DUP6 \t\t\t\n      DUP3 \t\t\t\n      DUP7 \t\t\t\n      ADD \t\t\t\n      PUSH [tag] 257\t\t\t\n      JUMP \t\t\t\n    tag 470\t\t\t\n      JUMPDEST \t\t\t\n      SWAP3 \t\t\t\n      POP \t\t\t\n      POP \t\t\t\n      PUSH 20\t\t\t\n      PUSH [tag] 471\t\t\t\n      DUP6 \t\t\t\n      DUP3 \t\t\t\n      DUP7 \t\t\t\n      ADD \t\t\t\n      PUSH [tag] 257\t\t\t\n      JUMP \t\t\t\n    tag 471\t\t\t\n      JUMPDEST \t\t\t\n      SWAP2 \t\t\t\n      POP \t\t\t\n      POP \t\t\t\n      SWAP3 \t\t\t\n      POP \t\t\t\n      SWAP3 \t\t\t\n      SWAP1 \t\t\t\n      POP \t\t\t\n      JUMP \t\t\t\n    tag 272\t\t\t\n      JUMPDEST \t\t\t\n      PUSH 0\t\t\t\n      DUP2 \t\t\t\n      MLOAD \t\t\t\n      SWAP1 \t\t\t\n      POP \t\t\t\n      SWAP2 \t\t\t\n      SWAP1 \t\t\t\n      POP \t\t\t\n      JUMP \t\t\t\n    tag 273\t\t\t\n      JUMPDEST \t\t\t\n      PUSH 0\t\t\t\n      DUP3 \t\t\t\n      DUP3 \t\t\t\n      MSTORE \t\t\t\n      PUSH 20\t\t\t\n      DUP3 \t\t\t\n      ADD \t\t\t\n      SWAP1 \t\t\t\n      POP \t\t\t\n      SWAP3 \t\t\t\n      SWAP2 \t\t\t\n      POP \t\t\t\n      POP \t\t\t\n      JUMP \t\t\t\n    tag 274\t\t\t\n      JUMPDEST \t\t\t\n      PUSH 0\t\t\t\n      DUP2 \t\t\t\n      SWAP1 \t\t\t\n      POP \t\t\t\n      PUSH 20\t\t\t\n      DUP3 \t\t\t\n      ADD \t\t\t\n      SWAP1 \t\t\t\n      POP \t\t\t\n      SWAP2 \t\t\t\n      SWAP1 \t\t\t\n      POP \t\t\t\n      JUMP \t\t\t\n    tag 275\t\t\t\n      JUMPDEST \t\t\t\n      PUSH [tag] 476\t\t\t\n      DUP2 \t\t\t\n      PUSH [tag] 253\t\t\t\n      JUMP \t\t\t\n    tag 476\t\t\t\n      JUMPDEST \t\t\t\n      DUP3 \t\t\t\n      MSTORE \t\t\t\n      POP \t\t\t\n      POP \t\t\t\n      JUMP \t\t\t\n    tag 276\t\t\t\n      JUMPDEST \t\t\t\n      PUSH [tag] 478\t\t\t\n      DUP2 \t\t\t\n      PUSH [tag] 250\t\t\t\n      JUMP \t\t\t\n    tag 478\t\t\t\n      JUMPDEST \t\t\t\n      DUP3 \t\t\t\n      MSTORE \t\t\t\n      POP \t\t\t\n      POP \t\t\t\n      JUMP \t\t\t\n    tag 277\t\t\t\n      JUMPDEST \t\t\t\n      PUSH [tag] 480\t\t\t\n      DUP2 \t\t\t\n      PUSH [tag] 247\t\t\t\n      JUMP \t\t\t\n    tag 480\t\t\t\n      JUMPDEST \t\t\t\n      DUP3 \t\t\t\n      MSTORE \t\t\t\n      POP \t\t\t\n      POP \t\t\t\n      JUMP \t\t\t\n    tag 278\t\t\t\n      JUMPDEST \t\t\t\n      PUSH 0\t\t\t\n      PUSH 80\t\t\t\n      DUP4 \t\t\t\n      ADD \t\t\t\n      PUSH 0\t\t\t\n      DUP4 \t\t\t\n      ADD \t\t\t\n      MLOAD \t\t\t\n      PUSH [tag] 482\t\t\t\n      PUSH 0\t\t\t\n      DUP7 \t\t\t\n      ADD \t\t\t\n      DUP3 \t\t\t\n      PUSH [tag] 275\t\t\t\n      JUMP \t\t\t\n    tag 482\t\t\t\n      JUMPDEST \t\t\t\n      POP \t\t\t\n      PUSH 20\t\t\t\n      DUP4 \t\t\t\n      ADD \t\t\t\n      MLOAD \t\t\t\n      DUP5 \t\t\t\n      DUP3 \t\t\t\n      SUB \t\t\t\n      PUSH 20\t\t\t\n      DUP7 \t\t\t\n      ADD \t\t\t\n      MSTORE \t\t\t\n      PUSH [tag] 483\t\t\t\n      DUP3 \t\t\t\n      DUP3 \t\t\t\n      PUSH [tag] 266\t\t\t\n      JUMP \t\t\t\n    tag 483\t\t\t\n      JUMPDEST \t\t\t\n      SWAP2 \t\t\t\n      POP \t\t\t\n      POP \t\t\t\n      PUSH 40\t\t\t\n      DUP4 \t\t\t\n      ADD \t\t\t\n      MLOAD \t\t\t\n      PUSH [tag] 484\t\t\t\n      PUSH 40\t\t\t\n      DUP7 \t\t\t\n      ADD \t\t\t\n      DUP3 \t\t\t\n      PUSH [tag] 276\t\t\t\n      JUMP \t\t\t\n    tag 484\t\t\t\n      JUMPDEST \t\t\t\n      POP \t\t\t\n      PUSH 60\t\t\t\n      DUP4 \t\t\t\n      ADD \t\t\t\n      MLOAD \t\t\t\n      PUSH [tag] 485\t\t\t\n      PUSH 60\t\t\t\n      DUP7 \t\t\t\n      ADD \t\t\t\n      DUP3 \t\t\t\n      PUSH [tag] 277\t\t\t\n      JUMP \t\t\t\n    tag 485\t\t\t\n      JUMPDEST \t\t\t\n      POP \t\t\t\n      DUP1 \t\t\t\n      SWAP2 \t\t\t\n      POP \t\t\t\n      POP \t\t\t\n      SWAP3 \t\t\t\n      SWAP2 \t\t\t\n      POP \t\t\t\n      POP \t\t\t\n      JUMP \t\t\t\n    tag 279\t\t\t\n      JUMPDEST \t\t\t\n      PUSH 0\t\t\t\n      PUSH [tag] 487\t\t\t\n      DUP4 \t\t\t\n      DUP4 \t\t\t\n      PUSH [tag] 278\t\t\t\n      JUMP \t\t\t\n    tag 487\t\t\t\n      JUMPDEST \t\t\t\n      SWAP1 \t\t\t\n      POP \t\t\t\n      SWAP3 \t\t\t\n      SWAP2 \t\t\t\n      POP \t\t\t\n      POP \t\t\t\n      JUMP \t\t\t\n    tag 280\t\t\t\n      JUMPDEST \t\t\t\n      PUSH 0\t\t\t\n      PUSH 20\t\t\t\n      DUP3 \t\t\t\n      ADD \t\t\t\n      SWAP1 \t\t\t\n      POP \t\t\t\n      SWAP2 \t\t\t\n      SWAP1 \t\t\t\n      POP \t\t\t\n      JUMP \t\t\t\n    tag 281\t\t\t\n      JUMPDEST \t\t\t\n      PUSH 0\t\t\t\n      PUSH [tag] 490\t\t\t\n      DUP3 \t\t\t\n      PUSH [tag] 272\t\t\t\n      JUMP \t\t\t\n    tag 490\t\t\t\n      JUMPDEST \t\t\t\n      PUSH [tag] 491\t\t\t\n      DUP2 \t\t\t\n      DUP6 \t\t\t\n      PUSH [tag] 273\t\t\t\n      JUMP \t\t\t\n    tag 491\t\t\t\n      JUMPDEST \t\t\t\n      SWAP4 \t\t\t\n      POP \t\t\t\n      DUP4 \t\t\t\n      PUSH 20\t\t\t\n      DUP3 \t\t\t\n      MUL \t\t\t\n      DUP6 \t\t\t\n      ADD \t\t\t\n      PUSH [tag] 492\t\t\t\n      DUP6 \t\t\t\n      PUSH [tag] 274\t\t\t\n      JUMP \t\t\t\n    tag 492\t\t\t\n      JUMPDEST \t\t\t\n      DUP1 \t\t\t\n      PUSH 0\t\t\t\n    tag 493\t\t\t\n      JUMPDEST \t\t\t\n      DUP6 \t\t\t\n      DUP2 \t\t\t\n      LT \t\t\t\n      ISZERO \t\t\t\n      PUSH [tag] 495\t\t\t\n      JUMPI \t\t\t\n      DUP5 \t\t\t\n      DUP5 \t\t\t\n      SUB \t\t\t\n      DUP10 \t\t\t\n      MSTORE \t\t\t\n      DUP2 \t\t\t\n      MLOAD \t\t\t\n      PUSH [tag] 496\t\t\t\n      DUP6 \t\t\t\n      DUP3 \t\t\t\n      PUSH [tag] 279\t\t\t\n      JUMP \t\t\t\n    tag 496\t\t\t\n      JUMPDEST \t\t\t\n      SWAP5 \t\t\t\n      POP \t\t\t\n      PUSH [tag] 497\t\t\t\n      DUP4 \t\t\t\n      PUSH [tag] 280\t\t\t\n      JUMP \t\t\t\n    tag 497\t\t\t\n      JUMPDEST \t\t\t\n      SWAP3 \t\t\t\n      POP \t\t\t\n      PUSH 20\t\t\t\n      DUP11 \t\t\t\n      ADD \t\t\t\n      SWAP10 \t\t\t\n      POP \t\t\t\n      POP \t\t\t\n      PUSH 1\t\t\t\n      DUP2 \t\t\t\n      ADD \t\t\t\n      SWAP1 \t\t\t\n      POP \t\t\t\n      PUSH [tag] 493\t\t\t\n      JUMP \t\t\t\n    tag 495\t\t\t\n      JUMPDEST \t\t\t\n      POP \t\t\t\n      DUP3 \t\t\t\n      SWAP8 \t\t\t\n      POP \t\t\t\n      DUP8 \t\t\t\n      SWAP6 \t\t\t\n      POP \t\t\t\n      POP \t\t\t\n      POP \t\t\t\n      POP \t\t\t\n      POP \t\t\t\n      POP \t\t\t\n      SWAP3 \t\t\t\n      SWAP2 \t\t\t\n      POP \t\t\t\n      POP \t\t\t\n      JUMP \t\t\t\n    tag 88\t\t\t\n      JUMPDEST \t\t\t\n      PUSH 0\t\t\t\n      PUSH 20\t\t\t\n      DUP3 \t\t\t\n      ADD \t\t\t\n      SWAP1 \t\t\t\n      POP \t\t\t\n      DUP2 \t\t\t\n      DUP2 \t\t\t\n      SUB \t\t\t\n      PUSH 0\t\t\t\n      DUP4 \t\t\t\n      ADD \t\t\t\n      MSTORE \t\t\t\n      PUSH [tag] 499\t\t\t\n      DUP2 \t\t\t\n      DUP5 \t\t\t\n      PUSH [tag] 281\t\t\t\n      JUMP \t\t\t\n    tag 499\t\t\t\n      JUMPDEST \t\t\t\n      SWAP1 \t\t\t\n      POP \t\t\t\n      SWAP3 \t\t\t\n      SWAP2 \t\t\t\n      POP \t\t\t\n      POP \t\t\t\n      JUMP \t\t\t\n    tag 282\t\t\t\n      JUMPDEST \t\t\t\n      PUSH 0\t\t\t\n      DUP2 \t\t\t\n      SWAP1 \t\t\t\n      POP \t\t\t\n      SWAP3 \t\t\t\n      SWAP2 \t\t\t\n      POP \t\t\t\n      POP \t\t\t\n      JUMP \t\t\t\n    tag 283\t\t\t\n      JUMPDEST \t\t\t\n      PUSH 0\t\t\t\n      PUSH [tag] 502\t\t\t\n      DUP3 \t\t\t\n      PUSH [tag] 258\t\t\t\n      JUMP \t\t\t\n    tag 502\t\t\t\n      JUMPDEST \t\t\t\n      PUSH [tag] 503\t\t\t\n      DUP2 \t\t\t\n      DUP6 \t\t\t\n      PUSH [tag] 282\t\t\t\n      JUMP \t\t\t\n    tag 503\t\t\t\n      JUMPDEST \t\t\t\n      SWAP4 \t\t\t\n      POP \t\t\t\n      PUSH [tag] 504\t\t\t\n      DUP2 \t\t\t\n      DUP6 \t\t\t\n      PUSH 20\t\t\t\n      DUP7 \t\t\t\n      ADD \t\t\t\n      PUSH [tag] 260\t\t\t\n      JUMP \t\t\t\n    tag 504\t\t\t\n      JUMPDEST \t\t\t\n      DUP1 \t\t\t\n      DUP5 \t\t\t\n      ADD \t\t\t\n      SWAP2 \t\t\t\n      POP \t\t\t\n      POP \t\t\t\n      SWAP3 \t\t\t\n      SWAP2 \t\t\t\n      POP \t\t\t\n      POP \t\t\t\n      JUMP \t\t\t\n    tag 91\t\t\t\n      JUMPDEST \t\t\t\n      PUSH 0\t\t\t\n      PUSH [tag] 506\t\t\t\n      DUP3 \t\t\t\n      DUP5 \t\t\t\n      PUSH [tag] 283\t\t\t\n      JUMP \t\t\t\n    tag 506\t\t\t\n      JUMPDEST \t\t\t\n      SWAP2 \t\t\t\n      POP \t\t\t\n      DUP2 \t\t\t\n      SWAP1 \t\t\t\n      POP \t\t\t\n      SWAP3 \t\t\t\n      SWAP2 \t\t\t\n      POP \t\t\t\n      POP \t\t\t\n      JUMP \t\t\t\n    tag 284\t\t\t\n      JUMPDEST \t\t\t\n      PUSH 497373756520646F6573206E6F74206578697374000000000000000000000000\t\t\t\n      PUSH 0\t\t\t\n      DUP3 \t\t\t\n      ADD \t\t\t\n      MSTORE \t\t\t\n      POP \t\t\t\n      JUMP \t\t\t\n    tag 285\t\t\t\n      JUMPDEST \t\t\t\n      PUSH 0\t\t\t\n      PUSH [tag] 509\t\t\t\n      PUSH 14\t\t\t\n      DUP4 \t\t\t\n      PUSH [tag] 259\t\t\t\n      JUMP \t\t\t\n    tag 509\t\t\t\n      JUMPDEST \t\t\t\n      SWAP2 \t\t\t\n      POP \t\t\t\n      PUSH [tag] 510\t\t\t\n      DUP3 \t\t\t\n      PUSH [tag] 284\t\t\t\n      JUMP \t\t\t\n    tag 510\t\t\t\n      JUMPDEST \t\t\t\n      PUSH 20\t\t\t\n      DUP3 \t\t\t\n      ADD \t\t\t\n      SWAP1 \t\t\t\n      POP \t\t\t\n      SWAP2 \t\t\t\n      SWAP1 \t\t\t\n      POP \t\t\t\n      JUMP \t\t\t\n    tag 94\t\t\t\n      JUMPDEST \t\t\t\n      PUSH 0\t\t\t\n      PUSH 20\t\t\t\n      DUP3 \t\t\t\n      ADD \t\t\t\n      SWAP1 \t\t\t\n      POP \t\t\t\n      DUP2 \t\t\t\n      DUP2 \t\t\t\n      SUB \t\t\t\n      PUSH 0\t\t\t\n      DUP4 \t\t\t\n      ADD \t\t\t\n      MSTORE \t\t\t\n      PUSH [tag] 512\t\t\t\n      DUP2 \t\t\t\n      PUSH [tag] 285\t\t\t\n      JUMP \t\t\t\n    tag 512\t\t\t\n      JUMPDEST \t\t\t\n      SWAP1 \t\t\t\n      POP \t\t\t\n      SWAP2 \t\t\t\n      SWAP1 \t\t\t\n      POP \t\t\t\n      JUMP \t\t\t\n    tag 286\t\t\t\n      JUMPDEST \t\t\t\n      PUSH 416C726561647920766F746564206F6E20746869732069737375650000000000\t\t\t\n      PUSH 0\t\t\t\n      DUP3 \t\t\t\n      ADD \t\t\t\n      MSTORE \t\t\t\n      POP \t\t\t\n      JUMP \t\t\t\n    tag 287\t\t\t\n      JUMPDEST \t\t\t\n      PUSH 0\t\t\t\n      PUSH [tag] 515\t\t\t\n      PUSH 1B\t\t\t\n      DUP4 \t\t\t\n      PUSH [tag] 259\t\t\t\n      JUMP \t\t\t\n    tag 515\t\t\t\n      JUMPDEST \t\t\t\n      SWAP2 \t\t\t\n      POP \t\t\t\n      PUSH [tag] 516\t\t\t\n      DUP3 \t\t\t\n      PUSH [tag] 286\t\t\t\n      JUMP \t\t\t\n    tag 516\t\t\t\n      JUMPDEST \t\t\t\n      PUSH 20\t\t\t\n      DUP3 \t\t\t\n      ADD \t\t\t\n      SWAP1 \t\t\t\n      POP \t\t\t\n      SWAP2 \t\t\t\n      SWAP1 \t\t\t\n      POP \t\t\t\n      JUMP \t\t\t\n    tag 98\t\t\t\n      JUMPDEST \t\t\t\n      PUSH 0\t\t\t\n      PUSH 20\t\t\t\n      DUP3 \t\t\t\n      ADD \t\t\t\n      SWAP1 \t\t\t\n      POP \t\t\t\n      DUP2 \t\t\t\n      DUP2 \t\t\t\n      SUB \t\t\t\n      PUSH 0\t\t\t\n      DUP4 \t\t\t\n      ADD \t\t\t\n      MSTORE \t\t\t\n      PUSH [tag] 518\t\t\t\n      DUP2 \t\t\t\n      PUSH [tag] 287\t\t\t\n      JUMP \t\t\t\n    tag 518\t\t\t\n      JUMPDEST \t\t\t\n      SWAP1 \t\t\t\n      POP \t\t\t\n      SWAP2 \t\t\t\n      SWAP1 \t\t\t\n      POP \t\t\t\n      JUMP \t\t\t\n    tag 288\t\t\t\n      JUMPDEST \t\t\t\n      PUSH 4E487B7100000000000000000000000000000000000000000000000000000000\t\t\t\n      PUSH 0\t\t\t\n      MSTORE \t\t\t\n      PUSH 22\t\t\t\n      PUSH 4\t\t\t\n      MSTORE \t\t\t\n      PUSH 24\t\t\t\n      PUSH 0\t\t\t\n      REVERT \t\t\t\n    tag 119\t\t\t\n      JUMPDEST \t\t\t\n      PUSH 0\t\t\t\n      PUSH 2\t\t\t\n      DUP3 \t\t\t\n      DIV \t\t\t\n      SWAP1 \t\t\t\n      POP \t\t\t\n      PUSH 1\t\t\t\n      DUP3 \t\t\t\n      AND \t\t\t\n      DUP1 \t\t\t\n      PUSH [tag] 521\t\t\t\n      JUMPI \t\t\t\n      PUSH 7F\t\t\t\n      DUP3 \t\t\t\n      AND \t\t\t\n      SWAP2 \t\t\t\n      POP \t\t\t\n    tag 521\t\t\t\n      JUMPDEST \t\t\t\n      PUSH 20\t\t\t\n      DUP3 \t\t\t\n      LT \t\t\t\n      DUP2 \t\t\t\n      SUB \t\t\t\n      PUSH [tag] 522\t\t\t\n      JUMPI \t\t\t\n      PUSH [tag] 523\t\t\t\n      PUSH [tag] 288\t\t\t\n      JUMP \t\t\t\n    tag 523\t\t\t\n      JUMPDEST \t\t\t\n    tag 522\t\t\t\n      JUMPDEST \t\t\t\n      POP \t\t\t\n      SWAP2 \t\t\t\n      SWAP1 \t\t\t\n      POP \t\t\t\n      JUMP \t\t\t\n    tag 289\t\t\t\n      JUMPDEST \t\t\t\n      PUSH 0\t\t\t\n      DUP2 \t\t\t\n      SWAP1 \t\t\t\n      POP \t\t\t\n      DUP2 \t\t\t\n      PUSH 0\t\t\t\n      MSTORE \t\t\t\n      PUSH 20\t\t\t\n      PUSH 0\t\t\t\n      KECCAK256 \t\t\t\n      SWAP1 \t\t\t\n      POP \t\t\t\n      SWAP2 \t\t\t\n      SWAP1 \t\t\t\n      POP \t\t\t\n      JUMP \t\t\t\n    tag 290\t\t\t\n      JUMPDEST \t\t\t\n      PUSH 0\t\t\t\n      PUSH 20\t\t\t\n      PUSH 1F\t\t\t\n      DUP4 \t\t\t\n      ADD \t\t\t\n      DIV \t\t\t\n      SWAP1 \t\t\t\n      POP \t\t\t\n      SWAP2 \t\t\t\n      SWAP1 \t\t\t\n      POP \t\t\t\n      JUMP \t\t\t\n    tag 291\t\t\t\n      JUMPDEST \t\t\t\n      PUSH 0\t\t\t\n      DUP3 \t\t\t\n      DUP3 \t\t\t\n      SHL \t\t\t\n      SWAP1 \t\t\t\n      POP \t\t\t\n      SWAP3 \t\t\t\n      SWAP2 \t\t\t\n      POP \t\t\t\n      POP \t\t\t\n      JUMP \t\t\t\n    tag 292\t\t\t\n      JUMPDEST \t\t\t\n      PUSH 0\t\t\t\n      PUSH 8\t\t\t\n      DUP4 \t\t\t\n      MUL \t\t\t\n      PUSH [tag] 528\t\t\t\n      PUSH FFFFFFFFFFFFFFFFFFFFFFFFFFFFFFFFFFFFFFFFFFFFFFFFFFFFFFFFFFFFFFFF\t\t\t\n      DUP3 \t\t\t\n      PUSH [tag] 291\t\t\t\n      JUMP \t\t\t\n    tag 528\t\t\t\n      JUMPDEST \t\t\t\n      PUSH [tag] 529\t\t\t\n      DUP7 \t\t\t\n      DUP4 \t\t\t\n      PUSH [tag] 291\t\t\t\n      JUMP \t\t\t\n    tag 529\t\t\t\n      JUMPDEST \t\t\t\n      SWAP6 \t\t\t\n      POP \t\t\t\n      DUP1 \t\t\t\n      NOT \t\t\t\n      DUP5 \t\t\t\n      AND \t\t\t\n      SWAP4 \t\t\t\n      POP \t\t\t\n      DUP1 \t\t\t\n      DUP7 \t\t\t\n      AND \t\t\t\n      DUP5 \t\t\t\n      OR \t\t\t\n      SWAP3 \t\t\t\n      POP \t\t\t\n      POP \t\t\t\n      POP \t\t\t\n      SWAP4 \t\t\t\n      SWAP3 \t\t\t\n      POP \t\t\t\n      POP \t\t\t\n      POP \t\t\t\n      JUMP \t\t\t\n    tag 293\t\t\t\n      JUMPDEST \t\t\t\n      PUSH 0\t\t\t\n      DUP2 \t\t\t\n      SWAP1 \t\t\t\n      POP \t\t\t\n      SWAP2 \t\t\t\n      SWAP1 \t\t\t\n      POP \t\t\t\n      JUMP \t\t\t\n    tag 294\t\t\t\n      JUMPDEST \t\t\t\n      PUSH 0\t\t\t\n      PUSH [tag] 532\t\t\t\n      PUSH [tag] 533\t\t\t\n      PUSH [tag] 534\t\t\t\n      DUP5 \t\t\t\n      PUSH [tag] 250\t\t\t\n      JUMP \t\t\t\n    tag 534\t\t\t\n      JUMPDEST \t\t\t\n      PUSH [tag] 293\t\t\t\n      JUMP \t\t\t\n    tag 533\t\t\t\n      JUMPDEST \t\t\t\n      PUSH [tag] 250\t\t\t\n      JUMP \t\t\t\n    tag 532\t\t\t\n      JUMPDEST \t\t\t\n      SWAP1 \t\t\t\n      POP \t\t\t\n      SWAP2 \t\t\t\n      SWAP1 \t\t\t\n      POP \t\t\t\n      JUMP \t\t\t\n    tag 295\t\t\t\n      JUMPDEST \t\t\t\n      PUSH 0\t\t\t\n      DUP2 \t\t\t\n      SWAP1 \t\t\t\n      POP \t\t\t\n      SWAP2 \t\t\t\n      SWAP1 \t\t\t\n      POP \t\t\t\n      JUMP \t\t\t\n    tag 296\t\t\t\n      JUMPDEST \t\t\t\n      PUSH [tag] 537\t\t\t\n      DUP4 \t\t\t\n      PUSH [tag] 294\t\t\t\n      JUMP \t\t\t\n    tag 537\t\t\t\n      JUMPDEST \t\t\t\n      PUSH [tag] 538\t\t\t\n      PUSH [tag] 539\t\t\t\n      DUP3 \t\t\t\n      PUSH [tag] 295\t\t\t\n      JUMP \t\t\t\n    tag 539\t\t\t\n      JUMPDEST \t\t\t\n      DUP5 \t\t\t\n      DUP5 \t\t\t\n      SLOAD \t\t\t\n      PUSH [tag] 292\t\t\t\n      JUMP \t\t\t\n    tag 538\t\t\t\n      JUMPDEST \t\t\t\n      DUP3 \t\t\t\n      SSTORE \t\t\t\n      POP \t\t\t\n      POP \t\t\t\n      POP \t\t\t\n      POP \t\t\t\n      JUMP \t\t\t\n    tag 297\t\t\t\n      JUMPDEST \t\t\t\n      PUSH 0\t\t\t\n      PUSH 0\t\t\t\n      SWAP1 \t\t\t\n      POP \t\t\t\n      SWAP1 \t\t\t\n      JUMP \t\t\t\n    tag 298\t\t\t\n      JUMPDEST \t\t\t\n      PUSH [tag] 542\t\t\t\n      PUSH [tag] 297\t\t\t\n      JUMP \t\t\t\n    tag 542\t\t\t\n      JUMPDEST \t\t\t\n      PUSH [tag] 543\t\t\t\n      DUP2 \t\t\t\n      DUP5 \t\t\t\n      DUP5 \t\t\t\n      PUSH [tag] 296\t\t\t\n      JUMP \t\t\t\n    tag 543\t\t\t\n      JUMPDEST \t\t\t\n      POP \t\t\t\n      POP \t\t\t\n      POP \t\t\t\n      JUMP \t\t\t\n    tag 299\t\t\t\n      JUMPDEST \t\t\t\n    tag 545\t\t\t\n      JUMPDEST \t\t\t\n      DUP2 \t\t\t\n      DUP2 \t\t\t\n      LT \t\t\t\n      ISZERO \t\t\t\n      PUSH [tag] 547\t\t\t\n      JUMPI \t\t\t\n      PUSH [tag] 548\t\t\t\n      PUSH 0\t\t\t\n      DUP3 \t\t\t\n      PUSH [tag] 298\t\t\t\n      JUMP \t\t\t\n    tag 548\t\t\t\n      JUMPDEST \t\t\t\n      PUSH 1\t\t\t\n      DUP2 \t\t\t\n      ADD \t\t\t\n      SWAP1 \t\t\t\n      POP \t\t\t\n      PUSH [tag] 545\t\t\t\n      JUMP \t\t\t\n    tag 547\t\t\t\n      JUMPDEST \t\t\t\n      POP \t\t\t\n      POP \t\t\t\n      JUMP \t\t\t\n    tag 300\t\t\t\n      JUMPDEST \t\t\t\n      PUSH 1F\t\t\t\n      DUP3 \t\t\t\n      GT \t\t\t\n      ISZERO \t\t\t\n      PUSH [tag] 550\t\t\t\n      JUMPI \t\t\t\n      PUSH [tag] 551\t\t\t\n      DUP2 \t\t\t\n      PUSH [tag] 289\t\t\t\n      JUMP \t\t\t\n    tag 551\t\t\t\n      JUMPDEST \t\t\t\n      PUSH [tag] 552\t\t\t\n      DUP5 \t\t\t\n      PUSH [tag] 290\t\t\t\n      JUMP \t\t\t\n    tag 552\t\t\t\n      JUMPDEST \t\t\t\n      DUP2 \t\t\t\n      ADD \t\t\t\n      PUSH 20\t\t\t\n      DUP6 \t\t\t\n      LT \t\t\t\n      ISZERO \t\t\t\n      PUSH [tag] 553\t\t\t\n      JUMPI \t\t\t\n      DUP2 \t\t\t\n      SWAP1 \t\t\t\n      POP \t\t\t\n    tag 553\t\t\t\n      JUMPDEST \t\t\t\n      PUSH [tag] 554\t\t\t\n      PUSH [tag] 555\t\t\t\n      DUP6 \t\t\t\n      PUSH [tag] 290\t\t\t\n      JUMP \t\t\t\n    tag 555\t\t\t\n      JUMPDEST \t\t\t\n      DUP4 \t\t\t\n      ADD \t\t\t\n      DUP3 \t\t\t\n      PUSH [tag] 299\t\t\t\n      JUMP \t\t\t\n    tag 554\t\t\t\n      JUMPDEST \t\t\t\n      POP \t\t\t\n      POP \t\t\t\n    tag 550\t\t\t\n      JUMPDEST \t\t\t\n      POP \t\t\t\n      POP \t\t\t\n      POP \t\t\t\n      JUMP \t\t\t\n    tag 301\t\t\t\n      JUMPDEST \t\t\t\n      PUSH 0\t\t\t\n      DUP3 \t\t\t\n      DUP3 \t\t\t\n      SHR \t\t\t\n      SWAP1 \t\t\t\n      POP \t\t\t\n      SWAP3 \t\t\t\n      SWAP2 \t\t\t\n      POP \t\t\t\n      POP \t\t\t\n      JUMP \t\t\t\n    tag 302\t\t\t\n      JUMPDEST \t\t\t\n      PUSH 0\t\t\t\n      PUSH [tag] 558\t\t\t\n      PUSH 0\t\t\t\n      NOT \t\t\t\n      DUP5 \t\t\t\n      PUSH 8\t\t\t\n      MUL \t\t\t\n      PUSH [tag] 301\t\t\t\n      JUMP \t\t\t\n    tag 558\t\t\t\n      JUMPDEST \t\t\t\n      NOT \t\t\t\n      DUP1 \t\t\t\n      DUP4 \t\t\t\n      AND \t\t\t\n      SWAP2 \t\t\t\n      POP \t\t\t\n      POP \t\t\t\n      SWAP3 \t\t\t\n      SWAP2 \t\t\t\n      POP \t\t\t\n      POP \t\t\t\n      JUMP \t\t\t\n    tag 303\t\t\t\n      JUMPDEST \t\t\t\n      PUSH 0\t\t\t\n      PUSH [tag] 560\t\t\t\n      DUP4 \t\t\t\n      DUP4 \t\t\t\n      PUSH [tag] 302\t\t\t\n      JUMP \t\t\t\n    tag 560\t\t\t\n      JUMPDEST \t\t\t\n      SWAP2 \t\t\t\n      POP \t\t\t\n      DUP3 \t\t\t\n      PUSH 2\t\t\t\n      MUL \t\t\t\n      DUP3 \t\t\t\n      OR \t\t\t\n      SWAP1 \t\t\t\n      POP \t\t\t\n      SWAP3 \t\t\t\n      SWAP2 \t\t\t\n      POP \t\t\t\n      POP \t\t\t\n      JUMP \t\t\t\n    tag 102\t\t\t\n      JUMPDEST \t\t\t\n      PUSH [tag] 562\t\t\t\n      DUP3 \t\t\t\n      PUSH [tag] 258\t\t\t\n      JUMP \t\t\t\n    tag 562\t\t\t\n      JUMPDEST \t\t\t\n      PUSH FFFFFFFFFFFFFFFF\t\t\t\n      DUP2 \t\t\t\n      GT \t\t\t\n      ISZERO \t\t\t\n      PUSH [tag] 563\t\t\t\n      JUMPI \t\t\t\n      PUSH [tag] 564\t\t\t\n      PUSH [tag] 193\t\t\t\n      JUMP \t\t\t\n    tag 564\t\t\t\n      JUMPDEST \t\t\t\n    tag 563\t\t\t\n      JUMPDEST \t\t\t\n      PUSH [tag] 565\t\t\t\n      DUP3 \t\t\t\n      SLOAD \t\t\t\n      PUSH [tag] 119\t\t\t\n      JUMP \t\t\t\n    tag 565\t\t\t\n      JUMPDEST \t\t\t\n      PUSH [tag] 566\t\t\t\n      DUP3 \t\t\t\n      DUP3 \t\t\t\n      DUP6 \t\t\t\n      PUSH [tag] 300\t\t\t\n      JUMP \t\t\t\n    tag 566\t\t\t\n      JUMPDEST \t\t\t\n      PUSH 0\t\t\t\n      PUSH 20\t\t\t\n      SWAP1 \t\t\t\n      POP \t\t\t\n      PUSH 1F\t\t\t\n      DUP4 \t\t\t\n      GT \t\t\t\n      PUSH 1\t\t\t\n      DUP2 \t\t\t\n      EQ \t\t\t\n      PUSH [tag] 568\t\t\t\n      JUMPI \t\t\t\n      PUSH 0\t\t\t\n      DUP5 \t\t\t\n      ISZERO \t\t\t\n      PUSH [tag] 569\t\t\t\n      JUMPI \t\t\t\n      DUP3 \t\t\t\n      DUP8 \t\t\t\n      ADD \t\t\t\n      MLOAD \t\t\t\n      SWAP1 \t\t\t\n      POP \t\t\t\n    tag 569\t\t\t\n      JUMPDEST \t\t\t\n      PUSH [tag] 570\t\t\t\n      DUP6 \t\t\t\n      DUP3 \t\t\t\n      PUSH [tag] 303\t\t\t\n      JUMP \t\t\t\n    tag 570\t\t\t\n      JUMPDEST \t\t\t\n      DUP7 \t\t\t\n      SSTORE \t\t\t\n      POP \t\t\t\n      PUSH [tag] 567\t\t\t\n      JUMP \t\t\t\n    tag 568\t\t\t\n      JUMPDEST \t\t\t\n      PUSH 1F\t\t\t\n      NOT \t\t\t\n      DUP5 \t\t\t\n      AND \t\t\t\n      PUSH [tag] 571\t\t\t\n      DUP7 \t\t\t\n      PUSH [tag] 289\t\t\t\n      JUMP \t\t\t\n    tag 571\t\t\t\n      JUMPDEST \t\t\t\n      PUSH 0\t\t\t\n    tag 572\t\t\t\n      JUMPDEST \t\t\t\n      DUP3 \t\t\t\n      DUP2 \t\t\t\n      LT \t\t\t\n      ISZERO \t\t\t\n      PUSH [tag] 574\t\t\t\n      JUMPI \t\t\t\n      DUP5 \t\t\t\n      DUP10 \t\t\t\n      ADD \t\t\t\n      MLOAD \t\t\t\n      DUP3 \t\t\t\n      SSTORE \t\t\t\n      PUSH 1\t\t\t\n      DUP3 \t\t\t\n      ADD \t\t\t\n      SWAP2 \t\t\t\n      POP \t\t\t\n      PUSH 20\t\t\t\n      DUP6 \t\t\t\n      ADD \t\t\t\n      SWAP5 \t\t\t\n      POP \t\t\t\n      PUSH 20\t\t\t\n      DUP2 \t\t\t\n      ADD \t\t\t\n      SWAP1 \t\t\t\n      POP \t\t\t\n      PUSH [tag] 572\t\t\t\n      JUMP \t\t\t\n    tag 574\t\t\t\n      JUMPDEST \t\t\t\n      DUP7 \t\t\t\n      DUP4 \t\t\t\n      LT \t\t\t\n      ISZERO \t\t\t\n      PUSH [tag] 575\t\t\t\n      JUMPI \t\t\t\n      DUP5 \t\t\t\n      DUP10 \t\t\t\n      ADD \t\t\t\n      MLOAD \t\t\t\n      PUSH [tag] 576\t\t\t\n      PUSH 1F\t\t\t\n      DUP10 \t\t\t\n      AND \t\t\t\n      DUP3 \t\t\t\n      PUSH [tag] 302\t\t\t\n      JUMP \t\t\t\n    tag 576\t\t\t\n      JUMPDEST \t\t\t\n      DUP4 \t\t\t\n      SSTORE \t\t\t\n      POP \t\t\t\n    tag 575\t\t\t\n      JUMPDEST \t\t\t\n      PUSH 1\t\t\t\n      PUSH 2\t\t\t\n      DUP9 \t\t\t\n      MUL \t\t\t\n      ADD \t\t\t\n      DUP9 \t\t\t\n      SSTORE \t\t\t\n      POP \t\t\t\n      POP \t\t\t\n      POP \t\t\t\n    tag 567\t\t\t\n      JUMPDEST \t\t\t\n      POP \t\t\t\n      POP \t\t\t\n      POP \t\t\t\n      POP \t\t\t\n      POP \t\t\t\n      POP \t\t\t\n      JUMP \t\t\t\n    tag 304\t\t\t\n      JUMPDEST \t\t\t\n      PUSH 4E487B7100000000000000000000000000000000000000000000000000000000\t\t\t\n      PUSH 0\t\t\t\n      MSTORE \t\t\t\n      PUSH 11\t\t\t\n      PUSH 4\t\t\t\n      MSTORE \t\t\t\n      PUSH 24\t\t\t\n      PUSH 0\t\t\t\n      REVERT \t\t\t\n    tag 107\t\t\t\n      JUMPDEST \t\t\t\n      PUSH 0\t\t\t\n      PUSH [tag] 579\t\t\t\n      DUP3 \t\t\t\n      PUSH [tag] 250\t\t\t\n      JUMP \t\t\t\n    tag 579\t\t\t\n      JUMPDEST \t\t\t\n      SWAP2 \t\t\t\n      POP \t\t\t\n      PUSH FFFFFFFFFFFFFFFFFFFFFFFFFFFFFFFFFFFFFFFFFFFFFFFFFFFFFFFFFFFFFFFF\t\t\t\n      DUP3 \t\t\t\n      SUB \t\t\t\n      PUSH [tag] 580\t\t\t\n      JUMPI \t\t\t\n      PUSH [tag] 581\t\t\t\n      PUSH [tag] 304\t\t\t\n      JUMP \t\t\t\n    tag 581\t\t\t\n      JUMPDEST \t\t\t\n    tag 580\t\t\t\n      JUMPDEST \t\t\t\n      PUSH 1\t\t\t\n      DUP3 \t\t\t\n      ADD \t\t\t\n      SWAP1 \t\t\t\n      POP \t\t\t\n      SWAP2 \t\t\t\n      SWAP1 \t\t\t\n      POP \t\t\t\n      JUMP \t\t\t\n    tag 110\t\t\t\n      JUMPDEST \t\t\t\n      PUSH 0\t\t\t\n      PUSH 40\t\t\t\n      DUP3 \t\t\t\n      ADD \t\t\t\n      SWAP1 \t\t\t\n      POP \t\t\t\n      PUSH [tag] 583\t\t\t\n      PUSH 0\t\t\t\n      DUP4 \t\t\t\n      ADD \t\t\t\n      DUP6 \t\t\t\n      PUSH [tag] 270\t\t\t\n      JUMP \t\t\t\n    tag 583\t\t\t\n      JUMPDEST \t\t\t\n      PUSH [tag] 584\t\t\t\n      PUSH 20\t\t\t\n      DUP4 \t\t\t\n      ADD \t\t\t\n      DUP5 \t\t\t\n      PUSH [tag] 251\t\t\t\n      JUMP \t\t\t\n    tag 584\t\t\t\n      JUMPDEST \t\t\t\n      SWAP4 \t\t\t\n      SWAP3 \t\t\t\n      POP \t\t\t\n      POP \t\t\t\n      POP \t\t\t\n      JUMP \t\t\t\n    tag 305\t\t\t\n      JUMPDEST \t\t\t\n      PUSH 49737375652049442063616E6E6F7420626520656D7074790000000000000000\t\t\t\n      PUSH 0\t\t\t\n      DUP3 \t\t\t\n      ADD \t\t\t\n      MSTORE \t\t\t\n      POP \t\t\t\n      JUMP \t\t\t\n    tag 306\t\t\t\n      JUMPDEST \t\t\t\n      PUSH 0\t\t\t\n      PUSH [tag] 587\t\t\t\n      PUSH 18\t\t\t\n      DUP4 \t\t\t\n      PUSH [tag] 259\t\t\t\n      JUMP \t\t\t\n    tag 587\t\t\t\n      JUMPDEST \t\t\t\n      SWAP2 \t\t\t\n      POP \t\t\t\n      PUSH [tag] 588\t\t\t\n      DUP3 \t\t\t\n      PUSH [tag] 305\t\t\t\n      JUMP \t\t\t\n    tag 588\t\t\t\n      JUMPDEST \t\t\t\n      PUSH 20\t\t\t\n      DUP3 \t\t\t\n      ADD \t\t\t\n      SWAP1 \t\t\t\n      POP \t\t\t\n      SWAP2 \t\t\t\n      SWAP1 \t\t\t\n      POP \t\t\t\n      JUMP \t\t\t\n    tag 164\t\t\t\n      JUMPDEST \t\t\t\n      PUSH 0\t\t\t\n      PUSH 20\t\t\t\n      DUP3 \t\t\t\n      ADD \t\t\t\n      SWAP1 \t\t\t\n      POP \t\t\t\n      DUP2 \t\t\t\n      DUP2 \t\t\t\n      SUB \t\t\t\n      PUSH 0\t\t\t\n      DUP4 \t\t\t\n      ADD \t\t\t\n      MSTORE \t\t\t\n      PUSH [tag] 590\t\t\t\n      DUP2 \t\t\t\n      PUSH [tag] 306\t\t\t\n      JUMP \t\t\t\n    tag 590\t\t\t\n      JUMPDEST \t\t\t\n      SWAP1 \t\t\t\n      POP \t\t\t\n      SWAP2 \t\t\t\n      SWAP1 \t\t\t\n      POP \t\t\t\n      JUMP \t\t\t\n    tag 307\t\t\t\n      JUMPDEST \t\t\t\n      PUSH 5469746C652063616E6E6F7420626520656D7074790000000000000000000000\t\t\t\n      PUSH 0\t\t\t\n      DUP3 \t\t\t\n      ADD \t\t\t\n      MSTORE \t\t\t\n      POP \t\t\t\n      JUMP \t\t\t\n    tag 308\t\t\t\n      JUMPDEST \t\t\t\n      PUSH 0\t\t\t\n      PUSH [tag] 593\t\t\t\n      PUSH 15\t\t\t\n      DUP4 \t\t\t\n      PUSH [tag] 259\t\t\t\n      JUMP \t\t\t\n    tag 593\t\t\t\n      JUMPDEST \t\t\t\n      SWAP2 \t\t\t\n      POP \t\t\t\n      PUSH [tag] 594\t\t\t\n      DUP3 \t\t\t\n      PUSH [tag] 307\t\t\t\n      JUMP \t\t\t\n    tag 594\t\t\t\n      JUMPDEST \t\t\t\n      PUSH 20\t\t\t\n      DUP3 \t\t\t\n      ADD \t\t\t\n      SWAP1 \t\t\t\n      POP \t\t\t\n      SWAP2 \t\t\t\n      SWAP1 \t\t\t\n      POP \t\t\t\n      JUMP \t\t\t\n    tag 167\t\t\t\n      JUMPDEST \t\t\t\n      PUSH 0\t\t\t\n      PUSH 20\t\t\t\n      DUP3 \t\t\t\n      ADD \t\t\t\n      SWAP1 \t\t\t\n      POP \t\t\t\n      DUP2 \t\t\t\n      DUP2 \t\t\t\n      SUB \t\t\t\n      PUSH 0\t\t\t\n      DUP4 \t\t\t\n      ADD \t\t\t\n      MSTORE \t\t\t\n      PUSH [tag] 596\t\t\t\n      DUP2 \t\t\t\n      PUSH [tag] 308\t\t\t\n      JUMP \t\t\t\n    tag 596\t\t\t\n      JUMPDEST \t\t\t\n      SWAP1 \t\t\t\n      POP \t\t\t\n      SWAP2 \t\t\t\n      SWAP1 \t\t\t\n      POP \t\t\t\n      JUMP \t\t\t\n    tag 309\t\t\t\n      JUMPDEST \t\t\t\n      PUSH 497373756520616C7265616479207265636F7264656400000000000000000000\t\t\t\n      PUSH 0\t\t\t\n      DUP3 \t\t\t\n      ADD \t\t\t\n      MSTORE \t\t\t\n      POP \t\t\t\n      JUMP \t\t\t\n    tag 310\t\t\t\n      JUMPDEST \t\t\t\n      PUSH 0\t\t\t\n      PUSH [tag] 599\t\t\t\n      PUSH 16\t\t\t\n      DUP4 \t\t\t\n      PUSH [tag] 259\t\t\t\n      JUMP \t\t\t\n    tag 599\t\t\t\n      JUMPDEST \t\t\t\n      SWAP2 \t\t\t\n      POP \t\t\t\n      PUSH [tag] 600\t\t\t\n      DUP3 \t\t\t\n      PUSH [tag] 309\t\t\t\n      JUMP \t\t\t\n    tag 600\t\t\t\n      JUMPDEST \t\t\t\n      PUSH 20\t\t\t\n      DUP3 \t\t\t\n      ADD \t\t\t\n      SWAP1 \t\t\t\n      POP \t\t\t\n      SWAP2 \t\t\t\n      SWAP1 \t\t\t\n      POP \t\t\t\n      JUMP \t\t\t\n    tag 171\t\t\t\n      JUMPDEST \t\t\t\n      PUSH 0\t\t\t\n      PUSH 20\t\t\t\n      DUP3 \t\t\t\n      ADD \t\t\t\n      SWAP1 \t\t\t\n      POP \t\t\t\n      DUP2 \t\t\t\n      DUP2 \t\t\t\n      SUB \t\t\t\n      PUSH 0\t\t\t\n      DUP4 \t\t\t\n      ADD \t\t\t\n      MSTORE \t\t\t\n      PUSH [tag] 602\t\t\t\n      DUP2 \t\t\t\n      PUSH [tag] 310\t\t\t\n      JUMP \t\t\t\n    tag 602\t\t\t\n      JUMPDEST \t\t\t\n      SWAP1 \t\t\t\n      POP \t\t\t\n      SWAP2 \t\t\t\n      SWAP1 \t\t\t\n      POP \t\t\t\n      JUMP \t\t\t\n    tag 181\t\t\t\n      JUMPDEST \t\t\t\n      PUSH 0\t\t\t\n      PUSH 40\t\t\t\n      DUP3 \t\t\t\n      ADD \t\t\t\n      SWAP1 \t\t\t\n      POP \t\t\t\n      DUP2 \t\t\t\n      DUP2 \t\t\t\n      SUB \t\t\t\n      PUSH 0\t\t\t\n      DUP4 \t\t\t\n      ADD \t\t\t\n      MSTORE \t\t\t\n      PUSH [tag] 604\t\t\t\n      DUP2 \t\t\t\n      DUP6 \t\t\t\n      PUSH [tag] 261\t\t\t\n      JUMP \t\t\t\n    tag 604\t\t\t\n      JUMPDEST \t\t\t\n      SWAP1 \t\t\t\n      POP \t\t\t\n      PUSH [tag] 605\t\t\t\n      PUSH 20\t\t\t\n      DUP4 \t\t\t\n      ADD \t\t\t\n      DUP5 \t\t\t\n      PUSH [tag] 251\t\t\t\n      JUMP \t\t\t\n    tag 605\t\t\t\n      JUMPDEST \t\t\t\n      SWAP4 \t\t\t\n      SWAP3 \t\t\t\n      POP \t\t\t\n      POP \t\t\t\n      POP \t\t\t\n      JUMP \t\t\t\n    tag 311\t\t\t\n      JUMPDEST \t\t\t\n      PUSH 4F6666736574206F7574206F6620626F756E6473000000000000000000000000\t\t\t\n      PUSH 0\t\t\t\n      DUP3 \t\t\t\n      ADD \t\t\t\n      MSTORE \t\t\t\n      POP \t\t\t\n      JUMP \t\t\t\n    tag 312\t\t\t\n      JUMPDEST \t\t\t\n      PUSH 0\t\t\t\n      PUSH [tag] 608\t\t\t\n      PUSH 14\t\t\t\n      DUP4 \t\t\t\n      PUSH [tag] 259\t\t\t\n      JUMP \t\t\t\n    tag 608\t\t\t\n      JUMPDEST \t\t\t\n      SWAP2 \t\t\t\n      POP \t\t\t\n      PUSH [tag] 609\t\t\t\n      DUP3 \t\t\t\n      PUSH [tag] 311\t\t\t\n      JUMP \t\t\t\n    tag 609\t\t\t\n      JUMPDEST \t\t\t\n      PUSH 20\t\t\t\n      DUP3 \t\t\t\n      ADD \t\t\t\n      SWAP1 \t\t\t\n      POP \t\t\t\n      SWAP2 \t\t\t\n      SWAP1 \t\t\t\n      POP \t\t\t\n      JUMP \t\t\t\n    tag 185\t\t\t\n      JUMPDEST \t\t\t\n      PUSH 0\t\t\t\n      PUSH 20\t\t\t\n      DUP3 \t\t\t\n      ADD \t\t\t\n      SWAP1 \t\t\t\n      POP \t\t\t\n      DUP2 \t\t\t\n      DUP2 \t\t\t\n      SUB \t\t\t\n      PUSH 0\t\t\t\n      DUP4 \t\t\t\n      ADD \t\t\t\n      MSTORE \t\t\t\n      PUSH [tag] 611\t\t\t\n      DUP2 \t\t\t\n      PUSH [tag] 312\t\t\t\n      JUMP \t\t\t\n    tag 611\t\t\t\n      JUMPDEST \t\t\t\n      SWAP1 \t\t\t\n      POP \t\t\t\n      SWAP2 \t\t\t\n      SWAP1 \t\t\t\n      POP \t\t\t\n      JUMP \t\t\t\n    tag 187\t\t\t\n      JUMPDEST \t\t\t\n      PUSH 0\t\t\t\n      PUSH [tag] 613\t\t\t\n      DUP3 \t\t\t\n      PUSH [tag] 250\t\t\t\n      JUMP \t\t\t\n    tag 613\t\t\t\n      JUMPDEST \t\t\t\n      SWAP2 \t\t\t\n      POP \t\t\t\n      PUSH [tag] 614\t\t\t\n      DUP4 \t\t\t\n      PUSH [tag] 250\t\t\t\n      JUMP \t\t\t\n    tag 614\t\t\t\n      JUMPDEST \t\t\t\n      SWAP3 \t\t\t\n      POP \t\t\t\n      DUP3 \t\t\t\n      DUP3 \t\t\t\n      ADD \t\t\t\n      SWAP1 \t\t\t\n      POP \t\t\t\n      DUP1 \t\t\t\n      DUP3 \t\t\t\n      GT \t\t\t\n      ISZERO \t\t\t\n      PUSH [tag] 615\t\t\t\n      JUMPI \t\t\t\n      PUSH [tag] 616\t\t\t\n      PUSH [tag] 304\t\t\t\n      JUMP \t\t\t\n    tag 616\t\t\t\n      JUMPDEST \t\t\t\n    tag 615\t\t\t\n      JUMPDEST \t\t\t\n      SWAP3 \t\t\t\n      SWAP2 \t\t\t\n      POP \t\t\t\n      POP \t\t\t\n      JUMP \t\t\t\n    tag 190\t\t\t\n      JUMPDEST \t\t\t\n      PUSH 0\t\t\t\n      PUSH [tag] 618\t\t\t\n      DUP3 \t\t\t\n      PUSH [tag] 250\t\t\t\n      JUMP \t\t\t\n    tag 618\t\t\t\n      JUMPDEST \t\t\t\n      SWAP2 \t\t\t\n      POP \t\t\t\n      PUSH [tag] 619\t\t\t\n      DUP4 \t\t\t\n      PUSH [tag] 250\t\t\t\n      JUMP \t\t\t\n    tag 619\t\t\t\n      JUMPDEST \t\t\t\n      SWAP3 \t\t\t\n      POP \t\t\t\n      DUP3 \t\t\t\n      DUP3 \t\t\t\n      SUB \t\t\t\n      SWAP1 \t\t\t\n      POP \t\t\t\n      DUP2 \t\t\t\n      DUP2 \t\t\t\n      GT \t\t\t\n      ISZERO \t\t\t\n      PUSH [tag] 620\t\t\t\n      JUMPI \t\t\t\n      PUSH [tag] 621\t\t\t\n      PUSH [tag] 304\t\t\t\n      JUMP \t\t\t\n    tag 621\t\t\t\n      JUMPDEST \t\t\t\n    tag 620\t\t\t\n      JUMPDEST \t\t\t\n      SWAP3 \t\t\t\n      SWAP2 \t\t\t\n      POP \t\t\t\n      POP \t\t\t\n      JUMP \t\t\t\n    tag 201\t\t\t\n      JUMPDEST \t\t\t\n      PUSH 4E487B7100000000000000000000000000000000000000000000000000000000\t\t\t\n      PUSH 0\t\t\t\n      MSTORE \t\t\t\n      PUSH 32\t\t\t\n      PUSH 4\t\t\t\n      MSTORE \t\t\t\n      PUSH 24\t\t\t\n      PUSH 0\t\t\t\n      REVERT \t\t\t\n    .data\n"
}